{
  "_format": "hh-sol-artifact-1",
  "contractName": "ProfitSplitter",
  "sourceName": "contracts/profit/ProfitSplitter.sol",
  "abi": [
    {
      "inputs": [
        {
          "internalType": "address",
          "name": "_incoming",
          "type": "address"
        },
        {
          "internalType": "address",
          "name": "_uniswapRouter",
          "type": "address"
        }
      ],
      "stateMutability": "nonpayable",
      "type": "constructor"
    },
    {
      "anonymous": false,
      "inputs": [
        {
          "indexed": false,
          "internalType": "address",
          "name": "newBudget",
          "type": "address"
        },
        {
          "indexed": false,
          "internalType": "uint256",
          "name": "newBalance",
          "type": "uint256"
        }
      ],
      "name": "BudgetChanged",
      "type": "event"
    },
    {
      "anonymous": false,
      "inputs": [
        {
          "indexed": false,
          "internalType": "address",
          "name": "newIncoming",
          "type": "address"
        }
      ],
      "name": "IncomingChanged",
      "type": "event"
    },
    {
      "anonymous": false,
      "inputs": [
        {
          "indexed": true,
          "internalType": "address",
          "name": "previousOwner",
          "type": "address"
        },
        {
          "indexed": true,
          "internalType": "address",
          "name": "newOwner",
          "type": "address"
        }
      ],
      "name": "OwnershipTransferred",
      "type": "event"
    },
    {
      "anonymous": false,
      "inputs": [
        {
          "indexed": false,
          "internalType": "address",
          "name": "account",
          "type": "address"
        }
      ],
      "name": "Paused",
      "type": "event"
    },
    {
      "anonymous": false,
      "inputs": [
        {
          "indexed": false,
          "internalType": "address",
          "name": "newPauser",
          "type": "address"
        }
      ],
      "name": "PauserChanged",
      "type": "event"
    },
    {
      "anonymous": false,
      "inputs": [
        {
          "indexed": false,
          "internalType": "address",
          "name": "recipient",
          "type": "address"
        },
        {
          "indexed": false,
          "internalType": "uint256",
          "name": "amount",
          "type": "uint256"
        }
      ],
      "name": "PayToBudget",
      "type": "event"
    },
    {
      "anonymous": false,
      "inputs": [
        {
          "indexed": false,
          "internalType": "address",
          "name": "recipient",
          "type": "address"
        },
        {
          "indexed": false,
          "internalType": "uint256",
          "name": "amount",
          "type": "uint256"
        }
      ],
      "name": "PayToRecipient",
      "type": "event"
    },
    {
      "anonymous": false,
      "inputs": [
        {
          "indexed": false,
          "internalType": "address",
          "name": "recipient",
          "type": "address"
        },
        {
          "indexed": false,
          "internalType": "uint256",
          "name": "share",
          "type": "uint256"
        }
      ],
      "name": "RecipientAdded",
      "type": "event"
    },
    {
      "anonymous": false,
      "inputs": [
        {
          "indexed": false,
          "internalType": "address",
          "name": "recipient",
          "type": "address"
        }
      ],
      "name": "RecipientRemoved",
      "type": "event"
    },
    {
      "anonymous": false,
      "inputs": [
        {
          "indexed": false,
          "internalType": "address",
          "name": "recipient",
          "type": "address"
        },
        {
          "indexed": false,
          "internalType": "uint256",
          "name": "amount",
          "type": "uint256"
        }
      ],
      "name": "Transfer",
      "type": "event"
    },
    {
      "anonymous": false,
      "inputs": [
        {
          "indexed": false,
          "internalType": "address",
          "name": "newUniswapRouter",
          "type": "address"
        }
      ],
      "name": "UniswapRouterChanged",
      "type": "event"
    },
    {
      "anonymous": false,
      "inputs": [
        {
          "indexed": false,
          "internalType": "address",
          "name": "account",
          "type": "address"
        }
      ],
      "name": "Unpaused",
      "type": "event"
    },
    {
      "inputs": [],
      "name": "SHARE_ACCURACY",
      "outputs": [
        {
          "internalType": "uint256",
          "name": "",
          "type": "uint256"
        }
      ],
      "stateMutability": "view",
      "type": "function"
    },
    {
      "inputs": [],
      "name": "SHARE_DIGITS",
      "outputs": [
        {
          "internalType": "uint256",
          "name": "",
          "type": "uint256"
        }
      ],
      "stateMutability": "view",
      "type": "function"
    },
    {
      "inputs": [
        {
          "internalType": "address",
          "name": "recipient",
          "type": "address"
        },
        {
          "internalType": "uint256",
          "name": "share",
          "type": "uint256"
        }
      ],
      "name": "addRecipient",
      "outputs": [],
      "stateMutability": "nonpayable",
      "type": "function"
    },
    {
      "inputs": [],
      "name": "budget",
      "outputs": [
        {
          "internalType": "address payable",
          "name": "",
          "type": "address"
        }
      ],
      "stateMutability": "view",
      "type": "function"
    },
    {
      "inputs": [],
      "name": "budgetBalance",
      "outputs": [
        {
          "internalType": "uint256",
          "name": "",
          "type": "uint256"
        }
      ],
      "stateMutability": "view",
      "type": "function"
    },
    {
      "inputs": [
        {
          "internalType": "address payable",
          "name": "_budget",
          "type": "address"
        },
        {
          "internalType": "uint256",
          "name": "_budgetBalance",
          "type": "uint256"
        }
      ],
      "name": "changeBudget",
      "outputs": [],
      "stateMutability": "nonpayable",
      "type": "function"
    },
    {
      "inputs": [
        {
          "internalType": "address",
          "name": "_incoming",
          "type": "address"
        },
        {
          "internalType": "address",
          "name": "_recipient",
          "type": "address"
        }
      ],
      "name": "changeIncoming",
      "outputs": [],
      "stateMutability": "nonpayable",
      "type": "function"
    },
    {
      "inputs": [
        {
          "internalType": "address",
          "name": "newPauser",
          "type": "address"
        }
      ],
      "name": "changePauser",
      "outputs": [],
      "stateMutability": "nonpayable",
      "type": "function"
    },
    {
      "inputs": [
        {
          "internalType": "address",
          "name": "_uniswapRouter",
          "type": "address"
        }
      ],
      "name": "changeUniswapRouter",
      "outputs": [],
      "stateMutability": "nonpayable",
      "type": "function"
    },
    {
      "inputs": [],
      "name": "getRecipients",
      "outputs": [
        {
          "internalType": "address[]",
          "name": "",
          "type": "address[]"
        }
      ],
      "stateMutability": "view",
      "type": "function"
    },
    {
      "inputs": [],
      "name": "incoming",
      "outputs": [
        {
          "internalType": "contract ERC20",
          "name": "",
          "type": "address"
        }
      ],
      "stateMutability": "view",
      "type": "function"
    },
    {
      "inputs": [],
      "name": "owner",
      "outputs": [
        {
          "internalType": "address",
          "name": "",
          "type": "address"
        }
      ],
      "stateMutability": "view",
      "type": "function"
    },
    {
      "inputs": [],
      "name": "pause",
      "outputs": [],
      "stateMutability": "nonpayable",
      "type": "function"
    },
    {
      "inputs": [],
      "name": "paused",
      "outputs": [
        {
          "internalType": "bool",
          "name": "",
          "type": "bool"
        }
      ],
      "stateMutability": "view",
      "type": "function"
    },
    {
      "inputs": [],
      "name": "pauser",
      "outputs": [
        {
          "internalType": "address",
          "name": "",
          "type": "address"
        }
      ],
      "stateMutability": "view",
      "type": "function"
    },
    {
      "inputs": [
        {
          "internalType": "address",
          "name": "recipient",
          "type": "address"
        }
      ],
      "name": "removeRecipient",
      "outputs": [],
      "stateMutability": "nonpayable",
      "type": "function"
    },
    {
      "inputs": [],
      "name": "renounceOwnership",
      "outputs": [],
      "stateMutability": "nonpayable",
      "type": "function"
    },
    {
      "inputs": [
        {
          "internalType": "address",
          "name": "",
          "type": "address"
        }
      ],
      "name": "shares",
      "outputs": [
        {
          "internalType": "uint256",
          "name": "",
          "type": "uint256"
        }
      ],
      "stateMutability": "view",
      "type": "function"
    },
    {
      "inputs": [
        {
          "internalType": "uint256",
          "name": "amount",
          "type": "uint256"
        }
      ],
      "name": "split",
      "outputs": [],
      "stateMutability": "nonpayable",
      "type": "function"
    },
    {
      "inputs": [
        {
          "internalType": "address",
          "name": "_recipient",
          "type": "address"
        },
        {
          "internalType": "uint256",
          "name": "amount",
          "type": "uint256"
        }
      ],
      "name": "transfer",
      "outputs": [],
      "stateMutability": "nonpayable",
      "type": "function"
    },
    {
      "inputs": [
        {
          "internalType": "address",
          "name": "newOwner",
          "type": "address"
        }
      ],
      "name": "transferOwnership",
      "outputs": [],
      "stateMutability": "nonpayable",
      "type": "function"
    },
    {
      "inputs": [],
      "name": "uniswapRouter",
      "outputs": [
        {
          "internalType": "contract IUniswapV2Router02",
          "name": "",
          "type": "address"
        }
      ],
      "stateMutability": "view",
      "type": "function"
    },
    {
      "inputs": [],
      "name": "unpause",
      "outputs": [],
      "stateMutability": "nonpayable",
      "type": "function"
    },
    {
      "stateMutability": "payable",
      "type": "receive"
    }
  ],
  "bytecode": "0x60806040523480156200001157600080fd5b506040516200441638038062004416833981810160405281019062000037919062000223565b600062000049620001db60201b60201c565b9050806000806101000a81548173ffffffffffffffffffffffffffffffffffffffff021916908373ffffffffffffffffffffffffffffffffffffffff1602179055508073ffffffffffffffffffffffffffffffffffffffff16600073ffffffffffffffffffffffffffffffffffffffff167f8be0079c531659141344cd1fd0a4f28419497f9722a3daafe3b4186f6b6457e060405160405180910390a35060008060146101000a81548160ff02191690831515021790555062000111620001e360201b60201c565b600160006101000a81548173ffffffffffffffffffffffffffffffffffffffff021916908373ffffffffffffffffffffffffffffffffffffffff16021790555081600260006101000a81548173ffffffffffffffffffffffffffffffffffffffff021916908373ffffffffffffffffffffffffffffffffffffffff16021790555080600860006101000a81548173ffffffffffffffffffffffffffffffffffffffff021916908373ffffffffffffffffffffffffffffffffffffffff1602179055505050620002b2565b600033905090565b60008060009054906101000a900473ffffffffffffffffffffffffffffffffffffffff16905090565b6000815190506200021d8162000298565b92915050565b600080604083850312156200023757600080fd5b600062000247858286016200020c565b92505060206200025a858286016200020c565b9150509250929050565b6000620002718262000278565b9050919050565b600073ffffffffffffffffffffffffffffffffffffffff82169050919050565b620002a38162000264565b8114620002af57600080fd5b50565b61415480620002c26000396000f3fe6080604052600436106101445760003560e01c80638da5cb5b116100b6578063d78d610b1161006f578063d78d610b146103f7578063dbceb00514610422578063ed01bf291461044b578063f2fde38b14610476578063f6dedc3f1461049f578063f7982243146104c85761014b565b80638da5cb5b146102e75780639fc8f2fe146103125780639fd0506d1461033d578063a9059cbb14610368578063c337083714610391578063ce7c2ac2146103ba5761014b565b8063562400fb11610108578063562400fb1461020d5780635c975abb14610238578063715018a614610263578063735de9f71461027a578063756043c3146102a55780638456cb59146102d05761014b565b806312a29198146101505780632cd271e7146101795780633f4ba83a146101a257806348249787146101b957806351e8b2b8146101e45761014b565b3661014b57005b600080fd5b34801561015c57600080fd5b5061017760048036038101906101729190612ec6565b6104f1565b005b34801561018557600080fd5b506101a0600480360381019061019b9190612ec6565b61066d565b005b3480156101ae57600080fd5b506101b761079f565b005b3480156101c557600080fd5b506101ce610884565b6040516101db9190613e41565b60405180910390f35b3480156101f057600080fd5b5061020b60048036038101906102069190612f18565b61088a565b005b34801561021957600080fd5b506102226109c8565b60405161022f9190613e41565b60405180910390f35b34801561024457600080fd5b5061024d6109cd565b60405161025a9190613b2e565b60405180910390f35b34801561026f57600080fd5b506102786109e3565b005b34801561028657600080fd5b5061028f610b36565b60405161029c9190613b64565b60405180910390f35b3480156102b157600080fd5b506102ba610b5c565b6040516102c79190613e41565b60405180910390f35b3480156102dc57600080fd5b506102e5610b61565b005b3480156102f357600080fd5b506102fc610c46565b6040516103099190613a09565b60405180910390f35b34801561031e57600080fd5b50610327610c6f565b6040516103349190613b49565b60405180910390f35b34801561034957600080fd5b50610352610c95565b60405161035f9190613a09565b60405180910390f35b34801561037457600080fd5b5061038f600480360381019061038a9190612f90565b610cbb565b005b34801561039d57600080fd5b506103b860048036038101906103b39190612ec6565b610e4a565b005b3480156103c657600080fd5b506103e160048036038101906103dc9190612ec6565b610f5a565b6040516103ee9190613e41565b60405180910390f35b34801561040357600080fd5b5061040c610f72565b6040516104199190613b0c565b60405180910390f35b34801561042e57600080fd5b5061044960048036038101906104449190613036565b61104a565b005b34801561045757600080fd5b50610460611108565b60405161046d9190613a3f565b60405180910390f35b34801561048257600080fd5b5061049d60048036038101906104989190612ec6565b61112e565b005b3480156104ab57600080fd5b506104c660048036038101906104c19190612f54565b6112f0565b005b3480156104d457600080fd5b506104ef60048036038101906104ea9190612f90565b611556565b005b6104f9611732565b73ffffffffffffffffffffffffffffffffffffffff1660008054906101000a900473ffffffffffffffffffffffffffffffffffffffff1673ffffffffffffffffffffffffffffffffffffffff1614610586576040517f08c379a000000000000000000000000000000000000000000000000000000000815260040161057d90613ce1565b60405180910390fd5b61059a81600661173a90919063ffffffff16565b6105d9576040517f08c379a00000000000000000000000000000000000000000000000000000000081526004016105d090613dc1565b60405180910390fd5b6105ed81600661176a90919063ffffffff16565b506000600560008373ffffffffffffffffffffffffffffffffffffffff1673ffffffffffffffffffffffffffffffffffffffff168152602001908152602001600020819055507f8176fc5412eb5076fee7f1a264915b808c24d495c2698c189030e5200e707d25816040516106629190613a09565b60405180910390a150565b610675611732565b73ffffffffffffffffffffffffffffffffffffffff1660008054906101000a900473ffffffffffffffffffffffffffffffffffffffff1673ffffffffffffffffffffffffffffffffffffffff1614610702576040517f08c379a00000000000000000000000000000000000000000000000000000000081526004016106f990613ce1565b60405180910390fd5b80600160006101000a81548173ffffffffffffffffffffffffffffffffffffffff021916908373ffffffffffffffffffffffffffffffffffffffff1602179055507fb80482a293ca2e013eda8683c9bd7fc8347cfdaeea5ede58cba46df502c2a604600160009054906101000a900473ffffffffffffffffffffffffffffffffffffffff166040516107949190613a09565b60405180910390a150565b6107a7611732565b73ffffffffffffffffffffffffffffffffffffffff16600160009054906101000a900473ffffffffffffffffffffffffffffffffffffffff1673ffffffffffffffffffffffffffffffffffffffff16148061083b5750610805611732565b73ffffffffffffffffffffffffffffffffffffffff16610823610c46565b73ffffffffffffffffffffffffffffffffffffffff16145b61087a576040517f08c379a000000000000000000000000000000000000000000000000000000000815260040161087190613c21565b60405180910390fd5b61088261179a565b565b60045481565b610892611732565b73ffffffffffffffffffffffffffffffffffffffff1660008054906101000a900473ffffffffffffffffffffffffffffffffffffffff1673ffffffffffffffffffffffffffffffffffffffff161461091f576040517f08c379a000000000000000000000000000000000000000000000000000000000815260040161091690613ce1565b60405180910390fd5b81600360006101000a81548173ffffffffffffffffffffffffffffffffffffffff021916908373ffffffffffffffffffffffffffffffffffffffff160217905550806004819055507f5525073b5c48f4c3eb60e9fb2683ee9af96b397fc711f96129331b6fb337439d600360009054906101000a900473ffffffffffffffffffffffffffffffffffffffff166004546040516109bc929190613a5a565b60405180910390a15050565b600681565b60008060149054906101000a900460ff16905090565b6109eb611732565b73ffffffffffffffffffffffffffffffffffffffff1660008054906101000a900473ffffffffffffffffffffffffffffffffffffffff1673ffffffffffffffffffffffffffffffffffffffff1614610a78576040517f08c379a0000000000000000000000000000000000000000000000000000000008152600401610a6f90613ce1565b60405180910390fd5b600073ffffffffffffffffffffffffffffffffffffffff1660008054906101000a900473ffffffffffffffffffffffffffffffffffffffff1673ffffffffffffffffffffffffffffffffffffffff167f8be0079c531659141344cd1fd0a4f28419497f9722a3daafe3b4186f6b6457e060405160405180910390a360008060006101000a81548173ffffffffffffffffffffffffffffffffffffffff021916908373ffffffffffffffffffffffffffffffffffffffff160217905550565b600860009054906101000a900473ffffffffffffffffffffffffffffffffffffffff1681565b600281565b610b69611732565b73ffffffffffffffffffffffffffffffffffffffff16600160009054906101000a900473ffffffffffffffffffffffffffffffffffffffff1673ffffffffffffffffffffffffffffffffffffffff161480610bfd5750610bc7611732565b73ffffffffffffffffffffffffffffffffffffffff16610be5610c46565b73ffffffffffffffffffffffffffffffffffffffff16145b610c3c576040517f08c379a0000000000000000000000000000000000000000000000000000000008152600401610c3390613c01565b60405180910390fd5b610c44611843565b565b60008060009054906101000a900473ffffffffffffffffffffffffffffffffffffffff16905090565b600260009054906101000a900473ffffffffffffffffffffffffffffffffffffffff1681565b600160009054906101000a900473ffffffffffffffffffffffffffffffffffffffff1681565b610cc3611732565b73ffffffffffffffffffffffffffffffffffffffff1660008054906101000a900473ffffffffffffffffffffffffffffffffffffffff1673ffffffffffffffffffffffffffffffffffffffff1614610d50576040517f08c379a0000000000000000000000000000000000000000000000000000000008152600401610d4790613ce1565b60405180910390fd5b600073ffffffffffffffffffffffffffffffffffffffff168273ffffffffffffffffffffffffffffffffffffffff161415610dc0576040517f08c379a0000000000000000000000000000000000000000000000000000000008152600401610db790613d01565b60405180910390fd5b610e0d8282600260009054906101000a900473ffffffffffffffffffffffffffffffffffffffff1673ffffffffffffffffffffffffffffffffffffffff166118ee9092919063ffffffff16565b7f69ca02dd4edd7bf0a4abb9ed3b7af3f14778db5d61921c7dc7cd545266326de28282604051610e3e929190613ae3565b60405180910390a15050565b610e52611732565b73ffffffffffffffffffffffffffffffffffffffff1660008054906101000a900473ffffffffffffffffffffffffffffffffffffffff1673ffffffffffffffffffffffffffffffffffffffff1614610edf576040517f08c379a0000000000000000000000000000000000000000000000000000000008152600401610ed690613ce1565b60405180910390fd5b80600860006101000a81548173ffffffffffffffffffffffffffffffffffffffff021916908373ffffffffffffffffffffffffffffffffffffffff1602179055507f0a3776494a324cdd72863deb1475d9eb705db96d66e7e199f3ebe4948343a43881604051610f4f9190613a09565b60405180910390a150565b60056020528060005260406000206000915090505481565b606080610f7f6006611974565b67ffffffffffffffff81118015610f9557600080fd5b50604051908082528060200260200182016040528015610fc45781602001602082028036833780820191505090505b50905060005b610fd46006611974565b81101561104257610fef81600661198990919063ffffffff16565b828281518110610ffb57fe5b602002602001019073ffffffffffffffffffffffffffffffffffffffff16908173ffffffffffffffffffffffffffffffffffffffff16815250508080600101915050610fca565b508091505090565b600060149054906101000a900460ff161561109a576040517f08c379a000000000000000000000000000000000000000000000000000000000815260040161109190613c81565b60405180910390fd5b60008111156110f3576110f2333083600260009054906101000a900473ffffffffffffffffffffffffffffffffffffffff1673ffffffffffffffffffffffffffffffffffffffff166119a3909392919063ffffffff16565b5b6110fb611a2c565b5061110461235a565b5050565b600360009054906101000a900473ffffffffffffffffffffffffffffffffffffffff1681565b611136611732565b73ffffffffffffffffffffffffffffffffffffffff1660008054906101000a900473ffffffffffffffffffffffffffffffffffffffff1673ffffffffffffffffffffffffffffffffffffffff16146111c3576040517f08c379a00000000000000000000000000000000000000000000000000000000081526004016111ba90613ce1565b60405180910390fd5b600073ffffffffffffffffffffffffffffffffffffffff168173ffffffffffffffffffffffffffffffffffffffff161415611233576040517f08c379a000000000000000000000000000000000000000000000000000000000815260040161122a90613be1565b60405180910390fd5b8073ffffffffffffffffffffffffffffffffffffffff1660008054906101000a900473ffffffffffffffffffffffffffffffffffffffff1673ffffffffffffffffffffffffffffffffffffffff167f8be0079c531659141344cd1fd0a4f28419497f9722a3daafe3b4186f6b6457e060405160405180910390a3806000806101000a81548173ffffffffffffffffffffffffffffffffffffffff021916908373ffffffffffffffffffffffffffffffffffffffff16021790555050565b6112f8611732565b73ffffffffffffffffffffffffffffffffffffffff1660008054906101000a900473ffffffffffffffffffffffffffffffffffffffff1673ffffffffffffffffffffffffffffffffffffffff1614611385576040517f08c379a000000000000000000000000000000000000000000000000000000000815260040161137c90613ce1565b60405180910390fd5b8173ffffffffffffffffffffffffffffffffffffffff16600260009054906101000a900473ffffffffffffffffffffffffffffffffffffffff1673ffffffffffffffffffffffffffffffffffffffff161415611416576040517f08c379a000000000000000000000000000000000000000000000000000000000815260040161140d90613c61565b60405180910390fd5b6000600260009054906101000a900473ffffffffffffffffffffffffffffffffffffffff1673ffffffffffffffffffffffffffffffffffffffff166370a08231306040518263ffffffff1660e01b81526004016114739190613a24565b60206040518083038186803b15801561148b57600080fd5b505afa15801561149f573d6000803e3d6000fd5b505050506040513d601f19601f820116820180604052508101906114c3919061305f565b905060008111156114d9576114d88282610cbb565b5b82600260006101000a81548173ffffffffffffffffffffffffffffffffffffffff021916908373ffffffffffffffffffffffffffffffffffffffff1602179055507fefe17208340787cbdf98b690d3d3dc01263f933ae65ed1a4d95f34607ab3af42836040516115499190613a09565b60405180910390a1505050565b61155e611732565b73ffffffffffffffffffffffffffffffffffffffff1660008054906101000a900473ffffffffffffffffffffffffffffffffffffffff1673ffffffffffffffffffffffffffffffffffffffff16146115eb576040517f08c379a00000000000000000000000000000000000000000000000000000000081526004016115e290613ce1565b60405180910390fd5b6115ff82600661173a90919063ffffffff16565b1561163f576040517f08c379a000000000000000000000000000000000000000000000000000000000815260040161163690613d21565b60405180910390fd5b606461165b8261164d612583565b61261490919063ffffffff16565b111561169c576040517f08c379a000000000000000000000000000000000000000000000000000000000815260040161169390613e21565b60405180910390fd5b6116b082600661266990919063ffffffff16565b5080600560008473ffffffffffffffffffffffffffffffffffffffff1673ffffffffffffffffffffffffffffffffffffffff168152602001908152602001600020819055507f79e1204b22e0669817ad586b72c3139f6c32afa18749b53228050f4c7f6964678282604051611726929190613ae3565b60405180910390a15050565b600033905090565b6000611762836000018373ffffffffffffffffffffffffffffffffffffffff1660001b612699565b905092915050565b6000611792836000018373ffffffffffffffffffffffffffffffffffffffff1660001b6126bc565b905092915050565b600060149054906101000a900460ff166117e9576040517f08c379a00000000000000000000000000000000000000000000000000000000081526004016117e090613bc1565b60405180910390fd5b60008060146101000a81548160ff0219169083151502179055507f5db9ee0a495bf2e6ff9c91a7834c1ba4fdd244a5e8aa4e537bd38aeae4b073aa61182c611732565b6040516118399190613a24565b60405180910390a1565b600060149054906101000a900460ff1615611893576040517f08c379a000000000000000000000000000000000000000000000000000000000815260040161188a90613c81565b60405180910390fd5b6001600060146101000a81548160ff0219169083151502179055507f62e78cea01bee320cd4e420270b5ea74000d11b0c9f74754ebdbfc544b05a2586118d7611732565b6040516118e49190613a24565b60405180910390a1565b61196f8363a9059cbb60e01b848460405160240161190d929190613ae3565b604051602081830303815290604052907bffffffffffffffffffffffffffffffffffffffffffffffffffffffff19166020820180517bffffffffffffffffffffffffffffffffffffffffffffffffffffffff83818316178352505050506127a4565b505050565b60006119828260000161286b565b9050919050565b6000611998836000018361287c565b60001c905092915050565b611a26846323b872dd60e01b8585856040516024016119c493929190613aac565b604051602081830303815290604052907bffffffffffffffffffffffffffffffffffffffffffffffffffffffff19166020820180517bffffffffffffffffffffffffffffffffffffffffffffffffffffffff83818316178352505050506127a4565b50505050565b600080600260009054906101000a900473ffffffffffffffffffffffffffffffffffffffff1673ffffffffffffffffffffffffffffffffffffffff166370a08231306040518263ffffffff1660e01b8152600401611a8a9190613a24565b60206040518083038186803b158015611aa257600080fd5b505afa158015611ab6573d6000803e3d6000fd5b505050506040513d601f19601f82011682018060405250810190611ada919061305f565b90506000811415611aef576000915050612357565b6000600360009054906101000a900473ffffffffffffffffffffffffffffffffffffffff1673ffffffffffffffffffffffffffffffffffffffff163190506004548110611b4157600092505050612357565b6000611b58826004546128e990919063ffffffff16565b905060004790508181101561228a576000611b7c82846128e990919063ffffffff16565b90506060600267ffffffffffffffff81118015611b9857600080fd5b50604051908082528060200260200182016040528015611bc75781602001602082028036833780820191505090505b509050600260009054906101000a900473ffffffffffffffffffffffffffffffffffffffff1681600081518110611bfa57fe5b602002602001019073ffffffffffffffffffffffffffffffffffffffff16908173ffffffffffffffffffffffffffffffffffffffff1681525050600860009054906101000a900473ffffffffffffffffffffffffffffffffffffffff1673ffffffffffffffffffffffffffffffffffffffff1663ad5c46486040518163ffffffff1660e01b815260040160206040518083038186803b158015611c9c57600080fd5b505afa158015611cb0573d6000803e3d6000fd5b505050506040513d601f19601f82011682018060405250810190611cd49190612eef565b81600181518110611ce157fe5b602002602001019073ffffffffffffffffffffffffffffffffffffffff16908173ffffffffffffffffffffffffffffffffffffffff16815250506060600860009054906101000a900473ffffffffffffffffffffffffffffffffffffffff1673ffffffffffffffffffffffffffffffffffffffff16631f00ca7484846040518363ffffffff1660e01b8152600401611d7a929190613e5c565b60006040518083038186803b158015611d9257600080fd5b505afa158015611da6573d6000803e3d6000fd5b505050506040513d6000823e3d601f19601f82011682018060405250810190611dcf9190612fcc565b90506002815114611e15576040517f08c379a0000000000000000000000000000000000000000000000000000000008152600401611e0c90613e01565b60405180910390fd5b600081600081518110611e2457fe5b602002602001015111611e6c576040517f08c379a0000000000000000000000000000000000000000000000000000000008152600401611e6390613d41565b60405180910390fd5b8681600081518110611e7a57fe5b602002602001015111611fde57611f0a600860009054906101000a900473ffffffffffffffffffffffffffffffffffffffff1682600081518110611eba57fe5b6020026020010151600260009054906101000a900473ffffffffffffffffffffffffffffffffffffffff1673ffffffffffffffffffffffffffffffffffffffff166129339092919063ffffffff16565b600860009054906101000a900473ffffffffffffffffffffffffffffffffffffffff1673ffffffffffffffffffffffffffffffffffffffff16634a25d94a8483600081518110611f5657fe5b60200260200101518530426040518663ffffffff1660e01b8152600401611f81959493929190613e8c565b600060405180830381600087803b158015611f9b57600080fd5b505af1158015611faf573d6000803e3d6000fd5b505050506040513d6000823e3d601f19601f82011682018060405250810190611fd89190612fcc565b50612286565b6060600860009054906101000a900473ffffffffffffffffffffffffffffffffffffffff1673ffffffffffffffffffffffffffffffffffffffff1663d06ca61f89856040518363ffffffff1660e01b815260040161203d929190613e5c565b60006040518083038186803b15801561205557600080fd5b505afa158015612069573d6000803e3d6000fd5b505050506040513d6000823e3d601f19601f820116820180604052508101906120929190612fcc565b905060028151146120d8576040517f08c379a00000000000000000000000000000000000000000000000000000000081526004016120cf90613d81565b60405180910390fd5b6000816001815181106120e757fe5b60200260200101511161212f576040517f08c379a000000000000000000000000000000000000000000000000000000000815260040161212690613ca1565b60405180910390fd5b8060018151811061213c57fe5b602002602001015195506121b5600860009054906101000a900473ffffffffffffffffffffffffffffffffffffffff1689600260009054906101000a900473ffffffffffffffffffffffffffffffffffffffff1673ffffffffffffffffffffffffffffffffffffffff166129339092919063ffffffff16565b600860009054906101000a900473ffffffffffffffffffffffffffffffffffffffff1673ffffffffffffffffffffffffffffffffffffffff166318cbafe5898360018151811061220157fe5b60200260200101518630426040518663ffffffff1660e01b815260040161222c959493929190613e8c565b600060405180830381600087803b15801561224657600080fd5b505af115801561225a573d6000803e3d6000fd5b505050506040513d6000823e3d601f19601f820116820180604052508101906122839190612fcc565b50505b5050505b600360009054906101000a900473ffffffffffffffffffffffffffffffffffffffff1673ffffffffffffffffffffffffffffffffffffffff166108fc839081150290604051600060405180830381858888f193505050501580156122f2573d6000803e3d6000fd5b507faf728e27f6982cf8664dd0a502802370b9c71a6e3e2ccf57a9656fa408a51b8e600360009054906101000a900473ffffffffffffffffffffffffffffffffffffffff1683604051612346929190613a5a565b60405180910390a160019450505050505b90565b600080600260009054906101000a900473ffffffffffffffffffffffffffffffffffffffff1673ffffffffffffffffffffffffffffffffffffffff166370a08231306040518263ffffffff1660e01b81526004016123b89190613a24565b60206040518083038186803b1580156123d057600080fd5b505afa1580156123e4573d6000803e3d6000fd5b505050506040513d601f19601f82011682018060405250810190612408919061305f565b9050600081141561241d576000915050612580565b60005b61242a6006611974565b81101561257957600061244782600661198990919063ffffffff16565b90506000600560008373ffffffffffffffffffffffffffffffffffffffff1673ffffffffffffffffffffffffffffffffffffffff16815260200190815260200160002054905060006124e16124a76002600661261490919063ffffffff16565b600a0a6124d3846124c56006600a0a8a612a9190919063ffffffff16565b612a9190919063ffffffff16565b612b0190919063ffffffff16565b90506125308382600260009054906101000a900473ffffffffffffffffffffffffffffffffffffffff1673ffffffffffffffffffffffffffffffffffffffff166118ee9092919063ffffffff16565b7f89a2b21c9895bbb8506e9de454d15ab9cf93782b8d2a4b61120331c3610b35ee8382604051612561929190613ae3565b60405180910390a15050508080600101915050612420565b5060019150505b90565b600080600090505b6125956006611974565b81101561261057612601600560006125b784600661198990919063ffffffff16565b73ffffffffffffffffffffffffffffffffffffffff1673ffffffffffffffffffffffffffffffffffffffff168152602001908152602001600020548361261490919063ffffffff16565b9150808060010191505061258b565b5090565b60008082840190508381101561265f576040517f08c379a000000000000000000000000000000000000000000000000000000000815260040161265690613c41565b60405180910390fd5b8091505092915050565b6000612691836000018373ffffffffffffffffffffffffffffffffffffffff1660001b612b4b565b905092915050565b600080836001016000848152602001908152602001600020541415905092915050565b60008083600101600084815260200190815260200160002054905060008114612798576000600182039050600060018660000180549050039050600086600001828154811061270757fe5b906000526020600020015490508087600001848154811061272457fe5b906000526020600020018190555060018301876001016000838152602001908152602001600020819055508660000180548061275c57fe5b6001900381819060005260206000200160009055905586600101600087815260200190815260200160002060009055600194505050505061279e565b60009150505b92915050565b6060612806826040518060400160405280602081526020017f5361666545524332303a206c6f772d6c6576656c2063616c6c206661696c65648152508573ffffffffffffffffffffffffffffffffffffffff16612bbb9092919063ffffffff16565b90506000815111156128665780806020019051810190612826919061300d565b612865576040517f08c379a000000000000000000000000000000000000000000000000000000000815260040161285c90613da1565b60405180910390fd5b5b505050565b600081600001805490509050919050565b6000818360000180549050116128c7576040517f08c379a00000000000000000000000000000000000000000000000000000000081526004016128be90613ba1565b60405180910390fd5b8260000182815481106128d657fe5b9060005260206000200154905092915050565b600061292b83836040518060400160405280601e81526020017f536166654d6174683a207375627472616374696f6e206f766572666c6f770000815250612bd3565b905092915050565b60008114806129cc575060008373ffffffffffffffffffffffffffffffffffffffff1663dd62ed3e30856040518363ffffffff1660e01b815260040161297a929190613a83565b60206040518083038186803b15801561299257600080fd5b505afa1580156129a6573d6000803e3d6000fd5b505050506040513d601f19601f820116820180604052508101906129ca919061305f565b145b612a0b576040517f08c379a0000000000000000000000000000000000000000000000000000000008152600401612a0290613de1565b60405180910390fd5b612a8c8363095ea7b360e01b8484604051602401612a2a929190613ae3565b604051602081830303815290604052907bffffffffffffffffffffffffffffffffffffffffffffffffffffffff19166020820180517bffffffffffffffffffffffffffffffffffffffffffffffffffffffff83818316178352505050506127a4565b505050565b600080831415612aa45760009050612afb565b6000828402905082848281612ab557fe5b0414612af6576040517f08c379a0000000000000000000000000000000000000000000000000000000008152600401612aed90613cc1565b60405180910390fd5b809150505b92915050565b6000612b4383836040518060400160405280601a81526020017f536166654d6174683a206469766973696f6e206279207a65726f000000000000815250612c2e565b905092915050565b6000612b578383612699565b612bb0578260000182908060018154018082558091505060019003906000526020600020016000909190919091505582600001805490508360010160008481526020019081526020016000208190555060019050612bb5565b600090505b92915050565b6060612bca8484600085612c8f565b90509392505050565b6000838311158290612c1b576040517f08c379a0000000000000000000000000000000000000000000000000000000008152600401612c129190613b7f565b60405180910390fd5b5060008385039050809150509392505050565b60008083118290612c75576040517f08c379a0000000000000000000000000000000000000000000000000000000008152600401612c6c9190613b7f565b60405180910390fd5b506000838581612c8157fe5b049050809150509392505050565b6060612c9a85612db2565b612cd9576040517f08c379a0000000000000000000000000000000000000000000000000000000008152600401612cd090613d61565b60405180910390fd5b600060608673ffffffffffffffffffffffffffffffffffffffff168587604051612d0391906139f2565b60006040518083038185875af1925050503d8060008114612d40576040519150601f19603f3d011682016040523d82523d6000602084013e612d45565b606091505b50915091508115612d5a578092505050612daa565b600081511115612d6d5780518082602001fd5b836040517f08c379a0000000000000000000000000000000000000000000000000000000008152600401612da19190613b7f565b60405180910390fd5b949350505050565b600080823b905060008111915050919050565b600081359050612dd4816140c2565b92915050565b600081519050612de9816140c2565b92915050565b600081359050612dfe816140d9565b92915050565b600082601f830112612e1557600080fd5b8151612e28612e2382613f13565b613ee6565b91508181835260208401935060208101905083856020840282011115612e4d57600080fd5b60005b83811015612e7d5781612e638882612eb1565b845260208401935060208301925050600181019050612e50565b5050505092915050565b600081519050612e96816140f0565b92915050565b600081359050612eab81614107565b92915050565b600081519050612ec081614107565b92915050565b600060208284031215612ed857600080fd5b6000612ee684828501612dc5565b91505092915050565b600060208284031215612f0157600080fd5b6000612f0f84828501612dda565b91505092915050565b60008060408385031215612f2b57600080fd5b6000612f3985828601612def565b9250506020612f4a85828601612e9c565b9150509250929050565b60008060408385031215612f6757600080fd5b6000612f7585828601612dc5565b9250506020612f8685828601612dc5565b9150509250929050565b60008060408385031215612fa357600080fd5b6000612fb185828601612dc5565b9250506020612fc285828601612e9c565b9150509250929050565b600060208284031215612fde57600080fd5b600082015167ffffffffffffffff811115612ff857600080fd5b61300484828501612e04565b91505092915050565b60006020828403121561301f57600080fd5b600061302d84828501612e87565b91505092915050565b60006020828403121561304857600080fd5b600061305684828501612e9c565b91505092915050565b60006020828403121561307157600080fd5b600061307f84828501612eb1565b91505092915050565b600061309483836130be565b60208301905092915050565b6130a981614000565b82525050565b6130b881613fb8565b82525050565b6130c781613fa6565b82525050565b6130d681613fa6565b82525050565b60006130e782613f4b565b6130f18185613f79565b93506130fc83613f3b565b8060005b8381101561312d5781516131148882613088565b975061311f83613f6c565b925050600181019050613100565b5085935050505092915050565b61314381613fca565b82525050565b600061315482613f56565b61315e8185613f8a565b935061316e81856020860161407e565b80840191505092915050565b61318381614012565b82525050565b61319281614036565b82525050565b60006131a382613f61565b6131ad8185613f95565b93506131bd81856020860161407e565b6131c6816140b1565b840191505092915050565b60006131de602283613f95565b91507f456e756d657261626c655365743a20696e646578206f7574206f6620626f756e60008301527f64730000000000000000000000000000000000000000000000000000000000006020830152604082019050919050565b6000613244601483613f95565b91507f5061757361626c653a206e6f74207061757365640000000000000000000000006000830152602082019050919050565b6000613284602683613f95565b91507f4f776e61626c653a206e6577206f776e657220697320746865207a65726f206160008301527f64647265737300000000000000000000000000000000000000000000000000006020830152604082019050919050565b60006132ea604183613f95565b91507f4f776e61626c655061757361626c653a3a70617573653a206f6e6c792070617560008301527f73657220616e64206f776e6572206d75737420706175736520636f6e7472616360208301527f74000000000000000000000000000000000000000000000000000000000000006040830152606082019050919050565b6000613376604583613f95565b91507f4f776e61626c655061757361626c653a3a756e70617573653a206f6e6c79207060008301527f617573657220616e64206f776e6572206d75737420756e706175736520636f6e60208301527f74726163740000000000000000000000000000000000000000000000000000006040830152606082019050919050565b6000613402601b83613f95565b91507f536166654d6174683a206164646974696f6e206f766572666c6f7700000000006000830152602082019050919050565b6000613442604083613f95565b91507f50726f66697453706c69747465723a3a6368616e6765496e636f6d696e673a2060008301527f6475706c696361746520696e636f6d696e6720746f6b656e20616464726573736020830152604082019050919050565b60006134a8601083613f95565b91507f5061757361626c653a20706175736564000000000000000000000000000000006000830152602082019050919050565b60006134e8604183613f95565b91507f50726f66697453706c69747465723a3a5f706179546f4275646765743a20616d60008301527f6f756e7473206f7574206c697175696469747920706f6f6c20697320656d707460208301527f79000000000000000000000000000000000000000000000000000000000000006040830152606082019050919050565b6000613574602183613f95565b91507f536166654d6174683a206d756c7469706c69636174696f6e206f766572666c6f60008301527f77000000000000000000000000000000000000000000000000000000000000006020830152604082019050919050565b60006135da602083613f95565b91507f4f776e61626c653a2063616c6c6572206973206e6f7420746865206f776e65726000830152602082019050919050565b600061361a603d83613f95565b91507f50726f66697453706c69747465723a3a7472616e736665723a2063616e6e6f7460008301527f207472616e7366657220746f20746865207a65726f20616464726573730000006020830152604082019050919050565b6000613680603583613f95565b91507f50726f66697453706c69747465723a3a616464526563697069656e743a20726560008301527f63697069656e7420616c726561647920616464656400000000000000000000006020830152604082019050919050565b60006136e6603583613f95565b91507f50726f66697453706c69747465723a3a5f706179546f4275646765743a206c6960008301527f7175696469747920706f6f6c20697320656d70747900000000000000000000006020830152604082019050919050565b600061374c601d83613f95565b91507f416464726573733a2063616c6c20746f206e6f6e2d636f6e74726163740000006000830152602082019050919050565b600061378c603883613f95565b91507f50726f66697453706c69747465723a3a5f706179546f4275646765743a20696e60008301527f76616c696420616d6f756e7473206f7574206c656e67746800000000000000006020830152604082019050919050565b60006137f2602a83613f95565b91507f5361666545524332303a204552433230206f7065726174696f6e20646964206e60008301527f6f742073756363656564000000000000000000000000000000000000000000006020830152604082019050919050565b6000613858603a83613f95565b91507f50726f66697453706c69747465723a3a72656d6f7665526563697069656e743a60008301527f20726563697069656e7420616c72656164792072656d6f7665640000000000006020830152604082019050919050565b60006138be603683613f95565b91507f5361666545524332303a20617070726f76652066726f6d206e6f6e2d7a65726f60008301527f20746f206e6f6e2d7a65726f20616c6c6f77616e6365000000000000000000006020830152604082019050919050565b6000613924603783613f95565b91507f50726f66697453706c69747465723a3a5f706179546f4275646765743a20696e60008301527f76616c696420616d6f756e747320696e206c656e6774680000000000000000006020830152604082019050919050565b600061398a602b83613f95565b91507f50726f66697453706c69747465723a3a616464526563697069656e743a20696e60008301527f76616c69642073686172650000000000000000000000000000000000000000006020830152604082019050919050565b6139ec81613ff6565b82525050565b60006139fe8284613149565b915081905092915050565b6000602082019050613a1e60008301846130cd565b92915050565b6000602082019050613a3960008301846130a0565b92915050565b6000602082019050613a5460008301846130af565b92915050565b6000604082019050613a6f60008301856130a0565b613a7c60208301846139e3565b9392505050565b6000604082019050613a9860008301856130cd565b613aa560208301846130cd565b9392505050565b6000606082019050613ac160008301866130cd565b613ace60208301856130cd565b613adb60408301846139e3565b949350505050565b6000604082019050613af860008301856130cd565b613b0560208301846139e3565b9392505050565b60006020820190508181036000830152613b2681846130dc565b905092915050565b6000602082019050613b43600083018461313a565b92915050565b6000602082019050613b5e600083018461317a565b92915050565b6000602082019050613b796000830184613189565b92915050565b60006020820190508181036000830152613b998184613198565b905092915050565b60006020820190508181036000830152613bba816131d1565b9050919050565b60006020820190508181036000830152613bda81613237565b9050919050565b60006020820190508181036000830152613bfa81613277565b9050919050565b60006020820190508181036000830152613c1a816132dd565b9050919050565b60006020820190508181036000830152613c3a81613369565b9050919050565b60006020820190508181036000830152613c5a816133f5565b9050919050565b60006020820190508181036000830152613c7a81613435565b9050919050565b60006020820190508181036000830152613c9a8161349b565b9050919050565b60006020820190508181036000830152613cba816134db565b9050919050565b60006020820190508181036000830152613cda81613567565b9050919050565b60006020820190508181036000830152613cfa816135cd565b9050919050565b60006020820190508181036000830152613d1a8161360d565b9050919050565b60006020820190508181036000830152613d3a81613673565b9050919050565b60006020820190508181036000830152613d5a816136d9565b9050919050565b60006020820190508181036000830152613d7a8161373f565b9050919050565b60006020820190508181036000830152613d9a8161377f565b9050919050565b60006020820190508181036000830152613dba816137e5565b9050919050565b60006020820190508181036000830152613dda8161384b565b9050919050565b60006020820190508181036000830152613dfa816138b1565b9050919050565b60006020820190508181036000830152613e1a81613917565b9050919050565b60006020820190508181036000830152613e3a8161397d565b9050919050565b6000602082019050613e5660008301846139e3565b92915050565b6000604082019050613e7160008301856139e3565b8181036020830152613e8381846130dc565b90509392505050565b600060a082019050613ea160008301886139e3565b613eae60208301876139e3565b8181036040830152613ec081866130dc565b9050613ecf60608301856130a0565b613edc60808301846139e3565b9695505050505050565b6000604051905081810181811067ffffffffffffffff82111715613f0957600080fd5b8060405250919050565b600067ffffffffffffffff821115613f2a57600080fd5b602082029050602081019050919050565b6000819050602082019050919050565b600081519050919050565b600081519050919050565b600081519050919050565b6000602082019050919050565b600082825260208201905092915050565b600081905092915050565b600082825260208201905092915050565b6000613fb182613fd6565b9050919050565b6000613fc382613fd6565b9050919050565b60008115159050919050565b600073ffffffffffffffffffffffffffffffffffffffff82169050919050565b6000819050919050565b600061400b8261405a565b9050919050565b600061401d82614024565b9050919050565b600061402f82613fd6565b9050919050565b600061404182614048565b9050919050565b600061405382613fd6565b9050919050565b60006140658261406c565b9050919050565b600061407782613fd6565b9050919050565b60005b8381101561409c578082015181840152602081019050614081565b838111156140ab576000848401525b50505050565b6000601f19601f8301169050919050565b6140cb81613fa6565b81146140d657600080fd5b50565b6140e281613fb8565b81146140ed57600080fd5b50565b6140f981613fca565b811461410457600080fd5b50565b61411081613ff6565b811461411b57600080fd5b5056fea26469706673582212200f8ede76e102dd85600c864d18142784d4119c223c1c048a4016fc2ab8c3871564736f6c634300060c0033",
  "linkReferences": {},
  "deployedLinkReferences": {}
}