{
  "address": "0x09BdD7A540bEBbCFB0a1ee0c1D8Ce117CEC10409",
  "abi": [
    {
      "inputs": [
        {
          "internalType": "address",
          "name": "_depositary",
          "type": "address"
        },
        {
          "internalType": "address",
          "name": "_securityOracle",
          "type": "address"
        }
      ],
      "stateMutability": "nonpayable",
      "type": "constructor"
    },
    {
      "inputs": [],
      "name": "balance",
      "outputs": [
        {
          "internalType": "uint256",
          "name": "",
          "type": "uint256"
        }
      ],
      "stateMutability": "view",
      "type": "function"
    },
    {
      "inputs": [],
      "name": "decimals",
      "outputs": [
        {
          "internalType": "uint256",
          "name": "",
          "type": "uint256"
        }
      ],
      "stateMutability": "view",
      "type": "function"
    },
    {
      "inputs": [],
      "name": "depositary",
      "outputs": [
        {
          "internalType": "contract IDepositaryOracle",
          "name": "",
          "type": "address"
        }
      ],
      "stateMutability": "view",
      "type": "function"
    },
    {
      "inputs": [],
      "name": "securityOracle",
      "outputs": [
        {
          "internalType": "contract ISecurityOracle",
          "name": "",
          "type": "address"
        }
      ],
      "stateMutability": "view",
      "type": "function"
    }
  ],
  "transactionHash": "0x69e9c6022c0d548d1dca2e97e7459157ce9b61a173956e7971e55ede377ffb78",
  "args": [
    "0xadf3524072841a55d2226A2acC522b8B3bE49Bb8",
    "0x3E2D57de90CF68B6a68590B6e88220a4Fd840848"
  ],
  "solcInputHash": "b5f0be5d3d275c06b36962b556132d27",
  "bytecode": "0x6080604052600660025534801561001557600080fd5b50604051610b8b380380610b8b833981810160405281019061003791906100d4565b816000806101000a81548173ffffffffffffffffffffffffffffffffffffffff021916908373ffffffffffffffffffffffffffffffffffffffff16021790555080600160006101000a81548173ffffffffffffffffffffffffffffffffffffffff021916908373ffffffffffffffffffffffffffffffffffffffff1602179055505050610159565b6000815190506100ce81610142565b92915050565b600080604083850312156100e757600080fd5b60006100f5858286016100bf565b9250506020610106858286016100bf565b9150509250929050565b600061011b82610122565b9050919050565b600073ffffffffffffffffffffffffffffffffffffffff82169050919050565b61014b81610110565b811461015657600080fd5b50565b610a23806101686000396000f3fe608060405234801561001057600080fd5b506004361061004c5760003560e01c80630e06037814610051578063313ce5671461006f578063b69ef8a81461008d578063de899f1e146100ab575b600080fd5b6100596100c9565b6040516100669190610791565b60405180910390f35b6100776100ed565b604051610084919061083c565b60405180910390f35b6100956100f3565b6040516100a2919061083c565b60405180910390f35b6100b3610300565b6040516100c091906107ac565b60405180910390f35b60008054906101000a900473ffffffffffffffffffffffffffffffffffffffff1681565b60025481565b600080606060008054906101000a900473ffffffffffffffffffffffffffffffffffffffff1673ffffffffffffffffffffffffffffffffffffffff166310c4e8b06040518163ffffffff1660e01b815260040160006040518083038186803b15801561015e57600080fd5b505afa158015610172573d6000803e3d6000fd5b505050506040513d6000823e3d601f19601f8201168201806040525081019061019b919061059a565b905060005b81518110156102f7576101b16103eb565b8282815181106101bd57fe5b602002602001015190506000816020015114156101da57506102ea565b6060600160009054906101000a900473ffffffffffffffffffffffffffffffffffffffff1673ffffffffffffffffffffffffffffffffffffffff16633e10510b83600001516040518263ffffffff1660e01b815260040161023b91906107c7565b60006040518083038186803b15801561025357600080fd5b505afa158015610267573d6000803e3d6000fd5b505050506040513d6000823e3d601f19601f8201168201806040525081019061029091906105db565b90506000815114156102a35750506102ea565b6000818060200190518101906102b9919061061c565b90506102e46102d582856020015161032690919063ffffffff16565b8761039690919063ffffffff16565b95505050505b80806001019150506101a0565b50819250505090565b600160009054906101000a900473ffffffffffffffffffffffffffffffffffffffff1681565b6000808314156103395760009050610390565b600082840290508284828161034a57fe5b041461038b576040517f08c379a00000000000000000000000000000000000000000000000000000000081526004016103829061081c565b60405180910390fd5b809150505b92915050565b6000808284019050838110156103e1576040517f08c379a00000000000000000000000000000000000000000000000000000000081526004016103d8906107fc565b60405180910390fd5b8091505092915050565b604051806040016040528060608152602001600081525090565b600082601f83011261041657600080fd5b815161042961042482610884565b610857565b9150818183526020840193506020810190508360005b8381101561046f57815186016104558882610521565b84526020840193506020830192505060018101905061043f565b5050505092915050565b600082601f83011261048a57600080fd5b815161049d610498826108ac565b610857565b915080825260208301602083018583830111156104b957600080fd5b6104c4838284610992565b50505092915050565b600082601f8301126104de57600080fd5b81516104f16104ec826108d8565b610857565b9150808252602083016020830185838301111561050d57600080fd5b610518838284610992565b50505092915050565b60006040828403121561053357600080fd5b61053d6040610857565b9050600082015167ffffffffffffffff81111561055957600080fd5b610565848285016104cd565b600083015250602061057984828501610585565b60208301525092915050565b600081519050610594816109d6565b92915050565b6000602082840312156105ac57600080fd5b600082015167ffffffffffffffff8111156105c657600080fd5b6105d284828501610405565b91505092915050565b6000602082840312156105ed57600080fd5b600082015167ffffffffffffffff81111561060757600080fd5b61061384828501610479565b91505092915050565b60006020828403121561062e57600080fd5b600061063c84828501610585565b91505092915050565b61064e8161094a565b82525050565b61065d8161096e565b82525050565b600061066e82610904565b610678818561090f565b9350610688818560208601610992565b610691816109c5565b840191505092915050565b60006106a9600c8361090f565b91507f6e6f6d696e616c56616c756500000000000000000000000000000000000000006000830152602082019050919050565b60006106e9601b8361090f565b91507f536166654d6174683a206164646974696f6e206f766572666c6f7700000000006000830152602082019050919050565b600061072960218361090f565b91507f536166654d6174683a206d756c7469706c69636174696f6e206f766572666c6f60008301527f77000000000000000000000000000000000000000000000000000000000000006020830152604082019050919050565b61078b81610940565b82525050565b60006020820190506107a66000830184610645565b92915050565b60006020820190506107c16000830184610654565b92915050565b600060408201905081810360008301526107e18184610663565b905081810360208301526107f48161069c565b905092915050565b60006020820190508181036000830152610815816106dc565b9050919050565b600060208201905081810360008301526108358161071c565b9050919050565b60006020820190506108516000830184610782565b92915050565b6000604051905081810181811067ffffffffffffffff8211171561087a57600080fd5b8060405250919050565b600067ffffffffffffffff82111561089b57600080fd5b602082029050602081019050919050565b600067ffffffffffffffff8211156108c357600080fd5b601f19601f8301169050602081019050919050565b600067ffffffffffffffff8211156108ef57600080fd5b601f19601f8301169050602081019050919050565b600081519050919050565b600082825260208201905092915050565b600073ffffffffffffffffffffffffffffffffffffffff82169050919050565b6000819050919050565b60006109558261095c565b9050919050565b600061096782610920565b9050919050565b600061097982610980565b9050919050565b600061098b82610920565b9050919050565b60005b838110156109b0578082015181840152602081019050610995565b838111156109bf576000848401525b50505050565b6000601f19601f8301169050919050565b6109df81610940565b81146109ea57600080fd5b5056fea2646970667358221220603314bdbf1b6002f2961d298726e3845522c2a4178743e428b55bd5549d191664736f6c634300060c0033",
  "devdoc": {
    "kind": "dev",
    "methods": {
      "balance()": {
        "returns": {
          "_0": "Balance of depositary."
        }
      },
      "constructor": {
        "params": {
          "_depositary": "Depositary address.",
          "_securityOracle": "Security oracle addresses."
        }
      }
    },
    "version": 1
  },
  "userdoc": {
    "kind": "user",
    "methods": {
      "balance()": {
        "notice": "Get balance of depositary."
      },
      "decimals()": {
        "notice": "Decimals balance."
      },
      "depositary()": {
        "notice": "Depositary."
      },
      "securityOracle()": {
        "notice": "Price oracles."
      }
    },
    "version": 1
  },
  "storageLayout": {
    "storage": [
      {
        "astId": 8187,
        "contract": "contracts/oracle/BondDepositaryBalanceView.sol:BondDepositaryBalanceView",
        "label": "depositary",
        "offset": 0,
        "slot": "0",
        "type": "t_contract(IDepositaryOracle)8688"
      },
      {
        "astId": 8190,
        "contract": "contracts/oracle/BondDepositaryBalanceView.sol:BondDepositaryBalanceView",
        "label": "securityOracle",
        "offset": 0,
        "slot": "1",
        "type": "t_contract(ISecurityOracle)8721"
      },
      {
        "astId": 8195,
        "contract": "contracts/oracle/BondDepositaryBalanceView.sol:BondDepositaryBalanceView",
        "label": "decimals",
        "offset": 0,
        "slot": "2",
        "type": "t_uint256"
      }
    ],
    "types": {
      "t_contract(IDepositaryOracle)8688": {
        "encoding": "inplace",
        "label": "contract IDepositaryOracle",
        "numberOfBytes": "20"
      },
      "t_contract(ISecurityOracle)8721": {
        "encoding": "inplace",
        "label": "contract ISecurityOracle",
        "numberOfBytes": "20"
      },
      "t_uint256": {
        "encoding": "inplace",
        "label": "uint256",
        "numberOfBytes": "32"
      }
    }
  }
}