{
  "address": "0xd0A28560b7d5dB0Ac6293Ead5B1f777405A8Df90",
  "abi": [
    {
      "anonymous": false,
      "inputs": [
        {
          "indexed": false,
          "internalType": "address",
          "name": "recipient",
          "type": "address"
        },
        {
          "indexed": false,
          "internalType": "uint256",
          "name": "min",
          "type": "uint256"
        },
        {
          "indexed": false,
          "internalType": "uint256",
          "name": "target",
          "type": "uint256"
        }
      ],
      "name": "ExpenditureChanged",
      "type": "event"
    },
    {
      "anonymous": false,
      "inputs": [
        {
          "indexed": true,
          "internalType": "address",
          "name": "previousOwner",
          "type": "address"
        },
        {
          "indexed": true,
          "internalType": "address",
          "name": "newOwner",
          "type": "address"
        }
      ],
      "name": "OwnershipTransferred",
      "type": "event"
    },
    {
      "anonymous": false,
      "inputs": [
        {
          "indexed": false,
          "internalType": "address",
          "name": "account",
          "type": "address"
        }
      ],
      "name": "Paused",
      "type": "event"
    },
    {
      "anonymous": false,
      "inputs": [
        {
          "indexed": false,
          "internalType": "address",
          "name": "newPauser",
          "type": "address"
        }
      ],
      "name": "PauserChanged",
      "type": "event"
    },
    {
      "anonymous": false,
      "inputs": [
        {
          "indexed": false,
          "internalType": "address",
          "name": "recipient",
          "type": "address"
        },
        {
          "indexed": false,
          "internalType": "uint256",
          "name": "amount",
          "type": "uint256"
        }
      ],
      "name": "Payed",
      "type": "event"
    },
    {
      "anonymous": false,
      "inputs": [
        {
          "indexed": false,
          "internalType": "address",
          "name": "account",
          "type": "address"
        }
      ],
      "name": "Unpaused",
      "type": "event"
    },
    {
      "inputs": [
        {
          "internalType": "address",
          "name": "recipient",
          "type": "address"
        }
      ],
      "name": "balanceOf",
      "outputs": [
        {
          "internalType": "uint256",
          "name": "",
          "type": "uint256"
        }
      ],
      "stateMutability": "view",
      "type": "function"
    },
    {
      "inputs": [
        {
          "internalType": "address",
          "name": "recipient",
          "type": "address"
        },
        {
          "internalType": "uint256",
          "name": "min",
          "type": "uint256"
        },
        {
          "internalType": "uint256",
          "name": "target",
          "type": "uint256"
        }
      ],
      "name": "changeExpenditure",
      "outputs": [],
      "stateMutability": "nonpayable",
      "type": "function"
    },
    {
      "inputs": [
        {
          "internalType": "address",
          "name": "newPauser",
          "type": "address"
        }
      ],
      "name": "changePauser",
      "outputs": [],
      "stateMutability": "nonpayable",
      "type": "function"
    },
    {
      "inputs": [],
      "name": "deficit",
      "outputs": [
        {
          "internalType": "uint256",
          "name": "",
          "type": "uint256"
        }
      ],
      "stateMutability": "view",
      "type": "function"
    },
    {
      "inputs": [
        {
          "internalType": "address",
          "name": "recipient",
          "type": "address"
        }
      ],
      "name": "deficitTo",
      "outputs": [
        {
          "internalType": "uint256",
          "name": "",
          "type": "uint256"
        }
      ],
      "stateMutability": "view",
      "type": "function"
    },
    {
      "inputs": [
        {
          "internalType": "address",
          "name": "",
          "type": "address"
        }
      ],
      "name": "expenditures",
      "outputs": [
        {
          "internalType": "address",
          "name": "recipient",
          "type": "address"
        },
        {
          "internalType": "uint256",
          "name": "min",
          "type": "uint256"
        },
        {
          "internalType": "uint256",
          "name": "target",
          "type": "uint256"
        }
      ],
      "stateMutability": "view",
      "type": "function"
    },
    {
      "inputs": [],
      "name": "getRecipients",
      "outputs": [
        {
          "internalType": "address[]",
          "name": "",
          "type": "address[]"
        }
      ],
      "stateMutability": "view",
      "type": "function"
    },
    {
      "inputs": [],
      "name": "owner",
      "outputs": [
        {
          "internalType": "address",
          "name": "",
          "type": "address"
        }
      ],
      "stateMutability": "view",
      "type": "function"
    },
    {
      "inputs": [],
      "name": "pause",
      "outputs": [],
      "stateMutability": "nonpayable",
      "type": "function"
    },
    {
      "inputs": [],
      "name": "paused",
      "outputs": [
        {
          "internalType": "bool",
          "name": "",
          "type": "bool"
        }
      ],
      "stateMutability": "view",
      "type": "function"
    },
    {
      "inputs": [],
      "name": "pauser",
      "outputs": [
        {
          "internalType": "address",
          "name": "",
          "type": "address"
        }
      ],
      "stateMutability": "view",
      "type": "function"
    },
    {
      "inputs": [],
      "name": "pay",
      "outputs": [],
      "stateMutability": "nonpayable",
      "type": "function"
    },
    {
      "inputs": [],
      "name": "renounceOwnership",
      "outputs": [],
      "stateMutability": "nonpayable",
      "type": "function"
    },
    {
      "inputs": [],
      "name": "totalSupply",
      "outputs": [
        {
          "internalType": "uint256",
          "name": "",
          "type": "uint256"
        }
      ],
      "stateMutability": "view",
      "type": "function"
    },
    {
      "inputs": [
        {
          "internalType": "address payable",
          "name": "recipient",
          "type": "address"
        },
        {
          "internalType": "uint256",
          "name": "amount",
          "type": "uint256"
        }
      ],
      "name": "transferETH",
      "outputs": [],
      "stateMutability": "nonpayable",
      "type": "function"
    },
    {
      "inputs": [
        {
          "internalType": "address",
          "name": "newOwner",
          "type": "address"
        }
      ],
      "name": "transferOwnership",
      "outputs": [],
      "stateMutability": "nonpayable",
      "type": "function"
    },
    {
      "inputs": [],
      "name": "unpause",
      "outputs": [],
      "stateMutability": "nonpayable",
      "type": "function"
    },
    {
      "inputs": [],
      "name": "withdraw",
      "outputs": [],
      "stateMutability": "nonpayable",
      "type": "function"
    },
    {
      "stateMutability": "payable",
      "type": "receive"
    }
  ],
  "transactionHash": "0x454d6676c91e9fae0eef49197a74c4d8d4d3805c52d013a63e5237ea83c96633",
  "args": [],
  "solcInputHash": "70e1e6f989e493ef71f5a1da709d8e8a",
  "bytecode": "0x608060405234801561001057600080fd5b50600061002161012c60201b60201c565b9050806000806101000a81548173ffffffffffffffffffffffffffffffffffffffff021916908373ffffffffffffffffffffffffffffffffffffffff1602179055508073ffffffffffffffffffffffffffffffffffffffff16600073ffffffffffffffffffffffffffffffffffffffff167f8be0079c531659141344cd1fd0a4f28419497f9722a3daafe3b4186f6b6457e060405160405180910390a35060008060146101000a81548160ff0219169083151502179055506100e761013460201b60201c565b600160006101000a81548173ffffffffffffffffffffffffffffffffffffffff021916908373ffffffffffffffffffffffffffffffffffffffff16021790555061015d565b600033905090565b60008060009054906101000a900473ffffffffffffffffffffffffffffffffffffffff16905090565b6122cc806200016d6000396000f3fe60806040526004361061010d5760003560e01c8063715018a6116100955780639fd0506d116100645780639fd0506d146102f0578063d78d610b1461031b578063e21fe96114610346578063e9cf66f114610385578063f2fde38b146103c257610114565b8063715018a61461026e5780637b1a4909146102855780638456cb59146102ae5780638da5cb5b146102c557610114565b80633ccfd60b116100dc5780633ccfd60b146101ad5780633f4ba83a146101c45780635426fa8a146101db5780635c975abb1461020657806370a082311461023157610114565b80630d4320211461011957806318160ddd146101425780631b9265b81461016d5780632cd271e71461018457610114565b3661011457005b600080fd5b34801561012557600080fd5b50610140600480360381019061013b91906118ad565b6103eb565b005b34801561014e57600080fd5b5061015761060a565b604051610164919061210d565b60405180910390f35b34801561017957600080fd5b50610182610610565b005b34801561019057600080fd5b506101ab60048036038101906101a69190611848565b61070a565b005b3480156101b957600080fd5b506101c261083c565b005b3480156101d057600080fd5b506101d961097c565b005b3480156101e757600080fd5b506101f0610a61565b6040516101fd919061210d565b60405180910390f35b34801561021257600080fd5b5061021b610abd565b6040516102289190611f50565b60405180910390f35b34801561023d57600080fd5b5061025860048036038101906102539190611848565b610ad3565b604051610265919061210d565b60405180910390f35b34801561027a57600080fd5b50610283610b1c565b005b34801561029157600080fd5b506102ac60048036038101906102a79190611871565b610c6f565b005b3480156102ba57600080fd5b506102c3610da6565b005b3480156102d157600080fd5b506102da610e8b565b6040516102e79190611e98565b60405180910390f35b3480156102fc57600080fd5b50610305610eb4565b6040516103129190611e98565b60405180910390f35b34801561032757600080fd5b50610330610eda565b60405161033d9190611f2e565b60405180910390f35b34801561035257600080fd5b5061036d60048036038101906103689190611848565b610fb2565b60405161037c93929190611ef7565b60405180910390f35b34801561039157600080fd5b506103ac60048036038101906103a79190611848565b610ffc565b6040516103b9919061210d565b60405180910390f35b3480156103ce57600080fd5b506103e960048036038101906103e49190611848565b611139565b005b6103f36112fb565b73ffffffffffffffffffffffffffffffffffffffff1660008054906101000a900473ffffffffffffffffffffffffffffffffffffffff1673ffffffffffffffffffffffffffffffffffffffff1614610480576040517f08c379a0000000000000000000000000000000000000000000000000000000008152600401610477906120cd565b60405180910390fd5b808211156104c3576040517f08c379a00000000000000000000000000000000000000000000000000000000081526004016104ba906120ed565b60405180910390fd5b60405180606001604052808473ffffffffffffffffffffffffffffffffffffffff16815260200183815260200182815250600260008573ffffffffffffffffffffffffffffffffffffffff1673ffffffffffffffffffffffffffffffffffffffff16815260200190815260200160002060008201518160000160006101000a81548173ffffffffffffffffffffffffffffffffffffffff021916908373ffffffffffffffffffffffffffffffffffffffff160217905550602082015181600101556040820151816002015590505060008111156105b4576105ae83600361130390919063ffffffff16565b506105ca565b6105c883600361133390919063ffffffff16565b505b7f5c315648fddc891fd463694f00b02e1b8e3a1847790fd85887fb41f7c28fb1ca8383836040516105fd93929190611ef7565b60405180910390a1505050565b60065481565b60005b61061d6003611363565b81101561070757600061063b6006544761137890919063ffffffff16565b905060006106538360036113c290919063ffffffff16565b9050600061066082610ffc565b9050600081148061067057508083105b1561067d575050506106fa565b6106988161068a84610ad3565b6113dc90919063ffffffff16565b600560008473ffffffffffffffffffffffffffffffffffffffff1673ffffffffffffffffffffffffffffffffffffffff168152602001908152602001600020819055506106f0816006546113dc90919063ffffffff16565b6006819055505050505b8080600101915050610613565b50565b6107126112fb565b73ffffffffffffffffffffffffffffffffffffffff1660008054906101000a900473ffffffffffffffffffffffffffffffffffffffff1673ffffffffffffffffffffffffffffffffffffffff161461079f576040517f08c379a0000000000000000000000000000000000000000000000000000000008152600401610796906120cd565b60405180910390fd5b80600160006101000a81548173ffffffffffffffffffffffffffffffffffffffff021916908373ffffffffffffffffffffffffffffffffffffffff1602179055507fb80482a293ca2e013eda8683c9bd7fc8347cfdaeea5ede58cba46df502c2a604600160009054906101000a900473ffffffffffffffffffffffffffffffffffffffff166040516108319190611e98565b60405180910390a150565b60006108466112fb565b9050600061085382610ad3565b905060008111610898576040517f08c379a000000000000000000000000000000000000000000000000000000000815260040161088f9061206d565b60405180910390fd5b6000600560008473ffffffffffffffffffffffffffffffffffffffff1673ffffffffffffffffffffffffffffffffffffffff168152602001908152602001600020819055506108f28160065461137890919063ffffffff16565b6006819055508173ffffffffffffffffffffffffffffffffffffffff166108fc829081150290604051600060405180830381858888f1935050505015801561093e573d6000803e3d6000fd5b507f7be9078cfa949e4b9e15888282e2a07a7fae4958503c18c81db93c5d413524978282604051610970929190611ece565b60405180910390a15050565b6109846112fb565b73ffffffffffffffffffffffffffffffffffffffff16600160009054906101000a900473ffffffffffffffffffffffffffffffffffffffff1673ffffffffffffffffffffffffffffffffffffffff161480610a1857506109e26112fb565b73ffffffffffffffffffffffffffffffffffffffff16610a00610e8b565b73ffffffffffffffffffffffffffffffffffffffff16145b610a57576040517f08c379a0000000000000000000000000000000000000000000000000000000008152600401610a4e9061200d565b60405180910390fd5b610a5f611431565b565b60008060005b610a716003611363565b811015610ab557610aa6610a97610a928360036113c290919063ffffffff16565b610ffc565b836113dc90919063ffffffff16565b91508080600101915050610a67565b508091505090565b60008060149054906101000a900460ff16905090565b6000600560008373ffffffffffffffffffffffffffffffffffffffff1673ffffffffffffffffffffffffffffffffffffffff168152602001908152602001600020549050919050565b610b246112fb565b73ffffffffffffffffffffffffffffffffffffffff1660008054906101000a900473ffffffffffffffffffffffffffffffffffffffff1673ffffffffffffffffffffffffffffffffffffffff1614610bb1576040517f08c379a0000000000000000000000000000000000000000000000000000000008152600401610ba8906120cd565b60405180910390fd5b600073ffffffffffffffffffffffffffffffffffffffff1660008054906101000a900473ffffffffffffffffffffffffffffffffffffffff1673ffffffffffffffffffffffffffffffffffffffff167f8be0079c531659141344cd1fd0a4f28419497f9722a3daafe3b4186f6b6457e060405160405180910390a360008060006101000a81548173ffffffffffffffffffffffffffffffffffffffff021916908373ffffffffffffffffffffffffffffffffffffffff160217905550565b610c776112fb565b73ffffffffffffffffffffffffffffffffffffffff1660008054906101000a900473ffffffffffffffffffffffffffffffffffffffff1673ffffffffffffffffffffffffffffffffffffffff1614610d04576040517f08c379a0000000000000000000000000000000000000000000000000000000008152600401610cfb906120cd565b60405180910390fd5b80610d1a6006544761137890919063ffffffff16565b1015610d5b576040517f08c379a0000000000000000000000000000000000000000000000000000000008152600401610d52906120ad565b60405180910390fd5b8173ffffffffffffffffffffffffffffffffffffffff166108fc829081150290604051600060405180830381858888f19350505050158015610da1573d6000803e3d6000fd5b505050565b610dae6112fb565b73ffffffffffffffffffffffffffffffffffffffff16600160009054906101000a900473ffffffffffffffffffffffffffffffffffffffff1673ffffffffffffffffffffffffffffffffffffffff161480610e425750610e0c6112fb565b73ffffffffffffffffffffffffffffffffffffffff16610e2a610e8b565b73ffffffffffffffffffffffffffffffffffffffff16145b610e81576040517f08c379a0000000000000000000000000000000000000000000000000000000008152600401610e7890611fed565b60405180910390fd5b610e896114da565b565b60008060009054906101000a900473ffffffffffffffffffffffffffffffffffffffff16905090565b600160009054906101000a900473ffffffffffffffffffffffffffffffffffffffff1681565b606080610ee76003611363565b67ffffffffffffffff81118015610efd57600080fd5b50604051908082528060200260200182016040528015610f2c5781602001602082028036833780820191505090505b50905060005b610f3c6003611363565b811015610faa57610f578160036113c290919063ffffffff16565b828281518110610f6357fe5b602002602001019073ffffffffffffffffffffffffffffffffffffffff16908173ffffffffffffffffffffffffffffffffffffffff16815250508080600101915050610f32565b508091505090565b60026020528060005260406000206000915090508060000160009054906101000a900473ffffffffffffffffffffffffffffffffffffffff16908060010154908060020154905083565b600061101282600361158590919063ffffffff16565b611051576040517f08c379a00000000000000000000000000000000000000000000000000000000081526004016110489061204d565b60405180910390fd5b600061108561105f84610ad3565b8473ffffffffffffffffffffffffffffffffffffffff16316113dc90919063ffffffff16565b9050600260008473ffffffffffffffffffffffffffffffffffffffff1673ffffffffffffffffffffffffffffffffffffffff168152602001908152602001600020600101548111156110db576000915050611134565b61113081600260008673ffffffffffffffffffffffffffffffffffffffff1673ffffffffffffffffffffffffffffffffffffffff1681526020019081526020016000206002015461137890919063ffffffff16565b9150505b919050565b6111416112fb565b73ffffffffffffffffffffffffffffffffffffffff1660008054906101000a900473ffffffffffffffffffffffffffffffffffffffff1673ffffffffffffffffffffffffffffffffffffffff16146111ce576040517f08c379a00000000000000000000000000000000000000000000000000000000081526004016111c5906120cd565b60405180910390fd5b600073ffffffffffffffffffffffffffffffffffffffff168173ffffffffffffffffffffffffffffffffffffffff16141561123e576040517f08c379a000000000000000000000000000000000000000000000000000000000815260040161123590611fcd565b60405180910390fd5b8073ffffffffffffffffffffffffffffffffffffffff1660008054906101000a900473ffffffffffffffffffffffffffffffffffffffff1673ffffffffffffffffffffffffffffffffffffffff167f8be0079c531659141344cd1fd0a4f28419497f9722a3daafe3b4186f6b6457e060405160405180910390a3806000806101000a81548173ffffffffffffffffffffffffffffffffffffffff021916908373ffffffffffffffffffffffffffffffffffffffff16021790555050565b600033905090565b600061132b836000018373ffffffffffffffffffffffffffffffffffffffff1660001b6115b5565b905092915050565b600061135b836000018373ffffffffffffffffffffffffffffffffffffffff1660001b611625565b905092915050565b60006113718260000161170d565b9050919050565b60006113ba83836040518060400160405280601e81526020017f536166654d6174683a207375627472616374696f6e206f766572666c6f77000081525061171e565b905092915050565b60006113d18360000183611779565b60001c905092915050565b600080828401905083811015611427576040517f08c379a000000000000000000000000000000000000000000000000000000000815260040161141e9061202d565b60405180910390fd5b8091505092915050565b600060149054906101000a900460ff16611480576040517f08c379a000000000000000000000000000000000000000000000000000000000815260040161147790611fad565b60405180910390fd5b60008060146101000a81548160ff0219169083151502179055507f5db9ee0a495bf2e6ff9c91a7834c1ba4fdd244a5e8aa4e537bd38aeae4b073aa6114c36112fb565b6040516114d09190611eb3565b60405180910390a1565b600060149054906101000a900460ff161561152a576040517f08c379a00000000000000000000000000000000000000000000000000000000081526004016115219061208d565b60405180910390fd5b6001600060146101000a81548160ff0219169083151502179055507f62e78cea01bee320cd4e420270b5ea74000d11b0c9f74754ebdbfc544b05a25861156e6112fb565b60405161157b9190611eb3565b60405180910390a1565b60006115ad836000018373ffffffffffffffffffffffffffffffffffffffff1660001b6117e6565b905092915050565b60006115c183836117e6565b61161a57826000018290806001815401808255809150506001900390600052602060002001600090919091909150558260000180549050836001016000848152602001908152602001600020819055506001905061161f565b600090505b92915050565b60008083600101600084815260200190815260200160002054905060008114611701576000600182039050600060018660000180549050039050600086600001828154811061167057fe5b906000526020600020015490508087600001848154811061168d57fe5b90600052602060002001819055506001830187600101600083815260200190815260200160002081905550866000018054806116c557fe5b60019003818190600052602060002001600090559055866001016000878152602001908152602001600020600090556001945050505050611707565b60009150505b92915050565b600081600001805490509050919050565b6000838311158290611766576040517f08c379a000000000000000000000000000000000000000000000000000000000815260040161175d9190611f6b565b60405180910390fd5b5060008385039050809150509392505050565b6000818360000180549050116117c4576040517f08c379a00000000000000000000000000000000000000000000000000000000081526004016117bb90611f8d565b60405180910390fd5b8260000182815481106117d357fe5b9060005260206000200154905092915050565b600080836001016000848152602001908152602001600020541415905092915050565b60008135905061181881612251565b92915050565b60008135905061182d81612268565b92915050565b6000813590506118428161227f565b92915050565b60006020828403121561185a57600080fd5b600061186884828501611809565b91505092915050565b6000806040838503121561188457600080fd5b60006118928582860161181e565b92505060206118a385828601611833565b9150509250929050565b6000806000606084860312156118c257600080fd5b60006118d086828701611809565b93505060206118e186828701611833565b92505060406118f286828701611833565b9150509250925092565b60006119088383611923565b60208301905092915050565b61191d816121d7565b82525050565b61192c8161217d565b82525050565b61193b8161217d565b82525050565b600061194c82612138565b611956818561215b565b935061196183612128565b8060005b8381101561199257815161197988826118fc565b97506119848361214e565b925050600181019050611965565b5085935050505092915050565b6119a8816121a1565b82525050565b60006119b982612143565b6119c3818561216c565b93506119d381856020860161220d565b6119dc81612240565b840191505092915050565b60006119f460228361216c565b91507f456e756d657261626c655365743a20696e646578206f7574206f6620626f756e60008301527f64730000000000000000000000000000000000000000000000000000000000006020830152604082019050919050565b6000611a5a60148361216c565b91507f5061757361626c653a206e6f74207061757365640000000000000000000000006000830152602082019050919050565b6000611a9a60268361216c565b91507f4f776e61626c653a206e6577206f776e657220697320746865207a65726f206160008301527f64647265737300000000000000000000000000000000000000000000000000006020830152604082019050919050565b6000611b0060418361216c565b91507f4f776e61626c655061757361626c653a3a70617573653a206f6e6c792070617560008301527f73657220616e64206f776e6572206d75737420706175736520636f6e7472616360208301527f74000000000000000000000000000000000000000000000000000000000000006040830152606082019050919050565b6000611b8c60458361216c565b91507f4f776e61626c655061757361626c653a3a756e70617573653a206f6e6c79207060008301527f617573657220616e64206f776e6572206d75737420756e706175736520636f6e60208301527f74726163740000000000000000000000000000000000000000000000000000006040830152606082019050919050565b6000611c18601b8361216c565b91507f536166654d6174683a206164646974696f6e206f766572666c6f7700000000006000830152602082019050919050565b6000611c5860348361216c565b91507f4275646765743a3a64656669636974546f3a20726563697069656e74206e6f7460008301527f20696e20657870656e646974757265206974656d0000000000000000000000006020830152604082019050919050565b6000611cbe60318361216c565b91507f4275646765743a3a77697468647261773a207472616e7366657220616d6f756e60008301527f7420657863656564732062616c616e63650000000000000000000000000000006020830152604082019050919050565b6000611d2460108361216c565b91507f5061757361626c653a20706175736564000000000000000000000000000000006000830152602082019050919050565b6000611d6460348361216c565b91507f4275646765743a3a7472616e736665724554483a207472616e7366657220616d60008301527f6f756e7420657863656564732062616c616e63650000000000000000000000006020830152604082019050919050565b6000611dca60208361216c565b91507f4f776e61626c653a2063616c6c6572206973206e6f7420746865206f776e65726000830152602082019050919050565b6000611e0a60518361216c565b91507f4275646765743a3a6368616e6765457870656e6469747572653a206d696e696d60008301527f616c2062616c616e63652073686f756c64206265206c657373206f722065717560208301527f616c207461726765742062616c616e63650000000000000000000000000000006040830152606082019050919050565b611e92816121cd565b82525050565b6000602082019050611ead6000830184611932565b92915050565b6000602082019050611ec86000830184611914565b92915050565b6000604082019050611ee36000830185611914565b611ef06020830184611e89565b9392505050565b6000606082019050611f0c6000830186611932565b611f196020830185611e89565b611f266040830184611e89565b949350505050565b60006020820190508181036000830152611f488184611941565b905092915050565b6000602082019050611f65600083018461199f565b92915050565b60006020820190508181036000830152611f8581846119ae565b905092915050565b60006020820190508181036000830152611fa6816119e7565b9050919050565b60006020820190508181036000830152611fc681611a4d565b9050919050565b60006020820190508181036000830152611fe681611a8d565b9050919050565b6000602082019050818103600083015261200681611af3565b9050919050565b6000602082019050818103600083015261202681611b7f565b9050919050565b6000602082019050818103600083015261204681611c0b565b9050919050565b6000602082019050818103600083015261206681611c4b565b9050919050565b6000602082019050818103600083015261208681611cb1565b9050919050565b600060208201905081810360008301526120a681611d17565b9050919050565b600060208201905081810360008301526120c681611d57565b9050919050565b600060208201905081810360008301526120e681611dbd565b9050919050565b6000602082019050818103600083015261210681611dfd565b9050919050565b60006020820190506121226000830184611e89565b92915050565b6000819050602082019050919050565b600081519050919050565b600081519050919050565b6000602082019050919050565b600082825260208201905092915050565b600082825260208201905092915050565b6000612188826121ad565b9050919050565b600061219a826121ad565b9050919050565b60008115159050919050565b600073ffffffffffffffffffffffffffffffffffffffff82169050919050565b6000819050919050565b60006121e2826121e9565b9050919050565b60006121f4826121fb565b9050919050565b6000612206826121ad565b9050919050565b60005b8381101561222b578082015181840152602081019050612210565b8381111561223a576000848401525b50505050565b6000601f19601f8301169050919050565b61225a8161217d565b811461226557600080fd5b50565b6122718161218f565b811461227c57600080fd5b50565b612288816121cd565b811461229357600080fd5b5056fea2646970667358221220b5f48459336c42baac427cb47107dc113f3c3cf210e656b024d6dbd25a8ea34a64736f6c634300060c0033",
  "devdoc": {
    "kind": "dev",
    "methods": {
      "changeExpenditure(address,uint256,uint256)": {
        "params": {
          "min": "Minimal balance for payment.",
          "recipient": "Recipient address.",
          "target": "Target balance."
        }
      },
      "changePauser(address)": {
        "params": {
          "newPauser": "Address of new pauser account."
        }
      },
      "deficit()": {
        "returns": {
          "_0": "Summary balance deficit of all recipients."
        }
      },
      "deficitTo(address)": {
        "params": {
          "recipient": "Target recipient."
        },
        "returns": {
          "_0": "Balance deficit of recipient."
        }
      },
      "getRecipients()": {
        "returns": {
          "_0": "Recipients addresses."
        }
      },
      "owner()": {
        "details": "Returns the address of the current owner."
      },
      "paused()": {
        "details": "Returns true if the contract is paused, and false otherwise."
      },
      "renounceOwnership()": {
        "details": "Leaves the contract without owner. It will not be possible to call `onlyOwner` functions anymore. Can only be called by the current owner. NOTE: Renouncing ownership will leave the contract without an owner, thereby removing any functionality that is only available to the owner."
      },
      "transferETH(address,uint256)": {
        "params": {
          "amount": "Transfer amount.",
          "recipient": "Recipient."
        }
      },
      "transferOwnership(address)": {
        "details": "Transfers ownership of the contract to a new account (`newOwner`). Can only be called by the current owner."
      }
    },
    "stateVariables": {
      "balances": {
        "details": "Withdrawal balance of recipients."
      },
      "recipients": {
        "details": "Recipients addresses list."
      }
    },
    "version": 1
  },
  "userdoc": {
    "events": {
      "ExpenditureChanged(address,uint256,uint256)": {
        "notice": "An event emitted when expenditure item changed."
      },
      "PauserChanged(address)": {
        "notice": "An event thats emitted when an pauser address changed."
      },
      "Payed(address,uint256)": {
        "notice": "An event emitted when expenditure item payed."
      }
    },
    "kind": "user",
    "methods": {
      "balanceOf(address)": {
        "notice": "Get withdrawal balance of recipient."
      },
      "changeExpenditure(address,uint256,uint256)": {
        "notice": "Change expenditure item."
      },
      "changePauser(address)": {
        "notice": "Change pauser account."
      },
      "deficit()": {
        "notice": "Return summary balance deficit of all recipients."
      },
      "deficitTo(address)": {
        "notice": "Return balance deficit of recipient."
      },
      "expenditures(address)": {
        "notice": "Expenditure item to address."
      },
      "getRecipients()": {
        "notice": "Return all recipients addresses."
      },
      "pause()": {
        "notice": "Triggers stopped state."
      },
      "pauser()": {
        "notice": "Address that can pause a contract."
      },
      "pay()": {
        "notice": "Pay ETH to all recipients with balance deficit."
      },
      "totalSupply()": {
        "notice": "Total withdrawal balance."
      },
      "transferETH(address,uint256)": {
        "notice": "Transfer ETH to recipient."
      },
      "unpause()": {
        "notice": "Returns to normal state."
      },
      "withdraw()": {
        "notice": "Withdraw ETH to recipient."
      }
    },
    "version": 1
  },
  "storageLayout": {
    "storage": [
      {
        "astId": 30,
        "contract": "contracts/Budget.sol:Budget",
        "label": "_owner",
        "offset": 0,
        "slot": "0",
        "type": "t_address"
      },
      {
        "astId": 1806,
        "contract": "contracts/Budget.sol:Budget",
        "label": "_paused",
        "offset": 20,
        "slot": "0",
        "type": "t_bool"
      },
      {
        "astId": 15659,
        "contract": "contracts/Budget.sol:Budget",
        "label": "pauser",
        "offset": 0,
        "slot": "1",
        "type": "t_address"
      },
      {
        "astId": 1944,
        "contract": "contracts/Budget.sol:Budget",
        "label": "expenditures",
        "offset": 0,
        "slot": "2",
        "type": "t_mapping(t_address,t_struct(Expenditure)1939_storage)"
      },
      {
        "astId": 1947,
        "contract": "contracts/Budget.sol:Budget",
        "label": "recipients",
        "offset": 0,
        "slot": "3",
        "type": "t_struct(AddressSet)1584_storage"
      },
      {
        "astId": 1952,
        "contract": "contracts/Budget.sol:Budget",
        "label": "balances",
        "offset": 0,
        "slot": "5",
        "type": "t_mapping(t_address,t_uint256)"
      },
      {
        "astId": 1955,
        "contract": "contracts/Budget.sol:Budget",
        "label": "totalSupply",
        "offset": 0,
        "slot": "6",
        "type": "t_uint256"
      }
    ],
    "types": {
      "t_address": {
        "encoding": "inplace",
        "label": "address",
        "numberOfBytes": "20"
      },
      "t_array(t_bytes32)dyn_storage": {
        "base": "t_bytes32",
        "encoding": "dynamic_array",
        "label": "bytes32[]",
        "numberOfBytes": "32"
      },
      "t_bool": {
        "encoding": "inplace",
        "label": "bool",
        "numberOfBytes": "1"
      },
      "t_bytes32": {
        "encoding": "inplace",
        "label": "bytes32",
        "numberOfBytes": "32"
      },
      "t_mapping(t_address,t_struct(Expenditure)1939_storage)": {
        "encoding": "mapping",
        "key": "t_address",
        "label": "mapping(address => struct Budget.Expenditure)",
        "numberOfBytes": "32",
        "value": "t_struct(Expenditure)1939_storage"
      },
      "t_mapping(t_address,t_uint256)": {
        "encoding": "mapping",
        "key": "t_address",
        "label": "mapping(address => uint256)",
        "numberOfBytes": "32",
        "value": "t_uint256"
      },
      "t_mapping(t_bytes32,t_uint256)": {
        "encoding": "mapping",
        "key": "t_bytes32",
        "label": "mapping(bytes32 => uint256)",
        "numberOfBytes": "32",
        "value": "t_uint256"
      },
      "t_struct(AddressSet)1584_storage": {
        "encoding": "inplace",
        "label": "struct EnumerableSet.AddressSet",
        "members": [
          {
            "astId": 1583,
            "contract": "contracts/Budget.sol:Budget",
            "label": "_inner",
            "offset": 0,
            "slot": "0",
            "type": "t_struct(Set)1404_storage"
          }
        ],
        "numberOfBytes": "64"
      },
      "t_struct(Expenditure)1939_storage": {
        "encoding": "inplace",
        "label": "struct Budget.Expenditure",
        "members": [
          {
            "astId": 1934,
            "contract": "contracts/Budget.sol:Budget",
            "label": "recipient",
            "offset": 0,
            "slot": "0",
            "type": "t_address"
          },
          {
            "astId": 1936,
            "contract": "contracts/Budget.sol:Budget",
            "label": "min",
            "offset": 0,
            "slot": "1",
            "type": "t_uint256"
          },
          {
            "astId": 1938,
            "contract": "contracts/Budget.sol:Budget",
            "label": "target",
            "offset": 0,
            "slot": "2",
            "type": "t_uint256"
          }
        ],
        "numberOfBytes": "96"
      },
      "t_struct(Set)1404_storage": {
        "encoding": "inplace",
        "label": "struct EnumerableSet.Set",
        "members": [
          {
            "astId": 1399,
            "contract": "contracts/Budget.sol:Budget",
            "label": "_values",
            "offset": 0,
            "slot": "0",
            "type": "t_array(t_bytes32)dyn_storage"
          },
          {
            "astId": 1403,
            "contract": "contracts/Budget.sol:Budget",
            "label": "_indexes",
            "offset": 0,
            "slot": "1",
            "type": "t_mapping(t_bytes32,t_uint256)"
          }
        ],
        "numberOfBytes": "64"
      },
      "t_uint256": {
        "encoding": "inplace",
        "label": "uint256",
        "numberOfBytes": "32"
      }
    }
  }
}