{
  "address": "0xaf35f84099662a4f7FdabB7BC35aab43afBB3E5f",
  "abi": [
    {
      "anonymous": false,
      "inputs": [
        {
          "indexed": false,
          "internalType": "address",
          "name": "recipient",
          "type": "address"
        },
        {
          "indexed": false,
          "internalType": "uint256",
          "name": "min",
          "type": "uint256"
        },
        {
          "indexed": false,
          "internalType": "uint256",
          "name": "target",
          "type": "uint256"
        }
      ],
      "name": "ExpenditureChanged",
      "type": "event"
    },
    {
      "anonymous": false,
      "inputs": [
        {
          "indexed": true,
          "internalType": "address",
          "name": "previousOwner",
          "type": "address"
        },
        {
          "indexed": true,
          "internalType": "address",
          "name": "newOwner",
          "type": "address"
        }
      ],
      "name": "OwnershipTransferred",
      "type": "event"
    },
    {
      "anonymous": false,
      "inputs": [
        {
          "indexed": false,
          "internalType": "address",
          "name": "account",
          "type": "address"
        }
      ],
      "name": "Paused",
      "type": "event"
    },
    {
      "anonymous": false,
      "inputs": [
        {
          "indexed": false,
          "internalType": "address",
          "name": "newPauser",
          "type": "address"
        }
      ],
      "name": "PauserChanged",
      "type": "event"
    },
    {
      "anonymous": false,
      "inputs": [
        {
          "indexed": false,
          "internalType": "address",
          "name": "recipient",
          "type": "address"
        },
        {
          "indexed": false,
          "internalType": "uint256",
          "name": "amount",
          "type": "uint256"
        }
      ],
      "name": "Payed",
      "type": "event"
    },
    {
      "anonymous": false,
      "inputs": [
        {
          "indexed": false,
          "internalType": "address",
          "name": "account",
          "type": "address"
        }
      ],
      "name": "Unpaused",
      "type": "event"
    },
    {
      "inputs": [
        {
          "internalType": "address",
          "name": "recipient",
          "type": "address"
        },
        {
          "internalType": "uint256",
          "name": "min",
          "type": "uint256"
        },
        {
          "internalType": "uint256",
          "name": "target",
          "type": "uint256"
        }
      ],
      "name": "changeExpenditure",
      "outputs": [],
      "stateMutability": "nonpayable",
      "type": "function"
    },
    {
      "inputs": [
        {
          "internalType": "address",
          "name": "newPauser",
          "type": "address"
        }
      ],
      "name": "changePauser",
      "outputs": [],
      "stateMutability": "nonpayable",
      "type": "function"
    },
    {
      "inputs": [],
      "name": "deficit",
      "outputs": [
        {
          "internalType": "uint256",
          "name": "",
          "type": "uint256"
        }
      ],
      "stateMutability": "view",
      "type": "function"
    },
    {
      "inputs": [
        {
          "internalType": "address",
          "name": "recipient",
          "type": "address"
        }
      ],
      "name": "deficitTo",
      "outputs": [
        {
          "internalType": "uint256",
          "name": "",
          "type": "uint256"
        }
      ],
      "stateMutability": "view",
      "type": "function"
    },
    {
      "inputs": [
        {
          "internalType": "address",
          "name": "",
          "type": "address"
        }
      ],
      "name": "expenditures",
      "outputs": [
        {
          "internalType": "address",
          "name": "recipient",
          "type": "address"
        },
        {
          "internalType": "uint256",
          "name": "min",
          "type": "uint256"
        },
        {
          "internalType": "uint256",
          "name": "target",
          "type": "uint256"
        }
      ],
      "stateMutability": "view",
      "type": "function"
    },
    {
      "inputs": [],
      "name": "getRecipients",
      "outputs": [
        {
          "internalType": "address[]",
          "name": "",
          "type": "address[]"
        }
      ],
      "stateMutability": "view",
      "type": "function"
    },
    {
      "inputs": [],
      "name": "owner",
      "outputs": [
        {
          "internalType": "address",
          "name": "",
          "type": "address"
        }
      ],
      "stateMutability": "view",
      "type": "function"
    },
    {
      "inputs": [],
      "name": "pause",
      "outputs": [],
      "stateMutability": "nonpayable",
      "type": "function"
    },
    {
      "inputs": [],
      "name": "paused",
      "outputs": [
        {
          "internalType": "bool",
          "name": "",
          "type": "bool"
        }
      ],
      "stateMutability": "view",
      "type": "function"
    },
    {
      "inputs": [],
      "name": "pauser",
      "outputs": [
        {
          "internalType": "address",
          "name": "",
          "type": "address"
        }
      ],
      "stateMutability": "view",
      "type": "function"
    },
    {
      "inputs": [],
      "name": "pay",
      "outputs": [],
      "stateMutability": "nonpayable",
      "type": "function"
    },
    {
      "inputs": [],
      "name": "renounceOwnership",
      "outputs": [],
      "stateMutability": "nonpayable",
      "type": "function"
    },
    {
      "inputs": [
        {
          "internalType": "address payable",
          "name": "recipient",
          "type": "address"
        },
        {
          "internalType": "uint256",
          "name": "amount",
          "type": "uint256"
        }
      ],
      "name": "transferETH",
      "outputs": [
        {
          "internalType": "bool",
          "name": "",
          "type": "bool"
        }
      ],
      "stateMutability": "nonpayable",
      "type": "function"
    },
    {
      "inputs": [
        {
          "internalType": "address",
          "name": "newOwner",
          "type": "address"
        }
      ],
      "name": "transferOwnership",
      "outputs": [],
      "stateMutability": "nonpayable",
      "type": "function"
    },
    {
      "inputs": [],
      "name": "unpause",
      "outputs": [],
      "stateMutability": "nonpayable",
      "type": "function"
    },
    {
      "stateMutability": "payable",
      "type": "receive"
    }
  ],
  "transactionHash": "0xc0936c8324d3ea6bb9a493dd4d25d949c1b4bb244b31a9beba8a3c637ece6e25",
  "args": [],
  "solcInputHash": "b5f0be5d3d275c06b36962b556132d27",
  "bytecode": "0x608060405234801561001057600080fd5b50600061002161012c60201b60201c565b9050806000806101000a81548173ffffffffffffffffffffffffffffffffffffffff021916908373ffffffffffffffffffffffffffffffffffffffff1602179055508073ffffffffffffffffffffffffffffffffffffffff16600073ffffffffffffffffffffffffffffffffffffffff167f8be0079c531659141344cd1fd0a4f28419497f9722a3daafe3b4186f6b6457e060405160405180910390a35060008060146101000a81548160ff0219169083151502179055506100e761013460201b60201c565b600160006101000a81548173ffffffffffffffffffffffffffffffffffffffff021916908373ffffffffffffffffffffffffffffffffffffffff16021790555061015d565b600033905090565b60008060009054906101000a900473ffffffffffffffffffffffffffffffffffffffff16905090565b611f3f8061016c6000396000f3fe6080604052600436106100ec5760003560e01c80637b1a49091161008a578063d78d610b11610059578063d78d610b1461028f578063e21fe961146102ba578063e9cf66f1146102f9578063f2fde38b14610336576100f3565b80637b1a4909146101e55780638456cb59146102225780638da5cb5b146102395780639fd0506d14610264576100f3565b80633f4ba83a116100c65780633f4ba83a146101615780635426fa8a146101785780635c975abb146101a3578063715018a6146101ce576100f3565b80630d432021146100f85780631b9265b8146101215780632cd271e714610138576100f3565b366100f357005b600080fd5b34801561010457600080fd5b5061011f600480360381019061011a919061162c565b61035f565b005b34801561012d57600080fd5b5061013661057e565b005b34801561014457600080fd5b5061015f600480360381019061015a91906115c7565b61066b565b005b34801561016d57600080fd5b5061017661079d565b005b34801561018457600080fd5b5061018d610882565b60405161019a9190611d80565b60405180910390f35b3480156101af57600080fd5b506101b86108de565b6040516101c59190611c03565b60405180910390f35b3480156101da57600080fd5b506101e36108f4565b005b3480156101f157600080fd5b5061020c600480360381019061020791906115f0565b610a47565b6040516102199190611c03565b60405180910390f35b34801561022e57600080fd5b50610237610b2f565b005b34801561024557600080fd5b5061024e610c14565b60405161025b9190611b4b565b60405180910390f35b34801561027057600080fd5b50610279610c3d565b6040516102869190611b4b565b60405180910390f35b34801561029b57600080fd5b506102a4610c63565b6040516102b19190611be1565b60405180910390f35b3480156102c657600080fd5b506102e160048036038101906102dc91906115c7565b610d3b565b6040516102f093929190611baa565b60405180910390f35b34801561030557600080fd5b50610320600480360381019061031b91906115c7565b610d85565b60405161032d9190611d80565b60405180910390f35b34801561034257600080fd5b5061035d600480360381019061035891906115c7565b610eb8565b005b61036761107a565b73ffffffffffffffffffffffffffffffffffffffff1660008054906101000a900473ffffffffffffffffffffffffffffffffffffffff1673ffffffffffffffffffffffffffffffffffffffff16146103f4576040517f08c379a00000000000000000000000000000000000000000000000000000000081526004016103eb90611d40565b60405180910390fd5b80821115610437576040517f08c379a000000000000000000000000000000000000000000000000000000000815260040161042e90611d60565b60405180910390fd5b60405180606001604052808473ffffffffffffffffffffffffffffffffffffffff16815260200183815260200182815250600260008573ffffffffffffffffffffffffffffffffffffffff1673ffffffffffffffffffffffffffffffffffffffff16815260200190815260200160002060008201518160000160006101000a81548173ffffffffffffffffffffffffffffffffffffffff021916908373ffffffffffffffffffffffffffffffffffffffff160217905550602082015181600101556040820151816002015590505060008111156105285761052283600361108290919063ffffffff16565b5061053e565b61053c8360036110b290919063ffffffff16565b505b7f5c315648fddc891fd463694f00b02e1b8e3a1847790fd85887fb41f7c28fb1ca83838360405161057193929190611baa565b60405180910390a1505050565b60005b61058b60036110e2565b81101561066857600047905060006105ad8360036110f790919063ffffffff16565b905060006105ba82610d85565b905060008114806105ca57508083105b156105d75750505061065b565b8173ffffffffffffffffffffffffffffffffffffffff166108fc829081150290604051600060405180830381858888f1935050505015801561061d573d6000803e3d6000fd5b507f7be9078cfa949e4b9e15888282e2a07a7fae4958503c18c81db93c5d41352497828260405161064f929190611b81565b60405180910390a15050505b8080600101915050610581565b50565b61067361107a565b73ffffffffffffffffffffffffffffffffffffffff1660008054906101000a900473ffffffffffffffffffffffffffffffffffffffff1673ffffffffffffffffffffffffffffffffffffffff1614610700576040517f08c379a00000000000000000000000000000000000000000000000000000000081526004016106f790611d40565b60405180910390fd5b80600160006101000a81548173ffffffffffffffffffffffffffffffffffffffff021916908373ffffffffffffffffffffffffffffffffffffffff1602179055507fb80482a293ca2e013eda8683c9bd7fc8347cfdaeea5ede58cba46df502c2a604600160009054906101000a900473ffffffffffffffffffffffffffffffffffffffff166040516107929190611b4b565b60405180910390a150565b6107a561107a565b73ffffffffffffffffffffffffffffffffffffffff16600160009054906101000a900473ffffffffffffffffffffffffffffffffffffffff1673ffffffffffffffffffffffffffffffffffffffff161480610839575061080361107a565b73ffffffffffffffffffffffffffffffffffffffff16610821610c14565b73ffffffffffffffffffffffffffffffffffffffff16145b610878576040517f08c379a000000000000000000000000000000000000000000000000000000000815260040161086f90611cc0565b60405180910390fd5b610880611111565b565b60008060005b61089260036110e2565b8110156108d6576108c76108b86108b38360036110f790919063ffffffff16565b610d85565b836111ba90919063ffffffff16565b91508080600101915050610888565b508091505090565b60008060149054906101000a900460ff16905090565b6108fc61107a565b73ffffffffffffffffffffffffffffffffffffffff1660008054906101000a900473ffffffffffffffffffffffffffffffffffffffff1673ffffffffffffffffffffffffffffffffffffffff1614610989576040517f08c379a000000000000000000000000000000000000000000000000000000000815260040161098090611d40565b60405180910390fd5b600073ffffffffffffffffffffffffffffffffffffffff1660008054906101000a900473ffffffffffffffffffffffffffffffffffffffff1673ffffffffffffffffffffffffffffffffffffffff167f8be0079c531659141344cd1fd0a4f28419497f9722a3daafe3b4186f6b6457e060405160405180910390a360008060006101000a81548173ffffffffffffffffffffffffffffffffffffffff021916908373ffffffffffffffffffffffffffffffffffffffff160217905550565b6000610a5161107a565b73ffffffffffffffffffffffffffffffffffffffff1660008054906101000a900473ffffffffffffffffffffffffffffffffffffffff1673ffffffffffffffffffffffffffffffffffffffff1614610ade576040517f08c379a0000000000000000000000000000000000000000000000000000000008152600401610ad590611d40565b60405180910390fd5b8273ffffffffffffffffffffffffffffffffffffffff166108fc839081150290604051600060405180830381858888f19350505050158015610b24573d6000803e3d6000fd5b506001905092915050565b610b3761107a565b73ffffffffffffffffffffffffffffffffffffffff16600160009054906101000a900473ffffffffffffffffffffffffffffffffffffffff1673ffffffffffffffffffffffffffffffffffffffff161480610bcb5750610b9561107a565b73ffffffffffffffffffffffffffffffffffffffff16610bb3610c14565b73ffffffffffffffffffffffffffffffffffffffff16145b610c0a576040517f08c379a0000000000000000000000000000000000000000000000000000000008152600401610c0190611ca0565b60405180910390fd5b610c1261120f565b565b60008060009054906101000a900473ffffffffffffffffffffffffffffffffffffffff16905090565b600160009054906101000a900473ffffffffffffffffffffffffffffffffffffffff1681565b606080610c7060036110e2565b67ffffffffffffffff81118015610c8657600080fd5b50604051908082528060200260200182016040528015610cb55781602001602082028036833780820191505090505b50905060005b610cc560036110e2565b811015610d3357610ce08160036110f790919063ffffffff16565b828281518110610cec57fe5b602002602001019073ffffffffffffffffffffffffffffffffffffffff16908173ffffffffffffffffffffffffffffffffffffffff16815250508080600101915050610cbb565b508091505090565b60026020528060005260406000206000915090508060000160009054906101000a900473ffffffffffffffffffffffffffffffffffffffff16908060010154908060020154905083565b6000610d9b8260036112ba90919063ffffffff16565b610dda576040517f08c379a0000000000000000000000000000000000000000000000000000000008152600401610dd190611d00565b60405180910390fd5b600260008373ffffffffffffffffffffffffffffffffffffffff1673ffffffffffffffffffffffffffffffffffffffff168152602001908152602001600020600101548273ffffffffffffffffffffffffffffffffffffffff16311115610e445760009050610eb3565b610eb08273ffffffffffffffffffffffffffffffffffffffff1631600260008573ffffffffffffffffffffffffffffffffffffffff1673ffffffffffffffffffffffffffffffffffffffff168152602001908152602001600020600201546112ea90919063ffffffff16565b90505b919050565b610ec061107a565b73ffffffffffffffffffffffffffffffffffffffff1660008054906101000a900473ffffffffffffffffffffffffffffffffffffffff1673ffffffffffffffffffffffffffffffffffffffff1614610f4d576040517f08c379a0000000000000000000000000000000000000000000000000000000008152600401610f4490611d40565b60405180910390fd5b600073ffffffffffffffffffffffffffffffffffffffff168173ffffffffffffffffffffffffffffffffffffffff161415610fbd576040517f08c379a0000000000000000000000000000000000000000000000000000000008152600401610fb490611c80565b60405180910390fd5b8073ffffffffffffffffffffffffffffffffffffffff1660008054906101000a900473ffffffffffffffffffffffffffffffffffffffff1673ffffffffffffffffffffffffffffffffffffffff167f8be0079c531659141344cd1fd0a4f28419497f9722a3daafe3b4186f6b6457e060405160405180910390a3806000806101000a81548173ffffffffffffffffffffffffffffffffffffffff021916908373ffffffffffffffffffffffffffffffffffffffff16021790555050565b600033905090565b60006110aa836000018373ffffffffffffffffffffffffffffffffffffffff1660001b611334565b905092915050565b60006110da836000018373ffffffffffffffffffffffffffffffffffffffff1660001b6113a4565b905092915050565b60006110f08260000161148c565b9050919050565b6000611106836000018361149d565b60001c905092915050565b600060149054906101000a900460ff16611160576040517f08c379a000000000000000000000000000000000000000000000000000000000815260040161115790611c60565b60405180910390fd5b60008060146101000a81548160ff0219169083151502179055507f5db9ee0a495bf2e6ff9c91a7834c1ba4fdd244a5e8aa4e537bd38aeae4b073aa6111a361107a565b6040516111b09190611b66565b60405180910390a1565b600080828401905083811015611205576040517f08c379a00000000000000000000000000000000000000000000000000000000081526004016111fc90611ce0565b60405180910390fd5b8091505092915050565b600060149054906101000a900460ff161561125f576040517f08c379a000000000000000000000000000000000000000000000000000000000815260040161125690611d20565b60405180910390fd5b6001600060146101000a81548160ff0219169083151502179055507f62e78cea01bee320cd4e420270b5ea74000d11b0c9f74754ebdbfc544b05a2586112a361107a565b6040516112b09190611b66565b60405180910390a1565b60006112e2836000018373ffffffffffffffffffffffffffffffffffffffff1660001b61150a565b905092915050565b600061132c83836040518060400160405280601e81526020017f536166654d6174683a207375627472616374696f6e206f766572666c6f77000081525061152d565b905092915050565b6000611340838361150a565b61139957826000018290806001815401808255809150506001900390600052602060002001600090919091909150558260000180549050836001016000848152602001908152602001600020819055506001905061139e565b600090505b92915050565b6000808360010160008481526020019081526020016000205490506000811461148057600060018203905060006001866000018054905003905060008660000182815481106113ef57fe5b906000526020600020015490508087600001848154811061140c57fe5b906000526020600020018190555060018301876001016000838152602001908152602001600020819055508660000180548061144457fe5b60019003818190600052602060002001600090559055866001016000878152602001908152602001600020600090556001945050505050611486565b60009150505b92915050565b600081600001805490509050919050565b6000818360000180549050116114e8576040517f08c379a00000000000000000000000000000000000000000000000000000000081526004016114df90611c40565b60405180910390fd5b8260000182815481106114f757fe5b9060005260206000200154905092915050565b600080836001016000848152602001908152602001600020541415905092915050565b6000838311158290611575576040517f08c379a000000000000000000000000000000000000000000000000000000000815260040161156c9190611c1e565b60405180910390fd5b5060008385039050809150509392505050565b60008135905061159781611ec4565b92915050565b6000813590506115ac81611edb565b92915050565b6000813590506115c181611ef2565b92915050565b6000602082840312156115d957600080fd5b60006115e784828501611588565b91505092915050565b6000806040838503121561160357600080fd5b60006116118582860161159d565b9250506020611622858286016115b2565b9150509250929050565b60008060006060848603121561164157600080fd5b600061164f86828701611588565b9350506020611660868287016115b2565b9250506040611671868287016115b2565b9150509250925092565b600061168783836116a2565b60208301905092915050565b61169c81611e4a565b82525050565b6116ab81611df0565b82525050565b6116ba81611df0565b82525050565b60006116cb82611dab565b6116d58185611dce565b93506116e083611d9b565b8060005b838110156117115781516116f8888261167b565b975061170383611dc1565b9250506001810190506116e4565b5085935050505092915050565b61172781611e14565b82525050565b600061173882611db6565b6117428185611ddf565b9350611752818560208601611e80565b61175b81611eb3565b840191505092915050565b6000611773602283611ddf565b91507f456e756d657261626c655365743a20696e646578206f7574206f6620626f756e60008301527f64730000000000000000000000000000000000000000000000000000000000006020830152604082019050919050565b60006117d9601483611ddf565b91507f5061757361626c653a206e6f74207061757365640000000000000000000000006000830152602082019050919050565b6000611819602683611ddf565b91507f4f776e61626c653a206e6577206f776e657220697320746865207a65726f206160008301527f64647265737300000000000000000000000000000000000000000000000000006020830152604082019050919050565b600061187f604183611ddf565b91507f4f776e61626c655061757361626c653a3a70617573653a206f6e6c792070617560008301527f73657220616e64206f776e6572206d75737420706175736520636f6e7472616360208301527f74000000000000000000000000000000000000000000000000000000000000006040830152606082019050919050565b600061190b604583611ddf565b91507f4f776e61626c655061757361626c653a3a756e70617573653a206f6e6c79207060008301527f617573657220616e64206f776e6572206d75737420756e706175736520636f6e60208301527f74726163740000000000000000000000000000000000000000000000000000006040830152606082019050919050565b6000611997601b83611ddf565b91507f536166654d6174683a206164646974696f6e206f766572666c6f7700000000006000830152602082019050919050565b60006119d7603483611ddf565b91507f4275646765743a3a64656669636974546f3a20726563697069656e74206e6f7460008301527f20696e20657870656e646974757265206974656d0000000000000000000000006020830152604082019050919050565b6000611a3d601083611ddf565b91507f5061757361626c653a20706175736564000000000000000000000000000000006000830152602082019050919050565b6000611a7d602083611ddf565b91507f4f776e61626c653a2063616c6c6572206973206e6f7420746865206f776e65726000830152602082019050919050565b6000611abd605183611ddf565b91507f4275646765743a3a6368616e6765457870656e6469747572653a206d696e696d60008301527f616c2062616c616e63652073686f756c64206265206c657373206f722065717560208301527f616c207461726765742062616c616e63650000000000000000000000000000006040830152606082019050919050565b611b4581611e40565b82525050565b6000602082019050611b6060008301846116b1565b92915050565b6000602082019050611b7b6000830184611693565b92915050565b6000604082019050611b9660008301856116b1565b611ba36020830184611b3c565b9392505050565b6000606082019050611bbf60008301866116b1565b611bcc6020830185611b3c565b611bd96040830184611b3c565b949350505050565b60006020820190508181036000830152611bfb81846116c0565b905092915050565b6000602082019050611c18600083018461171e565b92915050565b60006020820190508181036000830152611c38818461172d565b905092915050565b60006020820190508181036000830152611c5981611766565b9050919050565b60006020820190508181036000830152611c79816117cc565b9050919050565b60006020820190508181036000830152611c998161180c565b9050919050565b60006020820190508181036000830152611cb981611872565b9050919050565b60006020820190508181036000830152611cd9816118fe565b9050919050565b60006020820190508181036000830152611cf98161198a565b9050919050565b60006020820190508181036000830152611d19816119ca565b9050919050565b60006020820190508181036000830152611d3981611a30565b9050919050565b60006020820190508181036000830152611d5981611a70565b9050919050565b60006020820190508181036000830152611d7981611ab0565b9050919050565b6000602082019050611d956000830184611b3c565b92915050565b6000819050602082019050919050565b600081519050919050565b600081519050919050565b6000602082019050919050565b600082825260208201905092915050565b600082825260208201905092915050565b6000611dfb82611e20565b9050919050565b6000611e0d82611e20565b9050919050565b60008115159050919050565b600073ffffffffffffffffffffffffffffffffffffffff82169050919050565b6000819050919050565b6000611e5582611e5c565b9050919050565b6000611e6782611e6e565b9050919050565b6000611e7982611e20565b9050919050565b60005b83811015611e9e578082015181840152602081019050611e83565b83811115611ead576000848401525b50505050565b6000601f19601f8301169050919050565b611ecd81611df0565b8114611ed857600080fd5b50565b611ee481611e02565b8114611eef57600080fd5b50565b611efb81611e40565b8114611f0657600080fd5b5056fea2646970667358221220df06097cb0f3c35276d8fddfbe36c707bb3cfd188603758aa59fc88e1801bc1364736f6c634300060c0033",
  "devdoc": {
    "kind": "dev",
    "methods": {
      "changeExpenditure(address,uint256,uint256)": {
        "params": {
          "min": "Minimal balance for payment.",
          "recipient": "Recipient address.",
          "target": "Target balance."
        }
      },
      "changePauser(address)": {
        "params": {
          "newPauser": "Address of new pauser account."
        }
      },
      "deficit()": {
        "returns": {
          "_0": "Summary balance deficit of all recipients."
        }
      },
      "deficitTo(address)": {
        "params": {
          "recipient": "Target recipient."
        },
        "returns": {
          "_0": "Balance deficit of recipient."
        }
      },
      "getRecipients()": {
        "returns": {
          "_0": "Recipients addresses."
        }
      },
      "owner()": {
        "details": "Returns the address of the current owner."
      },
      "paused()": {
        "details": "Returns true if the contract is paused, and false otherwise."
      },
      "renounceOwnership()": {
        "details": "Leaves the contract without owner. It will not be possible to call `onlyOwner` functions anymore. Can only be called by the current owner. NOTE: Renouncing ownership will leave the contract without an owner, thereby removing any functionality that is only available to the owner."
      },
      "transferETH(address,uint256)": {
        "params": {
          "amount": "Transfer amount.",
          "recipient": "Recipient."
        }
      },
      "transferOwnership(address)": {
        "details": "Transfers ownership of the contract to a new account (`newOwner`). Can only be called by the current owner."
      }
    },
    "stateVariables": {
      "recipients": {
        "details": "Recipients addresses list."
      }
    },
    "version": 1
  },
  "userdoc": {
    "events": {
      "ExpenditureChanged(address,uint256,uint256)": {
        "notice": "An event emitted when expenditure item changed."
      },
      "PauserChanged(address)": {
        "notice": "An event thats emitted when an pauser address changed."
      },
      "Payed(address,uint256)": {
        "notice": "An event emitted when expenditure item payed."
      }
    },
    "kind": "user",
    "methods": {
      "changeExpenditure(address,uint256,uint256)": {
        "notice": "Change expenditure item."
      },
      "changePauser(address)": {
        "notice": "Change pauser account."
      },
      "deficit()": {
        "notice": "Return summary balance deficit of all recipients."
      },
      "deficitTo(address)": {
        "notice": "Return balance deficit of recipient."
      },
      "expenditures(address)": {
        "notice": "Expenditure item to address."
      },
      "getRecipients()": {
        "notice": "Return all recipients addresses."
      },
      "pause()": {
        "notice": "Triggers stopped state."
      },
      "pauser()": {
        "notice": "Address that can pause a contract."
      },
      "pay()": {
        "notice": "Pay ETH to all recipients with balance deficit."
      },
      "transferETH(address,uint256)": {
        "notice": "Transfer ETH to recipient."
      },
      "unpause()": {
        "notice": "Returns to normal state."
      }
    },
    "version": 1
  },
  "storageLayout": {
    "storage": [
      {
        "astId": 30,
        "contract": "contracts/Budget.sol:Budget",
        "label": "_owner",
        "offset": 0,
        "slot": "0",
        "type": "t_address"
      },
      {
        "astId": 1733,
        "contract": "contracts/Budget.sol:Budget",
        "label": "_paused",
        "offset": 20,
        "slot": "0",
        "type": "t_bool"
      },
      {
        "astId": 11060,
        "contract": "contracts/Budget.sol:Budget",
        "label": "pauser",
        "offset": 0,
        "slot": "1",
        "type": "t_address"
      },
      {
        "astId": 3195,
        "contract": "contracts/Budget.sol:Budget",
        "label": "expenditures",
        "offset": 0,
        "slot": "2",
        "type": "t_mapping(t_address,t_struct(Expenditure)3190_storage)"
      },
      {
        "astId": 3198,
        "contract": "contracts/Budget.sol:Budget",
        "label": "recipients",
        "offset": 0,
        "slot": "3",
        "type": "t_struct(AddressSet)1511_storage"
      }
    ],
    "types": {
      "t_address": {
        "encoding": "inplace",
        "label": "address",
        "numberOfBytes": "20"
      },
      "t_array(t_bytes32)dyn_storage": {
        "base": "t_bytes32",
        "encoding": "dynamic_array",
        "label": "bytes32[]",
        "numberOfBytes": "32"
      },
      "t_bool": {
        "encoding": "inplace",
        "label": "bool",
        "numberOfBytes": "1"
      },
      "t_bytes32": {
        "encoding": "inplace",
        "label": "bytes32",
        "numberOfBytes": "32"
      },
      "t_mapping(t_address,t_struct(Expenditure)3190_storage)": {
        "encoding": "mapping",
        "key": "t_address",
        "label": "mapping(address => struct Budget.Expenditure)",
        "numberOfBytes": "32",
        "value": "t_struct(Expenditure)3190_storage"
      },
      "t_mapping(t_bytes32,t_uint256)": {
        "encoding": "mapping",
        "key": "t_bytes32",
        "label": "mapping(bytes32 => uint256)",
        "numberOfBytes": "32",
        "value": "t_uint256"
      },
      "t_struct(AddressSet)1511_storage": {
        "encoding": "inplace",
        "label": "struct EnumerableSet.AddressSet",
        "members": [
          {
            "astId": 1510,
            "contract": "contracts/Budget.sol:Budget",
            "label": "_inner",
            "offset": 0,
            "slot": "0",
            "type": "t_struct(Set)1331_storage"
          }
        ],
        "numberOfBytes": "64"
      },
      "t_struct(Expenditure)3190_storage": {
        "encoding": "inplace",
        "label": "struct Budget.Expenditure",
        "members": [
          {
            "astId": 3185,
            "contract": "contracts/Budget.sol:Budget",
            "label": "recipient",
            "offset": 0,
            "slot": "0",
            "type": "t_address"
          },
          {
            "astId": 3187,
            "contract": "contracts/Budget.sol:Budget",
            "label": "min",
            "offset": 0,
            "slot": "1",
            "type": "t_uint256"
          },
          {
            "astId": 3189,
            "contract": "contracts/Budget.sol:Budget",
            "label": "target",
            "offset": 0,
            "slot": "2",
            "type": "t_uint256"
          }
        ],
        "numberOfBytes": "96"
      },
      "t_struct(Set)1331_storage": {
        "encoding": "inplace",
        "label": "struct EnumerableSet.Set",
        "members": [
          {
            "astId": 1326,
            "contract": "contracts/Budget.sol:Budget",
            "label": "_values",
            "offset": 0,
            "slot": "0",
            "type": "t_array(t_bytes32)dyn_storage"
          },
          {
            "astId": 1330,
            "contract": "contracts/Budget.sol:Budget",
            "label": "_indexes",
            "offset": 0,
            "slot": "1",
            "type": "t_mapping(t_bytes32,t_uint256)"
          }
        ],
        "numberOfBytes": "64"
      },
      "t_uint256": {
        "encoding": "inplace",
        "label": "uint256",
        "numberOfBytes": "32"
      }
    }
  }
}