{
  "address": "0xa75e6E61b1492A0c0739E830ab315909C1830DF4",
  "abi": [
    {
      "anonymous": false,
      "inputs": [
        {
          "indexed": false,
          "internalType": "address",
          "name": "recipient",
          "type": "address"
        },
        {
          "indexed": false,
          "internalType": "uint256",
          "name": "min",
          "type": "uint256"
        },
        {
          "indexed": false,
          "internalType": "uint256",
          "name": "target",
          "type": "uint256"
        }
      ],
      "name": "ExpenditureChanged",
      "type": "event"
    },
    {
      "anonymous": false,
      "inputs": [
        {
          "indexed": true,
          "internalType": "address",
          "name": "previousOwner",
          "type": "address"
        },
        {
          "indexed": true,
          "internalType": "address",
          "name": "newOwner",
          "type": "address"
        }
      ],
      "name": "OwnershipTransferred",
      "type": "event"
    },
    {
      "anonymous": false,
      "inputs": [
        {
          "indexed": false,
          "internalType": "address",
          "name": "account",
          "type": "address"
        }
      ],
      "name": "Paused",
      "type": "event"
    },
    {
      "anonymous": false,
      "inputs": [
        {
          "indexed": false,
          "internalType": "address",
          "name": "newPauser",
          "type": "address"
        }
      ],
      "name": "PauserChanged",
      "type": "event"
    },
    {
      "anonymous": false,
      "inputs": [
        {
          "indexed": false,
          "internalType": "address",
          "name": "recipient",
          "type": "address"
        },
        {
          "indexed": false,
          "internalType": "uint256",
          "name": "amount",
          "type": "uint256"
        }
      ],
      "name": "Payed",
      "type": "event"
    },
    {
      "anonymous": false,
      "inputs": [
        {
          "indexed": false,
          "internalType": "address",
          "name": "account",
          "type": "address"
        }
      ],
      "name": "Unpaused",
      "type": "event"
    },
    {
      "inputs": [
        {
          "internalType": "address",
          "name": "recipient",
          "type": "address"
        }
      ],
      "name": "balanceOf",
      "outputs": [
        {
          "internalType": "uint256",
          "name": "",
          "type": "uint256"
        }
      ],
      "stateMutability": "view",
      "type": "function"
    },
    {
      "inputs": [
        {
          "internalType": "address",
          "name": "recipient",
          "type": "address"
        },
        {
          "internalType": "uint256",
          "name": "min",
          "type": "uint256"
        },
        {
          "internalType": "uint256",
          "name": "target",
          "type": "uint256"
        }
      ],
      "name": "changeExpenditure",
      "outputs": [],
      "stateMutability": "nonpayable",
      "type": "function"
    },
    {
      "inputs": [
        {
          "internalType": "address",
          "name": "newPauser",
          "type": "address"
        }
      ],
      "name": "changePauser",
      "outputs": [],
      "stateMutability": "nonpayable",
      "type": "function"
    },
    {
      "inputs": [],
      "name": "deficit",
      "outputs": [
        {
          "internalType": "uint256",
          "name": "",
          "type": "uint256"
        }
      ],
      "stateMutability": "view",
      "type": "function"
    },
    {
      "inputs": [
        {
          "internalType": "address",
          "name": "recipient",
          "type": "address"
        }
      ],
      "name": "deficitTo",
      "outputs": [
        {
          "internalType": "uint256",
          "name": "",
          "type": "uint256"
        }
      ],
      "stateMutability": "view",
      "type": "function"
    },
    {
      "inputs": [
        {
          "internalType": "address",
          "name": "",
          "type": "address"
        }
      ],
      "name": "expenditures",
      "outputs": [
        {
          "internalType": "address",
          "name": "recipient",
          "type": "address"
        },
        {
          "internalType": "uint256",
          "name": "min",
          "type": "uint256"
        },
        {
          "internalType": "uint256",
          "name": "target",
          "type": "uint256"
        }
      ],
      "stateMutability": "view",
      "type": "function"
    },
    {
      "inputs": [],
      "name": "getRecipients",
      "outputs": [
        {
          "internalType": "address[]",
          "name": "",
          "type": "address[]"
        }
      ],
      "stateMutability": "view",
      "type": "function"
    },
    {
      "inputs": [],
      "name": "owner",
      "outputs": [
        {
          "internalType": "address",
          "name": "",
          "type": "address"
        }
      ],
      "stateMutability": "view",
      "type": "function"
    },
    {
      "inputs": [],
      "name": "pause",
      "outputs": [],
      "stateMutability": "nonpayable",
      "type": "function"
    },
    {
      "inputs": [],
      "name": "paused",
      "outputs": [
        {
          "internalType": "bool",
          "name": "",
          "type": "bool"
        }
      ],
      "stateMutability": "view",
      "type": "function"
    },
    {
      "inputs": [],
      "name": "pauser",
      "outputs": [
        {
          "internalType": "address",
          "name": "",
          "type": "address"
        }
      ],
      "stateMutability": "view",
      "type": "function"
    },
    {
      "inputs": [],
      "name": "pay",
      "outputs": [],
      "stateMutability": "nonpayable",
      "type": "function"
    },
    {
      "inputs": [],
      "name": "renounceOwnership",
      "outputs": [],
      "stateMutability": "nonpayable",
      "type": "function"
    },
    {
      "inputs": [],
      "name": "totalSupply",
      "outputs": [
        {
          "internalType": "uint256",
          "name": "",
          "type": "uint256"
        }
      ],
      "stateMutability": "view",
      "type": "function"
    },
    {
      "inputs": [
        {
          "internalType": "address payable",
          "name": "recipient",
          "type": "address"
        },
        {
          "internalType": "uint256",
          "name": "amount",
          "type": "uint256"
        }
      ],
      "name": "transferETH",
      "outputs": [],
      "stateMutability": "nonpayable",
      "type": "function"
    },
    {
      "inputs": [
        {
          "internalType": "address",
          "name": "newOwner",
          "type": "address"
        }
      ],
      "name": "transferOwnership",
      "outputs": [],
      "stateMutability": "nonpayable",
      "type": "function"
    },
    {
      "inputs": [],
      "name": "unpause",
      "outputs": [],
      "stateMutability": "nonpayable",
      "type": "function"
    },
    {
      "inputs": [],
      "name": "withdraw",
      "outputs": [],
      "stateMutability": "nonpayable",
      "type": "function"
    },
    {
      "stateMutability": "payable",
      "type": "receive"
    }
  ],
  "transactionHash": "0x741d8b71557dac1e6a565f682d125080a705ca0f43e3936c3d6a6e26b45310d3",
  "args": [],
  "solcInputHash": "7aacce95a25e3031e6504bec8488470b",
  "bytecode": "0x608060405234801561001057600080fd5b50600061002161012c60201b60201c565b9050806000806101000a81548173ffffffffffffffffffffffffffffffffffffffff021916908373ffffffffffffffffffffffffffffffffffffffff1602179055508073ffffffffffffffffffffffffffffffffffffffff16600073ffffffffffffffffffffffffffffffffffffffff167f8be0079c531659141344cd1fd0a4f28419497f9722a3daafe3b4186f6b6457e060405160405180910390a35060008060146101000a81548160ff0219169083151502179055506100e761013460201b60201c565b600160006101000a81548173ffffffffffffffffffffffffffffffffffffffff021916908373ffffffffffffffffffffffffffffffffffffffff16021790555061015d565b600033905090565b60008060009054906101000a900473ffffffffffffffffffffffffffffffffffffffff16905090565b612334806200016d6000396000f3fe60806040526004361061010d5760003560e01c8063715018a6116100955780639fd0506d116100645780639fd0506d146102f0578063d78d610b1461031b578063e21fe96114610346578063e9cf66f114610385578063f2fde38b146103c257610114565b8063715018a61461026e5780637b1a4909146102855780638456cb59146102ae5780638da5cb5b146102c557610114565b80633ccfd60b116100dc5780633ccfd60b146101ad5780633f4ba83a146101c45780635426fa8a146101db5780635c975abb1461020657806370a082311461023157610114565b80630d4320211461011957806318160ddd146101425780631b9265b81461016d5780632cd271e71461018457610114565b3661011457005b600080fd5b34801561012557600080fd5b50610140600480360381019061013b9190611915565b6103eb565b005b34801561014e57600080fd5b50610157610672565b6040516101649190612175565b60405180910390f35b34801561017957600080fd5b50610182610678565b005b34801561019057600080fd5b506101ab60048036038101906101a691906118b0565b610772565b005b3480156101b957600080fd5b506101c26108a4565b005b3480156101d057600080fd5b506101d96109e4565b005b3480156101e757600080fd5b506101f0610ac9565b6040516101fd9190612175565b60405180910390f35b34801561021257600080fd5b5061021b610b25565b6040516102289190611fb8565b60405180910390f35b34801561023d57600080fd5b50610258600480360381019061025391906118b0565b610b3b565b6040516102659190612175565b60405180910390f35b34801561027a57600080fd5b50610283610b84565b005b34801561029157600080fd5b506102ac60048036038101906102a791906118d9565b610cd7565b005b3480156102ba57600080fd5b506102c3610e0e565b005b3480156102d157600080fd5b506102da610ef3565b6040516102e79190611f00565b60405180910390f35b3480156102fc57600080fd5b50610305610f1c565b6040516103129190611f00565b60405180910390f35b34801561032757600080fd5b50610330610f42565b60405161033d9190611f96565b60405180910390f35b34801561035257600080fd5b5061036d600480360381019061036891906118b0565b61101a565b60405161037c93929190611f5f565b60405180910390f35b34801561039157600080fd5b506103ac60048036038101906103a791906118b0565b611064565b6040516103b99190612175565b60405180910390f35b3480156103ce57600080fd5b506103e960048036038101906103e491906118b0565b6111a1565b005b6103f3611363565b73ffffffffffffffffffffffffffffffffffffffff1660008054906101000a900473ffffffffffffffffffffffffffffffffffffffff1673ffffffffffffffffffffffffffffffffffffffff1614610480576040517f08c379a000000000000000000000000000000000000000000000000000000000815260040161047790612135565b60405180910390fd5b808211156104c3576040517f08c379a00000000000000000000000000000000000000000000000000000000081526004016104ba90612155565b60405180910390fd5b60405180606001604052808473ffffffffffffffffffffffffffffffffffffffff16815260200183815260200182815250600260008573ffffffffffffffffffffffffffffffffffffffff1673ffffffffffffffffffffffffffffffffffffffff16815260200190815260200160002060008201518160000160006101000a81548173ffffffffffffffffffffffffffffffffffffffff021916908373ffffffffffffffffffffffffffffffffffffffff160217905550602082015181600101556040820151816002015590505060008111156105b4576105ae83600361136b90919063ffffffff16565b50610632565b6105c883600361139b90919063ffffffff16565b506105e66105d584610b3b565b6006546113cb90919063ffffffff16565b6006819055506000600560008573ffffffffffffffffffffffffffffffffffffffff1673ffffffffffffffffffffffffffffffffffffffff168152602001908152602001600020819055505b7f5c315648fddc891fd463694f00b02e1b8e3a1847790fd85887fb41f7c28fb1ca83838360405161066593929190611f5f565b60405180910390a1505050565b60065481565b60005b6106856003611415565b81101561076f5760006106a3600654476113cb90919063ffffffff16565b905060006106bb83600361142a90919063ffffffff16565b905060006106c882611064565b905060008114806106d857508083105b156106e557505050610762565b610700816106f284610b3b565b61144490919063ffffffff16565b600560008473ffffffffffffffffffffffffffffffffffffffff1673ffffffffffffffffffffffffffffffffffffffff168152602001908152602001600020819055506107588160065461144490919063ffffffff16565b6006819055505050505b808060010191505061067b565b50565b61077a611363565b73ffffffffffffffffffffffffffffffffffffffff1660008054906101000a900473ffffffffffffffffffffffffffffffffffffffff1673ffffffffffffffffffffffffffffffffffffffff1614610807576040517f08c379a00000000000000000000000000000000000000000000000000000000081526004016107fe90612135565b60405180910390fd5b80600160006101000a81548173ffffffffffffffffffffffffffffffffffffffff021916908373ffffffffffffffffffffffffffffffffffffffff1602179055507fb80482a293ca2e013eda8683c9bd7fc8347cfdaeea5ede58cba46df502c2a604600160009054906101000a900473ffffffffffffffffffffffffffffffffffffffff166040516108999190611f00565b60405180910390a150565b60006108ae611363565b905060006108bb82610b3b565b905060008111610900576040517f08c379a00000000000000000000000000000000000000000000000000000000081526004016108f7906120d5565b60405180910390fd5b6000600560008473ffffffffffffffffffffffffffffffffffffffff1673ffffffffffffffffffffffffffffffffffffffff1681526020019081526020016000208190555061095a816006546113cb90919063ffffffff16565b6006819055508173ffffffffffffffffffffffffffffffffffffffff166108fc829081150290604051600060405180830381858888f193505050501580156109a6573d6000803e3d6000fd5b507f7be9078cfa949e4b9e15888282e2a07a7fae4958503c18c81db93c5d4135249782826040516109d8929190611f36565b60405180910390a15050565b6109ec611363565b73ffffffffffffffffffffffffffffffffffffffff16600160009054906101000a900473ffffffffffffffffffffffffffffffffffffffff1673ffffffffffffffffffffffffffffffffffffffff161480610a805750610a4a611363565b73ffffffffffffffffffffffffffffffffffffffff16610a68610ef3565b73ffffffffffffffffffffffffffffffffffffffff16145b610abf576040517f08c379a0000000000000000000000000000000000000000000000000000000008152600401610ab690612075565b60405180910390fd5b610ac7611499565b565b60008060005b610ad96003611415565b811015610b1d57610b0e610aff610afa83600361142a90919063ffffffff16565b611064565b8361144490919063ffffffff16565b91508080600101915050610acf565b508091505090565b60008060149054906101000a900460ff16905090565b6000600560008373ffffffffffffffffffffffffffffffffffffffff1673ffffffffffffffffffffffffffffffffffffffff168152602001908152602001600020549050919050565b610b8c611363565b73ffffffffffffffffffffffffffffffffffffffff1660008054906101000a900473ffffffffffffffffffffffffffffffffffffffff1673ffffffffffffffffffffffffffffffffffffffff1614610c19576040517f08c379a0000000000000000000000000000000000000000000000000000000008152600401610c1090612135565b60405180910390fd5b600073ffffffffffffffffffffffffffffffffffffffff1660008054906101000a900473ffffffffffffffffffffffffffffffffffffffff1673ffffffffffffffffffffffffffffffffffffffff167f8be0079c531659141344cd1fd0a4f28419497f9722a3daafe3b4186f6b6457e060405160405180910390a360008060006101000a81548173ffffffffffffffffffffffffffffffffffffffff021916908373ffffffffffffffffffffffffffffffffffffffff160217905550565b610cdf611363565b73ffffffffffffffffffffffffffffffffffffffff1660008054906101000a900473ffffffffffffffffffffffffffffffffffffffff1673ffffffffffffffffffffffffffffffffffffffff1614610d6c576040517f08c379a0000000000000000000000000000000000000000000000000000000008152600401610d6390612135565b60405180910390fd5b80610d82600654476113cb90919063ffffffff16565b1015610dc3576040517f08c379a0000000000000000000000000000000000000000000000000000000008152600401610dba90612115565b60405180910390fd5b8173ffffffffffffffffffffffffffffffffffffffff166108fc829081150290604051600060405180830381858888f19350505050158015610e09573d6000803e3d6000fd5b505050565b610e16611363565b73ffffffffffffffffffffffffffffffffffffffff16600160009054906101000a900473ffffffffffffffffffffffffffffffffffffffff1673ffffffffffffffffffffffffffffffffffffffff161480610eaa5750610e74611363565b73ffffffffffffffffffffffffffffffffffffffff16610e92610ef3565b73ffffffffffffffffffffffffffffffffffffffff16145b610ee9576040517f08c379a0000000000000000000000000000000000000000000000000000000008152600401610ee090612055565b60405180910390fd5b610ef1611542565b565b60008060009054906101000a900473ffffffffffffffffffffffffffffffffffffffff16905090565b600160009054906101000a900473ffffffffffffffffffffffffffffffffffffffff1681565b606080610f4f6003611415565b67ffffffffffffffff81118015610f6557600080fd5b50604051908082528060200260200182016040528015610f945781602001602082028036833780820191505090505b50905060005b610fa46003611415565b81101561101257610fbf81600361142a90919063ffffffff16565b828281518110610fcb57fe5b602002602001019073ffffffffffffffffffffffffffffffffffffffff16908173ffffffffffffffffffffffffffffffffffffffff16815250508080600101915050610f9a565b508091505090565b60026020528060005260406000206000915090508060000160009054906101000a900473ffffffffffffffffffffffffffffffffffffffff16908060010154908060020154905083565b600061107a8260036115ed90919063ffffffff16565b6110b9576040517f08c379a00000000000000000000000000000000000000000000000000000000081526004016110b0906120b5565b60405180910390fd5b60006110ed6110c784610b3b565b8473ffffffffffffffffffffffffffffffffffffffff163161144490919063ffffffff16565b9050600260008473ffffffffffffffffffffffffffffffffffffffff1673ffffffffffffffffffffffffffffffffffffffff1681526020019081526020016000206001015481111561114357600091505061119c565b61119881600260008673ffffffffffffffffffffffffffffffffffffffff1673ffffffffffffffffffffffffffffffffffffffff168152602001908152602001600020600201546113cb90919063ffffffff16565b9150505b919050565b6111a9611363565b73ffffffffffffffffffffffffffffffffffffffff1660008054906101000a900473ffffffffffffffffffffffffffffffffffffffff1673ffffffffffffffffffffffffffffffffffffffff1614611236576040517f08c379a000000000000000000000000000000000000000000000000000000000815260040161122d90612135565b60405180910390fd5b600073ffffffffffffffffffffffffffffffffffffffff168173ffffffffffffffffffffffffffffffffffffffff1614156112a6576040517f08c379a000000000000000000000000000000000000000000000000000000000815260040161129d90612035565b60405180910390fd5b8073ffffffffffffffffffffffffffffffffffffffff1660008054906101000a900473ffffffffffffffffffffffffffffffffffffffff1673ffffffffffffffffffffffffffffffffffffffff167f8be0079c531659141344cd1fd0a4f28419497f9722a3daafe3b4186f6b6457e060405160405180910390a3806000806101000a81548173ffffffffffffffffffffffffffffffffffffffff021916908373ffffffffffffffffffffffffffffffffffffffff16021790555050565b600033905090565b6000611393836000018373ffffffffffffffffffffffffffffffffffffffff1660001b61161d565b905092915050565b60006113c3836000018373ffffffffffffffffffffffffffffffffffffffff1660001b61168d565b905092915050565b600061140d83836040518060400160405280601e81526020017f536166654d6174683a207375627472616374696f6e206f766572666c6f770000815250611775565b905092915050565b6000611423826000016117d0565b9050919050565b600061143983600001836117e1565b60001c905092915050565b60008082840190508381101561148f576040517f08c379a000000000000000000000000000000000000000000000000000000000815260040161148690612095565b60405180910390fd5b8091505092915050565b600060149054906101000a900460ff166114e8576040517f08c379a00000000000000000000000000000000000000000000000000000000081526004016114df90612015565b60405180910390fd5b60008060146101000a81548160ff0219169083151502179055507f5db9ee0a495bf2e6ff9c91a7834c1ba4fdd244a5e8aa4e537bd38aeae4b073aa61152b611363565b6040516115389190611f1b565b60405180910390a1565b600060149054906101000a900460ff1615611592576040517f08c379a0000000000000000000000000000000000000000000000000000000008152600401611589906120f5565b60405180910390fd5b6001600060146101000a81548160ff0219169083151502179055507f62e78cea01bee320cd4e420270b5ea74000d11b0c9f74754ebdbfc544b05a2586115d6611363565b6040516115e39190611f1b565b60405180910390a1565b6000611615836000018373ffffffffffffffffffffffffffffffffffffffff1660001b61184e565b905092915050565b6000611629838361184e565b611682578260000182908060018154018082558091505060019003906000526020600020016000909190919091505582600001805490508360010160008481526020019081526020016000208190555060019050611687565b600090505b92915050565b6000808360010160008481526020019081526020016000205490506000811461176957600060018203905060006001866000018054905003905060008660000182815481106116d857fe5b90600052602060002001549050808760000184815481106116f557fe5b906000526020600020018190555060018301876001016000838152602001908152602001600020819055508660000180548061172d57fe5b6001900381819060005260206000200160009055905586600101600087815260200190815260200160002060009055600194505050505061176f565b60009150505b92915050565b60008383111582906117bd576040517f08c379a00000000000000000000000000000000000000000000000000000000081526004016117b49190611fd3565b60405180910390fd5b5060008385039050809150509392505050565b600081600001805490509050919050565b60008183600001805490501161182c576040517f08c379a000000000000000000000000000000000000000000000000000000000815260040161182390611ff5565b60405180910390fd5b82600001828154811061183b57fe5b9060005260206000200154905092915050565b600080836001016000848152602001908152602001600020541415905092915050565b600081359050611880816122b9565b92915050565b600081359050611895816122d0565b92915050565b6000813590506118aa816122e7565b92915050565b6000602082840312156118c257600080fd5b60006118d084828501611871565b91505092915050565b600080604083850312156118ec57600080fd5b60006118fa85828601611886565b925050602061190b8582860161189b565b9150509250929050565b60008060006060848603121561192a57600080fd5b600061193886828701611871565b93505060206119498682870161189b565b925050604061195a8682870161189b565b9150509250925092565b6000611970838361198b565b60208301905092915050565b6119858161223f565b82525050565b611994816121e5565b82525050565b6119a3816121e5565b82525050565b60006119b4826121a0565b6119be81856121c3565b93506119c983612190565b8060005b838110156119fa5781516119e18882611964565b97506119ec836121b6565b9250506001810190506119cd565b5085935050505092915050565b611a1081612209565b82525050565b6000611a21826121ab565b611a2b81856121d4565b9350611a3b818560208601612275565b611a44816122a8565b840191505092915050565b6000611a5c6022836121d4565b91507f456e756d657261626c655365743a20696e646578206f7574206f6620626f756e60008301527f64730000000000000000000000000000000000000000000000000000000000006020830152604082019050919050565b6000611ac26014836121d4565b91507f5061757361626c653a206e6f74207061757365640000000000000000000000006000830152602082019050919050565b6000611b026026836121d4565b91507f4f776e61626c653a206e6577206f776e657220697320746865207a65726f206160008301527f64647265737300000000000000000000000000000000000000000000000000006020830152604082019050919050565b6000611b686041836121d4565b91507f4f776e61626c655061757361626c653a3a70617573653a206f6e6c792070617560008301527f73657220616e64206f776e6572206d75737420706175736520636f6e7472616360208301527f74000000000000000000000000000000000000000000000000000000000000006040830152606082019050919050565b6000611bf46045836121d4565b91507f4f776e61626c655061757361626c653a3a756e70617573653a206f6e6c79207060008301527f617573657220616e64206f776e6572206d75737420756e706175736520636f6e60208301527f74726163740000000000000000000000000000000000000000000000000000006040830152606082019050919050565b6000611c80601b836121d4565b91507f536166654d6174683a206164646974696f6e206f766572666c6f7700000000006000830152602082019050919050565b6000611cc06034836121d4565b91507f4275646765743a3a64656669636974546f3a20726563697069656e74206e6f7460008301527f20696e20657870656e646974757265206974656d0000000000000000000000006020830152604082019050919050565b6000611d266031836121d4565b91507f4275646765743a3a77697468647261773a207472616e7366657220616d6f756e60008301527f7420657863656564732062616c616e63650000000000000000000000000000006020830152604082019050919050565b6000611d8c6010836121d4565b91507f5061757361626c653a20706175736564000000000000000000000000000000006000830152602082019050919050565b6000611dcc6034836121d4565b91507f4275646765743a3a7472616e736665724554483a207472616e7366657220616d60008301527f6f756e7420657863656564732062616c616e63650000000000000000000000006020830152604082019050919050565b6000611e326020836121d4565b91507f4f776e61626c653a2063616c6c6572206973206e6f7420746865206f776e65726000830152602082019050919050565b6000611e726051836121d4565b91507f4275646765743a3a6368616e6765457870656e6469747572653a206d696e696d60008301527f616c2062616c616e63652073686f756c64206265206c657373206f722065717560208301527f616c207461726765742062616c616e63650000000000000000000000000000006040830152606082019050919050565b611efa81612235565b82525050565b6000602082019050611f15600083018461199a565b92915050565b6000602082019050611f30600083018461197c565b92915050565b6000604082019050611f4b600083018561197c565b611f586020830184611ef1565b9392505050565b6000606082019050611f74600083018661199a565b611f816020830185611ef1565b611f8e6040830184611ef1565b949350505050565b60006020820190508181036000830152611fb081846119a9565b905092915050565b6000602082019050611fcd6000830184611a07565b92915050565b60006020820190508181036000830152611fed8184611a16565b905092915050565b6000602082019050818103600083015261200e81611a4f565b9050919050565b6000602082019050818103600083015261202e81611ab5565b9050919050565b6000602082019050818103600083015261204e81611af5565b9050919050565b6000602082019050818103600083015261206e81611b5b565b9050919050565b6000602082019050818103600083015261208e81611be7565b9050919050565b600060208201905081810360008301526120ae81611c73565b9050919050565b600060208201905081810360008301526120ce81611cb3565b9050919050565b600060208201905081810360008301526120ee81611d19565b9050919050565b6000602082019050818103600083015261210e81611d7f565b9050919050565b6000602082019050818103600083015261212e81611dbf565b9050919050565b6000602082019050818103600083015261214e81611e25565b9050919050565b6000602082019050818103600083015261216e81611e65565b9050919050565b600060208201905061218a6000830184611ef1565b92915050565b6000819050602082019050919050565b600081519050919050565b600081519050919050565b6000602082019050919050565b600082825260208201905092915050565b600082825260208201905092915050565b60006121f082612215565b9050919050565b600061220282612215565b9050919050565b60008115159050919050565b600073ffffffffffffffffffffffffffffffffffffffff82169050919050565b6000819050919050565b600061224a82612251565b9050919050565b600061225c82612263565b9050919050565b600061226e82612215565b9050919050565b60005b83811015612293578082015181840152602081019050612278565b838111156122a2576000848401525b50505050565b6000601f19601f8301169050919050565b6122c2816121e5565b81146122cd57600080fd5b50565b6122d9816121f7565b81146122e457600080fd5b50565b6122f081612235565b81146122fb57600080fd5b5056fea2646970667358221220f7c16280784be96acd342749f9fbab6d8b05587d999201294398dab715a85d7464736f6c634300060c0033",
  "devdoc": {
    "kind": "dev",
    "methods": {
      "changeExpenditure(address,uint256,uint256)": {
        "params": {
          "min": "Minimal balance for payment.",
          "recipient": "Recipient address.",
          "target": "Target balance."
        }
      },
      "changePauser(address)": {
        "params": {
          "newPauser": "Address of new pauser account."
        }
      },
      "deficit()": {
        "returns": {
          "_0": "Summary balance deficit of all recipients."
        }
      },
      "deficitTo(address)": {
        "params": {
          "recipient": "Target recipient."
        },
        "returns": {
          "_0": "Balance deficit of recipient."
        }
      },
      "getRecipients()": {
        "returns": {
          "_0": "Recipients addresses."
        }
      },
      "owner()": {
        "details": "Returns the address of the current owner."
      },
      "paused()": {
        "details": "Returns true if the contract is paused, and false otherwise."
      },
      "renounceOwnership()": {
        "details": "Leaves the contract without owner. It will not be possible to call `onlyOwner` functions anymore. Can only be called by the current owner. NOTE: Renouncing ownership will leave the contract without an owner, thereby removing any functionality that is only available to the owner."
      },
      "transferETH(address,uint256)": {
        "params": {
          "amount": "Transfer amount.",
          "recipient": "Recipient."
        }
      },
      "transferOwnership(address)": {
        "details": "Transfers ownership of the contract to a new account (`newOwner`). Can only be called by the current owner."
      }
    },
    "stateVariables": {
      "balances": {
        "details": "Withdrawal balance of recipients."
      },
      "recipients": {
        "details": "Recipients addresses list."
      }
    },
    "version": 1
  },
  "userdoc": {
    "events": {
      "ExpenditureChanged(address,uint256,uint256)": {
        "notice": "An event emitted when expenditure item changed."
      },
      "PauserChanged(address)": {
        "notice": "An event thats emitted when an pauser address changed."
      },
      "Payed(address,uint256)": {
        "notice": "An event emitted when expenditure item payed."
      }
    },
    "kind": "user",
    "methods": {
      "balanceOf(address)": {
        "notice": "Get withdrawal balance of recipient."
      },
      "changeExpenditure(address,uint256,uint256)": {
        "notice": "Change expenditure item."
      },
      "changePauser(address)": {
        "notice": "Change pauser account."
      },
      "deficit()": {
        "notice": "Return summary balance deficit of all recipients."
      },
      "deficitTo(address)": {
        "notice": "Return balance deficit of recipient."
      },
      "expenditures(address)": {
        "notice": "Expenditure item to address."
      },
      "getRecipients()": {
        "notice": "Return all recipients addresses."
      },
      "pause()": {
        "notice": "Triggers stopped state."
      },
      "pauser()": {
        "notice": "Address that can pause a contract."
      },
      "pay()": {
        "notice": "Pay ETH to all recipients with balance deficit."
      },
      "totalSupply()": {
        "notice": "Total withdrawal balance."
      },
      "transferETH(address,uint256)": {
        "notice": "Transfer ETH to recipient."
      },
      "unpause()": {
        "notice": "Returns to normal state."
      },
      "withdraw()": {
        "notice": "Withdraw ETH to recipient."
      }
    },
    "version": 1
  },
  "storageLayout": {
    "storage": [
      {
        "astId": 30,
        "contract": "contracts/Budget.sol:Budget",
        "label": "_owner",
        "offset": 0,
        "slot": "0",
        "type": "t_address"
      },
      {
        "astId": 1806,
        "contract": "contracts/Budget.sol:Budget",
        "label": "_paused",
        "offset": 20,
        "slot": "0",
        "type": "t_bool"
      },
      {
        "astId": 14228,
        "contract": "contracts/Budget.sol:Budget",
        "label": "pauser",
        "offset": 0,
        "slot": "1",
        "type": "t_address"
      },
      {
        "astId": 1944,
        "contract": "contracts/Budget.sol:Budget",
        "label": "expenditures",
        "offset": 0,
        "slot": "2",
        "type": "t_mapping(t_address,t_struct(Expenditure)1939_storage)"
      },
      {
        "astId": 1947,
        "contract": "contracts/Budget.sol:Budget",
        "label": "recipients",
        "offset": 0,
        "slot": "3",
        "type": "t_struct(AddressSet)1584_storage"
      },
      {
        "astId": 1952,
        "contract": "contracts/Budget.sol:Budget",
        "label": "balances",
        "offset": 0,
        "slot": "5",
        "type": "t_mapping(t_address,t_uint256)"
      },
      {
        "astId": 1955,
        "contract": "contracts/Budget.sol:Budget",
        "label": "totalSupply",
        "offset": 0,
        "slot": "6",
        "type": "t_uint256"
      }
    ],
    "types": {
      "t_address": {
        "encoding": "inplace",
        "label": "address",
        "numberOfBytes": "20"
      },
      "t_array(t_bytes32)dyn_storage": {
        "base": "t_bytes32",
        "encoding": "dynamic_array",
        "label": "bytes32[]",
        "numberOfBytes": "32"
      },
      "t_bool": {
        "encoding": "inplace",
        "label": "bool",
        "numberOfBytes": "1"
      },
      "t_bytes32": {
        "encoding": "inplace",
        "label": "bytes32",
        "numberOfBytes": "32"
      },
      "t_mapping(t_address,t_struct(Expenditure)1939_storage)": {
        "encoding": "mapping",
        "key": "t_address",
        "label": "mapping(address => struct Budget.Expenditure)",
        "numberOfBytes": "32",
        "value": "t_struct(Expenditure)1939_storage"
      },
      "t_mapping(t_address,t_uint256)": {
        "encoding": "mapping",
        "key": "t_address",
        "label": "mapping(address => uint256)",
        "numberOfBytes": "32",
        "value": "t_uint256"
      },
      "t_mapping(t_bytes32,t_uint256)": {
        "encoding": "mapping",
        "key": "t_bytes32",
        "label": "mapping(bytes32 => uint256)",
        "numberOfBytes": "32",
        "value": "t_uint256"
      },
      "t_struct(AddressSet)1584_storage": {
        "encoding": "inplace",
        "label": "struct EnumerableSet.AddressSet",
        "members": [
          {
            "astId": 1583,
            "contract": "contracts/Budget.sol:Budget",
            "label": "_inner",
            "offset": 0,
            "slot": "0",
            "type": "t_struct(Set)1404_storage"
          }
        ],
        "numberOfBytes": "64"
      },
      "t_struct(Expenditure)1939_storage": {
        "encoding": "inplace",
        "label": "struct Budget.Expenditure",
        "members": [
          {
            "astId": 1934,
            "contract": "contracts/Budget.sol:Budget",
            "label": "recipient",
            "offset": 0,
            "slot": "0",
            "type": "t_address"
          },
          {
            "astId": 1936,
            "contract": "contracts/Budget.sol:Budget",
            "label": "min",
            "offset": 0,
            "slot": "1",
            "type": "t_uint256"
          },
          {
            "astId": 1938,
            "contract": "contracts/Budget.sol:Budget",
            "label": "target",
            "offset": 0,
            "slot": "2",
            "type": "t_uint256"
          }
        ],
        "numberOfBytes": "96"
      },
      "t_struct(Set)1404_storage": {
        "encoding": "inplace",
        "label": "struct EnumerableSet.Set",
        "members": [
          {
            "astId": 1399,
            "contract": "contracts/Budget.sol:Budget",
            "label": "_values",
            "offset": 0,
            "slot": "0",
            "type": "t_array(t_bytes32)dyn_storage"
          },
          {
            "astId": 1403,
            "contract": "contracts/Budget.sol:Budget",
            "label": "_indexes",
            "offset": 0,
            "slot": "1",
            "type": "t_mapping(t_bytes32,t_uint256)"
          }
        ],
        "numberOfBytes": "64"
      },
      "t_uint256": {
        "encoding": "inplace",
        "label": "uint256",
        "numberOfBytes": "32"
      }
    }
  }
}