{
  "address": "0x0271CfA9266dcAE182A035EFf77b7d489256AE6F",
  "abi": [
    {
      "inputs": [
        {
          "internalType": "address",
          "name": "_market",
          "type": "address"
        },
        {
          "internalType": "address",
          "name": "_recipient",
          "type": "address"
        }
      ],
      "stateMutability": "nonpayable",
      "type": "constructor"
    },
    {
      "anonymous": false,
      "inputs": [
        {
          "indexed": true,
          "internalType": "address",
          "name": "customer",
          "type": "address"
        },
        {
          "indexed": false,
          "internalType": "address",
          "name": "currency",
          "type": "address"
        },
        {
          "indexed": false,
          "internalType": "uint256",
          "name": "sell",
          "type": "uint256"
        },
        {
          "indexed": false,
          "internalType": "uint256",
          "name": "buy",
          "type": "uint256"
        },
        {
          "indexed": false,
          "internalType": "uint256",
          "name": "reward",
          "type": "uint256"
        }
      ],
      "name": "Buy",
      "type": "event"
    },
    {
      "inputs": [
        {
          "internalType": "contract ERC20",
          "name": "currency",
          "type": "address"
        },
        {
          "internalType": "uint256",
          "name": "amount",
          "type": "uint256"
        }
      ],
      "name": "buy",
      "outputs": [
        {
          "internalType": "bool",
          "name": "",
          "type": "bool"
        }
      ],
      "stateMutability": "nonpayable",
      "type": "function"
    },
    {
      "inputs": [],
      "name": "market",
      "outputs": [
        {
          "internalType": "contract Market",
          "name": "",
          "type": "address"
        }
      ],
      "stateMutability": "view",
      "type": "function"
    },
    {
      "inputs": [],
      "name": "recipient",
      "outputs": [
        {
          "internalType": "address",
          "name": "",
          "type": "address"
        }
      ],
      "stateMutability": "view",
      "type": "function"
    }
  ],
  "transactionHash": "0x67a1be8d210d73cfad8d0bc064e0ccb9ae002cee7b571d1d09d34249a3fc032c",
  "args": [
    "0xB23CE4004b0E92f87E3fd633fF0781D957ccD677",
    "0x9403932015576D13Fb26B135ed7a35d5d95C18d4"
  ],
  "solcInputHash": "70c372195ba0e618f15d362b71bbc694",
  "bytecode": "0x608060405234801561001057600080fd5b50604051610ffc380380610ffc8339818101604052604081101561003357600080fd5b810190808051906020019092919080519060200190929190505050816000806101000a81548173ffffffffffffffffffffffffffffffffffffffff021916908373ffffffffffffffffffffffffffffffffffffffff16021790555080600160006101000a81548173ffffffffffffffffffffffffffffffffffffffff021916908373ffffffffffffffffffffffffffffffffffffffff1602179055505050610f1c806100e06000396000f3fe608060405234801561001057600080fd5b50600436106100415760003560e01c806366d003ac1461004657806380f556051461007a578063cce7ec13146100ae575b600080fd5b61004e610112565b604051808273ffffffffffffffffffffffffffffffffffffffff16815260200191505060405180910390f35b610082610138565b604051808273ffffffffffffffffffffffffffffffffffffffff16815260200191505060405180910390f35b6100fa600480360360408110156100c457600080fd5b81019080803573ffffffffffffffffffffffffffffffffffffffff1690602001909291908035906020019092919050505061015c565b60405180821515815260200191505060405180910390f35b600160009054906101000a900473ffffffffffffffffffffffffffffffffffffffff1681565b60008054906101000a900473ffffffffffffffffffffffffffffffffffffffff1681565b6000610192610169610836565b30848673ffffffffffffffffffffffffffffffffffffffff1661083e909392919063ffffffff16565b60008373ffffffffffffffffffffffffffffffffffffffff166370a08231306040518263ffffffff1660e01b8152600401808273ffffffffffffffffffffffffffffffffffffffff16815260200191505060206040518083038186803b1580156101fb57600080fd5b505afa15801561020f573d6000803e3d6000fd5b505050506040513d602081101561022557600080fd5b8101908080519060200190929190505050905060008473ffffffffffffffffffffffffffffffffffffffff1663dd62ed3e3060008054906101000a900473ffffffffffffffffffffffffffffffffffffffff166040518363ffffffff1660e01b8152600401808373ffffffffffffffffffffffffffffffffffffffff1681526020018273ffffffffffffffffffffffffffffffffffffffff1681526020019250505060206040518083038186803b1580156102df57600080fd5b505afa1580156102f3573d6000803e3d6000fd5b505050506040513d602081101561030957600080fd5b81019080805190602001909291905050501461036c5761036b60008054906101000a900473ffffffffffffffffffffffffffffffffffffffff1660008673ffffffffffffffffffffffffffffffffffffffff166108ff9092919063ffffffff16565b5b6103b760008054906101000a900473ffffffffffffffffffffffffffffffffffffffff16828673ffffffffffffffffffffffffffffffffffffffff166108ff9092919063ffffffff16565b60008054906101000a900473ffffffffffffffffffffffffffffffffffffffff1673ffffffffffffffffffffffffffffffffffffffff1663cce7ec1385836040518363ffffffff1660e01b8152600401808373ffffffffffffffffffffffffffffffffffffffff16815260200182815260200192505050602060405180830381600087803b15801561044857600080fd5b505af115801561045c573d6000803e3d6000fd5b505050506040513d602081101561047257600080fd5b81019080805190602001909291905050505060008060009054906101000a900473ffffffffffffffffffffffffffffffffffffffff1673ffffffffffffffffffffffffffffffffffffffff166325b4f65f6040518163ffffffff1660e01b815260040160206040518083038186803b1580156104ed57600080fd5b505afa158015610501573d6000803e3d6000fd5b505050506040513d602081101561051757600080fd5b8101908080519060200190929190505050905060008173ffffffffffffffffffffffffffffffffffffffff166370a08231306040518263ffffffff1660e01b8152600401808273ffffffffffffffffffffffffffffffffffffffff16815260200191505060206040518083038186803b15801561059357600080fd5b505afa1580156105a7573d6000803e3d6000fd5b505050506040513d60208110156105bd57600080fd5b8101908080519060200190929190505050905061061d600160009054906101000a900473ffffffffffffffffffffffffffffffffffffffff16828473ffffffffffffffffffffffffffffffffffffffff16610ac49092919063ffffffff16565b60008060009054906101000a900473ffffffffffffffffffffffffffffffffffffffff1673ffffffffffffffffffffffffffffffffffffffff1663f7c618c16040518163ffffffff1660e01b815260040160206040518083038186803b15801561068657600080fd5b505afa15801561069a573d6000803e3d6000fd5b505050506040513d60208110156106b057600080fd5b8101908080519060200190929190505050905060008173ffffffffffffffffffffffffffffffffffffffff166370a08231306040518263ffffffff1660e01b8152600401808273ffffffffffffffffffffffffffffffffffffffff16815260200191505060206040518083038186803b15801561072c57600080fd5b505afa158015610740573d6000803e3d6000fd5b505050506040513d602081101561075657600080fd5b8101908080519060200190929190505050905060008111156107a5576107a461077d610836565b828473ffffffffffffffffffffffffffffffffffffffff16610ac49092919063ffffffff16565b5b6107ad610836565b73ffffffffffffffffffffffffffffffffffffffff167ef93dbdb72854b6b6fb35433086556f2635fc83c37080c667496fecfa650fb489878685604051808573ffffffffffffffffffffffffffffffffffffffff16815260200184815260200183815260200182815260200194505050505060405180910390a260019550505050505092915050565b600033905090565b6108f9846323b872dd60e01b858585604051602401808473ffffffffffffffffffffffffffffffffffffffff1681526020018373ffffffffffffffffffffffffffffffffffffffff1681526020018281526020019350505050604051602081830303815290604052907bffffffffffffffffffffffffffffffffffffffffffffffffffffffff19166020820180517bffffffffffffffffffffffffffffffffffffffffffffffffffffffff8381831617835250505050610b66565b50505050565b60008114806109cd575060008373ffffffffffffffffffffffffffffffffffffffff1663dd62ed3e30856040518363ffffffff1660e01b8152600401808373ffffffffffffffffffffffffffffffffffffffff1681526020018273ffffffffffffffffffffffffffffffffffffffff1681526020019250505060206040518083038186803b15801561099057600080fd5b505afa1580156109a4573d6000803e3d6000fd5b505050506040513d60208110156109ba57600080fd5b8101908080519060200190929190505050145b610a22576040517f08c379a0000000000000000000000000000000000000000000000000000000008152600401808060200182810382526036815260200180610eb16036913960400191505060405180910390fd5b610abf8363095ea7b360e01b8484604051602401808373ffffffffffffffffffffffffffffffffffffffff16815260200182815260200192505050604051602081830303815290604052907bffffffffffffffffffffffffffffffffffffffffffffffffffffffff19166020820180517bffffffffffffffffffffffffffffffffffffffffffffffffffffffff8381831617835250505050610b66565b505050565b610b618363a9059cbb60e01b8484604051602401808373ffffffffffffffffffffffffffffffffffffffff16815260200182815260200192505050604051602081830303815290604052907bffffffffffffffffffffffffffffffffffffffffffffffffffffffff19166020820180517bffffffffffffffffffffffffffffffffffffffffffffffffffffffff8381831617835250505050610b66565b505050565b6060610bc8826040518060400160405280602081526020017f5361666545524332303a206c6f772d6c6576656c2063616c6c206661696c65648152508573ffffffffffffffffffffffffffffffffffffffff16610c559092919063ffffffff16565b9050600081511115610c5057808060200190516020811015610be957600080fd5b8101908080519060200190929190505050610c4f576040517f08c379a000000000000000000000000000000000000000000000000000000000815260040180806020018281038252602a815260200180610e87602a913960400191505060405180910390fd5b5b505050565b6060610c648484600085610c6d565b90509392505050565b6060610c7885610e73565b610cea576040517f08c379a000000000000000000000000000000000000000000000000000000000815260040180806020018281038252601d8152602001807f416464726573733a2063616c6c20746f206e6f6e2d636f6e747261637400000081525060200191505060405180910390fd5b600060608673ffffffffffffffffffffffffffffffffffffffff1685876040518082805190602001908083835b60208310610d3a5780518252602082019150602081019050602083039250610d17565b6001836020036101000a03801982511681845116808217855250505050505090500191505060006040518083038185875af1925050503d8060008114610d9c576040519150601f19603f3d011682016040523d82523d6000602084013e610da1565b606091505b50915091508115610db6578092505050610e6b565b600081511115610dc95780518082602001fd5b836040517f08c379a00000000000000000000000000000000000000000000000000000000081526004018080602001828103825283818151815260200191508051906020019080838360005b83811015610e30578082015181840152602081019050610e15565b50505050905090810190601f168015610e5d5780820380516001836020036101000a031916815260200191505b509250505060405180910390fd5b949350505050565b600080823b90506000811191505091905056fe5361666545524332303a204552433230206f7065726174696f6e20646964206e6f7420737563636565645361666545524332303a20617070726f76652066726f6d206e6f6e2d7a65726f20746f206e6f6e2d7a65726f20616c6c6f77616e6365a264697066735822122035ffc681d279c6bac3d647bd0deef45c30d3f31be0dddab1c506571d66937dd864736f6c634300060c0033",
  "devdoc": {
    "kind": "dev",
    "methods": {},
    "version": 1
  },
  "userdoc": {
    "events": {
      "Buy(address,address,uint256,uint256,uint256)": {
        "notice": "An event thats emitted when an account buyed token."
      }
    },
    "kind": "user",
    "methods": {
      "market()": {
        "notice": "Address of market contract."
      },
      "recipient()": {
        "notice": "Address of recipient all buy tokens."
      }
    },
    "version": 1
  },
  "storageLayout": {
    "storage": [
      {
        "astId": 18446,
        "contract": "contracts/waves/EastGateway.sol:EastGateway",
        "label": "market",
        "offset": 0,
        "slot": "0",
        "type": "t_contract(Market)7301"
      },
      {
        "astId": 18449,
        "contract": "contracts/waves/EastGateway.sol:EastGateway",
        "label": "recipient",
        "offset": 0,
        "slot": "1",
        "type": "t_address"
      }
    ],
    "types": {
      "t_address": {
        "encoding": "inplace",
        "label": "address",
        "numberOfBytes": "20"
      },
      "t_contract(Market)7301": {
        "encoding": "inplace",
        "label": "contract Market",
        "numberOfBytes": "20"
      }
    }
  }
}