{
  "address": "0xF8a2A1245b0f7cA4abC390c336371CF3FDDB9679",
  "abi": [
    {
      "inputs": [
        {
          "internalType": "address",
          "name": "timelock_",
          "type": "address"
        },
        {
          "internalType": "address",
          "name": "bond_",
          "type": "address"
        },
        {
          "internalType": "address",
          "name": "guardian_",
          "type": "address"
        }
      ],
      "stateMutability": "nonpayable",
      "type": "constructor"
    },
    {
      "anonymous": false,
      "inputs": [
        {
          "indexed": false,
          "internalType": "uint256",
          "name": "id",
          "type": "uint256"
        }
      ],
      "name": "ProposalCanceled",
      "type": "event"
    },
    {
      "anonymous": false,
      "inputs": [
        {
          "indexed": false,
          "internalType": "uint256",
          "name": "id",
          "type": "uint256"
        },
        {
          "indexed": false,
          "internalType": "address",
          "name": "proposer",
          "type": "address"
        },
        {
          "indexed": false,
          "internalType": "address[]",
          "name": "targets",
          "type": "address[]"
        },
        {
          "indexed": false,
          "internalType": "uint256[]",
          "name": "values",
          "type": "uint256[]"
        },
        {
          "indexed": false,
          "internalType": "string[]",
          "name": "signatures",
          "type": "string[]"
        },
        {
          "indexed": false,
          "internalType": "bytes[]",
          "name": "calldatas",
          "type": "bytes[]"
        },
        {
          "indexed": false,
          "internalType": "uint256",
          "name": "startBlock",
          "type": "uint256"
        },
        {
          "indexed": false,
          "internalType": "uint256",
          "name": "endBlock",
          "type": "uint256"
        },
        {
          "indexed": false,
          "internalType": "string",
          "name": "description",
          "type": "string"
        }
      ],
      "name": "ProposalCreated",
      "type": "event"
    },
    {
      "anonymous": false,
      "inputs": [
        {
          "indexed": false,
          "internalType": "uint256",
          "name": "id",
          "type": "uint256"
        }
      ],
      "name": "ProposalExecuted",
      "type": "event"
    },
    {
      "anonymous": false,
      "inputs": [
        {
          "indexed": false,
          "internalType": "uint256",
          "name": "id",
          "type": "uint256"
        },
        {
          "indexed": false,
          "internalType": "uint256",
          "name": "eta",
          "type": "uint256"
        }
      ],
      "name": "ProposalQueued",
      "type": "event"
    },
    {
      "anonymous": false,
      "inputs": [
        {
          "indexed": false,
          "internalType": "address",
          "name": "voter",
          "type": "address"
        },
        {
          "indexed": false,
          "internalType": "uint256",
          "name": "proposalId",
          "type": "uint256"
        },
        {
          "indexed": false,
          "internalType": "bool",
          "name": "support",
          "type": "bool"
        },
        {
          "indexed": false,
          "internalType": "uint256",
          "name": "votes",
          "type": "uint256"
        }
      ],
      "name": "VoteCast",
      "type": "event"
    },
    {
      "inputs": [],
      "name": "BALLOT_TYPEHASH",
      "outputs": [
        {
          "internalType": "bytes32",
          "name": "",
          "type": "bytes32"
        }
      ],
      "stateMutability": "view",
      "type": "function"
    },
    {
      "inputs": [],
      "name": "DOMAIN_TYPEHASH",
      "outputs": [
        {
          "internalType": "bytes32",
          "name": "",
          "type": "bytes32"
        }
      ],
      "stateMutability": "view",
      "type": "function"
    },
    {
      "inputs": [],
      "name": "__abdicate",
      "outputs": [],
      "stateMutability": "nonpayable",
      "type": "function"
    },
    {
      "inputs": [],
      "name": "__acceptAdmin",
      "outputs": [],
      "stateMutability": "nonpayable",
      "type": "function"
    },
    {
      "inputs": [
        {
          "internalType": "address",
          "name": "newPendingAdmin",
          "type": "address"
        },
        {
          "internalType": "uint256",
          "name": "eta",
          "type": "uint256"
        }
      ],
      "name": "__executeSetTimelockPendingAdmin",
      "outputs": [],
      "stateMutability": "nonpayable",
      "type": "function"
    },
    {
      "inputs": [
        {
          "internalType": "address",
          "name": "newPendingAdmin",
          "type": "address"
        },
        {
          "internalType": "uint256",
          "name": "eta",
          "type": "uint256"
        }
      ],
      "name": "__queueSetTimelockPendingAdmin",
      "outputs": [],
      "stateMutability": "nonpayable",
      "type": "function"
    },
    {
      "inputs": [],
      "name": "bond",
      "outputs": [
        {
          "internalType": "contract BondInterface",
          "name": "",
          "type": "address"
        }
      ],
      "stateMutability": "view",
      "type": "function"
    },
    {
      "inputs": [
        {
          "internalType": "uint256",
          "name": "proposalId",
          "type": "uint256"
        }
      ],
      "name": "cancel",
      "outputs": [],
      "stateMutability": "nonpayable",
      "type": "function"
    },
    {
      "inputs": [
        {
          "internalType": "uint256",
          "name": "proposalId",
          "type": "uint256"
        },
        {
          "internalType": "bool",
          "name": "support",
          "type": "bool"
        }
      ],
      "name": "castVote",
      "outputs": [],
      "stateMutability": "nonpayable",
      "type": "function"
    },
    {
      "inputs": [
        {
          "internalType": "uint256",
          "name": "proposalId",
          "type": "uint256"
        },
        {
          "internalType": "bool",
          "name": "support",
          "type": "bool"
        },
        {
          "internalType": "uint8",
          "name": "v",
          "type": "uint8"
        },
        {
          "internalType": "bytes32",
          "name": "r",
          "type": "bytes32"
        },
        {
          "internalType": "bytes32",
          "name": "s",
          "type": "bytes32"
        }
      ],
      "name": "castVoteBySig",
      "outputs": [],
      "stateMutability": "nonpayable",
      "type": "function"
    },
    {
      "inputs": [
        {
          "internalType": "uint256",
          "name": "proposalId",
          "type": "uint256"
        }
      ],
      "name": "execute",
      "outputs": [],
      "stateMutability": "payable",
      "type": "function"
    },
    {
      "inputs": [
        {
          "internalType": "uint256",
          "name": "proposalId",
          "type": "uint256"
        }
      ],
      "name": "getActions",
      "outputs": [
        {
          "internalType": "address[]",
          "name": "targets",
          "type": "address[]"
        },
        {
          "internalType": "uint256[]",
          "name": "values",
          "type": "uint256[]"
        },
        {
          "internalType": "string[]",
          "name": "signatures",
          "type": "string[]"
        },
        {
          "internalType": "bytes[]",
          "name": "calldatas",
          "type": "bytes[]"
        }
      ],
      "stateMutability": "view",
      "type": "function"
    },
    {
      "inputs": [
        {
          "internalType": "uint256",
          "name": "proposalId",
          "type": "uint256"
        },
        {
          "internalType": "address",
          "name": "voter",
          "type": "address"
        }
      ],
      "name": "getReceipt",
      "outputs": [
        {
          "components": [
            {
              "internalType": "bool",
              "name": "hasVoted",
              "type": "bool"
            },
            {
              "internalType": "bool",
              "name": "support",
              "type": "bool"
            },
            {
              "internalType": "uint96",
              "name": "votes",
              "type": "uint96"
            }
          ],
          "internalType": "struct GovernorAlpha.Receipt",
          "name": "",
          "type": "tuple"
        }
      ],
      "stateMutability": "view",
      "type": "function"
    },
    {
      "inputs": [],
      "name": "guardian",
      "outputs": [
        {
          "internalType": "address",
          "name": "",
          "type": "address"
        }
      ],
      "stateMutability": "view",
      "type": "function"
    },
    {
      "inputs": [
        {
          "internalType": "address",
          "name": "",
          "type": "address"
        }
      ],
      "name": "latestProposalIds",
      "outputs": [
        {
          "internalType": "uint256",
          "name": "",
          "type": "uint256"
        }
      ],
      "stateMutability": "view",
      "type": "function"
    },
    {
      "inputs": [],
      "name": "name",
      "outputs": [
        {
          "internalType": "string",
          "name": "",
          "type": "string"
        }
      ],
      "stateMutability": "view",
      "type": "function"
    },
    {
      "inputs": [],
      "name": "proposalCount",
      "outputs": [
        {
          "internalType": "uint256",
          "name": "",
          "type": "uint256"
        }
      ],
      "stateMutability": "view",
      "type": "function"
    },
    {
      "inputs": [],
      "name": "proposalMaxOperations",
      "outputs": [
        {
          "internalType": "uint256",
          "name": "",
          "type": "uint256"
        }
      ],
      "stateMutability": "pure",
      "type": "function"
    },
    {
      "inputs": [],
      "name": "proposalThreshold",
      "outputs": [
        {
          "internalType": "uint256",
          "name": "",
          "type": "uint256"
        }
      ],
      "stateMutability": "pure",
      "type": "function"
    },
    {
      "inputs": [
        {
          "internalType": "uint256",
          "name": "",
          "type": "uint256"
        }
      ],
      "name": "proposals",
      "outputs": [
        {
          "internalType": "uint256",
          "name": "id",
          "type": "uint256"
        },
        {
          "internalType": "address",
          "name": "proposer",
          "type": "address"
        },
        {
          "internalType": "uint256",
          "name": "eta",
          "type": "uint256"
        },
        {
          "internalType": "uint256",
          "name": "startBlock",
          "type": "uint256"
        },
        {
          "internalType": "uint256",
          "name": "endBlock",
          "type": "uint256"
        },
        {
          "internalType": "uint256",
          "name": "forVotes",
          "type": "uint256"
        },
        {
          "internalType": "uint256",
          "name": "againstVotes",
          "type": "uint256"
        },
        {
          "internalType": "bool",
          "name": "canceled",
          "type": "bool"
        },
        {
          "internalType": "bool",
          "name": "executed",
          "type": "bool"
        }
      ],
      "stateMutability": "view",
      "type": "function"
    },
    {
      "inputs": [
        {
          "internalType": "address[]",
          "name": "targets",
          "type": "address[]"
        },
        {
          "internalType": "uint256[]",
          "name": "values",
          "type": "uint256[]"
        },
        {
          "internalType": "string[]",
          "name": "signatures",
          "type": "string[]"
        },
        {
          "internalType": "bytes[]",
          "name": "calldatas",
          "type": "bytes[]"
        },
        {
          "internalType": "string",
          "name": "description",
          "type": "string"
        }
      ],
      "name": "propose",
      "outputs": [
        {
          "internalType": "uint256",
          "name": "",
          "type": "uint256"
        }
      ],
      "stateMutability": "nonpayable",
      "type": "function"
    },
    {
      "inputs": [
        {
          "internalType": "uint256",
          "name": "proposalId",
          "type": "uint256"
        }
      ],
      "name": "queue",
      "outputs": [],
      "stateMutability": "nonpayable",
      "type": "function"
    },
    {
      "inputs": [],
      "name": "quorumVotes",
      "outputs": [
        {
          "internalType": "uint256",
          "name": "",
          "type": "uint256"
        }
      ],
      "stateMutability": "pure",
      "type": "function"
    },
    {
      "inputs": [
        {
          "internalType": "uint256",
          "name": "proposalId",
          "type": "uint256"
        }
      ],
      "name": "state",
      "outputs": [
        {
          "internalType": "enum GovernorAlpha.ProposalState",
          "name": "",
          "type": "uint8"
        }
      ],
      "stateMutability": "view",
      "type": "function"
    },
    {
      "inputs": [],
      "name": "timelock",
      "outputs": [
        {
          "internalType": "contract TimelockInterface",
          "name": "",
          "type": "address"
        }
      ],
      "stateMutability": "view",
      "type": "function"
    },
    {
      "inputs": [],
      "name": "votingDelay",
      "outputs": [
        {
          "internalType": "uint256",
          "name": "",
          "type": "uint256"
        }
      ],
      "stateMutability": "pure",
      "type": "function"
    },
    {
      "inputs": [],
      "name": "votingPeriod",
      "outputs": [
        {
          "internalType": "uint256",
          "name": "",
          "type": "uint256"
        }
      ],
      "stateMutability": "pure",
      "type": "function"
    }
  ],
  "transactionHash": "0xf28c5147badfd27e255b03cf5ddb303e3e1f307b504cdbf9cf8814e07aa3b2a5",
  "args": [
    "0xe65861a4D02952657288d167d9F12e5376EF7CE3",
    "0x915cbBa6b20102bBfc714fDC8d882418573ae25E",
    "0x9403932015576D13Fb26B135ed7a35d5d95C18d4"
  ],
  "solcInputHash": "ada1febcc808662b03fc4e29c5d319e3",
  "bytecode": "0x60806040523480156200001157600080fd5b506040516200524438038062005244833981810160405281019062000037919062000119565b826000806101000a81548173ffffffffffffffffffffffffffffffffffffffff021916908373ffffffffffffffffffffffffffffffffffffffff16021790555081600160006101000a81548173ffffffffffffffffffffffffffffffffffffffff021916908373ffffffffffffffffffffffffffffffffffffffff16021790555080600260006101000a81548173ffffffffffffffffffffffffffffffffffffffff021916908373ffffffffffffffffffffffffffffffffffffffff160217905550505050620001bd565b6000815190506200011381620001a3565b92915050565b6000806000606084860312156200012f57600080fd5b60006200013f8682870162000102565b9350506020620001528682870162000102565b9250506040620001658682870162000102565b9150509250925092565b60006200017c8262000183565b9050919050565b600073ffffffffffffffffffffffffffffffffffffffff82169050919050565b620001ae816200016f565b8114620001ba57600080fd5b50565b61507780620001cd6000396000f3fe60806040526004361061019c5760003560e01c80634634c61f116100ec578063d33219b41161008a578063ddf0b00911610064578063ddf0b009146105b1578063deaaa7cc146105da578063e23a9a5214610605578063fe0d94c1146106425761019c565b8063d33219b41461051e578063da35c66414610549578063da95691a146105745761019c565b80637bdbe4d0116100c65780637bdbe4d01461048857806391500671146104b3578063b58131b0146104dc578063b9a61961146105075761019c565b80634634c61f1461041d57806364c9ec6f14610446578063760fbc13146104715761019c565b806321f43e42116101595780633932abb1116101335780633932abb1146103615780633e4f49e61461038c57806340e58ee5146103c9578063452a9320146103f25761019c565b806321f43e42146102cd57806324bc1a64146102f6578063328dd982146103215761019c565b8063013cf08b146101a157806302a251a3146101e657806306fdde031461021157806315373e3d1461023c57806317977c611461026557806320606b70146102a2575b600080fd5b3480156101ad57600080fd5b506101c860048036038101906101c3919061331b565b61065e565b6040516101dd99989796959493929190614ac1565b60405180910390f35b3480156101f257600080fd5b506101fb6106e6565b60405161020891906149f6565b60405180910390f35b34801561021d57600080fd5b506102266106ef565b6040516102339190614719565b60405180910390f35b34801561024857600080fd5b50610263600480360381019061025e91906133a9565b610728565b005b34801561027157600080fd5b5061028c60048036038101906102879190613134565b610737565b60405161029991906149f6565b60405180910390f35b3480156102ae57600080fd5b506102b761074f565b6040516102c491906145ec565b60405180910390f35b3480156102d957600080fd5b506102f460048036038101906102ef919061315d565b610773565b005b34801561030257600080fd5b5061030b6108fe565b60405161031891906149f6565b60405180910390f35b34801561032d57600080fd5b506103486004803603810190610343919061331b565b610910565b604051610358949392919061458b565b60405180910390f35b34801561036d57600080fd5b50610376610bed565b60405161038391906149f6565b60405180910390f35b34801561039857600080fd5b506103b360048036038101906103ae919061331b565b610bf6565b6040516103c091906146fe565b60405180910390f35b3480156103d557600080fd5b506103f060048036038101906103eb919061331b565b610dd9565b005b3480156103fe57600080fd5b50610407611171565b60405161041491906143b8565b60405180910390f35b34801561042957600080fd5b50610444600480360381019061043f91906133e5565b611197565b005b34801561045257600080fd5b5061045b611380565b60405161046891906146c8565b60405180910390f35b34801561047d57600080fd5b506104866113a6565b005b34801561049457600080fd5b5061049d61147a565b6040516104aa91906149f6565b60405180910390f35b3480156104bf57600080fd5b506104da60048036038101906104d5919061315d565b611483565b005b3480156104e857600080fd5b506104f1611609565b6040516104fe91906149f6565b60405180910390f35b34801561051357600080fd5b5061051c61161b565b005b34801561052a57600080fd5b5061053361172d565b60405161054091906146e3565b60405180910390f35b34801561055557600080fd5b5061055e611751565b60405161056b91906149f6565b60405180910390f35b34801561058057600080fd5b5061059b60048036038101906105969190613199565b611757565b6040516105a891906149f6565b60405180910390f35b3480156105bd57600080fd5b506105d860048036038101906105d3919061331b565b611d24565b005b3480156105e657600080fd5b506105ef61206f565b6040516105fc91906145ec565b60405180910390f35b34801561061157600080fd5b5061062c6004803603810190610627919061336d565b612093565b60405161063991906149db565b60405180910390f35b61065c6004803603810190610657919061331b565b612175565b005b60046020528060005260406000206000915090508060000154908060010160009054906101000a900473ffffffffffffffffffffffffffffffffffffffff169080600201549080600701549080600801549080600901549080600a01549080600b0160009054906101000a900460ff169080600b0160019054906101000a900460ff16905089565b6000600a905090565b6040518060400160405280601781526020017f436f6d706f756e6420476f7665726e6f7220416c70686100000000000000000081525081565b6107333383836123be565b5050565b60056020528060005260406000206000915090505481565b7f8cad95687ba82c2ce50e74f7b754645e5117c3a5bec8151c0726d5857980a86681565b600260009054906101000a900473ffffffffffffffffffffffffffffffffffffffff1673ffffffffffffffffffffffffffffffffffffffff163373ffffffffffffffffffffffffffffffffffffffff1614610803576040517f08c379a00000000000000000000000000000000000000000000000000000000081526004016107fa9061479b565b60405180910390fd5b60008054906101000a900473ffffffffffffffffffffffffffffffffffffffff1673ffffffffffffffffffffffffffffffffffffffff16630825f38f60008054906101000a900473ffffffffffffffffffffffffffffffffffffffff1660008560405160200161087391906143b8565b604051602081830303815290604052856040518563ffffffff1660e01b81526004016108a294939291906143fc565b600060405180830381600087803b1580156108bc57600080fd5b505af11580156108d0573d6000803e3d6000fd5b505050506040513d6000823e3d601f19601f820116820180604052508101906108f991906132da565b505050565b60006954b40b1f852bda000000905090565b606080606080600060046000878152602001908152602001600020905080600301816004018260050183600601838054806020026020016040519081016040528092919081815260200182805480156109be57602002820191906000526020600020905b8160009054906101000a900473ffffffffffffffffffffffffffffffffffffffff1673ffffffffffffffffffffffffffffffffffffffff1681526020019060010190808311610974575b5050505050935082805480602002602001604051908101604052809291908181526020018280548015610a1057602002820191906000526020600020905b8154815260200190600101908083116109fc575b5050505050925081805480602002602001604051908101604052809291908181526020016000905b82821015610af4578382906000526020600020018054600181600116156101000203166002900480601f016020809104026020016040519081016040528092919081815260200182805460018160011615610100020316600290048015610ae05780601f10610ab557610100808354040283529160200191610ae0565b820191906000526020600020905b815481529060010190602001808311610ac357829003601f168201915b505050505081526020019060010190610a38565b50505050915080805480602002602001604051908101604052809291908181526020016000905b82821015610bd7578382906000526020600020018054600181600116156101000203166002900480601f016020809104026020016040519081016040528092919081815260200182805460018160011615610100020316600290048015610bc35780601f10610b9857610100808354040283529160200191610bc3565b820191906000526020600020905b815481529060010190602001808311610ba657829003601f168201915b505050505081526020019060010190610b1b565b5050505090509450945094509450509193509193565b60006001905090565b60008160035410158015610c0a5750600082115b610c49576040517f08c379a0000000000000000000000000000000000000000000000000000000008152600401610c40906147bb565b60405180910390fd5b600060046000848152602001908152602001600020905080600b0160009054906101000a900460ff1615610c81576002915050610dd4565b80600701544311610c96576000915050610dd4565b80600801544311610cab576001915050610dd4565b80600a01548160090154111580610ccc5750610cc56108fe565b8160090154105b15610cdb576003915050610dd4565b600081600201541415610cf2576004915050610dd4565b80600b0160019054906101000a900460ff1615610d13576007915050610dd4565b610dbe816002015460008054906101000a900473ffffffffffffffffffffffffffffffffffffffff1673ffffffffffffffffffffffffffffffffffffffff1663c1a287e26040518163ffffffff1660e01b815260040160206040518083038186803b158015610d8157600080fd5b505afa158015610d95573d6000803e3d6000fd5b505050506040513d601f19601f82011682018060405250810190610db99190613344565b61268d565b4210610dce576006915050610dd4565b60059150505b919050565b6000610de482610bf6565b9050600780811115610df257fe5b816007811115610dfe57fe5b1415610e3f576040517f08c379a0000000000000000000000000000000000000000000000000000000008152600401610e369061495b565b60405180910390fd5b6000600460008481526020019081526020016000209050600260009054906101000a900473ffffffffffffffffffffffffffffffffffffffff1673ffffffffffffffffffffffffffffffffffffffff163373ffffffffffffffffffffffffffffffffffffffff161480610fa05750610eb5611609565b600160009054906101000a900473ffffffffffffffffffffffffffffffffffffffff1673ffffffffffffffffffffffffffffffffffffffff1663782d6fe18360010160009054906101000a900473ffffffffffffffffffffffffffffffffffffffff16610f234360016126e2565b6040518363ffffffff1660e01b8152600401610f4092919061445b565b60206040518083038186803b158015610f5857600080fd5b505afa158015610f6c573d6000803e3d6000fd5b505050506040513d601f19601f82011682018060405250810190610f90919061345c565b6bffffffffffffffffffffffff16105b610fdf576040517f08c379a0000000000000000000000000000000000000000000000000000000008152600401610fd69061489b565b60405180910390fd5b600181600b0160006101000a81548160ff02191690831515021790555060005b81600301805490508110156111345760008054906101000a900473ffffffffffffffffffffffffffffffffffffffff1673ffffffffffffffffffffffffffffffffffffffff1663591fcdfe83600301838154811061105957fe5b9060005260206000200160009054906101000a900473ffffffffffffffffffffffffffffffffffffffff1684600401848154811061109357fe5b90600052602060002001548560050185815481106110ad57fe5b906000526020600020018660060186815481106110c657fe5b9060005260206000200187600201546040518663ffffffff1660e01b81526004016110f595949392919061452a565b600060405180830381600087803b15801561110f57600080fd5b505af1158015611123573d6000803e3d6000fd5b505050508080600101915050610fff565b507f789cf55be980739dad1d0699b93b58e806b51c9d96619bfa8fe0a28abaa7b30c8360405161116491906149f6565b60405180910390a1505050565b600260009054906101000a900473ffffffffffffffffffffffffffffffffffffffff1681565b60007f8cad95687ba82c2ce50e74f7b754645e5117c3a5bec8151c0726d5857980a8666040518060400160405280601781526020017f436f6d706f756e6420476f7665726e6f7220416c706861000000000000000000815250805190602001206111ff612732565b306040516020016112139493929190614607565b60405160208183030381529060405280519060200120905060007f8e25870c07e0b0b3884c78da52790939a455c275406c44ae8b434b692fb916ee87876040516020016112629392919061464c565b6040516020818303038152906040528051906020012090506000828260405160200161128f929190614381565b6040516020818303038152906040528051906020012090506000600182888888604051600081526020016040526040516112cc9493929190614683565b6020604051602081039080840390855afa1580156112ee573d6000803e3d6000fd5b505050602060405103519050600073ffffffffffffffffffffffffffffffffffffffff168173ffffffffffffffffffffffffffffffffffffffff16141561136a576040517f08c379a00000000000000000000000000000000000000000000000000000000081526004016113619061491b565b60405180910390fd5b611375818a8a6123be565b505050505050505050565b600160009054906101000a900473ffffffffffffffffffffffffffffffffffffffff1681565b600260009054906101000a900473ffffffffffffffffffffffffffffffffffffffff1673ffffffffffffffffffffffffffffffffffffffff163373ffffffffffffffffffffffffffffffffffffffff1614611436576040517f08c379a000000000000000000000000000000000000000000000000000000000815260040161142d906149bb565b60405180910390fd5b6000600260006101000a81548173ffffffffffffffffffffffffffffffffffffffff021916908373ffffffffffffffffffffffffffffffffffffffff160217905550565b6000600a905090565b600260009054906101000a900473ffffffffffffffffffffffffffffffffffffffff1673ffffffffffffffffffffffffffffffffffffffff163373ffffffffffffffffffffffffffffffffffffffff1614611513576040517f08c379a000000000000000000000000000000000000000000000000000000000815260040161150a9061481b565b60405180910390fd5b60008054906101000a900473ffffffffffffffffffffffffffffffffffffffff1673ffffffffffffffffffffffffffffffffffffffff16633a66f90160008054906101000a900473ffffffffffffffffffffffffffffffffffffffff1660008560405160200161158391906143b8565b604051602081830303815290604052856040518563ffffffff1660e01b81526004016115b294939291906143fc565b602060405180830381600087803b1580156115cc57600080fd5b505af11580156115e0573d6000803e3d6000fd5b505050506040513d601f19601f8201168201806040525081019061160491906132b1565b505050565b600069152d02c7e14af6800000905090565b600260009054906101000a900473ffffffffffffffffffffffffffffffffffffffff1673ffffffffffffffffffffffffffffffffffffffff163373ffffffffffffffffffffffffffffffffffffffff16146116ab576040517f08c379a00000000000000000000000000000000000000000000000000000000081526004016116a29061473b565b60405180910390fd5b60008054906101000a900473ffffffffffffffffffffffffffffffffffffffff1673ffffffffffffffffffffffffffffffffffffffff16630e18b6816040518163ffffffff1660e01b8152600401600060405180830381600087803b15801561171357600080fd5b505af1158015611727573d6000803e3d6000fd5b50505050565b60008054906101000a900473ffffffffffffffffffffffffffffffffffffffff1681565b60035481565b6000611761611609565b600160009054906101000a900473ffffffffffffffffffffffffffffffffffffffff1673ffffffffffffffffffffffffffffffffffffffff1663782d6fe1336117ab4360016126e2565b6040518363ffffffff1660e01b81526004016117c89291906143d3565b60206040518083038186803b1580156117e057600080fd5b505afa1580156117f4573d6000803e3d6000fd5b505050506040513d601f19601f82011682018060405250810190611818919061345c565b6bffffffffffffffffffffffff1611611866576040517f08c379a000000000000000000000000000000000000000000000000000000000815260040161185d906148fb565b60405180910390fd5b84518651148015611878575083518651145b8015611885575082518651145b6118c4576040517f08c379a00000000000000000000000000000000000000000000000000000000081526004016118bb9061487b565b60405180910390fd5b600086511415611909576040517f08c379a0000000000000000000000000000000000000000000000000000000008152600401611900906148db565b60405180910390fd5b61191161147a565b86511115611954576040517f08c379a000000000000000000000000000000000000000000000000000000000815260040161194b9061483b565b60405180910390fd5b6000600560003373ffffffffffffffffffffffffffffffffffffffff1673ffffffffffffffffffffffffffffffffffffffff16815260200190815260200160002054905060008114611a635760006119ab82610bf6565b9050600160078111156119ba57fe5b8160078111156119c657fe5b1415611a07576040517f08c379a00000000000000000000000000000000000000000000000000000000081526004016119fe9061493b565b60405180910390fd5b60006007811115611a1457fe5b816007811115611a2057fe5b1415611a61576040517f08c379a0000000000000000000000000000000000000000000000000000000008152600401611a58906147fb565b60405180910390fd5b505b6000611a7643611a71610bed565b61268d565b90506000611a8b82611a866106e6565b61268d565b9050600360008154809291906001019190505550611aa7612911565b604051806101a0016040528060035481526020013373ffffffffffffffffffffffffffffffffffffffff168152602001600081526020018b81526020018a815260200189815260200188815260200184815260200183815260200160008152602001600081526020016000151581526020016000151581525090508060046000836000015181526020019081526020016000206000820151816000015560208201518160010160006101000a81548173ffffffffffffffffffffffffffffffffffffffff021916908373ffffffffffffffffffffffffffffffffffffffff160217905550604082015181600201556060820151816003019080519060200190611bb1929190612993565b506080820151816004019080519060200190611bce929190612a1d565b5060a0820151816005019080519060200190611beb929190612a6a565b5060c0820151816006019080519060200190611c08929190612aca565b5060e082015181600701556101008201518160080155610120820151816009015561014082015181600a015561016082015181600b0160006101000a81548160ff02191690831515021790555061018082015181600b0160016101000a81548160ff021916908315150217905550905050806000015160056000836020015173ffffffffffffffffffffffffffffffffffffffff1673ffffffffffffffffffffffffffffffffffffffff168152602001908152602001600020819055507f7d84a6263ae0d98d3329bd7b46bb4e8d6f98cd35a7adb45c274c8b7fd5ebd5e08160000151338c8c8c8c89898e604051611d0899989796959493929190614a11565b60405180910390a1806000015194505050505095945050505050565b60046007811115611d3157fe5b611d3a82610bf6565b6007811115611d4557fe5b14611d85576040517f08c379a0000000000000000000000000000000000000000000000000000000008152600401611d7c9061475b565b60405180910390fd5b60006004600083815260200190815260200160002090506000611e454260008054906101000a900473ffffffffffffffffffffffffffffffffffffffff1673ffffffffffffffffffffffffffffffffffffffff16636a42b8f86040518163ffffffff1660e01b815260040160206040518083038186803b158015611e0857600080fd5b505afa158015611e1c573d6000803e3d6000fd5b505050506040513d601f19601f82011682018060405250810190611e409190613344565b61268d565b905060005b82600301805490508110156120275761201a836003018281548110611e6b57fe5b9060005260206000200160009054906101000a900473ffffffffffffffffffffffffffffffffffffffff16846004018381548110611ea557fe5b9060005260206000200154856005018481548110611ebf57fe5b906000526020600020018054600181600116156101000203166002900480601f016020809104026020016040519081016040528092919081815260200182805460018160011615610100020316600290048015611f5d5780601f10611f3257610100808354040283529160200191611f5d565b820191906000526020600020905b815481529060010190602001808311611f4057829003601f168201915b5050505050866006018581548110611f7157fe5b906000526020600020018054600181600116156101000203166002900480601f01602080910402602001604051908101604052809291908181526020018280546001816001161561010002031660029004801561200f5780601f10611fe45761010080835404028352916020019161200f565b820191906000526020600020905b815481529060010190602001808311611ff257829003601f168201915b50505050508661273f565b8080600101915050611e4a565b508082600201819055507f9a2e42fd6722813d69113e7d0079d3d940171428df7373df9c7f7617cfda28928382604051612062929190614b4e565b60405180910390a1505050565b7f8e25870c07e0b0b3884c78da52790939a455c275406c44ae8b434b692fb916ee81565b61209b612b2a565b60046000848152602001908152602001600020600c0160008373ffffffffffffffffffffffffffffffffffffffff1673ffffffffffffffffffffffffffffffffffffffff1681526020019081526020016000206040518060600160405290816000820160009054906101000a900460ff161515151581526020016000820160019054906101000a900460ff161515151581526020016000820160029054906101000a90046bffffffffffffffffffffffff166bffffffffffffffffffffffff166bffffffffffffffffffffffff1681525050905092915050565b6005600781111561218257fe5b61218b82610bf6565b600781111561219657fe5b146121d6576040517f08c379a00000000000000000000000000000000000000000000000000000000081526004016121cd9061477b565b60405180910390fd5b6000600460008381526020019081526020016000209050600181600b0160016101000a81548160ff02191690831515021790555060005b81600301805490508110156123825760008054906101000a900473ffffffffffffffffffffffffffffffffffffffff1673ffffffffffffffffffffffffffffffffffffffff16630825f38f83600401838154811061226757fe5b906000526020600020015484600301848154811061228157fe5b9060005260206000200160009054906101000a900473ffffffffffffffffffffffffffffffffffffffff168560040185815481106122bb57fe5b90600052602060002001548660050186815481106122d557fe5b906000526020600020018760060187815481106122ee57fe5b9060005260206000200188600201546040518763ffffffff1660e01b815260040161231d95949392919061452a565b6000604051808303818588803b15801561233657600080fd5b505af115801561234a573d6000803e3d6000fd5b50505050506040513d6000823e3d601f19601f8201168201806040525081019061237491906132da565b50808060010191505061220d565b507f712ae1383f79ac853f8d882153778e0260ef8f03b504e2866e0593e04d2b291f826040516123b291906149f6565b60405180910390a15050565b600160078111156123cb57fe5b6123d483610bf6565b60078111156123df57fe5b1461241f576040517f08c379a00000000000000000000000000000000000000000000000000000000081526004016124169061497b565b60405180910390fd5b6000600460008481526020019081526020016000209050600081600c0160008673ffffffffffffffffffffffffffffffffffffffff1673ffffffffffffffffffffffffffffffffffffffff1681526020019081526020016000209050600015158160000160009054906101000a900460ff161515146124d3576040517f08c379a00000000000000000000000000000000000000000000000000000000081526004016124ca906147db565b60405180910390fd5b6000600160009054906101000a900473ffffffffffffffffffffffffffffffffffffffff1673ffffffffffffffffffffffffffffffffffffffff1663782d6fe18785600701546040518363ffffffff1660e01b815260040161253692919061445b565b60206040518083038186803b15801561254e57600080fd5b505afa158015612562573d6000803e3d6000fd5b505050506040513d601f19601f82011682018060405250810190612586919061345c565b905083156125b7576125aa8360090154826bffffffffffffffffffffffff1661268d565b83600901819055506125dc565b6125d383600a0154826bffffffffffffffffffffffff1661268d565b83600a01819055505b60018260000160006101000a81548160ff021916908315150217905550838260000160016101000a81548160ff021916908315150217905550808260000160026101000a8154816bffffffffffffffffffffffff02191690836bffffffffffffffffffffffff1602179055507f877856338e13f63d0c36822ff0ef736b80934cd90574a3a5bc9262c39d217c468686868460405161267d9493929190614484565b60405180910390a1505050505050565b6000808284019050838110156126d8576040517f08c379a00000000000000000000000000000000000000000000000000000000081526004016126cf9061485b565b60405180910390fd5b8091505092915050565b600082821115612727576040517f08c379a000000000000000000000000000000000000000000000000000000000815260040161271e9061499b565b60405180910390fd5b818303905092915050565b6000804690508091505090565b60008054906101000a900473ffffffffffffffffffffffffffffffffffffffff1673ffffffffffffffffffffffffffffffffffffffff1663f2b0653786868686866040516020016127949594939291906144c9565b604051602081830303815290604052805190602001206040518263ffffffff1660e01b81526004016127c691906145ec565b60206040518083038186803b1580156127de57600080fd5b505afa1580156127f2573d6000803e3d6000fd5b505050506040513d601f19601f820116820180604052508101906128169190613288565b15612856576040517f08c379a000000000000000000000000000000000000000000000000000000000815260040161284d906148bb565b60405180910390fd5b60008054906101000a900473ffffffffffffffffffffffffffffffffffffffff1673ffffffffffffffffffffffffffffffffffffffff16633a66f90186868686866040518663ffffffff1660e01b81526004016128b79594939291906144c9565b602060405180830381600087803b1580156128d157600080fd5b505af11580156128e5573d6000803e3d6000fd5b505050506040513d601f19601f8201168201806040525081019061290991906132b1565b505050505050565b604051806101a0016040528060008152602001600073ffffffffffffffffffffffffffffffffffffffff1681526020016000815260200160608152602001606081526020016060815260200160608152602001600081526020016000815260200160008152602001600081526020016000151581526020016000151581525090565b828054828255906000526020600020908101928215612a0c579160200282015b82811115612a0b5782518260006101000a81548173ffffffffffffffffffffffffffffffffffffffff021916908373ffffffffffffffffffffffffffffffffffffffff160217905550916020019190600101906129b3565b5b509050612a199190612b5d565b5090565b828054828255906000526020600020908101928215612a59579160200282015b82811115612a58578251825591602001919060010190612a3d565b5b509050612a669190612b98565b5090565b828054828255906000526020600020908101928215612ab9579160200282015b82811115612ab8578251829080519060200190612aa8929190612bb5565b5091602001919060010190612a8a565b5b509050612ac69190612c35565b5090565b828054828255906000526020600020908101928215612b19579160200282015b82811115612b18578251829080519060200190612b08929190612c59565b5091602001919060010190612aea565b5b509050612b269190612cd9565b5090565b604051806060016040528060001515815260200160001515815260200160006bffffffffffffffffffffffff1681525090565b5b80821115612b9457600081816101000a81549073ffffffffffffffffffffffffffffffffffffffff021916905550600101612b5e565b5090565b5b80821115612bb1576000816000905550600101612b99565b5090565b828054600181600116156101000203166002900490600052602060002090601f016020900481019282601f10612bf657805160ff1916838001178555612c24565b82800160010185558215612c24579182015b82811115612c23578251825591602001919060010190612c08565b5b509050612c319190612b98565b5090565b5b80821115612c555760008181612c4c9190612cfd565b50600101612c36565b5090565b828054600181600116156101000203166002900490600052602060002090601f016020900481019282601f10612c9a57805160ff1916838001178555612cc8565b82800160010185558215612cc8579182015b82811115612cc7578251825591602001919060010190612cac565b5b509050612cd59190612b98565b5090565b5b80821115612cf95760008181612cf09190612d45565b50600101612cda565b5090565b50805460018160011615610100020316600290046000825580601f10612d235750612d42565b601f016020900490600052602060002090810190612d419190612b98565b5b50565b50805460018160011615610100020316600290046000825580601f10612d6b5750612d8a565b601f016020900490600052602060002090810190612d899190612b98565b5b50565b600081359050612d9c81614fb7565b92915050565b600082601f830112612db357600080fd5b8135612dc6612dc182614ba4565b614b77565b91508181835260208401935060208101905083856020840282011115612deb57600080fd5b60005b83811015612e1b5781612e018882612d8d565b845260208401935060208301925050600181019050612dee565b5050505092915050565b600082601f830112612e3657600080fd5b8135612e49612e4482614bcc565b614b77565b9150818183526020840193506020810190508360005b83811015612e8f5781358601612e758882612fe4565b845260208401935060208301925050600181019050612e5f565b5050505092915050565b600082601f830112612eaa57600080fd5b8135612ebd612eb882614bf4565b614b77565b9150818183526020840193506020810190508360005b83811015612f035781358601612ee9888261308c565b845260208401935060208301925050600181019050612ed3565b5050505092915050565b600082601f830112612f1e57600080fd5b8135612f31612f2c82614c1c565b614b77565b91508181835260208401935060208101905083856020840282011115612f5657600080fd5b60005b83811015612f865781612f6c88826130e0565b845260208401935060208301925050600181019050612f59565b5050505092915050565b600081359050612f9f81614fce565b92915050565b600081519050612fb481614fce565b92915050565b600081359050612fc981614fe5565b92915050565b600081519050612fde81614fe5565b92915050565b600082601f830112612ff557600080fd5b813561300861300382614c44565b614b77565b9150808252602083016020830185838301111561302457600080fd5b61302f838284614f4d565b50505092915050565b600082601f83011261304957600080fd5b815161305c61305782614c44565b614b77565b9150808252602083016020830185838301111561307857600080fd5b613083838284614f5c565b50505092915050565b600082601f83011261309d57600080fd5b81356130b06130ab82614c70565b614b77565b915080825260208301602083018583830111156130cc57600080fd5b6130d7838284614f4d565b50505092915050565b6000813590506130ef81614ffc565b92915050565b60008151905061310481614ffc565b92915050565b60008135905061311981615013565b92915050565b60008151905061312e8161502a565b92915050565b60006020828403121561314657600080fd5b600061315484828501612d8d565b91505092915050565b6000806040838503121561317057600080fd5b600061317e85828601612d8d565b925050602061318f858286016130e0565b9150509250929050565b600080600080600060a086880312156131b157600080fd5b600086013567ffffffffffffffff8111156131cb57600080fd5b6131d788828901612da2565b955050602086013567ffffffffffffffff8111156131f457600080fd5b61320088828901612f0d565b945050604086013567ffffffffffffffff81111561321d57600080fd5b61322988828901612e99565b935050606086013567ffffffffffffffff81111561324657600080fd5b61325288828901612e25565b925050608086013567ffffffffffffffff81111561326f57600080fd5b61327b8882890161308c565b9150509295509295909350565b60006020828403121561329a57600080fd5b60006132a884828501612fa5565b91505092915050565b6000602082840312156132c357600080fd5b60006132d184828501612fcf565b91505092915050565b6000602082840312156132ec57600080fd5b600082015167ffffffffffffffff81111561330657600080fd5b61331284828501613038565b91505092915050565b60006020828403121561332d57600080fd5b600061333b848285016130e0565b91505092915050565b60006020828403121561335657600080fd5b6000613364848285016130f5565b91505092915050565b6000806040838503121561338057600080fd5b600061338e858286016130e0565b925050602061339f85828601612d8d565b9150509250929050565b600080604083850312156133bc57600080fd5b60006133ca858286016130e0565b92505060206133db85828601612f90565b9150509250929050565b600080600080600060a086880312156133fd57600080fd5b600061340b888289016130e0565b955050602061341c88828901612f90565b945050604061342d8882890161310a565b935050606061343e88828901612fba565b925050608061344f88828901612fba565b9150509295509295909350565b60006020828403121561346e57600080fd5b600061347c8482850161311f565b91505092915050565b600061349183836134ec565b60208301905092915050565b60006134a983836136f4565b905092915050565b60006134bd8383613831565b905092915050565b60006134d18383614336565b60208301905092915050565b6134e681614e99565b82525050565b6134f581614e0f565b82525050565b61350481614e0f565b82525050565b600061351582614d06565b61351f8185614d7c565b935061352a83614c9c565b8060005b8381101561355b5781516135428882613485565b975061354d83614d48565b92505060018101905061352e565b5085935050505092915050565b600061357382614d11565b61357d8185614d8d565b93508360208202850161358f85614cac565b8060005b858110156135cb57848403895281516135ac858261349d565b94506135b783614d55565b925060208a01995050600181019050613593565b50829750879550505050505092915050565b60006135e882614d1c565b6135f28185614d9e565b93508360208202850161360485614cbc565b8060005b85811015613640578484038952815161362185826134b1565b945061362c83614d62565b925060208a01995050600181019050613608565b50829750879550505050505092915050565b600061365d82614d27565b6136678185614daf565b935061367283614ccc565b8060005b838110156136a357815161368a88826134c5565b975061369583614d6f565b925050600181019050613676565b5085935050505092915050565b6136b981614e21565b82525050565b6136c881614e21565b82525050565b6136d781614e2d565b82525050565b6136ee6136e982614e2d565b614f8f565b82525050565b60006136ff82614d32565b6137098185614dc0565b9350613719818560208601614f5c565b61372281614f99565b840191505092915050565b600061373882614d32565b6137428185614dd1565b9350613752818560208601614f5c565b61375b81614f99565b840191505092915050565b60008154600181166000811461378357600181146137a9576137ed565b607f60028304166137948187614dd1565b955060ff1983168652602086019350506137ed565b600282046137b78187614dd1565b95506137c285614cdc565b60005b828110156137e4578154818901526001820191506020810190506137c5565b80880195505050505b505092915050565b6137fe81614eab565b82525050565b61380d81614ecf565b82525050565b61381c81614ef3565b82525050565b61382b81614f05565b82525050565b600061383c82614d3d565b6138468185614de2565b9350613856818560208601614f5c565b61385f81614f99565b840191505092915050565b600061387582614d3d565b61387f8185614df3565b935061388f818560208601614f5c565b61389881614f99565b840191505092915050565b6000815460018116600081146138c057600181146138e65761392a565b607f60028304166138d18187614df3565b955060ff19831686526020860193505061392a565b600282046138f48187614df3565b95506138ff85614cf1565b60005b8281101561392157815481890152600182019150602081019050613902565b80880195505050505b505092915050565b600061393f603983614df3565b91507f476f7665726e6f72416c7068613a3a5f5f61636365707441646d696e3a20736560008301527f6e646572206d75737420626520676f7620677561726469616e000000000000006020830152604082019050919050565b60006139a5604483614df3565b91507f476f7665726e6f72416c7068613a3a71756575653a2070726f706f73616c206360008301527f616e206f6e6c792062652071756575656420696620697420697320737563636560208301527f65646564000000000000000000000000000000000000000000000000000000006040830152606082019050919050565b6000613a31604583614df3565b91507f476f7665726e6f72416c7068613a3a657865637574653a2070726f706f73616c60008301527f2063616e206f6e6c79206265206578656375746564206966206974206973207160208301527f75657565640000000000000000000000000000000000000000000000000000006040830152606082019050919050565b6000613abd600283614e04565b91507f19010000000000000000000000000000000000000000000000000000000000006000830152600282019050919050565b6000613afd604c83614df3565b91507f476f7665726e6f72416c7068613a3a5f5f6578656375746553657454696d656c60008301527f6f636b50656e64696e6741646d696e3a2073656e646572206d7573742062652060208301527f676f7620677561726469616e00000000000000000000000000000000000000006040830152606082019050919050565b6000613b89601883614df3565b91507f73657450656e64696e6741646d696e28616464726573732900000000000000006000830152602082019050919050565b6000613bc9602983614df3565b91507f476f7665726e6f72416c7068613a3a73746174653a20696e76616c696420707260008301527f6f706f73616c20696400000000000000000000000000000000000000000000006020830152604082019050919050565b6000613c2f602d83614df3565b91507f476f7665726e6f72416c7068613a3a5f63617374566f74653a20766f7465722060008301527f616c726561647920766f746564000000000000000000000000000000000000006020830152604082019050919050565b6000613c95605983614df3565b91507f476f7665726e6f72416c7068613a3a70726f706f73653a206f6e65206c69766560008301527f2070726f706f73616c207065722070726f706f7365722c20666f756e6420616e60208301527f20616c72656164792070656e64696e672070726f706f73616c000000000000006040830152606082019050919050565b6000613d21604a83614df3565b91507f476f7665726e6f72416c7068613a3a5f5f717565756553657454696d656c6f6360008301527f6b50656e64696e6741646d696e3a2073656e646572206d75737420626520676f60208301527f7620677561726469616e000000000000000000000000000000000000000000006040830152606082019050919050565b6000613dad602883614df3565b91507f476f7665726e6f72416c7068613a3a70726f706f73653a20746f6f206d616e7960008301527f20616374696f6e730000000000000000000000000000000000000000000000006020830152604082019050919050565b6000613e13601183614df3565b91507f6164646974696f6e206f766572666c6f770000000000000000000000000000006000830152602082019050919050565b6000613e53604483614df3565b91507f476f7665726e6f72416c7068613a3a70726f706f73653a2070726f706f73616c60008301527f2066756e6374696f6e20696e666f726d6174696f6e206172697479206d69736d60208301527f61746368000000000000000000000000000000000000000000000000000000006040830152606082019050919050565b6000613edf602f83614df3565b91507f476f7665726e6f72416c7068613a3a63616e63656c3a2070726f706f7365722060008301527f61626f7665207468726573686f6c6400000000000000000000000000000000006020830152604082019050919050565b6000613f45604483614df3565b91507f476f7665726e6f72416c7068613a3a5f71756575654f725265766572743a207060008301527f726f706f73616c20616374696f6e20616c72656164792071756575656420617460208301527f20657461000000000000000000000000000000000000000000000000000000006040830152606082019050919050565b6000613fd1602c83614df3565b91507f476f7665726e6f72416c7068613a3a70726f706f73653a206d7573742070726f60008301527f7669646520616374696f6e7300000000000000000000000000000000000000006020830152604082019050919050565b6000614037603f83614df3565b91507f476f7665726e6f72416c7068613a3a70726f706f73653a2070726f706f73657260008301527f20766f7465732062656c6f772070726f706f73616c207468726573686f6c64006020830152604082019050919050565b600061409d602f83614df3565b91507f476f7665726e6f72416c7068613a3a63617374566f746542795369673a20696e60008301527f76616c6964207369676e617475726500000000000000000000000000000000006020830152604082019050919050565b6000614103605883614df3565b91507f476f7665726e6f72416c7068613a3a70726f706f73653a206f6e65206c69766560008301527f2070726f706f73616c207065722070726f706f7365722c20666f756e6420616e60208301527f20616c7265616479206163746976652070726f706f73616c00000000000000006040830152606082019050919050565b600061418f603683614df3565b91507f476f7665726e6f72416c7068613a3a63616e63656c3a2063616e6e6f7420636160008301527f6e63656c2065786563757465642070726f706f73616c000000000000000000006020830152604082019050919050565b60006141f5602a83614df3565b91507f476f7665726e6f72416c7068613a3a5f63617374566f74653a20766f74696e6760008301527f20697320636c6f736564000000000000000000000000000000000000000000006020830152604082019050919050565b600061425b601583614df3565b91507f7375627472616374696f6e20756e646572666c6f7700000000000000000000006000830152602082019050919050565b600061429b603683614df3565b91507f476f7665726e6f72416c7068613a3a5f5f61626469636174653a2073656e646560008301527f72206d75737420626520676f7620677561726469616e000000000000000000006020830152604082019050919050565b60608201600082015161430a60008501826136b0565b50602082015161431d60208501826136b0565b5060408201516143306040850182614372565b50505050565b61433f81614e6a565b82525050565b61434e81614e6a565b82525050565b61435d81614e74565b82525050565b61436c81614f3b565b82525050565b61437b81614e81565b82525050565b600061438c82613ab0565b915061439882856136dd565b6020820191506143a882846136dd565b6020820191508190509392505050565b60006020820190506143cd60008301846134fb565b92915050565b60006040820190506143e860008301856134dd565b6143f56020830184614345565b9392505050565b600060a08201905061441160008301876134fb565b61441e6020830186613822565b818103604083015261442f81613b7c565b90508181036060830152614443818561372d565b90506144526080830184614345565b95945050505050565b600060408201905061447060008301856134fb565b61447d6020830184614345565b9392505050565b600060808201905061449960008301876134fb565b6144a66020830186614345565b6144b360408301856136bf565b6144c06060830184614363565b95945050505050565b600060a0820190506144de60008301886134fb565b6144eb6020830187614345565b81810360408301526144fd818661386a565b90508181036060830152614511818561372d565b90506145206080830184614345565b9695505050505050565b600060a08201905061453f60008301886134fb565b61454c6020830187614345565b818103604083015261455e81866138a3565b905081810360608301526145728185613766565b90506145816080830184614345565b9695505050505050565b600060808201905081810360008301526145a5818761350a565b905081810360208301526145b98186613652565b905081810360408301526145cd81856135dd565b905081810360608301526145e18184613568565b905095945050505050565b600060208201905061460160008301846136ce565b92915050565b600060808201905061461c60008301876136ce565b61462960208301866136ce565b6146366040830185614345565b61464360608301846134fb565b95945050505050565b600060608201905061466160008301866136ce565b61466e6020830185614345565b61467b60408301846136bf565b949350505050565b600060808201905061469860008301876136ce565b6146a56020830186614354565b6146b260408301856136ce565b6146bf60608301846136ce565b95945050505050565b60006020820190506146dd60008301846137f5565b92915050565b60006020820190506146f86000830184613804565b92915050565b60006020820190506147136000830184613813565b92915050565b60006020820190508181036000830152614733818461386a565b905092915050565b6000602082019050818103600083015261475481613932565b9050919050565b6000602082019050818103600083015261477481613998565b9050919050565b6000602082019050818103600083015261479481613a24565b9050919050565b600060208201905081810360008301526147b481613af0565b9050919050565b600060208201905081810360008301526147d481613bbc565b9050919050565b600060208201905081810360008301526147f481613c22565b9050919050565b6000602082019050818103600083015261481481613c88565b9050919050565b6000602082019050818103600083015261483481613d14565b9050919050565b6000602082019050818103600083015261485481613da0565b9050919050565b6000602082019050818103600083015261487481613e06565b9050919050565b6000602082019050818103600083015261489481613e46565b9050919050565b600060208201905081810360008301526148b481613ed2565b9050919050565b600060208201905081810360008301526148d481613f38565b9050919050565b600060208201905081810360008301526148f481613fc4565b9050919050565b600060208201905081810360008301526149148161402a565b9050919050565b6000602082019050818103600083015261493481614090565b9050919050565b60006020820190508181036000830152614954816140f6565b9050919050565b6000602082019050818103600083015261497481614182565b9050919050565b60006020820190508181036000830152614994816141e8565b9050919050565b600060208201905081810360008301526149b48161424e565b9050919050565b600060208201905081810360008301526149d48161428e565b9050919050565b60006060820190506149f060008301846142f4565b92915050565b6000602082019050614a0b6000830184614345565b92915050565b600061012082019050614a27600083018c614345565b614a34602083018b6134dd565b8181036040830152614a46818a61350a565b90508181036060830152614a5a8189613652565b90508181036080830152614a6e81886135dd565b905081810360a0830152614a828187613568565b9050614a9160c0830186614345565b614a9e60e0830185614345565b818103610100830152614ab1818461386a565b90509a9950505050505050505050565b600061012082019050614ad7600083018c614345565b614ae4602083018b6134fb565b614af1604083018a614345565b614afe6060830189614345565b614b0b6080830188614345565b614b1860a0830187614345565b614b2560c0830186614345565b614b3260e08301856136bf565b614b406101008301846136bf565b9a9950505050505050505050565b6000604082019050614b636000830185614345565b614b706020830184614345565b9392505050565b6000604051905081810181811067ffffffffffffffff82111715614b9a57600080fd5b8060405250919050565b600067ffffffffffffffff821115614bbb57600080fd5b602082029050602081019050919050565b600067ffffffffffffffff821115614be357600080fd5b602082029050602081019050919050565b600067ffffffffffffffff821115614c0b57600080fd5b602082029050602081019050919050565b600067ffffffffffffffff821115614c3357600080fd5b602082029050602081019050919050565b600067ffffffffffffffff821115614c5b57600080fd5b601f19601f8301169050602081019050919050565b600067ffffffffffffffff821115614c8757600080fd5b601f19601f8301169050602081019050919050565b6000819050602082019050919050565b6000819050602082019050919050565b6000819050602082019050919050565b6000819050602082019050919050565b60008190508160005260206000209050919050565b60008190508160005260206000209050919050565b600081519050919050565b600081519050919050565b600081519050919050565b600081519050919050565b600081519050919050565b600081519050919050565b6000602082019050919050565b6000602082019050919050565b6000602082019050919050565b6000602082019050919050565b600082825260208201905092915050565b600082825260208201905092915050565b600082825260208201905092915050565b600082825260208201905092915050565b600082825260208201905092915050565b600082825260208201905092915050565b600082825260208201905092915050565b600082825260208201905092915050565b600081905092915050565b6000614e1a82614e4a565b9050919050565b60008115159050919050565b6000819050919050565b6000819050614e4582614faa565b919050565b600073ffffffffffffffffffffffffffffffffffffffff82169050919050565b6000819050919050565b600060ff82169050919050565b60006bffffffffffffffffffffffff82169050919050565b6000614ea482614f17565b9050919050565b6000614eb682614ebd565b9050919050565b6000614ec882614e4a565b9050919050565b6000614eda82614ee1565b9050919050565b6000614eec82614e4a565b9050919050565b6000614efe82614e37565b9050919050565b6000614f1082614e6a565b9050919050565b6000614f2282614f29565b9050919050565b6000614f3482614e4a565b9050919050565b6000614f4682614e81565b9050919050565b82818337600083830152505050565b60005b83811015614f7a578082015181840152602081019050614f5f565b83811115614f89576000848401525b50505050565b6000819050919050565b6000601f19601f8301169050919050565b60088110614fb457fe5b50565b614fc081614e0f565b8114614fcb57600080fd5b50565b614fd781614e21565b8114614fe257600080fd5b50565b614fee81614e2d565b8114614ff957600080fd5b50565b61500581614e6a565b811461501057600080fd5b50565b61501c81614e74565b811461502757600080fd5b50565b61503381614e81565b811461503e57600080fd5b5056fea2646970667358221220a2e90148689fcc0dbb82550edfe6606692510b35396d02aafa767c99377ae8d264736f6c634300060c0033",
  "devdoc": {
    "kind": "dev",
    "methods": {},
    "version": 1
  },
  "userdoc": {
    "events": {
      "ProposalCanceled(uint256)": {
        "notice": "An event emitted when a proposal has been canceled"
      },
      "ProposalCreated(uint256,address,address[],uint256[],string[],bytes[],uint256,uint256,string)": {
        "notice": "An event emitted when a new proposal is created"
      },
      "ProposalExecuted(uint256)": {
        "notice": "An event emitted when a proposal has been executed in the Timelock"
      },
      "ProposalQueued(uint256,uint256)": {
        "notice": "An event emitted when a proposal has been queued in the Timelock"
      },
      "VoteCast(address,uint256,bool,uint256)": {
        "notice": "An event emitted when a vote has been cast on a proposal"
      }
    },
    "kind": "user",
    "methods": {
      "BALLOT_TYPEHASH()": {
        "notice": "The EIP-712 typehash for the ballot struct used by the contract"
      },
      "DOMAIN_TYPEHASH()": {
        "notice": "The EIP-712 typehash for the contract's domain"
      },
      "bond()": {
        "notice": "The address of the Compound governance token"
      },
      "guardian()": {
        "notice": "The address of the Governor Guardian"
      },
      "latestProposalIds(address)": {
        "notice": "The latest proposal for each proposer"
      },
      "name()": {
        "notice": "The name of this contract"
      },
      "proposalCount()": {
        "notice": "The total number of proposals"
      },
      "proposalMaxOperations()": {
        "notice": "The maximum number of actions that can be included in a proposal"
      },
      "proposalThreshold()": {
        "notice": "The number of votes required in order for a voter to become a proposer"
      },
      "proposals(uint256)": {
        "notice": "The official record of all proposals ever proposed"
      },
      "quorumVotes()": {
        "notice": "The number of votes in support of a proposal required in order for a quorum to be reached and for a vote to succeed"
      },
      "timelock()": {
        "notice": "The address of the Compound Protocol Timelock"
      },
      "votingDelay()": {
        "notice": "The delay before voting on a proposal may take place, once proposed"
      },
      "votingPeriod()": {
        "notice": "The duration of voting on a proposal, in blocks"
      }
    },
    "version": 1
  },
  "storageLayout": {
    "storage": [
      {
        "astId": 3644,
        "contract": "contracts/GovernorAlpha.sol:GovernorAlpha",
        "label": "timelock",
        "offset": 0,
        "slot": "0",
        "type": "t_contract(TimelockInterface)4846"
      },
      {
        "astId": 3647,
        "contract": "contracts/GovernorAlpha.sol:GovernorAlpha",
        "label": "bond",
        "offset": 0,
        "slot": "1",
        "type": "t_contract(BondInterface)4856"
      },
      {
        "astId": 3650,
        "contract": "contracts/GovernorAlpha.sol:GovernorAlpha",
        "label": "guardian",
        "offset": 0,
        "slot": "2",
        "type": "t_address"
      },
      {
        "astId": 3653,
        "contract": "contracts/GovernorAlpha.sol:GovernorAlpha",
        "label": "proposalCount",
        "offset": 0,
        "slot": "3",
        "type": "t_uint256"
      },
      {
        "astId": 3709,
        "contract": "contracts/GovernorAlpha.sol:GovernorAlpha",
        "label": "proposals",
        "offset": 0,
        "slot": "4",
        "type": "t_mapping(t_uint256,t_struct(Proposal)3688_storage)"
      },
      {
        "astId": 3714,
        "contract": "contracts/GovernorAlpha.sol:GovernorAlpha",
        "label": "latestProposalIds",
        "offset": 0,
        "slot": "5",
        "type": "t_mapping(t_address,t_uint256)"
      }
    ],
    "types": {
      "t_address": {
        "encoding": "inplace",
        "label": "address",
        "numberOfBytes": "20"
      },
      "t_array(t_address)dyn_storage": {
        "base": "t_address",
        "encoding": "dynamic_array",
        "label": "address[]",
        "numberOfBytes": "32"
      },
      "t_array(t_bytes_storage)dyn_storage": {
        "base": "t_bytes_storage",
        "encoding": "dynamic_array",
        "label": "bytes[]",
        "numberOfBytes": "32"
      },
      "t_array(t_string_storage)dyn_storage": {
        "base": "t_string_storage",
        "encoding": "dynamic_array",
        "label": "string[]",
        "numberOfBytes": "32"
      },
      "t_array(t_uint256)dyn_storage": {
        "base": "t_uint256",
        "encoding": "dynamic_array",
        "label": "uint256[]",
        "numberOfBytes": "32"
      },
      "t_bool": {
        "encoding": "inplace",
        "label": "bool",
        "numberOfBytes": "1"
      },
      "t_bytes_storage": {
        "encoding": "bytes",
        "label": "bytes",
        "numberOfBytes": "32"
      },
      "t_contract(BondInterface)4856": {
        "encoding": "inplace",
        "label": "contract BondInterface",
        "numberOfBytes": "20"
      },
      "t_contract(TimelockInterface)4846": {
        "encoding": "inplace",
        "label": "contract TimelockInterface",
        "numberOfBytes": "20"
      },
      "t_mapping(t_address,t_struct(Receipt)3695_storage)": {
        "encoding": "mapping",
        "key": "t_address",
        "label": "mapping(address => struct GovernorAlpha.Receipt)",
        "numberOfBytes": "32",
        "value": "t_struct(Receipt)3695_storage"
      },
      "t_mapping(t_address,t_uint256)": {
        "encoding": "mapping",
        "key": "t_address",
        "label": "mapping(address => uint256)",
        "numberOfBytes": "32",
        "value": "t_uint256"
      },
      "t_mapping(t_uint256,t_struct(Proposal)3688_storage)": {
        "encoding": "mapping",
        "key": "t_uint256",
        "label": "mapping(uint256 => struct GovernorAlpha.Proposal)",
        "numberOfBytes": "32",
        "value": "t_struct(Proposal)3688_storage"
      },
      "t_string_storage": {
        "encoding": "bytes",
        "label": "string",
        "numberOfBytes": "32"
      },
      "t_struct(Proposal)3688_storage": {
        "encoding": "inplace",
        "label": "struct GovernorAlpha.Proposal",
        "members": [
          {
            "astId": 3655,
            "contract": "contracts/GovernorAlpha.sol:GovernorAlpha",
            "label": "id",
            "offset": 0,
            "slot": "0",
            "type": "t_uint256"
          },
          {
            "astId": 3657,
            "contract": "contracts/GovernorAlpha.sol:GovernorAlpha",
            "label": "proposer",
            "offset": 0,
            "slot": "1",
            "type": "t_address"
          },
          {
            "astId": 3659,
            "contract": "contracts/GovernorAlpha.sol:GovernorAlpha",
            "label": "eta",
            "offset": 0,
            "slot": "2",
            "type": "t_uint256"
          },
          {
            "astId": 3662,
            "contract": "contracts/GovernorAlpha.sol:GovernorAlpha",
            "label": "targets",
            "offset": 0,
            "slot": "3",
            "type": "t_array(t_address)dyn_storage"
          },
          {
            "astId": 3665,
            "contract": "contracts/GovernorAlpha.sol:GovernorAlpha",
            "label": "values",
            "offset": 0,
            "slot": "4",
            "type": "t_array(t_uint256)dyn_storage"
          },
          {
            "astId": 3668,
            "contract": "contracts/GovernorAlpha.sol:GovernorAlpha",
            "label": "signatures",
            "offset": 0,
            "slot": "5",
            "type": "t_array(t_string_storage)dyn_storage"
          },
          {
            "astId": 3671,
            "contract": "contracts/GovernorAlpha.sol:GovernorAlpha",
            "label": "calldatas",
            "offset": 0,
            "slot": "6",
            "type": "t_array(t_bytes_storage)dyn_storage"
          },
          {
            "astId": 3673,
            "contract": "contracts/GovernorAlpha.sol:GovernorAlpha",
            "label": "startBlock",
            "offset": 0,
            "slot": "7",
            "type": "t_uint256"
          },
          {
            "astId": 3675,
            "contract": "contracts/GovernorAlpha.sol:GovernorAlpha",
            "label": "endBlock",
            "offset": 0,
            "slot": "8",
            "type": "t_uint256"
          },
          {
            "astId": 3677,
            "contract": "contracts/GovernorAlpha.sol:GovernorAlpha",
            "label": "forVotes",
            "offset": 0,
            "slot": "9",
            "type": "t_uint256"
          },
          {
            "astId": 3679,
            "contract": "contracts/GovernorAlpha.sol:GovernorAlpha",
            "label": "againstVotes",
            "offset": 0,
            "slot": "10",
            "type": "t_uint256"
          },
          {
            "astId": 3681,
            "contract": "contracts/GovernorAlpha.sol:GovernorAlpha",
            "label": "canceled",
            "offset": 0,
            "slot": "11",
            "type": "t_bool"
          },
          {
            "astId": 3683,
            "contract": "contracts/GovernorAlpha.sol:GovernorAlpha",
            "label": "executed",
            "offset": 1,
            "slot": "11",
            "type": "t_bool"
          },
          {
            "astId": 3687,
            "contract": "contracts/GovernorAlpha.sol:GovernorAlpha",
            "label": "receipts",
            "offset": 0,
            "slot": "12",
            "type": "t_mapping(t_address,t_struct(Receipt)3695_storage)"
          }
        ],
        "numberOfBytes": "416"
      },
      "t_struct(Receipt)3695_storage": {
        "encoding": "inplace",
        "label": "struct GovernorAlpha.Receipt",
        "members": [
          {
            "astId": 3690,
            "contract": "contracts/GovernorAlpha.sol:GovernorAlpha",
            "label": "hasVoted",
            "offset": 0,
            "slot": "0",
            "type": "t_bool"
          },
          {
            "astId": 3692,
            "contract": "contracts/GovernorAlpha.sol:GovernorAlpha",
            "label": "support",
            "offset": 1,
            "slot": "0",
            "type": "t_bool"
          },
          {
            "astId": 3694,
            "contract": "contracts/GovernorAlpha.sol:GovernorAlpha",
            "label": "votes",
            "offset": 2,
            "slot": "0",
            "type": "t_uint96"
          }
        ],
        "numberOfBytes": "32"
      },
      "t_uint256": {
        "encoding": "inplace",
        "label": "uint256",
        "numberOfBytes": "32"
      },
      "t_uint96": {
        "encoding": "inplace",
        "label": "uint96",
        "numberOfBytes": "12"
      }
    }
  }
}