{
  "address": "0xd1EAC3c7eD0C2c609e35eb248dFc957F4a378eC3",
  "abi": [
    {
      "inputs": [
        {
          "internalType": "address",
          "name": "_rewardsDistribution",
          "type": "address"
        },
        {
          "internalType": "uint256",
          "name": "_rewardsDuration",
          "type": "uint256"
        },
        {
          "internalType": "address",
          "name": "_rewardsToken",
          "type": "address"
        },
        {
          "internalType": "address",
          "name": "_stakingToken",
          "type": "address"
        },
        {
          "internalType": "uint256",
          "name": "_stakingEndBlock",
          "type": "uint256"
        },
        {
          "internalType": "uint256",
          "name": "_unstakingStartBlock",
          "type": "uint256"
        }
      ],
      "stateMutability": "nonpayable",
      "type": "constructor"
    },
    {
      "anonymous": false,
      "inputs": [
        {
          "indexed": true,
          "internalType": "address",
          "name": "previousOwner",
          "type": "address"
        },
        {
          "indexed": true,
          "internalType": "address",
          "name": "newOwner",
          "type": "address"
        }
      ],
      "name": "OwnershipTransferred",
      "type": "event"
    },
    {
      "anonymous": false,
      "inputs": [
        {
          "indexed": false,
          "internalType": "address",
          "name": "account",
          "type": "address"
        }
      ],
      "name": "Paused",
      "type": "event"
    },
    {
      "anonymous": false,
      "inputs": [
        {
          "indexed": false,
          "internalType": "address",
          "name": "newPauser",
          "type": "address"
        }
      ],
      "name": "PauserChanged",
      "type": "event"
    },
    {
      "anonymous": false,
      "inputs": [
        {
          "indexed": false,
          "internalType": "uint256",
          "name": "reward",
          "type": "uint256"
        }
      ],
      "name": "RewardAdded",
      "type": "event"
    },
    {
      "anonymous": false,
      "inputs": [
        {
          "indexed": true,
          "internalType": "address",
          "name": "user",
          "type": "address"
        },
        {
          "indexed": false,
          "internalType": "uint256",
          "name": "reward",
          "type": "uint256"
        }
      ],
      "name": "RewardPaid",
      "type": "event"
    },
    {
      "anonymous": false,
      "inputs": [
        {
          "indexed": false,
          "internalType": "address",
          "name": "newRewardsDistribution",
          "type": "address"
        }
      ],
      "name": "RewardsDistributionChanged",
      "type": "event"
    },
    {
      "anonymous": false,
      "inputs": [
        {
          "indexed": false,
          "internalType": "address",
          "name": "recipient",
          "type": "address"
        },
        {
          "indexed": false,
          "internalType": "uint256",
          "name": "amount",
          "type": "uint256"
        }
      ],
      "name": "RewardsTransfered",
      "type": "event"
    },
    {
      "anonymous": false,
      "inputs": [
        {
          "indexed": true,
          "internalType": "address",
          "name": "user",
          "type": "address"
        },
        {
          "indexed": false,
          "internalType": "uint256",
          "name": "amount",
          "type": "uint256"
        }
      ],
      "name": "Staked",
      "type": "event"
    },
    {
      "anonymous": false,
      "inputs": [
        {
          "indexed": false,
          "internalType": "uint256",
          "name": "newBlockNumber",
          "type": "uint256"
        }
      ],
      "name": "StakingEndBlockChanged",
      "type": "event"
    },
    {
      "anonymous": false,
      "inputs": [
        {
          "indexed": false,
          "internalType": "address",
          "name": "account",
          "type": "address"
        }
      ],
      "name": "Unpaused",
      "type": "event"
    },
    {
      "anonymous": false,
      "inputs": [
        {
          "indexed": false,
          "internalType": "uint256",
          "name": "newBlockNumber",
          "type": "uint256"
        }
      ],
      "name": "UnstakingStartBlockChanged",
      "type": "event"
    },
    {
      "anonymous": false,
      "inputs": [
        {
          "indexed": true,
          "internalType": "address",
          "name": "user",
          "type": "address"
        },
        {
          "indexed": false,
          "internalType": "uint256",
          "name": "amount",
          "type": "uint256"
        }
      ],
      "name": "Withdrawn",
      "type": "event"
    },
    {
      "inputs": [
        {
          "internalType": "address",
          "name": "account",
          "type": "address"
        }
      ],
      "name": "balanceOf",
      "outputs": [
        {
          "internalType": "uint256",
          "name": "",
          "type": "uint256"
        }
      ],
      "stateMutability": "view",
      "type": "function"
    },
    {
      "inputs": [
        {
          "internalType": "address",
          "name": "newPauser",
          "type": "address"
        }
      ],
      "name": "changePauser",
      "outputs": [],
      "stateMutability": "nonpayable",
      "type": "function"
    },
    {
      "inputs": [
        {
          "internalType": "address",
          "name": "_rewardDistribution",
          "type": "address"
        }
      ],
      "name": "changeRewardsDistribution",
      "outputs": [],
      "stateMutability": "nonpayable",
      "type": "function"
    },
    {
      "inputs": [
        {
          "internalType": "uint256",
          "name": "_stakingEndBlock",
          "type": "uint256"
        }
      ],
      "name": "changeStakingEndBlock",
      "outputs": [],
      "stateMutability": "nonpayable",
      "type": "function"
    },
    {
      "inputs": [
        {
          "internalType": "uint256",
          "name": "_unstakingStartBlock",
          "type": "uint256"
        }
      ],
      "name": "changeUnstakingStartBlock",
      "outputs": [],
      "stateMutability": "nonpayable",
      "type": "function"
    },
    {
      "inputs": [
        {
          "internalType": "address",
          "name": "account",
          "type": "address"
        }
      ],
      "name": "earned",
      "outputs": [
        {
          "internalType": "uint256",
          "name": "",
          "type": "uint256"
        }
      ],
      "stateMutability": "view",
      "type": "function"
    },
    {
      "inputs": [],
      "name": "exit",
      "outputs": [],
      "stateMutability": "nonpayable",
      "type": "function"
    },
    {
      "inputs": [],
      "name": "getReward",
      "outputs": [],
      "stateMutability": "nonpayable",
      "type": "function"
    },
    {
      "inputs": [],
      "name": "getRewardForDuration",
      "outputs": [
        {
          "internalType": "uint256",
          "name": "",
          "type": "uint256"
        }
      ],
      "stateMutability": "view",
      "type": "function"
    },
    {
      "inputs": [],
      "name": "lastTimeRewardApplicable",
      "outputs": [
        {
          "internalType": "uint256",
          "name": "",
          "type": "uint256"
        }
      ],
      "stateMutability": "view",
      "type": "function"
    },
    {
      "inputs": [],
      "name": "lastUpdateBlock",
      "outputs": [
        {
          "internalType": "uint256",
          "name": "",
          "type": "uint256"
        }
      ],
      "stateMutability": "view",
      "type": "function"
    },
    {
      "inputs": [
        {
          "internalType": "uint256",
          "name": "reward",
          "type": "uint256"
        }
      ],
      "name": "notifyRewardAmount",
      "outputs": [],
      "stateMutability": "nonpayable",
      "type": "function"
    },
    {
      "inputs": [],
      "name": "owner",
      "outputs": [
        {
          "internalType": "address",
          "name": "",
          "type": "address"
        }
      ],
      "stateMutability": "view",
      "type": "function"
    },
    {
      "inputs": [],
      "name": "pause",
      "outputs": [],
      "stateMutability": "nonpayable",
      "type": "function"
    },
    {
      "inputs": [],
      "name": "paused",
      "outputs": [
        {
          "internalType": "bool",
          "name": "",
          "type": "bool"
        }
      ],
      "stateMutability": "view",
      "type": "function"
    },
    {
      "inputs": [],
      "name": "pauser",
      "outputs": [
        {
          "internalType": "address",
          "name": "",
          "type": "address"
        }
      ],
      "stateMutability": "view",
      "type": "function"
    },
    {
      "inputs": [],
      "name": "periodFinish",
      "outputs": [
        {
          "internalType": "uint256",
          "name": "",
          "type": "uint256"
        }
      ],
      "stateMutability": "view",
      "type": "function"
    },
    {
      "inputs": [],
      "name": "renounceOwnership",
      "outputs": [],
      "stateMutability": "nonpayable",
      "type": "function"
    },
    {
      "inputs": [],
      "name": "rewardPerToken",
      "outputs": [
        {
          "internalType": "uint256",
          "name": "",
          "type": "uint256"
        }
      ],
      "stateMutability": "view",
      "type": "function"
    },
    {
      "inputs": [],
      "name": "rewardPerTokenStored",
      "outputs": [
        {
          "internalType": "uint256",
          "name": "",
          "type": "uint256"
        }
      ],
      "stateMutability": "view",
      "type": "function"
    },
    {
      "inputs": [],
      "name": "rewardRate",
      "outputs": [
        {
          "internalType": "uint256",
          "name": "",
          "type": "uint256"
        }
      ],
      "stateMutability": "view",
      "type": "function"
    },
    {
      "inputs": [
        {
          "internalType": "address",
          "name": "",
          "type": "address"
        }
      ],
      "name": "rewards",
      "outputs": [
        {
          "internalType": "uint256",
          "name": "",
          "type": "uint256"
        }
      ],
      "stateMutability": "view",
      "type": "function"
    },
    {
      "inputs": [],
      "name": "rewardsDistribution",
      "outputs": [
        {
          "internalType": "address",
          "name": "",
          "type": "address"
        }
      ],
      "stateMutability": "view",
      "type": "function"
    },
    {
      "inputs": [],
      "name": "rewardsDuration",
      "outputs": [
        {
          "internalType": "uint256",
          "name": "",
          "type": "uint256"
        }
      ],
      "stateMutability": "view",
      "type": "function"
    },
    {
      "inputs": [],
      "name": "rewardsToken",
      "outputs": [
        {
          "internalType": "contract IERC20",
          "name": "",
          "type": "address"
        }
      ],
      "stateMutability": "view",
      "type": "function"
    },
    {
      "inputs": [
        {
          "internalType": "uint256",
          "name": "amount",
          "type": "uint256"
        }
      ],
      "name": "stake",
      "outputs": [],
      "stateMutability": "nonpayable",
      "type": "function"
    },
    {
      "inputs": [],
      "name": "stakingEndBlock",
      "outputs": [
        {
          "internalType": "uint256",
          "name": "",
          "type": "uint256"
        }
      ],
      "stateMutability": "view",
      "type": "function"
    },
    {
      "inputs": [],
      "name": "stakingToken",
      "outputs": [
        {
          "internalType": "contract IERC20",
          "name": "",
          "type": "address"
        }
      ],
      "stateMutability": "view",
      "type": "function"
    },
    {
      "inputs": [],
      "name": "totalSupply",
      "outputs": [
        {
          "internalType": "uint256",
          "name": "",
          "type": "uint256"
        }
      ],
      "stateMutability": "view",
      "type": "function"
    },
    {
      "inputs": [
        {
          "internalType": "address",
          "name": "recipient",
          "type": "address"
        },
        {
          "internalType": "uint256",
          "name": "amount",
          "type": "uint256"
        }
      ],
      "name": "transfer",
      "outputs": [],
      "stateMutability": "nonpayable",
      "type": "function"
    },
    {
      "inputs": [
        {
          "internalType": "address",
          "name": "newOwner",
          "type": "address"
        }
      ],
      "name": "transferOwnership",
      "outputs": [],
      "stateMutability": "nonpayable",
      "type": "function"
    },
    {
      "inputs": [],
      "name": "unpause",
      "outputs": [],
      "stateMutability": "nonpayable",
      "type": "function"
    },
    {
      "inputs": [],
      "name": "unstakingStartBlock",
      "outputs": [
        {
          "internalType": "uint256",
          "name": "",
          "type": "uint256"
        }
      ],
      "stateMutability": "view",
      "type": "function"
    },
    {
      "inputs": [
        {
          "internalType": "address",
          "name": "",
          "type": "address"
        }
      ],
      "name": "userRewardPerTokenPaid",
      "outputs": [
        {
          "internalType": "uint256",
          "name": "",
          "type": "uint256"
        }
      ],
      "stateMutability": "view",
      "type": "function"
    },
    {
      "inputs": [
        {
          "internalType": "uint256",
          "name": "amount",
          "type": "uint256"
        }
      ],
      "name": "withdraw",
      "outputs": [],
      "stateMutability": "nonpayable",
      "type": "function"
    }
  ],
  "transactionHash": "0x10824255a0e538b1a712fb5a1273a495be09f07402390fcdb2b3ddf3d287b9c0",
  "args": [
    "0x9403932015576D13Fb26B135ed7a35d5d95C18d4",
    161280,
    "0x9747D80cDCE1E595546c6695A01eC73A77c9E7e9",
    "0x76c6F98Eab9F18639cF1911bA78364A7A74bDdeD",
    0,
    0
  ],
  "solcInputHash": "ecdf97c618a671f9032b8c6c297396c1",
  "bytecode": "0x60806040523480156200001157600080fd5b50604051620034e2380380620034e2833981810160405260c08110156200003757600080fd5b8101908080519060200190929190805190602001909291908051906020019092919080519060200190929190805190602001909291908051906020019092919050505060006200008c6200028060201b60201c565b9050806000806101000a81548173ffffffffffffffffffffffffffffffffffffffff021916908373ffffffffffffffffffffffffffffffffffffffff1602179055508073ffffffffffffffffffffffffffffffffffffffff16600073ffffffffffffffffffffffffffffffffffffffff167f8be0079c531659141344cd1fd0a4f28419497f9722a3daafe3b4186f6b6457e060405160405180910390a35060008060146101000a81548160ff021916908315150217905550620001546200028860201b60201c565b600160006101000a81548173ffffffffffffffffffffffffffffffffffffffff021916908373ffffffffffffffffffffffffffffffffffffffff160217905550600160028190555085600360006101000a81548173ffffffffffffffffffffffffffffffffffffffff021916908373ffffffffffffffffffffffffffffffffffffffff1602179055508460088190555083600460006101000a81548173ffffffffffffffffffffffffffffffffffffffff021916908373ffffffffffffffffffffffffffffffffffffffff16021790555082600560006101000a81548173ffffffffffffffffffffffffffffffffffffffff021916908373ffffffffffffffffffffffffffffffffffffffff16021790555081600b8190555080600c81905550505050505050620002b1565b600033905090565b60008060009054906101000a900473ffffffffffffffffffffffffffffffffffffffff16905090565b61322180620002c16000396000f3fe608060405234801561001057600080fd5b50600436106102105760003560e01c806372f702f311610125578063a694fc3a116100ad578063d1af0c7d1161007c578063d1af0c7d14610757578063df136d651461078b578063e9fad8ee146107a9578063ebe2b12b146107b3578063f2fde38b146107d157610210565b8063a694fc3a1461068f578063a9059cbb146106bd578063c1f117901461070b578063cd3daf9d1461073957610210565b80638b876347116100f45780638b876347146105935780638c42285e146105eb5780638da5cb5b146106095780639fd0506d1461063d578063a218141b1461067157610210565b806372f702f3146105195780637b0a47ee1461054d57806380faa57d1461056b5780638456cb591461058957610210565b8063397670c4116101a85780633fc6df6e116101775780633fc6df6e1461041f5780635c975abb14610453578063602e291d1461047357806370a08231146104b7578063715018a61461050f57610210565b8063397670c4146103af5780633c6b16ab146103dd5780633d18b9121461040b5780633f4ba83a1461041557610210565b80631c1f78eb116101e45780631c1f78eb146103015780632cd271e71461031f5780632e1a7d4d14610363578063386a95251461039157610210565b80628cc262146102155780630700037d1461026d5780630a122c8a146102c557806318160ddd146102e3575b600080fd5b6102576004803603602081101561022b57600080fd5b81019080803573ffffffffffffffffffffffffffffffffffffffff169060200190929190505050610815565b6040518082815260200191505060405180910390f35b6102af6004803603602081101561028357600080fd5b81019080803573ffffffffffffffffffffffffffffffffffffffff169060200190929190505050610933565b6040518082815260200191505060405180910390f35b6102cd61094b565b6040518082815260200191505060405180910390f35b6102eb610951565b6040518082815260200191505060405180910390f35b61030961095b565b6040518082815260200191505060405180910390f35b6103616004803603602081101561033557600080fd5b81019080803573ffffffffffffffffffffffffffffffffffffffff169060200190929190505050610979565b005b61038f6004803603602081101561037957600080fd5b8101908080359060200190929190505050610af4565b005b610399610e85565b6040518082815260200191505060405180910390f35b6103db600480360360208110156103c557600080fd5b8101908080359060200190929190505050610e8b565b005b610409600480360360208110156103f357600080fd5b8101908080359060200190929190505050610f96565b005b61041361138c565b005b61041d61164c565b005b610427611747565b604051808273ffffffffffffffffffffffffffffffffffffffff16815260200191505060405180910390f35b61045b61176d565b60405180821515815260200191505060405180910390f35b6104b56004803603602081101561048957600080fd5b81019080803573ffffffffffffffffffffffffffffffffffffffff169060200190929190505050611783565b005b6104f9600480360360208110156104cd57600080fd5b81019080803573ffffffffffffffffffffffffffffffffffffffff1690602001909291905050506118fe565b6040518082815260200191505060405180910390f35b610517611947565b005b610521611acd565b604051808273ffffffffffffffffffffffffffffffffffffffff16815260200191505060405180910390f35b610555611af3565b6040518082815260200191505060405180910390f35b610573611af9565b6040518082815260200191505060405180910390f35b610591611b0c565b005b6105d5600480360360208110156105a957600080fd5b81019080803573ffffffffffffffffffffffffffffffffffffffff169060200190929190505050611c07565b6040518082815260200191505060405180910390f35b6105f3611c1f565b6040518082815260200191505060405180910390f35b610611611c25565b604051808273ffffffffffffffffffffffffffffffffffffffff16815260200191505060405180910390f35b610645611c4e565b604051808273ffffffffffffffffffffffffffffffffffffffff16815260200191505060405180910390f35b610679611c74565b6040518082815260200191505060405180910390f35b6106bb600480360360208110156106a557600080fd5b8101908080359060200190929190505050611c7a565b005b610709600480360360408110156106d357600080fd5b81019080803573ffffffffffffffffffffffffffffffffffffffff16906020019092919080359060200190929190505050612052565b005b6107376004803603602081101561072157600080fd5b810190808035906020019092919050505061221b565b005b610741612326565b6040518082815260200191505060405180910390f35b61075f6123b4565b604051808273ffffffffffffffffffffffffffffffffffffffff16815260200191505060405180910390f35b6107936123da565b6040518082815260200191505060405180910390f35b6107b16123e0565b005b6107bb612439565b6040518082815260200191505060405180910390f35b610813600480360360208110156107e757600080fd5b81019080803573ffffffffffffffffffffffffffffffffffffffff16906020019092919050505061243f565b005b600061092c600e60008473ffffffffffffffffffffffffffffffffffffffff1673ffffffffffffffffffffffffffffffffffffffff1681526020019081526020016000205461091e670de0b6b3a76400006109106108c2600d60008973ffffffffffffffffffffffffffffffffffffffff1673ffffffffffffffffffffffffffffffffffffffff168152602001908152602001600020546108b4612326565b61264a90919063ffffffff16565b601060008973ffffffffffffffffffffffffffffffffffffffff1673ffffffffffffffffffffffffffffffffffffffff1681526020019081526020016000205461269490919063ffffffff16565b61271a90919063ffffffff16565b61276490919063ffffffff16565b9050919050565b600e6020528060005260406000206000915090505481565b600b5481565b6000600f54905090565b600061097460085460075461269490919063ffffffff16565b905090565b6109816127ec565b73ffffffffffffffffffffffffffffffffffffffff1660008054906101000a900473ffffffffffffffffffffffffffffffffffffffff1673ffffffffffffffffffffffffffffffffffffffff1614610a41576040517f08c379a00000000000000000000000000000000000000000000000000000000081526004018080602001828103825260208152602001807f4f776e61626c653a2063616c6c6572206973206e6f7420746865206f776e657281525060200191505060405180910390fd5b80600160006101000a81548173ffffffffffffffffffffffffffffffffffffffff021916908373ffffffffffffffffffffffffffffffffffffffff1602179055507fb80482a293ca2e013eda8683c9bd7fc8347cfdaeea5ede58cba46df502c2a604600160009054906101000a900473ffffffffffffffffffffffffffffffffffffffff16604051808273ffffffffffffffffffffffffffffffffffffffff16815260200191505060405180910390a150565b600280541415610b6c576040517f08c379a000000000000000000000000000000000000000000000000000000000815260040180806020018281038252601f8152602001807f5265656e7472616e637947756172643a207265656e7472616e742063616c6c0081525060200191505060405180910390fd5b60028081905550610b7b6127ec565b610b83612326565b600a81905550610b91611af9565b600981905550600073ffffffffffffffffffffffffffffffffffffffff168173ffffffffffffffffffffffffffffffffffffffff1614610c5e57610bd481610815565b600e60008373ffffffffffffffffffffffffffffffffffffffff1673ffffffffffffffffffffffffffffffffffffffff16815260200190815260200160002081905550600a54600d60008373ffffffffffffffffffffffffffffffffffffffff1673ffffffffffffffffffffffffffffffffffffffff168152602001908152602001600020819055505b60008211610cb7576040517f08c379a00000000000000000000000000000000000000000000000000000000081526004018080602001828103825260248152602001806130de6024913960400191505060405180910390fd5b600c54431015610d12576040517f08c379a00000000000000000000000000000000000000000000000000000000081526004018080602001828103825260278152602001806131c56027913960400191505060405180910390fd5b610d2782600f5461264a90919063ffffffff16565b600f81905550610d868260106000610d3d6127ec565b73ffffffffffffffffffffffffffffffffffffffff1673ffffffffffffffffffffffffffffffffffffffff1681526020019081526020016000205461264a90919063ffffffff16565b60106000610d926127ec565b73ffffffffffffffffffffffffffffffffffffffff1673ffffffffffffffffffffffffffffffffffffffff16815260200190815260200160002081905550610e24610ddb6127ec565b83600560009054906101000a900473ffffffffffffffffffffffffffffffffffffffff1673ffffffffffffffffffffffffffffffffffffffff166127f49092919063ffffffff16565b610e2c6127ec565b73ffffffffffffffffffffffffffffffffffffffff167f7084f5476618d8e60b11ef0d7d3f06914655adb8793e28ff7f018d4c76d505d5836040518082815260200191505060405180910390a250600160028190555050565b60085481565b610e936127ec565b73ffffffffffffffffffffffffffffffffffffffff1660008054906101000a900473ffffffffffffffffffffffffffffffffffffffff1673ffffffffffffffffffffffffffffffffffffffff1614610f53576040517f08c379a00000000000000000000000000000000000000000000000000000000081526004018080602001828103825260208152602001807f4f776e61626c653a2063616c6c6572206973206e6f7420746865206f776e657281525060200191505060405180910390fd5b80600c819055507f424cb8ca37be7dc06353ecb3bcd4cf84e263f81cfc45721a4fe862acc4b4d588600c546040518082815260200191505060405180910390a150565b6000610fa0612326565b600a81905550610fae611af9565b600981905550600073ffffffffffffffffffffffffffffffffffffffff168173ffffffffffffffffffffffffffffffffffffffff161461107b57610ff181610815565b600e60008373ffffffffffffffffffffffffffffffffffffffff1673ffffffffffffffffffffffffffffffffffffffff16815260200190815260200160002081905550600a54600d60008373ffffffffffffffffffffffffffffffffffffffff1673ffffffffffffffffffffffffffffffffffffffff168152602001908152602001600020819055505b600360009054906101000a900473ffffffffffffffffffffffffffffffffffffffff1673ffffffffffffffffffffffffffffffffffffffff166110bc6127ec565b73ffffffffffffffffffffffffffffffffffffffff16148061111757506110e1611c25565b73ffffffffffffffffffffffffffffffffffffffff166110ff6127ec565b73ffffffffffffffffffffffffffffffffffffffff16145b61116c576040517f08c379a000000000000000000000000000000000000000000000000000000000815260040180806020018281038252604f815260200180613123604f913960600191505060405180910390fd5b60065443106111955761118a6008548361271a90919063ffffffff16565b6007819055506111f7565b60006111ac4360065461264a90919063ffffffff16565b905060006111c56007548361269490919063ffffffff16565b90506111ee6008546111e0838761276490919063ffffffff16565b61271a90919063ffffffff16565b60078190555050505b6000600460009054906101000a900473ffffffffffffffffffffffffffffffffffffffff1673ffffffffffffffffffffffffffffffffffffffff166370a08231306040518263ffffffff1660e01b8152600401808273ffffffffffffffffffffffffffffffffffffffff16815260200191505060206040518083038186803b15801561128257600080fd5b505afa158015611296573d6000803e3d6000fd5b505050506040513d60208110156112ac57600080fd5b810190808051906020019092919050505090506112d46008548261271a90919063ffffffff16565b600754111561132e576040517f08c379a00000000000000000000000000000000000000000000000000000000081526004018080602001828103825260358152602001806130646035913960400191505060405180910390fd5b4360098190555061134a6008544361276490919063ffffffff16565b6006819055507fde88a922e0d3b88b24e9623efeb464919c6bf9f66857a65e2bfcf2ce87a9433d836040518082815260200191505060405180910390a1505050565b600280541415611404576040517f08c379a000000000000000000000000000000000000000000000000000000000815260040180806020018281038252601f8152602001807f5265656e7472616e637947756172643a207265656e7472616e742063616c6c0081525060200191505060405180910390fd5b600280819055506114136127ec565b61141b612326565b600a81905550611429611af9565b600981905550600073ffffffffffffffffffffffffffffffffffffffff168173ffffffffffffffffffffffffffffffffffffffff16146114f65761146c81610815565b600e60008373ffffffffffffffffffffffffffffffffffffffff1673ffffffffffffffffffffffffffffffffffffffff16815260200190815260200160002081905550600a54600d60008373ffffffffffffffffffffffffffffffffffffffff1673ffffffffffffffffffffffffffffffffffffffff168152602001908152602001600020819055505b6000600e60006115046127ec565b73ffffffffffffffffffffffffffffffffffffffff1673ffffffffffffffffffffffffffffffffffffffff1681526020019081526020016000205490506000811115611640576000600e60006115586127ec565b73ffffffffffffffffffffffffffffffffffffffff1673ffffffffffffffffffffffffffffffffffffffff168152602001908152602001600020819055506115ea6115a16127ec565b82600460009054906101000a900473ffffffffffffffffffffffffffffffffffffffff1673ffffffffffffffffffffffffffffffffffffffff166127f49092919063ffffffff16565b6115f26127ec565b73ffffffffffffffffffffffffffffffffffffffff167fe2403640ba68fed3a2f88b7557551d1993f84b99bb10ff833f0cf8db0c5e0486826040518082815260200191505060405180910390a25b50506001600281905550565b6116546127ec565b73ffffffffffffffffffffffffffffffffffffffff16600160009054906101000a900473ffffffffffffffffffffffffffffffffffffffff1673ffffffffffffffffffffffffffffffffffffffff1614806116e857506116b26127ec565b73ffffffffffffffffffffffffffffffffffffffff166116d0611c25565b73ffffffffffffffffffffffffffffffffffffffff16145b61173d576040517f08c379a00000000000000000000000000000000000000000000000000000000081526004018080602001828103825260458152602001806130996045913960600191505060405180910390fd5b611745612896565b565b600360009054906101000a900473ffffffffffffffffffffffffffffffffffffffff1681565b60008060149054906101000a900460ff16905090565b61178b6127ec565b73ffffffffffffffffffffffffffffffffffffffff1660008054906101000a900473ffffffffffffffffffffffffffffffffffffffff1673ffffffffffffffffffffffffffffffffffffffff161461184b576040517f08c379a00000000000000000000000000000000000000000000000000000000081526004018080602001828103825260208152602001807f4f776e61626c653a2063616c6c6572206973206e6f7420746865206f776e657281525060200191505060405180910390fd5b80600360006101000a81548173ffffffffffffffffffffffffffffffffffffffff021916908373ffffffffffffffffffffffffffffffffffffffff1602179055507f995929e3bdfa9f1b0b527c02b5b513a7c476ed92f554c52bf7b25e51cfee029f600360009054906101000a900473ffffffffffffffffffffffffffffffffffffffff16604051808273ffffffffffffffffffffffffffffffffffffffff16815260200191505060405180910390a150565b6000601060008373ffffffffffffffffffffffffffffffffffffffff1673ffffffffffffffffffffffffffffffffffffffff168152602001908152602001600020549050919050565b61194f6127ec565b73ffffffffffffffffffffffffffffffffffffffff1660008054906101000a900473ffffffffffffffffffffffffffffffffffffffff1673ffffffffffffffffffffffffffffffffffffffff1614611a0f576040517f08c379a00000000000000000000000000000000000000000000000000000000081526004018080602001828103825260208152602001807f4f776e61626c653a2063616c6c6572206973206e6f7420746865206f776e657281525060200191505060405180910390fd5b600073ffffffffffffffffffffffffffffffffffffffff1660008054906101000a900473ffffffffffffffffffffffffffffffffffffffff1673ffffffffffffffffffffffffffffffffffffffff167f8be0079c531659141344cd1fd0a4f28419497f9722a3daafe3b4186f6b6457e060405160405180910390a360008060006101000a81548173ffffffffffffffffffffffffffffffffffffffff021916908373ffffffffffffffffffffffffffffffffffffffff160217905550565b600560009054906101000a900473ffffffffffffffffffffffffffffffffffffffff1681565b60075481565b6000611b0743600654612988565b905090565b611b146127ec565b73ffffffffffffffffffffffffffffffffffffffff16600160009054906101000a900473ffffffffffffffffffffffffffffffffffffffff1673ffffffffffffffffffffffffffffffffffffffff161480611ba85750611b726127ec565b73ffffffffffffffffffffffffffffffffffffffff16611b90611c25565b73ffffffffffffffffffffffffffffffffffffffff16145b611bfd576040517f08c379a00000000000000000000000000000000000000000000000000000000081526004018080602001828103825260418152602001806130236041913960600191505060405180910390fd5b611c056129a1565b565b600d6020528060005260406000206000915090505481565b600c5481565b60008060009054906101000a900473ffffffffffffffffffffffffffffffffffffffff16905090565b600160009054906101000a900473ffffffffffffffffffffffffffffffffffffffff1681565b60095481565b600280541415611cf2576040517f08c379a000000000000000000000000000000000000000000000000000000000815260040180806020018281038252601f8152602001807f5265656e7472616e637947756172643a207265656e7472616e742063616c6c0081525060200191505060405180910390fd5b60028081905550611d016127ec565b611d09612326565b600a81905550611d17611af9565b600981905550600073ffffffffffffffffffffffffffffffffffffffff168173ffffffffffffffffffffffffffffffffffffffff1614611de457611d5a81610815565b600e60008373ffffffffffffffffffffffffffffffffffffffff1673ffffffffffffffffffffffffffffffffffffffff16815260200190815260200160002081905550600a54600d60008373ffffffffffffffffffffffffffffffffffffffff1673ffffffffffffffffffffffffffffffffffffffff168152602001908152602001600020819055505b60008211611e5a576040517f08c379a000000000000000000000000000000000000000000000000000000000815260040180806020018281038252601e8152602001807f5374616b696e673a3a7374616b653a2063616e6e6f74207374616b652030000081525060200191505060405180910390fd5b6000600b541115611edd57600b544310611edc576040517f08c379a00000000000000000000000000000000000000000000000000000000081526004018080602001828103825260208152602001807f5374616b696e673a7374616b653a207374616b696e6720636f6d706c6574656481525060200191505060405180910390fd5b5b611ef282600f5461276490919063ffffffff16565b600f81905550611f518260106000611f086127ec565b73ffffffffffffffffffffffffffffffffffffffff1673ffffffffffffffffffffffffffffffffffffffff1681526020019081526020016000205461276490919063ffffffff16565b60106000611f5d6127ec565b73ffffffffffffffffffffffffffffffffffffffff1673ffffffffffffffffffffffffffffffffffffffff16815260200190815260200160002081905550611ff1611fa66127ec565b3084600560009054906101000a900473ffffffffffffffffffffffffffffffffffffffff1673ffffffffffffffffffffffffffffffffffffffff16612a95909392919063ffffffff16565b611ff96127ec565b73ffffffffffffffffffffffffffffffffffffffff167f9e71bc8eea02a63969f509818f2dafb9254532904319f9dbda79b67bd34a5f3d836040518082815260200191505060405180910390a250600160028190555050565b61205a6127ec565b73ffffffffffffffffffffffffffffffffffffffff1660008054906101000a900473ffffffffffffffffffffffffffffffffffffffff1673ffffffffffffffffffffffffffffffffffffffff161461211a576040517f08c379a00000000000000000000000000000000000000000000000000000000081526004018080602001828103825260208152602001807f4f776e61626c653a2063616c6c6572206973206e6f7420746865206f776e657281525060200191505060405180910390fd5b600654431015612175576040517f08c379a000000000000000000000000000000000000000000000000000000000815260040180806020018281038252602981526020018061319c6029913960400191505060405180910390fd5b6121c28282600460009054906101000a900473ffffffffffffffffffffffffffffffffffffffff1673ffffffffffffffffffffffffffffffffffffffff166127f49092919063ffffffff16565b7fa16d653d791fc52dfde643134b80c696f2e4e26959f6a7628945bf25752425bb8282604051808373ffffffffffffffffffffffffffffffffffffffff1681526020018281526020019250505060405180910390a15050565b6122236127ec565b73ffffffffffffffffffffffffffffffffffffffff1660008054906101000a900473ffffffffffffffffffffffffffffffffffffffff1673ffffffffffffffffffffffffffffffffffffffff16146122e3576040517f08c379a00000000000000000000000000000000000000000000000000000000081526004018080602001828103825260208152602001807f4f776e61626c653a2063616c6c6572206973206e6f7420746865206f776e657281525060200191505060405180910390fd5b80600b819055507f914571955081c100b9e9a7771b41938881220e108fdd97d6e4def0425160f3e7600b546040518082815260200191505060405180910390a150565b600080600f54141561233c57600a5490506123b1565b6123ae61239d600f5461238f670de0b6b3a7640000612381600754612373600954612365611af9565b61264a90919063ffffffff16565b61269490919063ffffffff16565b61269490919063ffffffff16565b61271a90919063ffffffff16565b600a5461276490919063ffffffff16565b90505b90565b600460009054906101000a900473ffffffffffffffffffffffffffffffffffffffff1681565b600a5481565b61242f601060006123ef6127ec565b73ffffffffffffffffffffffffffffffffffffffff1673ffffffffffffffffffffffffffffffffffffffff16815260200190815260200160002054610af4565b61243761138c565b565b60065481565b6124476127ec565b73ffffffffffffffffffffffffffffffffffffffff1660008054906101000a900473ffffffffffffffffffffffffffffffffffffffff1673ffffffffffffffffffffffffffffffffffffffff1614612507576040517f08c379a00000000000000000000000000000000000000000000000000000000081526004018080602001828103825260208152602001807f4f776e61626c653a2063616c6c6572206973206e6f7420746865206f776e657281525060200191505060405180910390fd5b600073ffffffffffffffffffffffffffffffffffffffff168173ffffffffffffffffffffffffffffffffffffffff16141561258d576040517f08c379a0000000000000000000000000000000000000000000000000000000008152600401808060200182810382526026815260200180612ffd6026913960400191505060405180910390fd5b8073ffffffffffffffffffffffffffffffffffffffff1660008054906101000a900473ffffffffffffffffffffffffffffffffffffffff1673ffffffffffffffffffffffffffffffffffffffff167f8be0079c531659141344cd1fd0a4f28419497f9722a3daafe3b4186f6b6457e060405160405180910390a3806000806101000a81548173ffffffffffffffffffffffffffffffffffffffff021916908373ffffffffffffffffffffffffffffffffffffffff16021790555050565b600061268c83836040518060400160405280601e81526020017f536166654d6174683a207375627472616374696f6e206f766572666c6f770000815250612b56565b905092915050565b6000808314156126a75760009050612714565b60008284029050828482816126b857fe5b041461270f576040517f08c379a00000000000000000000000000000000000000000000000000000000081526004018080602001828103825260218152602001806131026021913960400191505060405180910390fd5b809150505b92915050565b600061275c83836040518060400160405280601a81526020017f536166654d6174683a206469766973696f6e206279207a65726f000000000000815250612c16565b905092915050565b6000808284019050838110156127e2576040517f08c379a000000000000000000000000000000000000000000000000000000000815260040180806020018281038252601b8152602001807f536166654d6174683a206164646974696f6e206f766572666c6f77000000000081525060200191505060405180910390fd5b8091505092915050565b600033905090565b6128918363a9059cbb60e01b8484604051602401808373ffffffffffffffffffffffffffffffffffffffff16815260200182815260200192505050604051602081830303815290604052907bffffffffffffffffffffffffffffffffffffffffffffffffffffffff19166020820180517bffffffffffffffffffffffffffffffffffffffffffffffffffffffff8381831617835250505050612cdc565b505050565b600060149054906101000a900460ff16612918576040517f08c379a00000000000000000000000000000000000000000000000000000000081526004018080602001828103825260148152602001807f5061757361626c653a206e6f742070617573656400000000000000000000000081525060200191505060405180910390fd5b60008060146101000a81548160ff0219169083151502179055507f5db9ee0a495bf2e6ff9c91a7834c1ba4fdd244a5e8aa4e537bd38aeae4b073aa61295b6127ec565b604051808273ffffffffffffffffffffffffffffffffffffffff16815260200191505060405180910390a1565b60008183106129975781612999565b825b905092915050565b600060149054906101000a900460ff1615612a24576040517f08c379a00000000000000000000000000000000000000000000000000000000081526004018080602001828103825260108152602001807f5061757361626c653a207061757365640000000000000000000000000000000081525060200191505060405180910390fd5b6001600060146101000a81548160ff0219169083151502179055507f62e78cea01bee320cd4e420270b5ea74000d11b0c9f74754ebdbfc544b05a258612a686127ec565b604051808273ffffffffffffffffffffffffffffffffffffffff16815260200191505060405180910390a1565b612b50846323b872dd60e01b858585604051602401808473ffffffffffffffffffffffffffffffffffffffff1681526020018373ffffffffffffffffffffffffffffffffffffffff1681526020018281526020019350505050604051602081830303815290604052907bffffffffffffffffffffffffffffffffffffffffffffffffffffffff19166020820180517bffffffffffffffffffffffffffffffffffffffffffffffffffffffff8381831617835250505050612cdc565b50505050565b6000838311158290612c03576040517f08c379a00000000000000000000000000000000000000000000000000000000081526004018080602001828103825283818151815260200191508051906020019080838360005b83811015612bc8578082015181840152602081019050612bad565b50505050905090810190601f168015612bf55780820380516001836020036101000a031916815260200191505b509250505060405180910390fd5b5060008385039050809150509392505050565b60008083118290612cc2576040517f08c379a00000000000000000000000000000000000000000000000000000000081526004018080602001828103825283818151815260200191508051906020019080838360005b83811015612c87578082015181840152602081019050612c6c565b50505050905090810190601f168015612cb45780820380516001836020036101000a031916815260200191505b509250505060405180910390fd5b506000838581612cce57fe5b049050809150509392505050565b6060612d3e826040518060400160405280602081526020017f5361666545524332303a206c6f772d6c6576656c2063616c6c206661696c65648152508573ffffffffffffffffffffffffffffffffffffffff16612dcb9092919063ffffffff16565b9050600081511115612dc657808060200190516020811015612d5f57600080fd5b8101908080519060200190929190505050612dc5576040517f08c379a000000000000000000000000000000000000000000000000000000000815260040180806020018281038252602a815260200180613172602a913960400191505060405180910390fd5b5b505050565b6060612dda8484600085612de3565b90509392505050565b6060612dee85612fe9565b612e60576040517f08c379a000000000000000000000000000000000000000000000000000000000815260040180806020018281038252601d8152602001807f416464726573733a2063616c6c20746f206e6f6e2d636f6e747261637400000081525060200191505060405180910390fd5b600060608673ffffffffffffffffffffffffffffffffffffffff1685876040518082805190602001908083835b60208310612eb05780518252602082019150602081019050602083039250612e8d565b6001836020036101000a03801982511681845116808217855250505050505090500191505060006040518083038185875af1925050503d8060008114612f12576040519150601f19603f3d011682016040523d82523d6000602084013e612f17565b606091505b50915091508115612f2c578092505050612fe1565b600081511115612f3f5780518082602001fd5b836040517f08c379a00000000000000000000000000000000000000000000000000000000081526004018080602001828103825283818151815260200191508051906020019080838360005b83811015612fa6578082015181840152602081019050612f8b565b50505050905090810190601f168015612fd35780820380516001836020036101000a031916815260200191505b509250505060405180910390fd5b949350505050565b600080823b90506000811191505091905056fe4f776e61626c653a206e6577206f776e657220697320746865207a65726f20616464726573734f776e61626c655061757361626c653a3a70617573653a206f6e6c792070617573657220616e64206f776e6572206d75737420706175736520636f6e74726163745374616b696e673a3a6e6f74696679526577617264416d6f756e743a2070726f76696465642072657761726420746f6f20686967684f776e61626c655061757361626c653a3a756e70617573653a206f6e6c792070617573657220616e64206f776e6572206d75737420756e706175736520636f6e74726163745374616b696e673a3a77697468647261773a2043616e6e6f742077697468647261772030536166654d6174683a206d756c7469706c69636174696f6e206f766572666c6f775374616b696e673a3a6e6f74696679526577617264416d6f756e743a2063616c6c6572206973206e6f742052657761726473446973747269627574696f6e206f72204f776e657220616464726573735361666545524332303a204552433230206f7065726174696f6e20646964206e6f7420737563636565645374616b696e673a3a7472616e736665723a20646973747269627574696f6e206e6f7420656e6465645374616b696e673a77697468647261773a20756e7374616b696e67206e6f742073746172746564a26469706673582212200b77a045fd1b31ed7bb6782a02df66ced227e2668d5c73a9856ad3060149658864736f6c634300060c0033",
  "devdoc": {
    "kind": "dev",
    "methods": {
      "balanceOf(address)": {
        "params": {
          "account": "Target account."
        },
        "returns": {
          "_0": "Staking token amount."
        }
      },
      "changePauser(address)": {
        "params": {
          "newPauser": "Address of new pauser account."
        }
      },
      "changeRewardsDistribution(address)": {
        "params": {
          "_rewardDistribution": "New rewards distribution address."
        }
      },
      "changeStakingEndBlock(uint256)": {
        "params": {
          "_stakingEndBlock": "New staking end block number."
        }
      },
      "changeUnstakingStartBlock(uint256)": {
        "params": {
          "_unstakingStartBlock": "New unstaking start block number."
        }
      },
      "constructor": {
        "params": {
          "_rewardsDistribution": "Rewards distribution address.",
          "_rewardsDuration": "Duration of distribution.",
          "_rewardsToken": "Address of reward token.",
          "_stakingToken": "Address of staking token."
        }
      },
      "earned(address)": {
        "params": {
          "account": "Target account."
        },
        "returns": {
          "_0": "Earned rewards."
        }
      },
      "getRewardForDuration()": {
        "returns": {
          "_0": "Rewards amount for duration."
        }
      },
      "lastTimeRewardApplicable()": {
        "returns": {
          "_0": "Block number of last reward."
        }
      },
      "notifyRewardAmount(uint256)": {
        "params": {
          "reward": "Distributed rewards amount."
        }
      },
      "owner()": {
        "details": "Returns the address of the current owner."
      },
      "paused()": {
        "details": "Returns true if the contract is paused, and false otherwise."
      },
      "renounceOwnership()": {
        "details": "Leaves the contract without owner. It will not be possible to call `onlyOwner` functions anymore. Can only be called by the current owner. NOTE: Renouncing ownership will leave the contract without an owner, thereby removing any functionality that is only available to the owner."
      },
      "rewardPerToken()": {
        "returns": {
          "_0": "Reward per token."
        }
      },
      "stake(uint256)": {
        "params": {
          "amount": "Amount staking token."
        }
      },
      "totalSupply()": {
        "returns": {
          "_0": "Total staking token amount."
        }
      },
      "transfer(address,uint256)": {
        "params": {
          "amount": "Amount transfered rewards token.",
          "recipient": "Recipient."
        }
      },
      "transferOwnership(address)": {
        "details": "Transfers ownership of the contract to a new account (`newOwner`). Can only be called by the current owner."
      },
      "withdraw(uint256)": {
        "params": {
          "amount": "Amount withdraw token."
        }
      }
    },
    "stateVariables": {
      "_balances": {
        "details": "Staking balances."
      },
      "_totalSupply": {
        "details": "Total staking token amount."
      }
    },
    "version": 1
  },
  "userdoc": {
    "events": {
      "PauserChanged(address)": {
        "notice": "An event thats emitted when an pauser address changed."
      },
      "RewardAdded(uint256)": {
        "notice": "An event thats emitted when an reward token addet to contract."
      },
      "RewardPaid(address,uint256)": {
        "notice": "An event thats emitted when an reward token withdrawal from contract."
      },
      "RewardsDistributionChanged(address)": {
        "notice": "An event thats emitted when an rewards distribution address changed."
      },
      "RewardsTransfered(address,uint256)": {
        "notice": "An event thats emitted when an rewards tokens transfered to recipient."
      },
      "Staked(address,uint256)": {
        "notice": "An event thats emitted when an staking token added to contract."
      },
      "StakingEndBlockChanged(uint256)": {
        "notice": "An event thats emitted when an staking end block number changed."
      },
      "UnstakingStartBlockChanged(uint256)": {
        "notice": "An event thats emitted when an unstaking start block number changed."
      },
      "Withdrawn(address,uint256)": {
        "notice": "An event thats emitted when an staking token withdrawal from contract."
      }
    },
    "kind": "user",
    "methods": {
      "changePauser(address)": {
        "notice": "Change pauser account."
      },
      "changeRewardsDistribution(address)": {
        "notice": "Change rewards distribution address."
      },
      "changeStakingEndBlock(uint256)": {
        "notice": "Change staking end block number."
      },
      "changeUnstakingStartBlock(uint256)": {
        "notice": "Change unstaking start block number."
      },
      "exit()": {
        "notice": "Withdraw reward and staking token."
      },
      "getReward()": {
        "notice": "Withdraw reward token."
      },
      "lastUpdateBlock()": {
        "notice": "Block number of last update."
      },
      "notifyRewardAmount(uint256)": {
        "notice": "Start distribution."
      },
      "pause()": {
        "notice": "Triggers stopped state."
      },
      "pauser()": {
        "notice": "Address that can pause a contract."
      },
      "periodFinish()": {
        "notice": "Block number of rewards distibution period finish."
      },
      "rewardPerTokenStored()": {
        "notice": "Static reward distribution amount per block."
      },
      "rewardRate()": {
        "notice": "Reward distribution amount per block."
      },
      "rewards(address)": {
        "notice": "Earned rewards."
      },
      "rewardsDistribution()": {
        "notice": "Address of rewards distributor."
      },
      "rewardsDuration()": {
        "notice": "Blocks count in current distribution period."
      },
      "rewardsToken()": {
        "notice": "Rewards token address."
      },
      "stake(uint256)": {
        "notice": "Stake token."
      },
      "stakingEndBlock()": {
        "notice": "Staking completion block number."
      },
      "stakingToken()": {
        "notice": "Staking token address."
      },
      "transfer(address,uint256)": {
        "notice": "Transfer rewards token to recipient if distribution not start."
      },
      "unpause()": {
        "notice": "Returns to normal state."
      },
      "unstakingStartBlock()": {
        "notice": "Unstaking start block number."
      },
      "userRewardPerTokenPaid(address)": {
        "notice": "Rewards paid."
      },
      "withdraw(uint256)": {
        "notice": "Withdraw staking token."
      }
    },
    "version": 1
  },
  "storageLayout": {
    "storage": [
      {
        "astId": 30,
        "contract": "contracts/Staking.sol:Staking",
        "label": "_owner",
        "offset": 0,
        "slot": "0",
        "type": "t_address"
      },
      {
        "astId": 1806,
        "contract": "contracts/Staking.sol:Staking",
        "label": "_paused",
        "offset": 20,
        "slot": "0",
        "type": "t_bool"
      },
      {
        "astId": 13251,
        "contract": "contracts/Staking.sol:Staking",
        "label": "pauser",
        "offset": 0,
        "slot": "1",
        "type": "t_address"
      },
      {
        "astId": 1889,
        "contract": "contracts/Staking.sol:Staking",
        "label": "_status",
        "offset": 0,
        "slot": "2",
        "type": "t_uint256"
      },
      {
        "astId": 7049,
        "contract": "contracts/Staking.sol:Staking",
        "label": "rewardsDistribution",
        "offset": 0,
        "slot": "3",
        "type": "t_address"
      },
      {
        "astId": 7052,
        "contract": "contracts/Staking.sol:Staking",
        "label": "rewardsToken",
        "offset": 0,
        "slot": "4",
        "type": "t_contract(IERC20)985"
      },
      {
        "astId": 7055,
        "contract": "contracts/Staking.sol:Staking",
        "label": "stakingToken",
        "offset": 0,
        "slot": "5",
        "type": "t_contract(IERC20)985"
      },
      {
        "astId": 7058,
        "contract": "contracts/Staking.sol:Staking",
        "label": "periodFinish",
        "offset": 0,
        "slot": "6",
        "type": "t_uint256"
      },
      {
        "astId": 7061,
        "contract": "contracts/Staking.sol:Staking",
        "label": "rewardRate",
        "offset": 0,
        "slot": "7",
        "type": "t_uint256"
      },
      {
        "astId": 7064,
        "contract": "contracts/Staking.sol:Staking",
        "label": "rewardsDuration",
        "offset": 0,
        "slot": "8",
        "type": "t_uint256"
      },
      {
        "astId": 7067,
        "contract": "contracts/Staking.sol:Staking",
        "label": "lastUpdateBlock",
        "offset": 0,
        "slot": "9",
        "type": "t_uint256"
      },
      {
        "astId": 7070,
        "contract": "contracts/Staking.sol:Staking",
        "label": "rewardPerTokenStored",
        "offset": 0,
        "slot": "10",
        "type": "t_uint256"
      },
      {
        "astId": 7073,
        "contract": "contracts/Staking.sol:Staking",
        "label": "stakingEndBlock",
        "offset": 0,
        "slot": "11",
        "type": "t_uint256"
      },
      {
        "astId": 7076,
        "contract": "contracts/Staking.sol:Staking",
        "label": "unstakingStartBlock",
        "offset": 0,
        "slot": "12",
        "type": "t_uint256"
      },
      {
        "astId": 7081,
        "contract": "contracts/Staking.sol:Staking",
        "label": "userRewardPerTokenPaid",
        "offset": 0,
        "slot": "13",
        "type": "t_mapping(t_address,t_uint256)"
      },
      {
        "astId": 7086,
        "contract": "contracts/Staking.sol:Staking",
        "label": "rewards",
        "offset": 0,
        "slot": "14",
        "type": "t_mapping(t_address,t_uint256)"
      },
      {
        "astId": 7089,
        "contract": "contracts/Staking.sol:Staking",
        "label": "_totalSupply",
        "offset": 0,
        "slot": "15",
        "type": "t_uint256"
      },
      {
        "astId": 7094,
        "contract": "contracts/Staking.sol:Staking",
        "label": "_balances",
        "offset": 0,
        "slot": "16",
        "type": "t_mapping(t_address,t_uint256)"
      }
    ],
    "types": {
      "t_address": {
        "encoding": "inplace",
        "label": "address",
        "numberOfBytes": "20"
      },
      "t_bool": {
        "encoding": "inplace",
        "label": "bool",
        "numberOfBytes": "1"
      },
      "t_contract(IERC20)985": {
        "encoding": "inplace",
        "label": "contract IERC20",
        "numberOfBytes": "20"
      },
      "t_mapping(t_address,t_uint256)": {
        "encoding": "mapping",
        "key": "t_address",
        "label": "mapping(address => uint256)",
        "numberOfBytes": "32",
        "value": "t_uint256"
      },
      "t_uint256": {
        "encoding": "inplace",
        "label": "uint256",
        "numberOfBytes": "32"
      }
    }
  }
}