{
  "address": "0xD185f58Ac72BFa7FaD35c003a77916507c7f1b4D",
  "abi": [
    {
      "inputs": [
        {
          "internalType": "address",
          "name": "_stableToken",
          "type": "address"
        },
        {
          "internalType": "address",
          "name": "_treasury",
          "type": "address"
        }
      ],
      "stateMutability": "nonpayable",
      "type": "constructor"
    },
    {
      "anonymous": false,
      "inputs": [
        {
          "indexed": false,
          "internalType": "address",
          "name": "depositary",
          "type": "address"
        }
      ],
      "name": "DepositaryAdded",
      "type": "event"
    },
    {
      "anonymous": false,
      "inputs": [
        {
          "indexed": false,
          "internalType": "address",
          "name": "depositary",
          "type": "address"
        }
      ],
      "name": "DepositaryRemoved",
      "type": "event"
    },
    {
      "anonymous": false,
      "inputs": [
        {
          "indexed": true,
          "internalType": "address",
          "name": "previousOwner",
          "type": "address"
        },
        {
          "indexed": true,
          "internalType": "address",
          "name": "newOwner",
          "type": "address"
        }
      ],
      "name": "OwnershipTransferred",
      "type": "event"
    },
    {
      "anonymous": false,
      "inputs": [
        {
          "indexed": false,
          "internalType": "address",
          "name": "account",
          "type": "address"
        }
      ],
      "name": "Paused",
      "type": "event"
    },
    {
      "anonymous": false,
      "inputs": [
        {
          "indexed": false,
          "internalType": "address",
          "name": "newPauser",
          "type": "address"
        }
      ],
      "name": "PauserChanged",
      "type": "event"
    },
    {
      "anonymous": false,
      "inputs": [],
      "name": "Rebalance",
      "type": "event"
    },
    {
      "anonymous": false,
      "inputs": [
        {
          "indexed": false,
          "internalType": "address",
          "name": "newTreasury",
          "type": "address"
        }
      ],
      "name": "TransferTreasury",
      "type": "event"
    },
    {
      "anonymous": false,
      "inputs": [
        {
          "indexed": false,
          "internalType": "address",
          "name": "account",
          "type": "address"
        }
      ],
      "name": "Unpaused",
      "type": "event"
    },
    {
      "inputs": [
        {
          "internalType": "address",
          "name": "depositary",
          "type": "address"
        }
      ],
      "name": "addDepositary",
      "outputs": [],
      "stateMutability": "nonpayable",
      "type": "function"
    },
    {
      "inputs": [],
      "name": "balance",
      "outputs": [
        {
          "internalType": "uint256",
          "name": "",
          "type": "uint256"
        }
      ],
      "stateMutability": "view",
      "type": "function"
    },
    {
      "inputs": [
        {
          "internalType": "address",
          "name": "newPauser",
          "type": "address"
        }
      ],
      "name": "changePauser",
      "outputs": [],
      "stateMutability": "nonpayable",
      "type": "function"
    },
    {
      "inputs": [
        {
          "internalType": "address",
          "name": "_treasury",
          "type": "address"
        }
      ],
      "name": "changeTreasury",
      "outputs": [],
      "stateMutability": "nonpayable",
      "type": "function"
    },
    {
      "inputs": [],
      "name": "decimals",
      "outputs": [
        {
          "internalType": "uint256",
          "name": "",
          "type": "uint256"
        }
      ],
      "stateMutability": "view",
      "type": "function"
    },
    {
      "inputs": [
        {
          "internalType": "uint256",
          "name": "",
          "type": "uint256"
        }
      ],
      "name": "depositaries",
      "outputs": [
        {
          "internalType": "contract IDepositaryBalanceView",
          "name": "",
          "type": "address"
        }
      ],
      "stateMutability": "view",
      "type": "function"
    },
    {
      "inputs": [],
      "name": "maxSize",
      "outputs": [
        {
          "internalType": "uint256",
          "name": "",
          "type": "uint256"
        }
      ],
      "stateMutability": "view",
      "type": "function"
    },
    {
      "inputs": [],
      "name": "owner",
      "outputs": [
        {
          "internalType": "address",
          "name": "",
          "type": "address"
        }
      ],
      "stateMutability": "view",
      "type": "function"
    },
    {
      "inputs": [],
      "name": "pause",
      "outputs": [],
      "stateMutability": "nonpayable",
      "type": "function"
    },
    {
      "inputs": [],
      "name": "paused",
      "outputs": [
        {
          "internalType": "bool",
          "name": "",
          "type": "bool"
        }
      ],
      "stateMutability": "view",
      "type": "function"
    },
    {
      "inputs": [],
      "name": "pauser",
      "outputs": [
        {
          "internalType": "address",
          "name": "",
          "type": "address"
        }
      ],
      "stateMutability": "view",
      "type": "function"
    },
    {
      "inputs": [],
      "name": "rebalance",
      "outputs": [],
      "stateMutability": "nonpayable",
      "type": "function"
    },
    {
      "inputs": [
        {
          "internalType": "address",
          "name": "depositary",
          "type": "address"
        }
      ],
      "name": "removeDepositary",
      "outputs": [],
      "stateMutability": "nonpayable",
      "type": "function"
    },
    {
      "inputs": [],
      "name": "renounceOwnership",
      "outputs": [],
      "stateMutability": "nonpayable",
      "type": "function"
    },
    {
      "inputs": [],
      "name": "size",
      "outputs": [
        {
          "internalType": "uint256",
          "name": "",
          "type": "uint256"
        }
      ],
      "stateMutability": "view",
      "type": "function"
    },
    {
      "inputs": [],
      "name": "stableToken",
      "outputs": [
        {
          "internalType": "contract StableToken",
          "name": "",
          "type": "address"
        }
      ],
      "stateMutability": "view",
      "type": "function"
    },
    {
      "inputs": [
        {
          "internalType": "address",
          "name": "newOwner",
          "type": "address"
        }
      ],
      "name": "transferOwnership",
      "outputs": [],
      "stateMutability": "nonpayable",
      "type": "function"
    },
    {
      "inputs": [],
      "name": "treasury",
      "outputs": [
        {
          "internalType": "address",
          "name": "",
          "type": "address"
        }
      ],
      "stateMutability": "view",
      "type": "function"
    },
    {
      "inputs": [],
      "name": "unpause",
      "outputs": [],
      "stateMutability": "nonpayable",
      "type": "function"
    }
  ],
  "transactionHash": "0x7d39b830bec04b6cc0b450ac15a3ad0e038e47bc8178bf7076b0afa662f8caa9",
  "args": [
    "0xda698F2C2A51CeE4059D15a2F8fC8f5AaFA4F43c",
    "0x527E2F665100b255467eb13dAB09be177f7ac8aB"
  ],
  "solcInputHash": "16a5cdff6144b8dfd8c7db1f0d40ee55",
  "bytecode": "0x60806040523480156200001157600080fd5b50604051620022fd380380620022fd833981810160405260408110156200003757600080fd5b8101908080519060200190929190805190602001909291905050508173ffffffffffffffffffffffffffffffffffffffff1663313ce5676040518163ffffffff1660e01b815260040160206040518083038186803b1580156200009957600080fd5b505afa158015620000ae573d6000803e3d6000fd5b505050506040513d6020811015620000c557600080fd5b810190808051906020019092919050505060ff1660326000620000ed6200028f60201b60201c565b9050806000806101000a81548173ffffffffffffffffffffffffffffffffffffffff021916908373ffffffffffffffffffffffffffffffffffffffff1602179055508073ffffffffffffffffffffffffffffffffffffffff16600073ffffffffffffffffffffffffffffffffffffffff167f8be0079c531659141344cd1fd0a4f28419497f9722a3daafe3b4186f6b6457e060405160405180910390a35060008060146101000a81548160ff021916908315150217905550620001b56200029760201b60201c565b600160006101000a81548173ffffffffffffffffffffffffffffffffffffffff021916908373ffffffffffffffffffffffffffffffffffffffff1602179055508160038190555080600281905550505081600660006101000a81548173ffffffffffffffffffffffffffffffffffffffff021916908373ffffffffffffffffffffffffffffffffffffffff16021790555080600760006101000a81548173ffffffffffffffffffffffffffffffffffffffff021916908373ffffffffffffffffffffffffffffffffffffffff1602179055505050620002c0565b600033905090565b60008060009054906101000a900473ffffffffffffffffffffffffffffffffffffffff16905090565b61202d80620002d06000396000f3fe608060405234801561001057600080fd5b50600436106101215760003560e01c80637d7c2a1c116100ad578063a6a0c5cf11610071578063a6a0c5cf14610344578063a9d75b2b14610388578063b14f2a39146103bc578063b69ef8a814610400578063f2fde38b1461041e57610121565b80637d7c2a1c146102aa5780638456cb59146102b45780638da5cb5b146102be578063949d225d146102f25780639fd0506d1461031057610121565b80633bf9bdd2116100f45780633bf9bdd2146101ea5780633f4ba83a146102425780635c975abb1461024c57806361d027b31461026c578063715018a6146102a057610121565b80631c293256146101265780632565b1591461016a5780632cd271e714610188578063313ce567146101cc575b600080fd5b6101686004803603602081101561013c57600080fd5b81019080803573ffffffffffffffffffffffffffffffffffffffff169060200190929190505050610462565b005b610172610734565b6040518082815260200191505060405180910390f35b6101ca6004803603602081101561019e57600080fd5b81019080803573ffffffffffffffffffffffffffffffffffffffff16906020019092919050505061073a565b005b6101d46108b5565b6040518082815260200191505060405180910390f35b6102166004803603602081101561020057600080fd5b81019080803590602001909291905050506108bb565b604051808273ffffffffffffffffffffffffffffffffffffffff16815260200191505060405180910390f35b61024a6108f7565b005b6102546109f2565b60405180821515815260200191505060405180910390f35b610274610a08565b604051808273ffffffffffffffffffffffffffffffffffffffff16815260200191505060405180910390f35b6102a8610a2e565b005b6102b2610bb4565b005b6102bc611057565b005b6102c6611152565b604051808273ffffffffffffffffffffffffffffffffffffffff16815260200191505060405180910390f35b6102fa61117b565b6040518082815260200191505060405180910390f35b610318611188565b604051808273ffffffffffffffffffffffffffffffffffffffff16815260200191505060405180910390f35b6103866004803603602081101561035a57600080fd5b81019080803573ffffffffffffffffffffffffffffffffffffffff1690602001909291905050506111ae565b005b6103906114a3565b604051808273ffffffffffffffffffffffffffffffffffffffff16815260200191505060405180910390f35b6103fe600480360360208110156103d257600080fd5b81019080803573ffffffffffffffffffffffffffffffffffffffff1690602001909291905050506114c9565b005b610408611644565b6040518082815260200191505060405180910390f35b6104606004803603602081101561043457600080fd5b81019080803573ffffffffffffffffffffffffffffffffffffffff16906020019092919050505061182c565b005b61046a611a37565b73ffffffffffffffffffffffffffffffffffffffff1660008054906101000a900473ffffffffffffffffffffffffffffffffffffffff1673ffffffffffffffffffffffffffffffffffffffff161461052a576040517f08c379a00000000000000000000000000000000000000000000000000000000081526004018080602001828103825260208152602001807f4f776e61626c653a2063616c6c6572206973206e6f7420746865206f776e657281525060200191505060405180910390fd5b6000600560008373ffffffffffffffffffffffffffffffffffffffff1673ffffffffffffffffffffffffffffffffffffffff16815260200190815260200160002054146105c2576040517f08c379a0000000000000000000000000000000000000000000000000000000008152600401808060200182810382526046815260200180611f466046913960600191505060405180910390fd5b6002546105cd61117b565b10610623576040517f08c379a0000000000000000000000000000000000000000000000000000000008152600401808060200182810382526043815260200180611e576043913960600191505060405180910390fd5b6004819080600181540180825580915050600190039060005260206000200160009091909190916101000a81548173ffffffffffffffffffffffffffffffffffffffff021916908373ffffffffffffffffffffffffffffffffffffffff1602179055506106a1600161069361117b565b611a3f90919063ffffffff16565b600560008373ffffffffffffffffffffffffffffffffffffffff1673ffffffffffffffffffffffffffffffffffffffff168152602001908152602001600020819055507fd5908a53c795822de25346de021d20a1b229dcf1369f53b18741fe157588e20d81604051808273ffffffffffffffffffffffffffffffffffffffff16815260200191505060405180910390a150565b60025481565b610742611a37565b73ffffffffffffffffffffffffffffffffffffffff1660008054906101000a900473ffffffffffffffffffffffffffffffffffffffff1673ffffffffffffffffffffffffffffffffffffffff1614610802576040517f08c379a00000000000000000000000000000000000000000000000000000000081526004018080602001828103825260208152602001807f4f776e61626c653a2063616c6c6572206973206e6f7420746865206f776e657281525060200191505060405180910390fd5b80600160006101000a81548173ffffffffffffffffffffffffffffffffffffffff021916908373ffffffffffffffffffffffffffffffffffffffff1602179055507fb80482a293ca2e013eda8683c9bd7fc8347cfdaeea5ede58cba46df502c2a604600160009054906101000a900473ffffffffffffffffffffffffffffffffffffffff16604051808273ffffffffffffffffffffffffffffffffffffffff16815260200191505060405180910390a150565b60035481565b600481815481106108c857fe5b906000526020600020016000915054906101000a900473ffffffffffffffffffffffffffffffffffffffff1681565b6108ff611a37565b73ffffffffffffffffffffffffffffffffffffffff16600160009054906101000a900473ffffffffffffffffffffffffffffffffffffffff1673ffffffffffffffffffffffffffffffffffffffff161480610993575061095d611a37565b73ffffffffffffffffffffffffffffffffffffffff1661097b611152565b73ffffffffffffffffffffffffffffffffffffffff16145b6109e8576040517f08c379a0000000000000000000000000000000000000000000000000000000008152600401808060200182810382526045815260200180611f016045913960600191505060405180910390fd5b6109f0611a89565b565b60008060149054906101000a900460ff16905090565b600760009054906101000a900473ffffffffffffffffffffffffffffffffffffffff1681565b610a36611a37565b73ffffffffffffffffffffffffffffffffffffffff1660008054906101000a900473ffffffffffffffffffffffffffffffffffffffff1673ffffffffffffffffffffffffffffffffffffffff1614610af6576040517f08c379a00000000000000000000000000000000000000000000000000000000081526004018080602001828103825260208152602001807f4f776e61626c653a2063616c6c6572206973206e6f7420746865206f776e657281525060200191505060405180910390fd5b600073ffffffffffffffffffffffffffffffffffffffff1660008054906101000a900473ffffffffffffffffffffffffffffffffffffffff1673ffffffffffffffffffffffffffffffffffffffff167f8be0079c531659141344cd1fd0a4f28419497f9722a3daafe3b4186f6b6457e060405160405180910390a360008060006101000a81548173ffffffffffffffffffffffffffffffffffffffff021916908373ffffffffffffffffffffffffffffffffffffffff160217905550565b600060149054906101000a900460ff1615610c37576040517f08c379a00000000000000000000000000000000000000000000000000000000081526004018080602001828103825260108152602001807f5061757361626c653a207061757365640000000000000000000000000000000081525060200191505060405180910390fd5b60003073ffffffffffffffffffffffffffffffffffffffff1663b69ef8a86040518163ffffffff1660e01b815260040160206040518083038186803b158015610c7f57600080fd5b505afa158015610c93573d6000803e3d6000fd5b505050506040513d6020811015610ca957600080fd5b810190808051906020019092919050505090506000600660009054906101000a900473ffffffffffffffffffffffffffffffffffffffff1673ffffffffffffffffffffffffffffffffffffffff166318160ddd6040518163ffffffff1660e01b815260040160206040518083038186803b158015610d2657600080fd5b505afa158015610d3a573d6000803e3d6000fd5b505050506040513d6020811015610d5057600080fd5b8101908080519060200190929190505050905081811115610f3e576000600660009054906101000a900473ffffffffffffffffffffffffffffffffffffffff1673ffffffffffffffffffffffffffffffffffffffff166370a08231306040518263ffffffff1660e01b8152600401808273ffffffffffffffffffffffffffffffffffffffff16815260200191505060206040518083038186803b158015610df657600080fd5b505afa158015610e0a573d6000803e3d6000fd5b505050506040513d6020811015610e2057600080fd5b810190808051906020019092919050505090506000811115610f3857600660009054906101000a900473ffffffffffffffffffffffffffffffffffffffff1673ffffffffffffffffffffffffffffffffffffffff16639dc29fac30610ea0610e918787611a3f90919063ffffffff16565b85611b7b90919063ffffffff16565b6040518363ffffffff1660e01b8152600401808373ffffffffffffffffffffffffffffffffffffffff16815260200182815260200192505050600060405180830381600087803b158015610ef357600080fd5b505af1158015610f07573d6000803e3d6000fd5b505050507ff57243a1fddfdc9fa2c7de26cc3503b1b94cfd4368d2b82d0970bfbb2fbce3a460405160405180910390a15b50611053565b8181101561105257600660009054906101000a900473ffffffffffffffffffffffffffffffffffffffff1673ffffffffffffffffffffffffffffffffffffffff166340c10f19600760009054906101000a900473ffffffffffffffffffffffffffffffffffffffff16610fba8486611a3f90919063ffffffff16565b6040518363ffffffff1660e01b8152600401808373ffffffffffffffffffffffffffffffffffffffff16815260200182815260200192505050600060405180830381600087803b15801561100d57600080fd5b505af1158015611021573d6000803e3d6000fd5b505050507ff57243a1fddfdc9fa2c7de26cc3503b1b94cfd4368d2b82d0970bfbb2fbce3a460405160405180910390a15b5b5050565b61105f611a37565b73ffffffffffffffffffffffffffffffffffffffff16600160009054906101000a900473ffffffffffffffffffffffffffffffffffffffff1673ffffffffffffffffffffffffffffffffffffffff1614806110f357506110bd611a37565b73ffffffffffffffffffffffffffffffffffffffff166110db611152565b73ffffffffffffffffffffffffffffffffffffffff16145b611148576040517f08c379a0000000000000000000000000000000000000000000000000000000008152600401808060200182810382526041815260200180611ec06041913960600191505060405180910390fd5b611150611b94565b565b60008060009054906101000a900473ffffffffffffffffffffffffffffffffffffffff16905090565b6000600480549050905090565b600160009054906101000a900473ffffffffffffffffffffffffffffffffffffffff1681565b6111b6611a37565b73ffffffffffffffffffffffffffffffffffffffff1660008054906101000a900473ffffffffffffffffffffffffffffffffffffffff1673ffffffffffffffffffffffffffffffffffffffff1614611276576040517f08c379a00000000000000000000000000000000000000000000000000000000081526004018080602001828103825260208152602001807f4f776e61626c653a2063616c6c6572206973206e6f7420746865206f776e657281525060200191505060405180910390fd5b6000600560008373ffffffffffffffffffffffffffffffffffffffff1673ffffffffffffffffffffffffffffffffffffffff1681526020019081526020016000205490506000811415611314576040517f08c379a000000000000000000000000000000000000000000000000000000000815260040180806020018281038252604b815260200180611fad604b913960600191505060405180910390fd5b600560008373ffffffffffffffffffffffffffffffffffffffff1673ffffffffffffffffffffffffffffffffffffffff168152602001908152602001600020600090556004611374600161136661117b565b611a3f90919063ffffffff16565b8154811061137e57fe5b9060005260206000200160009054906101000a900473ffffffffffffffffffffffffffffffffffffffff16600482815481106113b657fe5b9060005260206000200160006101000a81548173ffffffffffffffffffffffffffffffffffffffff021916908373ffffffffffffffffffffffffffffffffffffffff160217905550600461141b600161140d61117b565b611a3f90919063ffffffff16565b8154811061142557fe5b9060005260206000200160006101000a81549073ffffffffffffffffffffffffffffffffffffffff02191690557f045aab5b06d458a33b73cc4e8fe9deb81806e9e71ebe632715a9a446ba93a25482604051808273ffffffffffffffffffffffffffffffffffffffff16815260200191505060405180910390a15050565b600660009054906101000a900473ffffffffffffffffffffffffffffffffffffffff1681565b6114d1611a37565b73ffffffffffffffffffffffffffffffffffffffff1660008054906101000a900473ffffffffffffffffffffffffffffffffffffffff1673ffffffffffffffffffffffffffffffffffffffff1614611591576040517f08c379a00000000000000000000000000000000000000000000000000000000081526004018080602001828103825260208152602001807f4f776e61626c653a2063616c6c6572206973206e6f7420746865206f776e657281525060200191505060405180910390fd5b80600760006101000a81548173ffffffffffffffffffffffffffffffffffffffff021916908373ffffffffffffffffffffffffffffffffffffffff1602179055507f8c1f0fc9d21bc6b2caefad17646ff4be88105c7f3517bf08c7a751936e513f84600760009054906101000a900473ffffffffffffffffffffffffffffffffffffffff16604051808273ffffffffffffffffffffffffffffffffffffffff16815260200191505060405180910390a150565b60008060005b61165261117b565b8110156118245760006004828154811061166857fe5b9060005260206000200160009054906101000a900473ffffffffffffffffffffffffffffffffffffffff1673ffffffffffffffffffffffffffffffffffffffff1663b69ef8a86040518163ffffffff1660e01b815260040160206040518083038186803b1580156116d857600080fd5b505afa1580156116ec573d6000803e3d6000fd5b505050506040513d602081101561170257600080fd5b8101908080519060200190929190505050905060006004838154811061172457fe5b9060005260206000200160009054906101000a900473ffffffffffffffffffffffffffffffffffffffff1673ffffffffffffffffffffffffffffffffffffffff1663313ce5676040518163ffffffff1660e01b815260040160206040518083038186803b15801561179457600080fd5b505afa1580156117a8573d6000803e3d6000fd5b505050506040513d60208110156117be57600080fd5b8101908080519060200190929190505050905060006117e882600354611a3f90919063ffffffff16565b905061181261180382600a0a85611c8890919063ffffffff16565b86611d0e90919063ffffffff16565b9450505050808060010191505061164a565b508091505090565b611834611a37565b73ffffffffffffffffffffffffffffffffffffffff1660008054906101000a900473ffffffffffffffffffffffffffffffffffffffff1673ffffffffffffffffffffffffffffffffffffffff16146118f4576040517f08c379a00000000000000000000000000000000000000000000000000000000081526004018080602001828103825260208152602001807f4f776e61626c653a2063616c6c6572206973206e6f7420746865206f776e657281525060200191505060405180910390fd5b600073ffffffffffffffffffffffffffffffffffffffff168173ffffffffffffffffffffffffffffffffffffffff16141561197a576040517f08c379a0000000000000000000000000000000000000000000000000000000008152600401808060200182810382526026815260200180611e9a6026913960400191505060405180910390fd5b8073ffffffffffffffffffffffffffffffffffffffff1660008054906101000a900473ffffffffffffffffffffffffffffffffffffffff1673ffffffffffffffffffffffffffffffffffffffff167f8be0079c531659141344cd1fd0a4f28419497f9722a3daafe3b4186f6b6457e060405160405180910390a3806000806101000a81548173ffffffffffffffffffffffffffffffffffffffff021916908373ffffffffffffffffffffffffffffffffffffffff16021790555050565b600033905090565b6000611a8183836040518060400160405280601e81526020017f536166654d6174683a207375627472616374696f6e206f766572666c6f770000815250611d96565b905092915050565b600060149054906101000a900460ff16611b0b576040517f08c379a00000000000000000000000000000000000000000000000000000000081526004018080602001828103825260148152602001807f5061757361626c653a206e6f742070617573656400000000000000000000000081525060200191505060405180910390fd5b60008060146101000a81548160ff0219169083151502179055507f5db9ee0a495bf2e6ff9c91a7834c1ba4fdd244a5e8aa4e537bd38aeae4b073aa611b4e611a37565b604051808273ffffffffffffffffffffffffffffffffffffffff16815260200191505060405180910390a1565b6000818310611b8a5781611b8c565b825b905092915050565b600060149054906101000a900460ff1615611c17576040517f08c379a00000000000000000000000000000000000000000000000000000000081526004018080602001828103825260108152602001807f5061757361626c653a207061757365640000000000000000000000000000000081525060200191505060405180910390fd5b6001600060146101000a81548160ff0219169083151502179055507f62e78cea01bee320cd4e420270b5ea74000d11b0c9f74754ebdbfc544b05a258611c5b611a37565b604051808273ffffffffffffffffffffffffffffffffffffffff16815260200191505060405180910390a1565b600080831415611c9b5760009050611d08565b6000828402905082848281611cac57fe5b0414611d03576040517f08c379a0000000000000000000000000000000000000000000000000000000008152600401808060200182810382526021815260200180611f8c6021913960400191505060405180910390fd5b809150505b92915050565b600080828401905083811015611d8c576040517f08c379a000000000000000000000000000000000000000000000000000000000815260040180806020018281038252601b8152602001807f536166654d6174683a206164646974696f6e206f766572666c6f77000000000081525060200191505060405180910390fd5b8091505092915050565b6000838311158290611e43576040517f08c379a00000000000000000000000000000000000000000000000000000000081526004018080602001828103825283818151815260200191508051906020019080838360005b83811015611e08578082015181840152602081019050611ded565b50505050905090810190601f168015611e355780820380516001836020036101000a031916815260200191505b509250505060405180910390fd5b506000838503905080915050939250505056fe41677265676174654465706f73697461727942616c616e6365566965773a3a6164644465706f7369746172793a20746f6f206d616e79206465706f73697461726965734f776e61626c653a206e6577206f776e657220697320746865207a65726f20616464726573734f776e61626c655061757361626c653a3a70617573653a206f6e6c792070617573657220616e64206f776e6572206d75737420706175736520636f6e74726163744f776e61626c655061757361626c653a3a756e70617573653a206f6e6c792070617573657220616e64206f776e6572206d75737420756e706175736520636f6e747261637441677265676174654465706f73697461727942616c616e6365566965773a3a6164644465706f7369746172793a206465706f73697461727920616c7265616479206164646564536166654d6174683a206d756c7469706c69636174696f6e206f766572666c6f7741677265676174654465706f73697461727942616c616e6365566965773a3a72656d6f76654465706f7369746172793a206465706f73697461727920616c72656164792072656d6f766564a2646970667358221220f4253fc2b35e90753e83f21c98c4bdd9d380db07da2da89dc3e6c77b87192b7264736f6c634300060c0033",
  "devdoc": {
    "kind": "dev",
    "methods": {
      "addDepositary(address)": {
        "params": {
          "depositary": "Added depositary address."
        }
      },
      "balance()": {
        "returns": {
          "_0": "Balance of depositary."
        }
      },
      "changePauser(address)": {
        "params": {
          "newPauser": "Address of new pauser account."
        }
      },
      "changeTreasury(address)": {
        "params": {
          "_treasury": "New address Treasury contract."
        }
      },
      "constructor": {
        "params": {
          "_stableToken": "Stable token contract address.",
          "_treasury": "Treasury contract address."
        }
      },
      "owner()": {
        "details": "Returns the address of the current owner."
      },
      "paused()": {
        "details": "Returns true if the contract is paused, and false otherwise."
      },
      "removeDepositary(address)": {
        "params": {
          "depositary": "Removed depositary address."
        }
      },
      "renounceOwnership()": {
        "details": "Leaves the contract without owner. It will not be possible to call `onlyOwner` functions anymore. Can only be called by the current owner. NOTE: Renouncing ownership will leave the contract without an owner, thereby removing any functionality that is only available to the owner."
      },
      "size()": {
        "returns": {
          "_0": "Depositaries count of agregate."
        }
      },
      "transferOwnership(address)": {
        "details": "Transfers ownership of the contract to a new account (`newOwner`). Can only be called by the current owner."
      }
    },
    "version": 1
  },
  "userdoc": {
    "events": {
      "DepositaryAdded(address)": {
        "notice": "An event thats emitted when an new depositary added to agregate."
      },
      "DepositaryRemoved(address)": {
        "notice": "An event thats emitted when an depositary removed from agregate."
      },
      "PauserChanged(address)": {
        "notice": "An event thats emitted when an pauser address changed."
      },
      "Rebalance()": {
        "notice": "An event thats emitted when an stable token total supply rebalanced."
      },
      "TransferTreasury(address)": {
        "notice": "An event thats emitted when an Treasury contract transfered."
      }
    },
    "kind": "user",
    "methods": {
      "addDepositary(address)": {
        "notice": "Add depositary address to agregate."
      },
      "balance()": {
        "notice": "Get balance of depositary."
      },
      "changePauser(address)": {
        "notice": "Change pauser account."
      },
      "changeTreasury(address)": {
        "notice": "Transfer Treasury contract to new address."
      },
      "decimals()": {
        "notice": "Decimals balance."
      },
      "depositaries(uint256)": {
        "notice": "Depositaries in agregate."
      },
      "maxSize()": {
        "notice": "The number of depositaries in agregate."
      },
      "pause()": {
        "notice": "Triggers stopped state."
      },
      "pauser()": {
        "notice": "Address that can pause a contract."
      },
      "rebalance()": {
        "notice": "Rebalance stable token total supply by depositary balance. Mint stable token if depositary balance greater token total supply and burn otherwise."
      },
      "removeDepositary(address)": {
        "notice": "Removed depositary address from agregate."
      },
      "stableToken()": {
        "notice": "Stable token contract address."
      },
      "treasury()": {
        "notice": "Treasury contract address."
      },
      "unpause()": {
        "notice": "Returns to normal state."
      }
    },
    "version": 1
  },
  "storageLayout": {
    "storage": [
      {
        "astId": 30,
        "contract": "contracts/Issuer.sol:Issuer",
        "label": "_owner",
        "offset": 0,
        "slot": "0",
        "type": "t_address"
      },
      {
        "astId": 1806,
        "contract": "contracts/Issuer.sol:Issuer",
        "label": "_paused",
        "offset": 20,
        "slot": "0",
        "type": "t_bool"
      },
      {
        "astId": 12392,
        "contract": "contracts/Issuer.sol:Issuer",
        "label": "pauser",
        "offset": 0,
        "slot": "1",
        "type": "t_address"
      },
      {
        "astId": 8601,
        "contract": "contracts/Issuer.sol:Issuer",
        "label": "maxSize",
        "offset": 0,
        "slot": "2",
        "type": "t_uint256"
      },
      {
        "astId": 8605,
        "contract": "contracts/Issuer.sol:Issuer",
        "label": "decimals",
        "offset": 0,
        "slot": "3",
        "type": "t_uint256"
      },
      {
        "astId": 8609,
        "contract": "contracts/Issuer.sol:Issuer",
        "label": "depositaries",
        "offset": 0,
        "slot": "4",
        "type": "t_array(t_contract(IDepositaryBalanceView)9288)dyn_storage"
      },
      {
        "astId": 8614,
        "contract": "contracts/Issuer.sol:Issuer",
        "label": "depositariesIndex",
        "offset": 0,
        "slot": "5",
        "type": "t_mapping(t_address,t_uint256)"
      },
      {
        "astId": 5795,
        "contract": "contracts/Issuer.sol:Issuer",
        "label": "stableToken",
        "offset": 0,
        "slot": "6",
        "type": "t_contract(StableToken)7026"
      },
      {
        "astId": 5798,
        "contract": "contracts/Issuer.sol:Issuer",
        "label": "treasury",
        "offset": 0,
        "slot": "7",
        "type": "t_address"
      }
    ],
    "types": {
      "t_address": {
        "encoding": "inplace",
        "label": "address",
        "numberOfBytes": "20"
      },
      "t_array(t_contract(IDepositaryBalanceView)9288)dyn_storage": {
        "base": "t_contract(IDepositaryBalanceView)9288",
        "encoding": "dynamic_array",
        "label": "contract IDepositaryBalanceView[]",
        "numberOfBytes": "32"
      },
      "t_bool": {
        "encoding": "inplace",
        "label": "bool",
        "numberOfBytes": "1"
      },
      "t_contract(IDepositaryBalanceView)9288": {
        "encoding": "inplace",
        "label": "contract IDepositaryBalanceView",
        "numberOfBytes": "20"
      },
      "t_contract(StableToken)7026": {
        "encoding": "inplace",
        "label": "contract StableToken",
        "numberOfBytes": "20"
      },
      "t_mapping(t_address,t_uint256)": {
        "encoding": "mapping",
        "key": "t_address",
        "label": "mapping(address => uint256)",
        "numberOfBytes": "32",
        "value": "t_uint256"
      },
      "t_uint256": {
        "encoding": "inplace",
        "label": "uint256",
        "numberOfBytes": "32"
      }
    }
  }
}