{
  "address": "0x5fE3063Aba92ECe2133B0Ab6bA89433657903989",
  "abi": [
    {
      "inputs": [
        {
          "internalType": "address",
          "name": "_cumulative",
          "type": "address"
        },
        {
          "internalType": "address",
          "name": "_productToken",
          "type": "address"
        },
        {
          "internalType": "address",
          "name": "_rewardToken",
          "type": "address"
        },
        {
          "internalType": "address",
          "name": "_uniswapRouter",
          "type": "address"
        },
        {
          "internalType": "address",
          "name": "_priceOracle",
          "type": "address"
        }
      ],
      "stateMutability": "nonpayable",
      "type": "constructor"
    },
    {
      "anonymous": false,
      "inputs": [
        {
          "indexed": false,
          "internalType": "address",
          "name": "customer",
          "type": "address"
        },
        {
          "indexed": false,
          "internalType": "address",
          "name": "token",
          "type": "address"
        },
        {
          "indexed": false,
          "internalType": "uint256",
          "name": "amount",
          "type": "uint256"
        },
        {
          "indexed": false,
          "internalType": "uint256",
          "name": "buy",
          "type": "uint256"
        },
        {
          "indexed": false,
          "internalType": "uint256",
          "name": "reward",
          "type": "uint256"
        }
      ],
      "name": "Buy",
      "type": "event"
    },
    {
      "anonymous": false,
      "inputs": [
        {
          "indexed": false,
          "internalType": "address",
          "name": "newToken",
          "type": "address"
        }
      ],
      "name": "CumulativeChanged",
      "type": "event"
    },
    {
      "anonymous": false,
      "inputs": [
        {
          "indexed": true,
          "internalType": "address",
          "name": "previousOwner",
          "type": "address"
        },
        {
          "indexed": true,
          "internalType": "address",
          "name": "newOwner",
          "type": "address"
        }
      ],
      "name": "OwnershipTransferred",
      "type": "event"
    },
    {
      "anonymous": false,
      "inputs": [
        {
          "indexed": false,
          "internalType": "address",
          "name": "account",
          "type": "address"
        }
      ],
      "name": "Paused",
      "type": "event"
    },
    {
      "anonymous": false,
      "inputs": [
        {
          "indexed": false,
          "internalType": "address",
          "name": "newPauser",
          "type": "address"
        }
      ],
      "name": "PauserChanged",
      "type": "event"
    },
    {
      "anonymous": false,
      "inputs": [
        {
          "indexed": false,
          "internalType": "address",
          "name": "newPriceOracle",
          "type": "address"
        }
      ],
      "name": "PriceOracleChanged",
      "type": "event"
    },
    {
      "anonymous": false,
      "inputs": [
        {
          "indexed": false,
          "internalType": "address",
          "name": "token",
          "type": "address"
        },
        {
          "indexed": false,
          "internalType": "string",
          "name": "symbol",
          "type": "string"
        }
      ],
      "name": "TokenAllowed",
      "type": "event"
    },
    {
      "anonymous": false,
      "inputs": [
        {
          "indexed": false,
          "internalType": "address",
          "name": "token",
          "type": "address"
        }
      ],
      "name": "TokenDenied",
      "type": "event"
    },
    {
      "anonymous": false,
      "inputs": [
        {
          "indexed": false,
          "internalType": "address",
          "name": "newUniswapRouter",
          "type": "address"
        }
      ],
      "name": "UniswapRouterChanged",
      "type": "event"
    },
    {
      "anonymous": false,
      "inputs": [
        {
          "indexed": false,
          "internalType": "address",
          "name": "account",
          "type": "address"
        }
      ],
      "name": "Unpaused",
      "type": "event"
    },
    {
      "anonymous": false,
      "inputs": [
        {
          "indexed": false,
          "internalType": "address",
          "name": "recipient",
          "type": "address"
        },
        {
          "indexed": false,
          "internalType": "address",
          "name": "token",
          "type": "address"
        },
        {
          "indexed": false,
          "internalType": "uint256",
          "name": "amount",
          "type": "uint256"
        }
      ],
      "name": "Withdrawal",
      "type": "event"
    },
    {
      "inputs": [],
      "name": "PRICE_DECIMALS",
      "outputs": [
        {
          "internalType": "uint256",
          "name": "",
          "type": "uint256"
        }
      ],
      "stateMutability": "view",
      "type": "function"
    },
    {
      "inputs": [],
      "name": "REWARD_DECIMALS",
      "outputs": [
        {
          "internalType": "uint256",
          "name": "",
          "type": "uint256"
        }
      ],
      "stateMutability": "view",
      "type": "function"
    },
    {
      "inputs": [
        {
          "internalType": "address",
          "name": "token",
          "type": "address"
        },
        {
          "internalType": "string",
          "name": "symbol",
          "type": "string"
        }
      ],
      "name": "allowToken",
      "outputs": [],
      "stateMutability": "nonpayable",
      "type": "function"
    },
    {
      "inputs": [
        {
          "internalType": "address",
          "name": "currency",
          "type": "address"
        },
        {
          "internalType": "uint256",
          "name": "payment",
          "type": "uint256"
        }
      ],
      "name": "buy",
      "outputs": [
        {
          "internalType": "bool",
          "name": "",
          "type": "bool"
        }
      ],
      "stateMutability": "nonpayable",
      "type": "function"
    },
    {
      "inputs": [],
      "name": "buyFromETH",
      "outputs": [
        {
          "internalType": "bool",
          "name": "",
          "type": "bool"
        }
      ],
      "stateMutability": "payable",
      "type": "function"
    },
    {
      "inputs": [
        {
          "internalType": "address",
          "name": "newToken",
          "type": "address"
        },
        {
          "internalType": "address",
          "name": "recipient",
          "type": "address"
        }
      ],
      "name": "changeCumulativeToken",
      "outputs": [],
      "stateMutability": "nonpayable",
      "type": "function"
    },
    {
      "inputs": [
        {
          "internalType": "address",
          "name": "newPauser",
          "type": "address"
        }
      ],
      "name": "changePauser",
      "outputs": [],
      "stateMutability": "nonpayable",
      "type": "function"
    },
    {
      "inputs": [
        {
          "internalType": "address",
          "name": "_priceOracle",
          "type": "address"
        }
      ],
      "name": "changePriceOracle",
      "outputs": [],
      "stateMutability": "nonpayable",
      "type": "function"
    },
    {
      "inputs": [
        {
          "internalType": "address",
          "name": "_uniswapRouter",
          "type": "address"
        }
      ],
      "name": "changeUniswapRouter",
      "outputs": [],
      "stateMutability": "nonpayable",
      "type": "function"
    },
    {
      "inputs": [],
      "name": "cumulative",
      "outputs": [
        {
          "internalType": "contract ERC20",
          "name": "",
          "type": "address"
        }
      ],
      "stateMutability": "view",
      "type": "function"
    },
    {
      "inputs": [
        {
          "internalType": "address",
          "name": "token",
          "type": "address"
        }
      ],
      "name": "denyToken",
      "outputs": [],
      "stateMutability": "nonpayable",
      "type": "function"
    },
    {
      "inputs": [
        {
          "internalType": "address",
          "name": "token",
          "type": "address"
        }
      ],
      "name": "isAllowedToken",
      "outputs": [
        {
          "internalType": "bool",
          "name": "",
          "type": "bool"
        }
      ],
      "stateMutability": "view",
      "type": "function"
    },
    {
      "inputs": [],
      "name": "owner",
      "outputs": [
        {
          "internalType": "address",
          "name": "",
          "type": "address"
        }
      ],
      "stateMutability": "view",
      "type": "function"
    },
    {
      "inputs": [],
      "name": "pause",
      "outputs": [],
      "stateMutability": "nonpayable",
      "type": "function"
    },
    {
      "inputs": [],
      "name": "paused",
      "outputs": [
        {
          "internalType": "bool",
          "name": "",
          "type": "bool"
        }
      ],
      "stateMutability": "view",
      "type": "function"
    },
    {
      "inputs": [],
      "name": "pauser",
      "outputs": [
        {
          "internalType": "address",
          "name": "",
          "type": "address"
        }
      ],
      "stateMutability": "view",
      "type": "function"
    },
    {
      "inputs": [
        {
          "internalType": "address",
          "name": "currency",
          "type": "address"
        },
        {
          "internalType": "uint256",
          "name": "payment",
          "type": "uint256"
        }
      ],
      "name": "price",
      "outputs": [
        {
          "internalType": "uint256",
          "name": "product",
          "type": "uint256"
        },
        {
          "internalType": "uint256",
          "name": "reward",
          "type": "uint256"
        }
      ],
      "stateMutability": "view",
      "type": "function"
    },
    {
      "inputs": [],
      "name": "priceOracle",
      "outputs": [
        {
          "internalType": "contract IUniswapAnchoredView",
          "name": "",
          "type": "address"
        }
      ],
      "stateMutability": "view",
      "type": "function"
    },
    {
      "inputs": [],
      "name": "productToken",
      "outputs": [
        {
          "internalType": "contract ERC20",
          "name": "",
          "type": "address"
        }
      ],
      "stateMutability": "view",
      "type": "function"
    },
    {
      "inputs": [],
      "name": "renounceOwnership",
      "outputs": [],
      "stateMutability": "nonpayable",
      "type": "function"
    },
    {
      "inputs": [],
      "name": "rewardToken",
      "outputs": [
        {
          "internalType": "contract ERC20",
          "name": "",
          "type": "address"
        }
      ],
      "stateMutability": "view",
      "type": "function"
    },
    {
      "inputs": [
        {
          "internalType": "address",
          "name": "newOwner",
          "type": "address"
        }
      ],
      "name": "transferOwnership",
      "outputs": [],
      "stateMutability": "nonpayable",
      "type": "function"
    },
    {
      "inputs": [
        {
          "internalType": "address",
          "name": "recipient",
          "type": "address"
        },
        {
          "internalType": "uint256",
          "name": "amount",
          "type": "uint256"
        }
      ],
      "name": "transferProductToken",
      "outputs": [],
      "stateMutability": "nonpayable",
      "type": "function"
    },
    {
      "inputs": [
        {
          "internalType": "address",
          "name": "recipient",
          "type": "address"
        },
        {
          "internalType": "uint256",
          "name": "amount",
          "type": "uint256"
        }
      ],
      "name": "transferRewardToken",
      "outputs": [],
      "stateMutability": "nonpayable",
      "type": "function"
    },
    {
      "inputs": [],
      "name": "uniswapRouter",
      "outputs": [
        {
          "internalType": "contract IUniswapV2Router02",
          "name": "",
          "type": "address"
        }
      ],
      "stateMutability": "view",
      "type": "function"
    },
    {
      "inputs": [],
      "name": "unpause",
      "outputs": [],
      "stateMutability": "nonpayable",
      "type": "function"
    },
    {
      "inputs": [
        {
          "internalType": "address",
          "name": "recipient",
          "type": "address"
        }
      ],
      "name": "withdraw",
      "outputs": [],
      "stateMutability": "nonpayable",
      "type": "function"
    }
  ],
  "transactionHash": "0xf3e7119a61fa08258bd5e8470a46e906889d6ceb9b76db08c1ccad113d0ddb16",
  "args": [
    "0x0D9C8723B343A8368BebE0B5E89273fF8D712e3C",
    "0x634d4614f16B12d7dB11Ab47b28202a1983AAD24",
    "0x9747D80cDCE1E595546c6695A01eC73A77c9E7e9",
    "0x7a250d5630B4cF539739dF2C5dAcb4c659F2488D",
    "0xbef4e076a995c784be6094a432b9ca99b7431a3f"
  ],
  "solcInputHash": "ecdf97c618a671f9032b8c6c297396c1",
  "bytecode": "0x60806040523480156200001157600080fd5b5060405162004b9038038062004b90833981810160405260a08110156200003757600080fd5b810190808051906020019092919080519060200190929190805190602001909291908051906020019092919080519060200190929190505050600062000082620002da60201b60201c565b9050806000806101000a81548173ffffffffffffffffffffffffffffffffffffffff021916908373ffffffffffffffffffffffffffffffffffffffff1602179055508073ffffffffffffffffffffffffffffffffffffffff16600073ffffffffffffffffffffffffffffffffffffffff167f8be0079c531659141344cd1fd0a4f28419497f9722a3daafe3b4186f6b6457e060405160405180910390a35060008060146101000a81548160ff0219169083151502179055506200014a620002e260201b60201c565b600160006101000a81548173ffffffffffffffffffffffffffffffffffffffff021916908373ffffffffffffffffffffffffffffffffffffffff16021790555084600260006101000a81548173ffffffffffffffffffffffffffffffffffffffff021916908373ffffffffffffffffffffffffffffffffffffffff16021790555083600360006101000a81548173ffffffffffffffffffffffffffffffffffffffff021916908373ffffffffffffffffffffffffffffffffffffffff16021790555082600460006101000a81548173ffffffffffffffffffffffffffffffffffffffff021916908373ffffffffffffffffffffffffffffffffffffffff16021790555081600560006101000a81548173ffffffffffffffffffffffffffffffffffffffff021916908373ffffffffffffffffffffffffffffffffffffffff16021790555080600660006101000a81548173ffffffffffffffffffffffffffffffffffffffff021916908373ffffffffffffffffffffffffffffffffffffffff16021790555050505050506200030b565b600033905090565b60008060009054906101000a900473ffffffffffffffffffffffffffffffffffffffff16905090565b614875806200031b6000396000f3fe60806040526004361061019c5760003560e01c80638da5cb5b116100ec578063cbe230c31161008a578063f1a640f811610064578063f1a640f814610839578063f2fde38b14610864578063f6a399e2146108b5578063f7c618c1146109105761019c565b8063cbe230c3146106bb578063cce7ec1314610722578063d55e6494146107935761019c565b8063adc3fa53116100c6578063adc3fa5314610593578063c3370837146105be578063c5ea3d831461060f578063ca9f81ca146106605761019c565b80638da5cb5b1461049b5780639fd0506d146104dc578063ad9b80241461051d5761019c565b806351cff8d911610159578063735de9f711610133578063735de9f7146103e25780637ae176ff146104235780637b3a3195146104645780638456cb59146104845761019c565b806351cff8d91461034d5780635c975abb1461039e578063715018a6146103cb5761019c565b806325b4f65f146101a15780632630c12f146101e25780632ccde94b146102235780632cd271e7146102745780633a3c2da7146102c55780633f4ba83a14610336575b600080fd5b3480156101ad57600080fd5b506101b6610951565b604051808273ffffffffffffffffffffffffffffffffffffffff16815260200191505060405180910390f35b3480156101ee57600080fd5b506101f7610977565b604051808273ffffffffffffffffffffffffffffffffffffffff16815260200191505060405180910390f35b34801561022f57600080fd5b506102726004803603602081101561024657600080fd5b81019080803573ffffffffffffffffffffffffffffffffffffffff16906020019092919050505061099d565b005b34801561028057600080fd5b506102c36004803603602081101561029757600080fd5b81019080803573ffffffffffffffffffffffffffffffffffffffff169060200190929190505050610af6565b005b3480156102d157600080fd5b50610334600480360360408110156102e857600080fd5b81019080803573ffffffffffffffffffffffffffffffffffffffff169060200190929190803573ffffffffffffffffffffffffffffffffffffffff169060200190929190505050610c71565b005b34801561034257600080fd5b5061034b610dd4565b005b34801561035957600080fd5b5061039c6004803603602081101561037057600080fd5b81019080803573ffffffffffffffffffffffffffffffffffffffff169060200190929190505050610ecf565b005b3480156103aa57600080fd5b506103b36111cb565b60405180821515815260200191505060405180910390f35b3480156103d757600080fd5b506103e06111e1565b005b3480156103ee57600080fd5b506103f7611367565b604051808273ffffffffffffffffffffffffffffffffffffffff16815260200191505060405180910390f35b34801561042f57600080fd5b5061043861138d565b604051808273ffffffffffffffffffffffffffffffffffffffff16815260200191505060405180910390f35b61046c6113b3565b60405180821515815260200191505060405180910390f35b34801561049057600080fd5b506104996119de565b005b3480156104a757600080fd5b506104b0611ad9565b604051808273ffffffffffffffffffffffffffffffffffffffff16815260200191505060405180910390f35b3480156104e857600080fd5b506104f1611b02565b604051808273ffffffffffffffffffffffffffffffffffffffff16815260200191505060405180910390f35b34801561052957600080fd5b506105766004803603604081101561054057600080fd5b81019080803573ffffffffffffffffffffffffffffffffffffffff16906020019092919080359060200190929190505050611b28565b604051808381526020018281526020019250505060405180910390f35b34801561059f57600080fd5b506105a8612398565b6040518082815260200191505060405180910390f35b3480156105ca57600080fd5b5061060d600480360360208110156105e157600080fd5b81019080803573ffffffffffffffffffffffffffffffffffffffff16906020019092919050505061239d565b005b34801561061b57600080fd5b5061065e6004803603602081101561063257600080fd5b81019080803573ffffffffffffffffffffffffffffffffffffffff1690602001909291905050506124f6565b005b34801561066c57600080fd5b506106b96004803603604081101561068357600080fd5b81019080803573ffffffffffffffffffffffffffffffffffffffff16906020019092919080359060200190929190505050612671565b005b3480156106c757600080fd5b5061070a600480360360208110156106de57600080fd5b81019080803573ffffffffffffffffffffffffffffffffffffffff16906020019092919050505061276a565b60405180821515815260200191505060405180910390f35b34801561072e57600080fd5b5061077b6004803603604081101561074557600080fd5b81019080803573ffffffffffffffffffffffffffffffffffffffff169060200190929190803590602001909291905050506127ca565b60405180821515815260200191505060405180910390f35b34801561079f57600080fd5b50610837600480360360408110156107b657600080fd5b81019080803573ffffffffffffffffffffffffffffffffffffffff169060200190929190803590602001906401000000008111156107f357600080fd5b82018360208201111561080557600080fd5b8035906020019184600183028401116401000000008311171561082757600080fd5b9091929391929390505050612dfb565b005b34801561084557600080fd5b5061084e612f98565b6040518082815260200191505060405180910390f35b34801561087057600080fd5b506108b36004803603602081101561088757600080fd5b81019080803573ffffffffffffffffffffffffffffffffffffffff169060200190929190505050612f9d565b005b3480156108c157600080fd5b5061090e600480360360408110156108d857600080fd5b81019080803573ffffffffffffffffffffffffffffffffffffffff169060200190929190803590602001909291905050506131a8565b005b34801561091c57600080fd5b506109256132a1565b604051808273ffffffffffffffffffffffffffffffffffffffff16815260200191505060405180910390f35b600360009054906101000a900473ffffffffffffffffffffffffffffffffffffffff1681565b600660009054906101000a900473ffffffffffffffffffffffffffffffffffffffff1681565b6109a56132c7565b73ffffffffffffffffffffffffffffffffffffffff1660008054906101000a900473ffffffffffffffffffffffffffffffffffffffff1673ffffffffffffffffffffffffffffffffffffffff1614610a65576040517f08c379a00000000000000000000000000000000000000000000000000000000081526004018080602001828103825260208152602001807f4f776e61626c653a2063616c6c6572206973206e6f7420746865206f776e657281525060200191505060405180910390fd5b80600660006101000a81548173ffffffffffffffffffffffffffffffffffffffff021916908373ffffffffffffffffffffffffffffffffffffffff1602179055507fb36d86785c7d32b1ad714bb705e00e93eccc37b8cf47549043e61e10908ad25181604051808273ffffffffffffffffffffffffffffffffffffffff16815260200191505060405180910390a150565b610afe6132c7565b73ffffffffffffffffffffffffffffffffffffffff1660008054906101000a900473ffffffffffffffffffffffffffffffffffffffff1673ffffffffffffffffffffffffffffffffffffffff1614610bbe576040517f08c379a00000000000000000000000000000000000000000000000000000000081526004018080602001828103825260208152602001807f4f776e61626c653a2063616c6c6572206973206e6f7420746865206f776e657281525060200191505060405180910390fd5b80600160006101000a81548173ffffffffffffffffffffffffffffffffffffffff021916908373ffffffffffffffffffffffffffffffffffffffff1602179055507fb80482a293ca2e013eda8683c9bd7fc8347cfdaeea5ede58cba46df502c2a604600160009054906101000a900473ffffffffffffffffffffffffffffffffffffffff16604051808273ffffffffffffffffffffffffffffffffffffffff16815260200191505060405180910390a150565b610c796132c7565b73ffffffffffffffffffffffffffffffffffffffff1660008054906101000a900473ffffffffffffffffffffffffffffffffffffffff1673ffffffffffffffffffffffffffffffffffffffff1614610d39576040517f08c379a00000000000000000000000000000000000000000000000000000000081526004018080602001828103825260208152602001807f4f776e61626c653a2063616c6c6572206973206e6f7420746865206f776e657281525060200191505060405180910390fd5b610d4281610ecf565b81600260006101000a81548173ffffffffffffffffffffffffffffffffffffffff021916908373ffffffffffffffffffffffffffffffffffffffff1602179055507f211984bb289184fd6dff2b81a63abf6245c2ad65b2509acf4cdff1fcc0a8734c82604051808273ffffffffffffffffffffffffffffffffffffffff16815260200191505060405180910390a15050565b610ddc6132c7565b73ffffffffffffffffffffffffffffffffffffffff16600160009054906101000a900473ffffffffffffffffffffffffffffffffffffffff1673ffffffffffffffffffffffffffffffffffffffff161480610e705750610e3a6132c7565b73ffffffffffffffffffffffffffffffffffffffff16610e58611ad9565b73ffffffffffffffffffffffffffffffffffffffff16145b610ec5576040517f08c379a00000000000000000000000000000000000000000000000000000000081526004018080602001828103825260458152602001806146706045913960600191505060405180910390fd5b610ecd6132cf565b565b610ed76132c7565b73ffffffffffffffffffffffffffffffffffffffff1660008054906101000a900473ffffffffffffffffffffffffffffffffffffffff1673ffffffffffffffffffffffffffffffffffffffff1614610f97576040517f08c379a00000000000000000000000000000000000000000000000000000000081526004018080602001828103825260208152602001807f4f776e61626c653a2063616c6c6572206973206e6f7420746865206f776e657281525060200191505060405180910390fd5b600073ffffffffffffffffffffffffffffffffffffffff168173ffffffffffffffffffffffffffffffffffffffff16141561101d576040517f08c379a000000000000000000000000000000000000000000000000000000000815260040180806020018281038252603581526020018061472f6035913960400191505060405180910390fd5b6000600260009054906101000a900473ffffffffffffffffffffffffffffffffffffffff1673ffffffffffffffffffffffffffffffffffffffff166370a08231306040518263ffffffff1660e01b8152600401808273ffffffffffffffffffffffffffffffffffffffff16815260200191505060206040518083038186803b1580156110a857600080fd5b505afa1580156110bc573d6000803e3d6000fd5b505050506040513d60208110156110d257600080fd5b810190808051906020019092919050505090506111328282600260009054906101000a900473ffffffffffffffffffffffffffffffffffffffff1673ffffffffffffffffffffffffffffffffffffffff166133c19092919063ffffffff16565b7f2717ead6b9200dd235aad468c9809ea400fe33ac69b5bfaa6d3e90fc922b639882600260009054906101000a900473ffffffffffffffffffffffffffffffffffffffff1683604051808473ffffffffffffffffffffffffffffffffffffffff1681526020018373ffffffffffffffffffffffffffffffffffffffff168152602001828152602001935050505060405180910390a15050565b60008060149054906101000a900460ff16905090565b6111e96132c7565b73ffffffffffffffffffffffffffffffffffffffff1660008054906101000a900473ffffffffffffffffffffffffffffffffffffffff1673ffffffffffffffffffffffffffffffffffffffff16146112a9576040517f08c379a00000000000000000000000000000000000000000000000000000000081526004018080602001828103825260208152602001807f4f776e61626c653a2063616c6c6572206973206e6f7420746865206f776e657281525060200191505060405180910390fd5b600073ffffffffffffffffffffffffffffffffffffffff1660008054906101000a900473ffffffffffffffffffffffffffffffffffffffff1673ffffffffffffffffffffffffffffffffffffffff167f8be0079c531659141344cd1fd0a4f28419497f9722a3daafe3b4186f6b6457e060405160405180910390a360008060006101000a81548173ffffffffffffffffffffffffffffffffffffffff021916908373ffffffffffffffffffffffffffffffffffffffff160217905550565b600560009054906101000a900473ffffffffffffffffffffffffffffffffffffffff1681565b600260009054906101000a900473ffffffffffffffffffffffffffffffffffffffff1681565b60008060149054906101000a900460ff1615611437576040517f08c379a00000000000000000000000000000000000000000000000000000000081526004018080602001828103825260108152602001807f5061757361626c653a207061757365640000000000000000000000000000000081525060200191505060405180910390fd5b6000600560009054906101000a900473ffffffffffffffffffffffffffffffffffffffff1673ffffffffffffffffffffffffffffffffffffffff1663ad5c46486040518163ffffffff1660e01b815260040160206040518083038186803b1580156114a157600080fd5b505afa1580156114b5573d6000803e3d6000fd5b505050506040513d60208110156114cb57600080fd5b8101908080519060200190929190505050905060003490506000806114f08484611b28565b915091506000600360009054906101000a900473ffffffffffffffffffffffffffffffffffffffff1673ffffffffffffffffffffffffffffffffffffffff166370a08231306040518263ffffffff1660e01b8152600401808273ffffffffffffffffffffffffffffffffffffffff16815260200191505060206040518083038186803b15801561157f57600080fd5b505afa158015611593573d6000803e3d6000fd5b505050506040513d60208110156115a957600080fd5b8101908080519060200190929190505050905080831115611615576040517f08c379a00000000000000000000000000000000000000000000000000000000081526004018080602001828103825260248152602001806147c36024913960400191505060405180910390fd5b600260009054906101000a900473ffffffffffffffffffffffffffffffffffffffff1673ffffffffffffffffffffffffffffffffffffffff168573ffffffffffffffffffffffffffffffffffffffff16146118975760006116768686613463565b905060008114156116d2576040517f08c379a000000000000000000000000000000000000000000000000000000000815260040180806020018281038252602b8152602001806146b5602b913960400191505060405180910390fd5b600560009054906101000a900473ffffffffffffffffffffffffffffffffffffffff1673ffffffffffffffffffffffffffffffffffffffff16637ff36ab5868361171b8a61367e565b30426040518663ffffffff1660e01b815260040180858152602001806020018473ffffffffffffffffffffffffffffffffffffffff168152602001838152602001828103825285818151815260200191508051906020019060200280838360005b8381101561179757808201518184015260208101905061177c565b50505050905001955050505050506000604051808303818588803b1580156117be57600080fd5b505af11580156117d2573d6000803e3d6000fd5b50505050506040513d6000823e3d601f19601f8201168201806040525060208110156117fd57600080fd5b810190808051604051939291908464010000000082111561181d57600080fd5b8382019150602082018581111561183357600080fd5b825186602082028301116401000000008211171561185057600080fd5b8083526020830192505050908051906020019060200280838360005b8381101561188757808201518184015260208101905061186c565b5050505090500160405250505050505b6118eb6118a26132c7565b84600360009054906101000a900473ffffffffffffffffffffffffffffffffffffffff1673ffffffffffffffffffffffffffffffffffffffff166133c19092919063ffffffff16565b6000821115611949576119486118ff6132c7565b83600460009054906101000a900473ffffffffffffffffffffffffffffffffffffffff1673ffffffffffffffffffffffffffffffffffffffff166133c19092919063ffffffff16565b5b7ef93dbdb72854b6b6fb35433086556f2635fc83c37080c667496fecfa650fb46119716132c7565b86868686604051808673ffffffffffffffffffffffffffffffffffffffff1681526020018573ffffffffffffffffffffffffffffffffffffffff1681526020018481526020018381526020018281526020019550505050505060405180910390a160019550505050505090565b6119e66132c7565b73ffffffffffffffffffffffffffffffffffffffff16600160009054906101000a900473ffffffffffffffffffffffffffffffffffffffff1673ffffffffffffffffffffffffffffffffffffffff161480611a7a5750611a446132c7565b73ffffffffffffffffffffffffffffffffffffffff16611a62611ad9565b73ffffffffffffffffffffffffffffffffffffffff16145b611acf576040517f08c379a000000000000000000000000000000000000000000000000000000000815260040180806020018281038252604181526020018061462f6041913960600191505060405180910390fd5b611ad76139b4565b565b60008060009054906101000a900473ffffffffffffffffffffffffffffffffffffffff16905090565b600160009054906101000a900473ffffffffffffffffffffffffffffffffffffffff1681565b600080611b348461276a565b611b89576040517f08c379a00000000000000000000000000000000000000000000000000000000081526004018080602001828103825260238152602001806145e66023913960400191505060405180910390fd5b60008473ffffffffffffffffffffffffffffffffffffffff1663313ce5676040518163ffffffff1660e01b815260040160206040518083038186803b158015611bd157600080fd5b505afa158015611be5573d6000803e3d6000fd5b505050506040513d6020811015611bfb57600080fd5b810190808051906020019092919050505060ff1690506000600360009054906101000a900473ffffffffffffffffffffffffffffffffffffffff1673ffffffffffffffffffffffffffffffffffffffff1663313ce5676040518163ffffffff1660e01b815260040160206040518083038186803b158015611c7b57600080fd5b505afa158015611c8f573d6000803e3d6000fd5b505050506040513d6020811015611ca557600080fd5b810190808051906020019092919050505060ff1690506000600660009054906101000a900473ffffffffffffffffffffffffffffffffffffffff1673ffffffffffffffffffffffffffffffffffffffff1663fe2c6198600760008a73ffffffffffffffffffffffffffffffffffffffff1673ffffffffffffffffffffffffffffffffffffffff1681526020019081526020016000206040518263ffffffff1660e01b81526004018080602001828103825283818154600181600116156101000203166002900481526020019150805460018160011615610100020316600290048015611dd25780601f10611da757610100808354040283529160200191611dd2565b820191906000526020600020905b815481529060010190602001808311611db557829003601f168201915b50509250505060206040518083038186803b158015611df057600080fd5b505afa158015611e04573d6000803e3d6000fd5b505050506040513d6020811015611e1a57600080fd5b810190808051906020019092919050505090506000600660009054906101000a900473ffffffffffffffffffffffffffffffffffffffff1673ffffffffffffffffffffffffffffffffffffffff1663fe2c6198600260009054906101000a900473ffffffffffffffffffffffffffffffffffffffff1673ffffffffffffffffffffffffffffffffffffffff166395d89b416040518163ffffffff1660e01b815260040160006040518083038186803b158015611ed557600080fd5b505afa158015611ee9573d6000803e3d6000fd5b505050506040513d6000823e3d601f19601f820116820180604052506020811015611f1357600080fd5b8101908080516040519392919084640100000000821115611f3357600080fd5b83820191506020820185811115611f4957600080fd5b8251866001820283011164010000000082111715611f6657600080fd5b8083526020830192505050908051906020019080838360005b83811015611f9a578082015181840152602081019050611f7f565b50505050905090810190601f168015611fc75780820380516001836020036101000a031916815260200191505b506040525050506040518263ffffffff1660e01b81526004018080602001828103825283818151815260200191508051906020019080838360005b8381101561201d578082015181840152602081019050612002565b50505050905090810190601f16801561204a5780820380516001836020036101000a031916815260200191505b509250505060206040518083038186803b15801561206757600080fd5b505afa15801561207b573d6000803e3d6000fd5b505050506040513d602081101561209157600080fd5b810190808051906020019092919050505090506120cc6120ba8585613aa890919063ffffffff16565b600a0a88613af290919063ffffffff16565b95508773ffffffffffffffffffffffffffffffffffffffff16600360009054906101000a900473ffffffffffffffffffffffffffffffffffffffff1673ffffffffffffffffffffffffffffffffffffffff161461219e5761219b6121398585613aa890919063ffffffff16565b600a0a61218d6006600a0a61217f8b612171876121636006600a0a8b613af290919063ffffffff16565b613b7890919063ffffffff16565b613af290919063ffffffff16565b613b7890919063ffffffff16565b613af290919063ffffffff16565b95505b6000600360009054906101000a900473ffffffffffffffffffffffffffffffffffffffff1673ffffffffffffffffffffffffffffffffffffffff166370a08231306040518263ffffffff1660e01b8152600401808273ffffffffffffffffffffffffffffffffffffffff16815260200191505060206040518083038186803b15801561222957600080fd5b505afa15801561223d573d6000803e3d6000fd5b505050506040513d602081101561225357600080fd5b81019080805190602001909291905050509050600081111561238c576000600460009054906101000a900473ffffffffffffffffffffffffffffffffffffffff1673ffffffffffffffffffffffffffffffffffffffff166370a08231306040518263ffffffff1660e01b8152600401808273ffffffffffffffffffffffffffffffffffffffff16815260200191505060206040518083038186803b1580156122fa57600080fd5b505afa15801561230e573d6000803e3d6000fd5b505050506040513d602081101561232457600080fd5b81019080805190602001909291905050509050612388600c600a0a61237a8361236c8661235e600c600a0a8f613af290919063ffffffff16565b613b7890919063ffffffff16565b613af290919063ffffffff16565b613b7890919063ffffffff16565b9650505b50505050509250929050565b600c81565b6123a56132c7565b73ffffffffffffffffffffffffffffffffffffffff1660008054906101000a900473ffffffffffffffffffffffffffffffffffffffff1673ffffffffffffffffffffffffffffffffffffffff1614612465576040517f08c379a00000000000000000000000000000000000000000000000000000000081526004018080602001828103825260208152602001807f4f776e61626c653a2063616c6c6572206973206e6f7420746865206f776e657281525060200191505060405180910390fd5b80600560006101000a81548173ffffffffffffffffffffffffffffffffffffffff021916908373ffffffffffffffffffffffffffffffffffffffff1602179055507f0a3776494a324cdd72863deb1475d9eb705db96d66e7e199f3ebe4948343a43881604051808273ffffffffffffffffffffffffffffffffffffffff16815260200191505060405180910390a150565b6124fe6132c7565b73ffffffffffffffffffffffffffffffffffffffff1660008054906101000a900473ffffffffffffffffffffffffffffffffffffffff1673ffffffffffffffffffffffffffffffffffffffff16146125be576040517f08c379a00000000000000000000000000000000000000000000000000000000081526004018080602001828103825260208152602001807f4f776e61626c653a2063616c6c6572206973206e6f7420746865206f776e657281525060200191505060405180910390fd5b60405180602001604052806000815250600760008373ffffffffffffffffffffffffffffffffffffffff1673ffffffffffffffffffffffffffffffffffffffff16815260200190815260200160002090805190602001906126209291906144a4565b507f99141d0e2d4f048b95e099fa59ce3343ad2b2827553ca03a066fdcbfc421dbb181604051808273ffffffffffffffffffffffffffffffffffffffff16815260200191505060405180910390a150565b6126796132c7565b73ffffffffffffffffffffffffffffffffffffffff1660008054906101000a900473ffffffffffffffffffffffffffffffffffffffff1673ffffffffffffffffffffffffffffffffffffffff1614612739576040517f08c379a00000000000000000000000000000000000000000000000000000000081526004018080602001828103825260208152602001807f4f776e61626c653a2063616c6c6572206973206e6f7420746865206f776e657281525060200191505060405180910390fd5b612766600460009054906101000a900473ffffffffffffffffffffffffffffffffffffffff168383613bc2565b5050565b600080600760008473ffffffffffffffffffffffffffffffffffffffff1673ffffffffffffffffffffffffffffffffffffffff16815260200190815260200160002080546001816001161561010002031660029004905014159050919050565b60008060149054906101000a900460ff161561284e576040517f08c379a00000000000000000000000000000000000000000000000000000000081526004018080602001828103825260108152602001807f5061757361626c653a207061757365640000000000000000000000000000000081525060200191505060405180910390fd5b60008061285b8585611b28565b915091506000600360009054906101000a900473ffffffffffffffffffffffffffffffffffffffff1673ffffffffffffffffffffffffffffffffffffffff166370a08231306040518263ffffffff1660e01b8152600401808273ffffffffffffffffffffffffffffffffffffffff16815260200191505060206040518083038186803b1580156128ea57600080fd5b505afa1580156128fe573d6000803e3d6000fd5b505050506040513d602081101561291457600080fd5b810190808051906020019092919050505090506000811180156129375750808311155b6129a9576040517f08c379a000000000000000000000000000000000000000000000000000000000815260040180806020018281038252601c8152602001807f4d61726b65743a3a6275793a20657863656564732062616c616e63650000000081525060200191505060405180910390fd5b6129dd6129b46132c7565b30878973ffffffffffffffffffffffffffffffffffffffff16613d78909392919063ffffffff16565b600260009054906101000a900473ffffffffffffffffffffffffffffffffffffffff1673ffffffffffffffffffffffffffffffffffffffff168673ffffffffffffffffffffffffffffffffffffffff1614612cb3576000612a3e8787613463565b90506000811415612a9a576040517f08c379a00000000000000000000000000000000000000000000000000000000081526004018080602001828103825260248152602001806145c26024913960400191505060405180910390fd5b612ae7600560009054906101000a900473ffffffffffffffffffffffffffffffffffffffff16878973ffffffffffffffffffffffffffffffffffffffff16613e399092919063ffffffff16565b600560009054906101000a900473ffffffffffffffffffffffffffffffffffffffff1673ffffffffffffffffffffffffffffffffffffffff166338ed17398783612b308b61367e565b30426040518663ffffffff1660e01b815260040180868152602001858152602001806020018473ffffffffffffffffffffffffffffffffffffffff168152602001838152602001828103825285818151815260200191508051906020019060200280838360005b83811015612bb2578082015181840152602081019050612b97565b505050509050019650505050505050600060405180830381600087803b158015612bdb57600080fd5b505af1158015612bef573d6000803e3d6000fd5b505050506040513d6000823e3d601f19601f820116820180604052506020811015612c1957600080fd5b8101908080516040519392919084640100000000821115612c3957600080fd5b83820191506020820185811115612c4f57600080fd5b8251866020820283011164010000000082111715612c6c57600080fd5b8083526020830192505050908051906020019060200280838360005b83811015612ca3578082015181840152602081019050612c88565b5050505090500160405250505050505b612d07612cbe6132c7565b84600360009054906101000a900473ffffffffffffffffffffffffffffffffffffffff1673ffffffffffffffffffffffffffffffffffffffff166133c19092919063ffffffff16565b6000821115612d6557612d64612d1b6132c7565b83600460009054906101000a900473ffffffffffffffffffffffffffffffffffffffff1673ffffffffffffffffffffffffffffffffffffffff166133c19092919063ffffffff16565b5b7ef93dbdb72854b6b6fb35433086556f2635fc83c37080c667496fecfa650fb4612d8d6132c7565b87878686604051808673ffffffffffffffffffffffffffffffffffffffff1681526020018573ffffffffffffffffffffffffffffffffffffffff1681526020018481526020018381526020018281526020019550505050505060405180910390a16001935050505092915050565b612e036132c7565b73ffffffffffffffffffffffffffffffffffffffff1660008054906101000a900473ffffffffffffffffffffffffffffffffffffffff1673ffffffffffffffffffffffffffffffffffffffff1614612ec3576040517f08c379a00000000000000000000000000000000000000000000000000000000081526004018080602001828103825260208152602001807f4f776e61626c653a2063616c6c6572206973206e6f7420746865206f776e657281525060200191505060405180910390fd5b8181600760008673ffffffffffffffffffffffffffffffffffffffff1673ffffffffffffffffffffffffffffffffffffffff1681526020019081526020016000209190612f11929190614524565b507f7e0e5645cdb1c97ffe3d599ebe4d4a327d4b5c9e9374f01018604e37d310e36c838383604051808473ffffffffffffffffffffffffffffffffffffffff168152602001806020018281038252848482818152602001925080828437600081840152601f19601f82011690508083019250505094505050505060405180910390a1505050565b600681565b612fa56132c7565b73ffffffffffffffffffffffffffffffffffffffff1660008054906101000a900473ffffffffffffffffffffffffffffffffffffffff1673ffffffffffffffffffffffffffffffffffffffff1614613065576040517f08c379a00000000000000000000000000000000000000000000000000000000081526004018080602001828103825260208152602001807f4f776e61626c653a2063616c6c6572206973206e6f7420746865206f776e657281525060200191505060405180910390fd5b600073ffffffffffffffffffffffffffffffffffffffff168173ffffffffffffffffffffffffffffffffffffffff1614156130eb576040517f08c379a00000000000000000000000000000000000000000000000000000000081526004018080602001828103825260268152602001806146096026913960400191505060405180910390fd5b8073ffffffffffffffffffffffffffffffffffffffff1660008054906101000a900473ffffffffffffffffffffffffffffffffffffffff1673ffffffffffffffffffffffffffffffffffffffff167f8be0079c531659141344cd1fd0a4f28419497f9722a3daafe3b4186f6b6457e060405160405180910390a3806000806101000a81548173ffffffffffffffffffffffffffffffffffffffff021916908373ffffffffffffffffffffffffffffffffffffffff16021790555050565b6131b06132c7565b73ffffffffffffffffffffffffffffffffffffffff1660008054906101000a900473ffffffffffffffffffffffffffffffffffffffff1673ffffffffffffffffffffffffffffffffffffffff1614613270576040517f08c379a00000000000000000000000000000000000000000000000000000000081526004018080602001828103825260208152602001807f4f776e61626c653a2063616c6c6572206973206e6f7420746865206f776e657281525060200191505060405180910390fd5b61329d600360009054906101000a900473ffffffffffffffffffffffffffffffffffffffff168383613bc2565b5050565b600460009054906101000a900473ffffffffffffffffffffffffffffffffffffffff1681565b600033905090565b600060149054906101000a900460ff16613351576040517f08c379a00000000000000000000000000000000000000000000000000000000081526004018080602001828103825260148152602001807f5061757361626c653a206e6f742070617573656400000000000000000000000081525060200191505060405180910390fd5b60008060146101000a81548160ff0219169083151502179055507f5db9ee0a495bf2e6ff9c91a7834c1ba4fdd244a5e8aa4e537bd38aeae4b073aa6133946132c7565b604051808273ffffffffffffffffffffffffffffffffffffffff16815260200191505060405180910390a1565b61345e8363a9059cbb60e01b8484604051602401808373ffffffffffffffffffffffffffffffffffffffff16815260200182815260200192505050604051602081830303815290604052907bffffffffffffffffffffffffffffffffffffffffffffffffffffffff19166020820180517bffffffffffffffffffffffffffffffffffffffffffffffffffffffff8381831617835250505050613ffe565b505050565b60006060600560009054906101000a900473ffffffffffffffffffffffffffffffffffffffff1673ffffffffffffffffffffffffffffffffffffffff1663d06ca61f846134af8761367e565b6040518363ffffffff1660e01b81526004018083815260200180602001828103825283818151815260200191508051906020019060200280838360005b838110156135075780820151818401526020810190506134ec565b50505050905001935050505060006040518083038186803b15801561352b57600080fd5b505afa15801561353f573d6000803e3d6000fd5b505050506040513d6000823e3d601f19601f82011682018060405250602081101561356957600080fd5b810190808051604051939291908464010000000082111561358957600080fd5b8382019150602082018581111561359f57600080fd5b82518660208202830111640100000000821117156135bc57600080fd5b8083526020830192505050908051906020019060200280838360005b838110156135f35780820151818401526020810190506135d8565b50505050905001604052505050905060008151141561365d576040517f08c379a000000000000000000000000000000000000000000000000000000000815260040180806020018281038252602e815260200180614701602e913960400191505060405180910390fd5b8060018251038151811061366d57fe5b602002602001015191505092915050565b60606000600560009054906101000a900473ffffffffffffffffffffffffffffffffffffffff1673ffffffffffffffffffffffffffffffffffffffff1663ad5c46486040518163ffffffff1660e01b815260040160206040518083038186803b1580156136ea57600080fd5b505afa1580156136fe573d6000803e3d6000fd5b505050506040513d602081101561371457600080fd5b810190808051906020019092919050505090508273ffffffffffffffffffffffffffffffffffffffff168173ffffffffffffffffffffffffffffffffffffffff161415613863576060600267ffffffffffffffff8111801561377557600080fd5b506040519080825280602002602001820160405280156137a45781602001602082028036833780820191505090505b50905083816000815181106137b557fe5b602002602001019073ffffffffffffffffffffffffffffffffffffffff16908173ffffffffffffffffffffffffffffffffffffffff1681525050600260009054906101000a900473ffffffffffffffffffffffffffffffffffffffff168160018151811061381f57fe5b602002602001019073ffffffffffffffffffffffffffffffffffffffff16908173ffffffffffffffffffffffffffffffffffffffff168152505080925050506139af565b6060600367ffffffffffffffff8111801561387d57600080fd5b506040519080825280602002602001820160405280156138ac5781602001602082028036833780820191505090505b50905083816000815181106138bd57fe5b602002602001019073ffffffffffffffffffffffffffffffffffffffff16908173ffffffffffffffffffffffffffffffffffffffff1681525050818160018151811061390557fe5b602002602001019073ffffffffffffffffffffffffffffffffffffffff16908173ffffffffffffffffffffffffffffffffffffffff1681525050600260009054906101000a900473ffffffffffffffffffffffffffffffffffffffff168160028151811061396f57fe5b602002602001019073ffffffffffffffffffffffffffffffffffffffff16908173ffffffffffffffffffffffffffffffffffffffff168152505080925050505b919050565b600060149054906101000a900460ff1615613a37576040517f08c379a00000000000000000000000000000000000000000000000000000000081526004018080602001828103825260108152602001807f5061757361626c653a207061757365640000000000000000000000000000000081525060200191505060405180910390fd5b6001600060146101000a81548160ff0219169083151502179055507f62e78cea01bee320cd4e420270b5ea74000d11b0c9f74754ebdbfc544b05a258613a7b6132c7565b604051808273ffffffffffffffffffffffffffffffffffffffff16815260200191505060405180910390a1565b6000613aea83836040518060400160405280601e81526020017f536166654d6174683a207375627472616374696f6e206f766572666c6f7700008152506140ed565b905092915050565b600080831415613b055760009050613b72565b6000828402905082848281613b1657fe5b0414613b6d576040517f08c379a00000000000000000000000000000000000000000000000000000000081526004018080602001828103825260218152602001806146e06021913960400191505060405180910390fd5b809150505b92915050565b6000613bba83836040518060400160405280601a81526020017f536166654d6174683a206469766973696f6e206279207a65726f0000000000008152506141ad565b905092915050565b600073ffffffffffffffffffffffffffffffffffffffff168273ffffffffffffffffffffffffffffffffffffffff161415613c48576040517f08c379a00000000000000000000000000000000000000000000000000000000081526004018080602001828103825260358152602001806147646035913960400191505060405180910390fd5b60008373ffffffffffffffffffffffffffffffffffffffff166370a08231306040518263ffffffff1660e01b8152600401808273ffffffffffffffffffffffffffffffffffffffff16815260200191505060206040518083038186803b158015613cb157600080fd5b505afa158015613cc5573d6000803e3d6000fd5b505050506040513d6020811015613cdb57600080fd5b8101908080519060200190929190505050905080821115613d47576040517f08c379a00000000000000000000000000000000000000000000000000000000081526004018080602001828103825260238152602001806147e76023913960400191505060405180910390fd5b613d7283838673ffffffffffffffffffffffffffffffffffffffff166133c19092919063ffffffff16565b50505050565b613e33846323b872dd60e01b858585604051602401808473ffffffffffffffffffffffffffffffffffffffff1681526020018373ffffffffffffffffffffffffffffffffffffffff1681526020018281526020019350505050604051602081830303815290604052907bffffffffffffffffffffffffffffffffffffffffffffffffffffffff19166020820180517bffffffffffffffffffffffffffffffffffffffffffffffffffffffff8381831617835250505050613ffe565b50505050565b6000811480613f07575060008373ffffffffffffffffffffffffffffffffffffffff1663dd62ed3e30856040518363ffffffff1660e01b8152600401808373ffffffffffffffffffffffffffffffffffffffff1681526020018273ffffffffffffffffffffffffffffffffffffffff1681526020019250505060206040518083038186803b158015613eca57600080fd5b505afa158015613ede573d6000803e3d6000fd5b505050506040513d6020811015613ef457600080fd5b8101908080519060200190929190505050145b613f5c576040517f08c379a000000000000000000000000000000000000000000000000000000000815260040180806020018281038252603681526020018061480a6036913960400191505060405180910390fd5b613ff98363095ea7b360e01b8484604051602401808373ffffffffffffffffffffffffffffffffffffffff16815260200182815260200192505050604051602081830303815290604052907bffffffffffffffffffffffffffffffffffffffffffffffffffffffff19166020820180517bffffffffffffffffffffffffffffffffffffffffffffffffffffffff8381831617835250505050613ffe565b505050565b6060614060826040518060400160405280602081526020017f5361666545524332303a206c6f772d6c6576656c2063616c6c206661696c65648152508573ffffffffffffffffffffffffffffffffffffffff166142739092919063ffffffff16565b90506000815111156140e85780806020019051602081101561408157600080fd5b81019080805190602001909291905050506140e7576040517f08c379a000000000000000000000000000000000000000000000000000000000815260040180806020018281038252602a815260200180614799602a913960400191505060405180910390fd5b5b505050565b600083831115829061419a576040517f08c379a00000000000000000000000000000000000000000000000000000000081526004018080602001828103825283818151815260200191508051906020019080838360005b8381101561415f578082015181840152602081019050614144565b50505050905090810190601f16801561418c5780820380516001836020036101000a031916815260200191505b509250505060405180910390fd5b5060008385039050809150509392505050565b60008083118290614259576040517f08c379a00000000000000000000000000000000000000000000000000000000081526004018080602001828103825283818151815260200191508051906020019080838360005b8381101561421e578082015181840152602081019050614203565b50505050905090810190601f16801561424b5780820380516001836020036101000a031916815260200191505b509250505060405180910390fd5b50600083858161426557fe5b049050809150509392505050565b6060614282848460008561428b565b90509392505050565b606061429685614491565b614308576040517f08c379a000000000000000000000000000000000000000000000000000000000815260040180806020018281038252601d8152602001807f416464726573733a2063616c6c20746f206e6f6e2d636f6e747261637400000081525060200191505060405180910390fd5b600060608673ffffffffffffffffffffffffffffffffffffffff1685876040518082805190602001908083835b602083106143585780518252602082019150602081019050602083039250614335565b6001836020036101000a03801982511681845116808217855250505050505090500191505060006040518083038185875af1925050503d80600081146143ba576040519150601f19603f3d011682016040523d82523d6000602084013e6143bf565b606091505b509150915081156143d4578092505050614489565b6000815111156143e75780518082602001fd5b836040517f08c379a00000000000000000000000000000000000000000000000000000000081526004018080602001828103825283818151815260200191508051906020019080838360005b8381101561444e578082015181840152602081019050614433565b50505050905090810190601f16801561447b5780820380516001836020036101000a031916815260200191505b509250505060405180910390fd5b949350505050565b600080823b905060008111915050919050565b828054600181600116156101000203166002900490600052602060002090601f016020900481019282601f106144e557805160ff1916838001178555614513565b82800160010185558215614513579182015b828111156145125782518255916020019190600101906144f7565b5b50905061452091906145a4565b5090565b828054600181600116156101000203166002900490600052602060002090601f016020900481019282601f1061456557803560ff1916838001178555614593565b82800160010185558215614593579182015b82811115614592578235825591602001919060010190614577565b5b5090506145a091906145a4565b5090565b5b808211156145bd5760008160009055506001016145a5565b509056fe4d61726b65743a3a6275793a206c697175696469747920706f6f6c20697320656d7074794d61726b65743a3a70726963653a2063757272656e6379206e6f7420616c6c6f7765644f776e61626c653a206e6577206f776e657220697320746865207a65726f20616464726573734f776e61626c655061757361626c653a3a70617573653a206f6e6c792070617573657220616e64206f776e6572206d75737420706175736520636f6e74726163744f776e61626c655061757361626c653a3a756e70617573653a206f6e6c792070617573657220616e64206f776e6572206d75737420756e706175736520636f6e74726163744d61726b65743a3a62757946726f6d4554483a206c697175696469747920706f6f6c20697320656d707479536166654d6174683a206d756c7469706c69636174696f6e206f766572666c6f774d61726b65743a3a5f616d6f756e744f75743a20696e76616c696420616d6f756e7473206f7574206c656e6774684d61726b65743a3a77697468647261773a2063616e6e6f74207472616e7366657220746f20746865207a65726f20616464726573734d61726b65743a3a7472616e736665723a2063616e6e6f74207472616e7366657220746f20746865207a65726f20616464726573735361666545524332303a204552433230206f7065726174696f6e20646964206e6f7420737563636565644d61726b65743a3a62757946726f6d4554483a2062616c616e636520697320656d7074794d61726b65743a3a7472616e736665723a206e6f7420656e6f75676820746f6b656e735361666545524332303a20617070726f76652066726f6d206e6f6e2d7a65726f20746f206e6f6e2d7a65726f20616c6c6f77616e6365a2646970667358221220fa8c5a6715bc3298482c6bfdf8c7640a7c0358741c1564440a8575e8d7dea8fb64736f6c634300060c0033",
  "devdoc": {
    "kind": "dev",
    "methods": {
      "allowToken(address,string)": {
        "params": {
          "symbol": "Symbol target token of price oracle contract.",
          "token": "Allowable token."
        }
      },
      "buy(address,uint256)": {
        "params": {
          "currency": "Currency token.",
          "payment": "Amount of payment."
        },
        "returns": {
          "_0": "True if success."
        }
      },
      "buyFromETH()": {
        "returns": {
          "_0": "True if success."
        }
      },
      "changeCumulativeToken(address,address)": {
        "params": {
          "newToken": "Address new cumulative token.",
          "recipient": "Address of recipient for withdraw current cumulative balance."
        }
      },
      "changePauser(address)": {
        "params": {
          "newPauser": "Address of new pauser account."
        }
      },
      "changePriceOracle(address)": {
        "params": {
          "_priceOracle": "Address new price oracle contract."
        }
      },
      "changeUniswapRouter(address)": {
        "params": {
          "_uniswapRouter": "Address new uniswap router contract."
        }
      },
      "constructor": {
        "params": {
          "_cumulative": "Address of cumulative token.",
          "_priceOracle": "Address of Price oracle contract.",
          "_productToken": "Address of product token.",
          "_rewardToken": "Address of reward token.",
          "_uniswapRouter": "Address of Uniswap router contract."
        }
      },
      "denyToken(address)": {
        "params": {
          "token": "Denied token."
        }
      },
      "isAllowedToken(address)": {
        "params": {
          "token": "Target token."
        },
        "returns": {
          "_0": "Is target token allowed."
        }
      },
      "owner()": {
        "details": "Returns the address of the current owner."
      },
      "paused()": {
        "details": "Returns true if the contract is paused, and false otherwise."
      },
      "price(address,uint256)": {
        "params": {
          "currency": "Currency token.",
          "payment": "Amount of payment."
        },
        "returns": {
          "product": "Amount of product token.",
          "reward": "Amount of reward token."
        }
      },
      "renounceOwnership()": {
        "details": "Leaves the contract without owner. It will not be possible to call `onlyOwner` functions anymore. Can only be called by the current owner. NOTE: Renouncing ownership will leave the contract without an owner, thereby removing any functionality that is only available to the owner."
      },
      "transferOwnership(address)": {
        "details": "Transfers ownership of the contract to a new account (`newOwner`). Can only be called by the current owner."
      },
      "transferProductToken(address,uint256)": {
        "params": {
          "amount": "Amount of transfered token.",
          "recipient": "Address of recipient."
        }
      },
      "transferRewardToken(address,uint256)": {
        "params": {
          "amount": "Amount of transfered token.",
          "recipient": "Address of recipient."
        }
      },
      "withdraw(address)": {
        "params": {
          "recipient": "Recipient of token."
        }
      }
    },
    "stateVariables": {
      "allowedTokens": {
        "details": "Allowed tokens symbols list."
      },
      "priceOracle": {
        "details": "Address of IUniswapAnchoredView."
      },
      "uniswapRouter": {
        "details": "Address of UniswapV2Router."
      }
    },
    "version": 1
  },
  "userdoc": {
    "events": {
      "Buy(address,address,uint256,uint256,uint256)": {
        "notice": "An event thats emitted when an account buyed token."
      },
      "CumulativeChanged(address)": {
        "notice": "An event thats emitted when an cumulative token changed."
      },
      "PauserChanged(address)": {
        "notice": "An event thats emitted when an pauser address changed."
      },
      "PriceOracleChanged(address)": {
        "notice": "An event thats emitted when an price oracle contract address changed."
      },
      "TokenAllowed(address,string)": {
        "notice": "An event thats emitted when an token allowed."
      },
      "TokenDenied(address)": {
        "notice": "An event thats emitted when an token denied."
      },
      "UniswapRouterChanged(address)": {
        "notice": "An event thats emitted when an uniswap router contract address changed."
      },
      "Withdrawal(address,address,uint256)": {
        "notice": "An event thats emitted when an cumulative token withdrawal."
      }
    },
    "kind": "user",
    "methods": {
      "allowToken(address,string)": {
        "notice": "Add token to tokens white list."
      },
      "buy(address,uint256)": {
        "notice": "Buy token with ERC20."
      },
      "buyFromETH()": {
        "notice": "Buy token with ETH."
      },
      "changeCumulativeToken(address,address)": {
        "notice": "Changed cumulative token address."
      },
      "changePauser(address)": {
        "notice": "Change pauser account."
      },
      "changePriceOracle(address)": {
        "notice": "Changed price oracle contract address."
      },
      "changeUniswapRouter(address)": {
        "notice": "Changed uniswap router contract address."
      },
      "cumulative()": {
        "notice": "Address of cumulative token."
      },
      "denyToken(address)": {
        "notice": "Remove token from tokens white list."
      },
      "pause()": {
        "notice": "Triggers stopped state."
      },
      "pauser()": {
        "notice": "Address that can pause a contract."
      },
      "price(address,uint256)": {
        "notice": "Get token price."
      },
      "productToken()": {
        "notice": "Address of product token contract."
      },
      "rewardToken()": {
        "notice": "Address of reward token contract."
      },
      "transferProductToken(address,uint256)": {
        "notice": "Transfer product token to recipient."
      },
      "transferRewardToken(address,uint256)": {
        "notice": "Transfer reward token to recipient."
      },
      "unpause()": {
        "notice": "Returns to normal state."
      },
      "withdraw(address)": {
        "notice": "Withdraw cumulative token to address."
      }
    },
    "version": 1
  },
  "storageLayout": {
    "storage": [
      {
        "astId": 30,
        "contract": "contracts/Market.sol:Market",
        "label": "_owner",
        "offset": 0,
        "slot": "0",
        "type": "t_address"
      },
      {
        "astId": 1806,
        "contract": "contracts/Market.sol:Market",
        "label": "_paused",
        "offset": 20,
        "slot": "0",
        "type": "t_bool"
      },
      {
        "astId": 13251,
        "contract": "contracts/Market.sol:Market",
        "label": "pauser",
        "offset": 0,
        "slot": "1",
        "type": "t_address"
      },
      {
        "astId": 6091,
        "contract": "contracts/Market.sol:Market",
        "label": "cumulative",
        "offset": 0,
        "slot": "2",
        "type": "t_contract(ERC20)907"
      },
      {
        "astId": 6094,
        "contract": "contracts/Market.sol:Market",
        "label": "productToken",
        "offset": 0,
        "slot": "3",
        "type": "t_contract(ERC20)907"
      },
      {
        "astId": 6097,
        "contract": "contracts/Market.sol:Market",
        "label": "rewardToken",
        "offset": 0,
        "slot": "4",
        "type": "t_contract(ERC20)907"
      },
      {
        "astId": 6100,
        "contract": "contracts/Market.sol:Market",
        "label": "uniswapRouter",
        "offset": 0,
        "slot": "5",
        "type": "t_contract(IUniswapV2Router02)13096"
      },
      {
        "astId": 6103,
        "contract": "contracts/Market.sol:Market",
        "label": "priceOracle",
        "offset": 0,
        "slot": "6",
        "type": "t_contract(IUniswapAnchoredView)12401"
      },
      {
        "astId": 6108,
        "contract": "contracts/Market.sol:Market",
        "label": "allowedTokens",
        "offset": 0,
        "slot": "7",
        "type": "t_mapping(t_address,t_string_storage)"
      }
    ],
    "types": {
      "t_address": {
        "encoding": "inplace",
        "label": "address",
        "numberOfBytes": "20"
      },
      "t_bool": {
        "encoding": "inplace",
        "label": "bool",
        "numberOfBytes": "1"
      },
      "t_contract(ERC20)907": {
        "encoding": "inplace",
        "label": "contract ERC20",
        "numberOfBytes": "20"
      },
      "t_contract(IUniswapAnchoredView)12401": {
        "encoding": "inplace",
        "label": "contract IUniswapAnchoredView",
        "numberOfBytes": "20"
      },
      "t_contract(IUniswapV2Router02)13096": {
        "encoding": "inplace",
        "label": "contract IUniswapV2Router02",
        "numberOfBytes": "20"
      },
      "t_mapping(t_address,t_string_storage)": {
        "encoding": "mapping",
        "key": "t_address",
        "label": "mapping(address => string)",
        "numberOfBytes": "32",
        "value": "t_string_storage"
      },
      "t_string_storage": {
        "encoding": "bytes",
        "label": "string",
        "numberOfBytes": "32"
      }
    }
  }
}