{
  "address": "0x322b2EC96ca74a5376Fa73466609357B90865bD1",
  "abi": [
    {
      "inputs": [
        {
          "internalType": "address",
          "name": "_incoming",
          "type": "address"
        },
        {
          "internalType": "address",
          "name": "_uniswapRouter",
          "type": "address"
        }
      ],
      "stateMutability": "nonpayable",
      "type": "constructor"
    },
    {
      "anonymous": false,
      "inputs": [
        {
          "indexed": false,
          "internalType": "address",
          "name": "newBudget",
          "type": "address"
        },
        {
          "indexed": false,
          "internalType": "uint256",
          "name": "newBalance",
          "type": "uint256"
        }
      ],
      "name": "BudgetChanged",
      "type": "event"
    },
    {
      "anonymous": false,
      "inputs": [
        {
          "indexed": false,
          "internalType": "address",
          "name": "newIncoming",
          "type": "address"
        }
      ],
      "name": "IncomingChanged",
      "type": "event"
    },
    {
      "anonymous": false,
      "inputs": [
        {
          "indexed": true,
          "internalType": "address",
          "name": "previousOwner",
          "type": "address"
        },
        {
          "indexed": true,
          "internalType": "address",
          "name": "newOwner",
          "type": "address"
        }
      ],
      "name": "OwnershipTransferred",
      "type": "event"
    },
    {
      "anonymous": false,
      "inputs": [
        {
          "indexed": false,
          "internalType": "address",
          "name": "account",
          "type": "address"
        }
      ],
      "name": "Paused",
      "type": "event"
    },
    {
      "anonymous": false,
      "inputs": [
        {
          "indexed": false,
          "internalType": "address",
          "name": "newPauser",
          "type": "address"
        }
      ],
      "name": "PauserChanged",
      "type": "event"
    },
    {
      "anonymous": false,
      "inputs": [
        {
          "indexed": false,
          "internalType": "address",
          "name": "recipient",
          "type": "address"
        },
        {
          "indexed": false,
          "internalType": "uint256",
          "name": "amount",
          "type": "uint256"
        }
      ],
      "name": "PayToBudget",
      "type": "event"
    },
    {
      "anonymous": false,
      "inputs": [
        {
          "indexed": false,
          "internalType": "address",
          "name": "recipient",
          "type": "address"
        },
        {
          "indexed": false,
          "internalType": "uint256",
          "name": "amount",
          "type": "uint256"
        }
      ],
      "name": "PayToRecipient",
      "type": "event"
    },
    {
      "anonymous": false,
      "inputs": [
        {
          "indexed": false,
          "internalType": "address",
          "name": "recipient",
          "type": "address"
        },
        {
          "indexed": false,
          "internalType": "uint256",
          "name": "share",
          "type": "uint256"
        }
      ],
      "name": "RecipientAdded",
      "type": "event"
    },
    {
      "anonymous": false,
      "inputs": [
        {
          "indexed": false,
          "internalType": "address",
          "name": "recipient",
          "type": "address"
        }
      ],
      "name": "RecipientRemoved",
      "type": "event"
    },
    {
      "anonymous": false,
      "inputs": [
        {
          "indexed": false,
          "internalType": "address",
          "name": "recipient",
          "type": "address"
        },
        {
          "indexed": false,
          "internalType": "uint256",
          "name": "amount",
          "type": "uint256"
        }
      ],
      "name": "Transfer",
      "type": "event"
    },
    {
      "anonymous": false,
      "inputs": [
        {
          "indexed": false,
          "internalType": "address",
          "name": "newUniswapRouter",
          "type": "address"
        }
      ],
      "name": "UniswapRouterChanged",
      "type": "event"
    },
    {
      "anonymous": false,
      "inputs": [
        {
          "indexed": false,
          "internalType": "address",
          "name": "account",
          "type": "address"
        }
      ],
      "name": "Unpaused",
      "type": "event"
    },
    {
      "inputs": [],
      "name": "SHARE_ACCURACY",
      "outputs": [
        {
          "internalType": "uint256",
          "name": "",
          "type": "uint256"
        }
      ],
      "stateMutability": "view",
      "type": "function"
    },
    {
      "inputs": [],
      "name": "SHARE_DIGITS",
      "outputs": [
        {
          "internalType": "uint256",
          "name": "",
          "type": "uint256"
        }
      ],
      "stateMutability": "view",
      "type": "function"
    },
    {
      "inputs": [
        {
          "internalType": "address",
          "name": "recipient",
          "type": "address"
        },
        {
          "internalType": "uint256",
          "name": "share",
          "type": "uint256"
        }
      ],
      "name": "addRecipient",
      "outputs": [],
      "stateMutability": "nonpayable",
      "type": "function"
    },
    {
      "inputs": [],
      "name": "budget",
      "outputs": [
        {
          "internalType": "address payable",
          "name": "",
          "type": "address"
        }
      ],
      "stateMutability": "view",
      "type": "function"
    },
    {
      "inputs": [],
      "name": "budgetBalance",
      "outputs": [
        {
          "internalType": "uint256",
          "name": "",
          "type": "uint256"
        }
      ],
      "stateMutability": "view",
      "type": "function"
    },
    {
      "inputs": [
        {
          "internalType": "address payable",
          "name": "_budget",
          "type": "address"
        },
        {
          "internalType": "uint256",
          "name": "_budgetBalance",
          "type": "uint256"
        }
      ],
      "name": "changeBudget",
      "outputs": [],
      "stateMutability": "nonpayable",
      "type": "function"
    },
    {
      "inputs": [
        {
          "internalType": "address",
          "name": "_incoming",
          "type": "address"
        },
        {
          "internalType": "address",
          "name": "_recipient",
          "type": "address"
        }
      ],
      "name": "changeIncoming",
      "outputs": [],
      "stateMutability": "nonpayable",
      "type": "function"
    },
    {
      "inputs": [
        {
          "internalType": "address",
          "name": "newPauser",
          "type": "address"
        }
      ],
      "name": "changePauser",
      "outputs": [],
      "stateMutability": "nonpayable",
      "type": "function"
    },
    {
      "inputs": [
        {
          "internalType": "address",
          "name": "_uniswapRouter",
          "type": "address"
        }
      ],
      "name": "changeUniswapRouter",
      "outputs": [],
      "stateMutability": "nonpayable",
      "type": "function"
    },
    {
      "inputs": [],
      "name": "getRecipients",
      "outputs": [
        {
          "internalType": "address[]",
          "name": "",
          "type": "address[]"
        }
      ],
      "stateMutability": "view",
      "type": "function"
    },
    {
      "inputs": [],
      "name": "incoming",
      "outputs": [
        {
          "internalType": "contract ERC20",
          "name": "",
          "type": "address"
        }
      ],
      "stateMutability": "view",
      "type": "function"
    },
    {
      "inputs": [],
      "name": "owner",
      "outputs": [
        {
          "internalType": "address",
          "name": "",
          "type": "address"
        }
      ],
      "stateMutability": "view",
      "type": "function"
    },
    {
      "inputs": [],
      "name": "pause",
      "outputs": [],
      "stateMutability": "nonpayable",
      "type": "function"
    },
    {
      "inputs": [],
      "name": "paused",
      "outputs": [
        {
          "internalType": "bool",
          "name": "",
          "type": "bool"
        }
      ],
      "stateMutability": "view",
      "type": "function"
    },
    {
      "inputs": [],
      "name": "pauser",
      "outputs": [
        {
          "internalType": "address",
          "name": "",
          "type": "address"
        }
      ],
      "stateMutability": "view",
      "type": "function"
    },
    {
      "inputs": [
        {
          "internalType": "address",
          "name": "recipient",
          "type": "address"
        }
      ],
      "name": "removeRecipient",
      "outputs": [],
      "stateMutability": "nonpayable",
      "type": "function"
    },
    {
      "inputs": [],
      "name": "renounceOwnership",
      "outputs": [],
      "stateMutability": "nonpayable",
      "type": "function"
    },
    {
      "inputs": [
        {
          "internalType": "address",
          "name": "",
          "type": "address"
        }
      ],
      "name": "shares",
      "outputs": [
        {
          "internalType": "uint256",
          "name": "",
          "type": "uint256"
        }
      ],
      "stateMutability": "view",
      "type": "function"
    },
    {
      "inputs": [
        {
          "internalType": "uint256",
          "name": "amount",
          "type": "uint256"
        }
      ],
      "name": "split",
      "outputs": [],
      "stateMutability": "nonpayable",
      "type": "function"
    },
    {
      "inputs": [
        {
          "internalType": "address",
          "name": "_recipient",
          "type": "address"
        },
        {
          "internalType": "uint256",
          "name": "amount",
          "type": "uint256"
        }
      ],
      "name": "transfer",
      "outputs": [],
      "stateMutability": "nonpayable",
      "type": "function"
    },
    {
      "inputs": [
        {
          "internalType": "address",
          "name": "newOwner",
          "type": "address"
        }
      ],
      "name": "transferOwnership",
      "outputs": [],
      "stateMutability": "nonpayable",
      "type": "function"
    },
    {
      "inputs": [],
      "name": "uniswapRouter",
      "outputs": [
        {
          "internalType": "contract IUniswapV2Router02",
          "name": "",
          "type": "address"
        }
      ],
      "stateMutability": "view",
      "type": "function"
    },
    {
      "inputs": [],
      "name": "unpause",
      "outputs": [],
      "stateMutability": "nonpayable",
      "type": "function"
    },
    {
      "stateMutability": "payable",
      "type": "receive"
    }
  ],
  "transactionHash": "0xf1985dddd518fef204daf956ea9f6cdb0ed9804f8b0853ede86f6435f7179d28",
  "args": [
    "0x0D9C8723B343A8368BebE0B5E89273fF8D712e3C",
    "0x7a250d5630B4cF539739dF2C5dAcb4c659F2488D"
  ],
  "solcInputHash": "d652cb1ef8d15be4d013601164d9be27",
  "bytecode": "0x60806040523480156200001157600080fd5b506040516200441d3803806200441d833981810160405281019062000037919062000223565b600062000049620001db60201b60201c565b9050806000806101000a81548173ffffffffffffffffffffffffffffffffffffffff021916908373ffffffffffffffffffffffffffffffffffffffff1602179055508073ffffffffffffffffffffffffffffffffffffffff16600073ffffffffffffffffffffffffffffffffffffffff167f8be0079c531659141344cd1fd0a4f28419497f9722a3daafe3b4186f6b6457e060405160405180910390a35060008060146101000a81548160ff02191690831515021790555062000111620001e360201b60201c565b600160006101000a81548173ffffffffffffffffffffffffffffffffffffffff021916908373ffffffffffffffffffffffffffffffffffffffff16021790555081600260006101000a81548173ffffffffffffffffffffffffffffffffffffffff021916908373ffffffffffffffffffffffffffffffffffffffff16021790555080600860006101000a81548173ffffffffffffffffffffffffffffffffffffffff021916908373ffffffffffffffffffffffffffffffffffffffff1602179055505050620002b2565b600033905090565b60008060009054906101000a900473ffffffffffffffffffffffffffffffffffffffff16905090565b6000815190506200021d8162000298565b92915050565b600080604083850312156200023757600080fd5b600062000247858286016200020c565b92505060206200025a858286016200020c565b9150509250929050565b6000620002718262000278565b9050919050565b600073ffffffffffffffffffffffffffffffffffffffff82169050919050565b620002a38162000264565b8114620002af57600080fd5b50565b61415b80620002c26000396000f3fe6080604052600436106101445760003560e01c80638da5cb5b116100b6578063d78d610b1161006f578063d78d610b146103f7578063dbceb00514610422578063ed01bf291461044b578063f2fde38b14610476578063f6dedc3f1461049f578063f7982243146104c85761014b565b80638da5cb5b146102e75780639fc8f2fe146103125780639fd0506d1461033d578063a9059cbb14610368578063c337083714610391578063ce7c2ac2146103ba5761014b565b8063562400fb11610108578063562400fb1461020d5780635c975abb14610238578063715018a614610263578063735de9f71461027a578063756043c3146102a55780638456cb59146102d05761014b565b806312a29198146101505780632cd271e7146101795780633f4ba83a146101a257806348249787146101b957806351e8b2b8146101e45761014b565b3661014b57005b600080fd5b34801561015c57600080fd5b5061017760048036038101906101729190612ecd565b6104f1565b005b34801561018557600080fd5b506101a0600480360381019061019b9190612ecd565b61066d565b005b3480156101ae57600080fd5b506101b761079f565b005b3480156101c557600080fd5b506101ce610884565b6040516101db9190613e48565b60405180910390f35b3480156101f057600080fd5b5061020b60048036038101906102069190612f1f565b61088a565b005b34801561021957600080fd5b506102226109c8565b60405161022f9190613e48565b60405180910390f35b34801561024457600080fd5b5061024d6109cd565b60405161025a9190613b35565b60405180910390f35b34801561026f57600080fd5b506102786109e3565b005b34801561028657600080fd5b5061028f610b36565b60405161029c9190613b6b565b60405180910390f35b3480156102b157600080fd5b506102ba610b5c565b6040516102c79190613e48565b60405180910390f35b3480156102dc57600080fd5b506102e5610b61565b005b3480156102f357600080fd5b506102fc610c46565b6040516103099190613a10565b60405180910390f35b34801561031e57600080fd5b50610327610c6f565b6040516103349190613b50565b60405180910390f35b34801561034957600080fd5b50610352610c95565b60405161035f9190613a10565b60405180910390f35b34801561037457600080fd5b5061038f600480360381019061038a9190612f97565b610cbb565b005b34801561039d57600080fd5b506103b860048036038101906103b39190612ecd565b610e4a565b005b3480156103c657600080fd5b506103e160048036038101906103dc9190612ecd565b610f5a565b6040516103ee9190613e48565b60405180910390f35b34801561040357600080fd5b5061040c610f72565b6040516104199190613b13565b60405180910390f35b34801561042e57600080fd5b506104496004803603810190610444919061303d565b61104a565b005b34801561045757600080fd5b5061046061110f565b60405161046d9190613a46565b60405180910390f35b34801561048257600080fd5b5061049d60048036038101906104989190612ecd565b611135565b005b3480156104ab57600080fd5b506104c660048036038101906104c19190612f5b565b6112f7565b005b3480156104d457600080fd5b506104ef60048036038101906104ea9190612f97565b61155d565b005b6104f9611739565b73ffffffffffffffffffffffffffffffffffffffff1660008054906101000a900473ffffffffffffffffffffffffffffffffffffffff1673ffffffffffffffffffffffffffffffffffffffff1614610586576040517f08c379a000000000000000000000000000000000000000000000000000000000815260040161057d90613ce8565b60405180910390fd5b61059a81600661174190919063ffffffff16565b6105d9576040517f08c379a00000000000000000000000000000000000000000000000000000000081526004016105d090613dc8565b60405180910390fd5b6105ed81600661177190919063ffffffff16565b506000600560008373ffffffffffffffffffffffffffffffffffffffff1673ffffffffffffffffffffffffffffffffffffffff168152602001908152602001600020819055507f8176fc5412eb5076fee7f1a264915b808c24d495c2698c189030e5200e707d25816040516106629190613a10565b60405180910390a150565b610675611739565b73ffffffffffffffffffffffffffffffffffffffff1660008054906101000a900473ffffffffffffffffffffffffffffffffffffffff1673ffffffffffffffffffffffffffffffffffffffff1614610702576040517f08c379a00000000000000000000000000000000000000000000000000000000081526004016106f990613ce8565b60405180910390fd5b80600160006101000a81548173ffffffffffffffffffffffffffffffffffffffff021916908373ffffffffffffffffffffffffffffffffffffffff1602179055507fb80482a293ca2e013eda8683c9bd7fc8347cfdaeea5ede58cba46df502c2a604600160009054906101000a900473ffffffffffffffffffffffffffffffffffffffff166040516107949190613a10565b60405180910390a150565b6107a7611739565b73ffffffffffffffffffffffffffffffffffffffff16600160009054906101000a900473ffffffffffffffffffffffffffffffffffffffff1673ffffffffffffffffffffffffffffffffffffffff16148061083b5750610805611739565b73ffffffffffffffffffffffffffffffffffffffff16610823610c46565b73ffffffffffffffffffffffffffffffffffffffff16145b61087a576040517f08c379a000000000000000000000000000000000000000000000000000000000815260040161087190613c28565b60405180910390fd5b6108826117a1565b565b60045481565b610892611739565b73ffffffffffffffffffffffffffffffffffffffff1660008054906101000a900473ffffffffffffffffffffffffffffffffffffffff1673ffffffffffffffffffffffffffffffffffffffff161461091f576040517f08c379a000000000000000000000000000000000000000000000000000000000815260040161091690613ce8565b60405180910390fd5b81600360006101000a81548173ffffffffffffffffffffffffffffffffffffffff021916908373ffffffffffffffffffffffffffffffffffffffff160217905550806004819055507f5525073b5c48f4c3eb60e9fb2683ee9af96b397fc711f96129331b6fb337439d600360009054906101000a900473ffffffffffffffffffffffffffffffffffffffff166004546040516109bc929190613a61565b60405180910390a15050565b600681565b60008060149054906101000a900460ff16905090565b6109eb611739565b73ffffffffffffffffffffffffffffffffffffffff1660008054906101000a900473ffffffffffffffffffffffffffffffffffffffff1673ffffffffffffffffffffffffffffffffffffffff1614610a78576040517f08c379a0000000000000000000000000000000000000000000000000000000008152600401610a6f90613ce8565b60405180910390fd5b600073ffffffffffffffffffffffffffffffffffffffff1660008054906101000a900473ffffffffffffffffffffffffffffffffffffffff1673ffffffffffffffffffffffffffffffffffffffff167f8be0079c531659141344cd1fd0a4f28419497f9722a3daafe3b4186f6b6457e060405160405180910390a360008060006101000a81548173ffffffffffffffffffffffffffffffffffffffff021916908373ffffffffffffffffffffffffffffffffffffffff160217905550565b600860009054906101000a900473ffffffffffffffffffffffffffffffffffffffff1681565b600281565b610b69611739565b73ffffffffffffffffffffffffffffffffffffffff16600160009054906101000a900473ffffffffffffffffffffffffffffffffffffffff1673ffffffffffffffffffffffffffffffffffffffff161480610bfd5750610bc7611739565b73ffffffffffffffffffffffffffffffffffffffff16610be5610c46565b73ffffffffffffffffffffffffffffffffffffffff16145b610c3c576040517f08c379a0000000000000000000000000000000000000000000000000000000008152600401610c3390613c08565b60405180910390fd5b610c4461184a565b565b60008060009054906101000a900473ffffffffffffffffffffffffffffffffffffffff16905090565b600260009054906101000a900473ffffffffffffffffffffffffffffffffffffffff1681565b600160009054906101000a900473ffffffffffffffffffffffffffffffffffffffff1681565b610cc3611739565b73ffffffffffffffffffffffffffffffffffffffff1660008054906101000a900473ffffffffffffffffffffffffffffffffffffffff1673ffffffffffffffffffffffffffffffffffffffff1614610d50576040517f08c379a0000000000000000000000000000000000000000000000000000000008152600401610d4790613ce8565b60405180910390fd5b600073ffffffffffffffffffffffffffffffffffffffff168273ffffffffffffffffffffffffffffffffffffffff161415610dc0576040517f08c379a0000000000000000000000000000000000000000000000000000000008152600401610db790613d08565b60405180910390fd5b610e0d8282600260009054906101000a900473ffffffffffffffffffffffffffffffffffffffff1673ffffffffffffffffffffffffffffffffffffffff166118f59092919063ffffffff16565b7f69ca02dd4edd7bf0a4abb9ed3b7af3f14778db5d61921c7dc7cd545266326de28282604051610e3e929190613aea565b60405180910390a15050565b610e52611739565b73ffffffffffffffffffffffffffffffffffffffff1660008054906101000a900473ffffffffffffffffffffffffffffffffffffffff1673ffffffffffffffffffffffffffffffffffffffff1614610edf576040517f08c379a0000000000000000000000000000000000000000000000000000000008152600401610ed690613ce8565b60405180910390fd5b80600860006101000a81548173ffffffffffffffffffffffffffffffffffffffff021916908373ffffffffffffffffffffffffffffffffffffffff1602179055507f0a3776494a324cdd72863deb1475d9eb705db96d66e7e199f3ebe4948343a43881604051610f4f9190613a10565b60405180910390a150565b60056020528060005260406000206000915090505481565b606080610f7f600661197b565b67ffffffffffffffff81118015610f9557600080fd5b50604051908082528060200260200182016040528015610fc45781602001602082028036833780820191505090505b50905060005b610fd4600661197b565b81101561104257610fef81600661199090919063ffffffff16565b828281518110610ffb57fe5b602002602001019073ffffffffffffffffffffffffffffffffffffffff16908173ffffffffffffffffffffffffffffffffffffffff16815250508080600101915050610fca565b508091505090565b600060149054906101000a900460ff161561109a576040517f08c379a000000000000000000000000000000000000000000000000000000000815260040161109190613c88565b60405180910390fd5b60008111156110fa576110f96110ae611739565b3083600260009054906101000a900473ffffffffffffffffffffffffffffffffffffffff1673ffffffffffffffffffffffffffffffffffffffff166119aa909392919063ffffffff16565b5b611102611a33565b5061110b612361565b5050565b600360009054906101000a900473ffffffffffffffffffffffffffffffffffffffff1681565b61113d611739565b73ffffffffffffffffffffffffffffffffffffffff1660008054906101000a900473ffffffffffffffffffffffffffffffffffffffff1673ffffffffffffffffffffffffffffffffffffffff16146111ca576040517f08c379a00000000000000000000000000000000000000000000000000000000081526004016111c190613ce8565b60405180910390fd5b600073ffffffffffffffffffffffffffffffffffffffff168173ffffffffffffffffffffffffffffffffffffffff16141561123a576040517f08c379a000000000000000000000000000000000000000000000000000000000815260040161123190613be8565b60405180910390fd5b8073ffffffffffffffffffffffffffffffffffffffff1660008054906101000a900473ffffffffffffffffffffffffffffffffffffffff1673ffffffffffffffffffffffffffffffffffffffff167f8be0079c531659141344cd1fd0a4f28419497f9722a3daafe3b4186f6b6457e060405160405180910390a3806000806101000a81548173ffffffffffffffffffffffffffffffffffffffff021916908373ffffffffffffffffffffffffffffffffffffffff16021790555050565b6112ff611739565b73ffffffffffffffffffffffffffffffffffffffff1660008054906101000a900473ffffffffffffffffffffffffffffffffffffffff1673ffffffffffffffffffffffffffffffffffffffff161461138c576040517f08c379a000000000000000000000000000000000000000000000000000000000815260040161138390613ce8565b60405180910390fd5b8173ffffffffffffffffffffffffffffffffffffffff16600260009054906101000a900473ffffffffffffffffffffffffffffffffffffffff1673ffffffffffffffffffffffffffffffffffffffff16141561141d576040517f08c379a000000000000000000000000000000000000000000000000000000000815260040161141490613c68565b60405180910390fd5b6000600260009054906101000a900473ffffffffffffffffffffffffffffffffffffffff1673ffffffffffffffffffffffffffffffffffffffff166370a08231306040518263ffffffff1660e01b815260040161147a9190613a2b565b60206040518083038186803b15801561149257600080fd5b505afa1580156114a6573d6000803e3d6000fd5b505050506040513d601f19601f820116820180604052508101906114ca9190613066565b905060008111156114e0576114df8282610cbb565b5b82600260006101000a81548173ffffffffffffffffffffffffffffffffffffffff021916908373ffffffffffffffffffffffffffffffffffffffff1602179055507fefe17208340787cbdf98b690d3d3dc01263f933ae65ed1a4d95f34607ab3af42836040516115509190613a10565b60405180910390a1505050565b611565611739565b73ffffffffffffffffffffffffffffffffffffffff1660008054906101000a900473ffffffffffffffffffffffffffffffffffffffff1673ffffffffffffffffffffffffffffffffffffffff16146115f2576040517f08c379a00000000000000000000000000000000000000000000000000000000081526004016115e990613ce8565b60405180910390fd5b61160682600661174190919063ffffffff16565b15611646576040517f08c379a000000000000000000000000000000000000000000000000000000000815260040161163d90613d28565b60405180910390fd5b60646116628261165461258a565b61261b90919063ffffffff16565b11156116a3576040517f08c379a000000000000000000000000000000000000000000000000000000000815260040161169a90613e28565b60405180910390fd5b6116b782600661267090919063ffffffff16565b5080600560008473ffffffffffffffffffffffffffffffffffffffff1673ffffffffffffffffffffffffffffffffffffffff168152602001908152602001600020819055507f79e1204b22e0669817ad586b72c3139f6c32afa18749b53228050f4c7f696467828260405161172d929190613aea565b60405180910390a15050565b600033905090565b6000611769836000018373ffffffffffffffffffffffffffffffffffffffff1660001b6126a0565b905092915050565b6000611799836000018373ffffffffffffffffffffffffffffffffffffffff1660001b6126c3565b905092915050565b600060149054906101000a900460ff166117f0576040517f08c379a00000000000000000000000000000000000000000000000000000000081526004016117e790613bc8565b60405180910390fd5b60008060146101000a81548160ff0219169083151502179055507f5db9ee0a495bf2e6ff9c91a7834c1ba4fdd244a5e8aa4e537bd38aeae4b073aa611833611739565b6040516118409190613a2b565b60405180910390a1565b600060149054906101000a900460ff161561189a576040517f08c379a000000000000000000000000000000000000000000000000000000000815260040161189190613c88565b60405180910390fd5b6001600060146101000a81548160ff0219169083151502179055507f62e78cea01bee320cd4e420270b5ea74000d11b0c9f74754ebdbfc544b05a2586118de611739565b6040516118eb9190613a2b565b60405180910390a1565b6119768363a9059cbb60e01b8484604051602401611914929190613aea565b604051602081830303815290604052907bffffffffffffffffffffffffffffffffffffffffffffffffffffffff19166020820180517bffffffffffffffffffffffffffffffffffffffffffffffffffffffff83818316178352505050506127ab565b505050565b600061198982600001612872565b9050919050565b600061199f8360000183612883565b60001c905092915050565b611a2d846323b872dd60e01b8585856040516024016119cb93929190613ab3565b604051602081830303815290604052907bffffffffffffffffffffffffffffffffffffffffffffffffffffffff19166020820180517bffffffffffffffffffffffffffffffffffffffffffffffffffffffff83818316178352505050506127ab565b50505050565b600080600260009054906101000a900473ffffffffffffffffffffffffffffffffffffffff1673ffffffffffffffffffffffffffffffffffffffff166370a08231306040518263ffffffff1660e01b8152600401611a919190613a2b565b60206040518083038186803b158015611aa957600080fd5b505afa158015611abd573d6000803e3d6000fd5b505050506040513d601f19601f82011682018060405250810190611ae19190613066565b90506000811415611af657600091505061235e565b6000600360009054906101000a900473ffffffffffffffffffffffffffffffffffffffff1673ffffffffffffffffffffffffffffffffffffffff163190506004548110611b485760009250505061235e565b6000611b5f826004546128f090919063ffffffff16565b9050600047905081811015612291576000611b8382846128f090919063ffffffff16565b90506060600267ffffffffffffffff81118015611b9f57600080fd5b50604051908082528060200260200182016040528015611bce5781602001602082028036833780820191505090505b509050600260009054906101000a900473ffffffffffffffffffffffffffffffffffffffff1681600081518110611c0157fe5b602002602001019073ffffffffffffffffffffffffffffffffffffffff16908173ffffffffffffffffffffffffffffffffffffffff1681525050600860009054906101000a900473ffffffffffffffffffffffffffffffffffffffff1673ffffffffffffffffffffffffffffffffffffffff1663ad5c46486040518163ffffffff1660e01b815260040160206040518083038186803b158015611ca357600080fd5b505afa158015611cb7573d6000803e3d6000fd5b505050506040513d601f19601f82011682018060405250810190611cdb9190612ef6565b81600181518110611ce857fe5b602002602001019073ffffffffffffffffffffffffffffffffffffffff16908173ffffffffffffffffffffffffffffffffffffffff16815250506060600860009054906101000a900473ffffffffffffffffffffffffffffffffffffffff1673ffffffffffffffffffffffffffffffffffffffff16631f00ca7484846040518363ffffffff1660e01b8152600401611d81929190613e63565b60006040518083038186803b158015611d9957600080fd5b505afa158015611dad573d6000803e3d6000fd5b505050506040513d6000823e3d601f19601f82011682018060405250810190611dd69190612fd3565b90506002815114611e1c576040517f08c379a0000000000000000000000000000000000000000000000000000000008152600401611e1390613e08565b60405180910390fd5b600081600081518110611e2b57fe5b602002602001015111611e73576040517f08c379a0000000000000000000000000000000000000000000000000000000008152600401611e6a90613d48565b60405180910390fd5b8681600081518110611e8157fe5b602002602001015111611fe557611f11600860009054906101000a900473ffffffffffffffffffffffffffffffffffffffff1682600081518110611ec157fe5b6020026020010151600260009054906101000a900473ffffffffffffffffffffffffffffffffffffffff1673ffffffffffffffffffffffffffffffffffffffff1661293a9092919063ffffffff16565b600860009054906101000a900473ffffffffffffffffffffffffffffffffffffffff1673ffffffffffffffffffffffffffffffffffffffff16634a25d94a8483600081518110611f5d57fe5b60200260200101518530426040518663ffffffff1660e01b8152600401611f88959493929190613e93565b600060405180830381600087803b158015611fa257600080fd5b505af1158015611fb6573d6000803e3d6000fd5b505050506040513d6000823e3d601f19601f82011682018060405250810190611fdf9190612fd3565b5061228d565b6060600860009054906101000a900473ffffffffffffffffffffffffffffffffffffffff1673ffffffffffffffffffffffffffffffffffffffff1663d06ca61f89856040518363ffffffff1660e01b8152600401612044929190613e63565b60006040518083038186803b15801561205c57600080fd5b505afa158015612070573d6000803e3d6000fd5b505050506040513d6000823e3d601f19601f820116820180604052508101906120999190612fd3565b905060028151146120df576040517f08c379a00000000000000000000000000000000000000000000000000000000081526004016120d690613d88565b60405180910390fd5b6000816001815181106120ee57fe5b602002602001015111612136576040517f08c379a000000000000000000000000000000000000000000000000000000000815260040161212d90613ca8565b60405180910390fd5b8060018151811061214357fe5b602002602001015195506121bc600860009054906101000a900473ffffffffffffffffffffffffffffffffffffffff1689600260009054906101000a900473ffffffffffffffffffffffffffffffffffffffff1673ffffffffffffffffffffffffffffffffffffffff1661293a9092919063ffffffff16565b600860009054906101000a900473ffffffffffffffffffffffffffffffffffffffff1673ffffffffffffffffffffffffffffffffffffffff166318cbafe5898360018151811061220857fe5b60200260200101518630426040518663ffffffff1660e01b8152600401612233959493929190613e93565b600060405180830381600087803b15801561224d57600080fd5b505af1158015612261573d6000803e3d6000fd5b505050506040513d6000823e3d601f19601f8201168201806040525081019061228a9190612fd3565b50505b5050505b600360009054906101000a900473ffffffffffffffffffffffffffffffffffffffff1673ffffffffffffffffffffffffffffffffffffffff166108fc839081150290604051600060405180830381858888f193505050501580156122f9573d6000803e3d6000fd5b507faf728e27f6982cf8664dd0a502802370b9c71a6e3e2ccf57a9656fa408a51b8e600360009054906101000a900473ffffffffffffffffffffffffffffffffffffffff168360405161234d929190613a61565b60405180910390a160019450505050505b90565b600080600260009054906101000a900473ffffffffffffffffffffffffffffffffffffffff1673ffffffffffffffffffffffffffffffffffffffff166370a08231306040518263ffffffff1660e01b81526004016123bf9190613a2b565b60206040518083038186803b1580156123d757600080fd5b505afa1580156123eb573d6000803e3d6000fd5b505050506040513d601f19601f8201168201806040525081019061240f9190613066565b90506000811415612424576000915050612587565b60005b612431600661197b565b81101561258057600061244e82600661199090919063ffffffff16565b90506000600560008373ffffffffffffffffffffffffffffffffffffffff1673ffffffffffffffffffffffffffffffffffffffff16815260200190815260200160002054905060006124e86124ae6002600661261b90919063ffffffff16565b600a0a6124da846124cc6006600a0a8a612a9890919063ffffffff16565b612a9890919063ffffffff16565b612b0890919063ffffffff16565b90506125378382600260009054906101000a900473ffffffffffffffffffffffffffffffffffffffff1673ffffffffffffffffffffffffffffffffffffffff166118f59092919063ffffffff16565b7f89a2b21c9895bbb8506e9de454d15ab9cf93782b8d2a4b61120331c3610b35ee8382604051612568929190613aea565b60405180910390a15050508080600101915050612427565b5060019150505b90565b600080600090505b61259c600661197b565b81101561261757612608600560006125be84600661199090919063ffffffff16565b73ffffffffffffffffffffffffffffffffffffffff1673ffffffffffffffffffffffffffffffffffffffff168152602001908152602001600020548361261b90919063ffffffff16565b91508080600101915050612592565b5090565b600080828401905083811015612666576040517f08c379a000000000000000000000000000000000000000000000000000000000815260040161265d90613c48565b60405180910390fd5b8091505092915050565b6000612698836000018373ffffffffffffffffffffffffffffffffffffffff1660001b612b52565b905092915050565b600080836001016000848152602001908152602001600020541415905092915050565b6000808360010160008481526020019081526020016000205490506000811461279f576000600182039050600060018660000180549050039050600086600001828154811061270e57fe5b906000526020600020015490508087600001848154811061272b57fe5b906000526020600020018190555060018301876001016000838152602001908152602001600020819055508660000180548061276357fe5b600190038181906000526020600020016000905590558660010160008781526020019081526020016000206000905560019450505050506127a5565b60009150505b92915050565b606061280d826040518060400160405280602081526020017f5361666545524332303a206c6f772d6c6576656c2063616c6c206661696c65648152508573ffffffffffffffffffffffffffffffffffffffff16612bc29092919063ffffffff16565b905060008151111561286d578080602001905181019061282d9190613014565b61286c576040517f08c379a000000000000000000000000000000000000000000000000000000000815260040161286390613da8565b60405180910390fd5b5b505050565b600081600001805490509050919050565b6000818360000180549050116128ce576040517f08c379a00000000000000000000000000000000000000000000000000000000081526004016128c590613ba8565b60405180910390fd5b8260000182815481106128dd57fe5b9060005260206000200154905092915050565b600061293283836040518060400160405280601e81526020017f536166654d6174683a207375627472616374696f6e206f766572666c6f770000815250612bda565b905092915050565b60008114806129d3575060008373ffffffffffffffffffffffffffffffffffffffff1663dd62ed3e30856040518363ffffffff1660e01b8152600401612981929190613a8a565b60206040518083038186803b15801561299957600080fd5b505afa1580156129ad573d6000803e3d6000fd5b505050506040513d601f19601f820116820180604052508101906129d19190613066565b145b612a12576040517f08c379a0000000000000000000000000000000000000000000000000000000008152600401612a0990613de8565b60405180910390fd5b612a938363095ea7b360e01b8484604051602401612a31929190613aea565b604051602081830303815290604052907bffffffffffffffffffffffffffffffffffffffffffffffffffffffff19166020820180517bffffffffffffffffffffffffffffffffffffffffffffffffffffffff83818316178352505050506127ab565b505050565b600080831415612aab5760009050612b02565b6000828402905082848281612abc57fe5b0414612afd576040517f08c379a0000000000000000000000000000000000000000000000000000000008152600401612af490613cc8565b60405180910390fd5b809150505b92915050565b6000612b4a83836040518060400160405280601a81526020017f536166654d6174683a206469766973696f6e206279207a65726f000000000000815250612c35565b905092915050565b6000612b5e83836126a0565b612bb7578260000182908060018154018082558091505060019003906000526020600020016000909190919091505582600001805490508360010160008481526020019081526020016000208190555060019050612bbc565b600090505b92915050565b6060612bd18484600085612c96565b90509392505050565b6000838311158290612c22576040517f08c379a0000000000000000000000000000000000000000000000000000000008152600401612c199190613b86565b60405180910390fd5b5060008385039050809150509392505050565b60008083118290612c7c576040517f08c379a0000000000000000000000000000000000000000000000000000000008152600401612c739190613b86565b60405180910390fd5b506000838581612c8857fe5b049050809150509392505050565b6060612ca185612db9565b612ce0576040517f08c379a0000000000000000000000000000000000000000000000000000000008152600401612cd790613d68565b60405180910390fd5b600060608673ffffffffffffffffffffffffffffffffffffffff168587604051612d0a91906139f9565b60006040518083038185875af1925050503d8060008114612d47576040519150601f19603f3d011682016040523d82523d6000602084013e612d4c565b606091505b50915091508115612d61578092505050612db1565b600081511115612d745780518082602001fd5b836040517f08c379a0000000000000000000000000000000000000000000000000000000008152600401612da89190613b86565b60405180910390fd5b949350505050565b600080823b905060008111915050919050565b600081359050612ddb816140c9565b92915050565b600081519050612df0816140c9565b92915050565b600081359050612e05816140e0565b92915050565b600082601f830112612e1c57600080fd5b8151612e2f612e2a82613f1a565b613eed565b91508181835260208401935060208101905083856020840282011115612e5457600080fd5b60005b83811015612e845781612e6a8882612eb8565b845260208401935060208301925050600181019050612e57565b5050505092915050565b600081519050612e9d816140f7565b92915050565b600081359050612eb28161410e565b92915050565b600081519050612ec78161410e565b92915050565b600060208284031215612edf57600080fd5b6000612eed84828501612dcc565b91505092915050565b600060208284031215612f0857600080fd5b6000612f1684828501612de1565b91505092915050565b60008060408385031215612f3257600080fd5b6000612f4085828601612df6565b9250506020612f5185828601612ea3565b9150509250929050565b60008060408385031215612f6e57600080fd5b6000612f7c85828601612dcc565b9250506020612f8d85828601612dcc565b9150509250929050565b60008060408385031215612faa57600080fd5b6000612fb885828601612dcc565b9250506020612fc985828601612ea3565b9150509250929050565b600060208284031215612fe557600080fd5b600082015167ffffffffffffffff811115612fff57600080fd5b61300b84828501612e0b565b91505092915050565b60006020828403121561302657600080fd5b600061303484828501612e8e565b91505092915050565b60006020828403121561304f57600080fd5b600061305d84828501612ea3565b91505092915050565b60006020828403121561307857600080fd5b600061308684828501612eb8565b91505092915050565b600061309b83836130c5565b60208301905092915050565b6130b081614007565b82525050565b6130bf81613fbf565b82525050565b6130ce81613fad565b82525050565b6130dd81613fad565b82525050565b60006130ee82613f52565b6130f88185613f80565b935061310383613f42565b8060005b8381101561313457815161311b888261308f565b975061312683613f73565b925050600181019050613107565b5085935050505092915050565b61314a81613fd1565b82525050565b600061315b82613f5d565b6131658185613f91565b9350613175818560208601614085565b80840191505092915050565b61318a81614019565b82525050565b6131998161403d565b82525050565b60006131aa82613f68565b6131b48185613f9c565b93506131c4818560208601614085565b6131cd816140b8565b840191505092915050565b60006131e5602283613f9c565b91507f456e756d657261626c655365743a20696e646578206f7574206f6620626f756e60008301527f64730000000000000000000000000000000000000000000000000000000000006020830152604082019050919050565b600061324b601483613f9c565b91507f5061757361626c653a206e6f74207061757365640000000000000000000000006000830152602082019050919050565b600061328b602683613f9c565b91507f4f776e61626c653a206e6577206f776e657220697320746865207a65726f206160008301527f64647265737300000000000000000000000000000000000000000000000000006020830152604082019050919050565b60006132f1604183613f9c565b91507f4f776e61626c655061757361626c653a3a70617573653a206f6e6c792070617560008301527f73657220616e64206f776e6572206d75737420706175736520636f6e7472616360208301527f74000000000000000000000000000000000000000000000000000000000000006040830152606082019050919050565b600061337d604583613f9c565b91507f4f776e61626c655061757361626c653a3a756e70617573653a206f6e6c79207060008301527f617573657220616e64206f776e6572206d75737420756e706175736520636f6e60208301527f74726163740000000000000000000000000000000000000000000000000000006040830152606082019050919050565b6000613409601b83613f9c565b91507f536166654d6174683a206164646974696f6e206f766572666c6f7700000000006000830152602082019050919050565b6000613449604083613f9c565b91507f50726f66697453706c69747465723a3a6368616e6765496e636f6d696e673a2060008301527f6475706c696361746520696e636f6d696e6720746f6b656e20616464726573736020830152604082019050919050565b60006134af601083613f9c565b91507f5061757361626c653a20706175736564000000000000000000000000000000006000830152602082019050919050565b60006134ef604183613f9c565b91507f50726f66697453706c69747465723a3a5f706179546f4275646765743a20616d60008301527f6f756e7473206f7574206c697175696469747920706f6f6c20697320656d707460208301527f79000000000000000000000000000000000000000000000000000000000000006040830152606082019050919050565b600061357b602183613f9c565b91507f536166654d6174683a206d756c7469706c69636174696f6e206f766572666c6f60008301527f77000000000000000000000000000000000000000000000000000000000000006020830152604082019050919050565b60006135e1602083613f9c565b91507f4f776e61626c653a2063616c6c6572206973206e6f7420746865206f776e65726000830152602082019050919050565b6000613621603d83613f9c565b91507f50726f66697453706c69747465723a3a7472616e736665723a2063616e6e6f7460008301527f207472616e7366657220746f20746865207a65726f20616464726573730000006020830152604082019050919050565b6000613687603583613f9c565b91507f50726f66697453706c69747465723a3a616464526563697069656e743a20726560008301527f63697069656e7420616c726561647920616464656400000000000000000000006020830152604082019050919050565b60006136ed603583613f9c565b91507f50726f66697453706c69747465723a3a5f706179546f4275646765743a206c6960008301527f7175696469747920706f6f6c20697320656d70747900000000000000000000006020830152604082019050919050565b6000613753601d83613f9c565b91507f416464726573733a2063616c6c20746f206e6f6e2d636f6e74726163740000006000830152602082019050919050565b6000613793603883613f9c565b91507f50726f66697453706c69747465723a3a5f706179546f4275646765743a20696e60008301527f76616c696420616d6f756e7473206f7574206c656e67746800000000000000006020830152604082019050919050565b60006137f9602a83613f9c565b91507f5361666545524332303a204552433230206f7065726174696f6e20646964206e60008301527f6f742073756363656564000000000000000000000000000000000000000000006020830152604082019050919050565b600061385f603a83613f9c565b91507f50726f66697453706c69747465723a3a72656d6f7665526563697069656e743a60008301527f20726563697069656e7420616c72656164792072656d6f7665640000000000006020830152604082019050919050565b60006138c5603683613f9c565b91507f5361666545524332303a20617070726f76652066726f6d206e6f6e2d7a65726f60008301527f20746f206e6f6e2d7a65726f20616c6c6f77616e6365000000000000000000006020830152604082019050919050565b600061392b603783613f9c565b91507f50726f66697453706c69747465723a3a5f706179546f4275646765743a20696e60008301527f76616c696420616d6f756e747320696e206c656e6774680000000000000000006020830152604082019050919050565b6000613991602b83613f9c565b91507f50726f66697453706c69747465723a3a616464526563697069656e743a20696e60008301527f76616c69642073686172650000000000000000000000000000000000000000006020830152604082019050919050565b6139f381613ffd565b82525050565b6000613a058284613150565b915081905092915050565b6000602082019050613a2560008301846130d4565b92915050565b6000602082019050613a4060008301846130a7565b92915050565b6000602082019050613a5b60008301846130b6565b92915050565b6000604082019050613a7660008301856130a7565b613a8360208301846139ea565b9392505050565b6000604082019050613a9f60008301856130d4565b613aac60208301846130d4565b9392505050565b6000606082019050613ac860008301866130d4565b613ad560208301856130d4565b613ae260408301846139ea565b949350505050565b6000604082019050613aff60008301856130d4565b613b0c60208301846139ea565b9392505050565b60006020820190508181036000830152613b2d81846130e3565b905092915050565b6000602082019050613b4a6000830184613141565b92915050565b6000602082019050613b656000830184613181565b92915050565b6000602082019050613b806000830184613190565b92915050565b60006020820190508181036000830152613ba0818461319f565b905092915050565b60006020820190508181036000830152613bc1816131d8565b9050919050565b60006020820190508181036000830152613be18161323e565b9050919050565b60006020820190508181036000830152613c018161327e565b9050919050565b60006020820190508181036000830152613c21816132e4565b9050919050565b60006020820190508181036000830152613c4181613370565b9050919050565b60006020820190508181036000830152613c61816133fc565b9050919050565b60006020820190508181036000830152613c818161343c565b9050919050565b60006020820190508181036000830152613ca1816134a2565b9050919050565b60006020820190508181036000830152613cc1816134e2565b9050919050565b60006020820190508181036000830152613ce18161356e565b9050919050565b60006020820190508181036000830152613d01816135d4565b9050919050565b60006020820190508181036000830152613d2181613614565b9050919050565b60006020820190508181036000830152613d418161367a565b9050919050565b60006020820190508181036000830152613d61816136e0565b9050919050565b60006020820190508181036000830152613d8181613746565b9050919050565b60006020820190508181036000830152613da181613786565b9050919050565b60006020820190508181036000830152613dc1816137ec565b9050919050565b60006020820190508181036000830152613de181613852565b9050919050565b60006020820190508181036000830152613e01816138b8565b9050919050565b60006020820190508181036000830152613e218161391e565b9050919050565b60006020820190508181036000830152613e4181613984565b9050919050565b6000602082019050613e5d60008301846139ea565b92915050565b6000604082019050613e7860008301856139ea565b8181036020830152613e8a81846130e3565b90509392505050565b600060a082019050613ea860008301886139ea565b613eb560208301876139ea565b8181036040830152613ec781866130e3565b9050613ed660608301856130a7565b613ee360808301846139ea565b9695505050505050565b6000604051905081810181811067ffffffffffffffff82111715613f1057600080fd5b8060405250919050565b600067ffffffffffffffff821115613f3157600080fd5b602082029050602081019050919050565b6000819050602082019050919050565b600081519050919050565b600081519050919050565b600081519050919050565b6000602082019050919050565b600082825260208201905092915050565b600081905092915050565b600082825260208201905092915050565b6000613fb882613fdd565b9050919050565b6000613fca82613fdd565b9050919050565b60008115159050919050565b600073ffffffffffffffffffffffffffffffffffffffff82169050919050565b6000819050919050565b600061401282614061565b9050919050565b60006140248261402b565b9050919050565b600061403682613fdd565b9050919050565b60006140488261404f565b9050919050565b600061405a82613fdd565b9050919050565b600061406c82614073565b9050919050565b600061407e82613fdd565b9050919050565b60005b838110156140a3578082015181840152602081019050614088565b838111156140b2576000848401525b50505050565b6000601f19601f8301169050919050565b6140d281613fad565b81146140dd57600080fd5b50565b6140e981613fbf565b81146140f457600080fd5b50565b61410081613fd1565b811461410b57600080fd5b50565b61411781613ffd565b811461412257600080fd5b5056fea2646970667358221220cc585cacc5ce61eb518e1020917220ab5a41cd87d312fa7bf263d846ed4cfb4964736f6c634300060c0033",
  "devdoc": {
    "kind": "dev",
    "methods": {
      "addRecipient(address,uint256)": {
        "params": {
          "recipient": "Address of recipient contract.",
          "share": "Target share."
        }
      },
      "changeBudget(address,uint256)": {
        "params": {
          "_budget": "Address of budget contract.",
          "_budgetBalance": "Target budget balance."
        }
      },
      "changeIncoming(address,address)": {
        "params": {
          "_incoming": "New incoming token address.",
          "_recipient": "Address of recipient."
        }
      },
      "changePauser(address)": {
        "params": {
          "newPauser": "Address of new pauser account."
        }
      },
      "changeUniswapRouter(address)": {
        "params": {
          "_uniswapRouter": "Address new uniswap router contract."
        }
      },
      "constructor": {
        "params": {
          "_incoming": "Address of incoming token.",
          "_uniswapRouter": "Address of Uniswap router contract."
        }
      },
      "getRecipients()": {
        "returns": {
          "_0": "Current recipients list."
        }
      },
      "owner()": {
        "details": "Returns the address of the current owner."
      },
      "paused()": {
        "details": "Returns true if the contract is paused, and false otherwise."
      },
      "removeRecipient(address)": {
        "params": {
          "recipient": "Address of recipient contract."
        }
      },
      "renounceOwnership()": {
        "details": "Leaves the contract without owner. It will not be possible to call `onlyOwner` functions anymore. Can only be called by the current owner. NOTE: Renouncing ownership will leave the contract without an owner, thereby removing any functionality that is only available to the owner."
      },
      "split(uint256)": {
        "params": {
          "amount": "Approved amount incoming token."
        }
      },
      "transfer(address,uint256)": {
        "params": {
          "_recipient": "Address of recipient.",
          "amount": "Amount of transferred token."
        }
      },
      "transferOwnership(address)": {
        "details": "Transfers ownership of the contract to a new account (`newOwner`). Can only be called by the current owner."
      }
    },
    "stateVariables": {
      "recipientsIndex": {
        "details": "Recipients addresses index."
      }
    },
    "version": 1
  },
  "userdoc": {
    "events": {
      "BudgetChanged(address,uint256)": {
        "notice": "An event thats emitted when an budget contract address and target balance changed."
      },
      "IncomingChanged(address)": {
        "notice": "An event thats emitted when an incoming token changed."
      },
      "PauserChanged(address)": {
        "notice": "An event thats emitted when an pauser address changed."
      },
      "PayToBudget(address,uint256)": {
        "notice": "An event thats emitted when an profit payed to budget."
      },
      "PayToRecipient(address,uint256)": {
        "notice": "An event thats emitted when an profit payed to recipient."
      },
      "RecipientAdded(address,uint256)": {
        "notice": "An event thats emitted when an recipient added."
      },
      "RecipientRemoved(address)": {
        "notice": "An event thats emitted when an recipient removed."
      },
      "Transfer(address,uint256)": {
        "notice": "An event thats emitted when an incoming token transferred to recipient."
      },
      "UniswapRouterChanged(address)": {
        "notice": "An event thats emitted when an uniswap router contract address changed."
      }
    },
    "kind": "user",
    "methods": {
      "addRecipient(address,uint256)": {
        "notice": "Add recipient."
      },
      "budget()": {
        "notice": "Budget contract address."
      },
      "budgetBalance()": {
        "notice": "Target budget ETH balance."
      },
      "changeBudget(address,uint256)": {
        "notice": "Changed budget contract address and target balance."
      },
      "changeIncoming(address,address)": {
        "notice": "Change incoming token address."
      },
      "changePauser(address)": {
        "notice": "Change pauser account."
      },
      "changeUniswapRouter(address)": {
        "notice": "Changed uniswap router contract address."
      },
      "getRecipients()": {
        "notice": "Get addresses of recipients."
      },
      "incoming()": {
        "notice": "Incoming token."
      },
      "pause()": {
        "notice": "Triggers stopped state."
      },
      "pauser()": {
        "notice": "Address that can pause a contract."
      },
      "removeRecipient(address)": {
        "notice": "Remove recipient."
      },
      "shares(address)": {
        "notice": "Recipients share."
      },
      "split(uint256)": {
        "notice": "Split all incoming token balance to recipients and budget contract."
      },
      "transfer(address,uint256)": {
        "notice": "Transfer incoming token to recipient."
      },
      "uniswapRouter()": {
        "notice": "Uniswap router contract address."
      },
      "unpause()": {
        "notice": "Returns to normal state."
      }
    },
    "version": 1
  },
  "storageLayout": {
    "storage": [
      {
        "astId": 30,
        "contract": "contracts/profit/ProfitSplitter.sol:ProfitSplitter",
        "label": "_owner",
        "offset": 0,
        "slot": "0",
        "type": "t_address"
      },
      {
        "astId": 1806,
        "contract": "contracts/profit/ProfitSplitter.sol:ProfitSplitter",
        "label": "_paused",
        "offset": 20,
        "slot": "0",
        "type": "t_bool"
      },
      {
        "astId": 13899,
        "contract": "contracts/profit/ProfitSplitter.sol:ProfitSplitter",
        "label": "pauser",
        "offset": 0,
        "slot": "1",
        "type": "t_address"
      },
      {
        "astId": 11608,
        "contract": "contracts/profit/ProfitSplitter.sol:ProfitSplitter",
        "label": "incoming",
        "offset": 0,
        "slot": "2",
        "type": "t_contract(ERC20)907"
      },
      {
        "astId": 11611,
        "contract": "contracts/profit/ProfitSplitter.sol:ProfitSplitter",
        "label": "budget",
        "offset": 0,
        "slot": "3",
        "type": "t_address_payable"
      },
      {
        "astId": 11614,
        "contract": "contracts/profit/ProfitSplitter.sol:ProfitSplitter",
        "label": "budgetBalance",
        "offset": 0,
        "slot": "4",
        "type": "t_uint256"
      },
      {
        "astId": 11619,
        "contract": "contracts/profit/ProfitSplitter.sol:ProfitSplitter",
        "label": "shares",
        "offset": 0,
        "slot": "5",
        "type": "t_mapping(t_address,t_uint256)"
      },
      {
        "astId": 11622,
        "contract": "contracts/profit/ProfitSplitter.sol:ProfitSplitter",
        "label": "recipientsIndex",
        "offset": 0,
        "slot": "6",
        "type": "t_struct(AddressSet)1584_storage"
      },
      {
        "astId": 11625,
        "contract": "contracts/profit/ProfitSplitter.sol:ProfitSplitter",
        "label": "uniswapRouter",
        "offset": 0,
        "slot": "8",
        "type": "t_contract(IUniswapV2Router02)13744"
      }
    ],
    "types": {
      "t_address": {
        "encoding": "inplace",
        "label": "address",
        "numberOfBytes": "20"
      },
      "t_address_payable": {
        "encoding": "inplace",
        "label": "address payable",
        "numberOfBytes": "20"
      },
      "t_array(t_bytes32)dyn_storage": {
        "base": "t_bytes32",
        "encoding": "dynamic_array",
        "label": "bytes32[]",
        "numberOfBytes": "32"
      },
      "t_bool": {
        "encoding": "inplace",
        "label": "bool",
        "numberOfBytes": "1"
      },
      "t_bytes32": {
        "encoding": "inplace",
        "label": "bytes32",
        "numberOfBytes": "32"
      },
      "t_contract(ERC20)907": {
        "encoding": "inplace",
        "label": "contract ERC20",
        "numberOfBytes": "20"
      },
      "t_contract(IUniswapV2Router02)13744": {
        "encoding": "inplace",
        "label": "contract IUniswapV2Router02",
        "numberOfBytes": "20"
      },
      "t_mapping(t_address,t_uint256)": {
        "encoding": "mapping",
        "key": "t_address",
        "label": "mapping(address => uint256)",
        "numberOfBytes": "32",
        "value": "t_uint256"
      },
      "t_mapping(t_bytes32,t_uint256)": {
        "encoding": "mapping",
        "key": "t_bytes32",
        "label": "mapping(bytes32 => uint256)",
        "numberOfBytes": "32",
        "value": "t_uint256"
      },
      "t_struct(AddressSet)1584_storage": {
        "encoding": "inplace",
        "label": "struct EnumerableSet.AddressSet",
        "members": [
          {
            "astId": 1583,
            "contract": "contracts/profit/ProfitSplitter.sol:ProfitSplitter",
            "label": "_inner",
            "offset": 0,
            "slot": "0",
            "type": "t_struct(Set)1404_storage"
          }
        ],
        "numberOfBytes": "64"
      },
      "t_struct(Set)1404_storage": {
        "encoding": "inplace",
        "label": "struct EnumerableSet.Set",
        "members": [
          {
            "astId": 1399,
            "contract": "contracts/profit/ProfitSplitter.sol:ProfitSplitter",
            "label": "_values",
            "offset": 0,
            "slot": "0",
            "type": "t_array(t_bytes32)dyn_storage"
          },
          {
            "astId": 1403,
            "contract": "contracts/profit/ProfitSplitter.sol:ProfitSplitter",
            "label": "_indexes",
            "offset": 0,
            "slot": "1",
            "type": "t_mapping(t_bytes32,t_uint256)"
          }
        ],
        "numberOfBytes": "64"
      },
      "t_uint256": {
        "encoding": "inplace",
        "label": "uint256",
        "numberOfBytes": "32"
      }
    }
  }
}