{
  "address": "0xb9CDBb2b74fc207B190F658aeCF897a48F38A4E3",
  "abi": [
    {
      "inputs": [
        {
          "internalType": "address",
          "name": "_rewardsDistribution",
          "type": "address"
        },
        {
          "internalType": "uint256",
          "name": "_rewardsDuration",
          "type": "uint256"
        },
        {
          "internalType": "address",
          "name": "_rewardsToken",
          "type": "address"
        },
        {
          "internalType": "address",
          "name": "_stakingToken",
          "type": "address"
        },
        {
          "internalType": "uint256",
          "name": "_lockPeriod",
          "type": "uint256"
        },
        {
          "internalType": "uint256",
          "name": "_unlockPeriod",
          "type": "uint256"
        }
      ],
      "stateMutability": "nonpayable",
      "type": "constructor"
    },
    {
      "anonymous": false,
      "inputs": [
        {
          "indexed": true,
          "internalType": "address",
          "name": "previousOwner",
          "type": "address"
        },
        {
          "indexed": true,
          "internalType": "address",
          "name": "newOwner",
          "type": "address"
        }
      ],
      "name": "OwnershipTransferred",
      "type": "event"
    },
    {
      "anonymous": false,
      "inputs": [
        {
          "indexed": false,
          "internalType": "address",
          "name": "account",
          "type": "address"
        }
      ],
      "name": "Paused",
      "type": "event"
    },
    {
      "anonymous": false,
      "inputs": [
        {
          "indexed": false,
          "internalType": "address",
          "name": "newPauser",
          "type": "address"
        }
      ],
      "name": "PauserChanged",
      "type": "event"
    },
    {
      "anonymous": false,
      "inputs": [
        {
          "indexed": false,
          "internalType": "uint256",
          "name": "reward",
          "type": "uint256"
        }
      ],
      "name": "RewardAdded",
      "type": "event"
    },
    {
      "anonymous": false,
      "inputs": [
        {
          "indexed": true,
          "internalType": "address",
          "name": "user",
          "type": "address"
        },
        {
          "indexed": false,
          "internalType": "uint256",
          "name": "reward",
          "type": "uint256"
        }
      ],
      "name": "RewardPaid",
      "type": "event"
    },
    {
      "anonymous": false,
      "inputs": [
        {
          "indexed": false,
          "internalType": "address",
          "name": "newRewardsDistribution",
          "type": "address"
        }
      ],
      "name": "RewardsDistributionChanged",
      "type": "event"
    },
    {
      "anonymous": false,
      "inputs": [
        {
          "indexed": false,
          "internalType": "address",
          "name": "recipient",
          "type": "address"
        },
        {
          "indexed": false,
          "internalType": "uint256",
          "name": "amount",
          "type": "uint256"
        }
      ],
      "name": "RewardsTransfered",
      "type": "event"
    },
    {
      "anonymous": false,
      "inputs": [
        {
          "indexed": true,
          "internalType": "address",
          "name": "user",
          "type": "address"
        },
        {
          "indexed": false,
          "internalType": "uint256",
          "name": "amount",
          "type": "uint256"
        }
      ],
      "name": "Staked",
      "type": "event"
    },
    {
      "anonymous": false,
      "inputs": [
        {
          "indexed": false,
          "internalType": "address",
          "name": "account",
          "type": "address"
        }
      ],
      "name": "Unpaused",
      "type": "event"
    },
    {
      "anonymous": false,
      "inputs": [
        {
          "indexed": true,
          "internalType": "address",
          "name": "user",
          "type": "address"
        },
        {
          "indexed": false,
          "internalType": "uint256",
          "name": "amount",
          "type": "uint256"
        }
      ],
      "name": "Withdrawn",
      "type": "event"
    },
    {
      "inputs": [
        {
          "internalType": "address",
          "name": "account",
          "type": "address"
        }
      ],
      "name": "balanceOf",
      "outputs": [
        {
          "internalType": "uint256",
          "name": "",
          "type": "uint256"
        }
      ],
      "stateMutability": "view",
      "type": "function"
    },
    {
      "inputs": [
        {
          "internalType": "address",
          "name": "newPauser",
          "type": "address"
        }
      ],
      "name": "changePauser",
      "outputs": [],
      "stateMutability": "nonpayable",
      "type": "function"
    },
    {
      "inputs": [
        {
          "internalType": "address",
          "name": "_rewardDistribution",
          "type": "address"
        }
      ],
      "name": "changeRewardsDistribution",
      "outputs": [],
      "stateMutability": "nonpayable",
      "type": "function"
    },
    {
      "inputs": [
        {
          "internalType": "address",
          "name": "account",
          "type": "address"
        }
      ],
      "name": "earned",
      "outputs": [
        {
          "internalType": "uint256",
          "name": "",
          "type": "uint256"
        }
      ],
      "stateMutability": "view",
      "type": "function"
    },
    {
      "inputs": [],
      "name": "exit",
      "outputs": [],
      "stateMutability": "nonpayable",
      "type": "function"
    },
    {
      "inputs": [],
      "name": "getReward",
      "outputs": [],
      "stateMutability": "nonpayable",
      "type": "function"
    },
    {
      "inputs": [],
      "name": "getRewardForDuration",
      "outputs": [
        {
          "internalType": "uint256",
          "name": "",
          "type": "uint256"
        }
      ],
      "stateMutability": "view",
      "type": "function"
    },
    {
      "inputs": [],
      "name": "lastTimeRewardApplicable",
      "outputs": [
        {
          "internalType": "uint256",
          "name": "",
          "type": "uint256"
        }
      ],
      "stateMutability": "view",
      "type": "function"
    },
    {
      "inputs": [],
      "name": "lastUpdateBlock",
      "outputs": [
        {
          "internalType": "uint256",
          "name": "",
          "type": "uint256"
        }
      ],
      "stateMutability": "view",
      "type": "function"
    },
    {
      "inputs": [
        {
          "internalType": "address",
          "name": "account",
          "type": "address"
        }
      ],
      "name": "lockInfo",
      "outputs": [
        {
          "internalType": "bool",
          "name": "locked",
          "type": "bool"
        },
        {
          "internalType": "uint256",
          "name": "mod",
          "type": "uint256"
        },
        {
          "internalType": "uint256",
          "name": "nextUnlock",
          "type": "uint256"
        },
        {
          "internalType": "uint256",
          "name": "nextLock",
          "type": "uint256"
        },
        {
          "internalType": "uint256",
          "name": "stakeAt",
          "type": "uint256"
        }
      ],
      "stateMutability": "view",
      "type": "function"
    },
    {
      "inputs": [],
      "name": "lockPeriod",
      "outputs": [
        {
          "internalType": "uint256",
          "name": "",
          "type": "uint256"
        }
      ],
      "stateMutability": "view",
      "type": "function"
    },
    {
      "inputs": [
        {
          "internalType": "uint256",
          "name": "reward",
          "type": "uint256"
        }
      ],
      "name": "notifyRewardAmount",
      "outputs": [],
      "stateMutability": "nonpayable",
      "type": "function"
    },
    {
      "inputs": [],
      "name": "owner",
      "outputs": [
        {
          "internalType": "address",
          "name": "",
          "type": "address"
        }
      ],
      "stateMutability": "view",
      "type": "function"
    },
    {
      "inputs": [],
      "name": "pause",
      "outputs": [],
      "stateMutability": "nonpayable",
      "type": "function"
    },
    {
      "inputs": [],
      "name": "paused",
      "outputs": [
        {
          "internalType": "bool",
          "name": "",
          "type": "bool"
        }
      ],
      "stateMutability": "view",
      "type": "function"
    },
    {
      "inputs": [],
      "name": "pauser",
      "outputs": [
        {
          "internalType": "address",
          "name": "",
          "type": "address"
        }
      ],
      "stateMutability": "view",
      "type": "function"
    },
    {
      "inputs": [
        {
          "internalType": "address",
          "name": "account",
          "type": "address"
        }
      ],
      "name": "penalty",
      "outputs": [
        {
          "internalType": "uint256",
          "name": "",
          "type": "uint256"
        }
      ],
      "stateMutability": "view",
      "type": "function"
    },
    {
      "inputs": [],
      "name": "periodFinish",
      "outputs": [
        {
          "internalType": "uint256",
          "name": "",
          "type": "uint256"
        }
      ],
      "stateMutability": "view",
      "type": "function"
    },
    {
      "inputs": [],
      "name": "renounceOwnership",
      "outputs": [],
      "stateMutability": "nonpayable",
      "type": "function"
    },
    {
      "inputs": [],
      "name": "rewardPerToken",
      "outputs": [
        {
          "internalType": "uint256",
          "name": "",
          "type": "uint256"
        }
      ],
      "stateMutability": "view",
      "type": "function"
    },
    {
      "inputs": [],
      "name": "rewardPerTokenStored",
      "outputs": [
        {
          "internalType": "uint256",
          "name": "",
          "type": "uint256"
        }
      ],
      "stateMutability": "view",
      "type": "function"
    },
    {
      "inputs": [],
      "name": "rewardRate",
      "outputs": [
        {
          "internalType": "uint256",
          "name": "",
          "type": "uint256"
        }
      ],
      "stateMutability": "view",
      "type": "function"
    },
    {
      "inputs": [
        {
          "internalType": "address",
          "name": "",
          "type": "address"
        }
      ],
      "name": "rewards",
      "outputs": [
        {
          "internalType": "uint256",
          "name": "",
          "type": "uint256"
        }
      ],
      "stateMutability": "view",
      "type": "function"
    },
    {
      "inputs": [],
      "name": "rewardsDistribution",
      "outputs": [
        {
          "internalType": "address",
          "name": "",
          "type": "address"
        }
      ],
      "stateMutability": "view",
      "type": "function"
    },
    {
      "inputs": [],
      "name": "rewardsDuration",
      "outputs": [
        {
          "internalType": "uint256",
          "name": "",
          "type": "uint256"
        }
      ],
      "stateMutability": "view",
      "type": "function"
    },
    {
      "inputs": [],
      "name": "rewardsToken",
      "outputs": [
        {
          "internalType": "contract IERC20",
          "name": "",
          "type": "address"
        }
      ],
      "stateMutability": "view",
      "type": "function"
    },
    {
      "inputs": [
        {
          "internalType": "uint256",
          "name": "amount",
          "type": "uint256"
        }
      ],
      "name": "stake",
      "outputs": [],
      "stateMutability": "nonpayable",
      "type": "function"
    },
    {
      "inputs": [],
      "name": "stakingToken",
      "outputs": [
        {
          "internalType": "contract IERC20",
          "name": "",
          "type": "address"
        }
      ],
      "stateMutability": "view",
      "type": "function"
    },
    {
      "inputs": [],
      "name": "totalSupply",
      "outputs": [
        {
          "internalType": "uint256",
          "name": "",
          "type": "uint256"
        }
      ],
      "stateMutability": "view",
      "type": "function"
    },
    {
      "inputs": [
        {
          "internalType": "address",
          "name": "recipient",
          "type": "address"
        },
        {
          "internalType": "uint256",
          "name": "amount",
          "type": "uint256"
        }
      ],
      "name": "transfer",
      "outputs": [],
      "stateMutability": "nonpayable",
      "type": "function"
    },
    {
      "inputs": [
        {
          "internalType": "address",
          "name": "newOwner",
          "type": "address"
        }
      ],
      "name": "transferOwnership",
      "outputs": [],
      "stateMutability": "nonpayable",
      "type": "function"
    },
    {
      "inputs": [],
      "name": "unlockPeriod",
      "outputs": [
        {
          "internalType": "uint256",
          "name": "",
          "type": "uint256"
        }
      ],
      "stateMutability": "view",
      "type": "function"
    },
    {
      "inputs": [],
      "name": "unpause",
      "outputs": [],
      "stateMutability": "nonpayable",
      "type": "function"
    },
    {
      "inputs": [
        {
          "internalType": "address",
          "name": "",
          "type": "address"
        }
      ],
      "name": "userRewardPerTokenPaid",
      "outputs": [
        {
          "internalType": "uint256",
          "name": "",
          "type": "uint256"
        }
      ],
      "stateMutability": "view",
      "type": "function"
    }
  ],
  "transactionHash": "0x25ab5d24eeb25c50ced58a35e4455ca7e852c7ab2d1b9a439206091236ad5ec7",
  "args": [
    "0x9403932015576D13Fb26B135ed7a35d5d95C18d4",
    1048320,
    "0xa25F58CDef92336Fcbfc92f2c855119A387919b3",
    "0xD15d555Da70AA43b28afFc141aF49EfABCBbB2e6",
    1008000,
    40320
  ],
  "solcInputHash": "7d276f68ac2f691c14f011b68355d2f8",
  "bytecode": "0x60806040523480156200001157600080fd5b50604051620036bb380380620036bb833981810160405260c08110156200003757600080fd5b8101908080519060200190929190805190602001909291908051906020019092919080519060200190929190805190602001909291908051906020019092919050505060006200008c6200028060201b60201c565b9050806000806101000a81548173ffffffffffffffffffffffffffffffffffffffff021916908373ffffffffffffffffffffffffffffffffffffffff1602179055508073ffffffffffffffffffffffffffffffffffffffff16600073ffffffffffffffffffffffffffffffffffffffff167f8be0079c531659141344cd1fd0a4f28419497f9722a3daafe3b4186f6b6457e060405160405180910390a35060008060146101000a81548160ff021916908315150217905550620001546200028860201b60201c565b600160006101000a81548173ffffffffffffffffffffffffffffffffffffffff021916908373ffffffffffffffffffffffffffffffffffffffff160217905550600160028190555085600360006101000a81548173ffffffffffffffffffffffffffffffffffffffff021916908373ffffffffffffffffffffffffffffffffffffffff1602179055508460088190555083600460006101000a81548173ffffffffffffffffffffffffffffffffffffffff021916908373ffffffffffffffffffffffffffffffffffffffff16021790555082600560006101000a81548173ffffffffffffffffffffffffffffffffffffffff021916908373ffffffffffffffffffffffffffffffffffffffff16021790555081600b8190555080600c81905550505050505050620002b1565b600033905090565b60008060009054906101000a900473ffffffffffffffffffffffffffffffffffffffff16905090565b6133fa80620002c16000396000f3fe608060405234801561001057600080fd5b50600436106102055760003560e01c806372f702f31161011a578063a218141b116100ad578063d1af0c7d1161007c578063d1af0c7d14610790578063df136d65146107c4578063e9fad8ee146107e2578063ebe2b12b146107ec578063f2fde38b1461080a57610205565b8063a218141b146106d8578063a694fc3a146106f6578063a9059cbb14610724578063cd3daf9d1461077257610205565b80638b876347116100e95780638b876347146105c05780638da5cb5b1461061857806391b8e8a81461064c5780639fd0506d146106a457610205565b806372f702f3146105465780637b0a47ee1461057a57806380faa57d146105985780638456cb59146105b657610205565b80633d18b9121161019d5780635c975abb1161016c5780635c975abb1461040a578063602e291d1461042a5780636bd3b87c1461046e57806370a08231146104e4578063715018a61461053c57610205565b80633d18b912146103a45780633f4ba83a146103ae5780633fc6df6e146103b85780633fd8b02f146103ec57610205565b806320d3a0b4116101d957806320d3a0b4146102f65780632cd271e714610314578063386a9525146103585780633c6b16ab1461037657610205565b80628cc2621461020a5780630700037d1461026257806318160ddd146102ba5780631c1f78eb146102d8575b600080fd5b61024c6004803603602081101561022057600080fd5b81019080803573ffffffffffffffffffffffffffffffffffffffff16906020019092919050505061084e565b6040518082815260200191505060405180910390f35b6102a46004803603602081101561027857600080fd5b81019080803573ffffffffffffffffffffffffffffffffffffffff16906020019092919050505061096c565b6040518082815260200191505060405180910390f35b6102c2610984565b6040518082815260200191505060405180910390f35b6102e061098e565b6040518082815260200191505060405180910390f35b6102fe6109ac565b6040518082815260200191505060405180910390f35b6103566004803603602081101561032a57600080fd5b81019080803573ffffffffffffffffffffffffffffffffffffffff1690602001909291905050506109b2565b005b610360610b2d565b6040518082815260200191505060405180910390f35b6103a26004803603602081101561038c57600080fd5b8101908080359060200190929190505050610b33565b005b6103ac610f9a565b005b6103b66113c0565b005b6103c06114bb565b604051808273ffffffffffffffffffffffffffffffffffffffff16815260200191505060405180910390f35b6103f46114e1565b6040518082815260200191505060405180910390f35b6104126114e7565b60405180821515815260200191505060405180910390f35b61046c6004803603602081101561044057600080fd5b81019080803573ffffffffffffffffffffffffffffffffffffffff1690602001909291905050506114fd565b005b6104b06004803603602081101561048457600080fd5b81019080803573ffffffffffffffffffffffffffffffffffffffff169060200190929190505050611678565b6040518086151581526020018581526020018481526020018381526020018281526020019550505050505060405180910390f35b610526600480360360208110156104fa57600080fd5b81019080803573ffffffffffffffffffffffffffffffffffffffff169060200190929190505050611790565b6040518082815260200191505060405180910390f35b6105446117d9565b005b61054e61195f565b604051808273ffffffffffffffffffffffffffffffffffffffff16815260200191505060405180910390f35b610582611985565b6040518082815260200191505060405180910390f35b6105a061198b565b6040518082815260200191505060405180910390f35b6105be61199e565b005b610602600480360360208110156105d657600080fd5b81019080803573ffffffffffffffffffffffffffffffffffffffff169060200190929190505050611a99565b6040518082815260200191505060405180910390f35b610620611ab1565b604051808273ffffffffffffffffffffffffffffffffffffffff16815260200191505060405180910390f35b61068e6004803603602081101561066257600080fd5b81019080803573ffffffffffffffffffffffffffffffffffffffff169060200190929190505050611ada565b6040518082815260200191505060405180910390f35b6106ac611b23565b604051808273ffffffffffffffffffffffffffffffffffffffff16815260200191505060405180910390f35b6106e0611b49565b6040518082815260200191505060405180910390f35b6107226004803603602081101561070c57600080fd5b8101908080359060200190929190505050611b4f565b005b6107706004803603604081101561073a57600080fd5b81019080803573ffffffffffffffffffffffffffffffffffffffff16906020019092919080359060200190929190505050611ed2565b005b61077a61209b565b6040518082815260200191505060405180910390f35b610798612129565b604051808273ffffffffffffffffffffffffffffffffffffffff16815260200191505060405180910390f35b6107cc61214f565b6040518082815260200191505060405180910390f35b6107ea612155565b005b6107f46122b3565b6040518082815260200191505060405180910390f35b61084c6004803603602081101561082057600080fd5b81019080803573ffffffffffffffffffffffffffffffffffffffff1690602001909291905050506122b9565b005b6000610965600e60008473ffffffffffffffffffffffffffffffffffffffff1673ffffffffffffffffffffffffffffffffffffffff16815260200190815260200160002054610957670de0b6b3a76400006109496108fb600d60008973ffffffffffffffffffffffffffffffffffffffff1673ffffffffffffffffffffffffffffffffffffffff168152602001908152602001600020546108ed61209b565b6124c490919063ffffffff16565b601060008973ffffffffffffffffffffffffffffffffffffffff1673ffffffffffffffffffffffffffffffffffffffff1681526020019081526020016000205461250e90919063ffffffff16565b61259490919063ffffffff16565b6125de90919063ffffffff16565b9050919050565b600e6020528060005260406000206000915090505481565b6000600f54905090565b60006109a760085460075461250e90919063ffffffff16565b905090565b600c5481565b6109ba612666565b73ffffffffffffffffffffffffffffffffffffffff1660008054906101000a900473ffffffffffffffffffffffffffffffffffffffff1673ffffffffffffffffffffffffffffffffffffffff1614610a7a576040517f08c379a00000000000000000000000000000000000000000000000000000000081526004018080602001828103825260208152602001807f4f776e61626c653a2063616c6c6572206973206e6f7420746865206f776e657281525060200191505060405180910390fd5b80600160006101000a81548173ffffffffffffffffffffffffffffffffffffffff021916908373ffffffffffffffffffffffffffffffffffffffff1602179055507fb80482a293ca2e013eda8683c9bd7fc8347cfdaeea5ede58cba46df502c2a604600160009054906101000a900473ffffffffffffffffffffffffffffffffffffffff16604051808273ffffffffffffffffffffffffffffffffffffffff16815260200191505060405180910390a150565b60085481565b6000610b3d61209b565b600a81905550610b4b61198b565b600981905550600073ffffffffffffffffffffffffffffffffffffffff168173ffffffffffffffffffffffffffffffffffffffff1614610c1857610b8e8161084e565b600e60008373ffffffffffffffffffffffffffffffffffffffff1673ffffffffffffffffffffffffffffffffffffffff16815260200190815260200160002081905550600a54600d60008373ffffffffffffffffffffffffffffffffffffffff1673ffffffffffffffffffffffffffffffffffffffff168152602001908152602001600020819055505b6000610c22612666565b9050600360009054906101000a900473ffffffffffffffffffffffffffffffffffffffff1673ffffffffffffffffffffffffffffffffffffffff168173ffffffffffffffffffffffffffffffffffffffff161480610cb25750610c83611ab1565b73ffffffffffffffffffffffffffffffffffffffff168173ffffffffffffffffffffffffffffffffffffffff16145b80610ce857503073ffffffffffffffffffffffffffffffffffffffff168173ffffffffffffffffffffffffffffffffffffffff16145b610d3d576040517f08c379a00000000000000000000000000000000000000000000000000000000081526004018080602001828103825260598152602001806131db6059913960600191505060405180910390fd5b6006544310610d6657610d5b6008548461259490919063ffffffff16565b600781905550610e04565b6000610d7d436006546124c490919063ffffffff16565b90503073ffffffffffffffffffffffffffffffffffffffff168273ffffffffffffffffffffffffffffffffffffffff161415610dbb57806008819055505b6000610dd26007548361250e90919063ffffffff16565b9050610dfb600854610ded83886125de90919063ffffffff16565b61259490919063ffffffff16565b60078190555050505b6000600460009054906101000a900473ffffffffffffffffffffffffffffffffffffffff1673ffffffffffffffffffffffffffffffffffffffff166370a08231306040518263ffffffff1660e01b8152600401808273ffffffffffffffffffffffffffffffffffffffff16815260200191505060206040518083038186803b158015610e8f57600080fd5b505afa158015610ea3573d6000803e3d6000fd5b505050506040513d6020811015610eb957600080fd5b81019080805190602001909291905050509050610ee16008548261259490919063ffffffff16565b6007541115610f3b576040517f08c379a000000000000000000000000000000000000000000000000000000000815260040180806020018281038252603f815260200180613386603f913960400191505060405180910390fd5b43600981905550610f57600854436125de90919063ffffffff16565b6006819055507fde88a922e0d3b88b24e9623efeb464919c6bf9f66857a65e2bfcf2ce87a9433d846040518082815260200191505060405180910390a150505050565b600280541415611012576040517f08c379a000000000000000000000000000000000000000000000000000000000815260040180806020018281038252601f8152602001807f5265656e7472616e637947756172643a207265656e7472616e742063616c6c0081525060200191505060405180910390fd5b60028081905550611021612666565b61102961209b565b600a8190555061103761198b565b600981905550600073ffffffffffffffffffffffffffffffffffffffff168173ffffffffffffffffffffffffffffffffffffffff16146111045761107a8161084e565b600e60008373ffffffffffffffffffffffffffffffffffffffff1673ffffffffffffffffffffffffffffffffffffffff16815260200190815260200160002081905550600a54600d60008373ffffffffffffffffffffffffffffffffffffffff1673ffffffffffffffffffffffffffffffffffffffff168152602001908152602001600020819055505b600061110e612666565b90506000600e60008373ffffffffffffffffffffffffffffffffffffffff1673ffffffffffffffffffffffffffffffffffffffff168152602001908152602001600020549050600061115f83611678565b505050509050801561122e576111d061118260028461259490919063ffffffff16565b601260008673ffffffffffffffffffffffffffffffffffffffff1673ffffffffffffffffffffffffffffffffffffffff168152602001908152602001600020546125de90919063ffffffff16565b601260008573ffffffffffffffffffffffffffffffffffffffff1673ffffffffffffffffffffffffffffffffffffffff1681526020019081526020016000208190555061122760028361259490919063ffffffff16565b91506112c8565b611280601260008573ffffffffffffffffffffffffffffffffffffffff1673ffffffffffffffffffffffffffffffffffffffff16815260200190815260200160002054836125de90919063ffffffff16565b91506000601260008573ffffffffffffffffffffffffffffffffffffffff1673ffffffffffffffffffffffffffffffffffffffff168152602001908152602001600020819055505b60008211156113b2576000600e60008573ffffffffffffffffffffffffffffffffffffffff1673ffffffffffffffffffffffffffffffffffffffff168152602001908152602001600020819055506113638383600460009054906101000a900473ffffffffffffffffffffffffffffffffffffffff1673ffffffffffffffffffffffffffffffffffffffff1661266e9092919063ffffffff16565b8273ffffffffffffffffffffffffffffffffffffffff167fe2403640ba68fed3a2f88b7557551d1993f84b99bb10ff833f0cf8db0c5e0486836040518082815260200191505060405180910390a25b505050506001600281905550565b6113c8612666565b73ffffffffffffffffffffffffffffffffffffffff16600160009054906101000a900473ffffffffffffffffffffffffffffffffffffffff1673ffffffffffffffffffffffffffffffffffffffff16148061145c5750611426612666565b73ffffffffffffffffffffffffffffffffffffffff16611444611ab1565b73ffffffffffffffffffffffffffffffffffffffff16145b6114b1576040517f08c379a000000000000000000000000000000000000000000000000000000000815260040180806020018281038252604581526020018061329b6045913960600191505060405180910390fd5b6114b9612710565b565b600360009054906101000a900473ffffffffffffffffffffffffffffffffffffffff1681565b600b5481565b60008060149054906101000a900460ff16905090565b611505612666565b73ffffffffffffffffffffffffffffffffffffffff1660008054906101000a900473ffffffffffffffffffffffffffffffffffffffff1673ffffffffffffffffffffffffffffffffffffffff16146115c5576040517f08c379a00000000000000000000000000000000000000000000000000000000081526004018080602001828103825260208152602001807f4f776e61626c653a2063616c6c6572206973206e6f7420746865206f776e657281525060200191505060405180910390fd5b80600360006101000a81548173ffffffffffffffffffffffffffffffffffffffff021916908373ffffffffffffffffffffffffffffffffffffffff1602179055507f995929e3bdfa9f1b0b527c02b5b513a7c476ed92f554c52bf7b25e51cfee029f600360009054906101000a900473ffffffffffffffffffffffffffffffffffffffff16604051808273ffffffffffffffffffffffffffffffffffffffff16815260200191505060405180910390a150565b600080600080600080600b541115611745576116a1600c54600b546125de90919063ffffffff16565b6116f3601160008973ffffffffffffffffffffffffffffffffffffffff1673ffffffffffffffffffffffffffffffffffffffff16815260200190815260200160002054436124c490919063ffffffff16565b816116fa57fe5b069350611724600b5461171686436124c490919063ffffffff16565b6125de90919063ffffffff16565b925061173b600c54846125de90919063ffffffff16565b9150600b54841094505b601160008773ffffffffffffffffffffffffffffffffffffffff1673ffffffffffffffffffffffffffffffffffffffff16815260200190815260200160002054905091939590929450565b6000601060008373ffffffffffffffffffffffffffffffffffffffff1673ffffffffffffffffffffffffffffffffffffffff168152602001908152602001600020549050919050565b6117e1612666565b73ffffffffffffffffffffffffffffffffffffffff1660008054906101000a900473ffffffffffffffffffffffffffffffffffffffff1673ffffffffffffffffffffffffffffffffffffffff16146118a1576040517f08c379a00000000000000000000000000000000000000000000000000000000081526004018080602001828103825260208152602001807f4f776e61626c653a2063616c6c6572206973206e6f7420746865206f776e657281525060200191505060405180910390fd5b600073ffffffffffffffffffffffffffffffffffffffff1660008054906101000a900473ffffffffffffffffffffffffffffffffffffffff1673ffffffffffffffffffffffffffffffffffffffff167f8be0079c531659141344cd1fd0a4f28419497f9722a3daafe3b4186f6b6457e060405160405180910390a360008060006101000a81548173ffffffffffffffffffffffffffffffffffffffff021916908373ffffffffffffffffffffffffffffffffffffffff160217905550565b600560009054906101000a900473ffffffffffffffffffffffffffffffffffffffff1681565b60075481565b600061199943600654612802565b905090565b6119a6612666565b73ffffffffffffffffffffffffffffffffffffffff16600160009054906101000a900473ffffffffffffffffffffffffffffffffffffffff1673ffffffffffffffffffffffffffffffffffffffff161480611a3a5750611a04612666565b73ffffffffffffffffffffffffffffffffffffffff16611a22611ab1565b73ffffffffffffffffffffffffffffffffffffffff16145b611a8f576040517f08c379a000000000000000000000000000000000000000000000000000000000815260040180806020018281038252604181526020018061325a6041913960600191505060405180910390fd5b611a9761281b565b565b600d6020528060005260406000206000915090505481565b60008060009054906101000a900473ffffffffffffffffffffffffffffffffffffffff16905090565b6000601260008373ffffffffffffffffffffffffffffffffffffffff1673ffffffffffffffffffffffffffffffffffffffff168152602001908152602001600020549050919050565b600160009054906101000a900473ffffffffffffffffffffffffffffffffffffffff1681565b60095481565b600280541415611bc7576040517f08c379a000000000000000000000000000000000000000000000000000000000815260040180806020018281038252601f8152602001807f5265656e7472616e637947756172643a207265656e7472616e742063616c6c0081525060200191505060405180910390fd5b60028081905550611bd6612666565b611bde61209b565b600a81905550611bec61198b565b600981905550600073ffffffffffffffffffffffffffffffffffffffff168173ffffffffffffffffffffffffffffffffffffffff1614611cb957611c2f8161084e565b600e60008373ffffffffffffffffffffffffffffffffffffffff1673ffffffffffffffffffffffffffffffffffffffff16815260200190815260200160002081905550600a54600d60008373ffffffffffffffffffffffffffffffffffffffff1673ffffffffffffffffffffffffffffffffffffffff168152602001908152602001600020819055505b60008211611d12576040517f08c379a00000000000000000000000000000000000000000000000000000000081526004018080602001828103825260288152602001806132e06028913960400191505060405180910390fd5b611d2782600f546125de90919063ffffffff16565b600f81905550611d868260106000611d3d612666565b73ffffffffffffffffffffffffffffffffffffffff1673ffffffffffffffffffffffffffffffffffffffff168152602001908152602001600020546125de90919063ffffffff16565b60106000611d92612666565b73ffffffffffffffffffffffffffffffffffffffff1673ffffffffffffffffffffffffffffffffffffffff168152602001908152602001600020819055504360116000611ddd612666565b73ffffffffffffffffffffffffffffffffffffffff1673ffffffffffffffffffffffffffffffffffffffff16815260200190815260200160002081905550611e71611e26612666565b3084600560009054906101000a900473ffffffffffffffffffffffffffffffffffffffff1673ffffffffffffffffffffffffffffffffffffffff1661290f909392919063ffffffff16565b611e79612666565b73ffffffffffffffffffffffffffffffffffffffff167f9e71bc8eea02a63969f509818f2dafb9254532904319f9dbda79b67bd34a5f3d836040518082815260200191505060405180910390a250600160028190555050565b611eda612666565b73ffffffffffffffffffffffffffffffffffffffff1660008054906101000a900473ffffffffffffffffffffffffffffffffffffffff1673ffffffffffffffffffffffffffffffffffffffff1614611f9a576040517f08c379a00000000000000000000000000000000000000000000000000000000081526004018080602001828103825260208152602001807f4f776e61626c653a2063616c6c6572206973206e6f7420746865206f776e657281525060200191505060405180910390fd5b600654431015611ff5576040517f08c379a00000000000000000000000000000000000000000000000000000000081526004018080602001828103825260338152602001806133296033913960400191505060405180910390fd5b6120428282600460009054906101000a900473ffffffffffffffffffffffffffffffffffffffff1673ffffffffffffffffffffffffffffffffffffffff1661266e9092919063ffffffff16565b7fa16d653d791fc52dfde643134b80c696f2e4e26959f6a7628945bf25752425bb8282604051808373ffffffffffffffffffffffffffffffffffffffff1681526020018281526020019250505060405180910390a15050565b600080600f5414156120b157600a549050612126565b612123612112600f54612104670de0b6b3a76400006120f66007546120e86009546120da61198b565b6124c490919063ffffffff16565b61250e90919063ffffffff16565b61250e90919063ffffffff16565b61259490919063ffffffff16565b600a546125de90919063ffffffff16565b90505b90565b600460009054906101000a900473ffffffffffffffffffffffffffffffffffffffff1681565b600a5481565b600061215f612666565b90506121a9601060008373ffffffffffffffffffffffffffffffffffffffff1673ffffffffffffffffffffffffffffffffffffffff168152602001908152602001600020546129d0565b6121b1610f9a565b6000601260008373ffffffffffffffffffffffffffffffffffffffff1673ffffffffffffffffffffffffffffffffffffffff16815260200190815260200160002054905060008111156122af576000601260008473ffffffffffffffffffffffffffffffffffffffff1673ffffffffffffffffffffffffffffffffffffffff168152602001908152602001600020819055503073ffffffffffffffffffffffffffffffffffffffff16633c6b16ab826040518263ffffffff1660e01b815260040180828152602001915050600060405180830381600087803b15801561229657600080fd5b505af11580156122aa573d6000803e3d6000fd5b505050505b5050565b60065481565b6122c1612666565b73ffffffffffffffffffffffffffffffffffffffff1660008054906101000a900473ffffffffffffffffffffffffffffffffffffffff1673ffffffffffffffffffffffffffffffffffffffff1614612381576040517f08c379a00000000000000000000000000000000000000000000000000000000081526004018080602001828103825260208152602001807f4f776e61626c653a2063616c6c6572206973206e6f7420746865206f776e657281525060200191505060405180910390fd5b600073ffffffffffffffffffffffffffffffffffffffff168173ffffffffffffffffffffffffffffffffffffffff161415612407576040517f08c379a00000000000000000000000000000000000000000000000000000000081526004018080602001828103825260268152602001806132346026913960400191505060405180910390fd5b8073ffffffffffffffffffffffffffffffffffffffff1660008054906101000a900473ffffffffffffffffffffffffffffffffffffffff1673ffffffffffffffffffffffffffffffffffffffff167f8be0079c531659141344cd1fd0a4f28419497f9722a3daafe3b4186f6b6457e060405160405180910390a3806000806101000a81548173ffffffffffffffffffffffffffffffffffffffff021916908373ffffffffffffffffffffffffffffffffffffffff16021790555050565b600061250683836040518060400160405280601e81526020017f536166654d6174683a207375627472616374696f6e206f766572666c6f770000815250612d06565b905092915050565b600080831415612521576000905061258e565b600082840290508284828161253257fe5b0414612589576040517f08c379a00000000000000000000000000000000000000000000000000000000081526004018080602001828103825260218152602001806133086021913960400191505060405180910390fd5b809150505b92915050565b60006125d683836040518060400160405280601a81526020017f536166654d6174683a206469766973696f6e206279207a65726f000000000000815250612dc6565b905092915050565b60008082840190508381101561265c576040517f08c379a000000000000000000000000000000000000000000000000000000000815260040180806020018281038252601b8152602001807f536166654d6174683a206164646974696f6e206f766572666c6f77000000000081525060200191505060405180910390fd5b8091505092915050565b600033905090565b61270b8363a9059cbb60e01b8484604051602401808373ffffffffffffffffffffffffffffffffffffffff16815260200182815260200192505050604051602081830303815290604052907bffffffffffffffffffffffffffffffffffffffffffffffffffffffff19166020820180517bffffffffffffffffffffffffffffffffffffffffffffffffffffffff8381831617835250505050612e8c565b505050565b600060149054906101000a900460ff16612792576040517f08c379a00000000000000000000000000000000000000000000000000000000081526004018080602001828103825260148152602001807f5061757361626c653a206e6f742070617573656400000000000000000000000081525060200191505060405180910390fd5b60008060146101000a81548160ff0219169083151502179055507f5db9ee0a495bf2e6ff9c91a7834c1ba4fdd244a5e8aa4e537bd38aeae4b073aa6127d5612666565b604051808273ffffffffffffffffffffffffffffffffffffffff16815260200191505060405180910390a1565b60008183106128115781612813565b825b905092915050565b600060149054906101000a900460ff161561289e576040517f08c379a00000000000000000000000000000000000000000000000000000000081526004018080602001828103825260108152602001807f5061757361626c653a207061757365640000000000000000000000000000000081525060200191505060405180910390fd5b6001600060146101000a81548160ff0219169083151502179055507f62e78cea01bee320cd4e420270b5ea74000d11b0c9f74754ebdbfc544b05a2586128e2612666565b604051808273ffffffffffffffffffffffffffffffffffffffff16815260200191505060405180910390a1565b6129ca846323b872dd60e01b858585604051602401808473ffffffffffffffffffffffffffffffffffffffff1681526020018373ffffffffffffffffffffffffffffffffffffffff1681526020018281526020019350505050604051602081830303815290604052907bffffffffffffffffffffffffffffffffffffffffffffffffffffffff19166020820180517bffffffffffffffffffffffffffffffffffffffffffffffffffffffff8381831617835250505050612e8c565b50505050565b600280541415612a48576040517f08c379a000000000000000000000000000000000000000000000000000000000815260040180806020018281038252601f8152602001807f5265656e7472616e637947756172643a207265656e7472616e742063616c6c0081525060200191505060405180910390fd5b60028081905550612a57612666565b612a5f61209b565b600a81905550612a6d61198b565b600981905550600073ffffffffffffffffffffffffffffffffffffffff168173ffffffffffffffffffffffffffffffffffffffff1614612b3a57612ab08161084e565b600e60008373ffffffffffffffffffffffffffffffffffffffff1673ffffffffffffffffffffffffffffffffffffffff16815260200190815260200160002081905550600a54600d60008373ffffffffffffffffffffffffffffffffffffffff1673ffffffffffffffffffffffffffffffffffffffff168152602001908152602001600020819055505b60008211612b93576040517f08c379a000000000000000000000000000000000000000000000000000000000815260040180806020018281038252602e8152602001806131ad602e913960400191505060405180910390fd5b612ba882600f546124c490919063ffffffff16565b600f81905550612c078260106000612bbe612666565b73ffffffffffffffffffffffffffffffffffffffff1673ffffffffffffffffffffffffffffffffffffffff168152602001908152602001600020546124c490919063ffffffff16565b60106000612c13612666565b73ffffffffffffffffffffffffffffffffffffffff1673ffffffffffffffffffffffffffffffffffffffff16815260200190815260200160002081905550612ca5612c5c612666565b83600560009054906101000a900473ffffffffffffffffffffffffffffffffffffffff1673ffffffffffffffffffffffffffffffffffffffff1661266e9092919063ffffffff16565b612cad612666565b73ffffffffffffffffffffffffffffffffffffffff167f7084f5476618d8e60b11ef0d7d3f06914655adb8793e28ff7f018d4c76d505d5836040518082815260200191505060405180910390a250600160028190555050565b6000838311158290612db3576040517f08c379a00000000000000000000000000000000000000000000000000000000081526004018080602001828103825283818151815260200191508051906020019080838360005b83811015612d78578082015181840152602081019050612d5d565b50505050905090810190601f168015612da55780820380516001836020036101000a031916815260200191505b509250505060405180910390fd5b5060008385039050809150509392505050565b60008083118290612e72576040517f08c379a00000000000000000000000000000000000000000000000000000000081526004018080602001828103825283818151815260200191508051906020019080838360005b83811015612e37578082015181840152602081019050612e1c565b50505050905090810190601f168015612e645780820380516001836020036101000a031916815260200191505b509250505060405180910390fd5b506000838581612e7e57fe5b049050809150509392505050565b6060612eee826040518060400160405280602081526020017f5361666545524332303a206c6f772d6c6576656c2063616c6c206661696c65648152508573ffffffffffffffffffffffffffffffffffffffff16612f7b9092919063ffffffff16565b9050600081511115612f7657808060200190516020811015612f0f57600080fd5b8101908080519060200190929190505050612f75576040517f08c379a000000000000000000000000000000000000000000000000000000000815260040180806020018281038252602a81526020018061335c602a913960400191505060405180910390fd5b5b505050565b6060612f8a8484600085612f93565b90509392505050565b6060612f9e85613199565b613010576040517f08c379a000000000000000000000000000000000000000000000000000000000815260040180806020018281038252601d8152602001807f416464726573733a2063616c6c20746f206e6f6e2d636f6e747261637400000081525060200191505060405180910390fd5b600060608673ffffffffffffffffffffffffffffffffffffffff1685876040518082805190602001908083835b60208310613060578051825260208201915060208101905060208303925061303d565b6001836020036101000a03801982511681845116808217855250505050505090500191505060006040518083038185875af1925050503d80600081146130c2576040519150601f19603f3d011682016040523d82523d6000602084013e6130c7565b606091505b509150915081156130dc578092505050613191565b6000815111156130ef5780518082602001fd5b836040517f08c379a00000000000000000000000000000000000000000000000000000000081526004018080602001828103825283818151815260200191508051906020019080838360005b8381101561315657808201518184015260208101905061313b565b50505050905090810190601f1680156131835780820380516001836020036101000a031916815260200191505b509250505060405180910390fd5b949350505050565b600080823b90506000811191505091905056fe50726f6669744469737472696275746f723a3a77697468647261773a2043616e6e6f74207769746864726177203050726f6669744469737472696275746f723a3a6e6f74696679526577617264416d6f756e743a2063616c6c6572206973206e6f742052657761726473446973747269627574696f6e206f72204f776e657220616464726573734f776e61626c653a206e6577206f776e657220697320746865207a65726f20616464726573734f776e61626c655061757361626c653a3a70617573653a206f6e6c792070617573657220616e64206f776e6572206d75737420706175736520636f6e74726163744f776e61626c655061757361626c653a3a756e70617573653a206f6e6c792070617573657220616e64206f776e6572206d75737420756e706175736520636f6e747261637450726f6669744469737472696275746f723a3a7374616b653a2063616e6e6f74207374616b652030536166654d6174683a206d756c7469706c69636174696f6e206f766572666c6f7750726f6669744469737472696275746f723a3a7472616e736665723a20646973747269627574696f6e206e6f7420656e6465645361666545524332303a204552433230206f7065726174696f6e20646964206e6f74207375636365656450726f6669744469737472696275746f723a3a6e6f74696679526577617264416d6f756e743a2070726f76696465642072657761726420746f6f2068696768a2646970667358221220c0b70104b55f6689f2339e0545544a7cb42eb85f590ccd6b07eac57a5765179b64736f6c634300060c0033",
  "devdoc": {
    "kind": "dev",
    "methods": {
      "balanceOf(address)": {
        "params": {
          "account": "Target account."
        },
        "returns": {
          "_0": "Staking token amount."
        }
      },
      "changePauser(address)": {
        "params": {
          "newPauser": "Address of new pauser account."
        }
      },
      "changeRewardsDistribution(address)": {
        "params": {
          "_rewardDistribution": "New rewards distribution address."
        }
      },
      "constructor": {
        "params": {
          "_lockPeriod": "Stake lock period.",
          "_rewardsDistribution": "Rewards distribution address.",
          "_rewardsDuration": "Duration of distribution.",
          "_rewardsToken": "Address of reward token.",
          "_stakingToken": "Address of staking token.",
          "_unlockPeriod": "Stake unlock period."
        }
      },
      "earned(address)": {
        "params": {
          "account": "Target account."
        },
        "returns": {
          "_0": "Earned rewards."
        }
      },
      "getRewardForDuration()": {
        "returns": {
          "_0": "Rewards amount for duration."
        }
      },
      "lastTimeRewardApplicable()": {
        "returns": {
          "_0": "Block number of last reward."
        }
      },
      "notifyRewardAmount(uint256)": {
        "params": {
          "reward": "Distributed rewards amount."
        }
      },
      "owner()": {
        "details": "Returns the address of the current owner."
      },
      "paused()": {
        "details": "Returns true if the contract is paused, and false otherwise."
      },
      "penalty(address)": {
        "params": {
          "account": "Target account."
        },
        "returns": {
          "_0": "Penalty rewards."
        }
      },
      "renounceOwnership()": {
        "details": "Leaves the contract without owner. It will not be possible to call `onlyOwner` functions anymore. Can only be called by the current owner. NOTE: Renouncing ownership will leave the contract without an owner, thereby removing any functionality that is only available to the owner."
      },
      "rewardPerToken()": {
        "returns": {
          "_0": "Reward per token."
        }
      },
      "stake(uint256)": {
        "params": {
          "amount": "Amount staking token."
        }
      },
      "totalSupply()": {
        "returns": {
          "_0": "Total staking token amount."
        }
      },
      "transfer(address,uint256)": {
        "params": {
          "amount": "Amount transfered rewards token.",
          "recipient": "Recipient."
        }
      },
      "transferOwnership(address)": {
        "details": "Transfers ownership of the contract to a new account (`newOwner`). Can only be called by the current owner."
      }
    },
    "stateVariables": {
      "_balances": {
        "details": "Staking balances."
      },
      "_penaltyAmount": {
        "details": "Amount of penalty reward."
      },
      "_stakeAt": {
        "details": "Block number of stake lock."
      },
      "_totalSupply": {
        "details": "Total staking token amount."
      }
    },
    "version": 1
  },
  "userdoc": {
    "events": {
      "PauserChanged(address)": {
        "notice": "An event thats emitted when an pauser address changed."
      },
      "RewardAdded(uint256)": {
        "notice": "An event thats emitted when an reward token addet to contract."
      },
      "RewardPaid(address,uint256)": {
        "notice": "An event thats emitted when an reward token withdrawal from contract."
      },
      "RewardsDistributionChanged(address)": {
        "notice": "An event thats emitted when an rewards distribution address changed."
      },
      "RewardsTransfered(address,uint256)": {
        "notice": "An event thats emitted when an rewards tokens transfered to recipient."
      },
      "Staked(address,uint256)": {
        "notice": "An event thats emitted when an staking token added to contract."
      },
      "Withdrawn(address,uint256)": {
        "notice": "An event thats emitted when an staking token withdrawal from contract."
      }
    },
    "kind": "user",
    "methods": {
      "changePauser(address)": {
        "notice": "Change pauser account."
      },
      "changeRewardsDistribution(address)": {
        "notice": "Change rewards distribution address."
      },
      "exit()": {
        "notice": "Withdraw reward and staking token."
      },
      "getReward()": {
        "notice": "Withdraw reward token."
      },
      "lastUpdateBlock()": {
        "notice": "Block number of last update."
      },
      "lockPeriod()": {
        "notice": "Stake lock period."
      },
      "notifyRewardAmount(uint256)": {
        "notice": "Start distribution."
      },
      "pause()": {
        "notice": "Triggers stopped state."
      },
      "pauser()": {
        "notice": "Address that can pause a contract."
      },
      "periodFinish()": {
        "notice": "Block number of rewards distibution period finish."
      },
      "rewardPerTokenStored()": {
        "notice": "Static reward distribution amount per block."
      },
      "rewardRate()": {
        "notice": "Reward distribution amount per block."
      },
      "rewards(address)": {
        "notice": "Earned rewards."
      },
      "rewardsDistribution()": {
        "notice": "Address of rewards distributor."
      },
      "rewardsDuration()": {
        "notice": "Blocks count in current distribution period."
      },
      "rewardsToken()": {
        "notice": "Rewards token address."
      },
      "stake(uint256)": {
        "notice": "Stake token."
      },
      "stakingToken()": {
        "notice": "Staking token address."
      },
      "transfer(address,uint256)": {
        "notice": "Transfer rewards token to recipient if distribution not start."
      },
      "unlockPeriod()": {
        "notice": "Stake unlock period."
      },
      "unpause()": {
        "notice": "Returns to normal state."
      },
      "userRewardPerTokenPaid(address)": {
        "notice": "Rewards paid."
      }
    },
    "version": 1
  },
  "storageLayout": {
    "storage": [
      {
        "astId": 30,
        "contract": "contracts/ProfitDistributor.sol:ProfitDistributor",
        "label": "_owner",
        "offset": 0,
        "slot": "0",
        "type": "t_address"
      },
      {
        "astId": 1985,
        "contract": "contracts/ProfitDistributor.sol:ProfitDistributor",
        "label": "_paused",
        "offset": 20,
        "slot": "0",
        "type": "t_bool"
      },
      {
        "astId": 17870,
        "contract": "contracts/ProfitDistributor.sol:ProfitDistributor",
        "label": "pauser",
        "offset": 0,
        "slot": "1",
        "type": "t_address"
      },
      {
        "astId": 2068,
        "contract": "contracts/ProfitDistributor.sol:ProfitDistributor",
        "label": "_status",
        "offset": 0,
        "slot": "2",
        "type": "t_uint256"
      },
      {
        "astId": 7321,
        "contract": "contracts/ProfitDistributor.sol:ProfitDistributor",
        "label": "rewardsDistribution",
        "offset": 0,
        "slot": "3",
        "type": "t_address"
      },
      {
        "astId": 7324,
        "contract": "contracts/ProfitDistributor.sol:ProfitDistributor",
        "label": "rewardsToken",
        "offset": 0,
        "slot": "4",
        "type": "t_contract(IERC20)1164"
      },
      {
        "astId": 7327,
        "contract": "contracts/ProfitDistributor.sol:ProfitDistributor",
        "label": "stakingToken",
        "offset": 0,
        "slot": "5",
        "type": "t_contract(IERC20)1164"
      },
      {
        "astId": 7330,
        "contract": "contracts/ProfitDistributor.sol:ProfitDistributor",
        "label": "periodFinish",
        "offset": 0,
        "slot": "6",
        "type": "t_uint256"
      },
      {
        "astId": 7333,
        "contract": "contracts/ProfitDistributor.sol:ProfitDistributor",
        "label": "rewardRate",
        "offset": 0,
        "slot": "7",
        "type": "t_uint256"
      },
      {
        "astId": 7336,
        "contract": "contracts/ProfitDistributor.sol:ProfitDistributor",
        "label": "rewardsDuration",
        "offset": 0,
        "slot": "8",
        "type": "t_uint256"
      },
      {
        "astId": 7339,
        "contract": "contracts/ProfitDistributor.sol:ProfitDistributor",
        "label": "lastUpdateBlock",
        "offset": 0,
        "slot": "9",
        "type": "t_uint256"
      },
      {
        "astId": 7342,
        "contract": "contracts/ProfitDistributor.sol:ProfitDistributor",
        "label": "rewardPerTokenStored",
        "offset": 0,
        "slot": "10",
        "type": "t_uint256"
      },
      {
        "astId": 7345,
        "contract": "contracts/ProfitDistributor.sol:ProfitDistributor",
        "label": "lockPeriod",
        "offset": 0,
        "slot": "11",
        "type": "t_uint256"
      },
      {
        "astId": 7348,
        "contract": "contracts/ProfitDistributor.sol:ProfitDistributor",
        "label": "unlockPeriod",
        "offset": 0,
        "slot": "12",
        "type": "t_uint256"
      },
      {
        "astId": 7353,
        "contract": "contracts/ProfitDistributor.sol:ProfitDistributor",
        "label": "userRewardPerTokenPaid",
        "offset": 0,
        "slot": "13",
        "type": "t_mapping(t_address,t_uint256)"
      },
      {
        "astId": 7358,
        "contract": "contracts/ProfitDistributor.sol:ProfitDistributor",
        "label": "rewards",
        "offset": 0,
        "slot": "14",
        "type": "t_mapping(t_address,t_uint256)"
      },
      {
        "astId": 7361,
        "contract": "contracts/ProfitDistributor.sol:ProfitDistributor",
        "label": "_totalSupply",
        "offset": 0,
        "slot": "15",
        "type": "t_uint256"
      },
      {
        "astId": 7366,
        "contract": "contracts/ProfitDistributor.sol:ProfitDistributor",
        "label": "_balances",
        "offset": 0,
        "slot": "16",
        "type": "t_mapping(t_address,t_uint256)"
      },
      {
        "astId": 7371,
        "contract": "contracts/ProfitDistributor.sol:ProfitDistributor",
        "label": "_stakeAt",
        "offset": 0,
        "slot": "17",
        "type": "t_mapping(t_address,t_uint256)"
      },
      {
        "astId": 7376,
        "contract": "contracts/ProfitDistributor.sol:ProfitDistributor",
        "label": "_penaltyAmount",
        "offset": 0,
        "slot": "18",
        "type": "t_mapping(t_address,t_uint256)"
      }
    ],
    "types": {
      "t_address": {
        "encoding": "inplace",
        "label": "address",
        "numberOfBytes": "20"
      },
      "t_bool": {
        "encoding": "inplace",
        "label": "bool",
        "numberOfBytes": "1"
      },
      "t_contract(IERC20)1164": {
        "encoding": "inplace",
        "label": "contract IERC20",
        "numberOfBytes": "20"
      },
      "t_mapping(t_address,t_uint256)": {
        "encoding": "mapping",
        "key": "t_address",
        "label": "mapping(address => uint256)",
        "numberOfBytes": "32",
        "value": "t_uint256"
      },
      "t_uint256": {
        "encoding": "inplace",
        "label": "uint256",
        "numberOfBytes": "32"
      }
    }
  }
}