{
  "address": "0x5f5A48607c9Cd22812dCd71F41F42125a3F35E4D",
  "abi": [
    {
      "inputs": [
        {
          "internalType": "uint256",
          "name": "_decimals",
          "type": "uint256"
        },
        {
          "internalType": "uint256",
          "name": "_maxSize",
          "type": "uint256"
        }
      ],
      "stateMutability": "nonpayable",
      "type": "constructor"
    },
    {
      "anonymous": false,
      "inputs": [
        {
          "indexed": false,
          "internalType": "address",
          "name": "member",
          "type": "address"
        }
      ],
      "name": "AccessAllowed",
      "type": "event"
    },
    {
      "anonymous": false,
      "inputs": [
        {
          "indexed": false,
          "internalType": "address",
          "name": "member",
          "type": "address"
        }
      ],
      "name": "AccessDenied",
      "type": "event"
    },
    {
      "anonymous": false,
      "inputs": [
        {
          "indexed": false,
          "internalType": "string",
          "name": "id",
          "type": "string"
        }
      ],
      "name": "AssetRemoved",
      "type": "event"
    },
    {
      "anonymous": false,
      "inputs": [
        {
          "indexed": false,
          "internalType": "string",
          "name": "id",
          "type": "string"
        },
        {
          "indexed": false,
          "internalType": "uint256",
          "name": "updatedAt",
          "type": "uint256"
        },
        {
          "components": [
            {
              "internalType": "string",
              "name": "data",
              "type": "string"
            },
            {
              "internalType": "string",
              "name": "signature",
              "type": "string"
            }
          ],
          "indexed": false,
          "internalType": "struct RealAssetDepositaryBalanceView.Proof",
          "name": "proof",
          "type": "tuple"
        }
      ],
      "name": "AssetUpdated",
      "type": "event"
    },
    {
      "anonymous": false,
      "inputs": [
        {
          "indexed": true,
          "internalType": "address",
          "name": "previousOwner",
          "type": "address"
        },
        {
          "indexed": true,
          "internalType": "address",
          "name": "newOwner",
          "type": "address"
        }
      ],
      "name": "OwnershipTransferred",
      "type": "event"
    },
    {
      "inputs": [],
      "name": "accessList",
      "outputs": [
        {
          "internalType": "address[]",
          "name": "",
          "type": "address[]"
        }
      ],
      "stateMutability": "view",
      "type": "function"
    },
    {
      "inputs": [
        {
          "internalType": "address",
          "name": "member",
          "type": "address"
        }
      ],
      "name": "allowAccess",
      "outputs": [],
      "stateMutability": "nonpayable",
      "type": "function"
    },
    {
      "inputs": [],
      "name": "assets",
      "outputs": [
        {
          "components": [
            {
              "internalType": "string",
              "name": "id",
              "type": "string"
            },
            {
              "internalType": "uint256",
              "name": "amount",
              "type": "uint256"
            },
            {
              "internalType": "uint256",
              "name": "price",
              "type": "uint256"
            }
          ],
          "internalType": "struct RealAssetDepositaryBalanceView.Asset[]",
          "name": "",
          "type": "tuple[]"
        }
      ],
      "stateMutability": "view",
      "type": "function"
    },
    {
      "inputs": [],
      "name": "balance",
      "outputs": [
        {
          "internalType": "uint256",
          "name": "",
          "type": "uint256"
        }
      ],
      "stateMutability": "view",
      "type": "function"
    },
    {
      "inputs": [],
      "name": "decimals",
      "outputs": [
        {
          "internalType": "uint256",
          "name": "",
          "type": "uint256"
        }
      ],
      "stateMutability": "view",
      "type": "function"
    },
    {
      "inputs": [
        {
          "internalType": "address",
          "name": "member",
          "type": "address"
        }
      ],
      "name": "denyAccess",
      "outputs": [],
      "stateMutability": "nonpayable",
      "type": "function"
    },
    {
      "inputs": [],
      "name": "maxSize",
      "outputs": [
        {
          "internalType": "uint256",
          "name": "",
          "type": "uint256"
        }
      ],
      "stateMutability": "view",
      "type": "function"
    },
    {
      "inputs": [],
      "name": "owner",
      "outputs": [
        {
          "internalType": "address",
          "name": "",
          "type": "address"
        }
      ],
      "stateMutability": "view",
      "type": "function"
    },
    {
      "inputs": [
        {
          "internalType": "uint256",
          "name": "",
          "type": "uint256"
        }
      ],
      "name": "portfolio",
      "outputs": [
        {
          "internalType": "string",
          "name": "id",
          "type": "string"
        },
        {
          "internalType": "uint256",
          "name": "amount",
          "type": "uint256"
        },
        {
          "internalType": "uint256",
          "name": "price",
          "type": "uint256"
        }
      ],
      "stateMutability": "view",
      "type": "function"
    },
    {
      "inputs": [
        {
          "internalType": "string",
          "name": "id",
          "type": "string"
        },
        {
          "internalType": "uint256",
          "name": "amount",
          "type": "uint256"
        },
        {
          "internalType": "uint256",
          "name": "price",
          "type": "uint256"
        },
        {
          "internalType": "uint256",
          "name": "updatedAt",
          "type": "uint256"
        },
        {
          "internalType": "string",
          "name": "proofData",
          "type": "string"
        },
        {
          "internalType": "string",
          "name": "proofSignature",
          "type": "string"
        }
      ],
      "name": "put",
      "outputs": [],
      "stateMutability": "nonpayable",
      "type": "function"
    },
    {
      "inputs": [
        {
          "internalType": "string",
          "name": "id",
          "type": "string"
        }
      ],
      "name": "remove",
      "outputs": [],
      "stateMutability": "nonpayable",
      "type": "function"
    },
    {
      "inputs": [],
      "name": "renounceOwnership",
      "outputs": [],
      "stateMutability": "nonpayable",
      "type": "function"
    },
    {
      "inputs": [],
      "name": "size",
      "outputs": [
        {
          "internalType": "uint256",
          "name": "",
          "type": "uint256"
        }
      ],
      "stateMutability": "view",
      "type": "function"
    },
    {
      "inputs": [
        {
          "internalType": "address",
          "name": "newOwner",
          "type": "address"
        }
      ],
      "name": "transferOwnership",
      "outputs": [],
      "stateMutability": "nonpayable",
      "type": "function"
    }
  ],
  "transactionHash": "0x4c4027841d894be0da5910b190217236da5be41f551503e83477a51c8e7300f8",
  "args": [
    6,
    50
  ],
  "solcInputHash": "0247292158aa623586f1d8188bf6caba",
  "bytecode": "0x608060405260066004553480156200001657600080fd5b50604051620026733803806200267383398181016040528101906200003c919062000121565b60006200004e6200010260201b60201c565b9050806000806101000a81548173ffffffffffffffffffffffffffffffffffffffff021916908373ffffffffffffffffffffffffffffffffffffffff1602179055508073ffffffffffffffffffffffffffffffffffffffff16600073ffffffffffffffffffffffffffffffffffffffff167f8be0079c531659141344cd1fd0a4f28419497f9722a3daafe3b4186f6b6457e060405160405180910390a3508160048190555080600381905550505062000186565b600033905090565b6000815190506200011b816200016c565b92915050565b600080604083850312156200013557600080fd5b600062000145858286016200010a565b925050602062000158858286016200010a565b9150509250929050565b6000819050919050565b620001778162000162565b81146200018357600080fd5b50565b6124dd80620001966000396000f3fe608060405234801561001057600080fd5b50600436106100ea5760003560e01c806380599e4b1161008c5780639feee6ac116100665780639feee6ac14610217578063b69ef8a814610233578063c4a85bc114610251578063f2fde38b1461026d576100ea565b806380599e4b146101bf5780638da5cb5b146101db578063949d225d146101f9576100ea565b8063313ce567116100c8578063313ce5671461015d57806361afd5ac1461017b578063715018a61461019757806371a97305146101a1576100ea565b8063138d194c146100ef5780632565b1591461010d5780632e63a1561461012b575b600080fd5b6100f7610289565b60405161010491906120d6565b60405180910390f35b610115610361565b6040516101229190612325565b60405180910390f35b610145600480360381019061014091906119ee565b610367565b604051610154939291906121a7565b60405180910390f35b610165610436565b6040516101729190612325565b60405180910390f35b610195600480360381019061019091906118a1565b61043c565b005b61019f610573565b005b6101a96106c6565b6040516101b691906120f8565b60405180910390f35b6101d960048036038101906101d491906118ca565b61083e565b005b6101e3610b95565b6040516101f091906120bb565b60405180910390f35b610201610bbe565b60405161020e9190612325565b60405180910390f35b610231600480360381019061022c919061190f565b610bcb565b005b61023b610f76565b6040516102489190612325565b60405180910390f35b61026b600480360381019061026691906118a1565b611003565b005b610287600480360381019061028291906118a1565b61113b565b005b60608061029660016112fd565b67ffffffffffffffff811180156102ac57600080fd5b506040519080825280602002602001820160405280156102db5781602001602082028036833780820191505090505b50905060005b6102eb60016112fd565b8110156103595761030681600161131290919063ffffffff16565b82828151811061031257fe5b602002602001019073ffffffffffffffffffffffffffffffffffffffff16908173ffffffffffffffffffffffffffffffffffffffff168152505080806001019150506102e1565b508091505090565b60035481565b6005818154811061037457fe5b9060005260206000209060030201600091509050806000018054600181600116156101000203166002900480601f0160208091040260200160405190810160405280929190818152602001828054600181600116156101000203166002900480156104205780601f106103f557610100808354040283529160200191610420565b820191906000526020600020905b81548152906001019060200180831161040357829003601f168201915b5050505050908060010154908060020154905083565b60045481565b61044461132c565b73ffffffffffffffffffffffffffffffffffffffff1660008054906101000a900473ffffffffffffffffffffffffffffffffffffffff1673ffffffffffffffffffffffffffffffffffffffff16146104d1576040517f08c379a00000000000000000000000000000000000000000000000000000000081526004016104c8906122e5565b60405180910390fd5b6104e581600161133490919063ffffffff16565b610524576040517f08c379a000000000000000000000000000000000000000000000000000000000815260040161051b90612305565b60405180910390fd5b61053881600161136490919063ffffffff16565b507f0504a20df814c93c7ddd7f77490f6e926f33d1094b561451e480448195c3a9178160405161056891906120bb565b60405180910390a150565b61057b61132c565b73ffffffffffffffffffffffffffffffffffffffff1660008054906101000a900473ffffffffffffffffffffffffffffffffffffffff1673ffffffffffffffffffffffffffffffffffffffff1614610608576040517f08c379a00000000000000000000000000000000000000000000000000000000081526004016105ff906122e5565b60405180910390fd5b600073ffffffffffffffffffffffffffffffffffffffff1660008054906101000a900473ffffffffffffffffffffffffffffffffffffffff1673ffffffffffffffffffffffffffffffffffffffff167f8be0079c531659141344cd1fd0a4f28419497f9722a3daafe3b4186f6b6457e060405160405180910390a360008060006101000a81548173ffffffffffffffffffffffffffffffffffffffff021916908373ffffffffffffffffffffffffffffffffffffffff160217905550565b6060806106d1610bbe565b67ffffffffffffffff811180156106e757600080fd5b5060405190808252806020026020018201604052801561072157816020015b61070e611727565b8152602001906001900390816107065790505b50905060005b61072f610bbe565b811015610836576005818154811061074357fe5b9060005260206000209060030201604051806060016040529081600082018054600181600116156101000203166002900480601f0160208091040260200160405190810160405280929190818152602001828054600181600116156101000203166002900480156107f55780601f106107ca576101008083540402835291602001916107f5565b820191906000526020600020905b8154815290600101906020018083116107d857829003601f168201915b505050505081526020016001820154815260200160028201548152505082828151811061081e57fe5b60200260200101819052508080600101915050610727565b508091505090565b61085961084961132c565b600161133490919063ffffffff16565b8061089d5750610867610b95565b73ffffffffffffffffffffffffffffffffffffffff1661088561132c565b73ffffffffffffffffffffffffffffffffffffffff16145b6108dc576040517f08c379a00000000000000000000000000000000000000000000000000000000081526004016108d390612205565b60405180910390fd5b6000600683836040516108f092919061208b565b90815260200160405180910390205490506000811415610945576040517f08c379a000000000000000000000000000000000000000000000000000000000815260040161093c90612245565b60405180910390fd5b600061095b60018361139490919063ffffffff16565b9050600061097a600161096c610bbe565b61139490919063ffffffff16565b9050610984611727565b6005828154811061099157fe5b9060005260206000209060030201604051806060016040529081600082018054600181600116156101000203166002900480601f016020809104026020016040519081016040528092919081815260200182805460018160011615610100020316600290048015610a435780601f10610a1857610100808354040283529160200191610a43565b820191906000526020600020905b815481529060010190602001808311610a2657829003601f168201915b505050505081526020016001820154815260200160028201548152505090508060058481548110610a7057fe5b90600052602060002090600302016000820151816000019080519060200190610a9a929190611748565b506020820151816001015560408201518160020155905050610ac66001846113de90919063ffffffff16565b60068260000151604051610ada91906120a4565b9081526020016040518091039020819055506005805480610af757fe5b600190038181906000526020600020906003020160008082016000610b1c91906117c8565b600182016000905560028201600090555050905560068686604051610b4292919061208b565b9081526020016040518091039020600090557f7704a686b2fb3541aea5ffdeb387f0119accdfafd1824299e97eb81dee7be8358686604051610b8592919061211a565b60405180910390a1505050505050565b60008060009054906101000a900473ffffffffffffffffffffffffffffffffffffffff16905090565b6000600580549050905090565b610be6610bd661132c565b600161133490919063ffffffff16565b80610c2a5750610bf4610b95565b73ffffffffffffffffffffffffffffffffffffffff16610c1261132c565b73ffffffffffffffffffffffffffffffffffffffff16145b610c69576040517f08c379a0000000000000000000000000000000000000000000000000000000008152600401610c6090612205565b60405180910390fd5b600354610c74610bbe565b10610cb4576040517f08c379a0000000000000000000000000000000000000000000000000000000008152600401610cab90612265565b60405180910390fd5b600060068a8a604051610cc892919061208b565b908152602001604051809103902054905060008114610da75760405180606001604052808b8b8080601f016020809104026020016040519081016040528093929190818152602001838380828437600081840152601f19601f820116905080830192505050505050508152602001898152602001888152506005610d5660018461139490919063ffffffff16565b81548110610d6057fe5b90600052602060002090600302016000820151816000019080519060200190610d8a929190611748565b506020820151816001015560408201518160020155905050610e91565b600560405180606001604052808c8c8080601f016020809104026020016040519081016040528093929190818152602001838380828437600081840152601f19601f8201169050808301925050505050505081526020018a81526020018981525090806001815401808255809150506001900390600052602060002090600302016000909190919091506000820151816000019080519060200190610e4d929190611748565b5060208201518160010155604082015181600201555050610e6c610bbe565b60068b8b604051610e7e92919061208b565b9081526020016040518091039020819055505b7f39286ec2029898036939f769c0b9821652dabad7d85e2c702f9aace15180c7498a8a8860405180604001604052808a8a8080601f016020809104026020016040519081016040528093929190818152602001838380828437600081840152601f19601f82011690508083019250505050505050815260200188888080601f016020809104026020016040519081016040528093929190818152602001838380828437600081840152601f19601f82011690508083019250505050505050815250604051610f62949392919061213e565b60405180910390a150505050505050505050565b60008060005b610f84610bbe565b811015610ffb57610fec610fdd60058381548110610f9e57fe5b90600052602060002090600302016002015460058481548110610fbd57fe5b90600052602060002090600302016001015461143390919063ffffffff16565b836113de90919063ffffffff16565b91508080600101915050610f7c565b508091505090565b61100b61132c565b73ffffffffffffffffffffffffffffffffffffffff1660008054906101000a900473ffffffffffffffffffffffffffffffffffffffff1673ffffffffffffffffffffffffffffffffffffffff1614611098576040517f08c379a000000000000000000000000000000000000000000000000000000000815260040161108f906122e5565b60405180910390fd5b6110ac81600161133490919063ffffffff16565b156110ec576040517f08c379a00000000000000000000000000000000000000000000000000000000081526004016110e3906122a5565b60405180910390fd5b6111008160016114a390919063ffffffff16565b507fd95d4cef34c7f4a986a0964e74c4a112f7afe024b8bcafb75b2eab45e7c573888160405161113091906120bb565b60405180910390a150565b61114361132c565b73ffffffffffffffffffffffffffffffffffffffff1660008054906101000a900473ffffffffffffffffffffffffffffffffffffffff1673ffffffffffffffffffffffffffffffffffffffff16146111d0576040517f08c379a00000000000000000000000000000000000000000000000000000000081526004016111c7906122e5565b60405180910390fd5b600073ffffffffffffffffffffffffffffffffffffffff168173ffffffffffffffffffffffffffffffffffffffff161415611240576040517f08c379a000000000000000000000000000000000000000000000000000000000815260040161123790612225565b60405180910390fd5b8073ffffffffffffffffffffffffffffffffffffffff1660008054906101000a900473ffffffffffffffffffffffffffffffffffffffff1673ffffffffffffffffffffffffffffffffffffffff167f8be0079c531659141344cd1fd0a4f28419497f9722a3daafe3b4186f6b6457e060405160405180910390a3806000806101000a81548173ffffffffffffffffffffffffffffffffffffffff021916908373ffffffffffffffffffffffffffffffffffffffff16021790555050565b600061130b826000016114d3565b9050919050565b600061132183600001836114e4565b60001c905092915050565b600033905090565b600061135c836000018373ffffffffffffffffffffffffffffffffffffffff1660001b611551565b905092915050565b600061138c836000018373ffffffffffffffffffffffffffffffffffffffff1660001b611574565b905092915050565b60006113d683836040518060400160405280601e81526020017f536166654d6174683a207375627472616374696f6e206f766572666c6f77000081525061165c565b905092915050565b600080828401905083811015611429576040517f08c379a000000000000000000000000000000000000000000000000000000000815260040161142090612285565b60405180910390fd5b8091505092915050565b600080831415611446576000905061149d565b600082840290508284828161145757fe5b0414611498576040517f08c379a000000000000000000000000000000000000000000000000000000000815260040161148f906122c5565b60405180910390fd5b809150505b92915050565b60006114cb836000018373ffffffffffffffffffffffffffffffffffffffff1660001b6116b7565b905092915050565b600081600001805490509050919050565b60008183600001805490501161152f576040517f08c379a0000000000000000000000000000000000000000000000000000000008152600401611526906121e5565b60405180910390fd5b82600001828154811061153e57fe5b9060005260206000200154905092915050565b600080836001016000848152602001908152602001600020541415905092915050565b6000808360010160008481526020019081526020016000205490506000811461165057600060018203905060006001866000018054905003905060008660000182815481106115bf57fe5b90600052602060002001549050808760000184815481106115dc57fe5b906000526020600020018190555060018301876001016000838152602001908152602001600020819055508660000180548061161457fe5b60019003818190600052602060002001600090559055866001016000878152602001908152602001600020600090556001945050505050611656565b60009150505b92915050565b60008383111582906116a4576040517f08c379a000000000000000000000000000000000000000000000000000000000815260040161169b9190612185565b60405180910390fd5b5060008385039050809150509392505050565b60006116c38383611551565b61171c578260000182908060018154018082558091505060019003906000526020600020016000909190919091505582600001805490508360010160008481526020019081526020016000208190555060019050611721565b600090505b92915050565b60405180606001604052806060815260200160008152602001600081525090565b828054600181600116156101000203166002900490600052602060002090601f016020900481019282601f1061178957805160ff19168380011785556117b7565b828001600101855582156117b7579182015b828111156117b657825182559160200191906001019061179b565b5b5090506117c49190611810565b5090565b50805460018160011615610100020316600290046000825580601f106117ee575061180d565b601f01602090049060005260206000209081019061180c9190611810565b5b50565b5b80821115611829576000816000905550600101611811565b5090565b60008135905061183c81612479565b92915050565b60008083601f84011261185457600080fd5b8235905067ffffffffffffffff81111561186d57600080fd5b60208301915083600182028301111561188557600080fd5b9250929050565b60008135905061189b81612490565b92915050565b6000602082840312156118b357600080fd5b60006118c18482850161182d565b91505092915050565b600080602083850312156118dd57600080fd5b600083013567ffffffffffffffff8111156118f757600080fd5b61190385828601611842565b92509250509250929050565b600080600080600080600080600060c08a8c03121561192d57600080fd5b60008a013567ffffffffffffffff81111561194757600080fd5b6119538c828d01611842565b995099505060206119668c828d0161188c565b97505060406119778c828d0161188c565b96505060606119888c828d0161188c565b95505060808a013567ffffffffffffffff8111156119a557600080fd5b6119b18c828d01611842565b945094505060a08a013567ffffffffffffffff8111156119d057600080fd5b6119dc8c828d01611842565b92509250509295985092959850929598565b600060208284031215611a0057600080fd5b6000611a0e8482850161188c565b91505092915050565b6000611a238383611a43565b60208301905092915050565b6000611a3b8383611fd9565b905092915050565b611a4c816123ea565b82525050565b611a5b816123ea565b82525050565b6000611a6c82612360565b611a76818561239b565b9350611a8183612340565b8060005b83811015611ab2578151611a998882611a17565b9750611aa483612381565b925050600181019050611a85565b5085935050505092915050565b6000611aca8261236b565b611ad481856123ac565b935083602082028501611ae685612350565b8060005b85811015611b225784840389528151611b038582611a2f565b9450611b0e8361238e565b925060208a01995050600181019050611aea565b50829750879550505050505092915050565b6000611b4083856123ce565b9350611b4d838584612426565b611b5683612468565b840190509392505050565b6000611b6d83856123df565b9350611b7a838584612426565b82840190509392505050565b6000611b9182612376565b611b9b81856123bd565b9350611bab818560208601612435565b611bb481612468565b840191505092915050565b6000611bca82612376565b611bd481856123ce565b9350611be4818560208601612435565b611bed81612468565b840191505092915050565b6000611c0382612376565b611c0d81856123df565b9350611c1d818560208601612435565b80840191505092915050565b6000611c366022836123ce565b91507f456e756d657261626c655365743a20696e646578206f7574206f6620626f756e60008301527f64730000000000000000000000000000000000000000000000000000000000006020830152604082019050919050565b6000611c9c6024836123ce565b91507f416363657373436f6e74726f6c3a2063616c6c6572206973206e6f7420616c6c60008301527f6f776564000000000000000000000000000000000000000000000000000000006020830152604082019050919050565b6000611d026026836123ce565b91507f4f776e61626c653a206e6577206f776e657220697320746865207a65726f206160008301527f64647265737300000000000000000000000000000000000000000000000000006020830152604082019050919050565b6000611d68603d836123ce565b91507f5265616c41737365744465706f73697461727942616c616e6365566965773a3a60008301527f72656d6f76653a20617373657420616c72656164792072656d6f7665640000006020830152604082019050919050565b6000611dce6034836123ce565b91507f5265616c41737365744465706f73697461727942616c616e6365566965773a3a60008301527f7075743a20746f6f206d616e79206173736574730000000000000000000000006020830152604082019050919050565b6000611e34601b836123ce565b91507f536166654d6174683a206164646974696f6e206f766572666c6f7700000000006000830152602082019050919050565b6000611e746032836123ce565b91507f416363657373436f6e74726f6c3a3a616c6c6f774163636573733a206d656d6260008301527f657220616c726561647920616c6c6f77656400000000000000000000000000006020830152604082019050919050565b6000611eda6021836123ce565b91507f536166654d6174683a206d756c7469706c69636174696f6e206f766572666c6f60008301527f77000000000000000000000000000000000000000000000000000000000000006020830152604082019050919050565b6000611f406020836123ce565b91507f4f776e61626c653a2063616c6c6572206973206e6f7420746865206f776e65726000830152602082019050919050565b6000611f806030836123ce565b91507f416363657373436f6e74726f6c3a3a64656e794163636573733a206d656d626560008301527f7220616c72656164792064656e696564000000000000000000000000000000006020830152604082019050919050565b60006060830160008301518482036000860152611ff68282611b86565b915050602083015161200b602086018261206d565b50604083015161201e604086018261206d565b508091505092915050565b600060408301600083015184820360008601526120468282611b86565b915050602083015184820360208601526120608282611b86565b9150508091505092915050565b6120768161241c565b82525050565b6120858161241c565b82525050565b6000612098828486611b61565b91508190509392505050565b60006120b08284611bf8565b915081905092915050565b60006020820190506120d06000830184611a52565b92915050565b600060208201905081810360008301526120f08184611a61565b905092915050565b600060208201905081810360008301526121128184611abf565b905092915050565b60006020820190508181036000830152612135818486611b34565b90509392505050565b60006060820190508181036000830152612159818688611b34565b9050612168602083018561207c565b818103604083015261217a8184612029565b905095945050505050565b6000602082019050818103600083015261219f8184611bbf565b905092915050565b600060608201905081810360008301526121c18186611bbf565b90506121d0602083018561207c565b6121dd604083018461207c565b949350505050565b600060208201905081810360008301526121fe81611c29565b9050919050565b6000602082019050818103600083015261221e81611c8f565b9050919050565b6000602082019050818103600083015261223e81611cf5565b9050919050565b6000602082019050818103600083015261225e81611d5b565b9050919050565b6000602082019050818103600083015261227e81611dc1565b9050919050565b6000602082019050818103600083015261229e81611e27565b9050919050565b600060208201905081810360008301526122be81611e67565b9050919050565b600060208201905081810360008301526122de81611ecd565b9050919050565b600060208201905081810360008301526122fe81611f33565b9050919050565b6000602082019050818103600083015261231e81611f73565b9050919050565b600060208201905061233a600083018461207c565b92915050565b6000819050602082019050919050565b6000819050602082019050919050565b600081519050919050565b600081519050919050565b600081519050919050565b6000602082019050919050565b6000602082019050919050565b600082825260208201905092915050565b600082825260208201905092915050565b600082825260208201905092915050565b600082825260208201905092915050565b600081905092915050565b60006123f5826123fc565b9050919050565b600073ffffffffffffffffffffffffffffffffffffffff82169050919050565b6000819050919050565b82818337600083830152505050565b60005b83811015612453578082015181840152602081019050612438565b83811115612462576000848401525b50505050565b6000601f19601f8301169050919050565b612482816123ea565b811461248d57600080fd5b50565b6124998161241c565b81146124a457600080fd5b5056fea2646970667358221220384d4f6d98409db3e5723ba0309d3341f4d35a712ccfb15f4af9186847b9a05964736f6c634300060c0033",
  "devdoc": {
    "kind": "dev",
    "methods": {
      "accessList()": {
        "returns": {
          "_0": "Allowed address list."
        }
      },
      "allowAccess(address)": {
        "params": {
          "member": "Target address."
        }
      },
      "assets()": {
        "returns": {
          "_0": "Assets list."
        }
      },
      "balance()": {
        "returns": {
          "_0": "Balance of depositary."
        }
      },
      "constructor": {
        "params": {
          "_decimals": "Decimals balance.",
          "_maxSize": "Max number assets in depositary."
        }
      },
      "denyAccess(address)": {
        "params": {
          "member": "Target address."
        }
      },
      "owner()": {
        "details": "Returns the address of the current owner."
      },
      "put(string,uint256,uint256,uint256,string,string)": {
        "params": {
          "amount": "Amount of asset.",
          "id": "Asset identificator.",
          "price": "Cost of one asset in base currency.",
          "proofData": "Signed data.",
          "proofSignature": "Data signature.",
          "updatedAt": "Timestamp of updated."
        }
      },
      "remove(string)": {
        "params": {
          "id": "Asset identificator."
        }
      },
      "renounceOwnership()": {
        "details": "Leaves the contract without owner. It will not be possible to call `onlyOwner` functions anymore. Can only be called by the current owner. NOTE: Renouncing ownership will leave the contract without an owner, thereby removing any functionality that is only available to the owner."
      },
      "size()": {
        "returns": {
          "_0": "Assets count of depositary."
        }
      },
      "transferOwnership(address)": {
        "details": "Transfers ownership of the contract to a new account (`newOwner`). Can only be called by the current owner."
      }
    },
    "stateVariables": {
      "portfolioIndex": {
        "details": "Assets list index."
      }
    },
    "version": 1
  },
  "userdoc": {
    "events": {
      "AccessAllowed(address)": {
        "notice": "An event emitted when address allowed."
      },
      "AccessDenied(address)": {
        "notice": "An event emitted when address denied."
      },
      "AssetRemoved(string)": {
        "notice": "An event thats emitted when asset removed from portfolio."
      },
      "AssetUpdated(string,uint256,(string,string))": {
        "notice": "An event thats emitted when asset updated in portfolio."
      }
    },
    "kind": "user",
    "methods": {
      "allowAccess(address)": {
        "notice": "Allow access."
      },
      "balance()": {
        "notice": "Get balance of depositary."
      },
      "decimals()": {
        "notice": "Decimals balance."
      },
      "denyAccess(address)": {
        "notice": "Deny access."
      },
      "maxSize()": {
        "notice": "The number of assets in depositary."
      },
      "portfolio(uint256)": {
        "notice": "Assets list."
      },
      "put(string,uint256,uint256,uint256,string,string)": {
        "notice": "Update information of asset."
      },
      "remove(string)": {
        "notice": "Remove information of asset."
      }
    },
    "version": 1
  },
  "storageLayout": {
    "storage": [
      {
        "astId": 30,
        "contract": "contracts/depositary/RealAssetDepositaryBalanceView.sol:RealAssetDepositaryBalanceView",
        "label": "_owner",
        "offset": 0,
        "slot": "0",
        "type": "t_address"
      },
      {
        "astId": 12986,
        "contract": "contracts/depositary/RealAssetDepositaryBalanceView.sol:RealAssetDepositaryBalanceView",
        "label": "allowed",
        "offset": 0,
        "slot": "1",
        "type": "t_struct(AddressSet)1584_storage"
      },
      {
        "astId": 9870,
        "contract": "contracts/depositary/RealAssetDepositaryBalanceView.sol:RealAssetDepositaryBalanceView",
        "label": "maxSize",
        "offset": 0,
        "slot": "3",
        "type": "t_uint256"
      },
      {
        "astId": 9875,
        "contract": "contracts/depositary/RealAssetDepositaryBalanceView.sol:RealAssetDepositaryBalanceView",
        "label": "decimals",
        "offset": 0,
        "slot": "4",
        "type": "t_uint256"
      },
      {
        "astId": 9879,
        "contract": "contracts/depositary/RealAssetDepositaryBalanceView.sol:RealAssetDepositaryBalanceView",
        "label": "portfolio",
        "offset": 0,
        "slot": "5",
        "type": "t_array(t_struct(Asset)9867_storage)dyn_storage"
      },
      {
        "astId": 9884,
        "contract": "contracts/depositary/RealAssetDepositaryBalanceView.sol:RealAssetDepositaryBalanceView",
        "label": "portfolioIndex",
        "offset": 0,
        "slot": "6",
        "type": "t_mapping(t_string_memory_ptr,t_uint256)"
      }
    ],
    "types": {
      "t_address": {
        "encoding": "inplace",
        "label": "address",
        "numberOfBytes": "20"
      },
      "t_array(t_bytes32)dyn_storage": {
        "base": "t_bytes32",
        "encoding": "dynamic_array",
        "label": "bytes32[]",
        "numberOfBytes": "32"
      },
      "t_array(t_struct(Asset)9867_storage)dyn_storage": {
        "base": "t_struct(Asset)9867_storage",
        "encoding": "dynamic_array",
        "label": "struct RealAssetDepositaryBalanceView.Asset[]",
        "numberOfBytes": "32"
      },
      "t_bytes32": {
        "encoding": "inplace",
        "label": "bytes32",
        "numberOfBytes": "32"
      },
      "t_mapping(t_bytes32,t_uint256)": {
        "encoding": "mapping",
        "key": "t_bytes32",
        "label": "mapping(bytes32 => uint256)",
        "numberOfBytes": "32",
        "value": "t_uint256"
      },
      "t_mapping(t_string_memory_ptr,t_uint256)": {
        "encoding": "mapping",
        "key": "t_string_memory_ptr",
        "label": "mapping(string => uint256)",
        "numberOfBytes": "32",
        "value": "t_uint256"
      },
      "t_string_memory_ptr": {
        "encoding": "bytes",
        "label": "string",
        "numberOfBytes": "32"
      },
      "t_string_storage": {
        "encoding": "bytes",
        "label": "string",
        "numberOfBytes": "32"
      },
      "t_struct(AddressSet)1584_storage": {
        "encoding": "inplace",
        "label": "struct EnumerableSet.AddressSet",
        "members": [
          {
            "astId": 1583,
            "contract": "contracts/depositary/RealAssetDepositaryBalanceView.sol:RealAssetDepositaryBalanceView",
            "label": "_inner",
            "offset": 0,
            "slot": "0",
            "type": "t_struct(Set)1404_storage"
          }
        ],
        "numberOfBytes": "64"
      },
      "t_struct(Asset)9867_storage": {
        "encoding": "inplace",
        "label": "struct RealAssetDepositaryBalanceView.Asset",
        "members": [
          {
            "astId": 9862,
            "contract": "contracts/depositary/RealAssetDepositaryBalanceView.sol:RealAssetDepositaryBalanceView",
            "label": "id",
            "offset": 0,
            "slot": "0",
            "type": "t_string_storage"
          },
          {
            "astId": 9864,
            "contract": "contracts/depositary/RealAssetDepositaryBalanceView.sol:RealAssetDepositaryBalanceView",
            "label": "amount",
            "offset": 0,
            "slot": "1",
            "type": "t_uint256"
          },
          {
            "astId": 9866,
            "contract": "contracts/depositary/RealAssetDepositaryBalanceView.sol:RealAssetDepositaryBalanceView",
            "label": "price",
            "offset": 0,
            "slot": "2",
            "type": "t_uint256"
          }
        ],
        "numberOfBytes": "96"
      },
      "t_struct(Set)1404_storage": {
        "encoding": "inplace",
        "label": "struct EnumerableSet.Set",
        "members": [
          {
            "astId": 1399,
            "contract": "contracts/depositary/RealAssetDepositaryBalanceView.sol:RealAssetDepositaryBalanceView",
            "label": "_values",
            "offset": 0,
            "slot": "0",
            "type": "t_array(t_bytes32)dyn_storage"
          },
          {
            "astId": 1403,
            "contract": "contracts/depositary/RealAssetDepositaryBalanceView.sol:RealAssetDepositaryBalanceView",
            "label": "_indexes",
            "offset": 0,
            "slot": "1",
            "type": "t_mapping(t_bytes32,t_uint256)"
          }
        ],
        "numberOfBytes": "64"
      },
      "t_uint256": {
        "encoding": "inplace",
        "label": "uint256",
        "numberOfBytes": "32"
      }
    }
  }
}