{
  "address": "0xa4D6e49c61408C1f8E6CAB9aE8A3B3429f3cfF38",
  "abi": [
    {
      "inputs": [
        {
          "internalType": "uint256",
          "name": "_decimals",
          "type": "uint256"
        },
        {
          "internalType": "uint256",
          "name": "_maxSize",
          "type": "uint256"
        }
      ],
      "stateMutability": "nonpayable",
      "type": "constructor"
    },
    {
      "anonymous": false,
      "inputs": [
        {
          "indexed": false,
          "internalType": "address",
          "name": "member",
          "type": "address"
        }
      ],
      "name": "AccessAllowed",
      "type": "event"
    },
    {
      "anonymous": false,
      "inputs": [
        {
          "indexed": false,
          "internalType": "address",
          "name": "member",
          "type": "address"
        }
      ],
      "name": "AccessDenied",
      "type": "event"
    },
    {
      "anonymous": false,
      "inputs": [
        {
          "indexed": false,
          "internalType": "string",
          "name": "id",
          "type": "string"
        }
      ],
      "name": "AssetRemoved",
      "type": "event"
    },
    {
      "anonymous": false,
      "inputs": [
        {
          "indexed": false,
          "internalType": "string",
          "name": "id",
          "type": "string"
        },
        {
          "indexed": false,
          "internalType": "uint256",
          "name": "updatedAt",
          "type": "uint256"
        },
        {
          "components": [
            {
              "internalType": "string",
              "name": "data",
              "type": "string"
            },
            {
              "internalType": "string",
              "name": "signature",
              "type": "string"
            }
          ],
          "indexed": false,
          "internalType": "struct RealAssetDepositaryBalanceView.Proof",
          "name": "proof",
          "type": "tuple"
        }
      ],
      "name": "AssetUpdated",
      "type": "event"
    },
    {
      "anonymous": false,
      "inputs": [
        {
          "indexed": true,
          "internalType": "address",
          "name": "previousOwner",
          "type": "address"
        },
        {
          "indexed": true,
          "internalType": "address",
          "name": "newOwner",
          "type": "address"
        }
      ],
      "name": "OwnershipTransferred",
      "type": "event"
    },
    {
      "inputs": [],
      "name": "accessList",
      "outputs": [
        {
          "internalType": "address[]",
          "name": "",
          "type": "address[]"
        }
      ],
      "stateMutability": "view",
      "type": "function"
    },
    {
      "inputs": [
        {
          "internalType": "address",
          "name": "member",
          "type": "address"
        }
      ],
      "name": "allowAccess",
      "outputs": [],
      "stateMutability": "nonpayable",
      "type": "function"
    },
    {
      "inputs": [],
      "name": "assets",
      "outputs": [
        {
          "components": [
            {
              "internalType": "string",
              "name": "id",
              "type": "string"
            },
            {
              "internalType": "uint256",
              "name": "amount",
              "type": "uint256"
            },
            {
              "internalType": "uint256",
              "name": "price",
              "type": "uint256"
            }
          ],
          "internalType": "struct RealAssetDepositaryBalanceView.Asset[]",
          "name": "",
          "type": "tuple[]"
        }
      ],
      "stateMutability": "view",
      "type": "function"
    },
    {
      "inputs": [],
      "name": "balance",
      "outputs": [
        {
          "internalType": "uint256",
          "name": "",
          "type": "uint256"
        }
      ],
      "stateMutability": "view",
      "type": "function"
    },
    {
      "inputs": [],
      "name": "decimals",
      "outputs": [
        {
          "internalType": "uint256",
          "name": "",
          "type": "uint256"
        }
      ],
      "stateMutability": "view",
      "type": "function"
    },
    {
      "inputs": [
        {
          "internalType": "address",
          "name": "member",
          "type": "address"
        }
      ],
      "name": "denyAccess",
      "outputs": [],
      "stateMutability": "nonpayable",
      "type": "function"
    },
    {
      "inputs": [],
      "name": "lastUpdateBlockNumber",
      "outputs": [
        {
          "internalType": "uint256",
          "name": "",
          "type": "uint256"
        }
      ],
      "stateMutability": "view",
      "type": "function"
    },
    {
      "inputs": [],
      "name": "maxSize",
      "outputs": [
        {
          "internalType": "uint256",
          "name": "",
          "type": "uint256"
        }
      ],
      "stateMutability": "view",
      "type": "function"
    },
    {
      "inputs": [],
      "name": "owner",
      "outputs": [
        {
          "internalType": "address",
          "name": "",
          "type": "address"
        }
      ],
      "stateMutability": "view",
      "type": "function"
    },
    {
      "inputs": [
        {
          "internalType": "uint256",
          "name": "",
          "type": "uint256"
        }
      ],
      "name": "portfolio",
      "outputs": [
        {
          "internalType": "string",
          "name": "id",
          "type": "string"
        },
        {
          "internalType": "uint256",
          "name": "amount",
          "type": "uint256"
        },
        {
          "internalType": "uint256",
          "name": "price",
          "type": "uint256"
        }
      ],
      "stateMutability": "view",
      "type": "function"
    },
    {
      "inputs": [
        {
          "internalType": "string",
          "name": "id",
          "type": "string"
        },
        {
          "internalType": "uint256",
          "name": "amount",
          "type": "uint256"
        },
        {
          "internalType": "uint256",
          "name": "price",
          "type": "uint256"
        },
        {
          "internalType": "uint256",
          "name": "updatedAt",
          "type": "uint256"
        },
        {
          "internalType": "string",
          "name": "proofData",
          "type": "string"
        },
        {
          "internalType": "string",
          "name": "proofSignature",
          "type": "string"
        }
      ],
      "name": "put",
      "outputs": [],
      "stateMutability": "nonpayable",
      "type": "function"
    },
    {
      "inputs": [
        {
          "internalType": "string",
          "name": "id",
          "type": "string"
        }
      ],
      "name": "remove",
      "outputs": [],
      "stateMutability": "nonpayable",
      "type": "function"
    },
    {
      "inputs": [],
      "name": "renounceOwnership",
      "outputs": [],
      "stateMutability": "nonpayable",
      "type": "function"
    },
    {
      "inputs": [],
      "name": "size",
      "outputs": [
        {
          "internalType": "uint256",
          "name": "",
          "type": "uint256"
        }
      ],
      "stateMutability": "view",
      "type": "function"
    },
    {
      "inputs": [
        {
          "internalType": "address",
          "name": "newOwner",
          "type": "address"
        }
      ],
      "name": "transferOwnership",
      "outputs": [],
      "stateMutability": "nonpayable",
      "type": "function"
    }
  ],
  "transactionHash": "0x76ae3275de866fad8842f6cf8cddf933cb3245dadb0e77d52392b08dcdd35212",
  "args": [
    6,
    50
  ],
  "solcInputHash": "ecdf97c618a671f9032b8c6c297396c1",
  "bytecode": "0x608060405260066004553480156200001657600080fd5b50604051620026b4380380620026b483398181016040528101906200003c919062000121565b60006200004e6200010260201b60201c565b9050806000806101000a81548173ffffffffffffffffffffffffffffffffffffffff021916908373ffffffffffffffffffffffffffffffffffffffff1602179055508073ffffffffffffffffffffffffffffffffffffffff16600073ffffffffffffffffffffffffffffffffffffffff167f8be0079c531659141344cd1fd0a4f28419497f9722a3daafe3b4186f6b6457e060405160405180910390a3508160048190555080600381905550505062000186565b600033905090565b6000815190506200011b816200016c565b92915050565b600080604083850312156200013557600080fd5b600062000145858286016200010a565b925050602062000158858286016200010a565b9150509250929050565b6000819050919050565b620001778162000162565b81146200018357600080fd5b50565b61251e80620001966000396000f3fe608060405234801561001057600080fd5b50600436106100f55760003560e01c806380599e4b11610097578063b4c6e41611610066578063b4c6e4161461023e578063b69ef8a81461025c578063c4a85bc11461027a578063f2fde38b14610296576100f5565b806380599e4b146101ca5780638da5cb5b146101e6578063949d225d146102045780639feee6ac14610222576100f5565b8063313ce567116100d3578063313ce5671461016857806361afd5ac14610186578063715018a6146101a257806371a97305146101ac576100f5565b8063138d194c146100fa5780632565b159146101185780632e63a15614610136575b600080fd5b6101026102b2565b60405161010f9190612117565b60405180910390f35b61012061038a565b60405161012d9190612366565b60405180910390f35b610150600480360381019061014b9190611a2f565b610390565b60405161015f939291906121e8565b60405180910390f35b61017061045f565b60405161017d9190612366565b60405180910390f35b6101a0600480360381019061019b91906118e2565b610465565b005b6101aa61059c565b005b6101b46106ef565b6040516101c19190612139565b60405180910390f35b6101e460048036038101906101df919061190b565b610867565b005b6101ee610bbe565b6040516101fb91906120fc565b60405180910390f35b61020c610be7565b6040516102199190612366565b60405180910390f35b61023c60048036038101906102379190611950565b610bf4565b005b610246610fb1565b6040516102539190612366565b60405180910390f35b610264610fb7565b6040516102719190612366565b60405180910390f35b610294600480360381019061028f91906118e2565b611044565b005b6102b060048036038101906102ab91906118e2565b61117c565b005b6060806102bf600161133e565b67ffffffffffffffff811180156102d557600080fd5b506040519080825280602002602001820160405280156103045781602001602082028036833780820191505090505b50905060005b610314600161133e565b8110156103825761032f81600161135390919063ffffffff16565b82828151811061033b57fe5b602002602001019073ffffffffffffffffffffffffffffffffffffffff16908173ffffffffffffffffffffffffffffffffffffffff1681525050808060010191505061030a565b508091505090565b60035481565b6005818154811061039d57fe5b9060005260206000209060030201600091509050806000018054600181600116156101000203166002900480601f0160208091040260200160405190810160405280929190818152602001828054600181600116156101000203166002900480156104495780601f1061041e57610100808354040283529160200191610449565b820191906000526020600020905b81548152906001019060200180831161042c57829003601f168201915b5050505050908060010154908060020154905083565b60045481565b61046d61136d565b73ffffffffffffffffffffffffffffffffffffffff1660008054906101000a900473ffffffffffffffffffffffffffffffffffffffff1673ffffffffffffffffffffffffffffffffffffffff16146104fa576040517f08c379a00000000000000000000000000000000000000000000000000000000081526004016104f190612326565b60405180910390fd5b61050e81600161137590919063ffffffff16565b61054d576040517f08c379a000000000000000000000000000000000000000000000000000000000815260040161054490612346565b60405180910390fd5b6105618160016113a590919063ffffffff16565b507f0504a20df814c93c7ddd7f77490f6e926f33d1094b561451e480448195c3a9178160405161059191906120fc565b60405180910390a150565b6105a461136d565b73ffffffffffffffffffffffffffffffffffffffff1660008054906101000a900473ffffffffffffffffffffffffffffffffffffffff1673ffffffffffffffffffffffffffffffffffffffff1614610631576040517f08c379a000000000000000000000000000000000000000000000000000000000815260040161062890612326565b60405180910390fd5b600073ffffffffffffffffffffffffffffffffffffffff1660008054906101000a900473ffffffffffffffffffffffffffffffffffffffff1673ffffffffffffffffffffffffffffffffffffffff167f8be0079c531659141344cd1fd0a4f28419497f9722a3daafe3b4186f6b6457e060405160405180910390a360008060006101000a81548173ffffffffffffffffffffffffffffffffffffffff021916908373ffffffffffffffffffffffffffffffffffffffff160217905550565b6060806106fa610be7565b67ffffffffffffffff8111801561071057600080fd5b5060405190808252806020026020018201604052801561074a57816020015b610737611768565b81526020019060019003908161072f5790505b50905060005b610758610be7565b81101561085f576005818154811061076c57fe5b9060005260206000209060030201604051806060016040529081600082018054600181600116156101000203166002900480601f01602080910402602001604051908101604052809291908181526020018280546001816001161561010002031660029004801561081e5780601f106107f35761010080835404028352916020019161081e565b820191906000526020600020905b81548152906001019060200180831161080157829003601f168201915b505050505081526020016001820154815260200160028201548152505082828151811061084757fe5b60200260200101819052508080600101915050610750565b508091505090565b61088261087261136d565b600161137590919063ffffffff16565b806108c65750610890610bbe565b73ffffffffffffffffffffffffffffffffffffffff166108ae61136d565b73ffffffffffffffffffffffffffffffffffffffff16145b610905576040517f08c379a00000000000000000000000000000000000000000000000000000000081526004016108fc90612246565b60405180910390fd5b6000600683836040516109199291906120cc565b9081526020016040518091039020549050600081141561096e576040517f08c379a000000000000000000000000000000000000000000000000000000000815260040161096590612286565b60405180910390fd5b60006109846001836113d590919063ffffffff16565b905060006109a36001610995610be7565b6113d590919063ffffffff16565b90506109ad611768565b600582815481106109ba57fe5b9060005260206000209060030201604051806060016040529081600082018054600181600116156101000203166002900480601f016020809104026020016040519081016040528092919081815260200182805460018160011615610100020316600290048015610a6c5780601f10610a4157610100808354040283529160200191610a6c565b820191906000526020600020905b815481529060010190602001808311610a4f57829003601f168201915b505050505081526020016001820154815260200160028201548152505090508060058481548110610a9957fe5b90600052602060002090600302016000820151816000019080519060200190610ac3929190611789565b506020820151816001015560408201518160020155905050610aef60018461141f90919063ffffffff16565b60068260000151604051610b0391906120e5565b9081526020016040518091039020819055506005805480610b2057fe5b600190038181906000526020600020906003020160008082016000610b459190611809565b600182016000905560028201600090555050905560068686604051610b6b9291906120cc565b9081526020016040518091039020600090557f7704a686b2fb3541aea5ffdeb387f0119accdfafd1824299e97eb81dee7be8358686604051610bae92919061215b565b60405180910390a1505050505050565b60008060009054906101000a900473ffffffffffffffffffffffffffffffffffffffff16905090565b6000600580549050905090565b610c0f610bff61136d565b600161137590919063ffffffff16565b80610c535750610c1d610bbe565b73ffffffffffffffffffffffffffffffffffffffff16610c3b61136d565b73ffffffffffffffffffffffffffffffffffffffff16145b610c92576040517f08c379a0000000000000000000000000000000000000000000000000000000008152600401610c8990612246565b60405180910390fd5b600354610c9d610be7565b10610cdd576040517f08c379a0000000000000000000000000000000000000000000000000000000008152600401610cd4906122a6565b60405180910390fd5b600060068a8a604051610cf19291906120cc565b908152602001604051809103902054905060008114610dd05760405180606001604052808b8b8080601f016020809104026020016040519081016040528093929190818152602001838380828437600081840152601f19601f820116905080830192505050505050508152602001898152602001888152506005610d7f6001846113d590919063ffffffff16565b81548110610d8957fe5b90600052602060002090600302016000820151816000019080519060200190610db3929190611789565b506020820151816001015560408201518160020155905050610eba565b600560405180606001604052808c8c8080601f016020809104026020016040519081016040528093929190818152602001838380828437600081840152601f19601f8201169050808301925050505050505081526020018a81526020018981525090806001815401808255809150506001900390600052602060002090600302016000909190919091506000820151816000019080519060200190610e76929190611789565b5060208201518160010155604082015181600201555050610e95610be7565b60068b8b604051610ea79291906120cc565b9081526020016040518091039020819055505b600754431115610ecc57436007819055505b7f39286ec2029898036939f769c0b9821652dabad7d85e2c702f9aace15180c7498a8a8860405180604001604052808a8a8080601f016020809104026020016040519081016040528093929190818152602001838380828437600081840152601f19601f82011690508083019250505050505050815260200188888080601f016020809104026020016040519081016040528093929190818152602001838380828437600081840152601f19601f82011690508083019250505050505050815250604051610f9d949392919061217f565b60405180910390a150505050505050505050565b60075481565b60008060005b610fc5610be7565b81101561103c5761102d61101e60058381548110610fdf57fe5b90600052602060002090600302016002015460058481548110610ffe57fe5b90600052602060002090600302016001015461147490919063ffffffff16565b8361141f90919063ffffffff16565b91508080600101915050610fbd565b508091505090565b61104c61136d565b73ffffffffffffffffffffffffffffffffffffffff1660008054906101000a900473ffffffffffffffffffffffffffffffffffffffff1673ffffffffffffffffffffffffffffffffffffffff16146110d9576040517f08c379a00000000000000000000000000000000000000000000000000000000081526004016110d090612326565b60405180910390fd5b6110ed81600161137590919063ffffffff16565b1561112d576040517f08c379a0000000000000000000000000000000000000000000000000000000008152600401611124906122e6565b60405180910390fd5b6111418160016114e490919063ffffffff16565b507fd95d4cef34c7f4a986a0964e74c4a112f7afe024b8bcafb75b2eab45e7c573888160405161117191906120fc565b60405180910390a150565b61118461136d565b73ffffffffffffffffffffffffffffffffffffffff1660008054906101000a900473ffffffffffffffffffffffffffffffffffffffff1673ffffffffffffffffffffffffffffffffffffffff1614611211576040517f08c379a000000000000000000000000000000000000000000000000000000000815260040161120890612326565b60405180910390fd5b600073ffffffffffffffffffffffffffffffffffffffff168173ffffffffffffffffffffffffffffffffffffffff161415611281576040517f08c379a000000000000000000000000000000000000000000000000000000000815260040161127890612266565b60405180910390fd5b8073ffffffffffffffffffffffffffffffffffffffff1660008054906101000a900473ffffffffffffffffffffffffffffffffffffffff1673ffffffffffffffffffffffffffffffffffffffff167f8be0079c531659141344cd1fd0a4f28419497f9722a3daafe3b4186f6b6457e060405160405180910390a3806000806101000a81548173ffffffffffffffffffffffffffffffffffffffff021916908373ffffffffffffffffffffffffffffffffffffffff16021790555050565b600061134c82600001611514565b9050919050565b60006113628360000183611525565b60001c905092915050565b600033905090565b600061139d836000018373ffffffffffffffffffffffffffffffffffffffff1660001b611592565b905092915050565b60006113cd836000018373ffffffffffffffffffffffffffffffffffffffff1660001b6115b5565b905092915050565b600061141783836040518060400160405280601e81526020017f536166654d6174683a207375627472616374696f6e206f766572666c6f77000081525061169d565b905092915050565b60008082840190508381101561146a576040517f08c379a0000000000000000000000000000000000000000000000000000000008152600401611461906122c6565b60405180910390fd5b8091505092915050565b60008083141561148757600090506114de565b600082840290508284828161149857fe5b04146114d9576040517f08c379a00000000000000000000000000000000000000000000000000000000081526004016114d090612306565b60405180910390fd5b809150505b92915050565b600061150c836000018373ffffffffffffffffffffffffffffffffffffffff1660001b6116f8565b905092915050565b600081600001805490509050919050565b600081836000018054905011611570576040517f08c379a000000000000000000000000000000000000000000000000000000000815260040161156790612226565b60405180910390fd5b82600001828154811061157f57fe5b9060005260206000200154905092915050565b600080836001016000848152602001908152602001600020541415905092915050565b60008083600101600084815260200190815260200160002054905060008114611691576000600182039050600060018660000180549050039050600086600001828154811061160057fe5b906000526020600020015490508087600001848154811061161d57fe5b906000526020600020018190555060018301876001016000838152602001908152602001600020819055508660000180548061165557fe5b60019003818190600052602060002001600090559055866001016000878152602001908152602001600020600090556001945050505050611697565b60009150505b92915050565b60008383111582906116e5576040517f08c379a00000000000000000000000000000000000000000000000000000000081526004016116dc91906121c6565b60405180910390fd5b5060008385039050809150509392505050565b60006117048383611592565b61175d578260000182908060018154018082558091505060019003906000526020600020016000909190919091505582600001805490508360010160008481526020019081526020016000208190555060019050611762565b600090505b92915050565b60405180606001604052806060815260200160008152602001600081525090565b828054600181600116156101000203166002900490600052602060002090601f016020900481019282601f106117ca57805160ff19168380011785556117f8565b828001600101855582156117f8579182015b828111156117f75782518255916020019190600101906117dc565b5b5090506118059190611851565b5090565b50805460018160011615610100020316600290046000825580601f1061182f575061184e565b601f01602090049060005260206000209081019061184d9190611851565b5b50565b5b8082111561186a576000816000905550600101611852565b5090565b60008135905061187d816124ba565b92915050565b60008083601f84011261189557600080fd5b8235905067ffffffffffffffff8111156118ae57600080fd5b6020830191508360018202830111156118c657600080fd5b9250929050565b6000813590506118dc816124d1565b92915050565b6000602082840312156118f457600080fd5b60006119028482850161186e565b91505092915050565b6000806020838503121561191e57600080fd5b600083013567ffffffffffffffff81111561193857600080fd5b61194485828601611883565b92509250509250929050565b600080600080600080600080600060c08a8c03121561196e57600080fd5b60008a013567ffffffffffffffff81111561198857600080fd5b6119948c828d01611883565b995099505060206119a78c828d016118cd565b97505060406119b88c828d016118cd565b96505060606119c98c828d016118cd565b95505060808a013567ffffffffffffffff8111156119e657600080fd5b6119f28c828d01611883565b945094505060a08a013567ffffffffffffffff811115611a1157600080fd5b611a1d8c828d01611883565b92509250509295985092959850929598565b600060208284031215611a4157600080fd5b6000611a4f848285016118cd565b91505092915050565b6000611a648383611a84565b60208301905092915050565b6000611a7c838361201a565b905092915050565b611a8d8161242b565b82525050565b611a9c8161242b565b82525050565b6000611aad826123a1565b611ab781856123dc565b9350611ac283612381565b8060005b83811015611af3578151611ada8882611a58565b9750611ae5836123c2565b925050600181019050611ac6565b5085935050505092915050565b6000611b0b826123ac565b611b1581856123ed565b935083602082028501611b2785612391565b8060005b85811015611b635784840389528151611b448582611a70565b9450611b4f836123cf565b925060208a01995050600181019050611b2b565b50829750879550505050505092915050565b6000611b81838561240f565b9350611b8e838584612467565b611b97836124a9565b840190509392505050565b6000611bae8385612420565b9350611bbb838584612467565b82840190509392505050565b6000611bd2826123b7565b611bdc81856123fe565b9350611bec818560208601612476565b611bf5816124a9565b840191505092915050565b6000611c0b826123b7565b611c15818561240f565b9350611c25818560208601612476565b611c2e816124a9565b840191505092915050565b6000611c44826123b7565b611c4e8185612420565b9350611c5e818560208601612476565b80840191505092915050565b6000611c7760228361240f565b91507f456e756d657261626c655365743a20696e646578206f7574206f6620626f756e60008301527f64730000000000000000000000000000000000000000000000000000000000006020830152604082019050919050565b6000611cdd60248361240f565b91507f416363657373436f6e74726f6c3a2063616c6c6572206973206e6f7420616c6c60008301527f6f776564000000000000000000000000000000000000000000000000000000006020830152604082019050919050565b6000611d4360268361240f565b91507f4f776e61626c653a206e6577206f776e657220697320746865207a65726f206160008301527f64647265737300000000000000000000000000000000000000000000000000006020830152604082019050919050565b6000611da9603d8361240f565b91507f5265616c41737365744465706f73697461727942616c616e6365566965773a3a60008301527f72656d6f76653a20617373657420616c72656164792072656d6f7665640000006020830152604082019050919050565b6000611e0f60348361240f565b91507f5265616c41737365744465706f73697461727942616c616e6365566965773a3a60008301527f7075743a20746f6f206d616e79206173736574730000000000000000000000006020830152604082019050919050565b6000611e75601b8361240f565b91507f536166654d6174683a206164646974696f6e206f766572666c6f7700000000006000830152602082019050919050565b6000611eb560328361240f565b91507f416363657373436f6e74726f6c3a3a616c6c6f774163636573733a206d656d6260008301527f657220616c726561647920616c6c6f77656400000000000000000000000000006020830152604082019050919050565b6000611f1b60218361240f565b91507f536166654d6174683a206d756c7469706c69636174696f6e206f766572666c6f60008301527f77000000000000000000000000000000000000000000000000000000000000006020830152604082019050919050565b6000611f8160208361240f565b91507f4f776e61626c653a2063616c6c6572206973206e6f7420746865206f776e65726000830152602082019050919050565b6000611fc160308361240f565b91507f416363657373436f6e74726f6c3a3a64656e794163636573733a206d656d626560008301527f7220616c72656164792064656e696564000000000000000000000000000000006020830152604082019050919050565b600060608301600083015184820360008601526120378282611bc7565b915050602083015161204c60208601826120ae565b50604083015161205f60408601826120ae565b508091505092915050565b600060408301600083015184820360008601526120878282611bc7565b915050602083015184820360208601526120a18282611bc7565b9150508091505092915050565b6120b78161245d565b82525050565b6120c68161245d565b82525050565b60006120d9828486611ba2565b91508190509392505050565b60006120f18284611c39565b915081905092915050565b60006020820190506121116000830184611a93565b92915050565b600060208201905081810360008301526121318184611aa2565b905092915050565b600060208201905081810360008301526121538184611b00565b905092915050565b60006020820190508181036000830152612176818486611b75565b90509392505050565b6000606082019050818103600083015261219a818688611b75565b90506121a960208301856120bd565b81810360408301526121bb818461206a565b905095945050505050565b600060208201905081810360008301526121e08184611c00565b905092915050565b600060608201905081810360008301526122028186611c00565b905061221160208301856120bd565b61221e60408301846120bd565b949350505050565b6000602082019050818103600083015261223f81611c6a565b9050919050565b6000602082019050818103600083015261225f81611cd0565b9050919050565b6000602082019050818103600083015261227f81611d36565b9050919050565b6000602082019050818103600083015261229f81611d9c565b9050919050565b600060208201905081810360008301526122bf81611e02565b9050919050565b600060208201905081810360008301526122df81611e68565b9050919050565b600060208201905081810360008301526122ff81611ea8565b9050919050565b6000602082019050818103600083015261231f81611f0e565b9050919050565b6000602082019050818103600083015261233f81611f74565b9050919050565b6000602082019050818103600083015261235f81611fb4565b9050919050565b600060208201905061237b60008301846120bd565b92915050565b6000819050602082019050919050565b6000819050602082019050919050565b600081519050919050565b600081519050919050565b600081519050919050565b6000602082019050919050565b6000602082019050919050565b600082825260208201905092915050565b600082825260208201905092915050565b600082825260208201905092915050565b600082825260208201905092915050565b600081905092915050565b60006124368261243d565b9050919050565b600073ffffffffffffffffffffffffffffffffffffffff82169050919050565b6000819050919050565b82818337600083830152505050565b60005b83811015612494578082015181840152602081019050612479565b838111156124a3576000848401525b50505050565b6000601f19601f8301169050919050565b6124c38161242b565b81146124ce57600080fd5b50565b6124da8161245d565b81146124e557600080fd5b5056fea2646970667358221220123262b1e5881bf02fb1812b9b3a6e20d8813072dca90cf53216f64bac50ccf664736f6c634300060c0033",
  "devdoc": {
    "kind": "dev",
    "methods": {
      "accessList()": {
        "returns": {
          "_0": "Allowed address list."
        }
      },
      "allowAccess(address)": {
        "params": {
          "member": "Target address."
        }
      },
      "assets()": {
        "returns": {
          "_0": "Assets list."
        }
      },
      "balance()": {
        "returns": {
          "_0": "Balance of depositary."
        }
      },
      "constructor": {
        "params": {
          "_decimals": "Decimals balance.",
          "_maxSize": "Max number assets in depositary."
        }
      },
      "denyAccess(address)": {
        "params": {
          "member": "Target address."
        }
      },
      "owner()": {
        "details": "Returns the address of the current owner."
      },
      "put(string,uint256,uint256,uint256,string,string)": {
        "params": {
          "amount": "Amount of asset.",
          "id": "Asset identificator.",
          "price": "Cost of one asset in base currency.",
          "proofData": "Signed data.",
          "proofSignature": "Data signature.",
          "updatedAt": "Timestamp of updated."
        }
      },
      "remove(string)": {
        "params": {
          "id": "Asset identificator."
        }
      },
      "renounceOwnership()": {
        "details": "Leaves the contract without owner. It will not be possible to call `onlyOwner` functions anymore. Can only be called by the current owner. NOTE: Renouncing ownership will leave the contract without an owner, thereby removing any functionality that is only available to the owner."
      },
      "size()": {
        "returns": {
          "_0": "Assets count of depositary."
        }
      },
      "transferOwnership(address)": {
        "details": "Transfers ownership of the contract to a new account (`newOwner`). Can only be called by the current owner."
      }
    },
    "stateVariables": {
      "portfolioIndex": {
        "details": "Assets list index."
      }
    },
    "version": 1
  },
  "userdoc": {
    "events": {
      "AccessAllowed(address)": {
        "notice": "An event emitted when address allowed."
      },
      "AccessDenied(address)": {
        "notice": "An event emitted when address denied."
      },
      "AssetRemoved(string)": {
        "notice": "An event thats emitted when asset removed from portfolio."
      },
      "AssetUpdated(string,uint256,(string,string))": {
        "notice": "An event thats emitted when asset updated in portfolio."
      }
    },
    "kind": "user",
    "methods": {
      "allowAccess(address)": {
        "notice": "Allow access."
      },
      "balance()": {
        "notice": "Get balance of depositary."
      },
      "decimals()": {
        "notice": "Decimals balance."
      },
      "denyAccess(address)": {
        "notice": "Deny access."
      },
      "lastUpdateBlockNumber()": {
        "notice": "Block number of last update asset."
      },
      "maxSize()": {
        "notice": "The number of assets in depositary."
      },
      "portfolio(uint256)": {
        "notice": "Assets list."
      },
      "put(string,uint256,uint256,uint256,string,string)": {
        "notice": "Update information of asset."
      },
      "remove(string)": {
        "notice": "Remove information of asset."
      }
    },
    "version": 1
  },
  "storageLayout": {
    "storage": [
      {
        "astId": 30,
        "contract": "contracts/depositary/RealAssetDepositaryBalanceView.sol:RealAssetDepositaryBalanceView",
        "label": "_owner",
        "offset": 0,
        "slot": "0",
        "type": "t_address"
      },
      {
        "astId": 13108,
        "contract": "contracts/depositary/RealAssetDepositaryBalanceView.sol:RealAssetDepositaryBalanceView",
        "label": "allowed",
        "offset": 0,
        "slot": "1",
        "type": "t_struct(AddressSet)1584_storage"
      },
      {
        "astId": 9978,
        "contract": "contracts/depositary/RealAssetDepositaryBalanceView.sol:RealAssetDepositaryBalanceView",
        "label": "maxSize",
        "offset": 0,
        "slot": "3",
        "type": "t_uint256"
      },
      {
        "astId": 9983,
        "contract": "contracts/depositary/RealAssetDepositaryBalanceView.sol:RealAssetDepositaryBalanceView",
        "label": "decimals",
        "offset": 0,
        "slot": "4",
        "type": "t_uint256"
      },
      {
        "astId": 9987,
        "contract": "contracts/depositary/RealAssetDepositaryBalanceView.sol:RealAssetDepositaryBalanceView",
        "label": "portfolio",
        "offset": 0,
        "slot": "5",
        "type": "t_array(t_struct(Asset)9975_storage)dyn_storage"
      },
      {
        "astId": 9992,
        "contract": "contracts/depositary/RealAssetDepositaryBalanceView.sol:RealAssetDepositaryBalanceView",
        "label": "portfolioIndex",
        "offset": 0,
        "slot": "6",
        "type": "t_mapping(t_string_memory_ptr,t_uint256)"
      },
      {
        "astId": 9995,
        "contract": "contracts/depositary/RealAssetDepositaryBalanceView.sol:RealAssetDepositaryBalanceView",
        "label": "lastUpdateBlockNumber",
        "offset": 0,
        "slot": "7",
        "type": "t_uint256"
      }
    ],
    "types": {
      "t_address": {
        "encoding": "inplace",
        "label": "address",
        "numberOfBytes": "20"
      },
      "t_array(t_bytes32)dyn_storage": {
        "base": "t_bytes32",
        "encoding": "dynamic_array",
        "label": "bytes32[]",
        "numberOfBytes": "32"
      },
      "t_array(t_struct(Asset)9975_storage)dyn_storage": {
        "base": "t_struct(Asset)9975_storage",
        "encoding": "dynamic_array",
        "label": "struct RealAssetDepositaryBalanceView.Asset[]",
        "numberOfBytes": "32"
      },
      "t_bytes32": {
        "encoding": "inplace",
        "label": "bytes32",
        "numberOfBytes": "32"
      },
      "t_mapping(t_bytes32,t_uint256)": {
        "encoding": "mapping",
        "key": "t_bytes32",
        "label": "mapping(bytes32 => uint256)",
        "numberOfBytes": "32",
        "value": "t_uint256"
      },
      "t_mapping(t_string_memory_ptr,t_uint256)": {
        "encoding": "mapping",
        "key": "t_string_memory_ptr",
        "label": "mapping(string => uint256)",
        "numberOfBytes": "32",
        "value": "t_uint256"
      },
      "t_string_memory_ptr": {
        "encoding": "bytes",
        "label": "string",
        "numberOfBytes": "32"
      },
      "t_string_storage": {
        "encoding": "bytes",
        "label": "string",
        "numberOfBytes": "32"
      },
      "t_struct(AddressSet)1584_storage": {
        "encoding": "inplace",
        "label": "struct EnumerableSet.AddressSet",
        "members": [
          {
            "astId": 1583,
            "contract": "contracts/depositary/RealAssetDepositaryBalanceView.sol:RealAssetDepositaryBalanceView",
            "label": "_inner",
            "offset": 0,
            "slot": "0",
            "type": "t_struct(Set)1404_storage"
          }
        ],
        "numberOfBytes": "64"
      },
      "t_struct(Asset)9975_storage": {
        "encoding": "inplace",
        "label": "struct RealAssetDepositaryBalanceView.Asset",
        "members": [
          {
            "astId": 9970,
            "contract": "contracts/depositary/RealAssetDepositaryBalanceView.sol:RealAssetDepositaryBalanceView",
            "label": "id",
            "offset": 0,
            "slot": "0",
            "type": "t_string_storage"
          },
          {
            "astId": 9972,
            "contract": "contracts/depositary/RealAssetDepositaryBalanceView.sol:RealAssetDepositaryBalanceView",
            "label": "amount",
            "offset": 0,
            "slot": "1",
            "type": "t_uint256"
          },
          {
            "astId": 9974,
            "contract": "contracts/depositary/RealAssetDepositaryBalanceView.sol:RealAssetDepositaryBalanceView",
            "label": "price",
            "offset": 0,
            "slot": "2",
            "type": "t_uint256"
          }
        ],
        "numberOfBytes": "96"
      },
      "t_struct(Set)1404_storage": {
        "encoding": "inplace",
        "label": "struct EnumerableSet.Set",
        "members": [
          {
            "astId": 1399,
            "contract": "contracts/depositary/RealAssetDepositaryBalanceView.sol:RealAssetDepositaryBalanceView",
            "label": "_values",
            "offset": 0,
            "slot": "0",
            "type": "t_array(t_bytes32)dyn_storage"
          },
          {
            "astId": 1403,
            "contract": "contracts/depositary/RealAssetDepositaryBalanceView.sol:RealAssetDepositaryBalanceView",
            "label": "_indexes",
            "offset": 0,
            "slot": "1",
            "type": "t_mapping(t_bytes32,t_uint256)"
          }
        ],
        "numberOfBytes": "64"
      },
      "t_uint256": {
        "encoding": "inplace",
        "label": "uint256",
        "numberOfBytes": "32"
      }
    }
  }
}