{
  "address": "0x3B11970a7488B814C4eEBa5939cC1d7aD5cE19A9",
  "abi": [
    {
      "inputs": [
        {
          "internalType": "address",
          "name": "_rewardsDistribution",
          "type": "address"
        },
        {
          "internalType": "uint256",
          "name": "_rewardsDuration",
          "type": "uint256"
        },
        {
          "internalType": "address",
          "name": "_rewardsToken",
          "type": "address"
        },
        {
          "internalType": "address",
          "name": "_stakingToken",
          "type": "address"
        }
      ],
      "stateMutability": "nonpayable",
      "type": "constructor"
    },
    {
      "anonymous": false,
      "inputs": [
        {
          "indexed": true,
          "internalType": "address",
          "name": "previousOwner",
          "type": "address"
        },
        {
          "indexed": true,
          "internalType": "address",
          "name": "newOwner",
          "type": "address"
        }
      ],
      "name": "OwnershipTransferred",
      "type": "event"
    },
    {
      "anonymous": false,
      "inputs": [
        {
          "indexed": false,
          "internalType": "address",
          "name": "account",
          "type": "address"
        }
      ],
      "name": "Paused",
      "type": "event"
    },
    {
      "anonymous": false,
      "inputs": [
        {
          "indexed": false,
          "internalType": "address",
          "name": "newPauser",
          "type": "address"
        }
      ],
      "name": "PauserChanged",
      "type": "event"
    },
    {
      "anonymous": false,
      "inputs": [
        {
          "indexed": false,
          "internalType": "uint256",
          "name": "reward",
          "type": "uint256"
        }
      ],
      "name": "RewardAdded",
      "type": "event"
    },
    {
      "anonymous": false,
      "inputs": [
        {
          "indexed": true,
          "internalType": "address",
          "name": "user",
          "type": "address"
        },
        {
          "indexed": false,
          "internalType": "uint256",
          "name": "reward",
          "type": "uint256"
        }
      ],
      "name": "RewardPaid",
      "type": "event"
    },
    {
      "anonymous": false,
      "inputs": [
        {
          "indexed": false,
          "internalType": "address",
          "name": "newRewardsDistribution",
          "type": "address"
        }
      ],
      "name": "RewardsDistributionChanged",
      "type": "event"
    },
    {
      "anonymous": false,
      "inputs": [
        {
          "indexed": false,
          "internalType": "address",
          "name": "recipient",
          "type": "address"
        },
        {
          "indexed": false,
          "internalType": "uint256",
          "name": "amount",
          "type": "uint256"
        }
      ],
      "name": "RewardsTransfered",
      "type": "event"
    },
    {
      "anonymous": false,
      "inputs": [
        {
          "indexed": true,
          "internalType": "address",
          "name": "user",
          "type": "address"
        },
        {
          "indexed": false,
          "internalType": "uint256",
          "name": "amount",
          "type": "uint256"
        }
      ],
      "name": "Staked",
      "type": "event"
    },
    {
      "anonymous": false,
      "inputs": [
        {
          "indexed": false,
          "internalType": "address",
          "name": "account",
          "type": "address"
        }
      ],
      "name": "Unpaused",
      "type": "event"
    },
    {
      "anonymous": false,
      "inputs": [
        {
          "indexed": true,
          "internalType": "address",
          "name": "user",
          "type": "address"
        },
        {
          "indexed": false,
          "internalType": "uint256",
          "name": "amount",
          "type": "uint256"
        }
      ],
      "name": "Withdrawn",
      "type": "event"
    },
    {
      "inputs": [
        {
          "internalType": "address",
          "name": "account",
          "type": "address"
        }
      ],
      "name": "balanceOf",
      "outputs": [
        {
          "internalType": "uint256",
          "name": "",
          "type": "uint256"
        }
      ],
      "stateMutability": "view",
      "type": "function"
    },
    {
      "inputs": [
        {
          "internalType": "address",
          "name": "newPauser",
          "type": "address"
        }
      ],
      "name": "changePauser",
      "outputs": [],
      "stateMutability": "nonpayable",
      "type": "function"
    },
    {
      "inputs": [
        {
          "internalType": "address",
          "name": "_rewardDistribution",
          "type": "address"
        }
      ],
      "name": "changeRewardsDistribution",
      "outputs": [],
      "stateMutability": "nonpayable",
      "type": "function"
    },
    {
      "inputs": [
        {
          "internalType": "address",
          "name": "account",
          "type": "address"
        }
      ],
      "name": "earned",
      "outputs": [
        {
          "internalType": "uint256",
          "name": "",
          "type": "uint256"
        }
      ],
      "stateMutability": "view",
      "type": "function"
    },
    {
      "inputs": [],
      "name": "exit",
      "outputs": [],
      "stateMutability": "nonpayable",
      "type": "function"
    },
    {
      "inputs": [],
      "name": "getReward",
      "outputs": [],
      "stateMutability": "nonpayable",
      "type": "function"
    },
    {
      "inputs": [],
      "name": "getRewardForDuration",
      "outputs": [
        {
          "internalType": "uint256",
          "name": "",
          "type": "uint256"
        }
      ],
      "stateMutability": "view",
      "type": "function"
    },
    {
      "inputs": [],
      "name": "lastTimeRewardApplicable",
      "outputs": [
        {
          "internalType": "uint256",
          "name": "",
          "type": "uint256"
        }
      ],
      "stateMutability": "view",
      "type": "function"
    },
    {
      "inputs": [],
      "name": "lastUpdateBlock",
      "outputs": [
        {
          "internalType": "uint256",
          "name": "",
          "type": "uint256"
        }
      ],
      "stateMutability": "view",
      "type": "function"
    },
    {
      "inputs": [
        {
          "internalType": "uint256",
          "name": "reward",
          "type": "uint256"
        }
      ],
      "name": "notifyRewardAmount",
      "outputs": [],
      "stateMutability": "nonpayable",
      "type": "function"
    },
    {
      "inputs": [],
      "name": "owner",
      "outputs": [
        {
          "internalType": "address",
          "name": "",
          "type": "address"
        }
      ],
      "stateMutability": "view",
      "type": "function"
    },
    {
      "inputs": [],
      "name": "pause",
      "outputs": [],
      "stateMutability": "nonpayable",
      "type": "function"
    },
    {
      "inputs": [],
      "name": "paused",
      "outputs": [
        {
          "internalType": "bool",
          "name": "",
          "type": "bool"
        }
      ],
      "stateMutability": "view",
      "type": "function"
    },
    {
      "inputs": [],
      "name": "pauser",
      "outputs": [
        {
          "internalType": "address",
          "name": "",
          "type": "address"
        }
      ],
      "stateMutability": "view",
      "type": "function"
    },
    {
      "inputs": [],
      "name": "periodFinish",
      "outputs": [
        {
          "internalType": "uint256",
          "name": "",
          "type": "uint256"
        }
      ],
      "stateMutability": "view",
      "type": "function"
    },
    {
      "inputs": [],
      "name": "renounceOwnership",
      "outputs": [],
      "stateMutability": "nonpayable",
      "type": "function"
    },
    {
      "inputs": [],
      "name": "rewardPerToken",
      "outputs": [
        {
          "internalType": "uint256",
          "name": "",
          "type": "uint256"
        }
      ],
      "stateMutability": "view",
      "type": "function"
    },
    {
      "inputs": [],
      "name": "rewardPerTokenStored",
      "outputs": [
        {
          "internalType": "uint256",
          "name": "",
          "type": "uint256"
        }
      ],
      "stateMutability": "view",
      "type": "function"
    },
    {
      "inputs": [],
      "name": "rewardRate",
      "outputs": [
        {
          "internalType": "uint256",
          "name": "",
          "type": "uint256"
        }
      ],
      "stateMutability": "view",
      "type": "function"
    },
    {
      "inputs": [
        {
          "internalType": "address",
          "name": "",
          "type": "address"
        }
      ],
      "name": "rewards",
      "outputs": [
        {
          "internalType": "uint256",
          "name": "",
          "type": "uint256"
        }
      ],
      "stateMutability": "view",
      "type": "function"
    },
    {
      "inputs": [],
      "name": "rewardsDistribution",
      "outputs": [
        {
          "internalType": "address",
          "name": "",
          "type": "address"
        }
      ],
      "stateMutability": "view",
      "type": "function"
    },
    {
      "inputs": [],
      "name": "rewardsDuration",
      "outputs": [
        {
          "internalType": "uint256",
          "name": "",
          "type": "uint256"
        }
      ],
      "stateMutability": "view",
      "type": "function"
    },
    {
      "inputs": [],
      "name": "rewardsToken",
      "outputs": [
        {
          "internalType": "contract IERC20",
          "name": "",
          "type": "address"
        }
      ],
      "stateMutability": "view",
      "type": "function"
    },
    {
      "inputs": [
        {
          "internalType": "uint256",
          "name": "amount",
          "type": "uint256"
        }
      ],
      "name": "stake",
      "outputs": [],
      "stateMutability": "nonpayable",
      "type": "function"
    },
    {
      "inputs": [],
      "name": "stakingToken",
      "outputs": [
        {
          "internalType": "contract IERC20",
          "name": "",
          "type": "address"
        }
      ],
      "stateMutability": "view",
      "type": "function"
    },
    {
      "inputs": [],
      "name": "totalSupply",
      "outputs": [
        {
          "internalType": "uint256",
          "name": "",
          "type": "uint256"
        }
      ],
      "stateMutability": "view",
      "type": "function"
    },
    {
      "inputs": [
        {
          "internalType": "address",
          "name": "recipient",
          "type": "address"
        },
        {
          "internalType": "uint256",
          "name": "amount",
          "type": "uint256"
        }
      ],
      "name": "transfer",
      "outputs": [],
      "stateMutability": "nonpayable",
      "type": "function"
    },
    {
      "inputs": [
        {
          "internalType": "address",
          "name": "newOwner",
          "type": "address"
        }
      ],
      "name": "transferOwnership",
      "outputs": [],
      "stateMutability": "nonpayable",
      "type": "function"
    },
    {
      "inputs": [],
      "name": "unpause",
      "outputs": [],
      "stateMutability": "nonpayable",
      "type": "function"
    },
    {
      "inputs": [
        {
          "internalType": "address",
          "name": "",
          "type": "address"
        }
      ],
      "name": "userRewardPerTokenPaid",
      "outputs": [
        {
          "internalType": "uint256",
          "name": "",
          "type": "uint256"
        }
      ],
      "stateMutability": "view",
      "type": "function"
    },
    {
      "inputs": [
        {
          "internalType": "uint256",
          "name": "amount",
          "type": "uint256"
        }
      ],
      "name": "withdraw",
      "outputs": [],
      "stateMutability": "nonpayable",
      "type": "function"
    }
  ],
  "transactionHash": "0x5ca3057f37973d89125b03626a5fce5a82c8b642583baf36485e801049bd0a9e",
  "args": [
    "0x9403932015576D13Fb26B135ed7a35d5d95C18d4",
    161280,
    "0xd1bBEe39864513C4059Aca4340de74A47C9D1572",
    "0xC710cAC9541ae6cFa155115009bdFeB76e8E034e"
  ],
  "solcInputHash": "16a5cdff6144b8dfd8c7db1f0d40ee55",
  "bytecode": "0x60806040523480156200001157600080fd5b506040516200305538038062003055833981810160405260808110156200003757600080fd5b81019080805190602001909291908051906020019092919080519060200190929190805190602001909291905050506000620000786200025c60201b60201c565b9050806000806101000a81548173ffffffffffffffffffffffffffffffffffffffff021916908373ffffffffffffffffffffffffffffffffffffffff1602179055508073ffffffffffffffffffffffffffffffffffffffff16600073ffffffffffffffffffffffffffffffffffffffff167f8be0079c531659141344cd1fd0a4f28419497f9722a3daafe3b4186f6b6457e060405160405180910390a35060008060146101000a81548160ff021916908315150217905550620001406200026460201b60201c565b600160006101000a81548173ffffffffffffffffffffffffffffffffffffffff021916908373ffffffffffffffffffffffffffffffffffffffff160217905550600160028190555083600360006101000a81548173ffffffffffffffffffffffffffffffffffffffff021916908373ffffffffffffffffffffffffffffffffffffffff1602179055508260088190555081600460006101000a81548173ffffffffffffffffffffffffffffffffffffffff021916908373ffffffffffffffffffffffffffffffffffffffff16021790555080600560006101000a81548173ffffffffffffffffffffffffffffffffffffffff021916908373ffffffffffffffffffffffffffffffffffffffff160217905550505050506200028d565b600033905090565b60008060009054906101000a900473ffffffffffffffffffffffffffffffffffffffff16905090565b612db8806200029d6000396000f3fe608060405234801561001057600080fd5b50600436106101e45760003560e01c806372f702f31161010f578063a694fc3a116100a2578063df136d6511610071578063df136d65146106c7578063e9fad8ee146106e5578063ebe2b12b146106ef578063f2fde38b1461070d576101e4565b8063a694fc3a146105f9578063a9059cbb14610627578063cd3daf9d14610675578063d1af0c7d14610693576101e4565b80638b876347116100de5780638b8763471461051b5780638da5cb5b146105735780639fd0506d146105a7578063a218141b146105db576101e4565b806372f702f3146104a15780637b0a47ee146104d557806380faa57d146104f35780638456cb5914610511576101e4565b80633c6b16ab116101875780635c975abb116101565780635c975abb146103db578063602e291d146103fb57806370a082311461043f578063715018a614610497576101e4565b80633c6b16ab146103655780633d18b912146103935780633f4ba83a1461039d5780633fc6df6e146103a7576101e4565b80631c1f78eb116101c35780631c1f78eb146102b75780632cd271e7146102d55780632e1a7d4d14610319578063386a952514610347576101e4565b80628cc262146101e95780630700037d1461024157806318160ddd14610299575b600080fd5b61022b600480360360208110156101ff57600080fd5b81019080803573ffffffffffffffffffffffffffffffffffffffff169060200190929190505050610751565b6040518082815260200191505060405180910390f35b6102836004803603602081101561025757600080fd5b81019080803573ffffffffffffffffffffffffffffffffffffffff16906020019092919050505061086f565b6040518082815260200191505060405180910390f35b6102a1610887565b6040518082815260200191505060405180910390f35b6102bf610891565b6040518082815260200191505060405180910390f35b610317600480360360208110156102eb57600080fd5b81019080803573ffffffffffffffffffffffffffffffffffffffff1690602001909291905050506108af565b005b6103456004803603602081101561032f57600080fd5b8101908080359060200190929190505050610a2a565b005b61034f610d3d565b6040518082815260200191505060405180910390f35b6103916004803603602081101561037b57600080fd5b8101908080359060200190929190505050610d43565b005b61039b61112b565b005b6103a56113c8565b005b6103af6114c3565b604051808273ffffffffffffffffffffffffffffffffffffffff16815260200191505060405180910390f35b6103e36114e9565b60405180821515815260200191505060405180910390f35b61043d6004803603602081101561041157600080fd5b81019080803573ffffffffffffffffffffffffffffffffffffffff1690602001909291905050506114ff565b005b6104816004803603602081101561045557600080fd5b81019080803573ffffffffffffffffffffffffffffffffffffffff16906020019092919050505061167a565b6040518082815260200191505060405180910390f35b61049f6116c3565b005b6104a9611849565b604051808273ffffffffffffffffffffffffffffffffffffffff16815260200191505060405180910390f35b6104dd61186f565b6040518082815260200191505060405180910390f35b6104fb611875565b6040518082815260200191505060405180910390f35b610519611888565b005b61055d6004803603602081101561053157600080fd5b81019080803573ffffffffffffffffffffffffffffffffffffffff169060200190929190505050611983565b6040518082815260200191505060405180910390f35b61057b61199b565b604051808273ffffffffffffffffffffffffffffffffffffffff16815260200191505060405180910390f35b6105af6119c4565b604051808273ffffffffffffffffffffffffffffffffffffffff16815260200191505060405180910390f35b6105e36119ea565b6040518082815260200191505060405180910390f35b6106256004803603602081101561060f57600080fd5b81019080803590602001909291905050506119f0565b005b6106736004803603604081101561063d57600080fd5b81019080803573ffffffffffffffffffffffffffffffffffffffff16906020019092919080359060200190929190505050611d22565b005b61067d611eeb565b6040518082815260200191505060405180910390f35b61069b611f79565b604051808273ffffffffffffffffffffffffffffffffffffffff16815260200191505060405180910390f35b6106cf611f9f565b6040518082815260200191505060405180910390f35b6106ed611fa5565b005b6106f7611ff7565b6040518082815260200191505060405180910390f35b61074f6004803603602081101561072357600080fd5b81019080803573ffffffffffffffffffffffffffffffffffffffff169060200190929190505050611ffd565b005b6000610868600c60008473ffffffffffffffffffffffffffffffffffffffff1673ffffffffffffffffffffffffffffffffffffffff1681526020019081526020016000205461085a670de0b6b3a764000061084c6107fe600b60008973ffffffffffffffffffffffffffffffffffffffff1673ffffffffffffffffffffffffffffffffffffffff168152602001908152602001600020546107f0611eeb565b61220890919063ffffffff16565b600e60008973ffffffffffffffffffffffffffffffffffffffff1673ffffffffffffffffffffffffffffffffffffffff1681526020019081526020016000205461225290919063ffffffff16565b6122d890919063ffffffff16565b61232290919063ffffffff16565b9050919050565b600c6020528060005260406000206000915090505481565b6000600d54905090565b60006108aa60085460075461225290919063ffffffff16565b905090565b6108b76123aa565b73ffffffffffffffffffffffffffffffffffffffff1660008054906101000a900473ffffffffffffffffffffffffffffffffffffffff1673ffffffffffffffffffffffffffffffffffffffff1614610977576040517f08c379a00000000000000000000000000000000000000000000000000000000081526004018080602001828103825260208152602001807f4f776e61626c653a2063616c6c6572206973206e6f7420746865206f776e657281525060200191505060405180910390fd5b80600160006101000a81548173ffffffffffffffffffffffffffffffffffffffff021916908373ffffffffffffffffffffffffffffffffffffffff1602179055507fb80482a293ca2e013eda8683c9bd7fc8347cfdaeea5ede58cba46df502c2a604600160009054906101000a900473ffffffffffffffffffffffffffffffffffffffff16604051808273ffffffffffffffffffffffffffffffffffffffff16815260200191505060405180910390a150565b600280541415610aa2576040517f08c379a000000000000000000000000000000000000000000000000000000000815260040180806020018281038252601f8152602001807f5265656e7472616e637947756172643a207265656e7472616e742063616c6c0081525060200191505060405180910390fd5b6002808190555033610ab2611eeb565b600a81905550610ac0611875565b600981905550600073ffffffffffffffffffffffffffffffffffffffff168173ffffffffffffffffffffffffffffffffffffffff1614610b8d57610b0381610751565b600c60008373ffffffffffffffffffffffffffffffffffffffff1673ffffffffffffffffffffffffffffffffffffffff16815260200190815260200160002081905550600a54600b60008373ffffffffffffffffffffffffffffffffffffffff1673ffffffffffffffffffffffffffffffffffffffff168152602001908152602001600020819055505b60008211610be6576040517f08c379a0000000000000000000000000000000000000000000000000000000008152600401808060200182810382526024815260200180612c9c6024913960400191505060405180910390fd5b610bfb82600d5461220890919063ffffffff16565b600d81905550610c5382600e60003373ffffffffffffffffffffffffffffffffffffffff1673ffffffffffffffffffffffffffffffffffffffff1681526020019081526020016000205461220890919063ffffffff16565b600e60003373ffffffffffffffffffffffffffffffffffffffff1673ffffffffffffffffffffffffffffffffffffffff16815260200190815260200160002081905550610ce33383600560009054906101000a900473ffffffffffffffffffffffffffffffffffffffff1673ffffffffffffffffffffffffffffffffffffffff166123b29092919063ffffffff16565b3373ffffffffffffffffffffffffffffffffffffffff167f7084f5476618d8e60b11ef0d7d3f06914655adb8793e28ff7f018d4c76d505d5836040518082815260200191505060405180910390a250600160028190555050565b60085481565b6000610d4d611eeb565b600a81905550610d5b611875565b600981905550600073ffffffffffffffffffffffffffffffffffffffff168173ffffffffffffffffffffffffffffffffffffffff1614610e2857610d9e81610751565b600c60008373ffffffffffffffffffffffffffffffffffffffff1673ffffffffffffffffffffffffffffffffffffffff16815260200190815260200160002081905550600a54600b60008373ffffffffffffffffffffffffffffffffffffffff1673ffffffffffffffffffffffffffffffffffffffff168152602001908152602001600020819055505b600360009054906101000a900473ffffffffffffffffffffffffffffffffffffffff1673ffffffffffffffffffffffffffffffffffffffff163373ffffffffffffffffffffffffffffffffffffffff161480610eb65750610e8761199b565b73ffffffffffffffffffffffffffffffffffffffff163373ffffffffffffffffffffffffffffffffffffffff16145b610f0b576040517f08c379a000000000000000000000000000000000000000000000000000000000815260040180806020018281038252604f815260200180612ce1604f913960600191505060405180910390fd5b6006544310610f3457610f29600854836122d890919063ffffffff16565b600781905550610f96565b6000610f4b4360065461220890919063ffffffff16565b90506000610f646007548361225290919063ffffffff16565b9050610f8d600854610f7f838761232290919063ffffffff16565b6122d890919063ffffffff16565b60078190555050505b6000600460009054906101000a900473ffffffffffffffffffffffffffffffffffffffff1673ffffffffffffffffffffffffffffffffffffffff166370a08231306040518263ffffffff1660e01b8152600401808273ffffffffffffffffffffffffffffffffffffffff16815260200191505060206040518083038186803b15801561102157600080fd5b505afa158015611035573d6000803e3d6000fd5b505050506040513d602081101561104b57600080fd5b81019080805190602001909291905050509050611073600854826122d890919063ffffffff16565b60075411156110cd576040517f08c379a0000000000000000000000000000000000000000000000000000000008152600401808060200182810382526035815260200180612c226035913960400191505060405180910390fd5b436009819055506110e96008544361232290919063ffffffff16565b6006819055507fde88a922e0d3b88b24e9623efeb464919c6bf9f66857a65e2bfcf2ce87a9433d836040518082815260200191505060405180910390a1505050565b6002805414156111a3576040517f08c379a000000000000000000000000000000000000000000000000000000000815260040180806020018281038252601f8152602001807f5265656e7472616e637947756172643a207265656e7472616e742063616c6c0081525060200191505060405180910390fd5b60028081905550336111b3611eeb565b600a819055506111c1611875565b600981905550600073ffffffffffffffffffffffffffffffffffffffff168173ffffffffffffffffffffffffffffffffffffffff161461128e5761120481610751565b600c60008373ffffffffffffffffffffffffffffffffffffffff1673ffffffffffffffffffffffffffffffffffffffff16815260200190815260200160002081905550600a54600b60008373ffffffffffffffffffffffffffffffffffffffff1673ffffffffffffffffffffffffffffffffffffffff168152602001908152602001600020819055505b6000600c60003373ffffffffffffffffffffffffffffffffffffffff1673ffffffffffffffffffffffffffffffffffffffff16815260200190815260200160002054905060008111156113bc576000600c60003373ffffffffffffffffffffffffffffffffffffffff1673ffffffffffffffffffffffffffffffffffffffff1681526020019081526020016000208190555061136d3382600460009054906101000a900473ffffffffffffffffffffffffffffffffffffffff1673ffffffffffffffffffffffffffffffffffffffff166123b29092919063ffffffff16565b3373ffffffffffffffffffffffffffffffffffffffff167fe2403640ba68fed3a2f88b7557551d1993f84b99bb10ff833f0cf8db0c5e0486826040518082815260200191505060405180910390a25b50506001600281905550565b6113d06123aa565b73ffffffffffffffffffffffffffffffffffffffff16600160009054906101000a900473ffffffffffffffffffffffffffffffffffffffff1673ffffffffffffffffffffffffffffffffffffffff161480611464575061142e6123aa565b73ffffffffffffffffffffffffffffffffffffffff1661144c61199b565b73ffffffffffffffffffffffffffffffffffffffff16145b6114b9576040517f08c379a0000000000000000000000000000000000000000000000000000000008152600401808060200182810382526045815260200180612c576045913960600191505060405180910390fd5b6114c1612454565b565b600360009054906101000a900473ffffffffffffffffffffffffffffffffffffffff1681565b60008060149054906101000a900460ff16905090565b6115076123aa565b73ffffffffffffffffffffffffffffffffffffffff1660008054906101000a900473ffffffffffffffffffffffffffffffffffffffff1673ffffffffffffffffffffffffffffffffffffffff16146115c7576040517f08c379a00000000000000000000000000000000000000000000000000000000081526004018080602001828103825260208152602001807f4f776e61626c653a2063616c6c6572206973206e6f7420746865206f776e657281525060200191505060405180910390fd5b80600360006101000a81548173ffffffffffffffffffffffffffffffffffffffff021916908373ffffffffffffffffffffffffffffffffffffffff1602179055507f995929e3bdfa9f1b0b527c02b5b513a7c476ed92f554c52bf7b25e51cfee029f600360009054906101000a900473ffffffffffffffffffffffffffffffffffffffff16604051808273ffffffffffffffffffffffffffffffffffffffff16815260200191505060405180910390a150565b6000600e60008373ffffffffffffffffffffffffffffffffffffffff1673ffffffffffffffffffffffffffffffffffffffff168152602001908152602001600020549050919050565b6116cb6123aa565b73ffffffffffffffffffffffffffffffffffffffff1660008054906101000a900473ffffffffffffffffffffffffffffffffffffffff1673ffffffffffffffffffffffffffffffffffffffff161461178b576040517f08c379a00000000000000000000000000000000000000000000000000000000081526004018080602001828103825260208152602001807f4f776e61626c653a2063616c6c6572206973206e6f7420746865206f776e657281525060200191505060405180910390fd5b600073ffffffffffffffffffffffffffffffffffffffff1660008054906101000a900473ffffffffffffffffffffffffffffffffffffffff1673ffffffffffffffffffffffffffffffffffffffff167f8be0079c531659141344cd1fd0a4f28419497f9722a3daafe3b4186f6b6457e060405160405180910390a360008060006101000a81548173ffffffffffffffffffffffffffffffffffffffff021916908373ffffffffffffffffffffffffffffffffffffffff160217905550565b600560009054906101000a900473ffffffffffffffffffffffffffffffffffffffff1681565b60075481565b600061188343600654612546565b905090565b6118906123aa565b73ffffffffffffffffffffffffffffffffffffffff16600160009054906101000a900473ffffffffffffffffffffffffffffffffffffffff1673ffffffffffffffffffffffffffffffffffffffff16148061192457506118ee6123aa565b73ffffffffffffffffffffffffffffffffffffffff1661190c61199b565b73ffffffffffffffffffffffffffffffffffffffff16145b611979576040517f08c379a0000000000000000000000000000000000000000000000000000000008152600401808060200182810382526041815260200180612be16041913960600191505060405180910390fd5b61198161255f565b565b600b6020528060005260406000206000915090505481565b60008060009054906101000a900473ffffffffffffffffffffffffffffffffffffffff16905090565b600160009054906101000a900473ffffffffffffffffffffffffffffffffffffffff1681565b60095481565b600280541415611a68576040517f08c379a000000000000000000000000000000000000000000000000000000000815260040180806020018281038252601f8152602001807f5265656e7472616e637947756172643a207265656e7472616e742063616c6c0081525060200191505060405180910390fd5b6002808190555033611a78611eeb565b600a81905550611a86611875565b600981905550600073ffffffffffffffffffffffffffffffffffffffff168173ffffffffffffffffffffffffffffffffffffffff1614611b5357611ac981610751565b600c60008373ffffffffffffffffffffffffffffffffffffffff1673ffffffffffffffffffffffffffffffffffffffff16815260200190815260200160002081905550600a54600b60008373ffffffffffffffffffffffffffffffffffffffff1673ffffffffffffffffffffffffffffffffffffffff168152602001908152602001600020819055505b60008211611bc9576040517f08c379a000000000000000000000000000000000000000000000000000000000815260040180806020018281038252601e8152602001807f5374616b696e673a3a7374616b653a2063616e6e6f74207374616b652030000081525060200191505060405180910390fd5b611bde82600d5461232290919063ffffffff16565b600d81905550611c3682600e60003373ffffffffffffffffffffffffffffffffffffffff1673ffffffffffffffffffffffffffffffffffffffff1681526020019081526020016000205461232290919063ffffffff16565b600e60003373ffffffffffffffffffffffffffffffffffffffff1673ffffffffffffffffffffffffffffffffffffffff16815260200190815260200160002081905550611cc8333084600560009054906101000a900473ffffffffffffffffffffffffffffffffffffffff1673ffffffffffffffffffffffffffffffffffffffff16612653909392919063ffffffff16565b3373ffffffffffffffffffffffffffffffffffffffff167f9e71bc8eea02a63969f509818f2dafb9254532904319f9dbda79b67bd34a5f3d836040518082815260200191505060405180910390a250600160028190555050565b611d2a6123aa565b73ffffffffffffffffffffffffffffffffffffffff1660008054906101000a900473ffffffffffffffffffffffffffffffffffffffff1673ffffffffffffffffffffffffffffffffffffffff1614611dea576040517f08c379a00000000000000000000000000000000000000000000000000000000081526004018080602001828103825260208152602001807f4f776e61626c653a2063616c6c6572206973206e6f7420746865206f776e657281525060200191505060405180910390fd5b600654431015611e45576040517f08c379a0000000000000000000000000000000000000000000000000000000008152600401808060200182810382526029815260200180612d5a6029913960400191505060405180910390fd5b611e928282600460009054906101000a900473ffffffffffffffffffffffffffffffffffffffff1673ffffffffffffffffffffffffffffffffffffffff166123b29092919063ffffffff16565b7fa16d653d791fc52dfde643134b80c696f2e4e26959f6a7628945bf25752425bb8282604051808373ffffffffffffffffffffffffffffffffffffffff1681526020018281526020019250505060405180910390a15050565b600080600d541415611f0157600a549050611f76565b611f73611f62600d54611f54670de0b6b3a7640000611f46600754611f38600954611f2a611875565b61220890919063ffffffff16565b61225290919063ffffffff16565b61225290919063ffffffff16565b6122d890919063ffffffff16565b600a5461232290919063ffffffff16565b90505b90565b600460009054906101000a900473ffffffffffffffffffffffffffffffffffffffff1681565b600a5481565b611fed600e60003373ffffffffffffffffffffffffffffffffffffffff1673ffffffffffffffffffffffffffffffffffffffff16815260200190815260200160002054610a2a565b611ff561112b565b565b60065481565b6120056123aa565b73ffffffffffffffffffffffffffffffffffffffff1660008054906101000a900473ffffffffffffffffffffffffffffffffffffffff1673ffffffffffffffffffffffffffffffffffffffff16146120c5576040517f08c379a00000000000000000000000000000000000000000000000000000000081526004018080602001828103825260208152602001807f4f776e61626c653a2063616c6c6572206973206e6f7420746865206f776e657281525060200191505060405180910390fd5b600073ffffffffffffffffffffffffffffffffffffffff168173ffffffffffffffffffffffffffffffffffffffff16141561214b576040517f08c379a0000000000000000000000000000000000000000000000000000000008152600401808060200182810382526026815260200180612bbb6026913960400191505060405180910390fd5b8073ffffffffffffffffffffffffffffffffffffffff1660008054906101000a900473ffffffffffffffffffffffffffffffffffffffff1673ffffffffffffffffffffffffffffffffffffffff167f8be0079c531659141344cd1fd0a4f28419497f9722a3daafe3b4186f6b6457e060405160405180910390a3806000806101000a81548173ffffffffffffffffffffffffffffffffffffffff021916908373ffffffffffffffffffffffffffffffffffffffff16021790555050565b600061224a83836040518060400160405280601e81526020017f536166654d6174683a207375627472616374696f6e206f766572666c6f770000815250612714565b905092915050565b60008083141561226557600090506122d2565b600082840290508284828161227657fe5b04146122cd576040517f08c379a0000000000000000000000000000000000000000000000000000000008152600401808060200182810382526021815260200180612cc06021913960400191505060405180910390fd5b809150505b92915050565b600061231a83836040518060400160405280601a81526020017f536166654d6174683a206469766973696f6e206279207a65726f0000000000008152506127d4565b905092915050565b6000808284019050838110156123a0576040517f08c379a000000000000000000000000000000000000000000000000000000000815260040180806020018281038252601b8152602001807f536166654d6174683a206164646974696f6e206f766572666c6f77000000000081525060200191505060405180910390fd5b8091505092915050565b600033905090565b61244f8363a9059cbb60e01b8484604051602401808373ffffffffffffffffffffffffffffffffffffffff16815260200182815260200192505050604051602081830303815290604052907bffffffffffffffffffffffffffffffffffffffffffffffffffffffff19166020820180517bffffffffffffffffffffffffffffffffffffffffffffffffffffffff838183161783525050505061289a565b505050565b600060149054906101000a900460ff166124d6576040517f08c379a00000000000000000000000000000000000000000000000000000000081526004018080602001828103825260148152602001807f5061757361626c653a206e6f742070617573656400000000000000000000000081525060200191505060405180910390fd5b60008060146101000a81548160ff0219169083151502179055507f5db9ee0a495bf2e6ff9c91a7834c1ba4fdd244a5e8aa4e537bd38aeae4b073aa6125196123aa565b604051808273ffffffffffffffffffffffffffffffffffffffff16815260200191505060405180910390a1565b60008183106125555781612557565b825b905092915050565b600060149054906101000a900460ff16156125e2576040517f08c379a00000000000000000000000000000000000000000000000000000000081526004018080602001828103825260108152602001807f5061757361626c653a207061757365640000000000000000000000000000000081525060200191505060405180910390fd5b6001600060146101000a81548160ff0219169083151502179055507f62e78cea01bee320cd4e420270b5ea74000d11b0c9f74754ebdbfc544b05a2586126266123aa565b604051808273ffffffffffffffffffffffffffffffffffffffff16815260200191505060405180910390a1565b61270e846323b872dd60e01b858585604051602401808473ffffffffffffffffffffffffffffffffffffffff1681526020018373ffffffffffffffffffffffffffffffffffffffff1681526020018281526020019350505050604051602081830303815290604052907bffffffffffffffffffffffffffffffffffffffffffffffffffffffff19166020820180517bffffffffffffffffffffffffffffffffffffffffffffffffffffffff838183161783525050505061289a565b50505050565b60008383111582906127c1576040517f08c379a00000000000000000000000000000000000000000000000000000000081526004018080602001828103825283818151815260200191508051906020019080838360005b8381101561278657808201518184015260208101905061276b565b50505050905090810190601f1680156127b35780820380516001836020036101000a031916815260200191505b509250505060405180910390fd5b5060008385039050809150509392505050565b60008083118290612880576040517f08c379a00000000000000000000000000000000000000000000000000000000081526004018080602001828103825283818151815260200191508051906020019080838360005b8381101561284557808201518184015260208101905061282a565b50505050905090810190601f1680156128725780820380516001836020036101000a031916815260200191505b509250505060405180910390fd5b50600083858161288c57fe5b049050809150509392505050565b60606128fc826040518060400160405280602081526020017f5361666545524332303a206c6f772d6c6576656c2063616c6c206661696c65648152508573ffffffffffffffffffffffffffffffffffffffff166129899092919063ffffffff16565b90506000815111156129845780806020019051602081101561291d57600080fd5b8101908080519060200190929190505050612983576040517f08c379a000000000000000000000000000000000000000000000000000000000815260040180806020018281038252602a815260200180612d30602a913960400191505060405180910390fd5b5b505050565b606061299884846000856129a1565b90509392505050565b60606129ac85612ba7565b612a1e576040517f08c379a000000000000000000000000000000000000000000000000000000000815260040180806020018281038252601d8152602001807f416464726573733a2063616c6c20746f206e6f6e2d636f6e747261637400000081525060200191505060405180910390fd5b600060608673ffffffffffffffffffffffffffffffffffffffff1685876040518082805190602001908083835b60208310612a6e5780518252602082019150602081019050602083039250612a4b565b6001836020036101000a03801982511681845116808217855250505050505090500191505060006040518083038185875af1925050503d8060008114612ad0576040519150601f19603f3d011682016040523d82523d6000602084013e612ad5565b606091505b50915091508115612aea578092505050612b9f565b600081511115612afd5780518082602001fd5b836040517f08c379a00000000000000000000000000000000000000000000000000000000081526004018080602001828103825283818151815260200191508051906020019080838360005b83811015612b64578082015181840152602081019050612b49565b50505050905090810190601f168015612b915780820380516001836020036101000a031916815260200191505b509250505060405180910390fd5b949350505050565b600080823b90506000811191505091905056fe4f776e61626c653a206e6577206f776e657220697320746865207a65726f20616464726573734f776e61626c655061757361626c653a3a70617573653a206f6e6c792070617573657220616e64206f776e6572206d75737420706175736520636f6e74726163745374616b696e673a3a6e6f74696679526577617264416d6f756e743a2070726f76696465642072657761726420746f6f20686967684f776e61626c655061757361626c653a3a756e70617573653a206f6e6c792070617573657220616e64206f776e6572206d75737420756e706175736520636f6e74726163745374616b696e673a3a77697468647261773a2043616e6e6f742077697468647261772030536166654d6174683a206d756c7469706c69636174696f6e206f766572666c6f775374616b696e673a3a6e6f74696679526577617264416d6f756e743a2063616c6c6572206973206e6f742052657761726473446973747269627574696f6e206f72204f776e657220616464726573735361666545524332303a204552433230206f7065726174696f6e20646964206e6f7420737563636565645374616b696e673a3a7472616e736665723a20646973747269627574696f6e206e6f7420656e646564a264697066735822122074c9ae5177ca7ec08c8a05f94e887af8f22bc587de916f13233bd5698096100164736f6c634300060c0033",
  "devdoc": {
    "kind": "dev",
    "methods": {
      "balanceOf(address)": {
        "params": {
          "account": "Target account."
        },
        "returns": {
          "_0": "Staking token amount."
        }
      },
      "changePauser(address)": {
        "params": {
          "newPauser": "Address of new pauser account."
        }
      },
      "changeRewardsDistribution(address)": {
        "params": {
          "_rewardDistribution": "New rewards distribution address."
        }
      },
      "constructor": {
        "params": {
          "_rewardsDistribution": "Rewards distribution address.",
          "_rewardsDuration": "Duration of distribution.",
          "_rewardsToken": "Address of reward token.",
          "_stakingToken": "Address of staking token."
        }
      },
      "earned(address)": {
        "params": {
          "account": "Target account."
        },
        "returns": {
          "_0": "Earned rewards."
        }
      },
      "getRewardForDuration()": {
        "returns": {
          "_0": "Rewards amount for duration."
        }
      },
      "lastTimeRewardApplicable()": {
        "returns": {
          "_0": "Block number of last reward."
        }
      },
      "notifyRewardAmount(uint256)": {
        "params": {
          "reward": "Distributed rewards amount."
        }
      },
      "owner()": {
        "details": "Returns the address of the current owner."
      },
      "paused()": {
        "details": "Returns true if the contract is paused, and false otherwise."
      },
      "renounceOwnership()": {
        "details": "Leaves the contract without owner. It will not be possible to call `onlyOwner` functions anymore. Can only be called by the current owner. NOTE: Renouncing ownership will leave the contract without an owner, thereby removing any functionality that is only available to the owner."
      },
      "rewardPerToken()": {
        "returns": {
          "_0": "Reward per token."
        }
      },
      "stake(uint256)": {
        "params": {
          "amount": "Amount staking token."
        }
      },
      "totalSupply()": {
        "returns": {
          "_0": "Total staking token amount."
        }
      },
      "transfer(address,uint256)": {
        "params": {
          "amount": "Amount transfered rewards token.",
          "recipient": "Recipient."
        }
      },
      "transferOwnership(address)": {
        "details": "Transfers ownership of the contract to a new account (`newOwner`). Can only be called by the current owner."
      },
      "withdraw(uint256)": {
        "params": {
          "amount": "Amount withdraw token."
        }
      }
    },
    "stateVariables": {
      "_balances": {
        "details": "Staking balances."
      },
      "_totalSupply": {
        "details": "Total staking token amount."
      }
    },
    "version": 1
  },
  "userdoc": {
    "events": {
      "PauserChanged(address)": {
        "notice": "An event thats emitted when an pauser address changed."
      },
      "RewardAdded(uint256)": {
        "notice": "An event thats emitted when an reward token addet to contract."
      },
      "RewardPaid(address,uint256)": {
        "notice": "An event thats emitted when an reward token withdrawal from contract."
      },
      "RewardsDistributionChanged(address)": {
        "notice": "An event thats emitted when an rewards distribution address changed."
      },
      "RewardsTransfered(address,uint256)": {
        "notice": "An event thats emitted when an rewards tokens transfered to recipient."
      },
      "Staked(address,uint256)": {
        "notice": "An event thats emitted when an staking token added to contract."
      },
      "Withdrawn(address,uint256)": {
        "notice": "An event thats emitted when an staking token withdrawal from contract."
      }
    },
    "kind": "user",
    "methods": {
      "changePauser(address)": {
        "notice": "Change pauser account."
      },
      "changeRewardsDistribution(address)": {
        "notice": "Change rewards distribution address."
      },
      "exit()": {
        "notice": "Withdraw reward and staking token."
      },
      "getReward()": {
        "notice": "Withdraw reward token."
      },
      "lastUpdateBlock()": {
        "notice": "Block number of last update."
      },
      "notifyRewardAmount(uint256)": {
        "notice": "Start distribution."
      },
      "pause()": {
        "notice": "Triggers stopped state."
      },
      "pauser()": {
        "notice": "Address that can pause a contract."
      },
      "periodFinish()": {
        "notice": "Block number of rewards distibution period finish."
      },
      "rewardPerTokenStored()": {
        "notice": "Static reward distribution amount per block."
      },
      "rewardRate()": {
        "notice": "Reward distribution amount per block."
      },
      "rewards(address)": {
        "notice": "Earned rewards."
      },
      "rewardsDistribution()": {
        "notice": "Address of rewards distributor."
      },
      "rewardsDuration()": {
        "notice": "Blocks count in current distribution period."
      },
      "rewardsToken()": {
        "notice": "Rewards token address."
      },
      "stake(uint256)": {
        "notice": "Stake token."
      },
      "stakingToken()": {
        "notice": "Staking token address."
      },
      "transfer(address,uint256)": {
        "notice": "Transfer rewards token to recipient if distribution not start."
      },
      "unpause()": {
        "notice": "Returns to normal state."
      },
      "userRewardPerTokenPaid(address)": {
        "notice": "Rewards paid."
      },
      "withdraw(uint256)": {
        "notice": "Withdraw staking token."
      }
    },
    "version": 1
  },
  "storageLayout": {
    "storage": [
      {
        "astId": 30,
        "contract": "contracts/Staking.sol:Staking",
        "label": "_owner",
        "offset": 0,
        "slot": "0",
        "type": "t_address"
      },
      {
        "astId": 1806,
        "contract": "contracts/Staking.sol:Staking",
        "label": "_paused",
        "offset": 20,
        "slot": "0",
        "type": "t_bool"
      },
      {
        "astId": 12392,
        "contract": "contracts/Staking.sol:Staking",
        "label": "pauser",
        "offset": 0,
        "slot": "1",
        "type": "t_address"
      },
      {
        "astId": 1889,
        "contract": "contracts/Staking.sol:Staking",
        "label": "_status",
        "offset": 0,
        "slot": "2",
        "type": "t_uint256"
      },
      {
        "astId": 7046,
        "contract": "contracts/Staking.sol:Staking",
        "label": "rewardsDistribution",
        "offset": 0,
        "slot": "3",
        "type": "t_address"
      },
      {
        "astId": 7049,
        "contract": "contracts/Staking.sol:Staking",
        "label": "rewardsToken",
        "offset": 0,
        "slot": "4",
        "type": "t_contract(IERC20)985"
      },
      {
        "astId": 7052,
        "contract": "contracts/Staking.sol:Staking",
        "label": "stakingToken",
        "offset": 0,
        "slot": "5",
        "type": "t_contract(IERC20)985"
      },
      {
        "astId": 7055,
        "contract": "contracts/Staking.sol:Staking",
        "label": "periodFinish",
        "offset": 0,
        "slot": "6",
        "type": "t_uint256"
      },
      {
        "astId": 7058,
        "contract": "contracts/Staking.sol:Staking",
        "label": "rewardRate",
        "offset": 0,
        "slot": "7",
        "type": "t_uint256"
      },
      {
        "astId": 7061,
        "contract": "contracts/Staking.sol:Staking",
        "label": "rewardsDuration",
        "offset": 0,
        "slot": "8",
        "type": "t_uint256"
      },
      {
        "astId": 7064,
        "contract": "contracts/Staking.sol:Staking",
        "label": "lastUpdateBlock",
        "offset": 0,
        "slot": "9",
        "type": "t_uint256"
      },
      {
        "astId": 7067,
        "contract": "contracts/Staking.sol:Staking",
        "label": "rewardPerTokenStored",
        "offset": 0,
        "slot": "10",
        "type": "t_uint256"
      },
      {
        "astId": 7072,
        "contract": "contracts/Staking.sol:Staking",
        "label": "userRewardPerTokenPaid",
        "offset": 0,
        "slot": "11",
        "type": "t_mapping(t_address,t_uint256)"
      },
      {
        "astId": 7077,
        "contract": "contracts/Staking.sol:Staking",
        "label": "rewards",
        "offset": 0,
        "slot": "12",
        "type": "t_mapping(t_address,t_uint256)"
      },
      {
        "astId": 7080,
        "contract": "contracts/Staking.sol:Staking",
        "label": "_totalSupply",
        "offset": 0,
        "slot": "13",
        "type": "t_uint256"
      },
      {
        "astId": 7085,
        "contract": "contracts/Staking.sol:Staking",
        "label": "_balances",
        "offset": 0,
        "slot": "14",
        "type": "t_mapping(t_address,t_uint256)"
      }
    ],
    "types": {
      "t_address": {
        "encoding": "inplace",
        "label": "address",
        "numberOfBytes": "20"
      },
      "t_bool": {
        "encoding": "inplace",
        "label": "bool",
        "numberOfBytes": "1"
      },
      "t_contract(IERC20)985": {
        "encoding": "inplace",
        "label": "contract IERC20",
        "numberOfBytes": "20"
      },
      "t_mapping(t_address,t_uint256)": {
        "encoding": "mapping",
        "key": "t_address",
        "label": "mapping(address => uint256)",
        "numberOfBytes": "32",
        "value": "t_uint256"
      },
      "t_uint256": {
        "encoding": "inplace",
        "label": "uint256",
        "numberOfBytes": "32"
      }
    }
  }
}