{
  "address": "0x21d0D9fdFd59214867A5c2001Ca5339a634DaEA6",
  "abi": [
    {
      "inputs": [
        {
          "internalType": "address",
          "name": "_token",
          "type": "address"
        }
      ],
      "stateMutability": "nonpayable",
      "type": "constructor"
    },
    {
      "anonymous": false,
      "inputs": [
        {
          "indexed": false,
          "internalType": "address",
          "name": "delegatee",
          "type": "address"
        }
      ],
      "name": "DelegateVotes",
      "type": "event"
    },
    {
      "anonymous": false,
      "inputs": [
        {
          "indexed": false,
          "internalType": "uint256",
          "name": "periodId",
          "type": "uint256"
        }
      ],
      "name": "Locked",
      "type": "event"
    },
    {
      "anonymous": false,
      "inputs": [
        {
          "indexed": true,
          "internalType": "address",
          "name": "previousOwner",
          "type": "address"
        },
        {
          "indexed": true,
          "internalType": "address",
          "name": "newOwner",
          "type": "address"
        }
      ],
      "name": "OwnershipTransferred",
      "type": "event"
    },
    {
      "anonymous": false,
      "inputs": [
        {
          "indexed": false,
          "internalType": "address",
          "name": "account",
          "type": "address"
        }
      ],
      "name": "Paused",
      "type": "event"
    },
    {
      "anonymous": false,
      "inputs": [
        {
          "indexed": false,
          "internalType": "address",
          "name": "newPauser",
          "type": "address"
        }
      ],
      "name": "PauserChanged",
      "type": "event"
    },
    {
      "anonymous": false,
      "inputs": [
        {
          "indexed": false,
          "internalType": "uint256",
          "name": "periodId",
          "type": "uint256"
        }
      ],
      "name": "Revoked",
      "type": "event"
    },
    {
      "anonymous": false,
      "inputs": [
        {
          "indexed": false,
          "internalType": "address",
          "name": "account",
          "type": "address"
        }
      ],
      "name": "Unpaused",
      "type": "event"
    },
    {
      "anonymous": false,
      "inputs": [
        {
          "indexed": false,
          "internalType": "address",
          "name": "recipient",
          "type": "address"
        },
        {
          "indexed": false,
          "internalType": "uint256",
          "name": "periodId",
          "type": "uint256"
        }
      ],
      "name": "Withdrawal",
      "type": "event"
    },
    {
      "inputs": [
        {
          "internalType": "address",
          "name": "newPauser",
          "type": "address"
        }
      ],
      "name": "changePauser",
      "outputs": [],
      "stateMutability": "nonpayable",
      "type": "function"
    },
    {
      "inputs": [
        {
          "internalType": "address",
          "name": "governanceToken",
          "type": "address"
        },
        {
          "internalType": "address",
          "name": "delegatee",
          "type": "address"
        }
      ],
      "name": "delegate",
      "outputs": [],
      "stateMutability": "nonpayable",
      "type": "function"
    },
    {
      "inputs": [],
      "name": "getParticipants",
      "outputs": [
        {
          "internalType": "address[]",
          "name": "",
          "type": "address[]"
        }
      ],
      "stateMutability": "view",
      "type": "function"
    },
    {
      "inputs": [
        {
          "internalType": "address",
          "name": "recipient",
          "type": "address"
        }
      ],
      "name": "info",
      "outputs": [
        {
          "components": [
            {
              "internalType": "uint256",
              "name": "id",
              "type": "uint256"
            },
            {
              "internalType": "uint256",
              "name": "amount",
              "type": "uint256"
            },
            {
              "internalType": "uint256",
              "name": "date",
              "type": "uint256"
            },
            {
              "internalType": "string",
              "name": "description",
              "type": "string"
            },
            {
              "internalType": "bool",
              "name": "withdrawal",
              "type": "bool"
            }
          ],
          "internalType": "struct Vesting.Period[]",
          "name": "",
          "type": "tuple[]"
        }
      ],
      "stateMutability": "view",
      "type": "function"
    },
    {
      "inputs": [
        {
          "internalType": "address",
          "name": "recipient",
          "type": "address"
        },
        {
          "internalType": "uint256",
          "name": "amount",
          "type": "uint256"
        },
        {
          "internalType": "string",
          "name": "description",
          "type": "string"
        },
        {
          "internalType": "uint256",
          "name": "date",
          "type": "uint256"
        }
      ],
      "name": "lock",
      "outputs": [
        {
          "internalType": "uint256",
          "name": "",
          "type": "uint256"
        }
      ],
      "stateMutability": "nonpayable",
      "type": "function"
    },
    {
      "inputs": [],
      "name": "maxPeriodsPerRecipient",
      "outputs": [
        {
          "internalType": "uint256",
          "name": "",
          "type": "uint256"
        }
      ],
      "stateMutability": "pure",
      "type": "function"
    },
    {
      "inputs": [],
      "name": "owner",
      "outputs": [
        {
          "internalType": "address",
          "name": "",
          "type": "address"
        }
      ],
      "stateMutability": "view",
      "type": "function"
    },
    {
      "inputs": [],
      "name": "pause",
      "outputs": [],
      "stateMutability": "nonpayable",
      "type": "function"
    },
    {
      "inputs": [],
      "name": "paused",
      "outputs": [
        {
          "internalType": "bool",
          "name": "",
          "type": "bool"
        }
      ],
      "stateMutability": "view",
      "type": "function"
    },
    {
      "inputs": [],
      "name": "pauser",
      "outputs": [
        {
          "internalType": "address",
          "name": "",
          "type": "address"
        }
      ],
      "stateMutability": "view",
      "type": "function"
    },
    {
      "inputs": [],
      "name": "renounceOwnership",
      "outputs": [],
      "stateMutability": "nonpayable",
      "type": "function"
    },
    {
      "inputs": [
        {
          "internalType": "address",
          "name": "recipient",
          "type": "address"
        },
        {
          "internalType": "uint256",
          "name": "periodId",
          "type": "uint256"
        }
      ],
      "name": "revoke",
      "outputs": [],
      "stateMutability": "nonpayable",
      "type": "function"
    },
    {
      "inputs": [],
      "name": "token",
      "outputs": [
        {
          "internalType": "contract ERC20",
          "name": "",
          "type": "address"
        }
      ],
      "stateMutability": "view",
      "type": "function"
    },
    {
      "inputs": [
        {
          "internalType": "address",
          "name": "newOwner",
          "type": "address"
        }
      ],
      "name": "transferOwnership",
      "outputs": [],
      "stateMutability": "nonpayable",
      "type": "function"
    },
    {
      "inputs": [],
      "name": "unpause",
      "outputs": [],
      "stateMutability": "nonpayable",
      "type": "function"
    },
    {
      "inputs": [
        {
          "internalType": "uint256",
          "name": "periodId",
          "type": "uint256"
        }
      ],
      "name": "withdraw",
      "outputs": [],
      "stateMutability": "nonpayable",
      "type": "function"
    }
  ],
  "transactionHash": "0x558122af4dc3ac670dd486df711ff3aaf8fa9ddb1ea4eb3d51b2b324ec7db93c",
  "args": [
    "0xF27BF2a24355f9a909a85b271119af9eAc7b2eD8"
  ],
  "solcInputHash": "5fc11f646e99cd61bb29693af498dd05",
  "bytecode": "0x608060405260006003553480156200001657600080fd5b5060405162002dc538038062002dc583398181016040528101906200003c9190620001e6565b60006200004e6200019e60201b60201c565b9050806000806101000a81548173ffffffffffffffffffffffffffffffffffffffff021916908373ffffffffffffffffffffffffffffffffffffffff1602179055508073ffffffffffffffffffffffffffffffffffffffff16600073ffffffffffffffffffffffffffffffffffffffff167f8be0079c531659141344cd1fd0a4f28419497f9722a3daafe3b4186f6b6457e060405160405180910390a35060008060146101000a81548160ff02191690831515021790555062000116620001a660201b60201c565b600160006101000a81548173ffffffffffffffffffffffffffffffffffffffff021916908373ffffffffffffffffffffffffffffffffffffffff16021790555080600260006101000a81548173ffffffffffffffffffffffffffffffffffffffff021916908373ffffffffffffffffffffffffffffffffffffffff1602179055505062000260565b600033905090565b60008060009054906101000a900473ffffffffffffffffffffffffffffffffffffffff16905090565b600081519050620001e08162000246565b92915050565b600060208284031215620001f957600080fd5b60006200020984828501620001cf565b91505092915050565b60006200021f8262000226565b9050919050565b600073ffffffffffffffffffffffffffffffffffffffff82169050919050565b620002518162000212565b81146200025d57600080fd5b50565b612b5580620002706000396000f3fe608060405234801561001057600080fd5b50600436106101005760003560e01c80638456cb5911610097578063eac449d911610066578063eac449d91461023d578063f2fde38b14610259578063fb1b99e314610275578063fc0c546a146102a557610100565b80638456cb59146101db5780638ab65686146101e55780638da5cb5b146102015780639fd0506d1461021f57610100565b806351c2c1cc116100d357806351c2c1cc146101775780635aa68ac0146101955780635c975abb146101b3578063715018a6146101d157610100565b80630aae7a6b146101055780632cd271e7146101355780632e1a7d4d146101515780633f4ba83a1461016d575b600080fd5b61011f600480360381019061011a9190611cb9565b6102c3565b60405161012c9190612682565b60405180910390f35b61014f600480360381019061014a9190611cb9565b610567565b005b61016b60048036038101906101669190611dfe565b610699565b005b6101756108d4565b005b61017f6109b9565b60405161018c91906128bc565b60405180910390f35b61019d6109c2565b6040516101aa9190612660565b60405180910390f35b6101bb610a9a565b6040516101c891906126a4565b60405180910390f35b6101d9610ab0565b005b6101e3610c03565b005b6101ff60048036038101906101fa9190611ce2565b610ce8565b005b610209610e23565b60405161021691906125ca565b60405180910390f35b610227610e4c565b60405161023491906125ca565b60405180910390f35b61025760048036038101906102529190611d1e565b610e72565b005b610273600480360381019061026e9190611cb9565b611057565b005b61028f600480360381019061028a9190611d5a565b611219565b60405161029c91906128bc565b60405180910390f35b6102ad611542565b6040516102ba91906126bf565b60405180910390f35b606080600760008473ffffffffffffffffffffffffffffffffffffffff1673ffffffffffffffffffffffffffffffffffffffff1681526020019081526020016000208054905067ffffffffffffffff8111801561031f57600080fd5b5060405190808252806020026020018201604052801561035957816020015b610346611b58565b81526020019060019003908161033e5790505b50905060005b600760008573ffffffffffffffffffffffffffffffffffffffff1673ffffffffffffffffffffffffffffffffffffffff1681526020019081526020016000208054905081101561055d576000600760008673ffffffffffffffffffffffffffffffffffffffff1673ffffffffffffffffffffffffffffffffffffffff16815260200190815260200160002082815481106103f557fe5b90600052602060002001549050600660008673ffffffffffffffffffffffffffffffffffffffff1673ffffffffffffffffffffffffffffffffffffffff16815260200190815260200160002060008281526020019081526020016000206040518060a0016040529081600082015481526020016001820154815260200160028201548152602001600382018054600181600116156101000203166002900480601f0160208091040260200160405190810160405280929190818152602001828054600181600116156101000203166002900480156105145780601f106104e957610100808354040283529160200191610514565b820191906000526020600020905b8154815290600101906020018083116104f757829003601f168201915b505050505081526020016004820160009054906101000a900460ff16151515158152505083838151811061054457fe5b602002602001018190525050808060010191505061035f565b5080915050919050565b61056f611568565b73ffffffffffffffffffffffffffffffffffffffff1660008054906101000a900473ffffffffffffffffffffffffffffffffffffffff1673ffffffffffffffffffffffffffffffffffffffff16146105fc576040517f08c379a00000000000000000000000000000000000000000000000000000000081526004016105f39061281c565b60405180910390fd5b80600160006101000a81548173ffffffffffffffffffffffffffffffffffffffff021916908373ffffffffffffffffffffffffffffffffffffffff1602179055507fb80482a293ca2e013eda8683c9bd7fc8347cfdaeea5ede58cba46df502c2a604600160009054906101000a900473ffffffffffffffffffffffffffffffffffffffff1660405161068e91906125ca565b60405180910390a150565b600060149054906101000a900460ff16156106e9576040517f08c379a00000000000000000000000000000000000000000000000000000000081526004016106e0906127bc565b60405180910390fd5b60006106f3611568565b90506000600660008373ffffffffffffffffffffffffffffffffffffffff1673ffffffffffffffffffffffffffffffffffffffff168152602001908152602001600020600084815260200190815260200160002090506000816001015411610790576040517f08c379a0000000000000000000000000000000000000000000000000000000008152600401610787906127dc565b60405180910390fd5b8060040160009054906101000a900460ff16156107e2576040517f08c379a00000000000000000000000000000000000000000000000000000000081526004016107d99061289c565b60405180910390fd5b80600201544211610828576040517f08c379a000000000000000000000000000000000000000000000000000000000815260040161081f906127fc565b60405180910390fd5b60018160040160006101000a81548160ff021916908315150217905550610896828260010154600260009054906101000a900473ffffffffffffffffffffffffffffffffffffffff1673ffffffffffffffffffffffffffffffffffffffff166115709092919063ffffffff16565b7f7fcf532c15f0a6db0bd6d0e038bea71d30d808c7d98cb3bf7268a95bf5081b6582846040516108c7929190612637565b60405180910390a1505050565b6108dc611568565b73ffffffffffffffffffffffffffffffffffffffff16600160009054906101000a900473ffffffffffffffffffffffffffffffffffffffff1673ffffffffffffffffffffffffffffffffffffffff161480610970575061093a611568565b73ffffffffffffffffffffffffffffffffffffffff16610958610e23565b73ffffffffffffffffffffffffffffffffffffffff16145b6109af576040517f08c379a00000000000000000000000000000000000000000000000000000000081526004016109a69061279c565b60405180910390fd5b6109b76115f6565b565b60006005905090565b6060806109cf600461169f565b67ffffffffffffffff811180156109e557600080fd5b50604051908082528060200260200182016040528015610a145781602001602082028036833780820191505090505b50905060005b610a24600461169f565b811015610a9257610a3f8160046116b490919063ffffffff16565b828281518110610a4b57fe5b602002602001019073ffffffffffffffffffffffffffffffffffffffff16908173ffffffffffffffffffffffffffffffffffffffff16815250508080600101915050610a1a565b508091505090565b60008060149054906101000a900460ff16905090565b610ab8611568565b73ffffffffffffffffffffffffffffffffffffffff1660008054906101000a900473ffffffffffffffffffffffffffffffffffffffff1673ffffffffffffffffffffffffffffffffffffffff1614610b45576040517f08c379a0000000000000000000000000000000000000000000000000000000008152600401610b3c9061281c565b60405180910390fd5b600073ffffffffffffffffffffffffffffffffffffffff1660008054906101000a900473ffffffffffffffffffffffffffffffffffffffff1673ffffffffffffffffffffffffffffffffffffffff167f8be0079c531659141344cd1fd0a4f28419497f9722a3daafe3b4186f6b6457e060405160405180910390a360008060006101000a81548173ffffffffffffffffffffffffffffffffffffffff021916908373ffffffffffffffffffffffffffffffffffffffff160217905550565b610c0b611568565b73ffffffffffffffffffffffffffffffffffffffff16600160009054906101000a900473ffffffffffffffffffffffffffffffffffffffff1673ffffffffffffffffffffffffffffffffffffffff161480610c9f5750610c69611568565b73ffffffffffffffffffffffffffffffffffffffff16610c87610e23565b73ffffffffffffffffffffffffffffffffffffffff16145b610cde576040517f08c379a0000000000000000000000000000000000000000000000000000000008152600401610cd59061277c565b60405180910390fd5b610ce66116ce565b565b610cf0611568565b73ffffffffffffffffffffffffffffffffffffffff1660008054906101000a900473ffffffffffffffffffffffffffffffffffffffff1673ffffffffffffffffffffffffffffffffffffffff1614610d7d576040517f08c379a0000000000000000000000000000000000000000000000000000000008152600401610d749061281c565b60405180910390fd5b8173ffffffffffffffffffffffffffffffffffffffff16635c19a95c826040518263ffffffff1660e01b8152600401610db691906125ca565b600060405180830381600087803b158015610dd057600080fd5b505af1158015610de4573d6000803e3d6000fd5b505050507f75f9ee40e44a060e314305e11b9ff00a9c32fe055aff195717d64fe8c9c0999c81604051610e1791906125ca565b60405180910390a15050565b60008060009054906101000a900473ffffffffffffffffffffffffffffffffffffffff16905090565b600160009054906101000a900473ffffffffffffffffffffffffffffffffffffffff1681565b610e7a611568565b73ffffffffffffffffffffffffffffffffffffffff1660008054906101000a900473ffffffffffffffffffffffffffffffffffffffff1673ffffffffffffffffffffffffffffffffffffffff1614610f07576040517f08c379a0000000000000000000000000000000000000000000000000000000008152600401610efe9061281c565b60405180910390fd5b6000600660008473ffffffffffffffffffffffffffffffffffffffff1673ffffffffffffffffffffffffffffffffffffffff168152602001908152602001600020600083815260200190815260200160002090508060040160009054906101000a900460ff1615610fad576040517f08c379a0000000000000000000000000000000000000000000000000000000008152600401610fa49061275c565b60405180910390fd5b6000610fb7611568565b9050600082600101549050600083600101819055506110198282600260009054906101000a900473ffffffffffffffffffffffffffffffffffffffff1673ffffffffffffffffffffffffffffffffffffffff166115709092919063ffffffff16565b7f61e27b0bfd8e18e6b92ec32ce1c28bb698d27bfe93e84c7e94d4db0a3135c7608460405161104891906128bc565b60405180910390a15050505050565b61105f611568565b73ffffffffffffffffffffffffffffffffffffffff1660008054906101000a900473ffffffffffffffffffffffffffffffffffffffff1673ffffffffffffffffffffffffffffffffffffffff16146110ec576040517f08c379a00000000000000000000000000000000000000000000000000000000081526004016110e39061281c565b60405180910390fd5b600073ffffffffffffffffffffffffffffffffffffffff168173ffffffffffffffffffffffffffffffffffffffff16141561115c576040517f08c379a00000000000000000000000000000000000000000000000000000000081526004016111539061273c565b60405180910390fd5b8073ffffffffffffffffffffffffffffffffffffffff1660008054906101000a900473ffffffffffffffffffffffffffffffffffffffff1673ffffffffffffffffffffffffffffffffffffffff167f8be0079c531659141344cd1fd0a4f28419497f9722a3daafe3b4186f6b6457e060405160405180910390a3806000806101000a81548173ffffffffffffffffffffffffffffffffffffffff021916908373ffffffffffffffffffffffffffffffffffffffff16021790555050565b6000611223611568565b73ffffffffffffffffffffffffffffffffffffffff1660008054906101000a900473ffffffffffffffffffffffffffffffffffffffff1673ffffffffffffffffffffffffffffffffffffffff16146112b0576040517f08c379a00000000000000000000000000000000000000000000000000000000081526004016112a79061281c565b60405180910390fd5b6112b86109b9565b600760008773ffffffffffffffffffffffffffffffffffffffff1673ffffffffffffffffffffffffffffffffffffffff16815260200190815260200160002080549050111561133c576040517f08c379a00000000000000000000000000000000000000000000000000000000081526004016113339061287c565b60405180910390fd5b611392611347611568565b3086600260009054906101000a900473ffffffffffffffffffffffffffffffffffffffff1673ffffffffffffffffffffffffffffffffffffffff16611779909392919063ffffffff16565b60016003600082825401925050819055506113b785600461180290919063ffffffff16565b506040518060a00160405280600354815260200185815260200183815260200184815260200160001515815250600660008773ffffffffffffffffffffffffffffffffffffffff1673ffffffffffffffffffffffffffffffffffffffff168152602001908152602001600020600060035481526020019081526020016000206000820151816000015560208201518160010155604082015181600201556060820151816003019080519060200190611470929190611b89565b5060808201518160040160006101000a81548160ff021916908315150217905550905050600760008673ffffffffffffffffffffffffffffffffffffffff1673ffffffffffffffffffffffffffffffffffffffff16815260200190815260200160002060035490806001815401808255809150506001900390600052602060002001600090919091909150557f032bc66be43dbccb7487781d168eb7bda224628a3b2c3388bdf69b532a3a161160035460405161152d91906128bc565b60405180910390a16003549050949350505050565b600260009054906101000a900473ffffffffffffffffffffffffffffffffffffffff1681565b600033905090565b6115f18363a9059cbb60e01b848460405160240161158f929190612637565b604051602081830303815290604052907bffffffffffffffffffffffffffffffffffffffffffffffffffffffff19166020820180517bffffffffffffffffffffffffffffffffffffffffffffffffffffffff8381831617835250505050611832565b505050565b600060149054906101000a900460ff16611645576040517f08c379a000000000000000000000000000000000000000000000000000000000815260040161163c9061271c565b60405180910390fd5b60008060146101000a81548160ff0219169083151502179055507f5db9ee0a495bf2e6ff9c91a7834c1ba4fdd244a5e8aa4e537bd38aeae4b073aa611688611568565b60405161169591906125e5565b60405180910390a1565b60006116ad826000016118f9565b9050919050565b60006116c3836000018361190a565b60001c905092915050565b600060149054906101000a900460ff161561171e576040517f08c379a0000000000000000000000000000000000000000000000000000000008152600401611715906127bc565b60405180910390fd5b6001600060146101000a81548160ff0219169083151502179055507f62e78cea01bee320cd4e420270b5ea74000d11b0c9f74754ebdbfc544b05a258611762611568565b60405161176f91906125e5565b60405180910390a1565b6117fc846323b872dd60e01b85858560405160240161179a93929190612600565b604051602081830303815290604052907bffffffffffffffffffffffffffffffffffffffffffffffffffffffff19166020820180517bffffffffffffffffffffffffffffffffffffffffffffffffffffffff8381831617835250505050611832565b50505050565b600061182a836000018373ffffffffffffffffffffffffffffffffffffffff1660001b611977565b905092915050565b6060611894826040518060400160405280602081526020017f5361666545524332303a206c6f772d6c6576656c2063616c6c206661696c65648152508573ffffffffffffffffffffffffffffffffffffffff166119e79092919063ffffffff16565b90506000815111156118f457808060200190518101906118b49190611dd5565b6118f3576040517f08c379a00000000000000000000000000000000000000000000000000000000081526004016118ea9061285c565b60405180910390fd5b5b505050565b600081600001805490509050919050565b600081836000018054905011611955576040517f08c379a000000000000000000000000000000000000000000000000000000000815260040161194c906126fc565b60405180910390fd5b82600001828154811061196457fe5b9060005260206000200154905092915050565b600061198383836119ff565b6119dc5782600001829080600181540180825580915050600190039060005260206000200160009091909190915055826000018054905083600101600084815260200190815260200160002081905550600190506119e1565b600090505b92915050565b60606119f68484600085611a22565b90509392505050565b600080836001016000848152602001908152602001600020541415905092915050565b6060611a2d85611b45565b611a6c576040517f08c379a0000000000000000000000000000000000000000000000000000000008152600401611a639061283c565b60405180910390fd5b600060608673ffffffffffffffffffffffffffffffffffffffff168587604051611a9691906125b3565b60006040518083038185875af1925050503d8060008114611ad3576040519150601f19603f3d011682016040523d82523d6000602084013e611ad8565b606091505b50915091508115611aed578092505050611b3d565b600081511115611b005780518082602001fd5b836040517f08c379a0000000000000000000000000000000000000000000000000000000008152600401611b3491906126da565b60405180910390fd5b949350505050565b600080823b905060008111915050919050565b6040518060a00160405280600081526020016000815260200160008152602001606081526020016000151581525090565b828054600181600116156101000203166002900490600052602060002090601f016020900481019282601f10611bca57805160ff1916838001178555611bf8565b82800160010185558215611bf8579182015b82811115611bf7578251825591602001919060010190611bdc565b5b509050611c059190611c09565b5090565b5b80821115611c22576000816000905550600101611c0a565b5090565b600081359050611c3581612ada565b92915050565b600081519050611c4a81612af1565b92915050565b600082601f830112611c6157600080fd5b8135611c74611c6f82612904565b6128d7565b91508082526020830160208301858383011115611c9057600080fd5b611c9b838284612a87565b50505092915050565b600081359050611cb381612b08565b92915050565b600060208284031215611ccb57600080fd5b6000611cd984828501611c26565b91505092915050565b60008060408385031215611cf557600080fd5b6000611d0385828601611c26565b9250506020611d1485828601611c26565b9150509250929050565b60008060408385031215611d3157600080fd5b6000611d3f85828601611c26565b9250506020611d5085828601611ca4565b9150509250929050565b60008060008060808587031215611d7057600080fd5b6000611d7e87828801611c26565b9450506020611d8f87828801611ca4565b935050604085013567ffffffffffffffff811115611dac57600080fd5b611db887828801611c50565b9250506060611dc987828801611ca4565b91505092959194509250565b600060208284031215611de757600080fd5b6000611df584828501611c3b565b91505092915050565b600060208284031215611e1057600080fd5b6000611e1e84828501611ca4565b91505092915050565b6000611e338383611e62565b60208301905092915050565b6000611e4b838361251f565b905092915050565b611e5c81612a2d565b82525050565b611e6b816129e5565b82525050565b611e7a816129e5565b82525050565b6000611e8b82612950565b611e958185612996565b9350611ea083612930565b8060005b83811015611ed1578151611eb88882611e27565b9750611ec38361297c565b925050600181019050611ea4565b5085935050505092915050565b6000611ee98261295b565b611ef381856129a7565b935083602082028501611f0585612940565b8060005b85811015611f415784840389528151611f228582611e3f565b9450611f2d83612989565b925060208a01995050600181019050611f09565b50829750879550505050505092915050565b611f5c816129f7565b82525050565b611f6b816129f7565b82525050565b6000611f7c82612966565b611f8681856129b8565b9350611f96818560208601612a96565b80840191505092915050565b611fab81612a3f565b82525050565b6000611fbc82612971565b611fc681856129c3565b9350611fd6818560208601612a96565b611fdf81612ac9565b840191505092915050565b6000611ff582612971565b611fff81856129d4565b935061200f818560208601612a96565b61201881612ac9565b840191505092915050565b60006120306022836129d4565b91507f456e756d657261626c655365743a20696e646578206f7574206f6620626f756e60008301527f64730000000000000000000000000000000000000000000000000000000000006020830152604082019050919050565b60006120966014836129d4565b91507f5061757361626c653a206e6f74207061757365640000000000000000000000006000830152602082019050919050565b60006120d66026836129d4565b91507f4f776e61626c653a206e6577206f776e657220697320746865207a65726f206160008301527f64647265737300000000000000000000000000000000000000000000000000006020830152604082019050919050565b600061213c6021836129d4565b91507f56657374696e673a3a7265766f6b653a20616c7265616479207769746864726160008301527f77000000000000000000000000000000000000000000000000000000000000006020830152604082019050919050565b60006121a26041836129d4565b91507f4f776e61626c655061757361626c653a3a70617573653a206f6e6c792070617560008301527f73657220616e64206f776e6572206d75737420706175736520636f6e7472616360208301527f74000000000000000000000000000000000000000000000000000000000000006040830152606082019050919050565b600061222e6045836129d4565b91507f4f776e61626c655061757361626c653a3a756e70617573653a206f6e6c79207060008301527f617573657220616e64206f776e6572206d75737420756e706175736520636f6e60208301527f74726163740000000000000000000000000000000000000000000000000000006040830152606082019050919050565b60006122ba6010836129d4565b91507f5061757361626c653a20706175736564000000000000000000000000000000006000830152602082019050919050565b60006122fa6022836129d4565b91507f56657374696e673a3a77697468647261773a20706572696f6420697320656d7060008301527f74790000000000000000000000000000000000000000000000000000000000006020830152604082019050919050565b60006123606020836129d4565b91507f56657374696e673a3a77697468647261773a206163636573732064656e6965646000830152602082019050919050565b60006123a06020836129d4565b91507f4f776e61626c653a2063616c6c6572206973206e6f7420746865206f776e65726000830152602082019050919050565b60006123e0601d836129d4565b91507f416464726573733a2063616c6c20746f206e6f6e2d636f6e74726163740000006000830152602082019050919050565b6000612420602a836129d4565b91507f5361666545524332303a204552433230206f7065726174696f6e20646964206e60008301527f6f742073756363656564000000000000000000000000000000000000000000006020830152604082019050919050565b6000612486601f836129d4565b91507f56657374696e673a3a6c6f636b3a20746f6f206d616e7920706572696f6473006000830152602082019050919050565b60006124c66023836129d4565b91507f56657374696e673a3a77697468647261773a20616c726561647920776974686460008301527f72617700000000000000000000000000000000000000000000000000000000006020830152604082019050919050565b600060a0830160008301516125376000860182612595565b50602083015161254a6020860182612595565b50604083015161255d6040860182612595565b50606083015184820360608601526125758282611fb1565b915050608083015161258a6080860182611f53565b508091505092915050565b61259e81612a23565b82525050565b6125ad81612a23565b82525050565b60006125bf8284611f71565b915081905092915050565b60006020820190506125df6000830184611e71565b92915050565b60006020820190506125fa6000830184611e53565b92915050565b60006060820190506126156000830186611e71565b6126226020830185611e71565b61262f60408301846125a4565b949350505050565b600060408201905061264c6000830185611e71565b61265960208301846125a4565b9392505050565b6000602082019050818103600083015261267a8184611e80565b905092915050565b6000602082019050818103600083015261269c8184611ede565b905092915050565b60006020820190506126b96000830184611f62565b92915050565b60006020820190506126d46000830184611fa2565b92915050565b600060208201905081810360008301526126f48184611fea565b905092915050565b6000602082019050818103600083015261271581612023565b9050919050565b6000602082019050818103600083015261273581612089565b9050919050565b60006020820190508181036000830152612755816120c9565b9050919050565b600060208201905081810360008301526127758161212f565b9050919050565b6000602082019050818103600083015261279581612195565b9050919050565b600060208201905081810360008301526127b581612221565b9050919050565b600060208201905081810360008301526127d5816122ad565b9050919050565b600060208201905081810360008301526127f5816122ed565b9050919050565b6000602082019050818103600083015261281581612353565b9050919050565b6000602082019050818103600083015261283581612393565b9050919050565b60006020820190508181036000830152612855816123d3565b9050919050565b6000602082019050818103600083015261287581612413565b9050919050565b6000602082019050818103600083015261289581612479565b9050919050565b600060208201905081810360008301526128b5816124b9565b9050919050565b60006020820190506128d160008301846125a4565b92915050565b6000604051905081810181811067ffffffffffffffff821117156128fa57600080fd5b8060405250919050565b600067ffffffffffffffff82111561291b57600080fd5b601f19601f8301169050602081019050919050565b6000819050602082019050919050565b6000819050602082019050919050565b600081519050919050565b600081519050919050565b600081519050919050565b600081519050919050565b6000602082019050919050565b6000602082019050919050565b600082825260208201905092915050565b600082825260208201905092915050565b600081905092915050565b600082825260208201905092915050565b600082825260208201905092915050565b60006129f082612a03565b9050919050565b60008115159050919050565b600073ffffffffffffffffffffffffffffffffffffffff82169050919050565b6000819050919050565b6000612a3882612a63565b9050919050565b6000612a4a82612a51565b9050919050565b6000612a5c82612a03565b9050919050565b6000612a6e82612a75565b9050919050565b6000612a8082612a03565b9050919050565b82818337600083830152505050565b60005b83811015612ab4578082015181840152602081019050612a99565b83811115612ac3576000848401525b50505050565b6000601f19601f8301169050919050565b612ae3816129e5565b8114612aee57600080fd5b50565b612afa816129f7565b8114612b0557600080fd5b50565b612b1181612a23565b8114612b1c57600080fd5b5056fea26469706673582212203a3bf02c10ffbad4280c23f8e893c3ac0e45ef50cc291032a58a06d9aa14bf1f64736f6c634300060c0033",
  "devdoc": {
    "kind": "dev",
    "methods": {
      "changePauser(address)": {
        "params": {
          "newPauser": "Address of new pauser account."
        }
      },
      "constructor": {
        "params": {
          "_token": "Address of vesting token contract."
        }
      },
      "delegate(address,address)": {
        "params": {
          "delegatee": "The address to delegate votes to"
        }
      },
      "getParticipants()": {
        "returns": {
          "_0": "Participants addresses."
        }
      },
      "info(address)": {
        "params": {
          "recipient": "Recipient address."
        },
        "returns": {
          "_0": "Recipient periods list."
        }
      },
      "lock(address,uint256,string,uint256)": {
        "params": {
          "amount": "Reward amount.",
          "date": "Date of unlockd period.",
          "recipient": "Recipient of reward."
        },
        "returns": {
          "_0": "Added period identifier."
        }
      },
      "owner()": {
        "details": "Returns the address of the current owner."
      },
      "paused()": {
        "details": "Returns true if the contract is paused, and false otherwise."
      },
      "renounceOwnership()": {
        "details": "Leaves the contract without owner. It will not be possible to call `onlyOwner` functions anymore. Can only be called by the current owner. NOTE: Renouncing ownership will leave the contract without an owner, thereby removing any functionality that is only available to the owner."
      },
      "revoke(address,uint256)": {
        "params": {
          "periodId": "Period identifier.",
          "recipient": "Recipient of reward."
        }
      },
      "transferOwnership(address)": {
        "details": "Transfers ownership of the contract to a new account (`newOwner`). Can only be called by the current owner."
      },
      "withdraw(uint256)": {
        "params": {
          "periodId": "Target period identifier."
        }
      }
    },
    "stateVariables": {
      "currentPeriod": {
        "details": "Index last period."
      },
      "participants": {
        "details": "Participants list."
      },
      "periods": {
        "details": "All registered periods."
      },
      "periodsIndex": {
        "details": "Period identifiers index."
      }
    },
    "version": 1
  },
  "userdoc": {
    "events": {
      "DelegateVotes(address)": {
        "notice": "An event emitted when all votes delegate to."
      },
      "Locked(uint256)": {
        "notice": "An event emitted when locking a period."
      },
      "PauserChanged(address)": {
        "notice": "An event thats emitted when an pauser address changed."
      },
      "Revoked(uint256)": {
        "notice": "An event emitted when revoked a period."
      },
      "Withdrawal(address,uint256)": {
        "notice": "An event emitted when withdrawal a period."
      }
    },
    "kind": "user",
    "methods": {
      "changePauser(address)": {
        "notice": "Change pauser account."
      },
      "delegate(address,address)": {
        "notice": "Delegate votes to delegatee."
      },
      "getParticipants()": {
        "notice": "Return all participants addresses."
      },
      "info(address)": {
        "notice": "Get information of period."
      },
      "lock(address,uint256,string,uint256)": {
        "notice": "Add new period."
      },
      "maxPeriodsPerRecipient()": {
        "notice": "The number of periods for a per recipient."
      },
      "pause()": {
        "notice": "Triggers stopped state."
      },
      "pauser()": {
        "notice": "Address that can pause a contract."
      },
      "revoke(address,uint256)": {
        "notice": "Revoke period."
      },
      "token()": {
        "notice": "Address of vesting token."
      },
      "unpause()": {
        "notice": "Returns to normal state."
      },
      "withdraw(uint256)": {
        "notice": "Withdraw reward."
      }
    },
    "version": 1
  },
  "storageLayout": {
    "storage": [
      {
        "astId": 30,
        "contract": "contracts/Vesting.sol:Vesting",
        "label": "_owner",
        "offset": 0,
        "slot": "0",
        "type": "t_address"
      },
      {
        "astId": 1806,
        "contract": "contracts/Vesting.sol:Vesting",
        "label": "_paused",
        "offset": 20,
        "slot": "0",
        "type": "t_bool"
      },
      {
        "astId": 13251,
        "contract": "contracts/Vesting.sol:Vesting",
        "label": "pauser",
        "offset": 0,
        "slot": "1",
        "type": "t_address"
      },
      {
        "astId": 8342,
        "contract": "contracts/Vesting.sol:Vesting",
        "label": "token",
        "offset": 0,
        "slot": "2",
        "type": "t_contract(ERC20)907"
      },
      {
        "astId": 8357,
        "contract": "contracts/Vesting.sol:Vesting",
        "label": "currentPeriod",
        "offset": 0,
        "slot": "3",
        "type": "t_uint256"
      },
      {
        "astId": 8360,
        "contract": "contracts/Vesting.sol:Vesting",
        "label": "participants",
        "offset": 0,
        "slot": "4",
        "type": "t_struct(AddressSet)1584_storage"
      },
      {
        "astId": 8367,
        "contract": "contracts/Vesting.sol:Vesting",
        "label": "periods",
        "offset": 0,
        "slot": "6",
        "type": "t_mapping(t_address,t_mapping(t_uint256,t_struct(Period)8353_storage))"
      },
      {
        "astId": 8373,
        "contract": "contracts/Vesting.sol:Vesting",
        "label": "periodsIndex",
        "offset": 0,
        "slot": "7",
        "type": "t_mapping(t_address,t_array(t_uint256)dyn_storage)"
      }
    ],
    "types": {
      "t_address": {
        "encoding": "inplace",
        "label": "address",
        "numberOfBytes": "20"
      },
      "t_array(t_bytes32)dyn_storage": {
        "base": "t_bytes32",
        "encoding": "dynamic_array",
        "label": "bytes32[]",
        "numberOfBytes": "32"
      },
      "t_array(t_uint256)dyn_storage": {
        "base": "t_uint256",
        "encoding": "dynamic_array",
        "label": "uint256[]",
        "numberOfBytes": "32"
      },
      "t_bool": {
        "encoding": "inplace",
        "label": "bool",
        "numberOfBytes": "1"
      },
      "t_bytes32": {
        "encoding": "inplace",
        "label": "bytes32",
        "numberOfBytes": "32"
      },
      "t_contract(ERC20)907": {
        "encoding": "inplace",
        "label": "contract ERC20",
        "numberOfBytes": "20"
      },
      "t_mapping(t_address,t_array(t_uint256)dyn_storage)": {
        "encoding": "mapping",
        "key": "t_address",
        "label": "mapping(address => uint256[])",
        "numberOfBytes": "32",
        "value": "t_array(t_uint256)dyn_storage"
      },
      "t_mapping(t_address,t_mapping(t_uint256,t_struct(Period)8353_storage))": {
        "encoding": "mapping",
        "key": "t_address",
        "label": "mapping(address => mapping(uint256 => struct Vesting.Period))",
        "numberOfBytes": "32",
        "value": "t_mapping(t_uint256,t_struct(Period)8353_storage)"
      },
      "t_mapping(t_bytes32,t_uint256)": {
        "encoding": "mapping",
        "key": "t_bytes32",
        "label": "mapping(bytes32 => uint256)",
        "numberOfBytes": "32",
        "value": "t_uint256"
      },
      "t_mapping(t_uint256,t_struct(Period)8353_storage)": {
        "encoding": "mapping",
        "key": "t_uint256",
        "label": "mapping(uint256 => struct Vesting.Period)",
        "numberOfBytes": "32",
        "value": "t_struct(Period)8353_storage"
      },
      "t_string_storage": {
        "encoding": "bytes",
        "label": "string",
        "numberOfBytes": "32"
      },
      "t_struct(AddressSet)1584_storage": {
        "encoding": "inplace",
        "label": "struct EnumerableSet.AddressSet",
        "members": [
          {
            "astId": 1583,
            "contract": "contracts/Vesting.sol:Vesting",
            "label": "_inner",
            "offset": 0,
            "slot": "0",
            "type": "t_struct(Set)1404_storage"
          }
        ],
        "numberOfBytes": "64"
      },
      "t_struct(Period)8353_storage": {
        "encoding": "inplace",
        "label": "struct Vesting.Period",
        "members": [
          {
            "astId": 8344,
            "contract": "contracts/Vesting.sol:Vesting",
            "label": "id",
            "offset": 0,
            "slot": "0",
            "type": "t_uint256"
          },
          {
            "astId": 8346,
            "contract": "contracts/Vesting.sol:Vesting",
            "label": "amount",
            "offset": 0,
            "slot": "1",
            "type": "t_uint256"
          },
          {
            "astId": 8348,
            "contract": "contracts/Vesting.sol:Vesting",
            "label": "date",
            "offset": 0,
            "slot": "2",
            "type": "t_uint256"
          },
          {
            "astId": 8350,
            "contract": "contracts/Vesting.sol:Vesting",
            "label": "description",
            "offset": 0,
            "slot": "3",
            "type": "t_string_storage"
          },
          {
            "astId": 8352,
            "contract": "contracts/Vesting.sol:Vesting",
            "label": "withdrawal",
            "offset": 0,
            "slot": "4",
            "type": "t_bool"
          }
        ],
        "numberOfBytes": "160"
      },
      "t_struct(Set)1404_storage": {
        "encoding": "inplace",
        "label": "struct EnumerableSet.Set",
        "members": [
          {
            "astId": 1399,
            "contract": "contracts/Vesting.sol:Vesting",
            "label": "_values",
            "offset": 0,
            "slot": "0",
            "type": "t_array(t_bytes32)dyn_storage"
          },
          {
            "astId": 1403,
            "contract": "contracts/Vesting.sol:Vesting",
            "label": "_indexes",
            "offset": 0,
            "slot": "1",
            "type": "t_mapping(t_bytes32,t_uint256)"
          }
        ],
        "numberOfBytes": "64"
      },
      "t_uint256": {
        "encoding": "inplace",
        "label": "uint256",
        "numberOfBytes": "32"
      }
    }
  }
}