{
  "address": "0x26F300A11bC4a3A41Bc07941Ea407dd9533b8e28",
  "abi": [
    {
      "anonymous": false,
      "inputs": [
        {
          "indexed": true,
          "internalType": "address",
          "name": "previousOwner",
          "type": "address"
        },
        {
          "indexed": true,
          "internalType": "address",
          "name": "newOwner",
          "type": "address"
        }
      ],
      "name": "OwnershipTransferred",
      "type": "event"
    },
    {
      "anonymous": false,
      "inputs": [],
      "name": "SharesChanged",
      "type": "event"
    },
    {
      "anonymous": false,
      "inputs": [
        {
          "indexed": false,
          "internalType": "address",
          "name": "token",
          "type": "address"
        }
      ],
      "name": "Split",
      "type": "event"
    },
    {
      "anonymous": false,
      "inputs": [
        {
          "indexed": false,
          "internalType": "address",
          "name": "vesting",
          "type": "address"
        },
        {
          "indexed": false,
          "internalType": "uint256",
          "name": "periodId",
          "type": "uint256"
        }
      ],
      "name": "VestingWithdraw",
      "type": "event"
    },
    {
      "anonymous": false,
      "inputs": [
        {
          "indexed": false,
          "internalType": "address",
          "name": "token",
          "type": "address"
        },
        {
          "indexed": false,
          "internalType": "address",
          "name": "account",
          "type": "address"
        },
        {
          "indexed": false,
          "internalType": "uint256",
          "name": "reward",
          "type": "uint256"
        }
      ],
      "name": "Withdraw",
      "type": "event"
    },
    {
      "inputs": [
        {
          "internalType": "address",
          "name": "token",
          "type": "address"
        },
        {
          "internalType": "address",
          "name": "account",
          "type": "address"
        }
      ],
      "name": "balanceOf",
      "outputs": [
        {
          "internalType": "uint256",
          "name": "",
          "type": "uint256"
        }
      ],
      "stateMutability": "view",
      "type": "function"
    },
    {
      "inputs": [
        {
          "internalType": "address[]",
          "name": "accounts",
          "type": "address[]"
        },
        {
          "internalType": "uint256[]",
          "name": "shares",
          "type": "uint256[]"
        }
      ],
      "name": "changeShares",
      "outputs": [],
      "stateMutability": "nonpayable",
      "type": "function"
    },
    {
      "inputs": [],
      "name": "getAccounts",
      "outputs": [
        {
          "internalType": "address[]",
          "name": "",
          "type": "address[]"
        }
      ],
      "stateMutability": "view",
      "type": "function"
    },
    {
      "inputs": [],
      "name": "getMaxAccounts",
      "outputs": [
        {
          "internalType": "uint256",
          "name": "",
          "type": "uint256"
        }
      ],
      "stateMutability": "pure",
      "type": "function"
    },
    {
      "inputs": [],
      "name": "owner",
      "outputs": [
        {
          "internalType": "address",
          "name": "",
          "type": "address"
        }
      ],
      "stateMutability": "view",
      "type": "function"
    },
    {
      "inputs": [],
      "name": "renounceOwnership",
      "outputs": [],
      "stateMutability": "nonpayable",
      "type": "function"
    },
    {
      "inputs": [
        {
          "internalType": "address",
          "name": "account",
          "type": "address"
        }
      ],
      "name": "shareOf",
      "outputs": [
        {
          "internalType": "uint256",
          "name": "",
          "type": "uint256"
        }
      ],
      "stateMutability": "view",
      "type": "function"
    },
    {
      "inputs": [
        {
          "internalType": "address",
          "name": "token",
          "type": "address"
        }
      ],
      "name": "split",
      "outputs": [],
      "stateMutability": "nonpayable",
      "type": "function"
    },
    {
      "inputs": [
        {
          "internalType": "address",
          "name": "",
          "type": "address"
        }
      ],
      "name": "totalSupply",
      "outputs": [
        {
          "internalType": "uint256",
          "name": "",
          "type": "uint256"
        }
      ],
      "stateMutability": "view",
      "type": "function"
    },
    {
      "inputs": [
        {
          "internalType": "address",
          "name": "newOwner",
          "type": "address"
        }
      ],
      "name": "transferOwnership",
      "outputs": [],
      "stateMutability": "nonpayable",
      "type": "function"
    },
    {
      "inputs": [
        {
          "internalType": "contract Vesting",
          "name": "vesting",
          "type": "address"
        },
        {
          "internalType": "uint256",
          "name": "periodId",
          "type": "uint256"
        }
      ],
      "name": "vestingWithdraw",
      "outputs": [],
      "stateMutability": "nonpayable",
      "type": "function"
    },
    {
      "inputs": [
        {
          "internalType": "address",
          "name": "token",
          "type": "address"
        }
      ],
      "name": "withdraw",
      "outputs": [],
      "stateMutability": "nonpayable",
      "type": "function"
    }
  ],
  "transactionHash": "0x491c06147682c8d4b12dd6fa6f569402b09649d3eb594ada20dd51f2234475bb",
  "args": [],
  "solcInputHash": "d652cb1ef8d15be4d013601164d9be27",
  "bytecode": "0x608060405234801561001057600080fd5b5060006100216100c460201b60201c565b9050806000806101000a81548173ffffffffffffffffffffffffffffffffffffffff021916908373ffffffffffffffffffffffffffffffffffffffff1602179055508073ffffffffffffffffffffffffffffffffffffffff16600073ffffffffffffffffffffffffffffffffffffffff167f8be0079c531659141344cd1fd0a4f28419497f9722a3daafe3b4186f6b6457e060405160405180910390a3506100cc565b600033905090565b61224c806100db6000396000f3fe608060405234801561001057600080fd5b50600436106100b45760003560e01c80638da5cb5b116100715780638da5cb5b146101675780639341170a14610185578063bbc7539a146101a1578063e4dc2aa4146101bd578063f2fde38b146101ed578063f7888aec14610209576100b4565b806321e5e2c4146100b957806351cff8d9146100e957806356fa47f0146101055780636dbb4bd414610121578063715018a61461013f5780638a48ac0314610149575b600080fd5b6100d360048036038101906100ce919061171c565b610239565b6040516100e09190611fe3565b60405180910390f35b61010360048036038101906100fe919061171c565b610282565b005b61011f600480360381019061011a919061171c565b6104a0565b005b61012961086b565b6040516101369190611fe3565b60405180910390f35b610147610874565b005b6101516109c7565b60405161015e9190611e3f565b60405180910390f35b61016f610a55565b60405161017c9190611dc4565b60405180910390f35b61019f600480360381019061019a9190611781565b610a7e565b005b6101bb60048036038101906101b69190611816565b610d27565b005b6101d760048036038101906101d2919061171c565b610dcf565b6040516101e49190611fe3565b60405180910390f35b6102076004803603810190610202919061171c565b610de7565b005b610223600480360381019061021e9190611745565b610fa9565b6040516102309190611fe3565b60405180910390f35b6000600460008373ffffffffffffffffffffffffffffffffffffffff1673ffffffffffffffffffffffffffffffffffffffff168152602001908152602001600020549050919050565b6000600260008373ffffffffffffffffffffffffffffffffffffffff1673ffffffffffffffffffffffffffffffffffffffff16815260200190815260200160002060006102cd611030565b73ffffffffffffffffffffffffffffffffffffffff1673ffffffffffffffffffffffffffffffffffffffff1681526020019081526020016000205490506000600260008473ffffffffffffffffffffffffffffffffffffffff1673ffffffffffffffffffffffffffffffffffffffff1681526020019081526020016000206000610355611030565b73ffffffffffffffffffffffffffffffffffffffff1673ffffffffffffffffffffffffffffffffffffffff168152602001908152602001600020819055506103e581600160008573ffffffffffffffffffffffffffffffffffffffff1673ffffffffffffffffffffffffffffffffffffffff1681526020019081526020016000205461103890919063ffffffff16565b600160008473ffffffffffffffffffffffffffffffffffffffff1673ffffffffffffffffffffffffffffffffffffffff1681526020019081526020016000208190555061045a610433611030565b828473ffffffffffffffffffffffffffffffffffffffff166110829092919063ffffffff16565b7f9b1bfa7fa9ee420a16e124f794c35ac9f90472acc99140eb2f6447c714cad8eb82610484611030565b8360405161049493929190611ddf565b60405180910390a15050565b600061057c600160008473ffffffffffffffffffffffffffffffffffffffff1673ffffffffffffffffffffffffffffffffffffffff168152602001908152602001600020548373ffffffffffffffffffffffffffffffffffffffff166370a08231306040518263ffffffff1660e01b815260040161051e9190611dc4565b60206040518083038186803b15801561053657600080fd5b505afa15801561054a573d6000803e3d6000fd5b505050506040513d601f19601f8201168201806040525081019061056e9190611852565b61103890919063ffffffff16565b9050600081116105c1576040517f08c379a00000000000000000000000000000000000000000000000000000000081526004016105b890611ee3565b60405180910390fd5b60005b60038054905081101561082f576000600382815481106105e057fe5b9060005260206000200160009054906101000a900473ffffffffffffffffffffffffffffffffffffffff1690506000600460008373ffffffffffffffffffffffffffffffffffffffff1673ffffffffffffffffffffffffffffffffffffffff16815260200190815260200160002054905060006106798261066b60648861110890919063ffffffff16565b61115290919063ffffffff16565b905061070a81600260008973ffffffffffffffffffffffffffffffffffffffff1673ffffffffffffffffffffffffffffffffffffffff16815260200190815260200160002060008673ffffffffffffffffffffffffffffffffffffffff1673ffffffffffffffffffffffffffffffffffffffff168152602001908152602001600020546111c290919063ffffffff16565b600260008873ffffffffffffffffffffffffffffffffffffffff1673ffffffffffffffffffffffffffffffffffffffff16815260200190815260200160002060008573ffffffffffffffffffffffffffffffffffffffff1673ffffffffffffffffffffffffffffffffffffffff168152602001908152602001600020819055506107dc81600160008973ffffffffffffffffffffffffffffffffffffffff1673ffffffffffffffffffffffffffffffffffffffff168152602001908152602001600020546111c290919063ffffffff16565b600160008873ffffffffffffffffffffffffffffffffffffffff1673ffffffffffffffffffffffffffffffffffffffff1681526020019081526020016000208190555050505080806001019150506105c4565b507fd54a497a40ae458299f3247b4e63c940f7924a3f8b8b9edf5f94a8120e80c1178260405161085f9190611dc4565b60405180910390a15050565b60006064905090565b61087c611030565b73ffffffffffffffffffffffffffffffffffffffff1660008054906101000a900473ffffffffffffffffffffffffffffffffffffffff1673ffffffffffffffffffffffffffffffffffffffff1614610909576040517f08c379a000000000000000000000000000000000000000000000000000000000815260040161090090611f43565b60405180910390fd5b600073ffffffffffffffffffffffffffffffffffffffff1660008054906101000a900473ffffffffffffffffffffffffffffffffffffffff1673ffffffffffffffffffffffffffffffffffffffff167f8be0079c531659141344cd1fd0a4f28419497f9722a3daafe3b4186f6b6457e060405160405180910390a360008060006101000a81548173ffffffffffffffffffffffffffffffffffffffff021916908373ffffffffffffffffffffffffffffffffffffffff160217905550565b60606003805480602002602001604051908101604052809291908181526020018280548015610a4b57602002820191906000526020600020905b8160009054906101000a900473ffffffffffffffffffffffffffffffffffffffff1673ffffffffffffffffffffffffffffffffffffffff1681526020019060010190808311610a01575b5050505050905090565b60008060009054906101000a900473ffffffffffffffffffffffffffffffffffffffff16905090565b610a86611030565b73ffffffffffffffffffffffffffffffffffffffff1660008054906101000a900473ffffffffffffffffffffffffffffffffffffffff1673ffffffffffffffffffffffffffffffffffffffff1614610b13576040517f08c379a0000000000000000000000000000000000000000000000000000000008152600401610b0a90611f43565b60405180910390fd5b610b1b61086b565b82511115610b5e576040517f08c379a0000000000000000000000000000000000000000000000000000000008152600401610b5590611f63565b60405180910390fd5b8051825114610ba2576040517f08c379a0000000000000000000000000000000000000000000000000000000008152600401610b9990611e83565b60405180910390fd5b600080600090505b8351811015610c9b576000848281518110610bc157fe5b602002602001015190506000848381518110610bd957fe5b6020026020010151905060648111158015610bf45750600081115b610c33576040517f08c379a0000000000000000000000000000000000000000000000000000000008152600401610c2a90611f23565b60405180910390fd5b80600460008473ffffffffffffffffffffffffffffffffffffffff1673ffffffffffffffffffffffffffffffffffffffff16815260200190815260200160002081905550610c8a81856111c290919063ffffffff16565b935050508080600101915050610baa565b5060648114610cdf576040517f08c379a0000000000000000000000000000000000000000000000000000000008152600401610cd690611fa3565b60405180910390fd5b8260039080519060200190610cf59291906114e8565b507fc3f1591f132864f89c86569379ff83036d5c5faa28d6ce4b3c9b9a2d21364c0860405160405180910390a1505050565b8173ffffffffffffffffffffffffffffffffffffffff16632e1a7d4d826040518263ffffffff1660e01b8152600401610d609190611fe3565b600060405180830381600087803b158015610d7a57600080fd5b505af1158015610d8e573d6000803e3d6000fd5b505050507f97ea5c7a76cabd16d669e80b9f5972997a27a2e8ae7a1f3daf7d6bc92f9365878282604051610dc3929190611e16565b60405180910390a15050565b60016020528060005260406000206000915090505481565b610def611030565b73ffffffffffffffffffffffffffffffffffffffff1660008054906101000a900473ffffffffffffffffffffffffffffffffffffffff1673ffffffffffffffffffffffffffffffffffffffff1614610e7c576040517f08c379a0000000000000000000000000000000000000000000000000000000008152600401610e7390611f43565b60405180910390fd5b600073ffffffffffffffffffffffffffffffffffffffff168173ffffffffffffffffffffffffffffffffffffffff161415610eec576040517f08c379a0000000000000000000000000000000000000000000000000000000008152600401610ee390611ea3565b60405180910390fd5b8073ffffffffffffffffffffffffffffffffffffffff1660008054906101000a900473ffffffffffffffffffffffffffffffffffffffff1673ffffffffffffffffffffffffffffffffffffffff167f8be0079c531659141344cd1fd0a4f28419497f9722a3daafe3b4186f6b6457e060405160405180910390a3806000806101000a81548173ffffffffffffffffffffffffffffffffffffffff021916908373ffffffffffffffffffffffffffffffffffffffff16021790555050565b6000600260008473ffffffffffffffffffffffffffffffffffffffff1673ffffffffffffffffffffffffffffffffffffffff16815260200190815260200160002060008373ffffffffffffffffffffffffffffffffffffffff1673ffffffffffffffffffffffffffffffffffffffff16815260200190815260200160002054905092915050565b600033905090565b600061107a83836040518060400160405280601e81526020017f536166654d6174683a207375627472616374696f6e206f766572666c6f770000815250611217565b905092915050565b6111038363a9059cbb60e01b84846040516024016110a1929190611e16565b604051602081830303815290604052907bffffffffffffffffffffffffffffffffffffffffffffffffffffffff19166020820180517bffffffffffffffffffffffffffffffffffffffffffffffffffffffff8381831617835250505050611272565b505050565b600061114a83836040518060400160405280601a81526020017f536166654d6174683a206469766973696f6e206279207a65726f000000000000815250611339565b905092915050565b60008083141561116557600090506111bc565b600082840290508284828161117657fe5b04146111b7576040517f08c379a00000000000000000000000000000000000000000000000000000000081526004016111ae90611f03565b60405180910390fd5b809150505b92915050565b60008082840190508381101561120d576040517f08c379a000000000000000000000000000000000000000000000000000000000815260040161120490611ec3565b60405180910390fd5b8091505092915050565b600083831115829061125f576040517f08c379a00000000000000000000000000000000000000000000000000000000081526004016112569190611e61565b60405180910390fd5b5060008385039050809150509392505050565b60606112d4826040518060400160405280602081526020017f5361666545524332303a206c6f772d6c6576656c2063616c6c206661696c65648152508573ffffffffffffffffffffffffffffffffffffffff1661139a9092919063ffffffff16565b905060008151111561133457808060200190518101906112f491906117ed565b611333576040517f08c379a000000000000000000000000000000000000000000000000000000000815260040161132a90611fc3565b60405180910390fd5b5b505050565b60008083118290611380576040517f08c379a00000000000000000000000000000000000000000000000000000000081526004016113779190611e61565b60405180910390fd5b50600083858161138c57fe5b049050809150509392505050565b60606113a984846000856113b2565b90509392505050565b60606113bd856114d5565b6113fc576040517f08c379a00000000000000000000000000000000000000000000000000000000081526004016113f390611f83565b60405180910390fd5b600060608673ffffffffffffffffffffffffffffffffffffffff1685876040516114269190611dad565b60006040518083038185875af1925050503d8060008114611463576040519150601f19603f3d011682016040523d82523d6000602084013e611468565b606091505b5091509150811561147d5780925050506114cd565b6000815111156114905780518082602001fd5b836040517f08c379a00000000000000000000000000000000000000000000000000000000081526004016114c49190611e61565b60405180910390fd5b949350505050565b600080823b905060008111915050919050565b828054828255906000526020600020908101928215611561579160200282015b828111156115605782518260006101000a81548173ffffffffffffffffffffffffffffffffffffffff021916908373ffffffffffffffffffffffffffffffffffffffff16021790555091602001919060010190611508565b5b50905061156e9190611572565b5090565b5b808211156115a957600081816101000a81549073ffffffffffffffffffffffffffffffffffffffff021916905550600101611573565b5090565b6000813590506115bc816121ba565b92915050565b600082601f8301126115d357600080fd5b81356115e66115e18261202b565b611ffe565b9150818183526020840193506020810190508385602084028201111561160b57600080fd5b60005b8381101561163b578161162188826115ad565b84526020840193506020830192505060018101905061160e565b5050505092915050565b600082601f83011261165657600080fd5b813561166961166482612053565b611ffe565b9150818183526020840193506020810190508385602084028201111561168e57600080fd5b60005b838110156116be57816116a488826116f2565b845260208401935060208301925050600181019050611691565b5050505092915050565b6000815190506116d7816121d1565b92915050565b6000813590506116ec816121e8565b92915050565b600081359050611701816121ff565b92915050565b600081519050611716816121ff565b92915050565b60006020828403121561172e57600080fd5b600061173c848285016115ad565b91505092915050565b6000806040838503121561175857600080fd5b6000611766858286016115ad565b9250506020611777858286016115ad565b9150509250929050565b6000806040838503121561179457600080fd5b600083013567ffffffffffffffff8111156117ae57600080fd5b6117ba858286016115c2565b925050602083013567ffffffffffffffff8111156117d757600080fd5b6117e385828601611645565b9150509250929050565b6000602082840312156117ff57600080fd5b600061180d848285016116c8565b91505092915050565b6000806040838503121561182957600080fd5b6000611837858286016116dd565b9250506020611848858286016116f2565b9150509250929050565b60006020828403121561186457600080fd5b600061187284828501611707565b91505092915050565b600061188783836118a2565b60208301905092915050565b61189c81612140565b82525050565b6118ab816120e6565b82525050565b6118ba816120e6565b82525050565b60006118cb8261208b565b6118d581856120b9565b93506118e08361207b565b8060005b838110156119115781516118f8888261187b565b9750611903836120ac565b9250506001810190506118e4565b5085935050505092915050565b600061192982612096565b61193381856120ca565b9350611943818560208601612176565b80840191505092915050565b600061195a826120a1565b61196481856120d5565b9350611974818560208601612176565b61197d816121a9565b840191505092915050565b60006119956049836120d5565b91507f56657374696e6753706c69747465723a3a6368616e67655368617265733a207360008301527f68617265732066756e6374696f6e20696e666f726d6174696f6e20617269747960208301527f206d69736d6174636800000000000000000000000000000000000000000000006040830152606082019050919050565b6000611a216026836120d5565b91507f4f776e61626c653a206e6577206f776e657220697320746865207a65726f206160008301527f64647265737300000000000000000000000000000000000000000000000000006020830152604082019050919050565b6000611a87601b836120d5565b91507f536166654d6174683a206164646974696f6e206f766572666c6f7700000000006000830152602082019050919050565b6000611ac76025836120d5565b91507f56657374696e6753706c69747465723a3a73706c69743a20656d70747920626160008301527f6c616e63650000000000000000000000000000000000000000000000000000006020830152604082019050919050565b6000611b2d6021836120d5565b91507f536166654d6174683a206d756c7469706c69636174696f6e206f766572666c6f60008301527f77000000000000000000000000000000000000000000000000000000000000006020830152604082019050919050565b6000611b936035836120d5565b91507f56657374696e6753706c69747465723a3a6368616e67655368617265733a206960008301527f6e76616c69642076616c7565206f6620736861726500000000000000000000006020830152604082019050919050565b6000611bf96020836120d5565b91507f4f776e61626c653a2063616c6c6572206973206e6f7420746865206f776e65726000830152602082019050919050565b6000611c396030836120d5565b91507f56657374696e6753706c69747465723a3a6368616e67655368617265733a207460008301527f6f6f206d616e79206163636f756e7473000000000000000000000000000000006020830152604082019050919050565b6000611c9f601d836120d5565b91507f416464726573733a2063616c6c20746f206e6f6e2d636f6e74726163740000006000830152602082019050919050565b6000611cdf6034836120d5565b91507f56657374696e6753706c69747465723a3a6368616e67655368617265733a206960008301527f6e76616c69642073756d206f66207368617265730000000000000000000000006020830152604082019050919050565b6000611d45602a836120d5565b91507f5361666545524332303a204552433230206f7065726174696f6e20646964206e60008301527f6f742073756363656564000000000000000000000000000000000000000000006020830152604082019050919050565b611da781612136565b82525050565b6000611db9828461191e565b915081905092915050565b6000602082019050611dd960008301846118b1565b92915050565b6000606082019050611df460008301866118b1565b611e016020830185611893565b611e0e6040830184611d9e565b949350505050565b6000604082019050611e2b60008301856118b1565b611e386020830184611d9e565b9392505050565b60006020820190508181036000830152611e5981846118c0565b905092915050565b60006020820190508181036000830152611e7b818461194f565b905092915050565b60006020820190508181036000830152611e9c81611988565b9050919050565b60006020820190508181036000830152611ebc81611a14565b9050919050565b60006020820190508181036000830152611edc81611a7a565b9050919050565b60006020820190508181036000830152611efc81611aba565b9050919050565b60006020820190508181036000830152611f1c81611b20565b9050919050565b60006020820190508181036000830152611f3c81611b86565b9050919050565b60006020820190508181036000830152611f5c81611bec565b9050919050565b60006020820190508181036000830152611f7c81611c2c565b9050919050565b60006020820190508181036000830152611f9c81611c92565b9050919050565b60006020820190508181036000830152611fbc81611cd2565b9050919050565b60006020820190508181036000830152611fdc81611d38565b9050919050565b6000602082019050611ff86000830184611d9e565b92915050565b6000604051905081810181811067ffffffffffffffff8211171561202157600080fd5b8060405250919050565b600067ffffffffffffffff82111561204257600080fd5b602082029050602081019050919050565b600067ffffffffffffffff82111561206a57600080fd5b602082029050602081019050919050565b6000819050602082019050919050565b600081519050919050565b600081519050919050565b600081519050919050565b6000602082019050919050565b600082825260208201905092915050565b600081905092915050565b600082825260208201905092915050565b60006120f182612116565b9050919050565b60008115159050919050565b600061210f826120e6565b9050919050565b600073ffffffffffffffffffffffffffffffffffffffff82169050919050565b6000819050919050565b600061214b82612152565b9050919050565b600061215d82612164565b9050919050565b600061216f82612116565b9050919050565b60005b83811015612194578082015181840152602081019050612179565b838111156121a3576000848401525b50505050565b6000601f19601f8301169050919050565b6121c3816120e6565b81146121ce57600080fd5b50565b6121da816120f8565b81146121e557600080fd5b50565b6121f181612104565b81146121fc57600080fd5b50565b61220881612136565b811461221357600080fd5b5056fea2646970667358221220caa83eb522232419d473edd7337f58cac70b8c6d5c8693aa72fafa9d93ca780064736f6c634300060c0033",
  "devdoc": {
    "kind": "dev",
    "methods": {
      "balanceOf(address,address)": {
        "params": {
          "account": "Target account.",
          "token": "Target token."
        },
        "returns": {
          "_0": "Balance of account."
        }
      },
      "changeShares(address[],uint256[])": {
        "params": {
          "accounts": "Accounts list.",
          "shares": "Shares in split."
        }
      },
      "getAccounts()": {
        "returns": {
          "_0": "Addresses of all accounts with share."
        }
      },
      "getMaxAccounts()": {
        "returns": {
          "_0": "Max accounts for split."
        }
      },
      "owner()": {
        "details": "Returns the address of the current owner."
      },
      "renounceOwnership()": {
        "details": "Leaves the contract without owner. It will not be possible to call `onlyOwner` functions anymore. Can only be called by the current owner. NOTE: Renouncing ownership will leave the contract without an owner, thereby removing any functionality that is only available to the owner."
      },
      "shareOf(address)": {
        "params": {
          "account": "Target account."
        },
        "returns": {
          "_0": "Share in split."
        }
      },
      "split(address)": {
        "params": {
          "token": "Target token."
        }
      },
      "transferOwnership(address)": {
        "details": "Transfers ownership of the contract to a new account (`newOwner`). Can only be called by the current owner."
      },
      "vestingWithdraw(address,uint256)": {
        "params": {
          "periodId": "Target vesting period.",
          "vesting": "Address of vesting contract."
        }
      },
      "withdraw(address)": {
        "params": {
          "token": "Target token."
        }
      }
    },
    "stateVariables": {
      "_accounts": {
        "details": "Accounts list."
      },
      "_balances": {
        "details": "Accounts balances."
      },
      "_share": {
        "details": "Shares of account in split."
      }
    },
    "version": 1
  },
  "userdoc": {
    "events": {
      "SharesChanged()": {
        "notice": "An event emitted when shares changed."
      },
      "Split(address)": {
        "notice": "An event emitted when split a balance."
      },
      "VestingWithdraw(address,uint256)": {
        "notice": "An event emitted when vesting period withdrawal."
      },
      "Withdraw(address,address,uint256)": {
        "notice": "An event emitted when withdrawal a token."
      }
    },
    "kind": "user",
    "methods": {
      "balanceOf(address,address)": {
        "notice": "Get balance of account."
      },
      "changeShares(address[],uint256[])": {
        "notice": "Change shares of accounts in split."
      },
      "getAccounts()": {
        "notice": "Get accounts with share list."
      },
      "getMaxAccounts()": {
        "notice": "Get accounts limit for split."
      },
      "shareOf(address)": {
        "notice": "Get share of account in split."
      },
      "split(address)": {
        "notice": "Split token to all accounts."
      },
      "totalSupply(address)": {
        "notice": "Distributed tokens."
      },
      "vestingWithdraw(address,uint256)": {
        "notice": "Withdraw reward from vesting contract."
      },
      "withdraw(address)": {
        "notice": "Withdraw token balance to sender."
      }
    },
    "version": 1
  },
  "storageLayout": {
    "storage": [
      {
        "astId": 30,
        "contract": "contracts/VestingSplitter.sol:VestingSplitter",
        "label": "_owner",
        "offset": 0,
        "slot": "0",
        "type": "t_address"
      },
      {
        "astId": 8757,
        "contract": "contracts/VestingSplitter.sol:VestingSplitter",
        "label": "totalSupply",
        "offset": 0,
        "slot": "1",
        "type": "t_mapping(t_address,t_uint256)"
      },
      {
        "astId": 8764,
        "contract": "contracts/VestingSplitter.sol:VestingSplitter",
        "label": "_balances",
        "offset": 0,
        "slot": "2",
        "type": "t_mapping(t_address,t_mapping(t_address,t_uint256))"
      },
      {
        "astId": 8768,
        "contract": "contracts/VestingSplitter.sol:VestingSplitter",
        "label": "_accounts",
        "offset": 0,
        "slot": "3",
        "type": "t_array(t_address)dyn_storage"
      },
      {
        "astId": 8773,
        "contract": "contracts/VestingSplitter.sol:VestingSplitter",
        "label": "_share",
        "offset": 0,
        "slot": "4",
        "type": "t_mapping(t_address,t_uint256)"
      }
    ],
    "types": {
      "t_address": {
        "encoding": "inplace",
        "label": "address",
        "numberOfBytes": "20"
      },
      "t_array(t_address)dyn_storage": {
        "base": "t_address",
        "encoding": "dynamic_array",
        "label": "address[]",
        "numberOfBytes": "32"
      },
      "t_mapping(t_address,t_mapping(t_address,t_uint256))": {
        "encoding": "mapping",
        "key": "t_address",
        "label": "mapping(address => mapping(address => uint256))",
        "numberOfBytes": "32",
        "value": "t_mapping(t_address,t_uint256)"
      },
      "t_mapping(t_address,t_uint256)": {
        "encoding": "mapping",
        "key": "t_address",
        "label": "mapping(address => uint256)",
        "numberOfBytes": "32",
        "value": "t_uint256"
      },
      "t_uint256": {
        "encoding": "inplace",
        "label": "uint256",
        "numberOfBytes": "32"
      }
    }
  }
}