{
  "address": "0xe216Fc3F34a1360d552A7a54402eaA261Fb7eedf",
  "abi": [
    {
      "inputs": [
        {
          "internalType": "address",
          "name": "_bond",
          "type": "address"
        }
      ],
      "stateMutability": "nonpayable",
      "type": "constructor"
    },
    {
      "anonymous": false,
      "inputs": [
        {
          "indexed": false,
          "internalType": "uint256",
          "name": "periodId",
          "type": "uint256"
        }
      ],
      "name": "Locked",
      "type": "event"
    },
    {
      "anonymous": false,
      "inputs": [
        {
          "indexed": true,
          "internalType": "address",
          "name": "previousOwner",
          "type": "address"
        },
        {
          "indexed": true,
          "internalType": "address",
          "name": "newOwner",
          "type": "address"
        }
      ],
      "name": "OwnershipTransferred",
      "type": "event"
    },
    {
      "anonymous": false,
      "inputs": [
        {
          "indexed": false,
          "internalType": "address",
          "name": "account",
          "type": "address"
        }
      ],
      "name": "Paused",
      "type": "event"
    },
    {
      "anonymous": false,
      "inputs": [
        {
          "indexed": false,
          "internalType": "address",
          "name": "newPauser",
          "type": "address"
        }
      ],
      "name": "PauserChanged",
      "type": "event"
    },
    {
      "anonymous": false,
      "inputs": [
        {
          "indexed": false,
          "internalType": "uint256",
          "name": "periodId",
          "type": "uint256"
        }
      ],
      "name": "Revoked",
      "type": "event"
    },
    {
      "anonymous": false,
      "inputs": [
        {
          "indexed": false,
          "internalType": "address",
          "name": "account",
          "type": "address"
        }
      ],
      "name": "Unpaused",
      "type": "event"
    },
    {
      "anonymous": false,
      "inputs": [
        {
          "indexed": false,
          "internalType": "address",
          "name": "recipient",
          "type": "address"
        },
        {
          "indexed": false,
          "internalType": "uint256",
          "name": "periodId",
          "type": "uint256"
        }
      ],
      "name": "Withdrawal",
      "type": "event"
    },
    {
      "inputs": [],
      "name": "bond",
      "outputs": [
        {
          "internalType": "contract Bond",
          "name": "",
          "type": "address"
        }
      ],
      "stateMutability": "view",
      "type": "function"
    },
    {
      "inputs": [
        {
          "internalType": "address",
          "name": "newPauser",
          "type": "address"
        }
      ],
      "name": "changePauser",
      "outputs": [],
      "stateMutability": "nonpayable",
      "type": "function"
    },
    {
      "inputs": [],
      "name": "getParticipants",
      "outputs": [
        {
          "internalType": "address[]",
          "name": "",
          "type": "address[]"
        }
      ],
      "stateMutability": "view",
      "type": "function"
    },
    {
      "inputs": [
        {
          "internalType": "address",
          "name": "recipient",
          "type": "address"
        }
      ],
      "name": "info",
      "outputs": [
        {
          "components": [
            {
              "internalType": "uint256",
              "name": "id",
              "type": "uint256"
            },
            {
              "internalType": "uint256",
              "name": "amount",
              "type": "uint256"
            },
            {
              "internalType": "uint256",
              "name": "date",
              "type": "uint256"
            },
            {
              "internalType": "bool",
              "name": "withdrawal",
              "type": "bool"
            }
          ],
          "internalType": "struct Vesting.Period[]",
          "name": "",
          "type": "tuple[]"
        }
      ],
      "stateMutability": "view",
      "type": "function"
    },
    {
      "inputs": [
        {
          "internalType": "address",
          "name": "recipient",
          "type": "address"
        },
        {
          "internalType": "uint256",
          "name": "amount",
          "type": "uint256"
        },
        {
          "internalType": "uint256",
          "name": "date",
          "type": "uint256"
        }
      ],
      "name": "lock",
      "outputs": [
        {
          "internalType": "uint256",
          "name": "",
          "type": "uint256"
        }
      ],
      "stateMutability": "nonpayable",
      "type": "function"
    },
    {
      "inputs": [],
      "name": "maxPeriodsPerRecipient",
      "outputs": [
        {
          "internalType": "uint256",
          "name": "",
          "type": "uint256"
        }
      ],
      "stateMutability": "pure",
      "type": "function"
    },
    {
      "inputs": [],
      "name": "owner",
      "outputs": [
        {
          "internalType": "address",
          "name": "",
          "type": "address"
        }
      ],
      "stateMutability": "view",
      "type": "function"
    },
    {
      "inputs": [],
      "name": "pause",
      "outputs": [],
      "stateMutability": "nonpayable",
      "type": "function"
    },
    {
      "inputs": [],
      "name": "paused",
      "outputs": [
        {
          "internalType": "bool",
          "name": "",
          "type": "bool"
        }
      ],
      "stateMutability": "view",
      "type": "function"
    },
    {
      "inputs": [],
      "name": "pauser",
      "outputs": [
        {
          "internalType": "address",
          "name": "",
          "type": "address"
        }
      ],
      "stateMutability": "view",
      "type": "function"
    },
    {
      "inputs": [],
      "name": "renounceOwnership",
      "outputs": [],
      "stateMutability": "nonpayable",
      "type": "function"
    },
    {
      "inputs": [
        {
          "internalType": "address",
          "name": "recipient",
          "type": "address"
        },
        {
          "internalType": "uint256",
          "name": "periodId",
          "type": "uint256"
        }
      ],
      "name": "revoke",
      "outputs": [],
      "stateMutability": "nonpayable",
      "type": "function"
    },
    {
      "inputs": [
        {
          "internalType": "address",
          "name": "newOwner",
          "type": "address"
        }
      ],
      "name": "transferOwnership",
      "outputs": [],
      "stateMutability": "nonpayable",
      "type": "function"
    },
    {
      "inputs": [],
      "name": "unpause",
      "outputs": [],
      "stateMutability": "nonpayable",
      "type": "function"
    },
    {
      "inputs": [
        {
          "internalType": "uint256",
          "name": "periodId",
          "type": "uint256"
        }
      ],
      "name": "withdraw",
      "outputs": [],
      "stateMutability": "nonpayable",
      "type": "function"
    }
  ],
  "transactionHash": "0x8fb4ddeb7d20e6b7d39416f013895dcaeef62f8d03b9213c5d369ccf3a67bd4d",
  "args": [
    "0x2E46586D9E940453df79A9C647bd1b7b01F05F14"
  ],
  "solcInputHash": "b5f0be5d3d275c06b36962b556132d27",
  "bytecode": "0x608060405260006003553480156200001657600080fd5b506040516200256d3803806200256d83398181016040528101906200003c9190620001e6565b60006200004e6200019e60201b60201c565b9050806000806101000a81548173ffffffffffffffffffffffffffffffffffffffff021916908373ffffffffffffffffffffffffffffffffffffffff1602179055508073ffffffffffffffffffffffffffffffffffffffff16600073ffffffffffffffffffffffffffffffffffffffff167f8be0079c531659141344cd1fd0a4f28419497f9722a3daafe3b4186f6b6457e060405160405180910390a35060008060146101000a81548160ff02191690831515021790555062000116620001a660201b60201c565b600160006101000a81548173ffffffffffffffffffffffffffffffffffffffff021916908373ffffffffffffffffffffffffffffffffffffffff16021790555080600260006101000a81548173ffffffffffffffffffffffffffffffffffffffff021916908373ffffffffffffffffffffffffffffffffffffffff1602179055505062000260565b600033905090565b60008060009054906101000a900473ffffffffffffffffffffffffffffffffffffffff16905090565b600081519050620001e08162000246565b92915050565b600060208284031215620001f957600080fd5b60006200020984828501620001cf565b91505092915050565b60006200021f8262000226565b9050919050565b600073ffffffffffffffffffffffffffffffffffffffff82169050919050565b620002518162000212565b81146200025d57600080fd5b50565b6122fd80620002706000396000f3fe608060405234801561001057600080fd5b50600436106100f55760003560e01c806364c9ec6f116100975780639fd0506d116100665780639fd0506d14610216578063e2ab691d14610234578063eac449d914610264578063f2fde38b14610280576100f5565b806364c9ec6f146101c6578063715018a6146101e45780638456cb59146101ee5780638da5cb5b146101f8576100f5565b80633f4ba83a116100d35780633f4ba83a1461016257806351c2c1cc1461016c5780635aa68ac01461018a5780635c975abb146101a8576100f5565b80630aae7a6b146100fa5780632cd271e71461012a5780632e1a7d4d14610146575b600080fd5b610114600480360381019061010f919061179d565b61029c565b6040516101219190611f6a565b60405180910390f35b610144600480360381019061013f919061179d565b61049e565b005b610160600480360381019061015b919061187a565b6105d0565b005b61016a61086e565b005b610174610953565b6040516101819190612142565b60405180910390f35b61019261095c565b60405161019f9190611f48565b60405180910390f35b6101b0610a34565b6040516101bd9190611f8c565b60405180910390f35b6101ce610a4a565b6040516101db9190611fa7565b60405180910390f35b6101ec610a70565b005b6101f6610bc3565b005b610200610ca8565b60405161020d9190611eb2565b60405180910390f35b61021e610cd1565b60405161022b9190611eb2565b60405180910390f35b61024e60048036038101906102499190611802565b610cf7565b60405161025b9190612142565b60405180910390f35b61027e600480360381019061027991906117c6565b61105e565b005b61029a6004803603810190610295919061179d565b6112a6565b005b606080600760008473ffffffffffffffffffffffffffffffffffffffff1673ffffffffffffffffffffffffffffffffffffffff1681526020019081526020016000208054905067ffffffffffffffff811180156102f857600080fd5b5060405190808252806020026020018201604052801561033257816020015b61031f611734565b8152602001906001900390816103175790505b50905060005b600760008573ffffffffffffffffffffffffffffffffffffffff1673ffffffffffffffffffffffffffffffffffffffff16815260200190815260200160002080549050811015610494576000600760008673ffffffffffffffffffffffffffffffffffffffff1673ffffffffffffffffffffffffffffffffffffffff16815260200190815260200160002082815481106103ce57fe5b90600052602060002001549050600660008673ffffffffffffffffffffffffffffffffffffffff1673ffffffffffffffffffffffffffffffffffffffff16815260200190815260200160002060008281526020019081526020016000206040518060800160405290816000820154815260200160018201548152602001600282015481526020016003820160009054906101000a900460ff16151515158152505083838151811061047b57fe5b6020026020010181905250508080600101915050610338565b5080915050919050565b6104a6611468565b73ffffffffffffffffffffffffffffffffffffffff1660008054906101000a900473ffffffffffffffffffffffffffffffffffffffff1673ffffffffffffffffffffffffffffffffffffffff1614610533576040517f08c379a000000000000000000000000000000000000000000000000000000000815260040161052a906120e2565b60405180910390fd5b80600160006101000a81548173ffffffffffffffffffffffffffffffffffffffff021916908373ffffffffffffffffffffffffffffffffffffffff1602179055507fb80482a293ca2e013eda8683c9bd7fc8347cfdaeea5ede58cba46df502c2a604600160009054906101000a900473ffffffffffffffffffffffffffffffffffffffff166040516105c59190611eb2565b60405180910390a150565b600060149054906101000a900460ff1615610620576040517f08c379a000000000000000000000000000000000000000000000000000000000815260040161061790612082565b60405180910390fd5b600061062a611468565b90506000600660008373ffffffffffffffffffffffffffffffffffffffff1673ffffffffffffffffffffffffffffffffffffffff1681526020019081526020016000206000848152602001908152602001600020905060008160010154116106c7576040517f08c379a00000000000000000000000000000000000000000000000000000000081526004016106be906120a2565b60405180910390fd5b8060030160009054906101000a900460ff1615610719576040517f08c379a000000000000000000000000000000000000000000000000000000000815260040161071090612122565b60405180910390fd5b8060020154421161075f576040517f08c379a0000000000000000000000000000000000000000000000000000000008152600401610756906120c2565b60405180910390fd5b60018160030160006101000a81548160ff021916908315150217905550600260009054906101000a900473ffffffffffffffffffffffffffffffffffffffff1673ffffffffffffffffffffffffffffffffffffffff1663a9059cbb8383600101546040518363ffffffff1660e01b81526004016107dd929190611f1f565b602060405180830381600087803b1580156107f757600080fd5b505af115801561080b573d6000803e3d6000fd5b505050506040513d601f19601f8201168201806040525081019061082f9190611851565b507f7fcf532c15f0a6db0bd6d0e038bea71d30d808c7d98cb3bf7268a95bf5081b658284604051610861929190611f1f565b60405180910390a1505050565b610876611468565b73ffffffffffffffffffffffffffffffffffffffff16600160009054906101000a900473ffffffffffffffffffffffffffffffffffffffff1673ffffffffffffffffffffffffffffffffffffffff16148061090a57506108d4611468565b73ffffffffffffffffffffffffffffffffffffffff166108f2610ca8565b73ffffffffffffffffffffffffffffffffffffffff16145b610949576040517f08c379a000000000000000000000000000000000000000000000000000000000815260040161094090612062565b60405180910390fd5b610951611470565b565b60006005905090565b6060806109696004611519565b67ffffffffffffffff8111801561097f57600080fd5b506040519080825280602002602001820160405280156109ae5781602001602082028036833780820191505090505b50905060005b6109be6004611519565b811015610a2c576109d981600461152e90919063ffffffff16565b8282815181106109e557fe5b602002602001019073ffffffffffffffffffffffffffffffffffffffff16908173ffffffffffffffffffffffffffffffffffffffff168152505080806001019150506109b4565b508091505090565b60008060149054906101000a900460ff16905090565b600260009054906101000a900473ffffffffffffffffffffffffffffffffffffffff1681565b610a78611468565b73ffffffffffffffffffffffffffffffffffffffff1660008054906101000a900473ffffffffffffffffffffffffffffffffffffffff1673ffffffffffffffffffffffffffffffffffffffff1614610b05576040517f08c379a0000000000000000000000000000000000000000000000000000000008152600401610afc906120e2565b60405180910390fd5b600073ffffffffffffffffffffffffffffffffffffffff1660008054906101000a900473ffffffffffffffffffffffffffffffffffffffff1673ffffffffffffffffffffffffffffffffffffffff167f8be0079c531659141344cd1fd0a4f28419497f9722a3daafe3b4186f6b6457e060405160405180910390a360008060006101000a81548173ffffffffffffffffffffffffffffffffffffffff021916908373ffffffffffffffffffffffffffffffffffffffff160217905550565b610bcb611468565b73ffffffffffffffffffffffffffffffffffffffff16600160009054906101000a900473ffffffffffffffffffffffffffffffffffffffff1673ffffffffffffffffffffffffffffffffffffffff161480610c5f5750610c29611468565b73ffffffffffffffffffffffffffffffffffffffff16610c47610ca8565b73ffffffffffffffffffffffffffffffffffffffff16145b610c9e576040517f08c379a0000000000000000000000000000000000000000000000000000000008152600401610c9590612042565b60405180910390fd5b610ca6611548565b565b60008060009054906101000a900473ffffffffffffffffffffffffffffffffffffffff16905090565b600160009054906101000a900473ffffffffffffffffffffffffffffffffffffffff1681565b6000610d01611468565b73ffffffffffffffffffffffffffffffffffffffff1660008054906101000a900473ffffffffffffffffffffffffffffffffffffffff1673ffffffffffffffffffffffffffffffffffffffff1614610d8e576040517f08c379a0000000000000000000000000000000000000000000000000000000008152600401610d85906120e2565b60405180910390fd5b610d96610953565b600760008673ffffffffffffffffffffffffffffffffffffffff1673ffffffffffffffffffffffffffffffffffffffff1681526020019081526020016000208054905010610e19576040517f08c379a0000000000000000000000000000000000000000000000000000000008152600401610e1090612102565b60405180910390fd5b600260009054906101000a900473ffffffffffffffffffffffffffffffffffffffff1673ffffffffffffffffffffffffffffffffffffffff166323b872dd610e5f611468565b30866040518463ffffffff1660e01b8152600401610e7f93929190611ee8565b602060405180830381600087803b158015610e9957600080fd5b505af1158015610ead573d6000803e3d6000fd5b505050506040513d601f19601f82011682018060405250810190610ed19190611851565b506001600360008282540192505081905550610ef78460046115f390919063ffffffff16565b506040518060800160405280600354815260200184815260200183815260200160001515815250600660008673ffffffffffffffffffffffffffffffffffffffff1673ffffffffffffffffffffffffffffffffffffffff1681526020019081526020016000206000600354815260200190815260200160002060008201518160000155602082015181600101556040820151816002015560608201518160030160006101000a81548160ff021916908315150217905550905050600760008573ffffffffffffffffffffffffffffffffffffffff1673ffffffffffffffffffffffffffffffffffffffff16815260200190815260200160002060035490806001815401808255809150506001900390600052602060002001600090919091909150557f032bc66be43dbccb7487781d168eb7bda224628a3b2c3388bdf69b532a3a161160035460405161104a9190612142565b60405180910390a160035490509392505050565b611066611468565b73ffffffffffffffffffffffffffffffffffffffff1660008054906101000a900473ffffffffffffffffffffffffffffffffffffffff1673ffffffffffffffffffffffffffffffffffffffff16146110f3576040517f08c379a00000000000000000000000000000000000000000000000000000000081526004016110ea906120e2565b60405180910390fd5b6000600660008473ffffffffffffffffffffffffffffffffffffffff1673ffffffffffffffffffffffffffffffffffffffff168152602001908152602001600020600083815260200190815260200160002090508060030160009054906101000a900460ff1615611199576040517f08c379a000000000000000000000000000000000000000000000000000000000815260040161119090612022565b60405180910390fd5b60006111a3611468565b905060008260010154905060008360010181905550600260009054906101000a900473ffffffffffffffffffffffffffffffffffffffff1673ffffffffffffffffffffffffffffffffffffffff1663a9059cbb83836040518363ffffffff1660e01b8152600401611215929190611f1f565b602060405180830381600087803b15801561122f57600080fd5b505af1158015611243573d6000803e3d6000fd5b505050506040513d601f19601f820116820180604052508101906112679190611851565b507f61e27b0bfd8e18e6b92ec32ce1c28bb698d27bfe93e84c7e94d4db0a3135c760846040516112979190612142565b60405180910390a15050505050565b6112ae611468565b73ffffffffffffffffffffffffffffffffffffffff1660008054906101000a900473ffffffffffffffffffffffffffffffffffffffff1673ffffffffffffffffffffffffffffffffffffffff161461133b576040517f08c379a0000000000000000000000000000000000000000000000000000000008152600401611332906120e2565b60405180910390fd5b600073ffffffffffffffffffffffffffffffffffffffff168173ffffffffffffffffffffffffffffffffffffffff1614156113ab576040517f08c379a00000000000000000000000000000000000000000000000000000000081526004016113a290612002565b60405180910390fd5b8073ffffffffffffffffffffffffffffffffffffffff1660008054906101000a900473ffffffffffffffffffffffffffffffffffffffff1673ffffffffffffffffffffffffffffffffffffffff167f8be0079c531659141344cd1fd0a4f28419497f9722a3daafe3b4186f6b6457e060405160405180910390a3806000806101000a81548173ffffffffffffffffffffffffffffffffffffffff021916908373ffffffffffffffffffffffffffffffffffffffff16021790555050565b600033905090565b600060149054906101000a900460ff166114bf576040517f08c379a00000000000000000000000000000000000000000000000000000000081526004016114b690611fe2565b60405180910390fd5b60008060146101000a81548160ff0219169083151502179055507f5db9ee0a495bf2e6ff9c91a7834c1ba4fdd244a5e8aa4e537bd38aeae4b073aa611502611468565b60405161150f9190611ecd565b60405180910390a1565b600061152782600001611623565b9050919050565b600061153d8360000183611634565b60001c905092915050565b600060149054906101000a900460ff1615611598576040517f08c379a000000000000000000000000000000000000000000000000000000000815260040161158f90612082565b60405180910390fd5b6001600060146101000a81548160ff0219169083151502179055507f62e78cea01bee320cd4e420270b5ea74000d11b0c9f74754ebdbfc544b05a2586115dc611468565b6040516115e99190611ecd565b60405180910390a1565b600061161b836000018373ffffffffffffffffffffffffffffffffffffffff1660001b6116a1565b905092915050565b600081600001805490509050919050565b60008183600001805490501161167f576040517f08c379a000000000000000000000000000000000000000000000000000000000815260040161167690611fc2565b60405180910390fd5b82600001828154811061168e57fe5b9060005260206000200154905092915050565b60006116ad8383611711565b61170657826000018290806001815401808255809150506001900390600052602060002001600090919091909150558260000180549050836001016000848152602001908152602001600020819055506001905061170b565b600090505b92915050565b600080836001016000848152602001908152602001600020541415905092915050565b60405180608001604052806000815260200160008152602001600081526020016000151581525090565b60008135905061176d81612282565b92915050565b60008151905061178281612299565b92915050565b600081359050611797816122b0565b92915050565b6000602082840312156117af57600080fd5b60006117bd8482850161175e565b91505092915050565b600080604083850312156117d957600080fd5b60006117e78582860161175e565b92505060206117f885828601611788565b9150509250929050565b60008060006060848603121561181757600080fd5b60006118258682870161175e565b935050602061183686828701611788565b925050604061184786828701611788565b9150509250925092565b60006020828403121561186357600080fd5b600061187184828501611773565b91505092915050565b60006020828403121561188c57600080fd5b600061189a84828501611788565b91505092915050565b60006118af83836118e2565b60208301905092915050565b60006118c78383611e3f565b60808301905092915050565b6118dc81612228565b82525050565b6118eb816121e0565b82525050565b6118fa816121e0565b82525050565b600061190b8261217d565b61191581856121ad565b93506119208361215d565b8060005b8381101561195157815161193888826118a3565b975061194383612193565b925050600181019050611924565b5085935050505092915050565b600061196982612188565b61197381856121be565b935061197e8361216d565b8060005b838110156119af57815161199688826118bb565b97506119a1836121a0565b925050600181019050611982565b5085935050505092915050565b6119c5816121f2565b82525050565b6119d4816121f2565b82525050565b6119e38161223a565b82525050565b60006119f66022836121cf565b91507f456e756d657261626c655365743a20696e646578206f7574206f6620626f756e60008301527f64730000000000000000000000000000000000000000000000000000000000006020830152604082019050919050565b6000611a5c6014836121cf565b91507f5061757361626c653a206e6f74207061757365640000000000000000000000006000830152602082019050919050565b6000611a9c6026836121cf565b91507f4f776e61626c653a206e6577206f776e657220697320746865207a65726f206160008301527f64647265737300000000000000000000000000000000000000000000000000006020830152604082019050919050565b6000611b026021836121cf565b91507f56657374696e673a3a7265766f6b653a20616c7265616479207769746864726160008301527f77000000000000000000000000000000000000000000000000000000000000006020830152604082019050919050565b6000611b686041836121cf565b91507f4f776e61626c655061757361626c653a3a70617573653a206f6e6c792070617560008301527f73657220616e64206f776e6572206d75737420706175736520636f6e7472616360208301527f74000000000000000000000000000000000000000000000000000000000000006040830152606082019050919050565b6000611bf46045836121cf565b91507f4f776e61626c655061757361626c653a3a756e70617573653a206f6e6c79207060008301527f617573657220616e64206f776e6572206d75737420756e706175736520636f6e60208301527f74726163740000000000000000000000000000000000000000000000000000006040830152606082019050919050565b6000611c806010836121cf565b91507f5061757361626c653a20706175736564000000000000000000000000000000006000830152602082019050919050565b6000611cc06022836121cf565b91507f56657374696e673a3a77697468647261773a20706572696f6420697320656d7060008301527f74790000000000000000000000000000000000000000000000000000000000006020830152604082019050919050565b6000611d266020836121cf565b91507f56657374696e673a3a77697468647261773a206163636573732064656e6965646000830152602082019050919050565b6000611d666020836121cf565b91507f4f776e61626c653a2063616c6c6572206973206e6f7420746865206f776e65726000830152602082019050919050565b6000611da6601f836121cf565b91507f56657374696e673a3a6c6f636b3a20746f6f206d616e7920706572696f6473006000830152602082019050919050565b6000611de66023836121cf565b91507f56657374696e673a3a77697468647261773a20616c726561647920776974686460008301527f72617700000000000000000000000000000000000000000000000000000000006020830152604082019050919050565b608082016000820151611e556000850182611e94565b506020820151611e686020850182611e94565b506040820151611e7b6040850182611e94565b506060820151611e8e60608501826119bc565b50505050565b611e9d8161221e565b82525050565b611eac8161221e565b82525050565b6000602082019050611ec760008301846118f1565b92915050565b6000602082019050611ee260008301846118d3565b92915050565b6000606082019050611efd60008301866118d3565b611f0a60208301856118f1565b611f176040830184611ea3565b949350505050565b6000604082019050611f3460008301856118f1565b611f416020830184611ea3565b9392505050565b60006020820190508181036000830152611f628184611900565b905092915050565b60006020820190508181036000830152611f84818461195e565b905092915050565b6000602082019050611fa160008301846119cb565b92915050565b6000602082019050611fbc60008301846119da565b92915050565b60006020820190508181036000830152611fdb816119e9565b9050919050565b60006020820190508181036000830152611ffb81611a4f565b9050919050565b6000602082019050818103600083015261201b81611a8f565b9050919050565b6000602082019050818103600083015261203b81611af5565b9050919050565b6000602082019050818103600083015261205b81611b5b565b9050919050565b6000602082019050818103600083015261207b81611be7565b9050919050565b6000602082019050818103600083015261209b81611c73565b9050919050565b600060208201905081810360008301526120bb81611cb3565b9050919050565b600060208201905081810360008301526120db81611d19565b9050919050565b600060208201905081810360008301526120fb81611d59565b9050919050565b6000602082019050818103600083015261211b81611d99565b9050919050565b6000602082019050818103600083015261213b81611dd9565b9050919050565b60006020820190506121576000830184611ea3565b92915050565b6000819050602082019050919050565b6000819050602082019050919050565b600081519050919050565b600081519050919050565b6000602082019050919050565b6000602082019050919050565b600082825260208201905092915050565b600082825260208201905092915050565b600082825260208201905092915050565b60006121eb826121fe565b9050919050565b60008115159050919050565b600073ffffffffffffffffffffffffffffffffffffffff82169050919050565b6000819050919050565b60006122338261225e565b9050919050565b60006122458261224c565b9050919050565b6000612257826121fe565b9050919050565b600061226982612270565b9050919050565b600061227b826121fe565b9050919050565b61228b816121e0565b811461229657600080fd5b50565b6122a2816121f2565b81146122ad57600080fd5b50565b6122b98161221e565b81146122c457600080fd5b5056fea2646970667358221220ad006e1c101dcaabb530b9f91a22d5ea16861cdb0a61a7188cbed8218c5c658b64736f6c634300060c0033",
  "devdoc": {
    "kind": "dev",
    "methods": {
      "changePauser(address)": {
        "params": {
          "newPauser": "Address of new pauser account."
        }
      },
      "constructor": {
        "params": {
          "_bond": "Address of Bond token contract."
        }
      },
      "getParticipants()": {
        "returns": {
          "_0": "Participants addresses."
        }
      },
      "info(address)": {
        "params": {
          "recipient": "Recipient address."
        },
        "returns": {
          "_0": "Recipient periods list."
        }
      },
      "lock(address,uint256,uint256)": {
        "params": {
          "amount": "Reward amount.",
          "date": "Date of unlockd period.",
          "recipient": "Recipient of reward."
        },
        "returns": {
          "_0": "Added period identifier."
        }
      },
      "owner()": {
        "details": "Returns the address of the current owner."
      },
      "paused()": {
        "details": "Returns true if the contract is paused, and false otherwise."
      },
      "renounceOwnership()": {
        "details": "Leaves the contract without owner. It will not be possible to call `onlyOwner` functions anymore. Can only be called by the current owner. NOTE: Renouncing ownership will leave the contract without an owner, thereby removing any functionality that is only available to the owner."
      },
      "revoke(address,uint256)": {
        "params": {
          "periodId": "Period identifier.",
          "recipient": "Recipient of reward."
        }
      },
      "transferOwnership(address)": {
        "details": "Transfers ownership of the contract to a new account (`newOwner`). Can only be called by the current owner."
      },
      "withdraw(uint256)": {
        "params": {
          "periodId": "Target period identifier."
        }
      }
    },
    "stateVariables": {
      "currentPeriod": {
        "details": "Index last period."
      },
      "participants": {
        "details": "Participants list."
      },
      "periods": {
        "details": "All registered periods."
      },
      "periodsIndex": {
        "details": "Period identifiers index."
      }
    },
    "version": 1
  },
  "userdoc": {
    "events": {
      "Locked(uint256)": {
        "notice": "An event emitted when locking a period."
      },
      "PauserChanged(address)": {
        "notice": "An event thats emitted when an pauser address changed."
      },
      "Revoked(uint256)": {
        "notice": "An event emitted when revoked a period."
      },
      "Withdrawal(address,uint256)": {
        "notice": "An event emitted when withdrawal a period."
      }
    },
    "kind": "user",
    "methods": {
      "bond()": {
        "notice": "Address of Bond token."
      },
      "changePauser(address)": {
        "notice": "Change pauser account."
      },
      "getParticipants()": {
        "notice": "Return all participants addresses."
      },
      "info(address)": {
        "notice": "Get information of period."
      },
      "lock(address,uint256,uint256)": {
        "notice": "Add new period."
      },
      "maxPeriodsPerRecipient()": {
        "notice": "The number of periods for a per recipient."
      },
      "pause()": {
        "notice": "Triggers stopped state."
      },
      "pauser()": {
        "notice": "Address that can pause a contract."
      },
      "revoke(address,uint256)": {
        "notice": "Revoke period."
      },
      "unpause()": {
        "notice": "Returns to normal state."
      },
      "withdraw(uint256)": {
        "notice": "Withdraw reward."
      }
    },
    "version": 1
  },
  "storageLayout": {
    "storage": [
      {
        "astId": 30,
        "contract": "contracts/Vesting.sol:Vesting",
        "label": "_owner",
        "offset": 0,
        "slot": "0",
        "type": "t_address"
      },
      {
        "astId": 1733,
        "contract": "contracts/Vesting.sol:Vesting",
        "label": "_paused",
        "offset": 20,
        "slot": "0",
        "type": "t_bool"
      },
      {
        "astId": 11060,
        "contract": "contracts/Vesting.sol:Vesting",
        "label": "pauser",
        "offset": 0,
        "slot": "1",
        "type": "t_address"
      },
      {
        "astId": 7590,
        "contract": "contracts/Vesting.sol:Vesting",
        "label": "bond",
        "offset": 0,
        "slot": "2",
        "type": "t_contract(Bond)3169"
      },
      {
        "astId": 7603,
        "contract": "contracts/Vesting.sol:Vesting",
        "label": "currentPeriod",
        "offset": 0,
        "slot": "3",
        "type": "t_uint256"
      },
      {
        "astId": 7606,
        "contract": "contracts/Vesting.sol:Vesting",
        "label": "participants",
        "offset": 0,
        "slot": "4",
        "type": "t_struct(AddressSet)1511_storage"
      },
      {
        "astId": 7613,
        "contract": "contracts/Vesting.sol:Vesting",
        "label": "periods",
        "offset": 0,
        "slot": "6",
        "type": "t_mapping(t_address,t_mapping(t_uint256,t_struct(Period)7599_storage))"
      },
      {
        "astId": 7619,
        "contract": "contracts/Vesting.sol:Vesting",
        "label": "periodsIndex",
        "offset": 0,
        "slot": "7",
        "type": "t_mapping(t_address,t_array(t_uint256)dyn_storage)"
      }
    ],
    "types": {
      "t_address": {
        "encoding": "inplace",
        "label": "address",
        "numberOfBytes": "20"
      },
      "t_array(t_bytes32)dyn_storage": {
        "base": "t_bytes32",
        "encoding": "dynamic_array",
        "label": "bytes32[]",
        "numberOfBytes": "32"
      },
      "t_array(t_uint256)dyn_storage": {
        "base": "t_uint256",
        "encoding": "dynamic_array",
        "label": "uint256[]",
        "numberOfBytes": "32"
      },
      "t_bool": {
        "encoding": "inplace",
        "label": "bool",
        "numberOfBytes": "1"
      },
      "t_bytes32": {
        "encoding": "inplace",
        "label": "bytes32",
        "numberOfBytes": "32"
      },
      "t_contract(Bond)3169": {
        "encoding": "inplace",
        "label": "contract Bond",
        "numberOfBytes": "20"
      },
      "t_mapping(t_address,t_array(t_uint256)dyn_storage)": {
        "encoding": "mapping",
        "key": "t_address",
        "label": "mapping(address => uint256[])",
        "numberOfBytes": "32",
        "value": "t_array(t_uint256)dyn_storage"
      },
      "t_mapping(t_address,t_mapping(t_uint256,t_struct(Period)7599_storage))": {
        "encoding": "mapping",
        "key": "t_address",
        "label": "mapping(address => mapping(uint256 => struct Vesting.Period))",
        "numberOfBytes": "32",
        "value": "t_mapping(t_uint256,t_struct(Period)7599_storage)"
      },
      "t_mapping(t_bytes32,t_uint256)": {
        "encoding": "mapping",
        "key": "t_bytes32",
        "label": "mapping(bytes32 => uint256)",
        "numberOfBytes": "32",
        "value": "t_uint256"
      },
      "t_mapping(t_uint256,t_struct(Period)7599_storage)": {
        "encoding": "mapping",
        "key": "t_uint256",
        "label": "mapping(uint256 => struct Vesting.Period)",
        "numberOfBytes": "32",
        "value": "t_struct(Period)7599_storage"
      },
      "t_struct(AddressSet)1511_storage": {
        "encoding": "inplace",
        "label": "struct EnumerableSet.AddressSet",
        "members": [
          {
            "astId": 1510,
            "contract": "contracts/Vesting.sol:Vesting",
            "label": "_inner",
            "offset": 0,
            "slot": "0",
            "type": "t_struct(Set)1331_storage"
          }
        ],
        "numberOfBytes": "64"
      },
      "t_struct(Period)7599_storage": {
        "encoding": "inplace",
        "label": "struct Vesting.Period",
        "members": [
          {
            "astId": 7592,
            "contract": "contracts/Vesting.sol:Vesting",
            "label": "id",
            "offset": 0,
            "slot": "0",
            "type": "t_uint256"
          },
          {
            "astId": 7594,
            "contract": "contracts/Vesting.sol:Vesting",
            "label": "amount",
            "offset": 0,
            "slot": "1",
            "type": "t_uint256"
          },
          {
            "astId": 7596,
            "contract": "contracts/Vesting.sol:Vesting",
            "label": "date",
            "offset": 0,
            "slot": "2",
            "type": "t_uint256"
          },
          {
            "astId": 7598,
            "contract": "contracts/Vesting.sol:Vesting",
            "label": "withdrawal",
            "offset": 0,
            "slot": "3",
            "type": "t_bool"
          }
        ],
        "numberOfBytes": "128"
      },
      "t_struct(Set)1331_storage": {
        "encoding": "inplace",
        "label": "struct EnumerableSet.Set",
        "members": [
          {
            "astId": 1326,
            "contract": "contracts/Vesting.sol:Vesting",
            "label": "_values",
            "offset": 0,
            "slot": "0",
            "type": "t_array(t_bytes32)dyn_storage"
          },
          {
            "astId": 1330,
            "contract": "contracts/Vesting.sol:Vesting",
            "label": "_indexes",
            "offset": 0,
            "slot": "1",
            "type": "t_mapping(t_bytes32,t_uint256)"
          }
        ],
        "numberOfBytes": "64"
      },
      "t_uint256": {
        "encoding": "inplace",
        "label": "uint256",
        "numberOfBytes": "32"
      }
    }
  }
}