{
  "address": "0x9De189434b6342A7bc4De78b45A0922F1421211f",
  "abi": [
    {
      "anonymous": false,
      "inputs": [
        {
          "indexed": true,
          "internalType": "address",
          "name": "previousOwner",
          "type": "address"
        },
        {
          "indexed": true,
          "internalType": "address",
          "name": "newOwner",
          "type": "address"
        }
      ],
      "name": "OwnershipTransferred",
      "type": "event"
    },
    {
      "anonymous": false,
      "inputs": [],
      "name": "SharesChanged",
      "type": "event"
    },
    {
      "anonymous": false,
      "inputs": [
        {
          "indexed": false,
          "internalType": "address",
          "name": "token",
          "type": "address"
        }
      ],
      "name": "Split",
      "type": "event"
    },
    {
      "anonymous": false,
      "inputs": [
        {
          "indexed": false,
          "internalType": "address",
          "name": "vesting",
          "type": "address"
        },
        {
          "indexed": false,
          "internalType": "uint256",
          "name": "periodId",
          "type": "uint256"
        }
      ],
      "name": "VestingWithdraw",
      "type": "event"
    },
    {
      "anonymous": false,
      "inputs": [
        {
          "indexed": false,
          "internalType": "address",
          "name": "token",
          "type": "address"
        },
        {
          "indexed": false,
          "internalType": "address",
          "name": "account",
          "type": "address"
        },
        {
          "indexed": false,
          "internalType": "uint256",
          "name": "reward",
          "type": "uint256"
        }
      ],
      "name": "Withdraw",
      "type": "event"
    },
    {
      "inputs": [
        {
          "internalType": "address",
          "name": "token",
          "type": "address"
        },
        {
          "internalType": "address",
          "name": "account",
          "type": "address"
        }
      ],
      "name": "balanceOf",
      "outputs": [
        {
          "internalType": "uint256",
          "name": "",
          "type": "uint256"
        }
      ],
      "stateMutability": "view",
      "type": "function"
    },
    {
      "inputs": [
        {
          "internalType": "address[]",
          "name": "accounts",
          "type": "address[]"
        },
        {
          "internalType": "uint256[]",
          "name": "shares",
          "type": "uint256[]"
        }
      ],
      "name": "changeShares",
      "outputs": [],
      "stateMutability": "nonpayable",
      "type": "function"
    },
    {
      "inputs": [],
      "name": "getAccounts",
      "outputs": [
        {
          "internalType": "address[]",
          "name": "",
          "type": "address[]"
        }
      ],
      "stateMutability": "view",
      "type": "function"
    },
    {
      "inputs": [],
      "name": "getMaxAccounts",
      "outputs": [
        {
          "internalType": "uint256",
          "name": "",
          "type": "uint256"
        }
      ],
      "stateMutability": "pure",
      "type": "function"
    },
    {
      "inputs": [],
      "name": "owner",
      "outputs": [
        {
          "internalType": "address",
          "name": "",
          "type": "address"
        }
      ],
      "stateMutability": "view",
      "type": "function"
    },
    {
      "inputs": [],
      "name": "renounceOwnership",
      "outputs": [],
      "stateMutability": "nonpayable",
      "type": "function"
    },
    {
      "inputs": [
        {
          "internalType": "address",
          "name": "account",
          "type": "address"
        }
      ],
      "name": "shareOf",
      "outputs": [
        {
          "internalType": "uint256",
          "name": "",
          "type": "uint256"
        }
      ],
      "stateMutability": "view",
      "type": "function"
    },
    {
      "inputs": [
        {
          "internalType": "address",
          "name": "token",
          "type": "address"
        }
      ],
      "name": "split",
      "outputs": [],
      "stateMutability": "nonpayable",
      "type": "function"
    },
    {
      "inputs": [
        {
          "internalType": "address",
          "name": "",
          "type": "address"
        }
      ],
      "name": "totalSupply",
      "outputs": [
        {
          "internalType": "uint256",
          "name": "",
          "type": "uint256"
        }
      ],
      "stateMutability": "view",
      "type": "function"
    },
    {
      "inputs": [
        {
          "internalType": "address",
          "name": "newOwner",
          "type": "address"
        }
      ],
      "name": "transferOwnership",
      "outputs": [],
      "stateMutability": "nonpayable",
      "type": "function"
    },
    {
      "inputs": [
        {
          "internalType": "contract Vesting",
          "name": "vesting",
          "type": "address"
        },
        {
          "internalType": "uint256",
          "name": "periodId",
          "type": "uint256"
        }
      ],
      "name": "vestingWithdraw",
      "outputs": [],
      "stateMutability": "nonpayable",
      "type": "function"
    },
    {
      "inputs": [
        {
          "internalType": "address",
          "name": "token",
          "type": "address"
        }
      ],
      "name": "withdraw",
      "outputs": [],
      "stateMutability": "nonpayable",
      "type": "function"
    }
  ],
  "transactionHash": "0x9f712dd30d1bb43c5b8fd60778f3a941fdfdf2c1a2c91394c13bea793ae46ec0",
  "args": [],
  "solcInputHash": "202b67db786b9500763c86f1ce4783ce",
  "bytecode": "0x608060405234801561001057600080fd5b5060006100216100c460201b60201c565b9050806000806101000a81548173ffffffffffffffffffffffffffffffffffffffff021916908373ffffffffffffffffffffffffffffffffffffffff1602179055508073ffffffffffffffffffffffffffffffffffffffff16600073ffffffffffffffffffffffffffffffffffffffff167f8be0079c531659141344cd1fd0a4f28419497f9722a3daafe3b4186f6b6457e060405160405180910390a3506100cc565b600033905090565b612230806100db6000396000f3fe608060405234801561001057600080fd5b50600436106100b45760003560e01c80638da5cb5b116100715780638da5cb5b146101675780639341170a14610185578063bbc7539a146101a1578063e4dc2aa4146101bd578063f2fde38b146101ed578063f7888aec14610209576100b4565b806321e5e2c4146100b957806351cff8d9146100e957806356fa47f0146101055780636dbb4bd414610121578063715018a61461013f5780638a48ac0314610149575b600080fd5b6100d360048036038101906100ce9190611700565b610239565b6040516100e09190611fc7565b60405180910390f35b61010360048036038101906100fe9190611700565b610282565b005b61011f600480360381019061011a9190611700565b610484565b005b61012961084f565b6040516101369190611fc7565b60405180910390f35b610147610858565b005b6101516109ab565b60405161015e9190611e23565b60405180910390f35b61016f610a39565b60405161017c9190611da8565b60405180910390f35b61019f600480360381019061019a9190611765565b610a62565b005b6101bb60048036038101906101b691906117fa565b610d0b565b005b6101d760048036038101906101d29190611700565b610db3565b6040516101e49190611fc7565b60405180910390f35b61020760048036038101906102029190611700565b610dcb565b005b610223600480360381019061021e9190611729565b610f8d565b6040516102309190611fc7565b60405180910390f35b6000600460008373ffffffffffffffffffffffffffffffffffffffff1673ffffffffffffffffffffffffffffffffffffffff168152602001908152602001600020549050919050565b6000600260008373ffffffffffffffffffffffffffffffffffffffff1673ffffffffffffffffffffffffffffffffffffffff16815260200190815260200160002060003373ffffffffffffffffffffffffffffffffffffffff1673ffffffffffffffffffffffffffffffffffffffff1681526020019081526020016000205490506000600260008473ffffffffffffffffffffffffffffffffffffffff1673ffffffffffffffffffffffffffffffffffffffff16815260200190815260200160002060003373ffffffffffffffffffffffffffffffffffffffff1673ffffffffffffffffffffffffffffffffffffffff168152602001908152602001600020819055506103d781600160008573ffffffffffffffffffffffffffffffffffffffff1673ffffffffffffffffffffffffffffffffffffffff1681526020019081526020016000205461101490919063ffffffff16565b600160008473ffffffffffffffffffffffffffffffffffffffff1673ffffffffffffffffffffffffffffffffffffffff1681526020019081526020016000208190555061044533828473ffffffffffffffffffffffffffffffffffffffff1661105e9092919063ffffffff16565b7f9b1bfa7fa9ee420a16e124f794c35ac9f90472acc99140eb2f6447c714cad8eb82338360405161047893929190611dc3565b60405180910390a15050565b6000610560600160008473ffffffffffffffffffffffffffffffffffffffff1673ffffffffffffffffffffffffffffffffffffffff168152602001908152602001600020548373ffffffffffffffffffffffffffffffffffffffff166370a08231306040518263ffffffff1660e01b81526004016105029190611da8565b60206040518083038186803b15801561051a57600080fd5b505afa15801561052e573d6000803e3d6000fd5b505050506040513d601f19601f820116820180604052508101906105529190611836565b61101490919063ffffffff16565b9050600081116105a5576040517f08c379a000000000000000000000000000000000000000000000000000000000815260040161059c90611ec7565b60405180910390fd5b60005b600380549050811015610813576000600382815481106105c457fe5b9060005260206000200160009054906101000a900473ffffffffffffffffffffffffffffffffffffffff1690506000600460008373ffffffffffffffffffffffffffffffffffffffff1673ffffffffffffffffffffffffffffffffffffffff168152602001908152602001600020549050600061065d8261064f6064886110e490919063ffffffff16565b61112e90919063ffffffff16565b90506106ee81600260008973ffffffffffffffffffffffffffffffffffffffff1673ffffffffffffffffffffffffffffffffffffffff16815260200190815260200160002060008673ffffffffffffffffffffffffffffffffffffffff1673ffffffffffffffffffffffffffffffffffffffff1681526020019081526020016000205461119e90919063ffffffff16565b600260008873ffffffffffffffffffffffffffffffffffffffff1673ffffffffffffffffffffffffffffffffffffffff16815260200190815260200160002060008573ffffffffffffffffffffffffffffffffffffffff1673ffffffffffffffffffffffffffffffffffffffff168152602001908152602001600020819055506107c081600160008973ffffffffffffffffffffffffffffffffffffffff1673ffffffffffffffffffffffffffffffffffffffff1681526020019081526020016000205461119e90919063ffffffff16565b600160008873ffffffffffffffffffffffffffffffffffffffff1673ffffffffffffffffffffffffffffffffffffffff1681526020019081526020016000208190555050505080806001019150506105a8565b507fd54a497a40ae458299f3247b4e63c940f7924a3f8b8b9edf5f94a8120e80c117826040516108439190611da8565b60405180910390a15050565b60006064905090565b6108606111f3565b73ffffffffffffffffffffffffffffffffffffffff1660008054906101000a900473ffffffffffffffffffffffffffffffffffffffff1673ffffffffffffffffffffffffffffffffffffffff16146108ed576040517f08c379a00000000000000000000000000000000000000000000000000000000081526004016108e490611f27565b60405180910390fd5b600073ffffffffffffffffffffffffffffffffffffffff1660008054906101000a900473ffffffffffffffffffffffffffffffffffffffff1673ffffffffffffffffffffffffffffffffffffffff167f8be0079c531659141344cd1fd0a4f28419497f9722a3daafe3b4186f6b6457e060405160405180910390a360008060006101000a81548173ffffffffffffffffffffffffffffffffffffffff021916908373ffffffffffffffffffffffffffffffffffffffff160217905550565b60606003805480602002602001604051908101604052809291908181526020018280548015610a2f57602002820191906000526020600020905b8160009054906101000a900473ffffffffffffffffffffffffffffffffffffffff1673ffffffffffffffffffffffffffffffffffffffff16815260200190600101908083116109e5575b5050505050905090565b60008060009054906101000a900473ffffffffffffffffffffffffffffffffffffffff16905090565b610a6a6111f3565b73ffffffffffffffffffffffffffffffffffffffff1660008054906101000a900473ffffffffffffffffffffffffffffffffffffffff1673ffffffffffffffffffffffffffffffffffffffff1614610af7576040517f08c379a0000000000000000000000000000000000000000000000000000000008152600401610aee90611f27565b60405180910390fd5b610aff61084f565b82511115610b42576040517f08c379a0000000000000000000000000000000000000000000000000000000008152600401610b3990611f47565b60405180910390fd5b8051825114610b86576040517f08c379a0000000000000000000000000000000000000000000000000000000008152600401610b7d90611e67565b60405180910390fd5b600080600090505b8351811015610c7f576000848281518110610ba557fe5b602002602001015190506000848381518110610bbd57fe5b6020026020010151905060648111158015610bd85750600081115b610c17576040517f08c379a0000000000000000000000000000000000000000000000000000000008152600401610c0e90611f07565b60405180910390fd5b80600460008473ffffffffffffffffffffffffffffffffffffffff1673ffffffffffffffffffffffffffffffffffffffff16815260200190815260200160002081905550610c6e818561119e90919063ffffffff16565b935050508080600101915050610b8e565b5060648114610cc3576040517f08c379a0000000000000000000000000000000000000000000000000000000008152600401610cba90611f87565b60405180910390fd5b8260039080519060200190610cd99291906114cc565b507fc3f1591f132864f89c86569379ff83036d5c5faa28d6ce4b3c9b9a2d21364c0860405160405180910390a1505050565b8173ffffffffffffffffffffffffffffffffffffffff16632e1a7d4d826040518263ffffffff1660e01b8152600401610d449190611fc7565b600060405180830381600087803b158015610d5e57600080fd5b505af1158015610d72573d6000803e3d6000fd5b505050507f97ea5c7a76cabd16d669e80b9f5972997a27a2e8ae7a1f3daf7d6bc92f9365878282604051610da7929190611dfa565b60405180910390a15050565b60016020528060005260406000206000915090505481565b610dd36111f3565b73ffffffffffffffffffffffffffffffffffffffff1660008054906101000a900473ffffffffffffffffffffffffffffffffffffffff1673ffffffffffffffffffffffffffffffffffffffff1614610e60576040517f08c379a0000000000000000000000000000000000000000000000000000000008152600401610e5790611f27565b60405180910390fd5b600073ffffffffffffffffffffffffffffffffffffffff168173ffffffffffffffffffffffffffffffffffffffff161415610ed0576040517f08c379a0000000000000000000000000000000000000000000000000000000008152600401610ec790611e87565b60405180910390fd5b8073ffffffffffffffffffffffffffffffffffffffff1660008054906101000a900473ffffffffffffffffffffffffffffffffffffffff1673ffffffffffffffffffffffffffffffffffffffff167f8be0079c531659141344cd1fd0a4f28419497f9722a3daafe3b4186f6b6457e060405160405180910390a3806000806101000a81548173ffffffffffffffffffffffffffffffffffffffff021916908373ffffffffffffffffffffffffffffffffffffffff16021790555050565b6000600260008473ffffffffffffffffffffffffffffffffffffffff1673ffffffffffffffffffffffffffffffffffffffff16815260200190815260200160002060008373ffffffffffffffffffffffffffffffffffffffff1673ffffffffffffffffffffffffffffffffffffffff16815260200190815260200160002054905092915050565b600061105683836040518060400160405280601e81526020017f536166654d6174683a207375627472616374696f6e206f766572666c6f7700008152506111fb565b905092915050565b6110df8363a9059cbb60e01b848460405160240161107d929190611dfa565b604051602081830303815290604052907bffffffffffffffffffffffffffffffffffffffffffffffffffffffff19166020820180517bffffffffffffffffffffffffffffffffffffffffffffffffffffffff8381831617835250505050611256565b505050565b600061112683836040518060400160405280601a81526020017f536166654d6174683a206469766973696f6e206279207a65726f00000000000081525061131d565b905092915050565b6000808314156111415760009050611198565b600082840290508284828161115257fe5b0414611193576040517f08c379a000000000000000000000000000000000000000000000000000000000815260040161118a90611ee7565b60405180910390fd5b809150505b92915050565b6000808284019050838110156111e9576040517f08c379a00000000000000000000000000000000000000000000000000000000081526004016111e090611ea7565b60405180910390fd5b8091505092915050565b600033905090565b6000838311158290611243576040517f08c379a000000000000000000000000000000000000000000000000000000000815260040161123a9190611e45565b60405180910390fd5b5060008385039050809150509392505050565b60606112b8826040518060400160405280602081526020017f5361666545524332303a206c6f772d6c6576656c2063616c6c206661696c65648152508573ffffffffffffffffffffffffffffffffffffffff1661137e9092919063ffffffff16565b905060008151111561131857808060200190518101906112d891906117d1565b611317576040517f08c379a000000000000000000000000000000000000000000000000000000000815260040161130e90611fa7565b60405180910390fd5b5b505050565b60008083118290611364576040517f08c379a000000000000000000000000000000000000000000000000000000000815260040161135b9190611e45565b60405180910390fd5b50600083858161137057fe5b049050809150509392505050565b606061138d8484600085611396565b90509392505050565b60606113a1856114b9565b6113e0576040517f08c379a00000000000000000000000000000000000000000000000000000000081526004016113d790611f67565b60405180910390fd5b600060608673ffffffffffffffffffffffffffffffffffffffff16858760405161140a9190611d91565b60006040518083038185875af1925050503d8060008114611447576040519150601f19603f3d011682016040523d82523d6000602084013e61144c565b606091505b509150915081156114615780925050506114b1565b6000815111156114745780518082602001fd5b836040517f08c379a00000000000000000000000000000000000000000000000000000000081526004016114a89190611e45565b60405180910390fd5b949350505050565b600080823b905060008111915050919050565b828054828255906000526020600020908101928215611545579160200282015b828111156115445782518260006101000a81548173ffffffffffffffffffffffffffffffffffffffff021916908373ffffffffffffffffffffffffffffffffffffffff160217905550916020019190600101906114ec565b5b5090506115529190611556565b5090565b5b8082111561158d57600081816101000a81549073ffffffffffffffffffffffffffffffffffffffff021916905550600101611557565b5090565b6000813590506115a08161219e565b92915050565b600082601f8301126115b757600080fd5b81356115ca6115c58261200f565b611fe2565b915081818352602084019350602081019050838560208402820111156115ef57600080fd5b60005b8381101561161f57816116058882611591565b8452602084019350602083019250506001810190506115f2565b5050505092915050565b600082601f83011261163a57600080fd5b813561164d61164882612037565b611fe2565b9150818183526020840193506020810190508385602084028201111561167257600080fd5b60005b838110156116a2578161168888826116d6565b845260208401935060208301925050600181019050611675565b5050505092915050565b6000815190506116bb816121b5565b92915050565b6000813590506116d0816121cc565b92915050565b6000813590506116e5816121e3565b92915050565b6000815190506116fa816121e3565b92915050565b60006020828403121561171257600080fd5b600061172084828501611591565b91505092915050565b6000806040838503121561173c57600080fd5b600061174a85828601611591565b925050602061175b85828601611591565b9150509250929050565b6000806040838503121561177857600080fd5b600083013567ffffffffffffffff81111561179257600080fd5b61179e858286016115a6565b925050602083013567ffffffffffffffff8111156117bb57600080fd5b6117c785828601611629565b9150509250929050565b6000602082840312156117e357600080fd5b60006117f1848285016116ac565b91505092915050565b6000806040838503121561180d57600080fd5b600061181b858286016116c1565b925050602061182c858286016116d6565b9150509250929050565b60006020828403121561184857600080fd5b6000611856848285016116eb565b91505092915050565b600061186b8383611886565b60208301905092915050565b61188081612124565b82525050565b61188f816120ca565b82525050565b61189e816120ca565b82525050565b60006118af8261206f565b6118b9818561209d565b93506118c48361205f565b8060005b838110156118f55781516118dc888261185f565b97506118e783612090565b9250506001810190506118c8565b5085935050505092915050565b600061190d8261207a565b61191781856120ae565b935061192781856020860161215a565b80840191505092915050565b600061193e82612085565b61194881856120b9565b935061195881856020860161215a565b6119618161218d565b840191505092915050565b60006119796049836120b9565b91507f56657374696e6753706c69747465723a3a6368616e67655368617265733a207360008301527f68617265732066756e6374696f6e20696e666f726d6174696f6e20617269747960208301527f206d69736d6174636800000000000000000000000000000000000000000000006040830152606082019050919050565b6000611a056026836120b9565b91507f4f776e61626c653a206e6577206f776e657220697320746865207a65726f206160008301527f64647265737300000000000000000000000000000000000000000000000000006020830152604082019050919050565b6000611a6b601b836120b9565b91507f536166654d6174683a206164646974696f6e206f766572666c6f7700000000006000830152602082019050919050565b6000611aab6025836120b9565b91507f56657374696e6753706c69747465723a3a73706c69743a20656d70747920626160008301527f6c616e63650000000000000000000000000000000000000000000000000000006020830152604082019050919050565b6000611b116021836120b9565b91507f536166654d6174683a206d756c7469706c69636174696f6e206f766572666c6f60008301527f77000000000000000000000000000000000000000000000000000000000000006020830152604082019050919050565b6000611b776035836120b9565b91507f56657374696e6753706c69747465723a3a6368616e67655368617265733a206960008301527f6e76616c69642076616c7565206f6620736861726500000000000000000000006020830152604082019050919050565b6000611bdd6020836120b9565b91507f4f776e61626c653a2063616c6c6572206973206e6f7420746865206f776e65726000830152602082019050919050565b6000611c1d6030836120b9565b91507f56657374696e6753706c69747465723a3a6368616e67655368617265733a207460008301527f6f6f206d616e79206163636f756e7473000000000000000000000000000000006020830152604082019050919050565b6000611c83601d836120b9565b91507f416464726573733a2063616c6c20746f206e6f6e2d636f6e74726163740000006000830152602082019050919050565b6000611cc36034836120b9565b91507f56657374696e6753706c69747465723a3a6368616e67655368617265733a206960008301527f6e76616c69642073756d206f66207368617265730000000000000000000000006020830152604082019050919050565b6000611d29602a836120b9565b91507f5361666545524332303a204552433230206f7065726174696f6e20646964206e60008301527f6f742073756363656564000000000000000000000000000000000000000000006020830152604082019050919050565b611d8b8161211a565b82525050565b6000611d9d8284611902565b915081905092915050565b6000602082019050611dbd6000830184611895565b92915050565b6000606082019050611dd86000830186611895565b611de56020830185611877565b611df26040830184611d82565b949350505050565b6000604082019050611e0f6000830185611895565b611e1c6020830184611d82565b9392505050565b60006020820190508181036000830152611e3d81846118a4565b905092915050565b60006020820190508181036000830152611e5f8184611933565b905092915050565b60006020820190508181036000830152611e808161196c565b9050919050565b60006020820190508181036000830152611ea0816119f8565b9050919050565b60006020820190508181036000830152611ec081611a5e565b9050919050565b60006020820190508181036000830152611ee081611a9e565b9050919050565b60006020820190508181036000830152611f0081611b04565b9050919050565b60006020820190508181036000830152611f2081611b6a565b9050919050565b60006020820190508181036000830152611f4081611bd0565b9050919050565b60006020820190508181036000830152611f6081611c10565b9050919050565b60006020820190508181036000830152611f8081611c76565b9050919050565b60006020820190508181036000830152611fa081611cb6565b9050919050565b60006020820190508181036000830152611fc081611d1c565b9050919050565b6000602082019050611fdc6000830184611d82565b92915050565b6000604051905081810181811067ffffffffffffffff8211171561200557600080fd5b8060405250919050565b600067ffffffffffffffff82111561202657600080fd5b602082029050602081019050919050565b600067ffffffffffffffff82111561204e57600080fd5b602082029050602081019050919050565b6000819050602082019050919050565b600081519050919050565b600081519050919050565b600081519050919050565b6000602082019050919050565b600082825260208201905092915050565b600081905092915050565b600082825260208201905092915050565b60006120d5826120fa565b9050919050565b60008115159050919050565b60006120f3826120ca565b9050919050565b600073ffffffffffffffffffffffffffffffffffffffff82169050919050565b6000819050919050565b600061212f82612136565b9050919050565b600061214182612148565b9050919050565b6000612153826120fa565b9050919050565b60005b8381101561217857808201518184015260208101905061215d565b83811115612187576000848401525b50505050565b6000601f19601f8301169050919050565b6121a7816120ca565b81146121b257600080fd5b50565b6121be816120dc565b81146121c957600080fd5b50565b6121d5816120e8565b81146121e057600080fd5b50565b6121ec8161211a565b81146121f757600080fd5b5056fea264697066735822122048c23ebd305e12b44bd8596a3d1b9cc946662a81ff18f8cc36fec6404061494064736f6c634300060c0033",
  "devdoc": {
    "kind": "dev",
    "methods": {
      "balanceOf(address,address)": {
        "params": {
          "account": "Target account.",
          "token": "Target token."
        },
        "returns": {
          "_0": "Balance of account."
        }
      },
      "changeShares(address[],uint256[])": {
        "params": {
          "accounts": "Accounts list.",
          "shares": "Shares in split."
        }
      },
      "getAccounts()": {
        "returns": {
          "_0": "Addresses of all accounts with share."
        }
      },
      "getMaxAccounts()": {
        "returns": {
          "_0": "Max accounts for split."
        }
      },
      "owner()": {
        "details": "Returns the address of the current owner."
      },
      "renounceOwnership()": {
        "details": "Leaves the contract without owner. It will not be possible to call `onlyOwner` functions anymore. Can only be called by the current owner. NOTE: Renouncing ownership will leave the contract without an owner, thereby removing any functionality that is only available to the owner."
      },
      "shareOf(address)": {
        "params": {
          "account": "Target account."
        },
        "returns": {
          "_0": "Share in split."
        }
      },
      "split(address)": {
        "params": {
          "token": "Target token."
        }
      },
      "transferOwnership(address)": {
        "details": "Transfers ownership of the contract to a new account (`newOwner`). Can only be called by the current owner."
      },
      "vestingWithdraw(address,uint256)": {
        "params": {
          "periodId": "Target vesting period.",
          "vesting": "Address of vesting contract."
        }
      },
      "withdraw(address)": {
        "params": {
          "token": "Target token."
        }
      }
    },
    "stateVariables": {
      "_accounts": {
        "details": "Accounts list."
      },
      "_balances": {
        "details": "Accounts balances."
      },
      "_share": {
        "details": "Shares of account in split."
      }
    },
    "version": 1
  },
  "userdoc": {
    "events": {
      "SharesChanged()": {
        "notice": "An event emitted when shares changed."
      },
      "Split(address)": {
        "notice": "An event emitted when split a balance."
      },
      "VestingWithdraw(address,uint256)": {
        "notice": "An event emitted when vesting period withdrawal."
      },
      "Withdraw(address,address,uint256)": {
        "notice": "An event emitted when withdrawal a token."
      }
    },
    "kind": "user",
    "methods": {
      "balanceOf(address,address)": {
        "notice": "Get balance of account."
      },
      "changeShares(address[],uint256[])": {
        "notice": "Change shares of accounts in split."
      },
      "getAccounts()": {
        "notice": "Get accounts with share list."
      },
      "getMaxAccounts()": {
        "notice": "Get accounts limit for split."
      },
      "shareOf(address)": {
        "notice": "Get share of account in split."
      },
      "split(address)": {
        "notice": "Split token to all accounts."
      },
      "totalSupply(address)": {
        "notice": "Distributed tokens."
      },
      "vestingWithdraw(address,uint256)": {
        "notice": "Withdraw reward from vesting contract."
      },
      "withdraw(address)": {
        "notice": "Withdraw token balance to sender."
      }
    },
    "version": 1
  },
  "storageLayout": {
    "storage": [
      {
        "astId": 30,
        "contract": "contracts/VestingSplitter.sol:VestingSplitter",
        "label": "_owner",
        "offset": 0,
        "slot": "0",
        "type": "t_address"
      },
      {
        "astId": 8603,
        "contract": "contracts/VestingSplitter.sol:VestingSplitter",
        "label": "totalSupply",
        "offset": 0,
        "slot": "1",
        "type": "t_mapping(t_address,t_uint256)"
      },
      {
        "astId": 8610,
        "contract": "contracts/VestingSplitter.sol:VestingSplitter",
        "label": "_balances",
        "offset": 0,
        "slot": "2",
        "type": "t_mapping(t_address,t_mapping(t_address,t_uint256))"
      },
      {
        "astId": 8614,
        "contract": "contracts/VestingSplitter.sol:VestingSplitter",
        "label": "_accounts",
        "offset": 0,
        "slot": "3",
        "type": "t_array(t_address)dyn_storage"
      },
      {
        "astId": 8619,
        "contract": "contracts/VestingSplitter.sol:VestingSplitter",
        "label": "_share",
        "offset": 0,
        "slot": "4",
        "type": "t_mapping(t_address,t_uint256)"
      }
    ],
    "types": {
      "t_address": {
        "encoding": "inplace",
        "label": "address",
        "numberOfBytes": "20"
      },
      "t_array(t_address)dyn_storage": {
        "base": "t_address",
        "encoding": "dynamic_array",
        "label": "address[]",
        "numberOfBytes": "32"
      },
      "t_mapping(t_address,t_mapping(t_address,t_uint256))": {
        "encoding": "mapping",
        "key": "t_address",
        "label": "mapping(address => mapping(address => uint256))",
        "numberOfBytes": "32",
        "value": "t_mapping(t_address,t_uint256)"
      },
      "t_mapping(t_address,t_uint256)": {
        "encoding": "mapping",
        "key": "t_address",
        "label": "mapping(address => uint256)",
        "numberOfBytes": "32",
        "value": "t_uint256"
      },
      "t_uint256": {
        "encoding": "inplace",
        "label": "uint256",
        "numberOfBytes": "32"
      }
    }
  }
}