{
  "address": "0x25E3322B599c7ECf76bB48a77073BBd5cf105aa2",
  "abi": [
    {
      "inputs": [
        {
          "internalType": "address",
          "name": "_token",
          "type": "address"
        }
      ],
      "stateMutability": "nonpayable",
      "type": "constructor"
    },
    {
      "anonymous": false,
      "inputs": [
        {
          "indexed": false,
          "internalType": "uint256",
          "name": "periodId",
          "type": "uint256"
        }
      ],
      "name": "Locked",
      "type": "event"
    },
    {
      "anonymous": false,
      "inputs": [
        {
          "indexed": true,
          "internalType": "address",
          "name": "previousOwner",
          "type": "address"
        },
        {
          "indexed": true,
          "internalType": "address",
          "name": "newOwner",
          "type": "address"
        }
      ],
      "name": "OwnershipTransferred",
      "type": "event"
    },
    {
      "anonymous": false,
      "inputs": [
        {
          "indexed": false,
          "internalType": "address",
          "name": "account",
          "type": "address"
        }
      ],
      "name": "Paused",
      "type": "event"
    },
    {
      "anonymous": false,
      "inputs": [
        {
          "indexed": false,
          "internalType": "address",
          "name": "newPauser",
          "type": "address"
        }
      ],
      "name": "PauserChanged",
      "type": "event"
    },
    {
      "anonymous": false,
      "inputs": [
        {
          "indexed": false,
          "internalType": "uint256",
          "name": "periodId",
          "type": "uint256"
        }
      ],
      "name": "Revoked",
      "type": "event"
    },
    {
      "anonymous": false,
      "inputs": [
        {
          "indexed": false,
          "internalType": "address",
          "name": "account",
          "type": "address"
        }
      ],
      "name": "Unpaused",
      "type": "event"
    },
    {
      "anonymous": false,
      "inputs": [
        {
          "indexed": false,
          "internalType": "address",
          "name": "recipient",
          "type": "address"
        },
        {
          "indexed": false,
          "internalType": "uint256",
          "name": "periodId",
          "type": "uint256"
        }
      ],
      "name": "Withdrawal",
      "type": "event"
    },
    {
      "inputs": [
        {
          "internalType": "address",
          "name": "newPauser",
          "type": "address"
        }
      ],
      "name": "changePauser",
      "outputs": [],
      "stateMutability": "nonpayable",
      "type": "function"
    },
    {
      "inputs": [],
      "name": "getParticipants",
      "outputs": [
        {
          "internalType": "address[]",
          "name": "",
          "type": "address[]"
        }
      ],
      "stateMutability": "view",
      "type": "function"
    },
    {
      "inputs": [
        {
          "internalType": "address",
          "name": "recipient",
          "type": "address"
        }
      ],
      "name": "info",
      "outputs": [
        {
          "components": [
            {
              "internalType": "uint256",
              "name": "id",
              "type": "uint256"
            },
            {
              "internalType": "uint256",
              "name": "amount",
              "type": "uint256"
            },
            {
              "internalType": "uint256",
              "name": "date",
              "type": "uint256"
            },
            {
              "internalType": "bool",
              "name": "withdrawal",
              "type": "bool"
            }
          ],
          "internalType": "struct Vesting.Period[]",
          "name": "",
          "type": "tuple[]"
        }
      ],
      "stateMutability": "view",
      "type": "function"
    },
    {
      "inputs": [
        {
          "internalType": "address",
          "name": "recipient",
          "type": "address"
        },
        {
          "internalType": "uint256",
          "name": "amount",
          "type": "uint256"
        },
        {
          "internalType": "uint256",
          "name": "date",
          "type": "uint256"
        }
      ],
      "name": "lock",
      "outputs": [
        {
          "internalType": "uint256",
          "name": "",
          "type": "uint256"
        }
      ],
      "stateMutability": "nonpayable",
      "type": "function"
    },
    {
      "inputs": [],
      "name": "maxPeriodsPerRecipient",
      "outputs": [
        {
          "internalType": "uint256",
          "name": "",
          "type": "uint256"
        }
      ],
      "stateMutability": "pure",
      "type": "function"
    },
    {
      "inputs": [],
      "name": "owner",
      "outputs": [
        {
          "internalType": "address",
          "name": "",
          "type": "address"
        }
      ],
      "stateMutability": "view",
      "type": "function"
    },
    {
      "inputs": [],
      "name": "pause",
      "outputs": [],
      "stateMutability": "nonpayable",
      "type": "function"
    },
    {
      "inputs": [],
      "name": "paused",
      "outputs": [
        {
          "internalType": "bool",
          "name": "",
          "type": "bool"
        }
      ],
      "stateMutability": "view",
      "type": "function"
    },
    {
      "inputs": [],
      "name": "pauser",
      "outputs": [
        {
          "internalType": "address",
          "name": "",
          "type": "address"
        }
      ],
      "stateMutability": "view",
      "type": "function"
    },
    {
      "inputs": [],
      "name": "renounceOwnership",
      "outputs": [],
      "stateMutability": "nonpayable",
      "type": "function"
    },
    {
      "inputs": [
        {
          "internalType": "address",
          "name": "recipient",
          "type": "address"
        },
        {
          "internalType": "uint256",
          "name": "periodId",
          "type": "uint256"
        }
      ],
      "name": "revoke",
      "outputs": [],
      "stateMutability": "nonpayable",
      "type": "function"
    },
    {
      "inputs": [],
      "name": "token",
      "outputs": [
        {
          "internalType": "contract ERC20",
          "name": "",
          "type": "address"
        }
      ],
      "stateMutability": "view",
      "type": "function"
    },
    {
      "inputs": [
        {
          "internalType": "address",
          "name": "newOwner",
          "type": "address"
        }
      ],
      "name": "transferOwnership",
      "outputs": [],
      "stateMutability": "nonpayable",
      "type": "function"
    },
    {
      "inputs": [],
      "name": "unpause",
      "outputs": [],
      "stateMutability": "nonpayable",
      "type": "function"
    },
    {
      "inputs": [
        {
          "internalType": "uint256",
          "name": "periodId",
          "type": "uint256"
        }
      ],
      "name": "withdraw",
      "outputs": [],
      "stateMutability": "nonpayable",
      "type": "function"
    }
  ],
  "transactionHash": "0xe68bec947733d46807edf34d8bc9082778cebeb5387b3355f3b6c308aa2d8b78",
  "args": [
    "0xd1bBEe39864513C4059Aca4340de74A47C9D1572"
  ],
  "solcInputHash": "16a5cdff6144b8dfd8c7db1f0d40ee55",
  "bytecode": "0x608060405260006003553480156200001657600080fd5b50604051620029563803806200295683398181016040528101906200003c9190620001e6565b60006200004e6200019e60201b60201c565b9050806000806101000a81548173ffffffffffffffffffffffffffffffffffffffff021916908373ffffffffffffffffffffffffffffffffffffffff1602179055508073ffffffffffffffffffffffffffffffffffffffff16600073ffffffffffffffffffffffffffffffffffffffff167f8be0079c531659141344cd1fd0a4f28419497f9722a3daafe3b4186f6b6457e060405160405180910390a35060008060146101000a81548160ff02191690831515021790555062000116620001a660201b60201c565b600160006101000a81548173ffffffffffffffffffffffffffffffffffffffff021916908373ffffffffffffffffffffffffffffffffffffffff16021790555080600260006101000a81548173ffffffffffffffffffffffffffffffffffffffff021916908373ffffffffffffffffffffffffffffffffffffffff1602179055505062000260565b600033905090565b60008060009054906101000a900473ffffffffffffffffffffffffffffffffffffffff16905090565b600081519050620001e08162000246565b92915050565b600060208284031215620001f957600080fd5b60006200020984828501620001cf565b91505092915050565b60006200021f8262000226565b9050919050565b600073ffffffffffffffffffffffffffffffffffffffff82169050919050565b620002518162000212565b81146200025d57600080fd5b50565b6126e680620002706000396000f3fe608060405234801561001057600080fd5b50600436106100f55760003560e01c8063715018a611610097578063e2ab691d11610066578063e2ab691d14610216578063eac449d914610246578063f2fde38b14610262578063fc0c546a1461027e576100f5565b8063715018a6146101c65780638456cb59146101d05780638da5cb5b146101da5780639fd0506d146101f8576100f5565b80633f4ba83a116100d35780633f4ba83a1461016257806351c2c1cc1461016c5780635aa68ac01461018a5780635c975abb146101a8576100f5565b80630aae7a6b146100fa5780632cd271e71461012a5780632e1a7d4d14610146575b600080fd5b610114600480360381019061010f9190611998565b61029c565b604051610121919061228c565b60405180910390f35b610144600480360381019061013f9190611998565b61049e565b005b610160600480360381019061015b9190611a75565b6105d0565b005b61016a61080b565b005b6101746108f0565b60405161018191906124c6565b60405180910390f35b6101926108f9565b60405161019f919061226a565b60405180910390f35b6101b06109d1565b6040516101bd91906122ae565b60405180910390f35b6101ce6109e7565b005b6101d8610b3a565b005b6101e2610c1f565b6040516101ef91906121d4565b60405180910390f35b610200610c48565b60405161020d91906121d4565b60405180910390f35b610230600480360381019061022b91906119fd565b610c6e565b60405161023d91906124c6565b60405180910390f35b610260600480360381019061025b91906119c1565b610f72565b005b61027c60048036038101906102779190611998565b611157565b005b610286611319565b60405161029391906122c9565b60405180910390f35b606080600760008473ffffffffffffffffffffffffffffffffffffffff1673ffffffffffffffffffffffffffffffffffffffff1681526020019081526020016000208054905067ffffffffffffffff811180156102f857600080fd5b5060405190808252806020026020018201604052801561033257816020015b61031f61192f565b8152602001906001900390816103175790505b50905060005b600760008573ffffffffffffffffffffffffffffffffffffffff1673ffffffffffffffffffffffffffffffffffffffff16815260200190815260200160002080549050811015610494576000600760008673ffffffffffffffffffffffffffffffffffffffff1673ffffffffffffffffffffffffffffffffffffffff16815260200190815260200160002082815481106103ce57fe5b90600052602060002001549050600660008673ffffffffffffffffffffffffffffffffffffffff1673ffffffffffffffffffffffffffffffffffffffff16815260200190815260200160002060008281526020019081526020016000206040518060800160405290816000820154815260200160018201548152602001600282015481526020016003820160009054906101000a900460ff16151515158152505083838151811061047b57fe5b6020026020010181905250508080600101915050610338565b5080915050919050565b6104a661133f565b73ffffffffffffffffffffffffffffffffffffffff1660008054906101000a900473ffffffffffffffffffffffffffffffffffffffff1673ffffffffffffffffffffffffffffffffffffffff1614610533576040517f08c379a000000000000000000000000000000000000000000000000000000000815260040161052a90612426565b60405180910390fd5b80600160006101000a81548173ffffffffffffffffffffffffffffffffffffffff021916908373ffffffffffffffffffffffffffffffffffffffff1602179055507fb80482a293ca2e013eda8683c9bd7fc8347cfdaeea5ede58cba46df502c2a604600160009054906101000a900473ffffffffffffffffffffffffffffffffffffffff166040516105c591906121d4565b60405180910390a150565b600060149054906101000a900460ff1615610620576040517f08c379a0000000000000000000000000000000000000000000000000000000008152600401610617906123c6565b60405180910390fd5b600061062a61133f565b90506000600660008373ffffffffffffffffffffffffffffffffffffffff1673ffffffffffffffffffffffffffffffffffffffff1681526020019081526020016000206000848152602001908152602001600020905060008160010154116106c7576040517f08c379a00000000000000000000000000000000000000000000000000000000081526004016106be906123e6565b60405180910390fd5b8060030160009054906101000a900460ff1615610719576040517f08c379a0000000000000000000000000000000000000000000000000000000008152600401610710906124a6565b60405180910390fd5b8060020154421161075f576040517f08c379a000000000000000000000000000000000000000000000000000000000815260040161075690612406565b60405180910390fd5b60018160030160006101000a81548160ff0219169083151502179055506107cd828260010154600260009054906101000a900473ffffffffffffffffffffffffffffffffffffffff1673ffffffffffffffffffffffffffffffffffffffff166113479092919063ffffffff16565b7f7fcf532c15f0a6db0bd6d0e038bea71d30d808c7d98cb3bf7268a95bf5081b6582846040516107fe929190612241565b60405180910390a1505050565b61081361133f565b73ffffffffffffffffffffffffffffffffffffffff16600160009054906101000a900473ffffffffffffffffffffffffffffffffffffffff1673ffffffffffffffffffffffffffffffffffffffff1614806108a7575061087161133f565b73ffffffffffffffffffffffffffffffffffffffff1661088f610c1f565b73ffffffffffffffffffffffffffffffffffffffff16145b6108e6576040517f08c379a00000000000000000000000000000000000000000000000000000000081526004016108dd906123a6565b60405180910390fd5b6108ee6113cd565b565b60006005905090565b6060806109066004611476565b67ffffffffffffffff8111801561091c57600080fd5b5060405190808252806020026020018201604052801561094b5781602001602082028036833780820191505090505b50905060005b61095b6004611476565b8110156109c95761097681600461148b90919063ffffffff16565b82828151811061098257fe5b602002602001019073ffffffffffffffffffffffffffffffffffffffff16908173ffffffffffffffffffffffffffffffffffffffff16815250508080600101915050610951565b508091505090565b60008060149054906101000a900460ff16905090565b6109ef61133f565b73ffffffffffffffffffffffffffffffffffffffff1660008054906101000a900473ffffffffffffffffffffffffffffffffffffffff1673ffffffffffffffffffffffffffffffffffffffff1614610a7c576040517f08c379a0000000000000000000000000000000000000000000000000000000008152600401610a7390612426565b60405180910390fd5b600073ffffffffffffffffffffffffffffffffffffffff1660008054906101000a900473ffffffffffffffffffffffffffffffffffffffff1673ffffffffffffffffffffffffffffffffffffffff167f8be0079c531659141344cd1fd0a4f28419497f9722a3daafe3b4186f6b6457e060405160405180910390a360008060006101000a81548173ffffffffffffffffffffffffffffffffffffffff021916908373ffffffffffffffffffffffffffffffffffffffff160217905550565b610b4261133f565b73ffffffffffffffffffffffffffffffffffffffff16600160009054906101000a900473ffffffffffffffffffffffffffffffffffffffff1673ffffffffffffffffffffffffffffffffffffffff161480610bd65750610ba061133f565b73ffffffffffffffffffffffffffffffffffffffff16610bbe610c1f565b73ffffffffffffffffffffffffffffffffffffffff16145b610c15576040517f08c379a0000000000000000000000000000000000000000000000000000000008152600401610c0c90612386565b60405180910390fd5b610c1d6114a5565b565b60008060009054906101000a900473ffffffffffffffffffffffffffffffffffffffff16905090565b600160009054906101000a900473ffffffffffffffffffffffffffffffffffffffff1681565b6000610c7861133f565b73ffffffffffffffffffffffffffffffffffffffff1660008054906101000a900473ffffffffffffffffffffffffffffffffffffffff1673ffffffffffffffffffffffffffffffffffffffff1614610d05576040517f08c379a0000000000000000000000000000000000000000000000000000000008152600401610cfc90612426565b60405180910390fd5b610d0d6108f0565b600760008673ffffffffffffffffffffffffffffffffffffffff1673ffffffffffffffffffffffffffffffffffffffff1681526020019081526020016000208054905010610d90576040517f08c379a0000000000000000000000000000000000000000000000000000000008152600401610d8790612486565b60405180910390fd5b610de6610d9b61133f565b3085600260009054906101000a900473ffffffffffffffffffffffffffffffffffffffff1673ffffffffffffffffffffffffffffffffffffffff16611550909392919063ffffffff16565b6001600360008282540192505081905550610e0b8460046115d990919063ffffffff16565b506040518060800160405280600354815260200184815260200183815260200160001515815250600660008673ffffffffffffffffffffffffffffffffffffffff1673ffffffffffffffffffffffffffffffffffffffff1681526020019081526020016000206000600354815260200190815260200160002060008201518160000155602082015181600101556040820151816002015560608201518160030160006101000a81548160ff021916908315150217905550905050600760008573ffffffffffffffffffffffffffffffffffffffff1673ffffffffffffffffffffffffffffffffffffffff16815260200190815260200160002060035490806001815401808255809150506001900390600052602060002001600090919091909150557f032bc66be43dbccb7487781d168eb7bda224628a3b2c3388bdf69b532a3a1611600354604051610f5e91906124c6565b60405180910390a160035490509392505050565b610f7a61133f565b73ffffffffffffffffffffffffffffffffffffffff1660008054906101000a900473ffffffffffffffffffffffffffffffffffffffff1673ffffffffffffffffffffffffffffffffffffffff1614611007576040517f08c379a0000000000000000000000000000000000000000000000000000000008152600401610ffe90612426565b60405180910390fd5b6000600660008473ffffffffffffffffffffffffffffffffffffffff1673ffffffffffffffffffffffffffffffffffffffff168152602001908152602001600020600083815260200190815260200160002090508060030160009054906101000a900460ff16156110ad576040517f08c379a00000000000000000000000000000000000000000000000000000000081526004016110a490612366565b60405180910390fd5b60006110b761133f565b9050600082600101549050600083600101819055506111198282600260009054906101000a900473ffffffffffffffffffffffffffffffffffffffff1673ffffffffffffffffffffffffffffffffffffffff166113479092919063ffffffff16565b7f61e27b0bfd8e18e6b92ec32ce1c28bb698d27bfe93e84c7e94d4db0a3135c7608460405161114891906124c6565b60405180910390a15050505050565b61115f61133f565b73ffffffffffffffffffffffffffffffffffffffff1660008054906101000a900473ffffffffffffffffffffffffffffffffffffffff1673ffffffffffffffffffffffffffffffffffffffff16146111ec576040517f08c379a00000000000000000000000000000000000000000000000000000000081526004016111e390612426565b60405180910390fd5b600073ffffffffffffffffffffffffffffffffffffffff168173ffffffffffffffffffffffffffffffffffffffff16141561125c576040517f08c379a000000000000000000000000000000000000000000000000000000000815260040161125390612346565b60405180910390fd5b8073ffffffffffffffffffffffffffffffffffffffff1660008054906101000a900473ffffffffffffffffffffffffffffffffffffffff1673ffffffffffffffffffffffffffffffffffffffff167f8be0079c531659141344cd1fd0a4f28419497f9722a3daafe3b4186f6b6457e060405160405180910390a3806000806101000a81548173ffffffffffffffffffffffffffffffffffffffff021916908373ffffffffffffffffffffffffffffffffffffffff16021790555050565b600260009054906101000a900473ffffffffffffffffffffffffffffffffffffffff1681565b600033905090565b6113c88363a9059cbb60e01b8484604051602401611366929190612241565b604051602081830303815290604052907bffffffffffffffffffffffffffffffffffffffffffffffffffffffff19166020820180517bffffffffffffffffffffffffffffffffffffffffffffffffffffffff8381831617835250505050611609565b505050565b600060149054906101000a900460ff1661141c576040517f08c379a000000000000000000000000000000000000000000000000000000000815260040161141390612326565b60405180910390fd5b60008060146101000a81548160ff0219169083151502179055507f5db9ee0a495bf2e6ff9c91a7834c1ba4fdd244a5e8aa4e537bd38aeae4b073aa61145f61133f565b60405161146c91906121ef565b60405180910390a1565b6000611484826000016116d0565b9050919050565b600061149a83600001836116e1565b60001c905092915050565b600060149054906101000a900460ff16156114f5576040517f08c379a00000000000000000000000000000000000000000000000000000000081526004016114ec906123c6565b60405180910390fd5b6001600060146101000a81548160ff0219169083151502179055507f62e78cea01bee320cd4e420270b5ea74000d11b0c9f74754ebdbfc544b05a25861153961133f565b60405161154691906121ef565b60405180910390a1565b6115d3846323b872dd60e01b8585856040516024016115719392919061220a565b604051602081830303815290604052907bffffffffffffffffffffffffffffffffffffffffffffffffffffffff19166020820180517bffffffffffffffffffffffffffffffffffffffffffffffffffffffff8381831617835250505050611609565b50505050565b6000611601836000018373ffffffffffffffffffffffffffffffffffffffff1660001b61174e565b905092915050565b606061166b826040518060400160405280602081526020017f5361666545524332303a206c6f772d6c6576656c2063616c6c206661696c65648152508573ffffffffffffffffffffffffffffffffffffffff166117be9092919063ffffffff16565b90506000815111156116cb578080602001905181019061168b9190611a4c565b6116ca576040517f08c379a00000000000000000000000000000000000000000000000000000000081526004016116c190612466565b60405180910390fd5b5b505050565b600081600001805490509050919050565b60008183600001805490501161172c576040517f08c379a000000000000000000000000000000000000000000000000000000000815260040161172390612306565b60405180910390fd5b82600001828154811061173b57fe5b9060005260206000200154905092915050565b600061175a83836117d6565b6117b35782600001829080600181540180825580915050600190039060005260206000200160009091909190915055826000018054905083600101600084815260200190815260200160002081905550600190506117b8565b600090505b92915050565b60606117cd84846000856117f9565b90509392505050565b600080836001016000848152602001908152602001600020541415905092915050565b60606118048561191c565b611843576040517f08c379a000000000000000000000000000000000000000000000000000000000815260040161183a90612446565b60405180910390fd5b600060608673ffffffffffffffffffffffffffffffffffffffff16858760405161186d91906121bd565b60006040518083038185875af1925050503d80600081146118aa576040519150601f19603f3d011682016040523d82523d6000602084013e6118af565b606091505b509150915081156118c4578092505050611914565b6000815111156118d75780518082602001fd5b836040517f08c379a000000000000000000000000000000000000000000000000000000000815260040161190b91906122e4565b60405180910390fd5b949350505050565b600080823b905060008111915050919050565b60405180608001604052806000815260200160008152602001600081526020016000151581525090565b6000813590506119688161266b565b92915050565b60008151905061197d81612682565b92915050565b60008135905061199281612699565b92915050565b6000602082840312156119aa57600080fd5b60006119b884828501611959565b91505092915050565b600080604083850312156119d457600080fd5b60006119e285828601611959565b92505060206119f385828601611983565b9150509250929050565b600080600060608486031215611a1257600080fd5b6000611a2086828701611959565b9350506020611a3186828701611983565b9250506040611a4286828701611983565b9150509250925092565b600060208284031215611a5e57600080fd5b6000611a6c8482850161196e565b91505092915050565b600060208284031215611a8757600080fd5b6000611a9584828501611983565b91505092915050565b6000611aaa8383611add565b60208301905092915050565b6000611ac2838361214a565b60808301905092915050565b611ad7816125cd565b82525050565b611ae681612585565b82525050565b611af581612585565b82525050565b6000611b0682612501565b611b108185612547565b9350611b1b836124e1565b8060005b83811015611b4c578151611b338882611a9e565b9750611b3e8361252d565b925050600181019050611b1f565b5085935050505092915050565b6000611b648261250c565b611b6e8185612558565b9350611b79836124f1565b8060005b83811015611baa578151611b918882611ab6565b9750611b9c8361253a565b925050600181019050611b7d565b5085935050505092915050565b611bc081612597565b82525050565b611bcf81612597565b82525050565b6000611be082612517565b611bea8185612569565b9350611bfa818560208601612627565b80840191505092915050565b611c0f816125df565b82525050565b6000611c2082612522565b611c2a8185612574565b9350611c3a818560208601612627565b611c438161265a565b840191505092915050565b6000611c5b602283612574565b91507f456e756d657261626c655365743a20696e646578206f7574206f6620626f756e60008301527f64730000000000000000000000000000000000000000000000000000000000006020830152604082019050919050565b6000611cc1601483612574565b91507f5061757361626c653a206e6f74207061757365640000000000000000000000006000830152602082019050919050565b6000611d01602683612574565b91507f4f776e61626c653a206e6577206f776e657220697320746865207a65726f206160008301527f64647265737300000000000000000000000000000000000000000000000000006020830152604082019050919050565b6000611d67602183612574565b91507f56657374696e673a3a7265766f6b653a20616c7265616479207769746864726160008301527f77000000000000000000000000000000000000000000000000000000000000006020830152604082019050919050565b6000611dcd604183612574565b91507f4f776e61626c655061757361626c653a3a70617573653a206f6e6c792070617560008301527f73657220616e64206f776e6572206d75737420706175736520636f6e7472616360208301527f74000000000000000000000000000000000000000000000000000000000000006040830152606082019050919050565b6000611e59604583612574565b91507f4f776e61626c655061757361626c653a3a756e70617573653a206f6e6c79207060008301527f617573657220616e64206f776e6572206d75737420756e706175736520636f6e60208301527f74726163740000000000000000000000000000000000000000000000000000006040830152606082019050919050565b6000611ee5601083612574565b91507f5061757361626c653a20706175736564000000000000000000000000000000006000830152602082019050919050565b6000611f25602283612574565b91507f56657374696e673a3a77697468647261773a20706572696f6420697320656d7060008301527f74790000000000000000000000000000000000000000000000000000000000006020830152604082019050919050565b6000611f8b602083612574565b91507f56657374696e673a3a77697468647261773a206163636573732064656e6965646000830152602082019050919050565b6000611fcb602083612574565b91507f4f776e61626c653a2063616c6c6572206973206e6f7420746865206f776e65726000830152602082019050919050565b600061200b601d83612574565b91507f416464726573733a2063616c6c20746f206e6f6e2d636f6e74726163740000006000830152602082019050919050565b600061204b602a83612574565b91507f5361666545524332303a204552433230206f7065726174696f6e20646964206e60008301527f6f742073756363656564000000000000000000000000000000000000000000006020830152604082019050919050565b60006120b1601f83612574565b91507f56657374696e673a3a6c6f636b3a20746f6f206d616e7920706572696f6473006000830152602082019050919050565b60006120f1602383612574565b91507f56657374696e673a3a77697468647261773a20616c726561647920776974686460008301527f72617700000000000000000000000000000000000000000000000000000000006020830152604082019050919050565b608082016000820151612160600085018261219f565b506020820151612173602085018261219f565b506040820151612186604085018261219f565b5060608201516121996060850182611bb7565b50505050565b6121a8816125c3565b82525050565b6121b7816125c3565b82525050565b60006121c98284611bd5565b915081905092915050565b60006020820190506121e96000830184611aec565b92915050565b60006020820190506122046000830184611ace565b92915050565b600060608201905061221f6000830186611aec565b61222c6020830185611aec565b61223960408301846121ae565b949350505050565b60006040820190506122566000830185611aec565b61226360208301846121ae565b9392505050565b600060208201905081810360008301526122848184611afb565b905092915050565b600060208201905081810360008301526122a68184611b59565b905092915050565b60006020820190506122c36000830184611bc6565b92915050565b60006020820190506122de6000830184611c06565b92915050565b600060208201905081810360008301526122fe8184611c15565b905092915050565b6000602082019050818103600083015261231f81611c4e565b9050919050565b6000602082019050818103600083015261233f81611cb4565b9050919050565b6000602082019050818103600083015261235f81611cf4565b9050919050565b6000602082019050818103600083015261237f81611d5a565b9050919050565b6000602082019050818103600083015261239f81611dc0565b9050919050565b600060208201905081810360008301526123bf81611e4c565b9050919050565b600060208201905081810360008301526123df81611ed8565b9050919050565b600060208201905081810360008301526123ff81611f18565b9050919050565b6000602082019050818103600083015261241f81611f7e565b9050919050565b6000602082019050818103600083015261243f81611fbe565b9050919050565b6000602082019050818103600083015261245f81611ffe565b9050919050565b6000602082019050818103600083015261247f8161203e565b9050919050565b6000602082019050818103600083015261249f816120a4565b9050919050565b600060208201905081810360008301526124bf816120e4565b9050919050565b60006020820190506124db60008301846121ae565b92915050565b6000819050602082019050919050565b6000819050602082019050919050565b600081519050919050565b600081519050919050565b600081519050919050565b600081519050919050565b6000602082019050919050565b6000602082019050919050565b600082825260208201905092915050565b600082825260208201905092915050565b600081905092915050565b600082825260208201905092915050565b6000612590826125a3565b9050919050565b60008115159050919050565b600073ffffffffffffffffffffffffffffffffffffffff82169050919050565b6000819050919050565b60006125d882612603565b9050919050565b60006125ea826125f1565b9050919050565b60006125fc826125a3565b9050919050565b600061260e82612615565b9050919050565b6000612620826125a3565b9050919050565b60005b8381101561264557808201518184015260208101905061262a565b83811115612654576000848401525b50505050565b6000601f19601f8301169050919050565b61267481612585565b811461267f57600080fd5b50565b61268b81612597565b811461269657600080fd5b50565b6126a2816125c3565b81146126ad57600080fd5b5056fea26469706673582212207aafb739338043f09d319d69e4dcd5bbc01bc7daac989b095d0431211736a35564736f6c634300060c0033",
  "devdoc": {
    "kind": "dev",
    "methods": {
      "changePauser(address)": {
        "params": {
          "newPauser": "Address of new pauser account."
        }
      },
      "constructor": {
        "params": {
          "_token": "Address of vesting token contract."
        }
      },
      "getParticipants()": {
        "returns": {
          "_0": "Participants addresses."
        }
      },
      "info(address)": {
        "params": {
          "recipient": "Recipient address."
        },
        "returns": {
          "_0": "Recipient periods list."
        }
      },
      "lock(address,uint256,uint256)": {
        "params": {
          "amount": "Reward amount.",
          "date": "Date of unlockd period.",
          "recipient": "Recipient of reward."
        },
        "returns": {
          "_0": "Added period identifier."
        }
      },
      "owner()": {
        "details": "Returns the address of the current owner."
      },
      "paused()": {
        "details": "Returns true if the contract is paused, and false otherwise."
      },
      "renounceOwnership()": {
        "details": "Leaves the contract without owner. It will not be possible to call `onlyOwner` functions anymore. Can only be called by the current owner. NOTE: Renouncing ownership will leave the contract without an owner, thereby removing any functionality that is only available to the owner."
      },
      "revoke(address,uint256)": {
        "params": {
          "periodId": "Period identifier.",
          "recipient": "Recipient of reward."
        }
      },
      "transferOwnership(address)": {
        "details": "Transfers ownership of the contract to a new account (`newOwner`). Can only be called by the current owner."
      },
      "withdraw(uint256)": {
        "params": {
          "periodId": "Target period identifier."
        }
      }
    },
    "stateVariables": {
      "currentPeriod": {
        "details": "Index last period."
      },
      "participants": {
        "details": "Participants list."
      },
      "periods": {
        "details": "All registered periods."
      },
      "periodsIndex": {
        "details": "Period identifiers index."
      }
    },
    "version": 1
  },
  "userdoc": {
    "events": {
      "Locked(uint256)": {
        "notice": "An event emitted when locking a period."
      },
      "PauserChanged(address)": {
        "notice": "An event thats emitted when an pauser address changed."
      },
      "Revoked(uint256)": {
        "notice": "An event emitted when revoked a period."
      },
      "Withdrawal(address,uint256)": {
        "notice": "An event emitted when withdrawal a period."
      }
    },
    "kind": "user",
    "methods": {
      "changePauser(address)": {
        "notice": "Change pauser account."
      },
      "getParticipants()": {
        "notice": "Return all participants addresses."
      },
      "info(address)": {
        "notice": "Get information of period."
      },
      "lock(address,uint256,uint256)": {
        "notice": "Add new period."
      },
      "maxPeriodsPerRecipient()": {
        "notice": "The number of periods for a per recipient."
      },
      "pause()": {
        "notice": "Triggers stopped state."
      },
      "pauser()": {
        "notice": "Address that can pause a contract."
      },
      "revoke(address,uint256)": {
        "notice": "Revoke period."
      },
      "token()": {
        "notice": "Address of vesting token."
      },
      "unpause()": {
        "notice": "Returns to normal state."
      },
      "withdraw(uint256)": {
        "notice": "Withdraw reward."
      }
    },
    "version": 1
  },
  "storageLayout": {
    "storage": [
      {
        "astId": 30,
        "contract": "contracts/Vesting.sol:Vesting",
        "label": "_owner",
        "offset": 0,
        "slot": "0",
        "type": "t_address"
      },
      {
        "astId": 1806,
        "contract": "contracts/Vesting.sol:Vesting",
        "label": "_paused",
        "offset": 20,
        "slot": "0",
        "type": "t_bool"
      },
      {
        "astId": 12392,
        "contract": "contracts/Vesting.sol:Vesting",
        "label": "pauser",
        "offset": 0,
        "slot": "1",
        "type": "t_address"
      },
      {
        "astId": 8230,
        "contract": "contracts/Vesting.sol:Vesting",
        "label": "token",
        "offset": 0,
        "slot": "2",
        "type": "t_contract(ERC20)907"
      },
      {
        "astId": 8243,
        "contract": "contracts/Vesting.sol:Vesting",
        "label": "currentPeriod",
        "offset": 0,
        "slot": "3",
        "type": "t_uint256"
      },
      {
        "astId": 8246,
        "contract": "contracts/Vesting.sol:Vesting",
        "label": "participants",
        "offset": 0,
        "slot": "4",
        "type": "t_struct(AddressSet)1584_storage"
      },
      {
        "astId": 8253,
        "contract": "contracts/Vesting.sol:Vesting",
        "label": "periods",
        "offset": 0,
        "slot": "6",
        "type": "t_mapping(t_address,t_mapping(t_uint256,t_struct(Period)8239_storage))"
      },
      {
        "astId": 8259,
        "contract": "contracts/Vesting.sol:Vesting",
        "label": "periodsIndex",
        "offset": 0,
        "slot": "7",
        "type": "t_mapping(t_address,t_array(t_uint256)dyn_storage)"
      }
    ],
    "types": {
      "t_address": {
        "encoding": "inplace",
        "label": "address",
        "numberOfBytes": "20"
      },
      "t_array(t_bytes32)dyn_storage": {
        "base": "t_bytes32",
        "encoding": "dynamic_array",
        "label": "bytes32[]",
        "numberOfBytes": "32"
      },
      "t_array(t_uint256)dyn_storage": {
        "base": "t_uint256",
        "encoding": "dynamic_array",
        "label": "uint256[]",
        "numberOfBytes": "32"
      },
      "t_bool": {
        "encoding": "inplace",
        "label": "bool",
        "numberOfBytes": "1"
      },
      "t_bytes32": {
        "encoding": "inplace",
        "label": "bytes32",
        "numberOfBytes": "32"
      },
      "t_contract(ERC20)907": {
        "encoding": "inplace",
        "label": "contract ERC20",
        "numberOfBytes": "20"
      },
      "t_mapping(t_address,t_array(t_uint256)dyn_storage)": {
        "encoding": "mapping",
        "key": "t_address",
        "label": "mapping(address => uint256[])",
        "numberOfBytes": "32",
        "value": "t_array(t_uint256)dyn_storage"
      },
      "t_mapping(t_address,t_mapping(t_uint256,t_struct(Period)8239_storage))": {
        "encoding": "mapping",
        "key": "t_address",
        "label": "mapping(address => mapping(uint256 => struct Vesting.Period))",
        "numberOfBytes": "32",
        "value": "t_mapping(t_uint256,t_struct(Period)8239_storage)"
      },
      "t_mapping(t_bytes32,t_uint256)": {
        "encoding": "mapping",
        "key": "t_bytes32",
        "label": "mapping(bytes32 => uint256)",
        "numberOfBytes": "32",
        "value": "t_uint256"
      },
      "t_mapping(t_uint256,t_struct(Period)8239_storage)": {
        "encoding": "mapping",
        "key": "t_uint256",
        "label": "mapping(uint256 => struct Vesting.Period)",
        "numberOfBytes": "32",
        "value": "t_struct(Period)8239_storage"
      },
      "t_struct(AddressSet)1584_storage": {
        "encoding": "inplace",
        "label": "struct EnumerableSet.AddressSet",
        "members": [
          {
            "astId": 1583,
            "contract": "contracts/Vesting.sol:Vesting",
            "label": "_inner",
            "offset": 0,
            "slot": "0",
            "type": "t_struct(Set)1404_storage"
          }
        ],
        "numberOfBytes": "64"
      },
      "t_struct(Period)8239_storage": {
        "encoding": "inplace",
        "label": "struct Vesting.Period",
        "members": [
          {
            "astId": 8232,
            "contract": "contracts/Vesting.sol:Vesting",
            "label": "id",
            "offset": 0,
            "slot": "0",
            "type": "t_uint256"
          },
          {
            "astId": 8234,
            "contract": "contracts/Vesting.sol:Vesting",
            "label": "amount",
            "offset": 0,
            "slot": "1",
            "type": "t_uint256"
          },
          {
            "astId": 8236,
            "contract": "contracts/Vesting.sol:Vesting",
            "label": "date",
            "offset": 0,
            "slot": "2",
            "type": "t_uint256"
          },
          {
            "astId": 8238,
            "contract": "contracts/Vesting.sol:Vesting",
            "label": "withdrawal",
            "offset": 0,
            "slot": "3",
            "type": "t_bool"
          }
        ],
        "numberOfBytes": "128"
      },
      "t_struct(Set)1404_storage": {
        "encoding": "inplace",
        "label": "struct EnumerableSet.Set",
        "members": [
          {
            "astId": 1399,
            "contract": "contracts/Vesting.sol:Vesting",
            "label": "_values",
            "offset": 0,
            "slot": "0",
            "type": "t_array(t_bytes32)dyn_storage"
          },
          {
            "astId": 1403,
            "contract": "contracts/Vesting.sol:Vesting",
            "label": "_indexes",
            "offset": 0,
            "slot": "1",
            "type": "t_mapping(t_bytes32,t_uint256)"
          }
        ],
        "numberOfBytes": "64"
      },
      "t_uint256": {
        "encoding": "inplace",
        "label": "uint256",
        "numberOfBytes": "32"
      }
    }
  }
}