{
  "address": "0x4947D2598133dE09Bd50A684D186F65A45EeEBd7",
  "abi": [
    {
      "anonymous": false,
      "inputs": [
        {
          "indexed": false,
          "internalType": "address",
          "name": "cToken",
          "type": "address"
        },
        {
          "indexed": false,
          "internalType": "uint256",
          "name": "amount",
          "type": "uint256"
        }
      ],
      "name": "Invested",
      "type": "event"
    },
    {
      "anonymous": false,
      "inputs": [
        {
          "indexed": true,
          "internalType": "address",
          "name": "previousOwner",
          "type": "address"
        },
        {
          "indexed": true,
          "internalType": "address",
          "name": "newOwner",
          "type": "address"
        }
      ],
      "name": "OwnershipTransferred",
      "type": "event"
    },
    {
      "anonymous": false,
      "inputs": [
        {
          "indexed": false,
          "internalType": "address",
          "name": "cToken",
          "type": "address"
        },
        {
          "indexed": false,
          "internalType": "uint256",
          "name": "amount",
          "type": "uint256"
        },
        {
          "indexed": false,
          "internalType": "uint256",
          "name": "profit",
          "type": "uint256"
        },
        {
          "indexed": false,
          "internalType": "address",
          "name": "investRecipient",
          "type": "address"
        },
        {
          "indexed": false,
          "internalType": "address",
          "name": "profitRecipient",
          "type": "address"
        }
      ],
      "name": "Withdrawal",
      "type": "event"
    },
    {
      "inputs": [],
      "name": "balance",
      "outputs": [
        {
          "internalType": "uint256",
          "name": "",
          "type": "uint256"
        }
      ],
      "stateMutability": "view",
      "type": "function"
    },
    {
      "inputs": [
        {
          "internalType": "address",
          "name": "cToken",
          "type": "address"
        }
      ],
      "name": "balanceOf",
      "outputs": [
        {
          "internalType": "uint256",
          "name": "",
          "type": "uint256"
        }
      ],
      "stateMutability": "view",
      "type": "function"
    },
    {
      "inputs": [],
      "name": "decimals",
      "outputs": [
        {
          "internalType": "uint256",
          "name": "",
          "type": "uint256"
        }
      ],
      "stateMutability": "view",
      "type": "function"
    },
    {
      "inputs": [
        {
          "internalType": "address",
          "name": "cToken",
          "type": "address"
        },
        {
          "internalType": "uint256",
          "name": "amount",
          "type": "uint256"
        }
      ],
      "name": "invest",
      "outputs": [],
      "stateMutability": "nonpayable",
      "type": "function"
    },
    {
      "inputs": [],
      "name": "investedTokens",
      "outputs": [
        {
          "internalType": "address[]",
          "name": "",
          "type": "address[]"
        }
      ],
      "stateMutability": "view",
      "type": "function"
    },
    {
      "inputs": [],
      "name": "owner",
      "outputs": [
        {
          "internalType": "address",
          "name": "",
          "type": "address"
        }
      ],
      "stateMutability": "view",
      "type": "function"
    },
    {
      "inputs": [],
      "name": "renounceOwnership",
      "outputs": [],
      "stateMutability": "nonpayable",
      "type": "function"
    },
    {
      "inputs": [
        {
          "internalType": "address",
          "name": "newOwner",
          "type": "address"
        }
      ],
      "name": "transferOwnership",
      "outputs": [],
      "stateMutability": "nonpayable",
      "type": "function"
    },
    {
      "inputs": [
        {
          "internalType": "address",
          "name": "cToken",
          "type": "address"
        },
        {
          "internalType": "address",
          "name": "investRecipient",
          "type": "address"
        },
        {
          "internalType": "address",
          "name": "profitRecipient",
          "type": "address"
        }
      ],
      "name": "withdraw",
      "outputs": [],
      "stateMutability": "nonpayable",
      "type": "function"
    }
  ],
  "transactionHash": "0x6c718c3fb3b13b6c74491105edc92816154ca6fb6c7cabf6e3fe734266c7b5dd",
  "args": [],
  "solcInputHash": "e66f57a7d8a1058d34d8c43684fd613f",
  "bytecode": "0x6080604052601260035534801561001557600080fd5b5060006100266100c960201b60201c565b9050806000806101000a81548173ffffffffffffffffffffffffffffffffffffffff021916908373ffffffffffffffffffffffffffffffffffffffff1602179055508073ffffffffffffffffffffffffffffffffffffffff16600073ffffffffffffffffffffffffffffffffffffffff167f8be0079c531659141344cd1fd0a4f28419497f9722a3daafe3b4186f6b6457e060405160405180910390a3506100d1565b600033905090565b612412806100e06000396000f3fe608060405234801561001057600080fd5b50600436106100935760003560e01c80638da5cb5b116100665780638da5cb5b1461010e578063b69ef8a81461012c578063b9b8c2461461014a578063f2fde38b14610166578063ff7885e81461018257610093565b8063313ce567146100985780635dac310a146100b657806370a08231146100d4578063715018a614610104575b600080fd5b6100a061019e565b6040516100ad9190612261565b60405180910390f35b6100be6101a4565b6040516100cb91906120bd565b60405180910390f35b6100ee60048036038101906100e9919061195a565b61027c565b6040516100fb9190612261565b60405180910390f35b61010c6102c5565b005b610116610418565b6040516101239190611fc6565b60405180910390f35b610134610441565b6040516101419190612261565b60405180910390f35b610164600480360381019061015f91906119fb565b61060c565b005b610180600480360381019061017b919061195a565b610a30565b005b61019c600480360381019061019791906119ac565b610bf2565b005b60035481565b6060806101b16001611060565b67ffffffffffffffff811180156101c757600080fd5b506040519080825280602002602001820160405280156101f65781602001602082028036833780820191505090505b50905060005b6102066001611060565b8110156102745761022181600161107590919063ffffffff16565b82828151811061022d57fe5b602002602001019073ffffffffffffffffffffffffffffffffffffffff16908173ffffffffffffffffffffffffffffffffffffffff168152505080806001019150506101fc565b508091505090565b6000600460008373ffffffffffffffffffffffffffffffffffffffff1673ffffffffffffffffffffffffffffffffffffffff168152602001908152602001600020549050919050565b6102cd61108f565b73ffffffffffffffffffffffffffffffffffffffff1660008054906101000a900473ffffffffffffffffffffffffffffffffffffffff1673ffffffffffffffffffffffffffffffffffffffff161461035a576040517f08c379a0000000000000000000000000000000000000000000000000000000008152600401610351906121e1565b60405180910390fd5b600073ffffffffffffffffffffffffffffffffffffffff1660008054906101000a900473ffffffffffffffffffffffffffffffffffffffff1673ffffffffffffffffffffffffffffffffffffffff167f8be0079c531659141344cd1fd0a4f28419497f9722a3daafe3b4186f6b6457e060405160405180910390a360008060006101000a81548173ffffffffffffffffffffffffffffffffffffffff021916908373ffffffffffffffffffffffffffffffffffffffff160217905550565b60008060009054906101000a900473ffffffffffffffffffffffffffffffffffffffff16905090565b60008060005b6104516001611060565b81101561060457600061046e82600161107590919063ffffffff16565b905060008173ffffffffffffffffffffffffffffffffffffffff16636f307dc36040518163ffffffff1660e01b815260040160206040518083038186803b1580156104b857600080fd5b505afa1580156104cc573d6000803e3d6000fd5b505050506040513d601f19601f820116820180604052508101906104f09190611983565b905060008173ffffffffffffffffffffffffffffffffffffffff1663313ce5676040518163ffffffff1660e01b815260040160206040518083038186803b15801561053a57600080fd5b505afa15801561054e573d6000803e3d6000fd5b505050506040513d601f19601f820116820180604052508101906105729190611a89565b60ff1690506105f26105e36105928360035461109790919063ffffffff16565b600a0a600460008773ffffffffffffffffffffffffffffffffffffffff1673ffffffffffffffffffffffffffffffffffffffff168152602001908152602001600020546110e190919063ffffffff16565b8661115190919063ffffffff16565b94505050508080600101915050610447565b508091505090565b61061461108f565b73ffffffffffffffffffffffffffffffffffffffff1660008054906101000a900473ffffffffffffffffffffffffffffffffffffffff1673ffffffffffffffffffffffffffffffffffffffff16146106a1576040517f08c379a0000000000000000000000000000000000000000000000000000000008152600401610698906121e1565b60405180910390fd5b600081116106e4576040517f08c379a00000000000000000000000000000000000000000000000000000000081526004016106db906121a1565b60405180910390fd5b60008273ffffffffffffffffffffffffffffffffffffffff16636f307dc36040518163ffffffff1660e01b815260040160206040518083038186803b15801561072c57600080fd5b505afa158015610740573d6000803e3d6000fd5b505050506040513d601f19601f820116820180604052508101906107649190611983565b905060008173ffffffffffffffffffffffffffffffffffffffff1663313ce5676040518163ffffffff1660e01b815260040160206040518083038186803b1580156107ae57600080fd5b505afa1580156107c2573d6000803e3d6000fd5b505050506040513d601f19601f820116820180604052508101906107e69190611a89565b60ff169050600354811115610830576040517f08c379a000000000000000000000000000000000000000000000000000000000815260040161082790612181565b60405180910390fd5b61086461083b61108f565b30858573ffffffffffffffffffffffffffffffffffffffff166111a6909392919063ffffffff16565b6108908460008473ffffffffffffffffffffffffffffffffffffffff1661122f9092919063ffffffff16565b6108bb84848473ffffffffffffffffffffffffffffffffffffffff1661122f9092919063ffffffff16565b8373ffffffffffffffffffffffffffffffffffffffff1663a0712d68846040518263ffffffff1660e01b81526004016108f49190612261565b602060405180830381600087803b15801561090e57600080fd5b505af1158015610922573d6000803e3d6000fd5b505050506040513d601f19601f820116820180604052508101906109469190611a60565b5061099983600460008773ffffffffffffffffffffffffffffffffffffffff1673ffffffffffffffffffffffffffffffffffffffff1681526020019081526020016000205461115190919063ffffffff16565b600460008673ffffffffffffffffffffffffffffffffffffffff1673ffffffffffffffffffffffffffffffffffffffff168152602001908152602001600020819055506109f084600161138d90919063ffffffff16565b507fc3f75dfc78f6efac88ad5abb5e606276b903647d97b2a62a1ef89840a658bbc38484604051610a22929190612041565b60405180910390a150505050565b610a3861108f565b73ffffffffffffffffffffffffffffffffffffffff1660008054906101000a900473ffffffffffffffffffffffffffffffffffffffff1673ffffffffffffffffffffffffffffffffffffffff1614610ac5576040517f08c379a0000000000000000000000000000000000000000000000000000000008152600401610abc906121e1565b60405180910390fd5b600073ffffffffffffffffffffffffffffffffffffffff168173ffffffffffffffffffffffffffffffffffffffff161415610b35576040517f08c379a0000000000000000000000000000000000000000000000000000000008152600401610b2c90612121565b60405180910390fd5b8073ffffffffffffffffffffffffffffffffffffffff1660008054906101000a900473ffffffffffffffffffffffffffffffffffffffff1673ffffffffffffffffffffffffffffffffffffffff167f8be0079c531659141344cd1fd0a4f28419497f9722a3daafe3b4186f6b6457e060405160405180910390a3806000806101000a81548173ffffffffffffffffffffffffffffffffffffffff021916908373ffffffffffffffffffffffffffffffffffffffff16021790555050565b610bfa61108f565b73ffffffffffffffffffffffffffffffffffffffff1660008054906101000a900473ffffffffffffffffffffffffffffffffffffffff1673ffffffffffffffffffffffffffffffffffffffff1614610c87576040517f08c379a0000000000000000000000000000000000000000000000000000000008152600401610c7e906121e1565b60405180910390fd5b6000600460008573ffffffffffffffffffffffffffffffffffffffff1673ffffffffffffffffffffffffffffffffffffffff16815260200190815260200160002054905060008111610d0e576040517f08c379a0000000000000000000000000000000000000000000000000000000008152600401610d0590612141565b60405180910390fd5b6000600460008673ffffffffffffffffffffffffffffffffffffffff1673ffffffffffffffffffffffffffffffffffffffff16815260200190815260200160002081905550610d678460016113bd90919063ffffffff16565b5060008473ffffffffffffffffffffffffffffffffffffffff166370a08231306040518263ffffffff1660e01b8152600401610da39190611fc6565b60206040518083038186803b158015610dbb57600080fd5b505afa158015610dcf573d6000803e3d6000fd5b505050506040513d601f19601f82011682018060405250810190610df39190611a60565b90508473ffffffffffffffffffffffffffffffffffffffff1663db006a75826040518263ffffffff1660e01b8152600401610e2e9190612261565b602060405180830381600087803b158015610e4857600080fd5b505af1158015610e5c573d6000803e3d6000fd5b505050506040513d601f19601f82011682018060405250810190610e809190611a60565b5060008573ffffffffffffffffffffffffffffffffffffffff16636f307dc36040518163ffffffff1660e01b815260040160206040518083038186803b158015610ec957600080fd5b505afa158015610edd573d6000803e3d6000fd5b505050506040513d601f19601f82011682018060405250810190610f019190611983565b905060008173ffffffffffffffffffffffffffffffffffffffff166370a08231306040518263ffffffff1660e01b8152600401610f3e9190611fc6565b60206040518083038186803b158015610f5657600080fd5b505afa158015610f6a573d6000803e3d6000fd5b505050506040513d601f19601f82011682018060405250810190610f8e9190611a60565b90506000848210610fb357610fac858361109790919063ffffffff16565b9050610fb7565b8194505b610fe287868573ffffffffffffffffffffffffffffffffffffffff166113ed9092919063ffffffff16565b60008111156110175761101686828573ffffffffffffffffffffffffffffffffffffffff166113ed9092919063ffffffff16565b5b7f12984cc09b407e2802815d72b1487c794ad5b78a62881894b1c869640882c2808886838a8a60405161104e95949392919061206a565b60405180910390a15050505050505050565b600061106e82600001611473565b9050919050565b60006110848360000183611484565b60001c905092915050565b600033905090565b60006110d983836040518060400160405280601e81526020017f536166654d6174683a207375627472616374696f6e206f766572666c6f7700008152506114f1565b905092915050565b6000808314156110f4576000905061114b565b600082840290508284828161110557fe5b0414611146576040517f08c379a000000000000000000000000000000000000000000000000000000000815260040161113d906121c1565b60405180910390fd5b809150505b92915050565b60008082840190508381101561119c576040517f08c379a000000000000000000000000000000000000000000000000000000000815260040161119390612161565b60405180910390fd5b8091505092915050565b611229846323b872dd60e01b8585856040516024016111c79392919061200a565b604051602081830303815290604052907bffffffffffffffffffffffffffffffffffffffffffffffffffffffff19166020820180517bffffffffffffffffffffffffffffffffffffffffffffffffffffffff838183161783525050505061154c565b50505050565b60008114806112c8575060008373ffffffffffffffffffffffffffffffffffffffff1663dd62ed3e30856040518363ffffffff1660e01b8152600401611276929190611fe1565b60206040518083038186803b15801561128e57600080fd5b505afa1580156112a2573d6000803e3d6000fd5b505050506040513d601f19601f820116820180604052508101906112c69190611a60565b145b611307576040517f08c379a00000000000000000000000000000000000000000000000000000000081526004016112fe90612241565b60405180910390fd5b6113888363095ea7b360e01b8484604051602401611326929190612041565b604051602081830303815290604052907bffffffffffffffffffffffffffffffffffffffffffffffffffffffff19166020820180517bffffffffffffffffffffffffffffffffffffffffffffffffffffffff838183161783525050505061154c565b505050565b60006113b5836000018373ffffffffffffffffffffffffffffffffffffffff1660001b611613565b905092915050565b60006113e5836000018373ffffffffffffffffffffffffffffffffffffffff1660001b611683565b905092915050565b61146e8363a9059cbb60e01b848460405160240161140c929190612041565b604051602081830303815290604052907bffffffffffffffffffffffffffffffffffffffffffffffffffffffff19166020820180517bffffffffffffffffffffffffffffffffffffffffffffffffffffffff838183161783525050505061154c565b505050565b600081600001805490509050919050565b6000818360000180549050116114cf576040517f08c379a00000000000000000000000000000000000000000000000000000000081526004016114c690612101565b60405180910390fd5b8260000182815481106114de57fe5b9060005260206000200154905092915050565b6000838311158290611539576040517f08c379a000000000000000000000000000000000000000000000000000000000815260040161153091906120df565b60405180910390fd5b5060008385039050809150509392505050565b60606115ae826040518060400160405280602081526020017f5361666545524332303a206c6f772d6c6576656c2063616c6c206661696c65648152508573ffffffffffffffffffffffffffffffffffffffff1661176b9092919063ffffffff16565b905060008151111561160e57808060200190518101906115ce9190611a37565b61160d576040517f08c379a000000000000000000000000000000000000000000000000000000000815260040161160490612221565b60405180910390fd5b5b505050565b600061161f8383611783565b61167857826000018290806001815401808255809150506001900390600052602060002001600090919091909150558260000180549050836001016000848152602001908152602001600020819055506001905061167d565b600090505b92915050565b6000808360010160008481526020019081526020016000205490506000811461175f57600060018203905060006001866000018054905003905060008660000182815481106116ce57fe5b90600052602060002001549050808760000184815481106116eb57fe5b906000526020600020018190555060018301876001016000838152602001908152602001600020819055508660000180548061172357fe5b60019003818190600052602060002001600090559055866001016000878152602001908152602001600020600090556001945050505050611765565b60009150505b92915050565b606061177a84846000856117a6565b90509392505050565b600080836001016000848152602001908152602001600020541415905092915050565b60606117b1856118c9565b6117f0576040517f08c379a00000000000000000000000000000000000000000000000000000000081526004016117e790612201565b60405180910390fd5b600060608673ffffffffffffffffffffffffffffffffffffffff16858760405161181a9190611faf565b60006040518083038185875af1925050503d8060008114611857576040519150601f19603f3d011682016040523d82523d6000602084013e61185c565b606091505b509150915081156118715780925050506118c1565b6000815111156118845780518082602001fd5b836040517f08c379a00000000000000000000000000000000000000000000000000000000081526004016118b891906120df565b60405180910390fd5b949350505050565b600080823b905060008111915050919050565b6000813590506118eb81612380565b92915050565b60008151905061190081612380565b92915050565b60008151905061191581612397565b92915050565b60008135905061192a816123ae565b92915050565b60008151905061193f816123ae565b92915050565b600081519050611954816123c5565b92915050565b60006020828403121561196c57600080fd5b600061197a848285016118dc565b91505092915050565b60006020828403121561199557600080fd5b60006119a3848285016118f1565b91505092915050565b6000806000606084860312156119c157600080fd5b60006119cf868287016118dc565b93505060206119e0868287016118dc565b92505060406119f1868287016118dc565b9150509250925092565b60008060408385031215611a0e57600080fd5b6000611a1c858286016118dc565b9250506020611a2d8582860161191b565b9150509250929050565b600060208284031215611a4957600080fd5b6000611a5784828501611906565b91505092915050565b600060208284031215611a7257600080fd5b6000611a8084828501611930565b91505092915050565b600060208284031215611a9b57600080fd5b6000611aa984828501611945565b91505092915050565b6000611abe8383611aca565b60208301905092915050565b611ad3816122e7565b82525050565b611ae2816122e7565b82525050565b6000611af38261228c565b611afd81856122ba565b9350611b088361227c565b8060005b83811015611b39578151611b208882611ab2565b9750611b2b836122ad565b925050600181019050611b0c565b5085935050505092915050565b6000611b5182612297565b611b5b81856122cb565b9350611b6b81856020860161233c565b80840191505092915050565b6000611b82826122a2565b611b8c81856122d6565b9350611b9c81856020860161233c565b611ba58161236f565b840191505092915050565b6000611bbd6022836122d6565b91507f456e756d657261626c655365743a20696e646578206f7574206f6620626f756e60008301527f64730000000000000000000000000000000000000000000000000000000000006020830152604082019050919050565b6000611c236026836122d6565b91507f4f776e61626c653a206e6577206f776e657220697320746865207a65726f206160008301527f64647265737300000000000000000000000000000000000000000000000000006020830152604082019050919050565b6000611c89603b836122d6565b91507f436f6d706f756e644465706f73697461727942616c616e6365566965773a3a7760008301527f697468647261773a20746f6b656e206e6f7420696e76657374656400000000006020830152604082019050919050565b6000611cef601b836122d6565b91507f536166654d6174683a206164646974696f6e206f766572666c6f7700000000006000830152602082019050919050565b6000611d2f603d836122d6565b91507f436f6d706f756e644465706f73697461727942616c616e6365566965773a3a6960008301527f6e766573743a20696e76616c696420746f6b656e20646563696d616c730000006020830152604082019050919050565b6000611d956035836122d6565b91507f436f6d706f756e644465706f73697461727942616c616e6365566965773a3a6960008301527f6e766573743a20696e76616c696420616d6f756e7400000000000000000000006020830152604082019050919050565b6000611dfb6021836122d6565b91507f536166654d6174683a206d756c7469706c69636174696f6e206f766572666c6f60008301527f77000000000000000000000000000000000000000000000000000000000000006020830152604082019050919050565b6000611e616020836122d6565b91507f4f776e61626c653a2063616c6c6572206973206e6f7420746865206f776e65726000830152602082019050919050565b6000611ea1601d836122d6565b91507f416464726573733a2063616c6c20746f206e6f6e2d636f6e74726163740000006000830152602082019050919050565b6000611ee1602a836122d6565b91507f5361666545524332303a204552433230206f7065726174696f6e20646964206e60008301527f6f742073756363656564000000000000000000000000000000000000000000006020830152604082019050919050565b6000611f476036836122d6565b91507f5361666545524332303a20617070726f76652066726f6d206e6f6e2d7a65726f60008301527f20746f206e6f6e2d7a65726f20616c6c6f77616e6365000000000000000000006020830152604082019050919050565b611fa981612325565b82525050565b6000611fbb8284611b46565b915081905092915050565b6000602082019050611fdb6000830184611ad9565b92915050565b6000604082019050611ff66000830185611ad9565b6120036020830184611ad9565b9392505050565b600060608201905061201f6000830186611ad9565b61202c6020830185611ad9565b6120396040830184611fa0565b949350505050565b60006040820190506120566000830185611ad9565b6120636020830184611fa0565b9392505050565b600060a08201905061207f6000830188611ad9565b61208c6020830187611fa0565b6120996040830186611fa0565b6120a66060830185611ad9565b6120b36080830184611ad9565b9695505050505050565b600060208201905081810360008301526120d78184611ae8565b905092915050565b600060208201905081810360008301526120f98184611b77565b905092915050565b6000602082019050818103600083015261211a81611bb0565b9050919050565b6000602082019050818103600083015261213a81611c16565b9050919050565b6000602082019050818103600083015261215a81611c7c565b9050919050565b6000602082019050818103600083015261217a81611ce2565b9050919050565b6000602082019050818103600083015261219a81611d22565b9050919050565b600060208201905081810360008301526121ba81611d88565b9050919050565b600060208201905081810360008301526121da81611dee565b9050919050565b600060208201905081810360008301526121fa81611e54565b9050919050565b6000602082019050818103600083015261221a81611e94565b9050919050565b6000602082019050818103600083015261223a81611ed4565b9050919050565b6000602082019050818103600083015261225a81611f3a565b9050919050565b60006020820190506122766000830184611fa0565b92915050565b6000819050602082019050919050565b600081519050919050565b600081519050919050565b600081519050919050565b6000602082019050919050565b600082825260208201905092915050565b600081905092915050565b600082825260208201905092915050565b60006122f282612305565b9050919050565b60008115159050919050565b600073ffffffffffffffffffffffffffffffffffffffff82169050919050565b6000819050919050565b600060ff82169050919050565b60005b8381101561235a57808201518184015260208101905061233f565b83811115612369576000848401525b50505050565b6000601f19601f8301169050919050565b612389816122e7565b811461239457600080fd5b50565b6123a0816122f9565b81146123ab57600080fd5b50565b6123b781612325565b81146123c257600080fd5b50565b6123ce8161232f565b81146123d957600080fd5b5056fea2646970667358221220fecebdebebe64175c0a267e0e6f842f9146f0b596e9461da9a10e3b54f0e950364736f6c634300060c0033",
  "devdoc": {
    "kind": "dev",
    "methods": {
      "balance()": {
        "returns": {
          "_0": "Balance of depositary."
        }
      },
      "balanceOf(address)": {
        "params": {
          "cToken": "Invested cToken."
        },
        "returns": {
          "_0": "Balance of invested token."
        }
      },
      "invest(address,uint256)": {
        "params": {
          "amount": "Amount of invested token.",
          "cToken": "Invested cToken. Target ERC20 token should be approved to contract before call."
        }
      },
      "investedTokens()": {
        "returns": {
          "_0": "Invested cTokens."
        }
      },
      "owner()": {
        "details": "Returns the address of the current owner."
      },
      "renounceOwnership()": {
        "details": "Leaves the contract without owner. It will not be possible to call `onlyOwner` functions anymore. Can only be called by the current owner. NOTE: Renouncing ownership will leave the contract without an owner, thereby removing any functionality that is only available to the owner."
      },
      "transferOwnership(address)": {
        "details": "Transfers ownership of the contract to a new account (`newOwner`). Can only be called by the current owner."
      },
      "withdraw(address,address,address)": {
        "params": {
          "cToken": "Invested cToken.",
          "investRecipient": "Recipient of invested token.",
          "profitRecipient": "Recipient of reward token."
        }
      }
    },
    "stateVariables": {
      "balances": {
        "details": "Invested balances."
      },
      "tokens": {
        "details": "Invested cTokens."
      }
    },
    "version": 1
  },
  "userdoc": {
    "events": {
      "Invested(address,uint256)": {
        "notice": "An event thats emitted when an invested token."
      },
      "Withdrawal(address,uint256,uint256,address,address)": {
        "notice": "An event thats emitted when an withdrawal token."
      }
    },
    "kind": "user",
    "methods": {
      "balance()": {
        "notice": "Get balance of depositary."
      },
      "decimals()": {
        "notice": "Balance decimals."
      },
      "invest(address,uint256)": {
        "notice": "Invest token to Compound."
      },
      "withdraw(address,address,address)": {
        "notice": "Withdraw invested token and reward."
      }
    },
    "version": 1
  },
  "storageLayout": {
    "storage": [
      {
        "astId": 30,
        "contract": "contracts/depositary/CompoundDepositaryBalanceView.sol:CompoundDepositaryBalanceView",
        "label": "_owner",
        "offset": 0,
        "slot": "0",
        "type": "t_address"
      },
      {
        "astId": 9053,
        "contract": "contracts/depositary/CompoundDepositaryBalanceView.sol:CompoundDepositaryBalanceView",
        "label": "tokens",
        "offset": 0,
        "slot": "1",
        "type": "t_struct(AddressSet)1584_storage"
      },
      {
        "astId": 9058,
        "contract": "contracts/depositary/CompoundDepositaryBalanceView.sol:CompoundDepositaryBalanceView",
        "label": "decimals",
        "offset": 0,
        "slot": "3",
        "type": "t_uint256"
      },
      {
        "astId": 9063,
        "contract": "contracts/depositary/CompoundDepositaryBalanceView.sol:CompoundDepositaryBalanceView",
        "label": "balances",
        "offset": 0,
        "slot": "4",
        "type": "t_mapping(t_address,t_uint256)"
      }
    ],
    "types": {
      "t_address": {
        "encoding": "inplace",
        "label": "address",
        "numberOfBytes": "20"
      },
      "t_array(t_bytes32)dyn_storage": {
        "base": "t_bytes32",
        "encoding": "dynamic_array",
        "label": "bytes32[]",
        "numberOfBytes": "32"
      },
      "t_bytes32": {
        "encoding": "inplace",
        "label": "bytes32",
        "numberOfBytes": "32"
      },
      "t_mapping(t_address,t_uint256)": {
        "encoding": "mapping",
        "key": "t_address",
        "label": "mapping(address => uint256)",
        "numberOfBytes": "32",
        "value": "t_uint256"
      },
      "t_mapping(t_bytes32,t_uint256)": {
        "encoding": "mapping",
        "key": "t_bytes32",
        "label": "mapping(bytes32 => uint256)",
        "numberOfBytes": "32",
        "value": "t_uint256"
      },
      "t_struct(AddressSet)1584_storage": {
        "encoding": "inplace",
        "label": "struct EnumerableSet.AddressSet",
        "members": [
          {
            "astId": 1583,
            "contract": "contracts/depositary/CompoundDepositaryBalanceView.sol:CompoundDepositaryBalanceView",
            "label": "_inner",
            "offset": 0,
            "slot": "0",
            "type": "t_struct(Set)1404_storage"
          }
        ],
        "numberOfBytes": "64"
      },
      "t_struct(Set)1404_storage": {
        "encoding": "inplace",
        "label": "struct EnumerableSet.Set",
        "members": [
          {
            "astId": 1399,
            "contract": "contracts/depositary/CompoundDepositaryBalanceView.sol:CompoundDepositaryBalanceView",
            "label": "_values",
            "offset": 0,
            "slot": "0",
            "type": "t_array(t_bytes32)dyn_storage"
          },
          {
            "astId": 1403,
            "contract": "contracts/depositary/CompoundDepositaryBalanceView.sol:CompoundDepositaryBalanceView",
            "label": "_indexes",
            "offset": 0,
            "slot": "1",
            "type": "t_mapping(t_bytes32,t_uint256)"
          }
        ],
        "numberOfBytes": "64"
      },
      "t_uint256": {
        "encoding": "inplace",
        "label": "uint256",
        "numberOfBytes": "32"
      }
    }
  }
}