{
  "address": "0xEe8eA8269226c5ABFca16e1066DB967aaB8Dd77c",
  "abi": [
    {
      "inputs": [
        {
          "internalType": "address",
          "name": "_cumulative",
          "type": "address"
        },
        {
          "internalType": "address",
          "name": "_productToken",
          "type": "address"
        },
        {
          "internalType": "address",
          "name": "_rewardToken",
          "type": "address"
        },
        {
          "internalType": "address",
          "name": "_uniswapRouter",
          "type": "address"
        },
        {
          "internalType": "address[]",
          "name": "_cumulativePriceFeed",
          "type": "address[]"
        }
      ],
      "stateMutability": "nonpayable",
      "type": "constructor"
    },
    {
      "anonymous": false,
      "inputs": [
        {
          "indexed": false,
          "internalType": "address",
          "name": "customer",
          "type": "address"
        },
        {
          "indexed": false,
          "internalType": "address",
          "name": "token",
          "type": "address"
        },
        {
          "indexed": false,
          "internalType": "uint256",
          "name": "amount",
          "type": "uint256"
        },
        {
          "indexed": false,
          "internalType": "uint256",
          "name": "buy",
          "type": "uint256"
        },
        {
          "indexed": false,
          "internalType": "uint256",
          "name": "reward",
          "type": "uint256"
        }
      ],
      "name": "Buy",
      "type": "event"
    },
    {
      "anonymous": false,
      "inputs": [
        {
          "indexed": false,
          "internalType": "address",
          "name": "newToken",
          "type": "address"
        },
        {
          "indexed": false,
          "internalType": "address[]",
          "name": "priceFeed",
          "type": "address[]"
        }
      ],
      "name": "CumulativeChanged",
      "type": "event"
    },
    {
      "anonymous": false,
      "inputs": [
        {
          "indexed": true,
          "internalType": "address",
          "name": "previousOwner",
          "type": "address"
        },
        {
          "indexed": true,
          "internalType": "address",
          "name": "newOwner",
          "type": "address"
        }
      ],
      "name": "OwnershipTransferred",
      "type": "event"
    },
    {
      "anonymous": false,
      "inputs": [
        {
          "indexed": false,
          "internalType": "address",
          "name": "account",
          "type": "address"
        }
      ],
      "name": "Paused",
      "type": "event"
    },
    {
      "anonymous": false,
      "inputs": [
        {
          "indexed": false,
          "internalType": "address",
          "name": "newPauser",
          "type": "address"
        }
      ],
      "name": "PauserChanged",
      "type": "event"
    },
    {
      "anonymous": false,
      "inputs": [
        {
          "indexed": false,
          "internalType": "address",
          "name": "token",
          "type": "address"
        },
        {
          "indexed": false,
          "internalType": "address[]",
          "name": "priceFeed",
          "type": "address[]"
        }
      ],
      "name": "TokenAllowed",
      "type": "event"
    },
    {
      "anonymous": false,
      "inputs": [
        {
          "indexed": false,
          "internalType": "address",
          "name": "token",
          "type": "address"
        }
      ],
      "name": "TokenDenied",
      "type": "event"
    },
    {
      "anonymous": false,
      "inputs": [
        {
          "indexed": false,
          "internalType": "address",
          "name": "newUniswapRouter",
          "type": "address"
        }
      ],
      "name": "UniswapRouterChanged",
      "type": "event"
    },
    {
      "anonymous": false,
      "inputs": [
        {
          "indexed": false,
          "internalType": "address",
          "name": "account",
          "type": "address"
        }
      ],
      "name": "Unpaused",
      "type": "event"
    },
    {
      "anonymous": false,
      "inputs": [
        {
          "indexed": false,
          "internalType": "address",
          "name": "recipient",
          "type": "address"
        },
        {
          "indexed": false,
          "internalType": "address",
          "name": "token",
          "type": "address"
        },
        {
          "indexed": false,
          "internalType": "uint256",
          "name": "amount",
          "type": "uint256"
        }
      ],
      "name": "Withdrawal",
      "type": "event"
    },
    {
      "inputs": [],
      "name": "PRICE_DECIMALS",
      "outputs": [
        {
          "internalType": "uint8",
          "name": "",
          "type": "uint8"
        }
      ],
      "stateMutability": "view",
      "type": "function"
    },
    {
      "inputs": [],
      "name": "REWARD_DECIMALS",
      "outputs": [
        {
          "internalType": "uint256",
          "name": "",
          "type": "uint256"
        }
      ],
      "stateMutability": "view",
      "type": "function"
    },
    {
      "inputs": [
        {
          "internalType": "address",
          "name": "token",
          "type": "address"
        }
      ],
      "name": "_priceUSD",
      "outputs": [
        {
          "internalType": "uint256",
          "name": "",
          "type": "uint256"
        }
      ],
      "stateMutability": "view",
      "type": "function"
    },
    {
      "inputs": [
        {
          "internalType": "address",
          "name": "token",
          "type": "address"
        },
        {
          "internalType": "address[]",
          "name": "priceFeed",
          "type": "address[]"
        }
      ],
      "name": "allowToken",
      "outputs": [],
      "stateMutability": "nonpayable",
      "type": "function"
    },
    {
      "inputs": [
        {
          "internalType": "address",
          "name": "currency",
          "type": "address"
        },
        {
          "internalType": "uint256",
          "name": "payment",
          "type": "uint256"
        }
      ],
      "name": "buy",
      "outputs": [
        {
          "internalType": "bool",
          "name": "",
          "type": "bool"
        }
      ],
      "stateMutability": "nonpayable",
      "type": "function"
    },
    {
      "inputs": [],
      "name": "buyFromETH",
      "outputs": [
        {
          "internalType": "bool",
          "name": "",
          "type": "bool"
        }
      ],
      "stateMutability": "payable",
      "type": "function"
    },
    {
      "inputs": [
        {
          "internalType": "address",
          "name": "newToken",
          "type": "address"
        },
        {
          "internalType": "address[]",
          "name": "newCumulativePriceFeed",
          "type": "address[]"
        },
        {
          "internalType": "address",
          "name": "recipient",
          "type": "address"
        }
      ],
      "name": "changeCumulativeToken",
      "outputs": [],
      "stateMutability": "nonpayable",
      "type": "function"
    },
    {
      "inputs": [
        {
          "internalType": "address",
          "name": "newPauser",
          "type": "address"
        }
      ],
      "name": "changePauser",
      "outputs": [],
      "stateMutability": "nonpayable",
      "type": "function"
    },
    {
      "inputs": [
        {
          "internalType": "address",
          "name": "_uniswapRouter",
          "type": "address"
        }
      ],
      "name": "changeUniswapRouter",
      "outputs": [],
      "stateMutability": "nonpayable",
      "type": "function"
    },
    {
      "inputs": [],
      "name": "cumulative",
      "outputs": [
        {
          "internalType": "contract ERC20",
          "name": "",
          "type": "address"
        }
      ],
      "stateMutability": "view",
      "type": "function"
    },
    {
      "inputs": [
        {
          "internalType": "address",
          "name": "token",
          "type": "address"
        }
      ],
      "name": "denyToken",
      "outputs": [],
      "stateMutability": "nonpayable",
      "type": "function"
    },
    {
      "inputs": [
        {
          "internalType": "address",
          "name": "token",
          "type": "address"
        }
      ],
      "name": "isAllowedToken",
      "outputs": [
        {
          "internalType": "bool",
          "name": "",
          "type": "bool"
        }
      ],
      "stateMutability": "view",
      "type": "function"
    },
    {
      "inputs": [],
      "name": "owner",
      "outputs": [
        {
          "internalType": "address",
          "name": "",
          "type": "address"
        }
      ],
      "stateMutability": "view",
      "type": "function"
    },
    {
      "inputs": [],
      "name": "pause",
      "outputs": [],
      "stateMutability": "nonpayable",
      "type": "function"
    },
    {
      "inputs": [],
      "name": "paused",
      "outputs": [
        {
          "internalType": "bool",
          "name": "",
          "type": "bool"
        }
      ],
      "stateMutability": "view",
      "type": "function"
    },
    {
      "inputs": [],
      "name": "pauser",
      "outputs": [
        {
          "internalType": "address",
          "name": "",
          "type": "address"
        }
      ],
      "stateMutability": "view",
      "type": "function"
    },
    {
      "inputs": [
        {
          "internalType": "address",
          "name": "currency",
          "type": "address"
        },
        {
          "internalType": "uint256",
          "name": "payment",
          "type": "uint256"
        }
      ],
      "name": "price",
      "outputs": [
        {
          "internalType": "uint256",
          "name": "product",
          "type": "uint256"
        },
        {
          "internalType": "uint256",
          "name": "reward",
          "type": "uint256"
        }
      ],
      "stateMutability": "view",
      "type": "function"
    },
    {
      "inputs": [],
      "name": "productToken",
      "outputs": [
        {
          "internalType": "contract ERC20",
          "name": "",
          "type": "address"
        }
      ],
      "stateMutability": "view",
      "type": "function"
    },
    {
      "inputs": [],
      "name": "renounceOwnership",
      "outputs": [],
      "stateMutability": "nonpayable",
      "type": "function"
    },
    {
      "inputs": [],
      "name": "rewardToken",
      "outputs": [
        {
          "internalType": "contract ERC20",
          "name": "",
          "type": "address"
        }
      ],
      "stateMutability": "view",
      "type": "function"
    },
    {
      "inputs": [
        {
          "internalType": "address",
          "name": "newOwner",
          "type": "address"
        }
      ],
      "name": "transferOwnership",
      "outputs": [],
      "stateMutability": "nonpayable",
      "type": "function"
    },
    {
      "inputs": [
        {
          "internalType": "address",
          "name": "recipient",
          "type": "address"
        },
        {
          "internalType": "uint256",
          "name": "amount",
          "type": "uint256"
        }
      ],
      "name": "transferProductToken",
      "outputs": [],
      "stateMutability": "nonpayable",
      "type": "function"
    },
    {
      "inputs": [
        {
          "internalType": "address",
          "name": "recipient",
          "type": "address"
        },
        {
          "internalType": "uint256",
          "name": "amount",
          "type": "uint256"
        }
      ],
      "name": "transferRewardToken",
      "outputs": [],
      "stateMutability": "nonpayable",
      "type": "function"
    },
    {
      "inputs": [],
      "name": "uniswapRouter",
      "outputs": [
        {
          "internalType": "contract IUniswapV2Router02",
          "name": "",
          "type": "address"
        }
      ],
      "stateMutability": "view",
      "type": "function"
    },
    {
      "inputs": [],
      "name": "unpause",
      "outputs": [],
      "stateMutability": "nonpayable",
      "type": "function"
    },
    {
      "inputs": [
        {
          "internalType": "address",
          "name": "recipient",
          "type": "address"
        }
      ],
      "name": "withdraw",
      "outputs": [],
      "stateMutability": "nonpayable",
      "type": "function"
    }
  ],
  "transactionHash": "0xa879124798d04b6712c2ff1f7fee17a788c3bc63472bf38ec885c7e3c658da1f",
  "args": [
    "0x64544969ed7ebf5f083679233325356ebe738930",
    "0x040Ab0704101C73a46abF6E4268e653cc54E19F3",
    "0xc825143637D798d5b1a90066e0871Cf4E821D033",
    "0xd99d1c33f9fc3444f8101754abc46c52416550d1",
    [
      "0x90c069c4538adac136e051052e14c1cd799c41b7"
    ]
  ],
  "solcInputHash": "2fe73ff09d4383677bd8a400f6f71546",
  "bytecode": "0x60806040523480156200001157600080fd5b50604051620054e6380380620054e683398181016040528101906200003791906200041a565b6000620000496200027960201b60201c565b9050806000806101000a81548173ffffffffffffffffffffffffffffffffffffffff021916908373ffffffffffffffffffffffffffffffffffffffff1602179055508073ffffffffffffffffffffffffffffffffffffffff16600073ffffffffffffffffffffffffffffffffffffffff167f8be0079c531659141344cd1fd0a4f28419497f9722a3daafe3b4186f6b6457e060405160405180910390a35060008060146101000a81548160ff021916908315150217905550620001116200028160201b60201c565b600160006101000a81548173ffffffffffffffffffffffffffffffffffffffff021916908373ffffffffffffffffffffffffffffffffffffffff16021790555084600260006101000a81548173ffffffffffffffffffffffffffffffffffffffff021916908373ffffffffffffffffffffffffffffffffffffffff1602179055508060039080519060200190620001aa929190620002aa565b5083600460006101000a81548173ffffffffffffffffffffffffffffffffffffffff021916908373ffffffffffffffffffffffffffffffffffffffff16021790555082600560006101000a81548173ffffffffffffffffffffffffffffffffffffffff021916908373ffffffffffffffffffffffffffffffffffffffff16021790555081600660006101000a81548173ffffffffffffffffffffffffffffffffffffffff021916908373ffffffffffffffffffffffffffffffffffffffff16021790555050505050506200055a565b600033905090565b60008060009054906101000a900473ffffffffffffffffffffffffffffffffffffffff16905090565b82805482825590600052602060002090810192821562000326579160200282015b82811115620003255782518260006101000a81548173ffffffffffffffffffffffffffffffffffffffff021916908373ffffffffffffffffffffffffffffffffffffffff16021790555091602001919060010190620002cb565b5b50905062000335919062000339565b5090565b5b808211156200037257600081816101000a81549073ffffffffffffffffffffffffffffffffffffffff0219169055506001016200033a565b5090565b600081519050620003878162000540565b92915050565b600082601f8301126200039f57600080fd5b8151620003b6620003b082620004e3565b620004b5565b91508181835260208401935060208101905083856020840282011115620003dc57600080fd5b60005b83811015620004105781620003f5888262000376565b845260208401935060208301925050600181019050620003df565b5050505092915050565b600080600080600060a086880312156200043357600080fd5b6000620004438882890162000376565b9550506020620004568882890162000376565b9450506040620004698882890162000376565b93505060606200047c8882890162000376565b925050608086015167ffffffffffffffff8111156200049a57600080fd5b620004a8888289016200038d565b9150509295509295909350565b6000604051905081810181811067ffffffffffffffff82111715620004d957600080fd5b8060405250919050565b600067ffffffffffffffff821115620004fb57600080fd5b602082029050602081019050919050565b6000620005198262000520565b9050919050565b600073ffffffffffffffffffffffffffffffffffffffff82169050919050565b6200054b816200050c565b81146200055757600080fd5b50565b614f7c806200056a6000396000f3fe6080604052600436106101815760003560e01c80638da5cb5b116100d1578063ca9f81ca1161008a578063f1a640f811610064578063f1a640f81461052a578063f2fde38b14610555578063f6a399e21461057e578063f7c618c1146105a757610181565b8063ca9f81ca14610487578063cbe230c3146104b0578063cce7ec13146104ed57610181565b80638da5cb5b146103765780639fd0506d146103a1578063ad9b8024146103cc578063adc3fa531461040a578063c337083714610435578063c5ea3d831461045e57610181565b80636b1cc4a81161013e5780637ae176ff116101185780637ae176ff146102ed5780637b3a3195146103185780637f171079146103365780638456cb591461035f57610181565b80636b1cc4a81461026e578063715018a6146102ab578063735de9f7146102c257610181565b806325b4f65f146101865780632cd271e7146101b15780633f4ba83a146101da57806351cff8d9146101f15780635ac267961461021a5780635c975abb14610243575b600080fd5b34801561019257600080fd5b5061019b6105d2565b6040516101a891906147a9565b60405180910390f35b3480156101bd57600080fd5b506101d860048036038101906101d3919061393a565b6105f8565b005b3480156101e657600080fd5b506101ef61072a565b005b3480156101fd57600080fd5b506102186004803603810190610213919061393a565b61080f565b005b34801561022657600080fd5b50610241600480360381019061023c919061398c565b610a71565b005b34801561024f57600080fd5b50610258610b97565b604051610265919061478e565b60405180910390f35b34801561027a57600080fd5b506102956004803603810190610290919061393a565b610bad565b6040516102a29190614ae1565b60405180910390f35b3480156102b757600080fd5b506102c0610d16565b005b3480156102ce57600080fd5b506102d7610e69565b6040516102e491906147c4565b60405180910390f35b3480156102f957600080fd5b50610302610e8f565b60405161030f91906147a9565b60405180910390f35b610320610eb5565b60405161032d919061478e565b60405180910390f35b34801561034257600080fd5b5061035d600480360381019061035891906139e0565b611320565b005b34801561036b57600080fd5b50610374611455565b005b34801561038257600080fd5b5061038b61153a565b604051610398919061461c565b60405180910390f35b3480156103ad57600080fd5b506103b6611563565b6040516103c3919061461c565b60405180910390f35b3480156103d857600080fd5b506103f360048036038101906103ee9190613a47565b611589565b604051610401929190614b78565b60405180910390f35b34801561041657600080fd5b5061041f611a19565b60405161042c9190614ae1565b60405180910390f35b34801561044157600080fd5b5061045c6004803603810190610457919061393a565b611a1e565b005b34801561046a57600080fd5b506104856004803603810190610480919061393a565b611b2e565b005b34801561049357600080fd5b506104ae60048036038101906104a99190613a47565b611c98565b005b3480156104bc57600080fd5b506104d760048036038101906104d2919061393a565b611d5e565b6040516104e4919061478e565b60405180910390f35b3480156104f957600080fd5b50610514600480360381019061050f9190613a47565b611dad565b604051610521919061478e565b60405180910390f35b34801561053657600080fd5b5061053f61224c565b60405161054c9190614bfb565b60405180910390f35b34801561056157600080fd5b5061057c6004803603810190610577919061393a565b612251565b005b34801561058a57600080fd5b506105a560048036038101906105a09190613a47565b612413565b005b3480156105b357600080fd5b506105bc6124d9565b6040516105c991906147a9565b60405180910390f35b600460009054906101000a900473ffffffffffffffffffffffffffffffffffffffff1681565b6106006124ff565b73ffffffffffffffffffffffffffffffffffffffff1660008054906101000a900473ffffffffffffffffffffffffffffffffffffffff1673ffffffffffffffffffffffffffffffffffffffff161461068d576040517f08c379a000000000000000000000000000000000000000000000000000000000815260040161068490614961565b60405180910390fd5b80600160006101000a81548173ffffffffffffffffffffffffffffffffffffffff021916908373ffffffffffffffffffffffffffffffffffffffff1602179055507fb80482a293ca2e013eda8683c9bd7fc8347cfdaeea5ede58cba46df502c2a604600160009054906101000a900473ffffffffffffffffffffffffffffffffffffffff1660405161071f919061461c565b60405180910390a150565b6107326124ff565b73ffffffffffffffffffffffffffffffffffffffff16600160009054906101000a900473ffffffffffffffffffffffffffffffffffffffff1673ffffffffffffffffffffffffffffffffffffffff1614806107c657506107906124ff565b73ffffffffffffffffffffffffffffffffffffffff166107ae61153a565b73ffffffffffffffffffffffffffffffffffffffff16145b610805576040517f08c379a00000000000000000000000000000000000000000000000000000000081526004016107fc906148a1565b60405180910390fd5b61080d612507565b565b6108176124ff565b73ffffffffffffffffffffffffffffffffffffffff1660008054906101000a900473ffffffffffffffffffffffffffffffffffffffff1673ffffffffffffffffffffffffffffffffffffffff16146108a4576040517f08c379a000000000000000000000000000000000000000000000000000000000815260040161089b90614961565b60405180910390fd5b600073ffffffffffffffffffffffffffffffffffffffff168173ffffffffffffffffffffffffffffffffffffffff161415610914576040517f08c379a000000000000000000000000000000000000000000000000000000000815260040161090b906149a1565b60405180910390fd5b6000600260009054906101000a900473ffffffffffffffffffffffffffffffffffffffff1673ffffffffffffffffffffffffffffffffffffffff166370a08231306040518263ffffffff1660e01b8152600401610971919061461c565b60206040518083038186803b15801561098957600080fd5b505afa15801561099d573d6000803e3d6000fd5b505050506040513d601f19601f820116820180604052508101906109c19190613aed565b9050610a108282600260009054906101000a900473ffffffffffffffffffffffffffffffffffffffff1673ffffffffffffffffffffffffffffffffffffffff166125b09092919063ffffffff16565b7f2717ead6b9200dd235aad468c9809ea400fe33ac69b5bfaa6d3e90fc922b639882600260009054906101000a900473ffffffffffffffffffffffffffffffffffffffff1683604051610a65939291906146ce565b60405180910390a15050565b610a796124ff565b73ffffffffffffffffffffffffffffffffffffffff1660008054906101000a900473ffffffffffffffffffffffffffffffffffffffff1673ffffffffffffffffffffffffffffffffffffffff1614610b06576040517f08c379a0000000000000000000000000000000000000000000000000000000008152600401610afd90614961565b60405180910390fd5b80600760008473ffffffffffffffffffffffffffffffffffffffff1673ffffffffffffffffffffffffffffffffffffffff1681526020019081526020016000209080519060200190610b599291906136c7565b507f64c06b9281813567c8c8364b51b8f05ba5b1a88fc9826ecf48d4ab36acb5f78b8282604051610b8b929190614705565b60405180910390a15050565b60008060149054906101000a900460ff16905090565b60006060600260009054906101000a900473ffffffffffffffffffffffffffffffffffffffff1673ffffffffffffffffffffffffffffffffffffffff168373ffffffffffffffffffffffffffffffffffffffff1614610c4a57600760008473ffffffffffffffffffffffffffffffffffffffff1673ffffffffffffffffffffffffffffffffffffffff168152602001908152602001600020610c4d565b60035b805480602002602001604051908101604052809291908181526020018280548015610ccd57602002820191906000526020600020905b8160009054906101000a900473ffffffffffffffffffffffffffffffffffffffff1673ffffffffffffffffffffffffffffffffffffffff1681526020019060010190808311610c83575b505050505090506000610cf6600660ff16600a600f0b0a600f0b8361263690919063ffffffff16565b905060008113610d0b57600092505050610d11565b80925050505b919050565b610d1e6124ff565b73ffffffffffffffffffffffffffffffffffffffff1660008054906101000a900473ffffffffffffffffffffffffffffffffffffffff1673ffffffffffffffffffffffffffffffffffffffff1614610dab576040517f08c379a0000000000000000000000000000000000000000000000000000000008152600401610da290614961565b60405180910390fd5b600073ffffffffffffffffffffffffffffffffffffffff1660008054906101000a900473ffffffffffffffffffffffffffffffffffffffff1673ffffffffffffffffffffffffffffffffffffffff167f8be0079c531659141344cd1fd0a4f28419497f9722a3daafe3b4186f6b6457e060405160405180910390a360008060006101000a81548173ffffffffffffffffffffffffffffffffffffffff021916908373ffffffffffffffffffffffffffffffffffffffff160217905550565b600660009054906101000a900473ffffffffffffffffffffffffffffffffffffffff1681565b600260009054906101000a900473ffffffffffffffffffffffffffffffffffffffff1681565b60008060149054906101000a900460ff1615610f06576040517f08c379a0000000000000000000000000000000000000000000000000000000008152600401610efd906148c1565b60405180910390fd5b6000600660009054906101000a900473ffffffffffffffffffffffffffffffffffffffff1673ffffffffffffffffffffffffffffffffffffffff1663ad5c46486040518163ffffffff1660e01b815260040160206040518083038186803b158015610f7057600080fd5b505afa158015610f84573d6000803e3d6000fd5b505050506040513d601f19601f82011682018060405250810190610fa89190613963565b90506000349050600080610fbc8484611589565b915091506000600460009054906101000a900473ffffffffffffffffffffffffffffffffffffffff1673ffffffffffffffffffffffffffffffffffffffff166370a08231306040518263ffffffff1660e01b815260040161101d919061461c565b60206040518083038186803b15801561103557600080fd5b505afa158015611049573d6000803e3d6000fd5b505050506040513d601f19601f8201168201806040525081019061106d9190613aed565b9050808311156110b2576040517f08c379a00000000000000000000000000000000000000000000000000000000081526004016110a990614a61565b60405180910390fd5b600260009054906101000a900473ffffffffffffffffffffffffffffffffffffffff1673ffffffffffffffffffffffffffffffffffffffff168573ffffffffffffffffffffffffffffffffffffffff161461121d576000611113868661265e565b90506000811415611159576040517f08c379a0000000000000000000000000000000000000000000000000000000008152600401611150906148e1565b60405180910390fd5b600660009054906101000a900473ffffffffffffffffffffffffffffffffffffffff1673ffffffffffffffffffffffffffffffffffffffff16637ff36ab586836111a28a612784565b30426040518663ffffffff1660e01b81526004016111c39493929190614b2c565b6000604051808303818588803b1580156111dc57600080fd5b505af11580156111f0573d6000803e3d6000fd5b50505050506040513d6000823e3d601f19601f8201168201806040525081019061121a9190613a83565b50505b6112716112286124ff565b84600460009054906101000a900473ffffffffffffffffffffffffffffffffffffffff1673ffffffffffffffffffffffffffffffffffffffff166125b09092919063ffffffff16565b60008211156112cf576112ce6112856124ff565b83600560009054906101000a900473ffffffffffffffffffffffffffffffffffffffff1673ffffffffffffffffffffffffffffffffffffffff166125b09092919063ffffffff16565b5b7ef93dbdb72854b6b6fb35433086556f2635fc83c37080c667496fecfa650fb46112f76124ff565b8686868660405161130c959493929190614652565b60405180910390a160019550505050505090565b6113286124ff565b73ffffffffffffffffffffffffffffffffffffffff1660008054906101000a900473ffffffffffffffffffffffffffffffffffffffff1673ffffffffffffffffffffffffffffffffffffffff16146113b5576040517f08c379a00000000000000000000000000000000000000000000000000000000081526004016113ac90614961565b60405180910390fd5b6113be8161080f565b82600260006101000a81548173ffffffffffffffffffffffffffffffffffffffff021916908373ffffffffffffffffffffffffffffffffffffffff16021790555081600390805190602001906114159291906136c7565b507f2f1e20302b538f039c0a30fd7751de4a0e0442e0c929d4750b3a662450e6095d836003604051611448929190614735565b60405180910390a1505050565b61145d6124ff565b73ffffffffffffffffffffffffffffffffffffffff16600160009054906101000a900473ffffffffffffffffffffffffffffffffffffffff1673ffffffffffffffffffffffffffffffffffffffff1614806114f157506114bb6124ff565b73ffffffffffffffffffffffffffffffffffffffff166114d961153a565b73ffffffffffffffffffffffffffffffffffffffff16145b611530576040517f08c379a000000000000000000000000000000000000000000000000000000000815260040161152790614881565b60405180910390fd5b611538612ab7565b565b60008060009054906101000a900473ffffffffffffffffffffffffffffffffffffffff16905090565b600160009054906101000a900473ffffffffffffffffffffffffffffffffffffffff1681565b60008061159584611d5e565b6115d4576040517f08c379a00000000000000000000000000000000000000000000000000000000081526004016115cb90614841565b60405180910390fd5b60008473ffffffffffffffffffffffffffffffffffffffff1663313ce5676040518163ffffffff1660e01b815260040160206040518083038186803b15801561161c57600080fd5b505afa158015611630573d6000803e3d6000fd5b505050506040513d601f19601f820116820180604052508101906116549190613b8d565b60ff1690506000600460009054906101000a900473ffffffffffffffffffffffffffffffffffffffff1673ffffffffffffffffffffffffffffffffffffffff1663313ce5676040518163ffffffff1660e01b815260040160206040518083038186803b1580156116c357600080fd5b505afa1580156116d7573d6000803e3d6000fd5b505050506040513d601f19601f820116820180604052508101906116fb9190613b8d565b60ff169050600061170b87610bad565b9050600061173a600260009054906101000a900473ffffffffffffffffffffffffffffffffffffffff16610bad565b9050600081146118515761176c61175a8585612b6290919063ffffffff16565b600a0a88612bac90919063ffffffff16565b95508773ffffffffffffffffffffffffffffffffffffffff16600460009054906101000a900473ffffffffffffffffffffffffffffffffffffffff1673ffffffffffffffffffffffffffffffffffffffff16146118505761184d6117d98585612b6290919063ffffffff16565b600a0a61183f600660ff16600a600f0b0a600f0b6118318b61182387611815600660ff16600a600f0b0a600f0b8b612bac90919063ffffffff16565b612c1c90919063ffffffff16565b612bac90919063ffffffff16565b612c1c90919063ffffffff16565b612bac90919063ffffffff16565b95505b5b6000600460009054906101000a900473ffffffffffffffffffffffffffffffffffffffff1673ffffffffffffffffffffffffffffffffffffffff166370a08231306040518263ffffffff1660e01b81526004016118ae919061461c565b60206040518083038186803b1580156118c657600080fd5b505afa1580156118da573d6000803e3d6000fd5b505050506040513d601f19601f820116820180604052508101906118fe9190613aed565b90506000811115611a0d576000600560009054906101000a900473ffffffffffffffffffffffffffffffffffffffff1673ffffffffffffffffffffffffffffffffffffffff166370a08231306040518263ffffffff1660e01b8152600401611966919061461c565b60206040518083038186803b15801561197e57600080fd5b505afa158015611992573d6000803e3d6000fd5b505050506040513d601f19601f820116820180604052508101906119b69190613aed565b9050611a09600c600a0a6119fb836119ed866119df600c600a0a8f612bac90919063ffffffff16565b612c1c90919063ffffffff16565b612bac90919063ffffffff16565b612c1c90919063ffffffff16565b9650505b50505050509250929050565b600c81565b611a266124ff565b73ffffffffffffffffffffffffffffffffffffffff1660008054906101000a900473ffffffffffffffffffffffffffffffffffffffff1673ffffffffffffffffffffffffffffffffffffffff1614611ab3576040517f08c379a0000000000000000000000000000000000000000000000000000000008152600401611aaa90614961565b60405180910390fd5b80600660006101000a81548173ffffffffffffffffffffffffffffffffffffffff021916908373ffffffffffffffffffffffffffffffffffffffff1602179055507f0a3776494a324cdd72863deb1475d9eb705db96d66e7e199f3ebe4948343a43881604051611b23919061461c565b60405180910390a150565b611b366124ff565b73ffffffffffffffffffffffffffffffffffffffff1660008054906101000a900473ffffffffffffffffffffffffffffffffffffffff1673ffffffffffffffffffffffffffffffffffffffff1614611bc3576040517f08c379a0000000000000000000000000000000000000000000000000000000008152600401611bba90614961565b60405180910390fd5b600067ffffffffffffffff81118015611bdb57600080fd5b50604051908082528060200260200182016040528015611c0a5781602001602082028036833780820191505090505b50600760008373ffffffffffffffffffffffffffffffffffffffff1673ffffffffffffffffffffffffffffffffffffffff1681526020019081526020016000209080519060200190611c5d9291906136c7565b507f99141d0e2d4f048b95e099fa59ce3343ad2b2827553ca03a066fdcbfc421dbb181604051611c8d919061461c565b60405180910390a150565b611ca06124ff565b73ffffffffffffffffffffffffffffffffffffffff1660008054906101000a900473ffffffffffffffffffffffffffffffffffffffff1673ffffffffffffffffffffffffffffffffffffffff1614611d2d576040517f08c379a0000000000000000000000000000000000000000000000000000000008152600401611d2490614961565b60405180910390fd5b611d5a600560009054906101000a900473ffffffffffffffffffffffffffffffffffffffff168383612c66565b5050565b600080600760008473ffffffffffffffffffffffffffffffffffffffff1673ffffffffffffffffffffffffffffffffffffffff1681526020019081526020016000208054905014159050919050565b60008060149054906101000a900460ff1615611dfe576040517f08c379a0000000000000000000000000000000000000000000000000000000008152600401611df5906148c1565b60405180910390fd5b600080611e0b8585611589565b915091506000600460009054906101000a900473ffffffffffffffffffffffffffffffffffffffff1673ffffffffffffffffffffffffffffffffffffffff166370a08231306040518263ffffffff1660e01b8152600401611e6c919061461c565b60206040518083038186803b158015611e8457600080fd5b505afa158015611e98573d6000803e3d6000fd5b505050506040513d601f19601f82011682018060405250810190611ebc9190613aed565b9050600081118015611ece5750808311155b611f0d576040517f08c379a0000000000000000000000000000000000000000000000000000000008152600401611f0490614a01565b60405180910390fd5b611f41611f186124ff565b30878973ffffffffffffffffffffffffffffffffffffffff16612dd7909392919063ffffffff16565b600260009054906101000a900473ffffffffffffffffffffffffffffffffffffffff1673ffffffffffffffffffffffffffffffffffffffff168673ffffffffffffffffffffffffffffffffffffffff1614612148576000611fa2878761265e565b90506000811415611fe8576040517f08c379a0000000000000000000000000000000000000000000000000000000008152600401611fdf90614801565b60405180910390fd5b612036600660009054906101000a900473ffffffffffffffffffffffffffffffffffffffff1660008973ffffffffffffffffffffffffffffffffffffffff16612e609092919063ffffffff16565b612083600660009054906101000a900473ffffffffffffffffffffffffffffffffffffffff16878973ffffffffffffffffffffffffffffffffffffffff16612e609092919063ffffffff16565b600660009054906101000a900473ffffffffffffffffffffffffffffffffffffffff1673ffffffffffffffffffffffffffffffffffffffff166338ed173987836120cc8b612784565b30426040518663ffffffff1660e01b81526004016120ee959493929190614ba1565b600060405180830381600087803b15801561210857600080fd5b505af115801561211c573d6000803e3d6000fd5b505050506040513d6000823e3d601f19601f820116820180604052508101906121459190613a83565b50505b61219c6121536124ff565b84600460009054906101000a900473ffffffffffffffffffffffffffffffffffffffff1673ffffffffffffffffffffffffffffffffffffffff166125b09092919063ffffffff16565b60008211156121fa576121f96121b06124ff565b83600560009054906101000a900473ffffffffffffffffffffffffffffffffffffffff1673ffffffffffffffffffffffffffffffffffffffff166125b09092919063ffffffff16565b5b7ef93dbdb72854b6b6fb35433086556f2635fc83c37080c667496fecfa650fb46122226124ff565b87878686604051612237959493929190614652565b60405180910390a16001935050505092915050565b600681565b6122596124ff565b73ffffffffffffffffffffffffffffffffffffffff1660008054906101000a900473ffffffffffffffffffffffffffffffffffffffff1673ffffffffffffffffffffffffffffffffffffffff16146122e6576040517f08c379a00000000000000000000000000000000000000000000000000000000081526004016122dd90614961565b60405180910390fd5b600073ffffffffffffffffffffffffffffffffffffffff168173ffffffffffffffffffffffffffffffffffffffff161415612356576040517f08c379a000000000000000000000000000000000000000000000000000000000815260040161234d90614861565b60405180910390fd5b8073ffffffffffffffffffffffffffffffffffffffff1660008054906101000a900473ffffffffffffffffffffffffffffffffffffffff1673ffffffffffffffffffffffffffffffffffffffff167f8be0079c531659141344cd1fd0a4f28419497f9722a3daafe3b4186f6b6457e060405160405180910390a3806000806101000a81548173ffffffffffffffffffffffffffffffffffffffff021916908373ffffffffffffffffffffffffffffffffffffffff16021790555050565b61241b6124ff565b73ffffffffffffffffffffffffffffffffffffffff1660008054906101000a900473ffffffffffffffffffffffffffffffffffffffff1673ffffffffffffffffffffffffffffffffffffffff16146124a8576040517f08c379a000000000000000000000000000000000000000000000000000000000815260040161249f90614961565b60405180910390fd5b6124d5600460009054906101000a900473ffffffffffffffffffffffffffffffffffffffff168383612c66565b5050565b600560009054906101000a900473ffffffffffffffffffffffffffffffffffffffff1681565b600033905090565b600060149054906101000a900460ff16612556576040517f08c379a000000000000000000000000000000000000000000000000000000000815260040161254d90614821565b60405180910390fd5b60008060146101000a81548160ff0219169083151502179055507f5db9ee0a495bf2e6ff9c91a7834c1ba4fdd244a5e8aa4e537bd38aeae4b073aa6125996124ff565b6040516125a69190614637565b60405180910390a1565b6126318363a9059cbb60e01b84846040516024016125cf929190614765565b604051602081830303815290604052907bffffffffffffffffffffffffffffffffffffffffffffffffffffffff19166020820180517bffffffffffffffffffffffffffffffffffffffffffffffffffffffff8381831617835250505050612fbe565b505050565b60006126428383613085565b83518151811061264e57fe5b6020026020010151905092915050565b60006060600660009054906101000a900473ffffffffffffffffffffffffffffffffffffffff1673ffffffffffffffffffffffffffffffffffffffff1663d06ca61f846126aa87612784565b6040518363ffffffff1660e01b81526004016126c7929190614afc565b60006040518083038186803b1580156126df57600080fd5b505afa1580156126f3573d6000803e3d6000fd5b505050506040513d6000823e3d601f19601f8201168201806040525081019061271c9190613a83565b9050600081511415612763576040517f08c379a000000000000000000000000000000000000000000000000000000000815260040161275a90614941565b60405180910390fd5b8060018251038151811061277357fe5b602002602001015191505092915050565b60606000600660009054906101000a900473ffffffffffffffffffffffffffffffffffffffff1673ffffffffffffffffffffffffffffffffffffffff1663ad5c46486040518163ffffffff1660e01b815260040160206040518083038186803b1580156127f057600080fd5b505afa158015612804573d6000803e3d6000fd5b505050506040513d601f19601f820116820180604052508101906128289190613963565b90508273ffffffffffffffffffffffffffffffffffffffff168173ffffffffffffffffffffffffffffffffffffffff161415612966576060600267ffffffffffffffff8111801561287857600080fd5b506040519080825280602002602001820160405280156128a75781602001602082028036833780820191505090505b50905083816000815181106128b857fe5b602002602001019073ffffffffffffffffffffffffffffffffffffffff16908173ffffffffffffffffffffffffffffffffffffffff1681525050600260009054906101000a900473ffffffffffffffffffffffffffffffffffffffff168160018151811061292257fe5b602002602001019073ffffffffffffffffffffffffffffffffffffffff16908173ffffffffffffffffffffffffffffffffffffffff16815250508092505050612ab2565b6060600367ffffffffffffffff8111801561298057600080fd5b506040519080825280602002602001820160405280156129af5781602001602082028036833780820191505090505b50905083816000815181106129c057fe5b602002602001019073ffffffffffffffffffffffffffffffffffffffff16908173ffffffffffffffffffffffffffffffffffffffff16815250508181600181518110612a0857fe5b602002602001019073ffffffffffffffffffffffffffffffffffffffff16908173ffffffffffffffffffffffffffffffffffffffff1681525050600260009054906101000a900473ffffffffffffffffffffffffffffffffffffffff1681600281518110612a7257fe5b602002602001019073ffffffffffffffffffffffffffffffffffffffff16908173ffffffffffffffffffffffffffffffffffffffff168152505080925050505b919050565b600060149054906101000a900460ff1615612b07576040517f08c379a0000000000000000000000000000000000000000000000000000000008152600401612afe906148c1565b60405180910390fd5b6001600060146101000a81548160ff0219169083151502179055507f62e78cea01bee320cd4e420270b5ea74000d11b0c9f74754ebdbfc544b05a258612b4b6124ff565b604051612b589190614637565b60405180910390a1565b6000612ba483836040518060400160405280601e81526020017f536166654d6174683a207375627472616374696f6e206f766572666c6f7700008152506132d4565b905092915050565b600080831415612bbf5760009050612c16565b6000828402905082848281612bd057fe5b0414612c11576040517f08c379a0000000000000000000000000000000000000000000000000000000008152600401612c0890614921565b60405180910390fd5b809150505b92915050565b6000612c5e83836040518060400160405280601a81526020017f536166654d6174683a206469766973696f6e206279207a65726f00000000000081525061332f565b905092915050565b600073ffffffffffffffffffffffffffffffffffffffff168273ffffffffffffffffffffffffffffffffffffffff161415612cd6576040517f08c379a0000000000000000000000000000000000000000000000000000000008152600401612ccd90614a21565b60405180910390fd5b60008373ffffffffffffffffffffffffffffffffffffffff166370a08231306040518263ffffffff1660e01b8152600401612d11919061461c565b60206040518083038186803b158015612d2957600080fd5b505afa158015612d3d573d6000803e3d6000fd5b505050506040513d601f19601f82011682018060405250810190612d619190613aed565b905080821115612da6576040517f08c379a0000000000000000000000000000000000000000000000000000000008152600401612d9d90614aa1565b60405180910390fd5b612dd183838673ffffffffffffffffffffffffffffffffffffffff166125b09092919063ffffffff16565b50505050565b612e5a846323b872dd60e01b858585604051602401612df8939291906146ce565b604051602081830303815290604052907bffffffffffffffffffffffffffffffffffffffffffffffffffffffff19166020820180517bffffffffffffffffffffffffffffffffffffffffffffffffffffffff8381831617835250505050612fbe565b50505050565b6000811480612ef9575060008373ffffffffffffffffffffffffffffffffffffffff1663dd62ed3e30856040518363ffffffff1660e01b8152600401612ea79291906146a5565b60206040518083038186803b158015612ebf57600080fd5b505afa158015612ed3573d6000803e3d6000fd5b505050506040513d601f19601f82011682018060405250810190612ef79190613aed565b145b612f38576040517f08c379a0000000000000000000000000000000000000000000000000000000008152600401612f2f90614ac1565b60405180910390fd5b612fb98363095ea7b360e01b8484604051602401612f57929190614765565b604051602081830303815290604052907bffffffffffffffffffffffffffffffffffffffffffffffffffffffff19166020820180517bffffffffffffffffffffffffffffffffffffffffffffffffffffffff8381831617835250505050612fbe565b505050565b6060613020826040518060400160405280602081526020017f5361666545524332303a206c6f772d6c6576656c2063616c6c206661696c65648152508573ffffffffffffffffffffffffffffffffffffffff166133909092919063ffffffff16565b905060008151111561308057808060200190518101906130409190613ac4565b61307f576040517f08c379a000000000000000000000000000000000000000000000000000000000815260040161307690614a41565b60405180910390fd5b5b505050565b606060008351116130cb576040517f08c379a00000000000000000000000000000000000000000000000000000000081526004016130c2906149c1565b60405180910390fd5b600183510167ffffffffffffffff811180156130e657600080fd5b506040519080825280602002602001820160405280156131155781602001602082028036833780820191505090505b509050818160008151811061312657fe5b60200260200101818152505060005b83518110156132cd57600084828151811061314c57fe5b6020026020010151905060008173ffffffffffffffffffffffffffffffffffffffff1663313ce5676040518163ffffffff1660e01b815260040160206040518083038186803b15801561319e57600080fd5b505afa1580156131b2573d6000803e3d6000fd5b505050506040513d601f19601f820116820180604052508101906131d69190613b8d565b905060008273ffffffffffffffffffffffffffffffffffffffff1663feaf968c6040518163ffffffff1660e01b815260040160a06040518083038186803b15801561322057600080fd5b505afa158015613234573d6000803e3d6000fd5b505050506040513d601f19601f820116820180604052508101906132589190613b16565b5050509150506132a28260ff16600a600f0b0a600f0b6132948388888151811061327e57fe5b60200260200101516133a890919063ffffffff16565b6134a690919063ffffffff16565b8560018601815181106132b157fe5b6020026020010181815250505050508080600101915050613135565b5092915050565b600083831115829061331c576040517f08c379a000000000000000000000000000000000000000000000000000000000815260040161331391906147df565b60405180910390fd5b5060008385039050809150509392505050565b60008083118290613376576040517f08c379a000000000000000000000000000000000000000000000000000000000815260040161336d91906147df565b60405180910390fd5b50600083858161338257fe5b049050809150509392505050565b606061339f8484600085613591565b90509392505050565b6000808314156133bb57600090506134a0565b7fffffffffffffffffffffffffffffffffffffffffffffffffffffffffffffffff8314801561340957507f800000000000000000000000000000000000000000000000000000000000000082145b15613449576040517f08c379a000000000000000000000000000000000000000000000000000000000815260040161344090614981565b60405180910390fd5b600082840290508284828161345a57fe5b051461349b576040517f08c379a000000000000000000000000000000000000000000000000000000000815260040161349290614981565b60405180910390fd5b809150505b92915050565b6000808214156134eb576040517f08c379a00000000000000000000000000000000000000000000000000000000081526004016134e290614a81565b60405180910390fd5b7fffffffffffffffffffffffffffffffffffffffffffffffffffffffffffffffff8214801561353957507f800000000000000000000000000000000000000000000000000000000000000083145b15613579576040517f08c379a000000000000000000000000000000000000000000000000000000000815260040161357090614901565b60405180910390fd5b600082848161358457fe5b0590508091505092915050565b606061359c856136b4565b6135db576040517f08c379a00000000000000000000000000000000000000000000000000000000081526004016135d2906149e1565b60405180910390fd5b600060608673ffffffffffffffffffffffffffffffffffffffff1685876040516136059190614605565b60006040518083038185875af1925050503d8060008114613642576040519150601f19603f3d011682016040523d82523d6000602084013e613647565b606091505b5091509150811561365c5780925050506136ac565b60008151111561366f5780518082602001fd5b836040517f08c379a00000000000000000000000000000000000000000000000000000000081526004016136a391906147df565b60405180910390fd5b949350505050565b600080823b905060008111915050919050565b828054828255906000526020600020908101928215613740579160200282015b8281111561373f5782518260006101000a81548173ffffffffffffffffffffffffffffffffffffffff021916908373ffffffffffffffffffffffffffffffffffffffff160217905550916020019190600101906136e7565b5b50905061374d9190613751565b5090565b5b8082111561378857600081816101000a81549073ffffffffffffffffffffffffffffffffffffffff021916905550600101613752565b5090565b60008135905061379b81614ebc565b92915050565b6000815190506137b081614ebc565b92915050565b600082601f8301126137c757600080fd5b81356137da6137d582614c43565b614c16565b915081818352602084019350602081019050838560208402820111156137ff57600080fd5b60005b8381101561382f5781613815888261378c565b845260208401935060208301925050600181019050613802565b5050505092915050565b600082601f83011261384a57600080fd5b815161385d61385882614c6b565b614c16565b9150818183526020840193506020810190508385602084028201111561388257600080fd5b60005b838110156138b2578161389888826138fb565b845260208401935060208301925050600181019050613885565b5050505092915050565b6000815190506138cb81614ed3565b92915050565b6000815190506138e081614eea565b92915050565b6000813590506138f581614f01565b92915050565b60008151905061390a81614f01565b92915050565b60008151905061391f81614f2f565b92915050565b60008151905061393481614f18565b92915050565b60006020828403121561394c57600080fd5b600061395a8482850161378c565b91505092915050565b60006020828403121561397557600080fd5b6000613983848285016137a1565b91505092915050565b6000806040838503121561399f57600080fd5b60006139ad8582860161378c565b925050602083013567ffffffffffffffff8111156139ca57600080fd5b6139d6858286016137b6565b9150509250929050565b6000806000606084860312156139f557600080fd5b6000613a038682870161378c565b935050602084013567ffffffffffffffff811115613a2057600080fd5b613a2c868287016137b6565b9250506040613a3d8682870161378c565b9150509250925092565b60008060408385031215613a5a57600080fd5b6000613a688582860161378c565b9250506020613a79858286016138e6565b9150509250929050565b600060208284031215613a9557600080fd5b600082015167ffffffffffffffff811115613aaf57600080fd5b613abb84828501613839565b91505092915050565b600060208284031215613ad657600080fd5b6000613ae4848285016138bc565b91505092915050565b600060208284031215613aff57600080fd5b6000613b0d848285016138fb565b91505092915050565b600080600080600060a08688031215613b2e57600080fd5b6000613b3c88828901613910565b9550506020613b4d888289016138d1565b9450506040613b5e888289016138fb565b9350506060613b6f888289016138fb565b9250506080613b8088828901613910565b9150509295509295909350565b600060208284031215613b9f57600080fd5b6000613bad84828501613925565b91505092915050565b6000613bc28383613bdd565b60208301905092915050565b613bd781614dc0565b82525050565b613be681614d4b565b82525050565b613bf581614d4b565b82525050565b6000613c0682614cb8565b613c108185614cfe565b9350613c1b83614c93565b8060005b83811015613c4c578151613c338882613bb6565b9750613c3e83614ce4565b925050600181019050613c1f565b5085935050505092915050565b6000613c6482614cc3565b613c6e8185614cfe565b9350613c7983614ca3565b8060005b83811015613cb157613c8e82614e8b565b613c988882613bb6565b9750613ca383614cf1565b925050600181019050613c7d565b5085935050505092915050565b613cc781614d5d565b82525050565b6000613cd882614cce565b613ce28185614d0f565b9350613cf2818560208601614e3e565b80840191505092915050565b613d0781614dd2565b82525050565b613d1681614df6565b82525050565b6000613d2782614cd9565b613d318185614d1a565b9350613d41818560208601614e3e565b613d4a81614e9e565b840191505092915050565b6000613d62602483614d1a565b91507f4d61726b65743a3a6275793a206c697175696469747920706f6f6c206973206560008301527f6d707479000000000000000000000000000000000000000000000000000000006020830152604082019050919050565b6000613dc8601483614d1a565b91507f5061757361626c653a206e6f74207061757365640000000000000000000000006000830152602082019050919050565b6000613e08602383614d1a565b91507f4d61726b65743a3a70726963653a2063757272656e6379206e6f7420616c6c6f60008301527f77656400000000000000000000000000000000000000000000000000000000006020830152604082019050919050565b6000613e6e602683614d1a565b91507f4f776e61626c653a206e6577206f776e657220697320746865207a65726f206160008301527f64647265737300000000000000000000000000000000000000000000000000006020830152604082019050919050565b6000613ed4604183614d1a565b91507f4f776e61626c655061757361626c653a3a70617573653a206f6e6c792070617560008301527f73657220616e64206f776e6572206d75737420706175736520636f6e7472616360208301527f74000000000000000000000000000000000000000000000000000000000000006040830152606082019050919050565b6000613f60604583614d1a565b91507f4f776e61626c655061757361626c653a3a756e70617573653a206f6e6c79207060008301527f617573657220616e64206f776e6572206d75737420756e706175736520636f6e60208301527f74726163740000000000000000000000000000000000000000000000000000006040830152606082019050919050565b6000613fec601083614d1a565b91507f5061757361626c653a20706175736564000000000000000000000000000000006000830152602082019050919050565b600061402c602b83614d1a565b91507f4d61726b65743a3a62757946726f6d4554483a206c697175696469747920706f60008301527f6f6c20697320656d7074790000000000000000000000000000000000000000006020830152604082019050919050565b6000614092602183614d1a565b91507f5369676e6564536166654d6174683a206469766973696f6e206f766572666c6f60008301527f77000000000000000000000000000000000000000000000000000000000000006020830152604082019050919050565b60006140f8602183614d1a565b91507f536166654d6174683a206d756c7469706c69636174696f6e206f766572666c6f60008301527f77000000000000000000000000000000000000000000000000000000000000006020830152604082019050919050565b600061415e602e83614d1a565b91507f4d61726b65743a3a5f616d6f756e744f75743a20696e76616c696420616d6f7560008301527f6e7473206f7574206c656e6774680000000000000000000000000000000000006020830152604082019050919050565b60006141c4602083614d1a565b91507f4f776e61626c653a2063616c6c6572206973206e6f7420746865206f776e65726000830152602082019050919050565b6000614204602783614d1a565b91507f5369676e6564536166654d6174683a206d756c7469706c69636174696f6e206f60008301527f766572666c6f77000000000000000000000000000000000000000000000000006020830152604082019050919050565b600061426a603583614d1a565b91507f4d61726b65743a3a77697468647261773a2063616e6e6f74207472616e73666560008301527f7220746f20746865207a65726f206164647265737300000000000000000000006020830152604082019050919050565b60006142d0602583614d1a565b91507f436861696e6c696e6b43726f73735072696365466565643a20696e76616c696460008301527f20706174680000000000000000000000000000000000000000000000000000006020830152604082019050919050565b6000614336601d83614d1a565b91507f416464726573733a2063616c6c20746f206e6f6e2d636f6e74726163740000006000830152602082019050919050565b6000614376601c83614d1a565b91507f4d61726b65743a3a6275793a20657863656564732062616c616e6365000000006000830152602082019050919050565b60006143b6603583614d1a565b91507f4d61726b65743a3a7472616e736665723a2063616e6e6f74207472616e73666560008301527f7220746f20746865207a65726f206164647265737300000000000000000000006020830152604082019050919050565b600061441c602a83614d1a565b91507f5361666545524332303a204552433230206f7065726174696f6e20646964206e60008301527f6f742073756363656564000000000000000000000000000000000000000000006020830152604082019050919050565b6000614482602483614d1a565b91507f4d61726b65743a3a62757946726f6d4554483a2062616c616e6365206973206560008301527f6d707479000000000000000000000000000000000000000000000000000000006020830152604082019050919050565b60006144e8602083614d1a565b91507f5369676e6564536166654d6174683a206469766973696f6e206279207a65726f6000830152602082019050919050565b6000614528602383614d1a565b91507f4d61726b65743a3a7472616e736665723a206e6f7420656e6f75676820746f6b60008301527f656e7300000000000000000000000000000000000000000000000000000000006020830152604082019050919050565b600061458e603683614d1a565b91507f5361666545524332303a20617070726f76652066726f6d206e6f6e2d7a65726f60008301527f20746f206e6f6e2d7a65726f20616c6c6f77616e6365000000000000000000006020830152604082019050919050565b6145f081614d93565b82525050565b6145ff81614d9d565b82525050565b60006146118284613ccd565b915081905092915050565b60006020820190506146316000830184613bec565b92915050565b600060208201905061464c6000830184613bce565b92915050565b600060a0820190506146676000830188613bce565b6146746020830187613bec565b61468160408301866145e7565b61468e60608301856145e7565b61469b60808301846145e7565b9695505050505050565b60006040820190506146ba6000830185613bec565b6146c76020830184613bec565b9392505050565b60006060820190506146e36000830186613bec565b6146f06020830185613bec565b6146fd60408301846145e7565b949350505050565b600060408201905061471a6000830185613bec565b818103602083015261472c8184613bfb565b90509392505050565b600060408201905061474a6000830185613bec565b818103602083015261475c8184613c59565b90509392505050565b600060408201905061477a6000830185613bec565b61478760208301846145e7565b9392505050565b60006020820190506147a36000830184613cbe565b92915050565b60006020820190506147be6000830184613cfe565b92915050565b60006020820190506147d96000830184613d0d565b92915050565b600060208201905081810360008301526147f98184613d1c565b905092915050565b6000602082019050818103600083015261481a81613d55565b9050919050565b6000602082019050818103600083015261483a81613dbb565b9050919050565b6000602082019050818103600083015261485a81613dfb565b9050919050565b6000602082019050818103600083015261487a81613e61565b9050919050565b6000602082019050818103600083015261489a81613ec7565b9050919050565b600060208201905081810360008301526148ba81613f53565b9050919050565b600060208201905081810360008301526148da81613fdf565b9050919050565b600060208201905081810360008301526148fa8161401f565b9050919050565b6000602082019050818103600083015261491a81614085565b9050919050565b6000602082019050818103600083015261493a816140eb565b9050919050565b6000602082019050818103600083015261495a81614151565b9050919050565b6000602082019050818103600083015261497a816141b7565b9050919050565b6000602082019050818103600083015261499a816141f7565b9050919050565b600060208201905081810360008301526149ba8161425d565b9050919050565b600060208201905081810360008301526149da816142c3565b9050919050565b600060208201905081810360008301526149fa81614329565b9050919050565b60006020820190508181036000830152614a1a81614369565b9050919050565b60006020820190508181036000830152614a3a816143a9565b9050919050565b60006020820190508181036000830152614a5a8161440f565b9050919050565b60006020820190508181036000830152614a7a81614475565b9050919050565b60006020820190508181036000830152614a9a816144db565b9050919050565b60006020820190508181036000830152614aba8161451b565b9050919050565b60006020820190508181036000830152614ada81614581565b9050919050565b6000602082019050614af660008301846145e7565b92915050565b6000604082019050614b1160008301856145e7565b8181036020830152614b238184613bfb565b90509392505050565b6000608082019050614b4160008301876145e7565b8181036020830152614b538186613bfb565b9050614b626040830185613bec565b614b6f60608301846145e7565b95945050505050565b6000604082019050614b8d60008301856145e7565b614b9a60208301846145e7565b9392505050565b600060a082019050614bb660008301886145e7565b614bc360208301876145e7565b8181036040830152614bd58186613bfb565b9050614be46060830185613bec565b614bf160808301846145e7565b9695505050505050565b6000602082019050614c1060008301846145f6565b92915050565b6000604051905081810181811067ffffffffffffffff82111715614c3957600080fd5b8060405250919050565b600067ffffffffffffffff821115614c5a57600080fd5b602082029050602081019050919050565b600067ffffffffffffffff821115614c8257600080fd5b602082029050602081019050919050565b6000819050602082019050919050565b60008190508160005260206000209050919050565b600081519050919050565b600081549050919050565b600081519050919050565b600081519050919050565b6000602082019050919050565b6000600182019050919050565b600082825260208201905092915050565b600081905092915050565b600082825260208201905092915050565b600073ffffffffffffffffffffffffffffffffffffffff82169050919050565b6000614d5682614d73565b9050919050565b60008115159050919050565b6000819050919050565b600073ffffffffffffffffffffffffffffffffffffffff82169050919050565b6000819050919050565b600060ff82169050919050565b600069ffffffffffffffffffff82169050919050565b6000614dcb82614e1a565b9050919050565b6000614ddd82614de4565b9050919050565b6000614def82614d73565b9050919050565b6000614e0182614e08565b9050919050565b6000614e1382614d73565b9050919050565b6000614e2582614e2c565b9050919050565b6000614e3782614d73565b9050919050565b60005b83811015614e5c578082015181840152602081019050614e41565b83811115614e6b576000848401525b50505050565b6000614e84614e7f83614eaf565b614d2b565b9050919050565b6000614e978254614e71565b9050919050565b6000601f19601f8301169050919050565b60008160001c9050919050565b614ec581614d4b565b8114614ed057600080fd5b50565b614edc81614d5d565b8114614ee757600080fd5b50565b614ef381614d69565b8114614efe57600080fd5b50565b614f0a81614d93565b8114614f1557600080fd5b50565b614f2181614d9d565b8114614f2c57600080fd5b50565b614f3881614daa565b8114614f4357600080fd5b5056fea26469706673582212205f6a56680304e4cbb24a191e72f31d13fb7c7407ed7b418f73b5d97f8725fcd964736f6c634300060c0033",
  "devdoc": {
    "kind": "dev",
    "methods": {
      "_priceUSD(address)": {
        "params": {
          "token": "Target token."
        },
        "returns": {
          "_0": "Price token at USD."
        }
      },
      "allowToken(address,address[])": {
        "params": {
          "priceFeed": "Price feed chain.",
          "token": "Allowable token."
        }
      },
      "buy(address,uint256)": {
        "params": {
          "currency": "Currency token.",
          "payment": "Amount of payment."
        },
        "returns": {
          "_0": "True if success."
        }
      },
      "buyFromETH()": {
        "returns": {
          "_0": "True if success."
        }
      },
      "changeCumulativeToken(address,address[],address)": {
        "params": {
          "newCumulativePriceFeed": "Address new price oracle contract.",
          "newToken": "Address new cumulative token.",
          "recipient": "Address of recipient for withdraw current cumulative balance."
        }
      },
      "changePauser(address)": {
        "params": {
          "newPauser": "Address of new pauser account."
        }
      },
      "changeUniswapRouter(address)": {
        "params": {
          "_uniswapRouter": "Address new uniswap router contract."
        }
      },
      "constructor": {
        "params": {
          "_cumulative": "Address of cumulative token.",
          "_cumulativePriceFeed": "Price feeds chain of cumulative token.",
          "_productToken": "Address of product token.",
          "_rewardToken": "Address of reward token.",
          "_uniswapRouter": "Address of Uniswap router contract."
        }
      },
      "denyToken(address)": {
        "params": {
          "token": "Denied token."
        }
      },
      "isAllowedToken(address)": {
        "params": {
          "token": "Target token."
        },
        "returns": {
          "_0": "Is target token allowed."
        }
      },
      "owner()": {
        "details": "Returns the address of the current owner."
      },
      "paused()": {
        "details": "Returns true if the contract is paused, and false otherwise."
      },
      "price(address,uint256)": {
        "params": {
          "currency": "Currency token.",
          "payment": "Amount of payment."
        },
        "returns": {
          "product": "Amount of product token.",
          "reward": "Amount of reward token."
        }
      },
      "renounceOwnership()": {
        "details": "Leaves the contract without owner. It will not be possible to call `onlyOwner` functions anymore. Can only be called by the current owner. NOTE: Renouncing ownership will leave the contract without an owner, thereby removing any functionality that is only available to the owner."
      },
      "transferOwnership(address)": {
        "details": "Transfers ownership of the contract to a new account (`newOwner`). Can only be called by the current owner."
      },
      "transferProductToken(address,uint256)": {
        "params": {
          "amount": "Amount of transfered token.",
          "recipient": "Address of recipient."
        }
      },
      "transferRewardToken(address,uint256)": {
        "params": {
          "amount": "Amount of transfered token.",
          "recipient": "Address of recipient."
        }
      },
      "withdraw(address)": {
        "params": {
          "recipient": "Recipient of token."
        }
      }
    },
    "stateVariables": {
      "allowedTokens": {
        "details": "Allowed tokens symbols list."
      },
      "cumulativePriceFeed": {
        "details": "Addresses of cumulative token price feed chain."
      },
      "uniswapRouter": {
        "details": "Address of UniswapV2Router."
      }
    },
    "version": 1
  },
  "userdoc": {
    "events": {
      "Buy(address,address,uint256,uint256,uint256)": {
        "notice": "An event thats emitted when an account buyed token."
      },
      "CumulativeChanged(address,address[])": {
        "notice": "An event thats emitted when an cumulative token changed."
      },
      "PauserChanged(address)": {
        "notice": "An event thats emitted when an pauser address changed."
      },
      "TokenAllowed(address,address[])": {
        "notice": "An event thats emitted when an token allowed."
      },
      "TokenDenied(address)": {
        "notice": "An event thats emitted when an token denied."
      },
      "UniswapRouterChanged(address)": {
        "notice": "An event thats emitted when an uniswap router contract address changed."
      },
      "Withdrawal(address,address,uint256)": {
        "notice": "An event thats emitted when an cumulative token withdrawal."
      }
    },
    "kind": "user",
    "methods": {
      "allowToken(address,address[])": {
        "notice": "Add token to tokens white list."
      },
      "buy(address,uint256)": {
        "notice": "Buy token with ERC20."
      },
      "buyFromETH()": {
        "notice": "Buy token with ETH."
      },
      "changeCumulativeToken(address,address[],address)": {
        "notice": "Changed cumulative token address."
      },
      "changePauser(address)": {
        "notice": "Change pauser account."
      },
      "changeUniswapRouter(address)": {
        "notice": "Changed uniswap router contract address."
      },
      "cumulative()": {
        "notice": "Address of cumulative token."
      },
      "denyToken(address)": {
        "notice": "Remove token from tokens white list."
      },
      "pause()": {
        "notice": "Triggers stopped state."
      },
      "pauser()": {
        "notice": "Address that can pause a contract."
      },
      "price(address,uint256)": {
        "notice": "Get token price."
      },
      "productToken()": {
        "notice": "Address of product token contract."
      },
      "rewardToken()": {
        "notice": "Address of reward token contract."
      },
      "transferProductToken(address,uint256)": {
        "notice": "Transfer product token to recipient."
      },
      "transferRewardToken(address,uint256)": {
        "notice": "Transfer reward token to recipient."
      },
      "unpause()": {
        "notice": "Returns to normal state."
      },
      "withdraw(address)": {
        "notice": "Withdraw cumulative token to address."
      }
    },
    "version": 1
  },
  "storageLayout": {
    "storage": [
      {
        "astId": 30,
        "contract": "contracts/Market.sol:Market",
        "label": "_owner",
        "offset": 0,
        "slot": "0",
        "type": "t_address"
      },
      {
        "astId": 1985,
        "contract": "contracts/Market.sol:Market",
        "label": "_paused",
        "offset": 20,
        "slot": "0",
        "type": "t_bool"
      },
      {
        "astId": 5854,
        "contract": "contracts/Market.sol:Market",
        "label": "pauser",
        "offset": 0,
        "slot": "1",
        "type": "t_address"
      },
      {
        "astId": 2251,
        "contract": "contracts/Market.sol:Market",
        "label": "cumulative",
        "offset": 0,
        "slot": "2",
        "type": "t_contract(ERC20)1086"
      },
      {
        "astId": 2255,
        "contract": "contracts/Market.sol:Market",
        "label": "cumulativePriceFeed",
        "offset": 0,
        "slot": "3",
        "type": "t_array(t_address)dyn_storage"
      },
      {
        "astId": 2258,
        "contract": "contracts/Market.sol:Market",
        "label": "productToken",
        "offset": 0,
        "slot": "4",
        "type": "t_contract(ERC20)1086"
      },
      {
        "astId": 2261,
        "contract": "contracts/Market.sol:Market",
        "label": "rewardToken",
        "offset": 0,
        "slot": "5",
        "type": "t_contract(ERC20)1086"
      },
      {
        "astId": 2264,
        "contract": "contracts/Market.sol:Market",
        "label": "uniswapRouter",
        "offset": 0,
        "slot": "6",
        "type": "t_contract(IUniswapV2Router02)5699"
      },
      {
        "astId": 2270,
        "contract": "contracts/Market.sol:Market",
        "label": "allowedTokens",
        "offset": 0,
        "slot": "7",
        "type": "t_mapping(t_address,t_array(t_address)dyn_storage)"
      }
    ],
    "types": {
      "t_address": {
        "encoding": "inplace",
        "label": "address",
        "numberOfBytes": "20"
      },
      "t_array(t_address)dyn_storage": {
        "base": "t_address",
        "encoding": "dynamic_array",
        "label": "address[]",
        "numberOfBytes": "32"
      },
      "t_bool": {
        "encoding": "inplace",
        "label": "bool",
        "numberOfBytes": "1"
      },
      "t_contract(ERC20)1086": {
        "encoding": "inplace",
        "label": "contract ERC20",
        "numberOfBytes": "20"
      },
      "t_contract(IUniswapV2Router02)5699": {
        "encoding": "inplace",
        "label": "contract IUniswapV2Router02",
        "numberOfBytes": "20"
      },
      "t_mapping(t_address,t_array(t_address)dyn_storage)": {
        "encoding": "mapping",
        "key": "t_address",
        "label": "mapping(address => address[])",
        "numberOfBytes": "32",
        "value": "t_array(t_address)dyn_storage"
      }
    }
  }
}