{
  "address": "0x65abD5ea5f26A0D4f2E54Cbb1220135FaFE0C4C4",
  "abi": [
    {
      "inputs": [
        {
          "internalType": "uint256",
          "name": "_maxSize",
          "type": "uint256"
        }
      ],
      "stateMutability": "nonpayable",
      "type": "constructor"
    },
    {
      "anonymous": false,
      "inputs": [
        {
          "indexed": false,
          "internalType": "address",
          "name": "validator",
          "type": "address"
        },
        {
          "indexed": false,
          "internalType": "address",
          "name": "controlledContract",
          "type": "address"
        }
      ],
      "name": "InvalidState",
      "type": "event"
    },
    {
      "anonymous": false,
      "inputs": [
        {
          "indexed": true,
          "internalType": "address",
          "name": "previousOwner",
          "type": "address"
        },
        {
          "indexed": true,
          "internalType": "address",
          "name": "newOwner",
          "type": "address"
        }
      ],
      "name": "OwnershipTransferred",
      "type": "event"
    },
    {
      "anonymous": false,
      "inputs": [
        {
          "indexed": false,
          "internalType": "address",
          "name": "newContract",
          "type": "address"
        }
      ],
      "name": "ProtocolContractAdded",
      "type": "event"
    },
    {
      "anonymous": false,
      "inputs": [
        {
          "indexed": false,
          "internalType": "address",
          "name": "removedContract",
          "type": "address"
        }
      ],
      "name": "ProtocolContractRemoved",
      "type": "event"
    },
    {
      "anonymous": false,
      "inputs": [
        {
          "indexed": false,
          "internalType": "address",
          "name": "validator",
          "type": "address"
        },
        {
          "indexed": false,
          "internalType": "address",
          "name": "controlledContract",
          "type": "address"
        }
      ],
      "name": "ValidatorAdded",
      "type": "event"
    },
    {
      "anonymous": false,
      "inputs": [
        {
          "indexed": false,
          "internalType": "address",
          "name": "validator",
          "type": "address"
        }
      ],
      "name": "ValidatorRemoved",
      "type": "event"
    },
    {
      "inputs": [
        {
          "internalType": "address",
          "name": "_contract",
          "type": "address"
        }
      ],
      "name": "addProtocolContract",
      "outputs": [],
      "stateMutability": "nonpayable",
      "type": "function"
    },
    {
      "inputs": [
        {
          "internalType": "address",
          "name": "validator",
          "type": "address"
        },
        {
          "internalType": "address",
          "name": "controlledContract",
          "type": "address"
        }
      ],
      "name": "addValidator",
      "outputs": [],
      "stateMutability": "nonpayable",
      "type": "function"
    },
    {
      "inputs": [],
      "name": "maxSize",
      "outputs": [
        {
          "internalType": "uint256",
          "name": "",
          "type": "uint256"
        }
      ],
      "stateMutability": "view",
      "type": "function"
    },
    {
      "inputs": [],
      "name": "owner",
      "outputs": [
        {
          "internalType": "address",
          "name": "",
          "type": "address"
        }
      ],
      "stateMutability": "view",
      "type": "function"
    },
    {
      "inputs": [],
      "name": "protocolContractsList",
      "outputs": [
        {
          "internalType": "address[]",
          "name": "",
          "type": "address[]"
        }
      ],
      "stateMutability": "view",
      "type": "function"
    },
    {
      "inputs": [
        {
          "internalType": "address",
          "name": "_contract",
          "type": "address"
        }
      ],
      "name": "removeProtocolContract",
      "outputs": [],
      "stateMutability": "nonpayable",
      "type": "function"
    },
    {
      "inputs": [
        {
          "internalType": "address",
          "name": "validator",
          "type": "address"
        }
      ],
      "name": "removeValidator",
      "outputs": [],
      "stateMutability": "nonpayable",
      "type": "function"
    },
    {
      "inputs": [],
      "name": "renounceOwnership",
      "outputs": [],
      "stateMutability": "nonpayable",
      "type": "function"
    },
    {
      "inputs": [],
      "name": "size",
      "outputs": [
        {
          "internalType": "uint256",
          "name": "",
          "type": "uint256"
        }
      ],
      "stateMutability": "view",
      "type": "function"
    },
    {
      "inputs": [
        {
          "internalType": "address",
          "name": "newOwner",
          "type": "address"
        }
      ],
      "name": "transferOwnership",
      "outputs": [],
      "stateMutability": "nonpayable",
      "type": "function"
    },
    {
      "inputs": [
        {
          "internalType": "address",
          "name": "validator",
          "type": "address"
        }
      ],
      "name": "validate",
      "outputs": [
        {
          "internalType": "bool",
          "name": "",
          "type": "bool"
        }
      ],
      "stateMutability": "nonpayable",
      "type": "function"
    },
    {
      "inputs": [
        {
          "internalType": "address",
          "name": "",
          "type": "address"
        }
      ],
      "name": "validators",
      "outputs": [
        {
          "internalType": "address",
          "name": "",
          "type": "address"
        }
      ],
      "stateMutability": "view",
      "type": "function"
    },
    {
      "inputs": [],
      "name": "validatorsList",
      "outputs": [
        {
          "internalType": "address[]",
          "name": "",
          "type": "address[]"
        }
      ],
      "stateMutability": "view",
      "type": "function"
    }
  ],
  "transactionHash": "0x67b1723675321f099bb8ec43241f92c955fc9d2438bc8a8c86b57a19512cb8e4",
  "args": [
    50
  ],
  "solcInputHash": "b1a7f817d137f10155d53d247427736b",
  "bytecode": "0x60806040523480156200001157600080fd5b506040516200211c3803806200211c833981810160405281019062000037919062000114565b600062000049620000f560201b60201c565b9050806000806101000a81548173ffffffffffffffffffffffffffffffffffffffff021916908373ffffffffffffffffffffffffffffffffffffffff1602179055508073ffffffffffffffffffffffffffffffffffffffff16600073ffffffffffffffffffffffffffffffffffffffff167f8be0079c531659141344cd1fd0a4f28419497f9722a3daafe3b4186f6b6457e060405160405180910390a350806001819055505062000164565b600033905090565b6000815190506200010e816200014a565b92915050565b6000602082840312156200012757600080fd5b60006200013784828501620000fd565b91505092915050565b6000819050919050565b620001558162000140565b81146200016157600080fd5b50565b611fa880620001746000396000f3fe608060405234801561001057600080fd5b50600436106100cf5760003560e01c8063949d225d1161008c578063daf4c06611610066578063daf4c066146101dc578063f2fde38b146101f8578063fa52c7d814610214578063fc0eb91714610244576100cf565b8063949d225d14610184578063b1819c2b146101a2578063bb8ac08f146101be576100cf565b80630b6db70a146100d4578063207c64fb146100f25780632565b1591461012257806340a141ff14610140578063715018a61461015c5780638da5cb5b14610166575b600080fd5b6100dc610260565b6040516100e99190611cda565b60405180910390f35b61010c60048036038101906101079190611665565b610338565b6040516101199190611cfc565b60405180910390f35b61012a61051e565b6040516101379190611e97565b60405180910390f35b61015a60048036038101906101559190611665565b610524565b005b6101646106f7565b005b61016e61084a565b60405161017b9190611c96565b60405180910390f35b61018c610873565b6040516101999190611e97565b60405180910390f35b6101bc60048036038101906101b791906116b7565b61089f565b005b6101c6610ada565b6040516101d39190611cda565b60405180910390f35b6101f660048036038101906101f19190611665565b610bb2565b005b610212600480360381019061020d9190611665565b610d06565b005b61022e60048036038101906102299190611665565b610ec8565b60405161023b9190611c96565b60405180910390f35b61025e60048036038101906102599190611665565b610efb565b005b60608061026d60026110b5565b67ffffffffffffffff8111801561028357600080fd5b506040519080825280602002602001820160405280156102b25781602001602082028036833780820191505090505b50905060005b6102c260026110b5565b811015610330576102dd8160026110ca90919063ffffffff16565b8282815181106102e957fe5b602002602001019073ffffffffffffffffffffffffffffffffffffffff16908173ffffffffffffffffffffffffffffffffffffffff168152505080806001019150506102b8565b508091505090565b600061034e8260056110e490919063ffffffff16565b61038d576040517f08c379a000000000000000000000000000000000000000000000000000000000815260040161038490611e17565b60405180910390fd5b60008273ffffffffffffffffffffffffffffffffffffffff16636901f6686040518163ffffffff1660e01b815260040160206040518083038186803b1580156103d557600080fd5b505afa1580156103e9573d6000803e3d6000fd5b505050506040513d601f19601f8201168201806040525081019061040d91906116f3565b9050806105155761047c600460008573ffffffffffffffffffffffffffffffffffffffff1673ffffffffffffffffffffffffffffffffffffffff16815260200190815260200160002060009054906101000a900473ffffffffffffffffffffffffffffffffffffffff16611114565b7f2547df44eb7f58733796ecf0ab786c52c1a41b78298dc9b00856f901db625e6983600460008673ffffffffffffffffffffffffffffffffffffffff1673ffffffffffffffffffffffffffffffffffffffff16815260200190815260200160002060009054906101000a900473ffffffffffffffffffffffffffffffffffffffff1660405161050c929190611cb1565b60405180910390a15b80915050919050565b60015481565b61052c611370565b73ffffffffffffffffffffffffffffffffffffffff1660008054906101000a900473ffffffffffffffffffffffffffffffffffffffff1673ffffffffffffffffffffffffffffffffffffffff16146105b9576040517f08c379a00000000000000000000000000000000000000000000000000000000081526004016105b090611e37565b60405180910390fd5b600073ffffffffffffffffffffffffffffffffffffffff168173ffffffffffffffffffffffffffffffffffffffff161415610629576040517f08c379a000000000000000000000000000000000000000000000000000000000815260040161062090611d97565b60405180910390fd5b6000600460008373ffffffffffffffffffffffffffffffffffffffff1673ffffffffffffffffffffffffffffffffffffffff16815260200190815260200160002060006101000a81548173ffffffffffffffffffffffffffffffffffffffff021916908373ffffffffffffffffffffffffffffffffffffffff1602179055506106bc81600561137890919063ffffffff16565b507fe1434e25d6611e0db941968fdc97811c982ac1602e951637d206f5fdda9dd8f1816040516106ec9190611c96565b60405180910390a150565b6106ff611370565b73ffffffffffffffffffffffffffffffffffffffff1660008054906101000a900473ffffffffffffffffffffffffffffffffffffffff1673ffffffffffffffffffffffffffffffffffffffff161461078c576040517f08c379a000000000000000000000000000000000000000000000000000000000815260040161078390611e37565b60405180910390fd5b600073ffffffffffffffffffffffffffffffffffffffff1660008054906101000a900473ffffffffffffffffffffffffffffffffffffffff1673ffffffffffffffffffffffffffffffffffffffff167f8be0079c531659141344cd1fd0a4f28419497f9722a3daafe3b4186f6b6457e060405160405180910390a360008060006101000a81548173ffffffffffffffffffffffffffffffffffffffff021916908373ffffffffffffffffffffffffffffffffffffffff160217905550565b60008060009054906101000a900473ffffffffffffffffffffffffffffffffffffffff16905090565b600061089a61088260026110b5565b61088c60056110b5565b6113a890919063ffffffff16565b905090565b6108a7611370565b73ffffffffffffffffffffffffffffffffffffffff1660008054906101000a900473ffffffffffffffffffffffffffffffffffffffff1673ffffffffffffffffffffffffffffffffffffffff1614610934576040517f08c379a000000000000000000000000000000000000000000000000000000000815260040161092b90611e37565b60405180910390fd5b600073ffffffffffffffffffffffffffffffffffffffff168273ffffffffffffffffffffffffffffffffffffffff1614156109a4576040517f08c379a000000000000000000000000000000000000000000000000000000000815260040161099b90611d17565b60405180910390fd5b6109b88260056110e490919063ffffffff16565b806109cb57506001546109c9610873565b105b610a0a576040517f08c379a0000000000000000000000000000000000000000000000000000000008152600401610a0190611db7565b60405180910390fd5b80600460008473ffffffffffffffffffffffffffffffffffffffff1673ffffffffffffffffffffffffffffffffffffffff16815260200190815260200160002060006101000a81548173ffffffffffffffffffffffffffffffffffffffff021916908373ffffffffffffffffffffffffffffffffffffffff160217905550610a9c8260056113fd90919063ffffffff16565b507f8064a302796c89446a96d63470b5b036212da26bd2debe5bec73e0170a9a5e838282604051610ace929190611cb1565b60405180910390a15050565b606080610ae760056110b5565b67ffffffffffffffff81118015610afd57600080fd5b50604051908082528060200260200182016040528015610b2c5781602001602082028036833780820191505090505b50905060005b610b3c60056110b5565b811015610baa57610b578160056110ca90919063ffffffff16565b828281518110610b6357fe5b602002602001019073ffffffffffffffffffffffffffffffffffffffff16908173ffffffffffffffffffffffffffffffffffffffff16815250508080600101915050610b32565b508091505090565b610bba611370565b73ffffffffffffffffffffffffffffffffffffffff1660008054906101000a900473ffffffffffffffffffffffffffffffffffffffff1673ffffffffffffffffffffffffffffffffffffffff1614610c47576040517f08c379a0000000000000000000000000000000000000000000000000000000008152600401610c3e90611e37565b60405180910390fd5b600073ffffffffffffffffffffffffffffffffffffffff168173ffffffffffffffffffffffffffffffffffffffff161415610cb7576040517f08c379a0000000000000000000000000000000000000000000000000000000008152600401610cae90611e57565b60405180910390fd5b610ccb81600261137890919063ffffffff16565b507f1c68bd0b5bc3e008aed6e012ac977984134eaf2c065d92e33a471e2d189ad12381604051610cfb9190611c96565b60405180910390a150565b610d0e611370565b73ffffffffffffffffffffffffffffffffffffffff1660008054906101000a900473ffffffffffffffffffffffffffffffffffffffff1673ffffffffffffffffffffffffffffffffffffffff1614610d9b576040517f08c379a0000000000000000000000000000000000000000000000000000000008152600401610d9290611e37565b60405180910390fd5b600073ffffffffffffffffffffffffffffffffffffffff168173ffffffffffffffffffffffffffffffffffffffff161415610e0b576040517f08c379a0000000000000000000000000000000000000000000000000000000008152600401610e0290611d57565b60405180910390fd5b8073ffffffffffffffffffffffffffffffffffffffff1660008054906101000a900473ffffffffffffffffffffffffffffffffffffffff1673ffffffffffffffffffffffffffffffffffffffff167f8be0079c531659141344cd1fd0a4f28419497f9722a3daafe3b4186f6b6457e060405160405180910390a3806000806101000a81548173ffffffffffffffffffffffffffffffffffffffff021916908373ffffffffffffffffffffffffffffffffffffffff16021790555050565b60046020528060005260406000206000915054906101000a900473ffffffffffffffffffffffffffffffffffffffff1681565b610f03611370565b73ffffffffffffffffffffffffffffffffffffffff1660008054906101000a900473ffffffffffffffffffffffffffffffffffffffff1673ffffffffffffffffffffffffffffffffffffffff1614610f90576040517f08c379a0000000000000000000000000000000000000000000000000000000008152600401610f8790611e37565b60405180910390fd5b600073ffffffffffffffffffffffffffffffffffffffff168173ffffffffffffffffffffffffffffffffffffffff161415611000576040517f08c379a0000000000000000000000000000000000000000000000000000000008152600401610ff790611e77565b60405180910390fd5b6110148160026110e490919063ffffffff16565b806110275750600154611025610873565b105b611066576040517f08c379a000000000000000000000000000000000000000000000000000000000815260040161105d90611dd7565b60405180910390fd5b61107a8160026113fd90919063ffffffff16565b507fb0a0dc938adbda85f4d549c5d17ba61a481083f5e33cbc09b165067a2939d4f7816040516110aa9190611c96565b60405180910390a150565b60006110c38260000161142d565b9050919050565b60006110d9836000018361143e565b60001c905092915050565b600061110c836000018373ffffffffffffffffffffffffffffffffffffffff1660001b6114ab565b905092915050565b600073ffffffffffffffffffffffffffffffffffffffff168173ffffffffffffffffffffffffffffffffffffffff16141561118c5760005b61115660026110b5565b811015611186576111796111748260026110ca90919063ffffffff16565b611114565b808060010191505061114c565b5061136d565b600081905060008173ffffffffffffffffffffffffffffffffffffffff16639fd0506d6040518163ffffffff1660e01b815260040160206040518083038186803b1580156111d957600080fd5b505afa1580156111ed573d6000803e3d6000fd5b505050506040513d601f19601f82011682018060405250810190611211919061168e565b90503073ffffffffffffffffffffffffffffffffffffffff168173ffffffffffffffffffffffffffffffffffffffff1614611281576040517f08c379a000000000000000000000000000000000000000000000000000000000815260040161127890611df7565b60405180910390fd5b60008273ffffffffffffffffffffffffffffffffffffffff16635c975abb6040518163ffffffff1660e01b815260040160206040518083038186803b1580156112c957600080fd5b505afa1580156112dd573d6000803e3d6000fd5b505050506040513d601f19601f8201168201806040525081019061130191906116f3565b905080611369578273ffffffffffffffffffffffffffffffffffffffff16638456cb596040518163ffffffff1660e01b8152600401600060405180830381600087803b15801561135057600080fd5b505af1158015611364573d6000803e3d6000fd5b505050505b5050505b50565b600033905090565b60006113a0836000018373ffffffffffffffffffffffffffffffffffffffff1660001b6114ce565b905092915050565b6000808284019050838110156113f3576040517f08c379a00000000000000000000000000000000000000000000000000000000081526004016113ea90611d77565b60405180910390fd5b8091505092915050565b6000611425836000018373ffffffffffffffffffffffffffffffffffffffff1660001b6115b6565b905092915050565b600081600001805490509050919050565b600081836000018054905011611489576040517f08c379a000000000000000000000000000000000000000000000000000000000815260040161148090611d37565b60405180910390fd5b82600001828154811061149857fe5b9060005260206000200154905092915050565b600080836001016000848152602001908152602001600020541415905092915050565b600080836001016000848152602001908152602001600020549050600081146115aa576000600182039050600060018660000180549050039050600086600001828154811061151957fe5b906000526020600020015490508087600001848154811061153657fe5b906000526020600020018190555060018301876001016000838152602001908152602001600020819055508660000180548061156e57fe5b600190038181906000526020600020016000905590558660010160008781526020019081526020016000206000905560019450505050506115b0565b60009150505b92915050565b60006115c283836114ab565b61161b578260000182908060018154018082558091505060019003906000526020600020016000909190919091505582600001805490508360010160008481526020019081526020016000208190555060019050611620565b600090505b92915050565b60008135905061163581611f44565b92915050565b60008151905061164a81611f44565b92915050565b60008151905061165f81611f5b565b92915050565b60006020828403121561167757600080fd5b600061168584828501611626565b91505092915050565b6000602082840312156116a057600080fd5b60006116ae8482850161163b565b91505092915050565b600080604083850312156116ca57600080fd5b60006116d885828601611626565b92505060206116e985828601611626565b9150509250929050565b60006020828403121561170557600080fd5b600061171384828501611650565b91505092915050565b60006117288383611734565b60208301905092915050565b61173d81611efc565b82525050565b61174c81611efc565b82525050565b600061175d82611ec2565b6117678185611eda565b935061177283611eb2565b8060005b838110156117a357815161178a888261171c565b975061179583611ecd565b925050600181019050611776565b5085935050505092915050565b6117b981611f0e565b82525050565b60006117cc603a83611eeb565b91507f50726f746f636f6c56616c696461746f723a3a61646456616c696461746f723a60008301527f20696e76616c69642076616c696461746f7220616464726573730000000000006020830152604082019050919050565b6000611832602283611eeb565b91507f456e756d657261626c655365743a20696e646578206f7574206f6620626f756e60008301527f64730000000000000000000000000000000000000000000000000000000000006020830152604082019050919050565b6000611898602683611eeb565b91507f4f776e61626c653a206e6577206f776e657220697320746865207a65726f206160008301527f64647265737300000000000000000000000000000000000000000000000000006020830152604082019050919050565b60006118fe601b83611eeb565b91507f536166654d6174683a206164646974696f6e206f766572666c6f7700000000006000830152602082019050919050565b600061193e603d83611eeb565b91507f50726f746f636f6c56616c696461746f723a3a72656d6f766556616c6964617460008301527f6f723a20696e76616c69642076616c696461746f7220616464726573730000006020830152604082019050919050565b60006119a4603483611eeb565b91507f50726f746f636f6c56616c696461746f723a3a61646456616c696461746f723a60008301527f20746f6f206d616e792076616c696461746f72730000000000000000000000006020830152604082019050919050565b6000611a0a604383611eeb565b91507f50726f746f636f6c56616c696461746f723a3a61646450726f746f636f6c436f60008301527f6e74726163743a20746f6f206d616e792070726f746f636f6c20636f6e74726160208301527f63747300000000000000000000000000000000000000000000000000000000006040830152606082019050919050565b6000611a96603683611eeb565b91507f50726f746f636f6c56616c696461746f723a3a5f70617573653a20746172676560008301527f7420636f6e7472616374206e6f7420636f6e74726f6c000000000000000000006020830152604082019050919050565b6000611afc603083611eeb565b91507f50726f746f636f6c56616c696461746f723a3a76616c69646174653a2076616c60008301527f696461746f72206e6f7420666f756e64000000000000000000000000000000006020830152604082019050919050565b6000611b62602083611eeb565b91507f4f776e61626c653a2063616c6c6572206973206e6f7420746865206f776e65726000830152602082019050919050565b6000611ba2604383611eeb565b91507f50726f746f636f6c56616c696461746f723a3a72656d6f766550726f746f636f60008301527f6c436f6e74726163743a20696e76616c696420636f6e7472616374206164647260208301527f65737300000000000000000000000000000000000000000000000000000000006040830152606082019050919050565b6000611c2e604083611eeb565b91507f50726f746f636f6c56616c696461746f723a3a61646450726f746f636f6c436f60008301527f6e74726163743a20696e76616c696420636f6e747261637420616464726573736020830152604082019050919050565b611c9081611f3a565b82525050565b6000602082019050611cab6000830184611743565b92915050565b6000604082019050611cc66000830185611743565b611cd36020830184611743565b9392505050565b60006020820190508181036000830152611cf48184611752565b905092915050565b6000602082019050611d1160008301846117b0565b92915050565b60006020820190508181036000830152611d30816117bf565b9050919050565b60006020820190508181036000830152611d5081611825565b9050919050565b60006020820190508181036000830152611d708161188b565b9050919050565b60006020820190508181036000830152611d90816118f1565b9050919050565b60006020820190508181036000830152611db081611931565b9050919050565b60006020820190508181036000830152611dd081611997565b9050919050565b60006020820190508181036000830152611df0816119fd565b9050919050565b60006020820190508181036000830152611e1081611a89565b9050919050565b60006020820190508181036000830152611e3081611aef565b9050919050565b60006020820190508181036000830152611e5081611b55565b9050919050565b60006020820190508181036000830152611e7081611b95565b9050919050565b60006020820190508181036000830152611e9081611c21565b9050919050565b6000602082019050611eac6000830184611c87565b92915050565b6000819050602082019050919050565b600081519050919050565b6000602082019050919050565b600082825260208201905092915050565b600082825260208201905092915050565b6000611f0782611f1a565b9050919050565b60008115159050919050565b600073ffffffffffffffffffffffffffffffffffffffff82169050919050565b6000819050919050565b611f4d81611efc565b8114611f5857600080fd5b50565b611f6481611f0e565b8114611f6f57600080fd5b5056fea2646970667358221220a2fd18b49149524ff33fdc2f849e2432c097e963aa7510b80ec1f349d5c4dc2664736f6c634300060c0033",
  "devdoc": {
    "kind": "dev",
    "methods": {
      "addProtocolContract(address)": {
        "params": {
          "_contract": "Protocol contract address."
        }
      },
      "addValidator(address,address)": {
        "params": {
          "controlledContract": "Pausable contract address (zero address for all protocol contracts).",
          "validator": "Validator address."
        }
      },
      "constructor": {
        "params": {
          "_maxSize": "Maximal count of protocol contracts and validators."
        }
      },
      "owner()": {
        "details": "Returns the address of the current owner."
      },
      "protocolContractsList()": {
        "returns": {
          "_0": "Addresses of all protocol contracts."
        }
      },
      "removeProtocolContract(address)": {
        "params": {
          "_contract": "Protocol contract address."
        }
      },
      "removeValidator(address)": {
        "params": {
          "validator": "Validator address."
        }
      },
      "renounceOwnership()": {
        "details": "Leaves the contract without owner. It will not be possible to call `onlyOwner` functions anymore. Can only be called by the current owner. NOTE: Renouncing ownership will leave the contract without an owner, thereby removing any functionality that is only available to the owner."
      },
      "size()": {
        "returns": {
          "_0": "Validators count of agregate."
        }
      },
      "transferOwnership(address)": {
        "details": "Transfers ownership of the contract to a new account (`newOwner`). Can only be called by the current owner."
      },
      "validate(address)": {
        "params": {
          "validator": "Target validator."
        },
        "returns": {
          "_0": "Is state valid."
        }
      },
      "validatorsList()": {
        "returns": {
          "_0": "Validators addresses list."
        }
      }
    },
    "stateVariables": {
      "protocolContracts": {
        "details": "Protocol contracts list."
      },
      "validatorsIndex": {
        "details": "Validators list."
      }
    },
    "version": 1
  },
  "userdoc": {
    "events": {
      "InvalidState(address,address)": {
        "notice": "An event thats emitted when state invalid."
      },
      "ProtocolContractAdded(address)": {
        "notice": "An event thats emitted when protocol contract added."
      },
      "ProtocolContractRemoved(address)": {
        "notice": "An event thats emitted when protocol contract removed."
      },
      "ValidatorAdded(address,address)": {
        "notice": "An event thats emitted when validator added."
      },
      "ValidatorRemoved(address)": {
        "notice": "An event thats emitted when validator removed."
      }
    },
    "kind": "user",
    "methods": {
      "maxSize()": {
        "notice": "The number of validators in agregate."
      },
      "validate(address)": {
        "notice": "Validate protocol state and pause controlled contract if state invalid."
      },
      "validators(address)": {
        "notice": "Validator and controlled contract (zero address for all protocol contracts)."
      }
    },
    "version": 1
  },
  "storageLayout": {
    "storage": [
      {
        "astId": 30,
        "contract": "contracts/alert/ProtocolValidator.sol:ProtocolValidator",
        "label": "_owner",
        "offset": 0,
        "slot": "0",
        "type": "t_address"
      },
      {
        "astId": 9456,
        "contract": "contracts/alert/ProtocolValidator.sol:ProtocolValidator",
        "label": "maxSize",
        "offset": 0,
        "slot": "1",
        "type": "t_uint256"
      },
      {
        "astId": 9459,
        "contract": "contracts/alert/ProtocolValidator.sol:ProtocolValidator",
        "label": "protocolContracts",
        "offset": 0,
        "slot": "2",
        "type": "t_struct(AddressSet)1584_storage"
      },
      {
        "astId": 9464,
        "contract": "contracts/alert/ProtocolValidator.sol:ProtocolValidator",
        "label": "validators",
        "offset": 0,
        "slot": "4",
        "type": "t_mapping(t_address,t_address)"
      },
      {
        "astId": 9467,
        "contract": "contracts/alert/ProtocolValidator.sol:ProtocolValidator",
        "label": "validatorsIndex",
        "offset": 0,
        "slot": "5",
        "type": "t_struct(AddressSet)1584_storage"
      }
    ],
    "types": {
      "t_address": {
        "encoding": "inplace",
        "label": "address",
        "numberOfBytes": "20"
      },
      "t_array(t_bytes32)dyn_storage": {
        "base": "t_bytes32",
        "encoding": "dynamic_array",
        "label": "bytes32[]",
        "numberOfBytes": "32"
      },
      "t_bytes32": {
        "encoding": "inplace",
        "label": "bytes32",
        "numberOfBytes": "32"
      },
      "t_mapping(t_address,t_address)": {
        "encoding": "mapping",
        "key": "t_address",
        "label": "mapping(address => address)",
        "numberOfBytes": "32",
        "value": "t_address"
      },
      "t_mapping(t_bytes32,t_uint256)": {
        "encoding": "mapping",
        "key": "t_bytes32",
        "label": "mapping(bytes32 => uint256)",
        "numberOfBytes": "32",
        "value": "t_uint256"
      },
      "t_struct(AddressSet)1584_storage": {
        "encoding": "inplace",
        "label": "struct EnumerableSet.AddressSet",
        "members": [
          {
            "astId": 1583,
            "contract": "contracts/alert/ProtocolValidator.sol:ProtocolValidator",
            "label": "_inner",
            "offset": 0,
            "slot": "0",
            "type": "t_struct(Set)1404_storage"
          }
        ],
        "numberOfBytes": "64"
      },
      "t_struct(Set)1404_storage": {
        "encoding": "inplace",
        "label": "struct EnumerableSet.Set",
        "members": [
          {
            "astId": 1399,
            "contract": "contracts/alert/ProtocolValidator.sol:ProtocolValidator",
            "label": "_values",
            "offset": 0,
            "slot": "0",
            "type": "t_array(t_bytes32)dyn_storage"
          },
          {
            "astId": 1403,
            "contract": "contracts/alert/ProtocolValidator.sol:ProtocolValidator",
            "label": "_indexes",
            "offset": 0,
            "slot": "1",
            "type": "t_mapping(t_bytes32,t_uint256)"
          }
        ],
        "numberOfBytes": "64"
      },
      "t_uint256": {
        "encoding": "inplace",
        "label": "uint256",
        "numberOfBytes": "32"
      }
    }
  }
}