{
  "address": "0xdF86a358acC2D068446B808a591CC9722A159025",
  "abi": [
    {
      "inputs": [
        {
          "internalType": "address",
          "name": "_issuer",
          "type": "address"
        },
        {
          "internalType": "address",
          "name": "_product",
          "type": "address"
        }
      ],
      "stateMutability": "nonpayable",
      "type": "constructor"
    },
    {
      "anonymous": false,
      "inputs": [
        {
          "indexed": false,
          "internalType": "address",
          "name": "customer",
          "type": "address"
        },
        {
          "indexed": false,
          "internalType": "uint256",
          "name": "amount",
          "type": "uint256"
        },
        {
          "indexed": false,
          "internalType": "uint256",
          "name": "buy",
          "type": "uint256"
        }
      ],
      "name": "Buyback",
      "type": "event"
    },
    {
      "anonymous": false,
      "inputs": [
        {
          "indexed": false,
          "internalType": "address",
          "name": "newIssuer",
          "type": "address"
        }
      ],
      "name": "IssuerChanged",
      "type": "event"
    },
    {
      "anonymous": false,
      "inputs": [
        {
          "indexed": true,
          "internalType": "address",
          "name": "previousOwner",
          "type": "address"
        },
        {
          "indexed": true,
          "internalType": "address",
          "name": "newOwner",
          "type": "address"
        }
      ],
      "name": "OwnershipTransferred",
      "type": "event"
    },
    {
      "anonymous": false,
      "inputs": [
        {
          "indexed": false,
          "internalType": "address",
          "name": "account",
          "type": "address"
        }
      ],
      "name": "Paused",
      "type": "event"
    },
    {
      "anonymous": false,
      "inputs": [
        {
          "indexed": false,
          "internalType": "address",
          "name": "newPauser",
          "type": "address"
        }
      ],
      "name": "PauserChanged",
      "type": "event"
    },
    {
      "anonymous": false,
      "inputs": [
        {
          "indexed": false,
          "internalType": "address",
          "name": "account",
          "type": "address"
        }
      ],
      "name": "Unpaused",
      "type": "event"
    },
    {
      "inputs": [],
      "name": "balance",
      "outputs": [
        {
          "internalType": "uint256",
          "name": "",
          "type": "uint256"
        }
      ],
      "stateMutability": "view",
      "type": "function"
    },
    {
      "inputs": [
        {
          "internalType": "uint256",
          "name": "amount",
          "type": "uint256"
        }
      ],
      "name": "buy",
      "outputs": [],
      "stateMutability": "nonpayable",
      "type": "function"
    },
    {
      "inputs": [
        {
          "internalType": "address",
          "name": "_issuer",
          "type": "address"
        }
      ],
      "name": "changeIssuer",
      "outputs": [],
      "stateMutability": "nonpayable",
      "type": "function"
    },
    {
      "inputs": [
        {
          "internalType": "address",
          "name": "newPauser",
          "type": "address"
        }
      ],
      "name": "changePauser",
      "outputs": [],
      "stateMutability": "nonpayable",
      "type": "function"
    },
    {
      "inputs": [],
      "name": "decimals",
      "outputs": [
        {
          "internalType": "uint256",
          "name": "",
          "type": "uint256"
        }
      ],
      "stateMutability": "view",
      "type": "function"
    },
    {
      "inputs": [],
      "name": "issuer",
      "outputs": [
        {
          "internalType": "contract Issuer",
          "name": "",
          "type": "address"
        }
      ],
      "stateMutability": "view",
      "type": "function"
    },
    {
      "inputs": [],
      "name": "owner",
      "outputs": [
        {
          "internalType": "address",
          "name": "",
          "type": "address"
        }
      ],
      "stateMutability": "view",
      "type": "function"
    },
    {
      "inputs": [],
      "name": "pause",
      "outputs": [],
      "stateMutability": "nonpayable",
      "type": "function"
    },
    {
      "inputs": [],
      "name": "paused",
      "outputs": [
        {
          "internalType": "bool",
          "name": "",
          "type": "bool"
        }
      ],
      "stateMutability": "view",
      "type": "function"
    },
    {
      "inputs": [],
      "name": "pauser",
      "outputs": [
        {
          "internalType": "address",
          "name": "",
          "type": "address"
        }
      ],
      "stateMutability": "view",
      "type": "function"
    },
    {
      "inputs": [],
      "name": "product",
      "outputs": [
        {
          "internalType": "contract ERC20",
          "name": "",
          "type": "address"
        }
      ],
      "stateMutability": "view",
      "type": "function"
    },
    {
      "inputs": [],
      "name": "renounceOwnership",
      "outputs": [],
      "stateMutability": "nonpayable",
      "type": "function"
    },
    {
      "inputs": [
        {
          "internalType": "address",
          "name": "newOwner",
          "type": "address"
        }
      ],
      "name": "transferOwnership",
      "outputs": [],
      "stateMutability": "nonpayable",
      "type": "function"
    },
    {
      "inputs": [
        {
          "internalType": "address",
          "name": "recipient",
          "type": "address"
        },
        {
          "internalType": "uint256",
          "name": "amount",
          "type": "uint256"
        }
      ],
      "name": "transferProductToken",
      "outputs": [],
      "stateMutability": "nonpayable",
      "type": "function"
    },
    {
      "inputs": [
        {
          "internalType": "address",
          "name": "recipient",
          "type": "address"
        },
        {
          "internalType": "uint256",
          "name": "amount",
          "type": "uint256"
        }
      ],
      "name": "transferStableToken",
      "outputs": [],
      "stateMutability": "nonpayable",
      "type": "function"
    },
    {
      "inputs": [],
      "name": "unpause",
      "outputs": [],
      "stateMutability": "nonpayable",
      "type": "function"
    }
  ],
  "transactionHash": "0x270326f5067176ef95e71f51ca670d72291e69800b38753bb1c66484627e23e4",
  "args": [
    "0x7A6B5F71b250e80D14A0273D8975c039FeA1925b",
    "0x64544969ed7ebf5f083679233325356ebe738930"
  ],
  "solcInputHash": "2fe73ff09d4383677bd8a400f6f71546",
  "bytecode": "0x608060405260126002553480156200001657600080fd5b506040516200279638038062002796833981810160405260408110156200003c57600080fd5b8101908080519060200190929190805190602001909291905050506000620000696200030060201b60201c565b9050806000806101000a81548173ffffffffffffffffffffffffffffffffffffffff021916908373ffffffffffffffffffffffffffffffffffffffff1602179055508073ffffffffffffffffffffffffffffffffffffffff16600073ffffffffffffffffffffffffffffffffffffffff167f8be0079c531659141344cd1fd0a4f28419497f9722a3daafe3b4186f6b6457e060405160405180910390a35060008060146101000a81548160ff021916908315150217905550620001316200030860201b60201c565b600160006101000a81548173ffffffffffffffffffffffffffffffffffffffff021916908373ffffffffffffffffffffffffffffffffffffffff16021790555081600460006101000a81548173ffffffffffffffffffffffffffffffffffffffff021916908373ffffffffffffffffffffffffffffffffffffffff16021790555080600360006101000a81548173ffffffffffffffffffffffffffffffffffffffff021916908373ffffffffffffffffffffffffffffffffffffffff160217905550600254600360009054906101000a900473ffffffffffffffffffffffffffffffffffffffff1673ffffffffffffffffffffffffffffffffffffffff1663313ce5676040518163ffffffff1660e01b815260040160206040518083038186803b1580156200025f57600080fd5b505afa15801562000274573d6000803e3d6000fd5b505050506040513d60208110156200028b57600080fd5b810190808051906020019092919050505060ff161115620002f8576040517f08c379a000000000000000000000000000000000000000000000000000000000815260040180806020018281038252604c8152602001806200274a604c913960600191505060405180910390fd5b505062000331565b600033905090565b60008060009054906101000a900473ffffffffffffffffffffffffffffffffffffffff16905090565b61240980620003416000396000f3fe608060405234801561001057600080fd5b50600436106101005760003560e01c80638456cb5911610097578063bf9ce95211610066578063bf9ce952146102f1578063d96a094a14610325578063f2fde38b14610353578063f6a399e21461039757610100565b80638456cb59146102615780638da5cb5b1461026b5780639fd0506d1461029f578063b69ef8a8146102d357610100565b80635c975abb116100d35780635c975abb146101a557806365893ec0146101c5578063715018a6146102135780637e8931591461021d57610100565b80631d143848146101055780632cd271e714610139578063313ce5671461017d5780633f4ba83a1461019b575b600080fd5b61010d6103e5565b604051808273ffffffffffffffffffffffffffffffffffffffff16815260200191505060405180910390f35b61017b6004803603602081101561014f57600080fd5b81019080803573ffffffffffffffffffffffffffffffffffffffff16906020019092919050505061040b565b005b610185610586565b6040518082815260200191505060405180910390f35b6101a361058c565b005b6101ad610687565b60405180821515815260200191505060405180910390f35b610211600480360360408110156101db57600080fd5b81019080803573ffffffffffffffffffffffffffffffffffffffff1690602001909291908035906020019092919050505061069d565b005b61021b610816565b005b61025f6004803603602081101561023357600080fd5b81019080803573ffffffffffffffffffffffffffffffffffffffff16906020019092919050505061099c565b005b610269610af5565b005b610273610bf0565b604051808273ffffffffffffffffffffffffffffffffffffffff16815260200191505060405180910390f35b6102a7610c19565b604051808273ffffffffffffffffffffffffffffffffffffffff16815260200191505060405180910390f35b6102db610c3f565b6040518082815260200191505060405180910390f35b6102f9610ddd565b604051808273ffffffffffffffffffffffffffffffffffffffff16815260200191505060405180910390f35b6103516004803603602081101561033b57600080fd5b8101908080359060200190929190505050610e03565b005b6103956004803603602081101561036957600080fd5b81019080803573ffffffffffffffffffffffffffffffffffffffff169060200190929190505050611532565b005b6103e3600480360360408110156103ad57600080fd5b81019080803573ffffffffffffffffffffffffffffffffffffffff1690602001909291908035906020019092919050505061173d565b005b600460009054906101000a900473ffffffffffffffffffffffffffffffffffffffff1681565b610413611836565b73ffffffffffffffffffffffffffffffffffffffff1660008054906101000a900473ffffffffffffffffffffffffffffffffffffffff1673ffffffffffffffffffffffffffffffffffffffff16146104d3576040517f08c379a00000000000000000000000000000000000000000000000000000000081526004018080602001828103825260208152602001807f4f776e61626c653a2063616c6c6572206973206e6f7420746865206f776e657281525060200191505060405180910390fd5b80600160006101000a81548173ffffffffffffffffffffffffffffffffffffffff021916908373ffffffffffffffffffffffffffffffffffffffff1602179055507fb80482a293ca2e013eda8683c9bd7fc8347cfdaeea5ede58cba46df502c2a604600160009054906101000a900473ffffffffffffffffffffffffffffffffffffffff16604051808273ffffffffffffffffffffffffffffffffffffffff16815260200191505060405180910390a150565b60025481565b610594611836565b73ffffffffffffffffffffffffffffffffffffffff16600160009054906101000a900473ffffffffffffffffffffffffffffffffffffffff1673ffffffffffffffffffffffffffffffffffffffff16148061062857506105f2611836565b73ffffffffffffffffffffffffffffffffffffffff16610610610bf0565b73ffffffffffffffffffffffffffffffffffffffff16145b61067d576040517f08c379a000000000000000000000000000000000000000000000000000000000815260040180806020018281038252604581526020018061227e6045913960600191505060405180910390fd5b61068561183e565b565b60008060149054906101000a900460ff16905090565b6106a5611836565b73ffffffffffffffffffffffffffffffffffffffff1660008054906101000a900473ffffffffffffffffffffffffffffffffffffffff1673ffffffffffffffffffffffffffffffffffffffff1614610765576040517f08c379a00000000000000000000000000000000000000000000000000000000081526004018080602001828103825260208152602001807f4f776e61626c653a2063616c6c6572206973206e6f7420746865206f776e657281525060200191505060405180910390fd5b610812600460009054906101000a900473ffffffffffffffffffffffffffffffffffffffff1673ffffffffffffffffffffffffffffffffffffffff1663a9d75b2b6040518163ffffffff1660e01b815260040160206040518083038186803b1580156107d057600080fd5b505afa1580156107e4573d6000803e3d6000fd5b505050506040513d60208110156107fa57600080fd5b81019080805190602001909291905050508383611930565b5050565b61081e611836565b73ffffffffffffffffffffffffffffffffffffffff1660008054906101000a900473ffffffffffffffffffffffffffffffffffffffff1673ffffffffffffffffffffffffffffffffffffffff16146108de576040517f08c379a00000000000000000000000000000000000000000000000000000000081526004018080602001828103825260208152602001807f4f776e61626c653a2063616c6c6572206973206e6f7420746865206f776e657281525060200191505060405180910390fd5b600073ffffffffffffffffffffffffffffffffffffffff1660008054906101000a900473ffffffffffffffffffffffffffffffffffffffff1673ffffffffffffffffffffffffffffffffffffffff167f8be0079c531659141344cd1fd0a4f28419497f9722a3daafe3b4186f6b6457e060405160405180910390a360008060006101000a81548173ffffffffffffffffffffffffffffffffffffffff021916908373ffffffffffffffffffffffffffffffffffffffff160217905550565b6109a4611836565b73ffffffffffffffffffffffffffffffffffffffff1660008054906101000a900473ffffffffffffffffffffffffffffffffffffffff1673ffffffffffffffffffffffffffffffffffffffff1614610a64576040517f08c379a00000000000000000000000000000000000000000000000000000000081526004018080602001828103825260208152602001807f4f776e61626c653a2063616c6c6572206973206e6f7420746865206f776e657281525060200191505060405180910390fd5b80600460006101000a81548173ffffffffffffffffffffffffffffffffffffffff021916908373ffffffffffffffffffffffffffffffffffffffff1602179055507fcad349a575b7a312fc947b899cb436e2fde2cde8be518bf412258b1d7836a54e81604051808273ffffffffffffffffffffffffffffffffffffffff16815260200191505060405180910390a150565b610afd611836565b73ffffffffffffffffffffffffffffffffffffffff16600160009054906101000a900473ffffffffffffffffffffffffffffffffffffffff1673ffffffffffffffffffffffffffffffffffffffff161480610b915750610b5b611836565b73ffffffffffffffffffffffffffffffffffffffff16610b79610bf0565b73ffffffffffffffffffffffffffffffffffffffff16145b610be6576040517f08c379a000000000000000000000000000000000000000000000000000000000815260040180806020018281038252604181526020018061223d6041913960600191505060405180910390fd5b610bee6119e6565b565b60008060009054906101000a900473ffffffffffffffffffffffffffffffffffffffff16905090565b600160009054906101000a900473ffffffffffffffffffffffffffffffffffffffff1681565b600080600360009054906101000a900473ffffffffffffffffffffffffffffffffffffffff1673ffffffffffffffffffffffffffffffffffffffff166370a08231306040518263ffffffff1660e01b8152600401808273ffffffffffffffffffffffffffffffffffffffff16815260200191505060206040518083038186803b158015610ccb57600080fd5b505afa158015610cdf573d6000803e3d6000fd5b505050506040513d6020811015610cf557600080fd5b81019080805190602001909291905050509050610dd7610dc5600360009054906101000a900473ffffffffffffffffffffffffffffffffffffffff1673ffffffffffffffffffffffffffffffffffffffff1663313ce5676040518163ffffffff1660e01b815260040160206040518083038186803b158015610d7657600080fd5b505afa158015610d8a573d6000803e3d6000fd5b505050506040513d6020811015610da057600080fd5b810190808051906020019092919050505060ff16600254611ada90919063ffffffff16565b600a0a82611b2490919063ffffffff16565b91505090565b600360009054906101000a900473ffffffffffffffffffffffffffffffffffffffff1681565b600060149054906101000a900460ff1615610e86576040517f08c379a00000000000000000000000000000000000000000000000000000000081526004018080602001828103825260108152602001807f5061757361626c653a207061757365640000000000000000000000000000000081525060200191505060405180910390fd5b6000610f57610f45600360009054906101000a900473ffffffffffffffffffffffffffffffffffffffff1673ffffffffffffffffffffffffffffffffffffffff1663313ce5676040518163ffffffff1660e01b815260040160206040518083038186803b158015610ef657600080fd5b505afa158015610f0a573d6000803e3d6000fd5b505050506040513d6020811015610f2057600080fd5b810190808051906020019092919050505060ff16600254611ada90919063ffffffff16565b600a0a83611baa90919063ffffffff16565b905060008111610fb2576040517f08c379a00000000000000000000000000000000000000000000000000000000081526004018080602001828103825260398152602001806123716039913960400191505060405180910390fd5b600360009054906101000a900473ffffffffffffffffffffffffffffffffffffffff1673ffffffffffffffffffffffffffffffffffffffff166370a08231306040518263ffffffff1660e01b8152600401808273ffffffffffffffffffffffffffffffffffffffff16815260200191505060206040518083038186803b15801561103b57600080fd5b505afa15801561104f573d6000803e3d6000fd5b505050506040513d602081101561106557600080fd5b81019080805190602001909291905050508110156110ce576040517f08c379a00000000000000000000000000000000000000000000000000000000081526004018080602001828103825260418152602001806122c36041913960600191505060405180910390fd5b6000600460009054906101000a900473ffffffffffffffffffffffffffffffffffffffff1673ffffffffffffffffffffffffffffffffffffffff1663a9d75b2b6040518163ffffffff1660e01b815260040160206040518083038186803b15801561113857600080fd5b505afa15801561114c573d6000803e3d6000fd5b505050506040513d602081101561116257600080fd5b810190808051906020019092919050505090506111a9611180611836565b30858473ffffffffffffffffffffffffffffffffffffffff16611bf4909392919063ffffffff16565b6111fd6111b4611836565b83600360009054906101000a900473ffffffffffffffffffffffffffffffffffffffff1673ffffffffffffffffffffffffffffffffffffffff16611cb59092919063ffffffff16565b6000611334600460009054906101000a900473ffffffffffffffffffffffffffffffffffffffff1673ffffffffffffffffffffffffffffffffffffffff1663b69ef8a86040518163ffffffff1660e01b815260040160206040518083038186803b15801561126a57600080fd5b505afa15801561127e573d6000803e3d6000fd5b505050506040513d602081101561129457600080fd5b81019080805190602001909291905050508373ffffffffffffffffffffffffffffffffffffffff166318160ddd6040518163ffffffff1660e01b815260040160206040518083038186803b1580156112eb57600080fd5b505afa1580156112ff573d6000803e3d6000fd5b505050506040513d602081101561131557600080fd5b8101908080519060200190929190505050611ada90919063ffffffff16565b905060006113ec8373ffffffffffffffffffffffffffffffffffffffff166370a08231306040518263ffffffff1660e01b8152600401808273ffffffffffffffffffffffffffffffffffffffff16815260200191505060206040518083038186803b1580156113a257600080fd5b505afa1580156113b6573d6000803e3d6000fd5b505050506040513d60208110156113cc57600080fd5b810190808051906020019092919050505083611d5790919063ffffffff16565b905060008111156114c757611444600460009054906101000a900473ffffffffffffffffffffffffffffffffffffffff16828573ffffffffffffffffffffffffffffffffffffffff16611cb59092919063ffffffff16565b600460009054906101000a900473ffffffffffffffffffffffffffffffffffffffff1673ffffffffffffffffffffffffffffffffffffffff16637d7c2a1c6040518163ffffffff1660e01b8152600401600060405180830381600087803b1580156114ae57600080fd5b505af11580156114c2573d6000803e3d6000fd5b505050505b7f2dcc2439519c7d06fca9f8ae01e07f4f3c6ca21b5cdf8eff42cb75cf34d223c96114f0611836565b8686604051808473ffffffffffffffffffffffffffffffffffffffff168152602001838152602001828152602001935050505060405180910390a15050505050565b61153a611836565b73ffffffffffffffffffffffffffffffffffffffff1660008054906101000a900473ffffffffffffffffffffffffffffffffffffffff1673ffffffffffffffffffffffffffffffffffffffff16146115fa576040517f08c379a00000000000000000000000000000000000000000000000000000000081526004018080602001828103825260208152602001807f4f776e61626c653a2063616c6c6572206973206e6f7420746865206f776e657281525060200191505060405180910390fd5b600073ffffffffffffffffffffffffffffffffffffffff168173ffffffffffffffffffffffffffffffffffffffff161415611680576040517f08c379a00000000000000000000000000000000000000000000000000000000081526004018080602001828103825260268152602001806122176026913960400191505060405180910390fd5b8073ffffffffffffffffffffffffffffffffffffffff1660008054906101000a900473ffffffffffffffffffffffffffffffffffffffff1673ffffffffffffffffffffffffffffffffffffffff167f8be0079c531659141344cd1fd0a4f28419497f9722a3daafe3b4186f6b6457e060405160405180910390a3806000806101000a81548173ffffffffffffffffffffffffffffffffffffffff021916908373ffffffffffffffffffffffffffffffffffffffff16021790555050565b611745611836565b73ffffffffffffffffffffffffffffffffffffffff1660008054906101000a900473ffffffffffffffffffffffffffffffffffffffff1673ffffffffffffffffffffffffffffffffffffffff1614611805576040517f08c379a00000000000000000000000000000000000000000000000000000000081526004018080602001828103825260208152602001807f4f776e61626c653a2063616c6c6572206973206e6f7420746865206f776e657281525060200191505060405180910390fd5b611832600360009054906101000a900473ffffffffffffffffffffffffffffffffffffffff168383611930565b5050565b600033905090565b600060149054906101000a900460ff166118c0576040517f08c379a00000000000000000000000000000000000000000000000000000000081526004018080602001828103825260148152602001807f5061757361626c653a206e6f742070617573656400000000000000000000000081525060200191505060405180910390fd5b60008060146101000a81548160ff0219169083151502179055507f5db9ee0a495bf2e6ff9c91a7834c1ba4fdd244a5e8aa4e537bd38aeae4b073aa611903611836565b604051808273ffffffffffffffffffffffffffffffffffffffff16815260200191505060405180910390a1565b600073ffffffffffffffffffffffffffffffffffffffff168273ffffffffffffffffffffffffffffffffffffffff1614156119b6576040517f08c379a000000000000000000000000000000000000000000000000000000000815260040180806020018281038252604c815260200180612304604c913960600191505060405180910390fd5b6119e182828573ffffffffffffffffffffffffffffffffffffffff16611cb59092919063ffffffff16565b505050565b600060149054906101000a900460ff1615611a69576040517f08c379a00000000000000000000000000000000000000000000000000000000081526004018080602001828103825260108152602001807f5061757361626c653a207061757365640000000000000000000000000000000081525060200191505060405180910390fd5b6001600060146101000a81548160ff0219169083151502179055507f62e78cea01bee320cd4e420270b5ea74000d11b0c9f74754ebdbfc544b05a258611aad611836565b604051808273ffffffffffffffffffffffffffffffffffffffff16815260200191505060405180910390a1565b6000611b1c83836040518060400160405280601e81526020017f536166654d6174683a207375627472616374696f6e206f766572666c6f770000815250611d70565b905092915050565b600080831415611b375760009050611ba4565b6000828402905082848281611b4857fe5b0414611b9f576040517f08c379a00000000000000000000000000000000000000000000000000000000081526004018080602001828103825260218152602001806123506021913960400191505060405180910390fd5b809150505b92915050565b6000611bec83836040518060400160405280601a81526020017f536166654d6174683a206469766973696f6e206279207a65726f000000000000815250611e30565b905092915050565b611caf846323b872dd60e01b858585604051602401808473ffffffffffffffffffffffffffffffffffffffff1681526020018373ffffffffffffffffffffffffffffffffffffffff1681526020018281526020019350505050604051602081830303815290604052907bffffffffffffffffffffffffffffffffffffffffffffffffffffffff19166020820180517bffffffffffffffffffffffffffffffffffffffffffffffffffffffff8381831617835250505050611ef6565b50505050565b611d528363a9059cbb60e01b8484604051602401808373ffffffffffffffffffffffffffffffffffffffff16815260200182815260200192505050604051602081830303815290604052907bffffffffffffffffffffffffffffffffffffffffffffffffffffffff19166020820180517bffffffffffffffffffffffffffffffffffffffffffffffffffffffff8381831617835250505050611ef6565b505050565b6000818310611d665781611d68565b825b905092915050565b6000838311158290611e1d576040517f08c379a00000000000000000000000000000000000000000000000000000000081526004018080602001828103825283818151815260200191508051906020019080838360005b83811015611de2578082015181840152602081019050611dc7565b50505050905090810190601f168015611e0f5780820380516001836020036101000a031916815260200191505b509250505060405180910390fd5b5060008385039050809150509392505050565b60008083118290611edc576040517f08c379a00000000000000000000000000000000000000000000000000000000081526004018080602001828103825283818151815260200191508051906020019080838360005b83811015611ea1578082015181840152602081019050611e86565b50505050905090810190601f168015611ece5780820380516001836020036101000a031916815260200191505b509250505060405180910390fd5b506000838581611ee857fe5b049050809150509392505050565b6060611f58826040518060400160405280602081526020017f5361666545524332303a206c6f772d6c6576656c2063616c6c206661696c65648152508573ffffffffffffffffffffffffffffffffffffffff16611fe59092919063ffffffff16565b9050600081511115611fe057808060200190516020811015611f7957600080fd5b8101908080519060200190929190505050611fdf576040517f08c379a000000000000000000000000000000000000000000000000000000000815260040180806020018281038252602a8152602001806123aa602a913960400191505060405180910390fd5b5b505050565b6060611ff48484600085611ffd565b90509392505050565b606061200885612203565b61207a576040517f08c379a000000000000000000000000000000000000000000000000000000000815260040180806020018281038252601d8152602001807f416464726573733a2063616c6c20746f206e6f6e2d636f6e747261637400000081525060200191505060405180910390fd5b600060608673ffffffffffffffffffffffffffffffffffffffff1685876040518082805190602001908083835b602083106120ca57805182526020820191506020810190506020830392506120a7565b6001836020036101000a03801982511681845116808217855250505050505090500191505060006040518083038185875af1925050503d806000811461212c576040519150601f19603f3d011682016040523d82523d6000602084013e612131565b606091505b509150915081156121465780925050506121fb565b6000815111156121595780518082602001fd5b836040517f08c379a00000000000000000000000000000000000000000000000000000000081526004018080602001828103825283818151815260200191508051906020019080838360005b838110156121c05780820151818401526020810190506121a5565b50505050905090810190601f1680156121ed5780820380516001836020036101000a031916815260200191505b509250505060405180910390fd5b949350505050565b600080823b90506000811191505091905056fe4f776e61626c653a206e6577206f776e657220697320746865207a65726f20616464726573734f776e61626c655061757361626c653a3a70617573653a206f6e6c792070617573657220616e64206f776e6572206d75737420706175736520636f6e74726163744f776e61626c655061757361626c653a3a756e70617573653a206f6e6c792070617573657220616e64206f776e6572206d75737420756e706175736520636f6e74726163744275796261636b4465706f73697461727942616c616e6365566965773a3a6275793a2070726f6475637420616d6f756e7420657863656564732062616c616e63654275796261636b4465706f73697461727942616c616e6365566965773a3a5f7472616e736665723a2063616e6e6f74207472616e7366657220746f20746865207a65726f2061646472657373536166654d6174683a206d756c7469706c69636174696f6e206f766572666c6f774275796261636b4465706f73697461727942616c616e6365566965773a3a6275793a20696e76616c69642070726f6475637420616d6f756e745361666545524332303a204552433230206f7065726174696f6e20646964206e6f742073756363656564a26469706673582212204307ed40747f1a8fd5eb37f2cfb9059846d4bbae9e87ea0408eeec4b89b180a364736f6c634300060c00334275796261636b4465706f73697461727942616c616e6365566965773a3a636f6e7374727563746f723a20696e76616c696420646563696d616c73206f662070726f6475637420746f6b656e",
  "devdoc": {
    "kind": "dev",
    "methods": {
      "balance()": {
        "returns": {
          "_0": "Balance of depositary."
        }
      },
      "buy(uint256)": {
        "params": {
          "amount": "Amount of payment token."
        }
      },
      "changeIssuer(address)": {
        "params": {
          "_issuer": "New issuer contract address."
        }
      },
      "changePauser(address)": {
        "params": {
          "newPauser": "Address of new pauser account."
        }
      },
      "constructor": {
        "params": {
          "_issuer": "Issuer contract address.",
          "_product": "Product token address."
        }
      },
      "owner()": {
        "details": "Returns the address of the current owner."
      },
      "paused()": {
        "details": "Returns true if the contract is paused, and false otherwise."
      },
      "renounceOwnership()": {
        "details": "Leaves the contract without owner. It will not be possible to call `onlyOwner` functions anymore. Can only be called by the current owner. NOTE: Renouncing ownership will leave the contract without an owner, thereby removing any functionality that is only available to the owner."
      },
      "transferOwnership(address)": {
        "details": "Transfers ownership of the contract to a new account (`newOwner`). Can only be called by the current owner."
      },
      "transferProductToken(address,uint256)": {
        "params": {
          "amount": "Amount of transfered token.",
          "recipient": "Address of recipient."
        }
      },
      "transferStableToken(address,uint256)": {
        "params": {
          "amount": "Amount of transfered token.",
          "recipient": "Address of recipient."
        }
      }
    },
    "version": 1
  },
  "userdoc": {
    "events": {
      "Buyback(address,uint256,uint256)": {
        "notice": "An event thats emitted when an account buyback stable token."
      },
      "IssuerChanged(address)": {
        "notice": "An event thats emitted when an issuer contract address changed."
      },
      "PauserChanged(address)": {
        "notice": "An event thats emitted when an pauser address changed."
      }
    },
    "kind": "user",
    "methods": {
      "balance()": {
        "notice": "Get balance of depositary."
      },
      "buy(uint256)": {
        "notice": "Buyback stable token."
      },
      "changeIssuer(address)": {
        "notice": "Change issuer contract address."
      },
      "changePauser(address)": {
        "notice": "Change pauser account."
      },
      "decimals()": {
        "notice": "Balance decimals."
      },
      "issuer()": {
        "notice": "Address of issuer contract."
      },
      "pause()": {
        "notice": "Triggers stopped state."
      },
      "pauser()": {
        "notice": "Address that can pause a contract."
      },
      "product()": {
        "notice": "Address of product token."
      },
      "transferProductToken(address,uint256)": {
        "notice": "Transfer product token."
      },
      "transferStableToken(address,uint256)": {
        "notice": "Transfer stable token."
      },
      "unpause()": {
        "notice": "Returns to normal state."
      }
    },
    "version": 1
  },
  "storageLayout": {
    "storage": [
      {
        "astId": 30,
        "contract": "contracts/depositary/BuybackDepositaryBalanceView.sol:BuybackDepositaryBalanceView",
        "label": "_owner",
        "offset": 0,
        "slot": "0",
        "type": "t_address"
      },
      {
        "astId": 1985,
        "contract": "contracts/depositary/BuybackDepositaryBalanceView.sol:BuybackDepositaryBalanceView",
        "label": "_paused",
        "offset": 20,
        "slot": "0",
        "type": "t_bool"
      },
      {
        "astId": 5854,
        "contract": "contracts/depositary/BuybackDepositaryBalanceView.sol:BuybackDepositaryBalanceView",
        "label": "pauser",
        "offset": 0,
        "slot": "1",
        "type": "t_address"
      },
      {
        "astId": 4111,
        "contract": "contracts/depositary/BuybackDepositaryBalanceView.sol:BuybackDepositaryBalanceView",
        "label": "decimals",
        "offset": 0,
        "slot": "2",
        "type": "t_uint256"
      },
      {
        "astId": 4114,
        "contract": "contracts/depositary/BuybackDepositaryBalanceView.sol:BuybackDepositaryBalanceView",
        "label": "product",
        "offset": 0,
        "slot": "3",
        "type": "t_contract(ERC20)1086"
      },
      {
        "astId": 4117,
        "contract": "contracts/depositary/BuybackDepositaryBalanceView.sol:BuybackDepositaryBalanceView",
        "label": "issuer",
        "offset": 0,
        "slot": "4",
        "type": "t_contract(Issuer)2221"
      }
    ],
    "types": {
      "t_address": {
        "encoding": "inplace",
        "label": "address",
        "numberOfBytes": "20"
      },
      "t_bool": {
        "encoding": "inplace",
        "label": "bool",
        "numberOfBytes": "1"
      },
      "t_contract(ERC20)1086": {
        "encoding": "inplace",
        "label": "contract ERC20",
        "numberOfBytes": "20"
      },
      "t_contract(Issuer)2221": {
        "encoding": "inplace",
        "label": "contract Issuer",
        "numberOfBytes": "20"
      },
      "t_uint256": {
        "encoding": "inplace",
        "label": "uint256",
        "numberOfBytes": "32"
      }
    }
  }
}