{
  "address": "0x1EB2A2b03B34c1b0BB754137ba8067b4f251A14e",
  "abi": [
    {
      "inputs": [
        {
          "internalType": "address",
          "name": "_vesting",
          "type": "address"
        }
      ],
      "stateMutability": "nonpayable",
      "type": "constructor"
    },
    {
      "anonymous": false,
      "inputs": [
        {
          "indexed": true,
          "internalType": "address",
          "name": "previousOwner",
          "type": "address"
        },
        {
          "indexed": true,
          "internalType": "address",
          "name": "newOwner",
          "type": "address"
        }
      ],
      "name": "OwnershipTransferred",
      "type": "event"
    },
    {
      "anonymous": false,
      "inputs": [],
      "name": "SharesChanged",
      "type": "event"
    },
    {
      "anonymous": false,
      "inputs": [
        {
          "indexed": false,
          "internalType": "address",
          "name": "token",
          "type": "address"
        }
      ],
      "name": "Split",
      "type": "event"
    },
    {
      "anonymous": false,
      "inputs": [
        {
          "indexed": false,
          "internalType": "address",
          "name": "newVesting",
          "type": "address"
        }
      ],
      "name": "VestingChanged",
      "type": "event"
    },
    {
      "anonymous": false,
      "inputs": [
        {
          "indexed": false,
          "internalType": "address",
          "name": "vesting",
          "type": "address"
        },
        {
          "indexed": false,
          "internalType": "uint256",
          "name": "periodId",
          "type": "uint256"
        }
      ],
      "name": "VestingWithdraw",
      "type": "event"
    },
    {
      "anonymous": false,
      "inputs": [
        {
          "indexed": false,
          "internalType": "address",
          "name": "token",
          "type": "address"
        },
        {
          "indexed": false,
          "internalType": "address",
          "name": "account",
          "type": "address"
        },
        {
          "indexed": false,
          "internalType": "uint256",
          "name": "reward",
          "type": "uint256"
        }
      ],
      "name": "Withdraw",
      "type": "event"
    },
    {
      "inputs": [
        {
          "internalType": "address",
          "name": "token",
          "type": "address"
        },
        {
          "internalType": "address",
          "name": "account",
          "type": "address"
        }
      ],
      "name": "balanceOf",
      "outputs": [
        {
          "internalType": "uint256",
          "name": "",
          "type": "uint256"
        }
      ],
      "stateMutability": "view",
      "type": "function"
    },
    {
      "inputs": [
        {
          "internalType": "address[]",
          "name": "accounts",
          "type": "address[]"
        },
        {
          "internalType": "uint256[]",
          "name": "shares",
          "type": "uint256[]"
        }
      ],
      "name": "changeShares",
      "outputs": [],
      "stateMutability": "nonpayable",
      "type": "function"
    },
    {
      "inputs": [
        {
          "internalType": "address",
          "name": "_vesting",
          "type": "address"
        }
      ],
      "name": "changeVesting",
      "outputs": [],
      "stateMutability": "nonpayable",
      "type": "function"
    },
    {
      "inputs": [],
      "name": "getAccounts",
      "outputs": [
        {
          "internalType": "address[]",
          "name": "",
          "type": "address[]"
        }
      ],
      "stateMutability": "view",
      "type": "function"
    },
    {
      "inputs": [],
      "name": "getMaxAccounts",
      "outputs": [
        {
          "internalType": "uint256",
          "name": "",
          "type": "uint256"
        }
      ],
      "stateMutability": "pure",
      "type": "function"
    },
    {
      "inputs": [],
      "name": "owner",
      "outputs": [
        {
          "internalType": "address",
          "name": "",
          "type": "address"
        }
      ],
      "stateMutability": "view",
      "type": "function"
    },
    {
      "inputs": [],
      "name": "renounceOwnership",
      "outputs": [],
      "stateMutability": "nonpayable",
      "type": "function"
    },
    {
      "inputs": [
        {
          "internalType": "address",
          "name": "account",
          "type": "address"
        }
      ],
      "name": "shareOf",
      "outputs": [
        {
          "internalType": "uint256",
          "name": "",
          "type": "uint256"
        }
      ],
      "stateMutability": "view",
      "type": "function"
    },
    {
      "inputs": [
        {
          "internalType": "address",
          "name": "token",
          "type": "address"
        }
      ],
      "name": "split",
      "outputs": [],
      "stateMutability": "nonpayable",
      "type": "function"
    },
    {
      "inputs": [
        {
          "internalType": "address",
          "name": "",
          "type": "address"
        }
      ],
      "name": "totalSupply",
      "outputs": [
        {
          "internalType": "uint256",
          "name": "",
          "type": "uint256"
        }
      ],
      "stateMutability": "view",
      "type": "function"
    },
    {
      "inputs": [
        {
          "internalType": "address",
          "name": "newOwner",
          "type": "address"
        }
      ],
      "name": "transferOwnership",
      "outputs": [],
      "stateMutability": "nonpayable",
      "type": "function"
    },
    {
      "inputs": [],
      "name": "vesting",
      "outputs": [
        {
          "internalType": "address",
          "name": "",
          "type": "address"
        }
      ],
      "stateMutability": "view",
      "type": "function"
    },
    {
      "inputs": [
        {
          "internalType": "uint256",
          "name": "periodId",
          "type": "uint256"
        }
      ],
      "name": "vestingWithdraw",
      "outputs": [],
      "stateMutability": "nonpayable",
      "type": "function"
    },
    {
      "inputs": [
        {
          "internalType": "address",
          "name": "token",
          "type": "address"
        }
      ],
      "name": "withdraw",
      "outputs": [],
      "stateMutability": "nonpayable",
      "type": "function"
    }
  ],
  "transactionHash": "0x15def60ad7a8c6b2f9891b446559cee05929aa7298373f045a0ed64af64f3610",
  "args": [
    "0x5C7B067D2DC842CA956AA4b227d36518f81260Cc"
  ],
  "solcInputHash": "e66f57a7d8a1058d34d8c43684fd613f",
  "bytecode": "0x60806040523480156200001157600080fd5b50604051620029f4380380620029f483398181016040528101906200003791906200014e565b6000620000496200012f60201b60201c565b9050806000806101000a81548173ffffffffffffffffffffffffffffffffffffffff021916908373ffffffffffffffffffffffffffffffffffffffff1602179055508073ffffffffffffffffffffffffffffffffffffffff16600073ffffffffffffffffffffffffffffffffffffffff167f8be0079c531659141344cd1fd0a4f28419497f9722a3daafe3b4186f6b6457e060405160405180910390a35080600160006101000a81548173ffffffffffffffffffffffffffffffffffffffff021916908373ffffffffffffffffffffffffffffffffffffffff16021790555050620001c8565b600033905090565b6000815190506200014881620001ae565b92915050565b6000602082840312156200016157600080fd5b6000620001718482850162000137565b91505092915050565b600062000187826200018e565b9050919050565b600073ffffffffffffffffffffffffffffffffffffffff82169050919050565b620001b9816200017a565b8114620001c557600080fd5b50565b61281c80620001d86000396000f3fe608060405234801561001057600080fd5b50600436106100ea5760003560e01c80638da5cb5b1161008c578063e003f4b011610066578063e003f4b014610211578063e4dc2aa41461022d578063f2fde38b1461025d578063f7888aec14610279576100ea565b80638da5cb5b146101bb5780639341170a146101d95780639b4352c4146101f5576100ea565b806356fa47f0116100c857806356fa47f0146101595780636dbb4bd414610175578063715018a6146101935780638a48ac031461019d576100ea565b806321e5e2c4146100ef57806344c63eec1461011f57806351cff8d91461013d575b600080fd5b61010960048036038101906101049190611c1c565b6102a9565b60405161011691906125dc565b60405180910390f35b6101276102f2565b604051610134919061237d565b60405180910390f35b61015760048036038101906101529190611c1c565b610318565b005b610173600480360381019061016e9190611c1c565b610536565b005b61017d6108e1565b60405161018a91906125dc565b60405180910390f35b61019b6108ea565b005b6101a5610a3d565b6040516101b291906123f8565b60405180910390f35b6101c3610b15565b6040516101d0919061237d565b60405180910390f35b6101f360048036038101906101ee9190611c81565b610b3e565b005b61020f600480360381019061020a9190611d16565b610ed4565b005b61022b60048036038101906102269190611c1c565b610fbf565b005b61024760048036038101906102429190611c1c565b6110f1565b60405161025491906125dc565b60405180910390f35b61027760048036038101906102729190611c1c565b611109565b005b610293600480360381019061028e9190611c45565b6112cb565b6040516102a091906125dc565b60405180910390f35b6000600660008373ffffffffffffffffffffffffffffffffffffffff1673ffffffffffffffffffffffffffffffffffffffff168152602001908152602001600020549050919050565b600160009054906101000a900473ffffffffffffffffffffffffffffffffffffffff1681565b6000600360008373ffffffffffffffffffffffffffffffffffffffff1673ffffffffffffffffffffffffffffffffffffffff1681526020019081526020016000206000610363611352565b73ffffffffffffffffffffffffffffffffffffffff1673ffffffffffffffffffffffffffffffffffffffff1681526020019081526020016000205490506000600360008473ffffffffffffffffffffffffffffffffffffffff1673ffffffffffffffffffffffffffffffffffffffff16815260200190815260200160002060006103eb611352565b73ffffffffffffffffffffffffffffffffffffffff1673ffffffffffffffffffffffffffffffffffffffff1681526020019081526020016000208190555061047b81600260008573ffffffffffffffffffffffffffffffffffffffff1673ffffffffffffffffffffffffffffffffffffffff1681526020019081526020016000205461135a90919063ffffffff16565b600260008473ffffffffffffffffffffffffffffffffffffffff1673ffffffffffffffffffffffffffffffffffffffff168152602001908152602001600020819055506104f06104c9611352565b828473ffffffffffffffffffffffffffffffffffffffff166113a49092919063ffffffff16565b7f9b1bfa7fa9ee420a16e124f794c35ac9f90472acc99140eb2f6447c714cad8eb8261051a611352565b8360405161052a93929190612398565b60405180910390a15050565b6000610612600260008473ffffffffffffffffffffffffffffffffffffffff1673ffffffffffffffffffffffffffffffffffffffff168152602001908152602001600020548373ffffffffffffffffffffffffffffffffffffffff166370a08231306040518263ffffffff1660e01b81526004016105b4919061237d565b60206040518083038186803b1580156105cc57600080fd5b505afa1580156105e0573d6000803e3d6000fd5b505050506040513d601f19601f820116820180604052508101906106049190611d3f565b61135a90919063ffffffff16565b905060008111610657576040517f08c379a000000000000000000000000000000000000000000000000000000000815260040161064e906124bc565b60405180910390fd5b60005b610664600461142a565b8110156108a557600061068182600461143f90919063ffffffff16565b90506000600660008373ffffffffffffffffffffffffffffffffffffffff1673ffffffffffffffffffffffffffffffffffffffff16815260200190815260200160002054905060006106ef60646106e1848861145990919063ffffffff16565b6114c990919063ffffffff16565b905061078081600360008973ffffffffffffffffffffffffffffffffffffffff1673ffffffffffffffffffffffffffffffffffffffff16815260200190815260200160002060008673ffffffffffffffffffffffffffffffffffffffff1673ffffffffffffffffffffffffffffffffffffffff1681526020019081526020016000205461151390919063ffffffff16565b600360008873ffffffffffffffffffffffffffffffffffffffff1673ffffffffffffffffffffffffffffffffffffffff16815260200190815260200160002060008573ffffffffffffffffffffffffffffffffffffffff1673ffffffffffffffffffffffffffffffffffffffff1681526020019081526020016000208190555061085281600260008973ffffffffffffffffffffffffffffffffffffffff1673ffffffffffffffffffffffffffffffffffffffff1681526020019081526020016000205461151390919063ffffffff16565b600260008873ffffffffffffffffffffffffffffffffffffffff1673ffffffffffffffffffffffffffffffffffffffff16815260200190815260200160002081905550505050808060010191505061065a565b507fd54a497a40ae458299f3247b4e63c940f7924a3f8b8b9edf5f94a8120e80c117826040516108d5919061237d565b60405180910390a15050565b60006064905090565b6108f2611352565b73ffffffffffffffffffffffffffffffffffffffff1660008054906101000a900473ffffffffffffffffffffffffffffffffffffffff1673ffffffffffffffffffffffffffffffffffffffff161461097f576040517f08c379a00000000000000000000000000000000000000000000000000000000081526004016109769061251c565b60405180910390fd5b600073ffffffffffffffffffffffffffffffffffffffff1660008054906101000a900473ffffffffffffffffffffffffffffffffffffffff1673ffffffffffffffffffffffffffffffffffffffff167f8be0079c531659141344cd1fd0a4f28419497f9722a3daafe3b4186f6b6457e060405160405180910390a360008060006101000a81548173ffffffffffffffffffffffffffffffffffffffff021916908373ffffffffffffffffffffffffffffffffffffffff160217905550565b606080610a4a600461142a565b67ffffffffffffffff81118015610a6057600080fd5b50604051908082528060200260200182016040528015610a8f5781602001602082028036833780820191505090505b50905060005b610a9f600461142a565b811015610b0d57610aba81600461143f90919063ffffffff16565b828281518110610ac657fe5b602002602001019073ffffffffffffffffffffffffffffffffffffffff16908173ffffffffffffffffffffffffffffffffffffffff16815250508080600101915050610a95565b508091505090565b60008060009054906101000a900473ffffffffffffffffffffffffffffffffffffffff16905090565b610b46611352565b73ffffffffffffffffffffffffffffffffffffffff1660008054906101000a900473ffffffffffffffffffffffffffffffffffffffff1673ffffffffffffffffffffffffffffffffffffffff1614610bd3576040517f08c379a0000000000000000000000000000000000000000000000000000000008152600401610bca9061251c565b60405180910390fd5b610bdb6108e1565b82511115610c1e576040517f08c379a0000000000000000000000000000000000000000000000000000000008152600401610c159061253c565b60405180910390fd5b8051825114610c62576040517f08c379a0000000000000000000000000000000000000000000000000000000008152600401610c599061245c565b60405180910390fd5b6000610c6e600461142a565b90505b6000811115610cfc576000610c916000600461143f90919063ffffffff16565b90506000600660008373ffffffffffffffffffffffffffffffffffffffff1673ffffffffffffffffffffffffffffffffffffffff16815260200190815260200160002081905550610cec81600461156890919063ffffffff16565b5050808060019003915050610c71565b50600080600090505b8351811015610e5f576000848281518110610d1c57fe5b60200260200101519050610d3a81600461159890919063ffffffff16565b15610d7a576040517f08c379a0000000000000000000000000000000000000000000000000000000008152600401610d719061257c565b60405180910390fd5b6000848381518110610d8857fe5b6020026020010151905060648111158015610da35750600081115b610de2576040517f08c379a0000000000000000000000000000000000000000000000000000000008152600401610dd9906124fc565b60405180910390fd5b80600660008473ffffffffffffffffffffffffffffffffffffffff1673ffffffffffffffffffffffffffffffffffffffff16815260200190815260200160002081905550610e39818561151390919063ffffffff16565b9350610e4f8260046115c890919063ffffffff16565b5050508080600101915050610d05565b5060648114610ea3576040517f08c379a0000000000000000000000000000000000000000000000000000000008152600401610e9a9061259c565b60405180910390fd5b7fc3f1591f132864f89c86569379ff83036d5c5faa28d6ce4b3c9b9a2d21364c0860405160405180910390a1505050565b600160009054906101000a900473ffffffffffffffffffffffffffffffffffffffff1673ffffffffffffffffffffffffffffffffffffffff16632e1a7d4d826040518263ffffffff1660e01b8152600401610f2f91906125dc565b600060405180830381600087803b158015610f4957600080fd5b505af1158015610f5d573d6000803e3d6000fd5b505050507f97ea5c7a76cabd16d669e80b9f5972997a27a2e8ae7a1f3daf7d6bc92f936587600160009054906101000a900473ffffffffffffffffffffffffffffffffffffffff1682604051610fb49291906123cf565b60405180910390a150565b610fc7611352565b73ffffffffffffffffffffffffffffffffffffffff1660008054906101000a900473ffffffffffffffffffffffffffffffffffffffff1673ffffffffffffffffffffffffffffffffffffffff1614611054576040517f08c379a000000000000000000000000000000000000000000000000000000000815260040161104b9061251c565b60405180910390fd5b80600160006101000a81548173ffffffffffffffffffffffffffffffffffffffff021916908373ffffffffffffffffffffffffffffffffffffffff1602179055507fa382d6de23230b4513b2ee62dcfa30957a86ccaf67a224d61a08bbff48348e63600160009054906101000a900473ffffffffffffffffffffffffffffffffffffffff166040516110e6919061237d565b60405180910390a150565b60026020528060005260406000206000915090505481565b611111611352565b73ffffffffffffffffffffffffffffffffffffffff1660008054906101000a900473ffffffffffffffffffffffffffffffffffffffff1673ffffffffffffffffffffffffffffffffffffffff161461119e576040517f08c379a00000000000000000000000000000000000000000000000000000000081526004016111959061251c565b60405180910390fd5b600073ffffffffffffffffffffffffffffffffffffffff168173ffffffffffffffffffffffffffffffffffffffff16141561120e576040517f08c379a00000000000000000000000000000000000000000000000000000000081526004016112059061247c565b60405180910390fd5b8073ffffffffffffffffffffffffffffffffffffffff1660008054906101000a900473ffffffffffffffffffffffffffffffffffffffff1673ffffffffffffffffffffffffffffffffffffffff167f8be0079c531659141344cd1fd0a4f28419497f9722a3daafe3b4186f6b6457e060405160405180910390a3806000806101000a81548173ffffffffffffffffffffffffffffffffffffffff021916908373ffffffffffffffffffffffffffffffffffffffff16021790555050565b6000600360008473ffffffffffffffffffffffffffffffffffffffff1673ffffffffffffffffffffffffffffffffffffffff16815260200190815260200160002060008373ffffffffffffffffffffffffffffffffffffffff1673ffffffffffffffffffffffffffffffffffffffff16815260200190815260200160002054905092915050565b600033905090565b600061139c83836040518060400160405280601e81526020017f536166654d6174683a207375627472616374696f6e206f766572666c6f7700008152506115f8565b905092915050565b6114258363a9059cbb60e01b84846040516024016113c39291906123cf565b604051602081830303815290604052907bffffffffffffffffffffffffffffffffffffffffffffffffffffffff19166020820180517bffffffffffffffffffffffffffffffffffffffffffffffffffffffff8381831617835250505050611653565b505050565b60006114388260000161171a565b9050919050565b600061144e836000018361172b565b60001c905092915050565b60008083141561146c57600090506114c3565b600082840290508284828161147d57fe5b04146114be576040517f08c379a00000000000000000000000000000000000000000000000000000000081526004016114b5906124dc565b60405180910390fd5b809150505b92915050565b600061150b83836040518060400160405280601a81526020017f536166654d6174683a206469766973696f6e206279207a65726f000000000000815250611798565b905092915050565b60008082840190508381101561155e576040517f08c379a00000000000000000000000000000000000000000000000000000000081526004016115559061249c565b60405180910390fd5b8091505092915050565b6000611590836000018373ffffffffffffffffffffffffffffffffffffffff1660001b6117f9565b905092915050565b60006115c0836000018373ffffffffffffffffffffffffffffffffffffffff1660001b6118e1565b905092915050565b60006115f0836000018373ffffffffffffffffffffffffffffffffffffffff1660001b611904565b905092915050565b6000838311158290611640576040517f08c379a0000000000000000000000000000000000000000000000000000000008152600401611637919061241a565b60405180910390fd5b5060008385039050809150509392505050565b60606116b5826040518060400160405280602081526020017f5361666545524332303a206c6f772d6c6576656c2063616c6c206661696c65648152508573ffffffffffffffffffffffffffffffffffffffff166119749092919063ffffffff16565b905060008151111561171557808060200190518101906116d59190611ced565b611714576040517f08c379a000000000000000000000000000000000000000000000000000000000815260040161170b906125bc565b60405180910390fd5b5b505050565b600081600001805490509050919050565b600081836000018054905011611776576040517f08c379a000000000000000000000000000000000000000000000000000000000815260040161176d9061243c565b60405180910390fd5b82600001828154811061178557fe5b9060005260206000200154905092915050565b600080831182906117df576040517f08c379a00000000000000000000000000000000000000000000000000000000081526004016117d6919061241a565b60405180910390fd5b5060008385816117eb57fe5b049050809150509392505050565b600080836001016000848152602001908152602001600020549050600081146118d5576000600182039050600060018660000180549050039050600086600001828154811061184457fe5b906000526020600020015490508087600001848154811061186157fe5b906000526020600020018190555060018301876001016000838152602001908152602001600020819055508660000180548061189957fe5b600190038181906000526020600020016000905590558660010160008781526020019081526020016000206000905560019450505050506118db565b60009150505b92915050565b600080836001016000848152602001908152602001600020541415905092915050565b600061191083836118e1565b61196957826000018290806001815401808255809150506001900390600052602060002001600090919091909150558260000180549050836001016000848152602001908152602001600020819055506001905061196e565b600090505b92915050565b6060611983848460008561198c565b90509392505050565b606061199785611aaf565b6119d6576040517f08c379a00000000000000000000000000000000000000000000000000000000081526004016119cd9061255c565b60405180910390fd5b600060608673ffffffffffffffffffffffffffffffffffffffff168587604051611a009190612366565b60006040518083038185875af1925050503d8060008114611a3d576040519150601f19603f3d011682016040523d82523d6000602084013e611a42565b606091505b50915091508115611a57578092505050611aa7565b600081511115611a6a5780518082602001fd5b836040517f08c379a0000000000000000000000000000000000000000000000000000000008152600401611a9e919061241a565b60405180910390fd5b949350505050565b600080823b905060008111915050919050565b600081359050611ad1816127a1565b92915050565b600082601f830112611ae857600080fd5b8135611afb611af682612624565b6125f7565b91508181835260208401935060208101905083856020840282011115611b2057600080fd5b60005b83811015611b505781611b368882611ac2565b845260208401935060208301925050600181019050611b23565b5050505092915050565b600082601f830112611b6b57600080fd5b8135611b7e611b798261264c565b6125f7565b91508181835260208401935060208101905083856020840282011115611ba357600080fd5b60005b83811015611bd35781611bb98882611bf2565b845260208401935060208301925050600181019050611ba6565b5050505092915050565b600081519050611bec816127b8565b92915050565b600081359050611c01816127cf565b92915050565b600081519050611c16816127cf565b92915050565b600060208284031215611c2e57600080fd5b6000611c3c84828501611ac2565b91505092915050565b60008060408385031215611c5857600080fd5b6000611c6685828601611ac2565b9250506020611c7785828601611ac2565b9150509250929050565b60008060408385031215611c9457600080fd5b600083013567ffffffffffffffff811115611cae57600080fd5b611cba85828601611ad7565b925050602083013567ffffffffffffffff811115611cd757600080fd5b611ce385828601611b5a565b9150509250929050565b600060208284031215611cff57600080fd5b6000611d0d84828501611bdd565b91505092915050565b600060208284031215611d2857600080fd5b6000611d3684828501611bf2565b91505092915050565b600060208284031215611d5157600080fd5b6000611d5f84828501611c07565b91505092915050565b6000611d748383611d8f565b60208301905092915050565b611d8981612727565b82525050565b611d98816126df565b82525050565b611da7816126df565b82525050565b6000611db882612684565b611dc281856126b2565b9350611dcd83612674565b8060005b83811015611dfe578151611de58882611d68565b9750611df0836126a5565b925050600181019050611dd1565b5085935050505092915050565b6000611e168261268f565b611e2081856126c3565b9350611e3081856020860161275d565b80840191505092915050565b6000611e478261269a565b611e5181856126ce565b9350611e6181856020860161275d565b611e6a81612790565b840191505092915050565b6000611e826022836126ce565b91507f456e756d657261626c655365743a20696e646578206f7574206f6620626f756e60008301527f64730000000000000000000000000000000000000000000000000000000000006020830152604082019050919050565b6000611ee86049836126ce565b91507f56657374696e6753706c69747465723a3a6368616e67655368617265733a207360008301527f68617265732066756e6374696f6e20696e666f726d6174696f6e20617269747960208301527f206d69736d6174636800000000000000000000000000000000000000000000006040830152606082019050919050565b6000611f746026836126ce565b91507f4f776e61626c653a206e6577206f776e657220697320746865207a65726f206160008301527f64647265737300000000000000000000000000000000000000000000000000006020830152604082019050919050565b6000611fda601b836126ce565b91507f536166654d6174683a206164646974696f6e206f766572666c6f7700000000006000830152602082019050919050565b600061201a6025836126ce565b91507f56657374696e6753706c69747465723a3a73706c69743a20656d70747920626160008301527f6c616e63650000000000000000000000000000000000000000000000000000006020830152604082019050919050565b60006120806021836126ce565b91507f536166654d6174683a206d756c7469706c69636174696f6e206f766572666c6f60008301527f77000000000000000000000000000000000000000000000000000000000000006020830152604082019050919050565b60006120e66035836126ce565b91507f56657374696e6753706c69747465723a3a6368616e67655368617265733a206960008301527f6e76616c69642076616c7565206f6620736861726500000000000000000000006020830152604082019050919050565b600061214c6020836126ce565b91507f4f776e61626c653a2063616c6c6572206973206e6f7420746865206f776e65726000830152602082019050919050565b600061218c6030836126ce565b91507f56657374696e6753706c69747465723a3a6368616e67655368617265733a207460008301527f6f6f206d616e79206163636f756e7473000000000000000000000000000000006020830152604082019050919050565b60006121f2601d836126ce565b91507f416464726573733a2063616c6c20746f206e6f6e2d636f6e74726163740000006000830152602082019050919050565b60006122326030836126ce565b91507f56657374696e6753706c69747465723a3a6368616e67655368617265733a206460008301527f75706c6963617465206163636f756e74000000000000000000000000000000006020830152604082019050919050565b60006122986034836126ce565b91507f56657374696e6753706c69747465723a3a6368616e67655368617265733a206960008301527f6e76616c69642073756d206f66207368617265730000000000000000000000006020830152604082019050919050565b60006122fe602a836126ce565b91507f5361666545524332303a204552433230206f7065726174696f6e20646964206e60008301527f6f742073756363656564000000000000000000000000000000000000000000006020830152604082019050919050565b6123608161271d565b82525050565b60006123728284611e0b565b915081905092915050565b60006020820190506123926000830184611d9e565b92915050565b60006060820190506123ad6000830186611d9e565b6123ba6020830185611d80565b6123c76040830184612357565b949350505050565b60006040820190506123e46000830185611d9e565b6123f16020830184612357565b9392505050565b600060208201905081810360008301526124128184611dad565b905092915050565b600060208201905081810360008301526124348184611e3c565b905092915050565b6000602082019050818103600083015261245581611e75565b9050919050565b6000602082019050818103600083015261247581611edb565b9050919050565b6000602082019050818103600083015261249581611f67565b9050919050565b600060208201905081810360008301526124b581611fcd565b9050919050565b600060208201905081810360008301526124d58161200d565b9050919050565b600060208201905081810360008301526124f581612073565b9050919050565b60006020820190508181036000830152612515816120d9565b9050919050565b600060208201905081810360008301526125358161213f565b9050919050565b600060208201905081810360008301526125558161217f565b9050919050565b60006020820190508181036000830152612575816121e5565b9050919050565b6000602082019050818103600083015261259581612225565b9050919050565b600060208201905081810360008301526125b58161228b565b9050919050565b600060208201905081810360008301526125d5816122f1565b9050919050565b60006020820190506125f16000830184612357565b92915050565b6000604051905081810181811067ffffffffffffffff8211171561261a57600080fd5b8060405250919050565b600067ffffffffffffffff82111561263b57600080fd5b602082029050602081019050919050565b600067ffffffffffffffff82111561266357600080fd5b602082029050602081019050919050565b6000819050602082019050919050565b600081519050919050565b600081519050919050565b600081519050919050565b6000602082019050919050565b600082825260208201905092915050565b600081905092915050565b600082825260208201905092915050565b60006126ea826126fd565b9050919050565b60008115159050919050565b600073ffffffffffffffffffffffffffffffffffffffff82169050919050565b6000819050919050565b600061273282612739565b9050919050565b60006127448261274b565b9050919050565b6000612756826126fd565b9050919050565b60005b8381101561277b578082015181840152602081019050612760565b8381111561278a576000848401525b50505050565b6000601f19601f8301169050919050565b6127aa816126df565b81146127b557600080fd5b50565b6127c1816126f1565b81146127cc57600080fd5b50565b6127d88161271d565b81146127e357600080fd5b5056fea2646970667358221220717e5dba8fbd210c80f2f568506f44586de8fdf6c742f483b6d7011b5dd8e7f864736f6c634300060c0033",
  "devdoc": {
    "kind": "dev",
    "methods": {
      "balanceOf(address,address)": {
        "params": {
          "account": "Target account.",
          "token": "Target token."
        },
        "returns": {
          "_0": "Balance of account."
        }
      },
      "changeShares(address[],uint256[])": {
        "params": {
          "accounts": "Accounts list.",
          "shares": "Shares in split."
        }
      },
      "changeVesting(address)": {
        "params": {
          "_vesting": "New vesting contract address."
        }
      },
      "constructor": {
        "params": {
          "_vesting": "Vesting contract address."
        }
      },
      "getAccounts()": {
        "returns": {
          "_0": "Addresses of all accounts with share."
        }
      },
      "getMaxAccounts()": {
        "returns": {
          "_0": "Max accounts for split."
        }
      },
      "owner()": {
        "details": "Returns the address of the current owner."
      },
      "renounceOwnership()": {
        "details": "Leaves the contract without owner. It will not be possible to call `onlyOwner` functions anymore. Can only be called by the current owner. NOTE: Renouncing ownership will leave the contract without an owner, thereby removing any functionality that is only available to the owner."
      },
      "shareOf(address)": {
        "params": {
          "account": "Target account."
        },
        "returns": {
          "_0": "Share in split."
        }
      },
      "split(address)": {
        "params": {
          "token": "Target token."
        }
      },
      "transferOwnership(address)": {
        "details": "Transfers ownership of the contract to a new account (`newOwner`). Can only be called by the current owner."
      },
      "vestingWithdraw(uint256)": {
        "params": {
          "periodId": "Target vesting period."
        }
      },
      "withdraw(address)": {
        "params": {
          "token": "Target token."
        }
      }
    },
    "stateVariables": {
      "_accounts": {
        "details": "Accounts list."
      },
      "_balances": {
        "details": "Accounts balances."
      },
      "_share": {
        "details": "Shares of account in split."
      }
    },
    "version": 1
  },
  "userdoc": {
    "events": {
      "SharesChanged()": {
        "notice": "An event emitted when shares changed."
      },
      "Split(address)": {
        "notice": "An event emitted when split a balance."
      },
      "VestingChanged(address)": {
        "notice": "An event emitted when vesting contract address changed."
      },
      "VestingWithdraw(address,uint256)": {
        "notice": "An event emitted when vesting period withdrawal."
      },
      "Withdraw(address,address,uint256)": {
        "notice": "An event emitted when withdrawal a token."
      }
    },
    "kind": "user",
    "methods": {
      "balanceOf(address,address)": {
        "notice": "Get balance of account."
      },
      "changeShares(address[],uint256[])": {
        "notice": "Change shares of accounts in split."
      },
      "changeVesting(address)": {
        "notice": "Change vesting contract address."
      },
      "getAccounts()": {
        "notice": "Get accounts with share list."
      },
      "getMaxAccounts()": {
        "notice": "Get accounts limit for split."
      },
      "shareOf(address)": {
        "notice": "Get share of account in split."
      },
      "split(address)": {
        "notice": "Split token to all accounts."
      },
      "totalSupply(address)": {
        "notice": "Distributed tokens."
      },
      "vesting()": {
        "notice": "Vesting contract address."
      },
      "vestingWithdraw(uint256)": {
        "notice": "Withdraw reward from vesting contract."
      },
      "withdraw(address)": {
        "notice": "Withdraw token balance to sender."
      }
    },
    "version": 1
  },
  "storageLayout": {
    "storage": [
      {
        "astId": 30,
        "contract": "contracts/VestingSplitter.sol:VestingSplitter",
        "label": "_owner",
        "offset": 0,
        "slot": "0",
        "type": "t_address"
      },
      {
        "astId": 8171,
        "contract": "contracts/VestingSplitter.sol:VestingSplitter",
        "label": "vesting",
        "offset": 0,
        "slot": "1",
        "type": "t_address"
      },
      {
        "astId": 8176,
        "contract": "contracts/VestingSplitter.sol:VestingSplitter",
        "label": "totalSupply",
        "offset": 0,
        "slot": "2",
        "type": "t_mapping(t_address,t_uint256)"
      },
      {
        "astId": 8183,
        "contract": "contracts/VestingSplitter.sol:VestingSplitter",
        "label": "_balances",
        "offset": 0,
        "slot": "3",
        "type": "t_mapping(t_address,t_mapping(t_address,t_uint256))"
      },
      {
        "astId": 8186,
        "contract": "contracts/VestingSplitter.sol:VestingSplitter",
        "label": "_accounts",
        "offset": 0,
        "slot": "4",
        "type": "t_struct(AddressSet)1584_storage"
      },
      {
        "astId": 8191,
        "contract": "contracts/VestingSplitter.sol:VestingSplitter",
        "label": "_share",
        "offset": 0,
        "slot": "6",
        "type": "t_mapping(t_address,t_uint256)"
      }
    ],
    "types": {
      "t_address": {
        "encoding": "inplace",
        "label": "address",
        "numberOfBytes": "20"
      },
      "t_array(t_bytes32)dyn_storage": {
        "base": "t_bytes32",
        "encoding": "dynamic_array",
        "label": "bytes32[]",
        "numberOfBytes": "32"
      },
      "t_bytes32": {
        "encoding": "inplace",
        "label": "bytes32",
        "numberOfBytes": "32"
      },
      "t_mapping(t_address,t_mapping(t_address,t_uint256))": {
        "encoding": "mapping",
        "key": "t_address",
        "label": "mapping(address => mapping(address => uint256))",
        "numberOfBytes": "32",
        "value": "t_mapping(t_address,t_uint256)"
      },
      "t_mapping(t_address,t_uint256)": {
        "encoding": "mapping",
        "key": "t_address",
        "label": "mapping(address => uint256)",
        "numberOfBytes": "32",
        "value": "t_uint256"
      },
      "t_mapping(t_bytes32,t_uint256)": {
        "encoding": "mapping",
        "key": "t_bytes32",
        "label": "mapping(bytes32 => uint256)",
        "numberOfBytes": "32",
        "value": "t_uint256"
      },
      "t_struct(AddressSet)1584_storage": {
        "encoding": "inplace",
        "label": "struct EnumerableSet.AddressSet",
        "members": [
          {
            "astId": 1583,
            "contract": "contracts/VestingSplitter.sol:VestingSplitter",
            "label": "_inner",
            "offset": 0,
            "slot": "0",
            "type": "t_struct(Set)1404_storage"
          }
        ],
        "numberOfBytes": "64"
      },
      "t_struct(Set)1404_storage": {
        "encoding": "inplace",
        "label": "struct EnumerableSet.Set",
        "members": [
          {
            "astId": 1399,
            "contract": "contracts/VestingSplitter.sol:VestingSplitter",
            "label": "_values",
            "offset": 0,
            "slot": "0",
            "type": "t_array(t_bytes32)dyn_storage"
          },
          {
            "astId": 1403,
            "contract": "contracts/VestingSplitter.sol:VestingSplitter",
            "label": "_indexes",
            "offset": 0,
            "slot": "1",
            "type": "t_mapping(t_bytes32,t_uint256)"
          }
        ],
        "numberOfBytes": "64"
      },
      "t_uint256": {
        "encoding": "inplace",
        "label": "uint256",
        "numberOfBytes": "32"
      }
    }
  }
}