{
  "_format": "hh-sol-artifact-1",
  "contractName": "DepositaryOracle",
  "sourceName": "contracts/oracle/DepositaryOracle.sol",
  "abi": [
    {
      "anonymous": false,
      "inputs": [
        {
          "indexed": true,
          "internalType": "address",
          "name": "previousOwner",
          "type": "address"
        },
        {
          "indexed": true,
          "internalType": "address",
          "name": "newOwner",
          "type": "address"
        }
      ],
      "name": "OwnershipTransferred",
      "type": "event"
    },
    {
      "anonymous": false,
      "inputs": [
        {
          "indexed": false,
          "internalType": "string",
          "name": "isin",
          "type": "string"
        },
        {
          "indexed": false,
          "internalType": "uint256",
          "name": "amount",
          "type": "uint256"
        }
      ],
      "name": "Update",
      "type": "event"
    },
    {
      "inputs": [],
      "name": "all",
      "outputs": [
        {
          "components": [
            {
              "internalType": "string",
              "name": "isin",
              "type": "string"
            },
            {
              "internalType": "uint256",
              "name": "amount",
              "type": "uint256"
            }
          ],
          "internalType": "struct IDepositaryOracle.Security[]",
          "name": "",
          "type": "tuple[]"
        }
      ],
      "stateMutability": "view",
      "type": "function"
    },
    {
      "inputs": [
        {
          "internalType": "string",
          "name": "isin",
          "type": "string"
        }
      ],
      "name": "get",
      "outputs": [
        {
          "components": [
            {
              "internalType": "string",
              "name": "isin",
              "type": "string"
            },
            {
              "internalType": "uint256",
              "name": "amount",
              "type": "uint256"
            }
          ],
          "internalType": "struct IDepositaryOracle.Security",
          "name": "",
          "type": "tuple"
        }
      ],
      "stateMutability": "view",
      "type": "function"
    },
    {
      "inputs": [],
      "name": "maxSize",
      "outputs": [
        {
          "internalType": "uint256",
          "name": "",
          "type": "uint256"
        }
      ],
      "stateMutability": "pure",
      "type": "function"
    },
    {
      "inputs": [],
      "name": "owner",
      "outputs": [
        {
          "internalType": "address",
          "name": "",
          "type": "address"
        }
      ],
      "stateMutability": "view",
      "type": "function"
    },
    {
      "inputs": [
        {
          "internalType": "string",
          "name": "isin",
          "type": "string"
        },
        {
          "internalType": "uint256",
          "name": "amount",
          "type": "uint256"
        }
      ],
      "name": "put",
      "outputs": [],
      "stateMutability": "nonpayable",
      "type": "function"
    },
    {
      "inputs": [],
      "name": "renounceOwnership",
      "outputs": [],
      "stateMutability": "nonpayable",
      "type": "function"
    },
    {
      "inputs": [
        {
          "internalType": "address",
          "name": "newOwner",
          "type": "address"
        }
      ],
      "name": "transferOwnership",
      "outputs": [],
      "stateMutability": "nonpayable",
      "type": "function"
    }
  ],
  "bytecode": "0x608060405260006100146100b760201b60201c565b9050806000806101000a81548173ffffffffffffffffffffffffffffffffffffffff021916908373ffffffffffffffffffffffffffffffffffffffff1602179055508073ffffffffffffffffffffffffffffffffffffffff16600073ffffffffffffffffffffffffffffffffffffffff167f8be0079c531659141344cd1fd0a4f28419497f9722a3daafe3b4186f6b6457e060405160405180910390a3506100bf565b600033905090565b611199806100ce6000396000f3fe608060405234801561001057600080fd5b506004361061007d5760003560e01c8063715018a61161005b578063715018a6146100ee5780638da5cb5b146100f8578063f2fde38b14610116578063fa0bef9b146101325761007d565b806310c4e8b0146100825780632565b159146100a0578063693ec85e146100be575b600080fd5b61008a61014e565b6040516100979190610f2f565b60405180910390f35b6100a86102bd565b6040516100b59190611005565b60405180910390f35b6100d860048036036100d39190810190610af2565b6102c6565b6040516100e59190610fe3565b60405180910390f35b6100f66103ad565b005b610100610502565b60405161010d9190610f14565b60405180910390f35b610130600480360361012b9190810190610ac9565b61052b565b005b61014c60048036036101479190810190610b37565b6106ef565b005b60608060028054905060405190808252806020026020018201604052801561019057816020015b61017d6108fc565b8152602001906001900390816101755790505b50905060008090505b6002805490508110156102b5576001600282815481106101b557fe5b906000526020600020016040516101cc9190610efd565b9081526020016040518091039020604051806040016040529081600082018054600181600116156101000203166002900480601f01602080910402602001604051908101604052809291908181526020018280546001816001161561010002031660029004801561027e5780601f106102535761010080835404028352916020019161027e565b820191906000526020600020905b81548152906001019060200180831161026157829003601f168201915b5050505050815260200160018201548152505082828151811061029d57fe5b60200260200101819052508080600101915050610199565b508091505090565b60006032905090565b6102ce610916565b600183836040516102e0929190610ee4565b9081526020016040518091039020604051806040016040529081600082018054600181600116156101000203166002900480601f0160208091040260200160405190810160405280929190818152602001828054600181600116156101000203166002900480156103925780601f1061036757610100808354040283529160200191610392565b820191906000526020600020905b81548152906001019060200180831161037557829003601f168201915b50505050508152602001600182015481525050905092915050565b6103b56108f4565b73ffffffffffffffffffffffffffffffffffffffff166000809054906101000a900473ffffffffffffffffffffffffffffffffffffffff1673ffffffffffffffffffffffffffffffffffffffff1614610443576040517f08c379a000000000000000000000000000000000000000000000000000000000815260040161043a90610fc3565b60405180910390fd5b600073ffffffffffffffffffffffffffffffffffffffff166000809054906101000a900473ffffffffffffffffffffffffffffffffffffffff1673ffffffffffffffffffffffffffffffffffffffff167f8be0079c531659141344cd1fd0a4f28419497f9722a3daafe3b4186f6b6457e060405160405180910390a360008060006101000a81548173ffffffffffffffffffffffffffffffffffffffff021916908373ffffffffffffffffffffffffffffffffffffffff160217905550565b60008060009054906101000a900473ffffffffffffffffffffffffffffffffffffffff16905090565b6105336108f4565b73ffffffffffffffffffffffffffffffffffffffff166000809054906101000a900473ffffffffffffffffffffffffffffffffffffffff1673ffffffffffffffffffffffffffffffffffffffff16146105c1576040517f08c379a00000000000000000000000000000000000000000000000000000000081526004016105b890610fc3565b60405180910390fd5b600073ffffffffffffffffffffffffffffffffffffffff168173ffffffffffffffffffffffffffffffffffffffff161415610631576040517f08c379a000000000000000000000000000000000000000000000000000000000815260040161062890610f83565b60405180910390fd5b8073ffffffffffffffffffffffffffffffffffffffff166000809054906101000a900473ffffffffffffffffffffffffffffffffffffffff1673ffffffffffffffffffffffffffffffffffffffff167f8be0079c531659141344cd1fd0a4f28419497f9722a3daafe3b4186f6b6457e060405160405180910390a3806000806101000a81548173ffffffffffffffffffffffffffffffffffffffff021916908373ffffffffffffffffffffffffffffffffffffffff16021790555050565b6106f76108f4565b73ffffffffffffffffffffffffffffffffffffffff166000809054906101000a900473ffffffffffffffffffffffffffffffffffffffff1673ffffffffffffffffffffffffffffffffffffffff1614610785576040517f08c379a000000000000000000000000000000000000000000000000000000000815260040161077c90610fc3565b60405180910390fd5b61078d6102bd565b600280549050106107d3576040517f08c379a00000000000000000000000000000000000000000000000000000000081526004016107ca90610fa3565b60405180910390fd5b604051806040016040528084848080601f016020809104026020016040519081016040528093929190818152602001838380828437600081840152601f19601f820116905080830192505050505050508152602001828152506001848460405161083e929190610ee4565b90815260200160405180910390206000820151816000019080519060200190610868929190610930565b506020820151816001015590505060028383909180600181540180825580915050600190039060005260206000200160009091929091929091929091925091906108b39291906109b0565b507f68569b533bfdeb53ee0f87318e7aa1ad56335f80086c45dfaa733c24fa43ea7b8383836040516108e793929190610f51565b60405180910390a1505050565b600033905090565b604051806040016040528060608152602001600081525090565b604051806040016040528060608152602001600081525090565b828054600181600116156101000203166002900490600052602060002090601f016020900481019282601f1061097157805160ff191683800117855561099f565b8280016001018555821561099f579182015b8281111561099e578251825591602001919060010190610983565b5b5090506109ac9190610a30565b5090565b828054600181600116156101000203166002900490600052602060002090601f016020900481019282601f106109f157803560ff1916838001178555610a1f565b82800160010185558215610a1f579182015b82811115610a1e578235825591602001919060010190610a03565b5b509050610a2c9190610a30565b5090565b610a5291905b80821115610a4e576000816000905550600101610a36565b5090565b90565b600081359050610a6481611135565b92915050565b60008083601f840112610a7c57600080fd5b8235905067ffffffffffffffff811115610a9557600080fd5b602083019150836001820283011115610aad57600080fd5b9250929050565b600081359050610ac38161114c565b92915050565b600060208284031215610adb57600080fd5b6000610ae984828501610a55565b91505092915050565b60008060208385031215610b0557600080fd5b600083013567ffffffffffffffff811115610b1f57600080fd5b610b2b85828601610a6a565b92509250509250929050565b600080600060408486031215610b4c57600080fd5b600084013567ffffffffffffffff811115610b6657600080fd5b610b7286828701610a6a565b93509350506020610b8586828701610ab4565b9150509250925092565b6000610b9b8383610e89565b905092915050565b610bac816110a6565b82525050565b6000610bbd82611045565b610bc78185611068565b935083602082028501610bd985611020565b8060005b85811015610c155784840389528151610bf68582610b8f565b9450610c018361105b565b925060208a01995050600181019050610bdd565b50829750879550505050505092915050565b6000610c33838561108a565b9350610c408385846110e2565b610c4983611124565b840190509392505050565b6000610c60838561109b565b9350610c6d8385846110e2565b82840190509392505050565b6000610c8482611050565b610c8e8185611079565b9350610c9e8185602086016110f1565b610ca781611124565b840191505092915050565b600081546001811660008114610ccf5760018114610cf457610d38565b607f6002830416610ce0818761109b565b955060ff1983168652808601935050610d38565b60028204610d02818761109b565b9550610d0d85611030565b60005b82811015610d2f57815481890152600182019150602081019050610d10565b82880195505050505b505092915050565b6000610d4d60268361108a565b91507f4f776e61626c653a206e6577206f776e657220697320746865207a65726f206160008301527f64647265737300000000000000000000000000000000000000000000000000006020830152604082019050919050565b6000610db3602a8361108a565b91507f4465706f7369746172794f7261636c653a3a7075743a20746f6f206d616e792060008301527f73656375726974696573000000000000000000000000000000000000000000006020830152604082019050919050565b6000610e1960208361108a565b91507f4f776e61626c653a2063616c6c6572206973206e6f7420746865206f776e65726000830152602082019050919050565b60006040830160008301518482036000860152610e698282610c79565b9150506020830151610e7e6020860182610ec6565b508091505092915050565b60006040830160008301518482036000860152610ea68282610c79565b9150506020830151610ebb6020860182610ec6565b508091505092915050565b610ecf816110d8565b82525050565b610ede816110d8565b82525050565b6000610ef1828486610c54565b91508190509392505050565b6000610f098284610cb2565b915081905092915050565b6000602082019050610f296000830184610ba3565b92915050565b60006020820190508181036000830152610f498184610bb2565b905092915050565b60006040820190508181036000830152610f6c818587610c27565b9050610f7b6020830184610ed5565b949350505050565b60006020820190508181036000830152610f9c81610d40565b9050919050565b60006020820190508181036000830152610fbc81610da6565b9050919050565b60006020820190508181036000830152610fdc81610e0c565b9050919050565b60006020820190508181036000830152610ffd8184610e4c565b905092915050565b600060208201905061101a6000830184610ed5565b92915050565b6000819050602082019050919050565b60008190508160005260206000209050919050565b600081519050919050565b600081519050919050565b6000602082019050919050565b600082825260208201905092915050565b600082825260208201905092915050565b600082825260208201905092915050565b600081905092915050565b60006110b1826110b8565b9050919050565b600073ffffffffffffffffffffffffffffffffffffffff82169050919050565b6000819050919050565b82818337600083830152505050565b60005b8381101561110f5780820151818401526020810190506110f4565b8381111561111e576000848401525b50505050565b6000601f19601f8301169050919050565b61113e816110a6565b811461114957600080fd5b50565b611155816110d8565b811461116057600080fd5b5056fea264697066735822122012876ce3305965be3b835d24e748c545c4d62ce8318252253124fc99b1662cb164736f6c63430006020033",
  "linkReferences": {},
  "deployedLinkReferences": {}
}