{
  "address": "0x43519a111Cc6268C3f630836968Dd371683B1a3d",
  "abi": [
    {
      "anonymous": false,
      "inputs": [
        {
          "indexed": false,
          "internalType": "address",
          "name": "recipient",
          "type": "address"
        },
        {
          "indexed": false,
          "internalType": "uint256",
          "name": "min",
          "type": "uint256"
        },
        {
          "indexed": false,
          "internalType": "uint256",
          "name": "target",
          "type": "uint256"
        }
      ],
      "name": "ExpenditureChanged",
      "type": "event"
    },
    {
      "anonymous": false,
      "inputs": [
        {
          "indexed": true,
          "internalType": "address",
          "name": "previousOwner",
          "type": "address"
        },
        {
          "indexed": true,
          "internalType": "address",
          "name": "newOwner",
          "type": "address"
        }
      ],
      "name": "OwnershipTransferred",
      "type": "event"
    },
    {
      "anonymous": false,
      "inputs": [
        {
          "indexed": false,
          "internalType": "address",
          "name": "account",
          "type": "address"
        }
      ],
      "name": "Paused",
      "type": "event"
    },
    {
      "anonymous": false,
      "inputs": [
        {
          "indexed": false,
          "internalType": "address",
          "name": "newPauser",
          "type": "address"
        }
      ],
      "name": "PauserChanged",
      "type": "event"
    },
    {
      "anonymous": false,
      "inputs": [
        {
          "indexed": false,
          "internalType": "address",
          "name": "recipient",
          "type": "address"
        },
        {
          "indexed": false,
          "internalType": "uint256",
          "name": "amount",
          "type": "uint256"
        }
      ],
      "name": "Payed",
      "type": "event"
    },
    {
      "anonymous": false,
      "inputs": [
        {
          "indexed": false,
          "internalType": "address",
          "name": "account",
          "type": "address"
        }
      ],
      "name": "Unpaused",
      "type": "event"
    },
    {
      "inputs": [
        {
          "internalType": "address",
          "name": "recipient",
          "type": "address"
        },
        {
          "internalType": "uint256",
          "name": "min",
          "type": "uint256"
        },
        {
          "internalType": "uint256",
          "name": "target",
          "type": "uint256"
        }
      ],
      "name": "changeExpenditure",
      "outputs": [],
      "stateMutability": "nonpayable",
      "type": "function"
    },
    {
      "inputs": [
        {
          "internalType": "address",
          "name": "newPauser",
          "type": "address"
        }
      ],
      "name": "changePauser",
      "outputs": [],
      "stateMutability": "nonpayable",
      "type": "function"
    },
    {
      "inputs": [],
      "name": "deficit",
      "outputs": [
        {
          "internalType": "uint256",
          "name": "",
          "type": "uint256"
        }
      ],
      "stateMutability": "view",
      "type": "function"
    },
    {
      "inputs": [
        {
          "internalType": "address",
          "name": "recipient",
          "type": "address"
        }
      ],
      "name": "deficitTo",
      "outputs": [
        {
          "internalType": "uint256",
          "name": "",
          "type": "uint256"
        }
      ],
      "stateMutability": "view",
      "type": "function"
    },
    {
      "inputs": [
        {
          "internalType": "address",
          "name": "",
          "type": "address"
        }
      ],
      "name": "expenditures",
      "outputs": [
        {
          "internalType": "address",
          "name": "recipient",
          "type": "address"
        },
        {
          "internalType": "uint256",
          "name": "min",
          "type": "uint256"
        },
        {
          "internalType": "uint256",
          "name": "target",
          "type": "uint256"
        }
      ],
      "stateMutability": "view",
      "type": "function"
    },
    {
      "inputs": [],
      "name": "getRecipients",
      "outputs": [
        {
          "internalType": "address[]",
          "name": "",
          "type": "address[]"
        }
      ],
      "stateMutability": "view",
      "type": "function"
    },
    {
      "inputs": [],
      "name": "owner",
      "outputs": [
        {
          "internalType": "address",
          "name": "",
          "type": "address"
        }
      ],
      "stateMutability": "view",
      "type": "function"
    },
    {
      "inputs": [],
      "name": "pause",
      "outputs": [],
      "stateMutability": "nonpayable",
      "type": "function"
    },
    {
      "inputs": [],
      "name": "paused",
      "outputs": [
        {
          "internalType": "bool",
          "name": "",
          "type": "bool"
        }
      ],
      "stateMutability": "view",
      "type": "function"
    },
    {
      "inputs": [],
      "name": "pauser",
      "outputs": [
        {
          "internalType": "address",
          "name": "",
          "type": "address"
        }
      ],
      "stateMutability": "view",
      "type": "function"
    },
    {
      "inputs": [],
      "name": "pay",
      "outputs": [],
      "stateMutability": "nonpayable",
      "type": "function"
    },
    {
      "inputs": [],
      "name": "renounceOwnership",
      "outputs": [],
      "stateMutability": "nonpayable",
      "type": "function"
    },
    {
      "inputs": [
        {
          "internalType": "address payable",
          "name": "recipient",
          "type": "address"
        },
        {
          "internalType": "uint256",
          "name": "amount",
          "type": "uint256"
        }
      ],
      "name": "transferETH",
      "outputs": [
        {
          "internalType": "bool",
          "name": "",
          "type": "bool"
        }
      ],
      "stateMutability": "nonpayable",
      "type": "function"
    },
    {
      "inputs": [
        {
          "internalType": "address",
          "name": "newOwner",
          "type": "address"
        }
      ],
      "name": "transferOwnership",
      "outputs": [],
      "stateMutability": "nonpayable",
      "type": "function"
    },
    {
      "inputs": [],
      "name": "unpause",
      "outputs": [],
      "stateMutability": "nonpayable",
      "type": "function"
    },
    {
      "stateMutability": "payable",
      "type": "receive"
    }
  ],
  "transactionHash": "0x7faee0a819f0970d107ef3d830d5b1c2b84c870d19eb4aeb610f88cd104dee50",
  "args": [],
  "solcInputHash": "f658676380788836205fc7664e9fc3b6",
  "bytecode": "0x6080604052600061001461011f60201b60201c565b9050806000806101000a81548173ffffffffffffffffffffffffffffffffffffffff021916908373ffffffffffffffffffffffffffffffffffffffff1602179055508073ffffffffffffffffffffffffffffffffffffffff16600073ffffffffffffffffffffffffffffffffffffffff167f8be0079c531659141344cd1fd0a4f28419497f9722a3daafe3b4186f6b6457e060405160405180910390a35060008060146101000a81548160ff0219169083151502179055506100da61012760201b60201c565b600160006101000a81548173ffffffffffffffffffffffffffffffffffffffff021916908373ffffffffffffffffffffffffffffffffffffffff160217905550610150565b600033905090565b60008060009054906101000a900473ffffffffffffffffffffffffffffffffffffffff16905090565b611f388061015f6000396000f3fe6080604052600436106100ec5760003560e01c80637b1a49091161008a578063d78d610b11610059578063d78d610b1461028f578063e21fe961146102ba578063e9cf66f1146102f9578063f2fde38b14610336576100f3565b80637b1a4909146101e55780638456cb59146102225780638da5cb5b146102395780639fd0506d14610264576100f3565b80633f4ba83a116100c65780633f4ba83a146101615780635426fa8a146101785780635c975abb146101a3578063715018a6146101ce576100f3565b80630d432021146100f85780631b9265b8146101215780632cd271e714610138576100f3565b366100f357005b600080fd5b34801561010457600080fd5b5061011f600480360361011a9190810190611625565b61035f565b005b34801561012d57600080fd5b5061013661057f565b005b34801561014457600080fd5b5061015f600480360361015a91908101906115c0565b61066f565b005b34801561016d57600080fd5b506101766107a2565b005b34801561018457600080fd5b5061018d610887565b60405161019a9190611d79565b60405180910390f35b3480156101af57600080fd5b506101b86108e6565b6040516101c59190611bfc565b60405180910390f35b3480156101da57600080fd5b506101e36108fc565b005b3480156101f157600080fd5b5061020c600480360361020791908101906115e9565b610a51565b6040516102199190611bfc565b60405180910390f35b34801561022e57600080fd5b50610237610b3a565b005b34801561024557600080fd5b5061024e610c1f565b60405161025b9190611b44565b60405180910390f35b34801561027057600080fd5b50610279610c48565b6040516102869190611b44565b60405180910390f35b34801561029b57600080fd5b506102a4610c6e565b6040516102b19190611bda565b60405180910390f35b3480156102c657600080fd5b506102e160048036036102dc91908101906115c0565b610d32565b6040516102f093929190611ba3565b60405180910390f35b34801561030557600080fd5b50610320600480360361031b91908101906115c0565b610d7c565b60405161032d9190611d79565b60405180910390f35b34801561034257600080fd5b5061035d600480360361035891908101906115c0565b610eaf565b005b610367611073565b73ffffffffffffffffffffffffffffffffffffffff166000809054906101000a900473ffffffffffffffffffffffffffffffffffffffff1673ffffffffffffffffffffffffffffffffffffffff16146103f5576040517f08c379a00000000000000000000000000000000000000000000000000000000081526004016103ec90611d39565b60405180910390fd5b80821115610438576040517f08c379a000000000000000000000000000000000000000000000000000000000815260040161042f90611d59565b60405180910390fd5b60405180606001604052808473ffffffffffffffffffffffffffffffffffffffff16815260200183815260200182815250600260008573ffffffffffffffffffffffffffffffffffffffff1673ffffffffffffffffffffffffffffffffffffffff16815260200190815260200160002060008201518160000160006101000a81548173ffffffffffffffffffffffffffffffffffffffff021916908373ffffffffffffffffffffffffffffffffffffffff160217905550602082015181600101556040820151816002015590505060008111156105295761052383600361107b90919063ffffffff16565b5061053f565b61053d8360036110ab90919063ffffffff16565b505b7f5c315648fddc891fd463694f00b02e1b8e3a1847790fd85887fb41f7c28fb1ca83838360405161057293929190611ba3565b60405180910390a1505050565b60008090505b61058f60036110db565b81101561066c57600047905060006105b18360036110f090919063ffffffff16565b905060006105be82610d7c565b905060008114806105ce57508083105b156105db5750505061065f565b8173ffffffffffffffffffffffffffffffffffffffff166108fc829081150290604051600060405180830381858888f19350505050158015610621573d6000803e3d6000fd5b507f7be9078cfa949e4b9e15888282e2a07a7fae4958503c18c81db93c5d413524978282604051610653929190611b7a565b60405180910390a15050505b8080600101915050610585565b50565b610677611073565b73ffffffffffffffffffffffffffffffffffffffff166000809054906101000a900473ffffffffffffffffffffffffffffffffffffffff1673ffffffffffffffffffffffffffffffffffffffff1614610705576040517f08c379a00000000000000000000000000000000000000000000000000000000081526004016106fc90611d39565b60405180910390fd5b80600160006101000a81548173ffffffffffffffffffffffffffffffffffffffff021916908373ffffffffffffffffffffffffffffffffffffffff1602179055507fb80482a293ca2e013eda8683c9bd7fc8347cfdaeea5ede58cba46df502c2a604600160009054906101000a900473ffffffffffffffffffffffffffffffffffffffff166040516107979190611b44565b60405180910390a150565b6107aa611073565b73ffffffffffffffffffffffffffffffffffffffff16600160009054906101000a900473ffffffffffffffffffffffffffffffffffffffff1673ffffffffffffffffffffffffffffffffffffffff16148061083e5750610808611073565b73ffffffffffffffffffffffffffffffffffffffff16610826610c1f565b73ffffffffffffffffffffffffffffffffffffffff16145b61087d576040517f08c379a000000000000000000000000000000000000000000000000000000000815260040161087490611cb9565b60405180910390fd5b61088561110a565b565b60008060008090505b61089a60036110db565b8110156108de576108cf6108c06108bb8360036110f090919063ffffffff16565b610d7c565b836111b390919063ffffffff16565b91508080600101915050610890565b508091505090565b60008060149054906101000a900460ff16905090565b610904611073565b73ffffffffffffffffffffffffffffffffffffffff166000809054906101000a900473ffffffffffffffffffffffffffffffffffffffff1673ffffffffffffffffffffffffffffffffffffffff1614610992576040517f08c379a000000000000000000000000000000000000000000000000000000000815260040161098990611d39565b60405180910390fd5b600073ffffffffffffffffffffffffffffffffffffffff166000809054906101000a900473ffffffffffffffffffffffffffffffffffffffff1673ffffffffffffffffffffffffffffffffffffffff167f8be0079c531659141344cd1fd0a4f28419497f9722a3daafe3b4186f6b6457e060405160405180910390a360008060006101000a81548173ffffffffffffffffffffffffffffffffffffffff021916908373ffffffffffffffffffffffffffffffffffffffff160217905550565b6000610a5b611073565b73ffffffffffffffffffffffffffffffffffffffff166000809054906101000a900473ffffffffffffffffffffffffffffffffffffffff1673ffffffffffffffffffffffffffffffffffffffff1614610ae9576040517f08c379a0000000000000000000000000000000000000000000000000000000008152600401610ae090611d39565b60405180910390fd5b8273ffffffffffffffffffffffffffffffffffffffff166108fc839081150290604051600060405180830381858888f19350505050158015610b2f573d6000803e3d6000fd5b506001905092915050565b610b42611073565b73ffffffffffffffffffffffffffffffffffffffff16600160009054906101000a900473ffffffffffffffffffffffffffffffffffffffff1673ffffffffffffffffffffffffffffffffffffffff161480610bd65750610ba0611073565b73ffffffffffffffffffffffffffffffffffffffff16610bbe610c1f565b73ffffffffffffffffffffffffffffffffffffffff16145b610c15576040517f08c379a0000000000000000000000000000000000000000000000000000000008152600401610c0c90611c99565b60405180910390fd5b610c1d611208565b565b60008060009054906101000a900473ffffffffffffffffffffffffffffffffffffffff16905090565b600160009054906101000a900473ffffffffffffffffffffffffffffffffffffffff1681565b606080610c7b60036110db565b604051908082528060200260200182016040528015610ca95781602001602082028038833980820191505090505b50905060008090505b610cbc60036110db565b811015610d2a57610cd78160036110f090919063ffffffff16565b828281518110610ce357fe5b602002602001019073ffffffffffffffffffffffffffffffffffffffff16908173ffffffffffffffffffffffffffffffffffffffff16815250508080600101915050610cb2565b508091505090565b60026020528060005260406000206000915090508060000160009054906101000a900473ffffffffffffffffffffffffffffffffffffffff16908060010154908060020154905083565b6000610d928260036112b390919063ffffffff16565b610dd1576040517f08c379a0000000000000000000000000000000000000000000000000000000008152600401610dc890611cf9565b60405180910390fd5b600260008373ffffffffffffffffffffffffffffffffffffffff1673ffffffffffffffffffffffffffffffffffffffff168152602001908152602001600020600101548273ffffffffffffffffffffffffffffffffffffffff16311115610e3b5760009050610eaa565b610ea78273ffffffffffffffffffffffffffffffffffffffff1631600260008573ffffffffffffffffffffffffffffffffffffffff1673ffffffffffffffffffffffffffffffffffffffff168152602001908152602001600020600201546112e390919063ffffffff16565b90505b919050565b610eb7611073565b73ffffffffffffffffffffffffffffffffffffffff166000809054906101000a900473ffffffffffffffffffffffffffffffffffffffff1673ffffffffffffffffffffffffffffffffffffffff1614610f45576040517f08c379a0000000000000000000000000000000000000000000000000000000008152600401610f3c90611d39565b60405180910390fd5b600073ffffffffffffffffffffffffffffffffffffffff168173ffffffffffffffffffffffffffffffffffffffff161415610fb5576040517f08c379a0000000000000000000000000000000000000000000000000000000008152600401610fac90611c79565b60405180910390fd5b8073ffffffffffffffffffffffffffffffffffffffff166000809054906101000a900473ffffffffffffffffffffffffffffffffffffffff1673ffffffffffffffffffffffffffffffffffffffff167f8be0079c531659141344cd1fd0a4f28419497f9722a3daafe3b4186f6b6457e060405160405180910390a3806000806101000a81548173ffffffffffffffffffffffffffffffffffffffff021916908373ffffffffffffffffffffffffffffffffffffffff16021790555050565b600033905090565b60006110a3836000018373ffffffffffffffffffffffffffffffffffffffff1660001b61132d565b905092915050565b60006110d3836000018373ffffffffffffffffffffffffffffffffffffffff1660001b61139d565b905092915050565b60006110e982600001611485565b9050919050565b60006110ff8360000183611496565b60001c905092915050565b600060149054906101000a900460ff16611159576040517f08c379a000000000000000000000000000000000000000000000000000000000815260040161115090611c59565b60405180910390fd5b60008060146101000a81548160ff0219169083151502179055507f5db9ee0a495bf2e6ff9c91a7834c1ba4fdd244a5e8aa4e537bd38aeae4b073aa61119c611073565b6040516111a99190611b5f565b60405180910390a1565b6000808284019050838110156111fe576040517f08c379a00000000000000000000000000000000000000000000000000000000081526004016111f590611cd9565b60405180910390fd5b8091505092915050565b600060149054906101000a900460ff1615611258576040517f08c379a000000000000000000000000000000000000000000000000000000000815260040161124f90611d19565b60405180910390fd5b6001600060146101000a81548160ff0219169083151502179055507f62e78cea01bee320cd4e420270b5ea74000d11b0c9f74754ebdbfc544b05a25861129c611073565b6040516112a99190611b5f565b60405180910390a1565b60006112db836000018373ffffffffffffffffffffffffffffffffffffffff1660001b611503565b905092915050565b600061132583836040518060400160405280601e81526020017f536166654d6174683a207375627472616374696f6e206f766572666c6f770000815250611526565b905092915050565b60006113398383611503565b611392578260000182908060018154018082558091505060019003906000526020600020016000909190919091505582600001805490508360010160008481526020019081526020016000208190555060019050611397565b600090505b92915050565b6000808360010160008481526020019081526020016000205490506000811461147957600060018203905060006001866000018054905003905060008660000182815481106113e857fe5b906000526020600020015490508087600001848154811061140557fe5b906000526020600020018190555060018301876001016000838152602001908152602001600020819055508660000180548061143d57fe5b6001900381819060005260206000200160009055905586600101600087815260200190815260200160002060009055600194505050505061147f565b60009150505b92915050565b600081600001805490509050919050565b6000818360000180549050116114e1576040517f08c379a00000000000000000000000000000000000000000000000000000000081526004016114d890611c39565b60405180910390fd5b8260000182815481106114f057fe5b9060005260206000200154905092915050565b600080836001016000848152602001908152602001600020541415905092915050565b600083831115829061156e576040517f08c379a00000000000000000000000000000000000000000000000000000000081526004016115659190611c17565b60405180910390fd5b5060008385039050809150509392505050565b60008135905061159081611ebd565b92915050565b6000813590506115a581611ed4565b92915050565b6000813590506115ba81611eeb565b92915050565b6000602082840312156115d257600080fd5b60006115e084828501611581565b91505092915050565b600080604083850312156115fc57600080fd5b600061160a85828601611596565b925050602061161b858286016115ab565b9150509250929050565b60008060006060848603121561163a57600080fd5b600061164886828701611581565b9350506020611659868287016115ab565b925050604061166a868287016115ab565b9150509250925092565b6000611680838361169b565b60208301905092915050565b61169581611e43565b82525050565b6116a481611de9565b82525050565b6116b381611de9565b82525050565b60006116c482611da4565b6116ce8185611dc7565b93506116d983611d94565b8060005b8381101561170a5781516116f18882611674565b97506116fc83611dba565b9250506001810190506116dd565b5085935050505092915050565b61172081611e0d565b82525050565b600061173182611daf565b61173b8185611dd8565b935061174b818560208601611e79565b61175481611eac565b840191505092915050565b600061176c602283611dd8565b91507f456e756d657261626c655365743a20696e646578206f7574206f6620626f756e60008301527f64730000000000000000000000000000000000000000000000000000000000006020830152604082019050919050565b60006117d2601483611dd8565b91507f5061757361626c653a206e6f74207061757365640000000000000000000000006000830152602082019050919050565b6000611812602683611dd8565b91507f4f776e61626c653a206e6577206f776e657220697320746865207a65726f206160008301527f64647265737300000000000000000000000000000000000000000000000000006020830152604082019050919050565b6000611878604183611dd8565b91507f4f776e61626c655061757361626c653a3a70617573653a206f6e6c792070617560008301527f73657220616e64206f776e6572206d75737420706175736520636f6e7472616360208301527f74000000000000000000000000000000000000000000000000000000000000006040830152606082019050919050565b6000611904604583611dd8565b91507f4f776e61626c655061757361626c653a3a756e70617573653a206f6e6c79207060008301527f617573657220616e64206f776e6572206d75737420756e706175736520636f6e60208301527f74726163740000000000000000000000000000000000000000000000000000006040830152606082019050919050565b6000611990601b83611dd8565b91507f536166654d6174683a206164646974696f6e206f766572666c6f7700000000006000830152602082019050919050565b60006119d0603483611dd8565b91507f4275646765743a3a64656669636974546f3a20726563697069656e74206e6f7460008301527f20696e20657870656e646974757265206974656d0000000000000000000000006020830152604082019050919050565b6000611a36601083611dd8565b91507f5061757361626c653a20706175736564000000000000000000000000000000006000830152602082019050919050565b6000611a76602083611dd8565b91507f4f776e61626c653a2063616c6c6572206973206e6f7420746865206f776e65726000830152602082019050919050565b6000611ab6605183611dd8565b91507f4275646765743a3a6368616e6765457870656e6469747572653a206d696e696d60008301527f616c2062616c616e63652073686f756c64206265206c657373206f722065717560208301527f616c207461726765742062616c616e63650000000000000000000000000000006040830152606082019050919050565b611b3e81611e39565b82525050565b6000602082019050611b5960008301846116aa565b92915050565b6000602082019050611b74600083018461168c565b92915050565b6000604082019050611b8f60008301856116aa565b611b9c6020830184611b35565b9392505050565b6000606082019050611bb860008301866116aa565b611bc56020830185611b35565b611bd26040830184611b35565b949350505050565b60006020820190508181036000830152611bf481846116b9565b905092915050565b6000602082019050611c116000830184611717565b92915050565b60006020820190508181036000830152611c318184611726565b905092915050565b60006020820190508181036000830152611c528161175f565b9050919050565b60006020820190508181036000830152611c72816117c5565b9050919050565b60006020820190508181036000830152611c9281611805565b9050919050565b60006020820190508181036000830152611cb28161186b565b9050919050565b60006020820190508181036000830152611cd2816118f7565b9050919050565b60006020820190508181036000830152611cf281611983565b9050919050565b60006020820190508181036000830152611d12816119c3565b9050919050565b60006020820190508181036000830152611d3281611a29565b9050919050565b60006020820190508181036000830152611d5281611a69565b9050919050565b60006020820190508181036000830152611d7281611aa9565b9050919050565b6000602082019050611d8e6000830184611b35565b92915050565b6000819050602082019050919050565b600081519050919050565b600081519050919050565b6000602082019050919050565b600082825260208201905092915050565b600082825260208201905092915050565b6000611df482611e19565b9050919050565b6000611e0682611e19565b9050919050565b60008115159050919050565b600073ffffffffffffffffffffffffffffffffffffffff82169050919050565b6000819050919050565b6000611e4e82611e55565b9050919050565b6000611e6082611e67565b9050919050565b6000611e7282611e19565b9050919050565b60005b83811015611e97578082015181840152602081019050611e7c565b83811115611ea6576000848401525b50505050565b6000601f19601f8301169050919050565b611ec681611de9565b8114611ed157600080fd5b50565b611edd81611dfb565b8114611ee857600080fd5b50565b611ef481611e39565b8114611eff57600080fd5b5056fea264697066735822122023b0c765d181ec1a61558c06f8a4202f0f51fb09f082b7a32c216ccc4376577c64736f6c63430006020033",
  "devdoc": {
    "methods": {
      "changeExpenditure(address,uint256,uint256)": {
        "params": {
          "min": "Minimal balance for payment.",
          "recipient": "Recipient address.",
          "target": "Target balance."
        }
      },
      "changePauser(address)": {
        "params": {
          "newPauser": "Address of new pauser account."
        }
      },
      "deficitTo(address)": {
        "params": {
          "recipient": "Target recipient."
        },
        "returns": {
          "_0": "Balance deficit of recipient."
        }
      },
      "owner()": {
        "details": "Returns the address of the current owner."
      },
      "paused()": {
        "details": "Returns true if the contract is paused, and false otherwise."
      },
      "renounceOwnership()": {
        "details": "Leaves the contract without owner. It will not be possible to call `onlyOwner` functions anymore. Can only be called by the current owner.     * NOTE: Renouncing ownership will leave the contract without an owner, thereby removing any functionality that is only available to the owner."
      },
      "transferETH(address,uint256)": {
        "params": {
          "amount": "Transfer amount.",
          "recipient": "Recipient."
        }
      },
      "transferOwnership(address)": {
        "details": "Transfers ownership of the contract to a new account (`newOwner`). Can only be called by the current owner."
      }
    }
  },
  "userdoc": {
    "methods": {
      "changeExpenditure(address,uint256,uint256)": {
        "notice": "Change expenditure item."
      },
      "changePauser(address)": {
        "notice": "Change pauser account."
      },
      "deficit()": {
        "notice": "Return summary balance deficit of all recipients."
      },
      "deficitTo(address)": {
        "notice": "Return balance deficit of recipient."
      },
      "getRecipients()": {
        "notice": "Return all recipients addresses."
      },
      "pause()": {
        "notice": "Triggers stopped state."
      },
      "pay()": {
        "notice": "Pay ETH to all recipients with balance deficit."
      },
      "transferETH(address,uint256)": {
        "notice": "Transfer ETH to recipient."
      },
      "unpause()": {
        "notice": "Returns to normal state."
      }
    }
  },
  "storageLayout": {
    "storage": [
      {
        "astId": 29,
        "contract": "contracts/Budget.sol:Budget",
        "label": "_owner",
        "offset": 0,
        "slot": "0",
        "type": "t_address"
      },
      {
        "astId": 1661,
        "contract": "contracts/Budget.sol:Budget",
        "label": "_paused",
        "offset": 20,
        "slot": "0",
        "type": "t_bool"
      },
      {
        "astId": 10716,
        "contract": "contracts/Budget.sol:Budget",
        "label": "pauser",
        "offset": 0,
        "slot": "1",
        "type": "t_address"
      },
      {
        "astId": 3079,
        "contract": "contracts/Budget.sol:Budget",
        "label": "expenditures",
        "offset": 0,
        "slot": "2",
        "type": "t_mapping(t_address,t_struct(Expenditure)3075_storage)"
      },
      {
        "astId": 3081,
        "contract": "contracts/Budget.sol:Budget",
        "label": "recipients",
        "offset": 0,
        "slot": "3",
        "type": "t_struct(AddressSet)1452_storage"
      }
    ],
    "types": {
      "t_address": {
        "encoding": "inplace",
        "label": "address",
        "numberOfBytes": "20"
      },
      "t_array(t_bytes32)dyn_storage": {
        "base": "t_bytes32",
        "encoding": "dynamic_array",
        "label": "bytes32[]",
        "numberOfBytes": "32"
      },
      "t_bool": {
        "encoding": "inplace",
        "label": "bool",
        "numberOfBytes": "1"
      },
      "t_bytes32": {
        "encoding": "inplace",
        "label": "bytes32",
        "numberOfBytes": "32"
      },
      "t_mapping(t_address,t_struct(Expenditure)3075_storage)": {
        "encoding": "mapping",
        "key": "t_address",
        "label": "mapping(address => struct Budget.Expenditure)",
        "numberOfBytes": "32",
        "value": "t_struct(Expenditure)3075_storage"
      },
      "t_mapping(t_bytes32,t_uint256)": {
        "encoding": "mapping",
        "key": "t_bytes32",
        "label": "mapping(bytes32 => uint256)",
        "numberOfBytes": "32",
        "value": "t_uint256"
      },
      "t_struct(AddressSet)1452_storage": {
        "encoding": "inplace",
        "label": "struct EnumerableSet.AddressSet",
        "members": [
          {
            "astId": 1451,
            "contract": "contracts/Budget.sol:Budget",
            "label": "_inner",
            "offset": 0,
            "slot": "0",
            "type": "t_struct(Set)1277_storage"
          }
        ],
        "numberOfBytes": "64"
      },
      "t_struct(Expenditure)3075_storage": {
        "encoding": "inplace",
        "label": "struct Budget.Expenditure",
        "members": [
          {
            "astId": 3070,
            "contract": "contracts/Budget.sol:Budget",
            "label": "recipient",
            "offset": 0,
            "slot": "0",
            "type": "t_address"
          },
          {
            "astId": 3072,
            "contract": "contracts/Budget.sol:Budget",
            "label": "min",
            "offset": 0,
            "slot": "1",
            "type": "t_uint256"
          },
          {
            "astId": 3074,
            "contract": "contracts/Budget.sol:Budget",
            "label": "target",
            "offset": 0,
            "slot": "2",
            "type": "t_uint256"
          }
        ],
        "numberOfBytes": "96"
      },
      "t_struct(Set)1277_storage": {
        "encoding": "inplace",
        "label": "struct EnumerableSet.Set",
        "members": [
          {
            "astId": 1272,
            "contract": "contracts/Budget.sol:Budget",
            "label": "_values",
            "offset": 0,
            "slot": "0",
            "type": "t_array(t_bytes32)dyn_storage"
          },
          {
            "astId": 1276,
            "contract": "contracts/Budget.sol:Budget",
            "label": "_indexes",
            "offset": 0,
            "slot": "1",
            "type": "t_mapping(t_bytes32,t_uint256)"
          }
        ],
        "numberOfBytes": "64"
      },
      "t_uint256": {
        "encoding": "inplace",
        "label": "uint256",
        "numberOfBytes": "32"
      }
    }
  }
}