{
  "address": "0xa968A34739E83eF9302d7d299D753e7574BBafA8",
  "abi": [
    {
      "anonymous": false,
      "inputs": [
        {
          "indexed": true,
          "internalType": "address",
          "name": "previousOwner",
          "type": "address"
        },
        {
          "indexed": true,
          "internalType": "address",
          "name": "newOwner",
          "type": "address"
        }
      ],
      "name": "OwnershipTransferred",
      "type": "event"
    },
    {
      "anonymous": false,
      "inputs": [
        {
          "indexed": false,
          "internalType": "string",
          "name": "isin",
          "type": "string"
        },
        {
          "indexed": false,
          "internalType": "string",
          "name": "prop",
          "type": "string"
        },
        {
          "indexed": false,
          "internalType": "bytes",
          "name": "value",
          "type": "bytes"
        }
      ],
      "name": "Update",
      "type": "event"
    },
    {
      "inputs": [
        {
          "internalType": "string",
          "name": "isin",
          "type": "string"
        },
        {
          "internalType": "string",
          "name": "prop",
          "type": "string"
        }
      ],
      "name": "get",
      "outputs": [
        {
          "internalType": "bytes",
          "name": "",
          "type": "bytes"
        }
      ],
      "stateMutability": "view",
      "type": "function"
    },
    {
      "inputs": [],
      "name": "owner",
      "outputs": [
        {
          "internalType": "address",
          "name": "",
          "type": "address"
        }
      ],
      "stateMutability": "view",
      "type": "function"
    },
    {
      "inputs": [
        {
          "internalType": "string",
          "name": "isin",
          "type": "string"
        },
        {
          "internalType": "string",
          "name": "prop",
          "type": "string"
        },
        {
          "internalType": "bytes",
          "name": "value",
          "type": "bytes"
        }
      ],
      "name": "put",
      "outputs": [],
      "stateMutability": "nonpayable",
      "type": "function"
    },
    {
      "inputs": [],
      "name": "renounceOwnership",
      "outputs": [],
      "stateMutability": "nonpayable",
      "type": "function"
    },
    {
      "inputs": [
        {
          "internalType": "address",
          "name": "newOwner",
          "type": "address"
        }
      ],
      "name": "transferOwnership",
      "outputs": [],
      "stateMutability": "nonpayable",
      "type": "function"
    }
  ],
  "transactionHash": "0xf7e2cde4cd9d981a8f3918c6e43987b58776a63d682141c430e4ea449e804afb",
  "args": [],
  "solcInputHash": "f658676380788836205fc7664e9fc3b6",
  "bytecode": "0x608060405260006100146100b760201b60201c565b9050806000806101000a81548173ffffffffffffffffffffffffffffffffffffffff021916908373ffffffffffffffffffffffffffffffffffffffff1602179055508073ffffffffffffffffffffffffffffffffffffffff16600073ffffffffffffffffffffffffffffffffffffffff167f8be0079c531659141344cd1fd0a4f28419497f9722a3daafe3b4186f6b6457e060405160405180910390a3506100bf565b600033905090565b610b0e806100ce6000396000f3fe608060405234801561001057600080fd5b50600436106100575760003560e01c80633e10510b1461005c578063715018a6146101a35780638da5cb5b146101ad578063f2fde38b146101f7578063fc8d11861461023b575b600080fd5b6101286004803603604081101561007257600080fd5b810190808035906020019064010000000081111561008f57600080fd5b8201836020820111156100a157600080fd5b803590602001918460018302840111640100000000831117156100c357600080fd5b9091929391929390803590602001906401000000008111156100e457600080fd5b8201836020820111156100f657600080fd5b8035906020019184600183028401116401000000008311171561011857600080fd5b909192939192939050505061035e565b6040518080602001828103825283818151815260200191508051906020019080838360005b8381101561016857808201518184015260208101905061014d565b50505050905090810190601f1680156101955780820380516001836020036101000a031916815260200191505b509250505060405180910390f35b6101ab61044f565b005b6101b56105d7565b604051808273ffffffffffffffffffffffffffffffffffffffff1673ffffffffffffffffffffffffffffffffffffffff16815260200191505060405180910390f35b6102396004803603602081101561020d57600080fd5b81019080803573ffffffffffffffffffffffffffffffffffffffff169060200190929190505050610600565b005b61035c6004803603606081101561025157600080fd5b810190808035906020019064010000000081111561026e57600080fd5b82018360208201111561028057600080fd5b803590602001918460018302840111640100000000831117156102a257600080fd5b9091929391929390803590602001906401000000008111156102c357600080fd5b8201836020820111156102d557600080fd5b803590602001918460018302840111640100000000831117156102f757600080fd5b90919293919293908035906020019064010000000081111561031857600080fd5b82018360208201111561032a57600080fd5b8035906020019184600183028401116401000000008311171561034c57600080fd5b909192939192939050505061080d565b005b6060600185856040518083838082843780830192505050925050509081526020016040518091039020838360405180838380828437808301925050509250505090815260200160405180910390208054600181600116156101000203166002900480601f0160208091040260200160405190810160405280929190818152602001828054600181600116156101000203166002900480156104405780601f1061041557610100808354040283529160200191610440565b820191906000526020600020905b81548152906001019060200180831161042357829003601f168201915b50505050509050949350505050565b610457610a05565b73ffffffffffffffffffffffffffffffffffffffff166000809054906101000a900473ffffffffffffffffffffffffffffffffffffffff1673ffffffffffffffffffffffffffffffffffffffff1614610518576040517f08c379a00000000000000000000000000000000000000000000000000000000081526004018080602001828103825260208152602001807f4f776e61626c653a2063616c6c6572206973206e6f7420746865206f776e657281525060200191505060405180910390fd5b600073ffffffffffffffffffffffffffffffffffffffff166000809054906101000a900473ffffffffffffffffffffffffffffffffffffffff1673ffffffffffffffffffffffffffffffffffffffff167f8be0079c531659141344cd1fd0a4f28419497f9722a3daafe3b4186f6b6457e060405160405180910390a360008060006101000a81548173ffffffffffffffffffffffffffffffffffffffff021916908373ffffffffffffffffffffffffffffffffffffffff160217905550565b60008060009054906101000a900473ffffffffffffffffffffffffffffffffffffffff16905090565b610608610a05565b73ffffffffffffffffffffffffffffffffffffffff166000809054906101000a900473ffffffffffffffffffffffffffffffffffffffff1673ffffffffffffffffffffffffffffffffffffffff16146106c9576040517f08c379a00000000000000000000000000000000000000000000000000000000081526004018080602001828103825260208152602001807f4f776e61626c653a2063616c6c6572206973206e6f7420746865206f776e657281525060200191505060405180910390fd5b600073ffffffffffffffffffffffffffffffffffffffff168173ffffffffffffffffffffffffffffffffffffffff16141561074f576040517f08c379a0000000000000000000000000000000000000000000000000000000008152600401808060200182810382526026815260200180610ab36026913960400191505060405180910390fd5b8073ffffffffffffffffffffffffffffffffffffffff166000809054906101000a900473ffffffffffffffffffffffffffffffffffffffff1673ffffffffffffffffffffffffffffffffffffffff167f8be0079c531659141344cd1fd0a4f28419497f9722a3daafe3b4186f6b6457e060405160405180910390a3806000806101000a81548173ffffffffffffffffffffffffffffffffffffffff021916908373ffffffffffffffffffffffffffffffffffffffff16021790555050565b610815610a05565b73ffffffffffffffffffffffffffffffffffffffff166000809054906101000a900473ffffffffffffffffffffffffffffffffffffffff1673ffffffffffffffffffffffffffffffffffffffff16146108d6576040517f08c379a00000000000000000000000000000000000000000000000000000000081526004018080602001828103825260208152602001807f4f776e61626c653a2063616c6c6572206973206e6f7420746865206f776e657281525060200191505060405180910390fd5b8181600188886040518083838082843780830192505050925050509081526020016040518091039020868660405180838380828437808301925050509250505090815260200160405180910390209190610931929190610a0d565b507f5729627af84ffe68a8fdd1651399993e77c5ffc76e47b43c6999d01776c52bbd8686868686866040518080602001806020018060200184810384528a8a82818152602001925080828437600081840152601f19601f8201169050808301925050508481038352888882818152602001925080828437600081840152601f19601f8201169050808301925050508481038252868682818152602001925080828437600081840152601f19601f820116905080830192505050995050505050505050505060405180910390a1505050505050565b600033905090565b828054600181600116156101000203166002900490600052602060002090601f016020900481019282601f10610a4e57803560ff1916838001178555610a7c565b82800160010185558215610a7c579182015b82811115610a7b578235825591602001919060010190610a60565b5b509050610a899190610a8d565b5090565b610aaf91905b80821115610aab576000816000905550600101610a93565b5090565b9056fe4f776e61626c653a206e6577206f776e657220697320746865207a65726f2061646472657373a2646970667358221220a06ff3e2d2c67087c09be8f5361e196015af6676089eba7396f92c2a9172da7764736f6c63430006020033",
  "devdoc": {
    "methods": {
      "owner()": {
        "details": "Returns the address of the current owner."
      },
      "renounceOwnership()": {
        "details": "Leaves the contract without owner. It will not be possible to call `onlyOwner` functions anymore. Can only be called by the current owner.     * NOTE: Renouncing ownership will leave the contract without an owner, thereby removing any functionality that is only available to the owner."
      },
      "transferOwnership(address)": {
        "details": "Transfers ownership of the contract to a new account (`newOwner`). Can only be called by the current owner."
      }
    }
  },
  "userdoc": {
    "methods": {}
  },
  "storageLayout": {
    "storage": [
      {
        "astId": 29,
        "contract": "contracts/oracle/SecurityOracle.sol:SecurityOracle",
        "label": "_owner",
        "offset": 0,
        "slot": "0",
        "type": "t_address"
      },
      {
        "astId": 8450,
        "contract": "contracts/oracle/SecurityOracle.sol:SecurityOracle",
        "label": "data",
        "offset": 0,
        "slot": "1",
        "type": "t_mapping(t_string_memory,t_mapping(t_string_memory,t_bytes_storage))"
      }
    ],
    "types": {
      "t_address": {
        "encoding": "inplace",
        "label": "address",
        "numberOfBytes": "20"
      },
      "t_bytes_storage": {
        "encoding": "bytes",
        "label": "bytes",
        "numberOfBytes": "32"
      },
      "t_mapping(t_string_memory,t_bytes_storage)": {
        "encoding": "mapping",
        "key": "t_string_memory",
        "label": "mapping(string => bytes)",
        "numberOfBytes": "32",
        "value": "t_bytes_storage"
      },
      "t_mapping(t_string_memory,t_mapping(t_string_memory,t_bytes_storage))": {
        "encoding": "mapping",
        "key": "t_string_memory",
        "label": "mapping(string => mapping(string => bytes))",
        "numberOfBytes": "32",
        "value": "t_mapping(t_string_memory,t_bytes_storage)"
      },
      "t_string_memory": {
        "encoding": "bytes",
        "label": "string",
        "numberOfBytes": "32"
      }
    }
  }
}