{
  "_format": "hh-sol-artifact-1",
  "contractName": "Market",
  "sourceName": "contracts/Market.sol",
  "abi": [
    {
      "inputs": [
        {
          "internalType": "address",
          "name": "_cumulative",
          "type": "address"
        },
        {
          "internalType": "address",
          "name": "_abt",
          "type": "address"
        },
        {
          "internalType": "address",
          "name": "_bond",
          "type": "address"
        },
        {
          "internalType": "address",
          "name": "_uniswapRouter",
          "type": "address"
        },
        {
          "internalType": "address",
          "name": "_priceOracle",
          "type": "address"
        }
      ],
      "stateMutability": "nonpayable",
      "type": "constructor"
    },
    {
      "anonymous": false,
      "inputs": [
        {
          "indexed": false,
          "internalType": "uint256",
          "name": "newPrice",
          "type": "uint256"
        }
      ],
      "name": "BondPriceChanged",
      "type": "event"
    },
    {
      "anonymous": false,
      "inputs": [
        {
          "indexed": false,
          "internalType": "address",
          "name": "customer",
          "type": "address"
        },
        {
          "indexed": false,
          "internalType": "address",
          "name": "product",
          "type": "address"
        },
        {
          "indexed": false,
          "internalType": "address",
          "name": "token",
          "type": "address"
        },
        {
          "indexed": false,
          "internalType": "uint256",
          "name": "amount",
          "type": "uint256"
        },
        {
          "indexed": false,
          "internalType": "uint256",
          "name": "buy",
          "type": "uint256"
        }
      ],
      "name": "Buy",
      "type": "event"
    },
    {
      "anonymous": false,
      "inputs": [
        {
          "indexed": false,
          "internalType": "address",
          "name": "newToken",
          "type": "address"
        }
      ],
      "name": "CumulativeChanged",
      "type": "event"
    },
    {
      "anonymous": false,
      "inputs": [
        {
          "indexed": true,
          "internalType": "address",
          "name": "previousOwner",
          "type": "address"
        },
        {
          "indexed": true,
          "internalType": "address",
          "name": "newOwner",
          "type": "address"
        }
      ],
      "name": "OwnershipTransferred",
      "type": "event"
    },
    {
      "anonymous": false,
      "inputs": [
        {
          "indexed": false,
          "internalType": "address",
          "name": "account",
          "type": "address"
        }
      ],
      "name": "Paused",
      "type": "event"
    },
    {
      "anonymous": false,
      "inputs": [
        {
          "indexed": false,
          "internalType": "address",
          "name": "newPauser",
          "type": "address"
        }
      ],
      "name": "PauserChanged",
      "type": "event"
    },
    {
      "anonymous": false,
      "inputs": [
        {
          "indexed": false,
          "internalType": "address",
          "name": "newPriceOracle",
          "type": "address"
        }
      ],
      "name": "PriceOracleChanged",
      "type": "event"
    },
    {
      "anonymous": false,
      "inputs": [
        {
          "indexed": false,
          "internalType": "address",
          "name": "token",
          "type": "address"
        },
        {
          "indexed": false,
          "internalType": "string",
          "name": "symbol",
          "type": "string"
        }
      ],
      "name": "TokenAllowed",
      "type": "event"
    },
    {
      "anonymous": false,
      "inputs": [
        {
          "indexed": false,
          "internalType": "address",
          "name": "token",
          "type": "address"
        }
      ],
      "name": "TokenDenied",
      "type": "event"
    },
    {
      "anonymous": false,
      "inputs": [
        {
          "indexed": false,
          "internalType": "address",
          "name": "newUniswapRouter",
          "type": "address"
        }
      ],
      "name": "UniswapRouterChanged",
      "type": "event"
    },
    {
      "anonymous": false,
      "inputs": [
        {
          "indexed": false,
          "internalType": "address",
          "name": "account",
          "type": "address"
        }
      ],
      "name": "Unpaused",
      "type": "event"
    },
    {
      "anonymous": false,
      "inputs": [
        {
          "indexed": false,
          "internalType": "address",
          "name": "recipient",
          "type": "address"
        },
        {
          "indexed": false,
          "internalType": "address",
          "name": "token",
          "type": "address"
        },
        {
          "indexed": false,
          "internalType": "uint256",
          "name": "amount",
          "type": "uint256"
        }
      ],
      "name": "Withdrawal",
      "type": "event"
    },
    {
      "inputs": [],
      "name": "PRICE_DECIMALS",
      "outputs": [
        {
          "internalType": "uint256",
          "name": "",
          "type": "uint256"
        }
      ],
      "stateMutability": "view",
      "type": "function"
    },
    {
      "inputs": [],
      "name": "abt",
      "outputs": [
        {
          "internalType": "contract ABT",
          "name": "",
          "type": "address"
        }
      ],
      "stateMutability": "view",
      "type": "function"
    },
    {
      "inputs": [
        {
          "internalType": "address",
          "name": "token",
          "type": "address"
        },
        {
          "internalType": "string",
          "name": "symbol",
          "type": "string"
        }
      ],
      "name": "allowToken",
      "outputs": [],
      "stateMutability": "nonpayable",
      "type": "function"
    },
    {
      "inputs": [],
      "name": "bond",
      "outputs": [
        {
          "internalType": "contract Bond",
          "name": "",
          "type": "address"
        }
      ],
      "stateMutability": "view",
      "type": "function"
    },
    {
      "inputs": [],
      "name": "bondPrice",
      "outputs": [
        {
          "internalType": "uint256",
          "name": "",
          "type": "uint256"
        }
      ],
      "stateMutability": "view",
      "type": "function"
    },
    {
      "inputs": [
        {
          "internalType": "address",
          "name": "token",
          "type": "address"
        },
        {
          "internalType": "uint256",
          "name": "amount",
          "type": "uint256"
        }
      ],
      "name": "buyABT",
      "outputs": [
        {
          "internalType": "bool",
          "name": "",
          "type": "bool"
        }
      ],
      "stateMutability": "nonpayable",
      "type": "function"
    },
    {
      "inputs": [],
      "name": "buyABTFromETH",
      "outputs": [
        {
          "internalType": "bool",
          "name": "",
          "type": "bool"
        }
      ],
      "stateMutability": "payable",
      "type": "function"
    },
    {
      "inputs": [
        {
          "internalType": "address",
          "name": "token",
          "type": "address"
        },
        {
          "internalType": "uint256",
          "name": "amount",
          "type": "uint256"
        }
      ],
      "name": "buyBond",
      "outputs": [
        {
          "internalType": "bool",
          "name": "",
          "type": "bool"
        }
      ],
      "stateMutability": "nonpayable",
      "type": "function"
    },
    {
      "inputs": [],
      "name": "buyBondFromETH",
      "outputs": [
        {
          "internalType": "bool",
          "name": "",
          "type": "bool"
        }
      ],
      "stateMutability": "payable",
      "type": "function"
    },
    {
      "inputs": [
        {
          "internalType": "uint256",
          "name": "newPrice",
          "type": "uint256"
        }
      ],
      "name": "changeBondPrice",
      "outputs": [],
      "stateMutability": "nonpayable",
      "type": "function"
    },
    {
      "inputs": [
        {
          "internalType": "address",
          "name": "newToken",
          "type": "address"
        },
        {
          "internalType": "address",
          "name": "recipient",
          "type": "address"
        }
      ],
      "name": "changeCumulativeToken",
      "outputs": [],
      "stateMutability": "nonpayable",
      "type": "function"
    },
    {
      "inputs": [
        {
          "internalType": "address",
          "name": "newPauser",
          "type": "address"
        }
      ],
      "name": "changePauser",
      "outputs": [],
      "stateMutability": "nonpayable",
      "type": "function"
    },
    {
      "inputs": [
        {
          "internalType": "address",
          "name": "_priceOracle",
          "type": "address"
        }
      ],
      "name": "changePriceOracle",
      "outputs": [],
      "stateMutability": "nonpayable",
      "type": "function"
    },
    {
      "inputs": [
        {
          "internalType": "address",
          "name": "_uniswapRouter",
          "type": "address"
        }
      ],
      "name": "changeUniswapRouter",
      "outputs": [],
      "stateMutability": "nonpayable",
      "type": "function"
    },
    {
      "inputs": [],
      "name": "cumulative",
      "outputs": [
        {
          "internalType": "contract ERC20",
          "name": "",
          "type": "address"
        }
      ],
      "stateMutability": "view",
      "type": "function"
    },
    {
      "inputs": [
        {
          "internalType": "address",
          "name": "token",
          "type": "address"
        }
      ],
      "name": "denyToken",
      "outputs": [],
      "stateMutability": "nonpayable",
      "type": "function"
    },
    {
      "inputs": [
        {
          "internalType": "address",
          "name": "token",
          "type": "address"
        }
      ],
      "name": "isAllowedToken",
      "outputs": [
        {
          "internalType": "bool",
          "name": "",
          "type": "bool"
        }
      ],
      "stateMutability": "view",
      "type": "function"
    },
    {
      "inputs": [],
      "name": "owner",
      "outputs": [
        {
          "internalType": "address",
          "name": "",
          "type": "address"
        }
      ],
      "stateMutability": "view",
      "type": "function"
    },
    {
      "inputs": [],
      "name": "pause",
      "outputs": [],
      "stateMutability": "nonpayable",
      "type": "function"
    },
    {
      "inputs": [],
      "name": "paused",
      "outputs": [
        {
          "internalType": "bool",
          "name": "",
          "type": "bool"
        }
      ],
      "stateMutability": "view",
      "type": "function"
    },
    {
      "inputs": [],
      "name": "pauser",
      "outputs": [
        {
          "internalType": "address",
          "name": "",
          "type": "address"
        }
      ],
      "stateMutability": "view",
      "type": "function"
    },
    {
      "inputs": [
        {
          "internalType": "address",
          "name": "token",
          "type": "address"
        },
        {
          "internalType": "uint256",
          "name": "amount",
          "type": "uint256"
        }
      ],
      "name": "priceABT",
      "outputs": [
        {
          "internalType": "uint256",
          "name": "",
          "type": "uint256"
        }
      ],
      "stateMutability": "view",
      "type": "function"
    },
    {
      "inputs": [
        {
          "internalType": "address",
          "name": "token",
          "type": "address"
        },
        {
          "internalType": "uint256",
          "name": "amount",
          "type": "uint256"
        }
      ],
      "name": "priceBond",
      "outputs": [
        {
          "internalType": "uint256",
          "name": "",
          "type": "uint256"
        }
      ],
      "stateMutability": "view",
      "type": "function"
    },
    {
      "inputs": [],
      "name": "priceOracle",
      "outputs": [
        {
          "internalType": "contract IUniswapAnchoredView",
          "name": "",
          "type": "address"
        }
      ],
      "stateMutability": "view",
      "type": "function"
    },
    {
      "inputs": [],
      "name": "renounceOwnership",
      "outputs": [],
      "stateMutability": "nonpayable",
      "type": "function"
    },
    {
      "inputs": [
        {
          "internalType": "address",
          "name": "recipient",
          "type": "address"
        },
        {
          "internalType": "uint256",
          "name": "amount",
          "type": "uint256"
        }
      ],
      "name": "transferABT",
      "outputs": [],
      "stateMutability": "nonpayable",
      "type": "function"
    },
    {
      "inputs": [
        {
          "internalType": "address",
          "name": "recipient",
          "type": "address"
        },
        {
          "internalType": "uint256",
          "name": "amount",
          "type": "uint256"
        }
      ],
      "name": "transferBond",
      "outputs": [],
      "stateMutability": "nonpayable",
      "type": "function"
    },
    {
      "inputs": [
        {
          "internalType": "address",
          "name": "newOwner",
          "type": "address"
        }
      ],
      "name": "transferOwnership",
      "outputs": [],
      "stateMutability": "nonpayable",
      "type": "function"
    },
    {
      "inputs": [],
      "name": "uniswapRouter",
      "outputs": [
        {
          "internalType": "contract IUniswapV2Router02",
          "name": "",
          "type": "address"
        }
      ],
      "stateMutability": "view",
      "type": "function"
    },
    {
      "inputs": [],
      "name": "unpause",
      "outputs": [],
      "stateMutability": "nonpayable",
      "type": "function"
    },
    {
      "inputs": [
        {
          "internalType": "address",
          "name": "recipient",
          "type": "address"
        }
      ],
      "name": "withdraw",
      "outputs": [],
      "stateMutability": "nonpayable",
      "type": "function"
    }
  ],
  "bytecode": "0x6080604052620f42406005553480156200001857600080fd5b5060405162004feb38038062004feb833981810160405260a08110156200003e57600080fd5b810190808051906020019092919080519060200190929190805190602001909291908051906020019092919080519060200190929190505050600062000089620002e160201b60201c565b9050806000806101000a81548173ffffffffffffffffffffffffffffffffffffffff021916908373ffffffffffffffffffffffffffffffffffffffff1602179055508073ffffffffffffffffffffffffffffffffffffffff16600073ffffffffffffffffffffffffffffffffffffffff167f8be0079c531659141344cd1fd0a4f28419497f9722a3daafe3b4186f6b6457e060405160405180910390a35060008060146101000a81548160ff02191690831515021790555062000151620002e960201b60201c565b600160006101000a81548173ffffffffffffffffffffffffffffffffffffffff021916908373ffffffffffffffffffffffffffffffffffffffff16021790555084600260006101000a81548173ffffffffffffffffffffffffffffffffffffffff021916908373ffffffffffffffffffffffffffffffffffffffff16021790555083600360006101000a81548173ffffffffffffffffffffffffffffffffffffffff021916908373ffffffffffffffffffffffffffffffffffffffff16021790555082600460006101000a81548173ffffffffffffffffffffffffffffffffffffffff021916908373ffffffffffffffffffffffffffffffffffffffff16021790555081600660006101000a81548173ffffffffffffffffffffffffffffffffffffffff021916908373ffffffffffffffffffffffffffffffffffffffff16021790555080600760006101000a81548173ffffffffffffffffffffffffffffffffffffffff021916908373ffffffffffffffffffffffffffffffffffffffff160217905550505050505062000312565b600033905090565b60008060009054906101000a900473ffffffffffffffffffffffffffffffffffffffff16905090565b614cc980620003226000396000f3fe6080604052600436106101d85760003560e01c806373f1e0a711610102578063c337083711610095578063d7ccfb0b11610064578063d7ccfb0b146109bf578063dd5b23df146109ea578063f1a640f814610a45578063f2fde38b14610a70576101d8565b8063c337083714610810578063c5ea3d8314610861578063cbe230c3146108b2578063d55e649414610919576101d8565b80638da5cb5b116100d15780638da5cb5b146107335780639fd0506d14610774578063a7f1a561146107b5578063ab857038146107d5576101d8565b806373f1e0a71461064c5780637ae176ff1461066c5780638456cb59146106ad578063899e24ca146106c4576101d8565b80634cdbee691161017a57806364c9ec6f1161014957806364c9ec6f1461054257806364d191eb14610583578063715018a6146105f4578063735de9f71461060b576101d8565b80634cdbee691461041457806351cff8d9146104555780635c975abb146104a65780635d17fe2d146104d3576101d8565b80632ccde94b116101b65780632ccde94b146102ea5780632cd271e71461033b5780633a3c2da71461038c5780633f4ba83a146103fd576101d8565b806303633314146101dd57806305427eba1461024e5780632630c12f146102a9575b600080fd5b3480156101e957600080fd5b506102366004803603604081101561020057600080fd5b81019080803573ffffffffffffffffffffffffffffffffffffffff16906020019092919080359060200190929190505050610ac1565b60405180821515815260200191505060405180910390f35b34801561025a57600080fd5b506102a76004803603604081101561027157600080fd5b81019080803573ffffffffffffffffffffffffffffffffffffffff16906020019092919080359060200190929190505050610c13565b005b3480156102b557600080fd5b506102be610d0c565b604051808273ffffffffffffffffffffffffffffffffffffffff16815260200191505060405180910390f35b3480156102f657600080fd5b506103396004803603602081101561030d57600080fd5b81019080803573ffffffffffffffffffffffffffffffffffffffff169060200190929190505050610d32565b005b34801561034757600080fd5b5061038a6004803603602081101561035e57600080fd5b81019080803573ffffffffffffffffffffffffffffffffffffffff169060200190929190505050610e8b565b005b34801561039857600080fd5b506103fb600480360360408110156103af57600080fd5b81019080803573ffffffffffffffffffffffffffffffffffffffff169060200190929190803573ffffffffffffffffffffffffffffffffffffffff169060200190929190505050611006565b005b34801561040957600080fd5b50610412611169565b005b34801561042057600080fd5b50610429611264565b604051808273ffffffffffffffffffffffffffffffffffffffff16815260200191505060405180910390f35b34801561046157600080fd5b506104a46004803603602081101561047857600080fd5b81019080803573ffffffffffffffffffffffffffffffffffffffff16906020019092919050505061128a565b005b3480156104b257600080fd5b506104bb611586565b60405180821515815260200191505060405180910390f35b3480156104df57600080fd5b5061052c600480360360408110156104f657600080fd5b81019080803573ffffffffffffffffffffffffffffffffffffffff1690602001909291908035906020019092919050505061159c565b6040518082815260200191505060405180910390f35b34801561054e57600080fd5b506105576115d3565b604051808273ffffffffffffffffffffffffffffffffffffffff16815260200191505060405180910390f35b34801561058f57600080fd5b506105dc600480360360408110156105a657600080fd5b81019080803573ffffffffffffffffffffffffffffffffffffffff169060200190929190803590602001909291905050506115f9565b60405180821515815260200191505060405180910390f35b34801561060057600080fd5b50610609611630565b005b34801561061757600080fd5b506106206117b6565b604051808273ffffffffffffffffffffffffffffffffffffffff16815260200191505060405180910390f35b6106546117dc565b60405180821515815260200191505060405180910390f35b34801561067857600080fd5b5061068161180e565b604051808273ffffffffffffffffffffffffffffffffffffffff16815260200191505060405180910390f35b3480156106b957600080fd5b506106c2611834565b005b3480156106d057600080fd5b5061071d600480360360408110156106e757600080fd5b81019080803573ffffffffffffffffffffffffffffffffffffffff1690602001909291908035906020019092919050505061192f565b6040518082815260200191505060405180910390f35b34801561073f57600080fd5b50610748611966565b604051808273ffffffffffffffffffffffffffffffffffffffff16815260200191505060405180910390f35b34801561078057600080fd5b5061078961198f565b604051808273ffffffffffffffffffffffffffffffffffffffff16815260200191505060405180910390f35b6107bd6119b5565b60405180821515815260200191505060405180910390f35b3480156107e157600080fd5b5061080e600480360360208110156107f857600080fd5b8101908080359060200190929190505050611b02565b005b34801561081c57600080fd5b5061085f6004803603602081101561083357600080fd5b81019080803573ffffffffffffffffffffffffffffffffffffffff169060200190929190505050611c64565b005b34801561086d57600080fd5b506108b06004803603602081101561088457600080fd5b81019080803573ffffffffffffffffffffffffffffffffffffffff169060200190929190505050611dbd565b005b3480156108be57600080fd5b50610901600480360360208110156108d557600080fd5b81019080803573ffffffffffffffffffffffffffffffffffffffff169060200190929190505050611f38565b60405180821515815260200191505060405180910390f35b34801561092557600080fd5b506109bd6004803603604081101561093c57600080fd5b81019080803573ffffffffffffffffffffffffffffffffffffffff1690602001909291908035906020019064010000000081111561097957600080fd5b82018360208201111561098b57600080fd5b803590602001918460018302840111640100000000831117156109ad57600080fd5b9091929391929390505050611f98565b005b3480156109cb57600080fd5b506109d4612135565b6040518082815260200191505060405180910390f35b3480156109f657600080fd5b50610a4360048036036040811015610a0d57600080fd5b81019080803573ffffffffffffffffffffffffffffffffffffffff1690602001909291908035906020019092919050505061213b565b005b348015610a5157600080fd5b50610a5a612234565b6040518082815260200191505060405180910390f35b348015610a7c57600080fd5b50610abf60048036036020811015610a9357600080fd5b81019080803573ffffffffffffffffffffffffffffffffffffffff169060200190929190505050612239565b005b600080600460009054906101000a900473ffffffffffffffffffffffffffffffffffffffff1673ffffffffffffffffffffffffffffffffffffffff166370a08231336040518263ffffffff1660e01b8152600401808273ffffffffffffffffffffffffffffffffffffffff16815260200191505060206040518083038186803b158015610b4d57600080fd5b505afa158015610b61573d6000803e3d6000fd5b505050506040513d6020811015610b7757600080fd5b810190808051906020019092919050505011610bde576040517f08c379a0000000000000000000000000000000000000000000000000000000008152600401808060200182810382526039815260200180614a646039913960400191505060405180910390fd5b610c0b600460009054906101000a900473ffffffffffffffffffffffffffffffffffffffff168484612444565b905092915050565b610c1b6129a7565b73ffffffffffffffffffffffffffffffffffffffff1660008054906101000a900473ffffffffffffffffffffffffffffffffffffffff1673ffffffffffffffffffffffffffffffffffffffff1614610cdb576040517f08c379a00000000000000000000000000000000000000000000000000000000081526004018080602001828103825260208152602001807f4f776e61626c653a2063616c6c6572206973206e6f7420746865206f776e657281525060200191505060405180910390fd5b610d08600360009054906101000a900473ffffffffffffffffffffffffffffffffffffffff1683836129af565b5050565b600760009054906101000a900473ffffffffffffffffffffffffffffffffffffffff1681565b610d3a6129a7565b73ffffffffffffffffffffffffffffffffffffffff1660008054906101000a900473ffffffffffffffffffffffffffffffffffffffff1673ffffffffffffffffffffffffffffffffffffffff1614610dfa576040517f08c379a00000000000000000000000000000000000000000000000000000000081526004018080602001828103825260208152602001807f4f776e61626c653a2063616c6c6572206973206e6f7420746865206f776e657281525060200191505060405180910390fd5b80600760006101000a81548173ffffffffffffffffffffffffffffffffffffffff021916908373ffffffffffffffffffffffffffffffffffffffff1602179055507fb36d86785c7d32b1ad714bb705e00e93eccc37b8cf47549043e61e10908ad25181604051808273ffffffffffffffffffffffffffffffffffffffff16815260200191505060405180910390a150565b610e936129a7565b73ffffffffffffffffffffffffffffffffffffffff1660008054906101000a900473ffffffffffffffffffffffffffffffffffffffff1673ffffffffffffffffffffffffffffffffffffffff1614610f53576040517f08c379a00000000000000000000000000000000000000000000000000000000081526004018080602001828103825260208152602001807f4f776e61626c653a2063616c6c6572206973206e6f7420746865206f776e657281525060200191505060405180910390fd5b80600160006101000a81548173ffffffffffffffffffffffffffffffffffffffff021916908373ffffffffffffffffffffffffffffffffffffffff1602179055507fb80482a293ca2e013eda8683c9bd7fc8347cfdaeea5ede58cba46df502c2a604600160009054906101000a900473ffffffffffffffffffffffffffffffffffffffff16604051808273ffffffffffffffffffffffffffffffffffffffff16815260200191505060405180910390a150565b61100e6129a7565b73ffffffffffffffffffffffffffffffffffffffff1660008054906101000a900473ffffffffffffffffffffffffffffffffffffffff1673ffffffffffffffffffffffffffffffffffffffff16146110ce576040517f08c379a00000000000000000000000000000000000000000000000000000000081526004018080602001828103825260208152602001807f4f776e61626c653a2063616c6c6572206973206e6f7420746865206f776e657281525060200191505060405180910390fd5b6110d78161128a565b81600260006101000a81548173ffffffffffffffffffffffffffffffffffffffff021916908373ffffffffffffffffffffffffffffffffffffffff1602179055507f211984bb289184fd6dff2b81a63abf6245c2ad65b2509acf4cdff1fcc0a8734c82604051808273ffffffffffffffffffffffffffffffffffffffff16815260200191505060405180910390a15050565b6111716129a7565b73ffffffffffffffffffffffffffffffffffffffff16600160009054906101000a900473ffffffffffffffffffffffffffffffffffffffff1673ffffffffffffffffffffffffffffffffffffffff16148061120557506111cf6129a7565b73ffffffffffffffffffffffffffffffffffffffff166111ed611966565b73ffffffffffffffffffffffffffffffffffffffff16145b61125a576040517f08c379a0000000000000000000000000000000000000000000000000000000008152600401808060200182810382526045815260200180614a1f6045913960600191505060405180910390fd5b611262612be7565b565b600360009054906101000a900473ffffffffffffffffffffffffffffffffffffffff1681565b6112926129a7565b73ffffffffffffffffffffffffffffffffffffffff1660008054906101000a900473ffffffffffffffffffffffffffffffffffffffff1673ffffffffffffffffffffffffffffffffffffffff1614611352576040517f08c379a00000000000000000000000000000000000000000000000000000000081526004018080602001828103825260208152602001807f4f776e61626c653a2063616c6c6572206973206e6f7420746865206f776e657281525060200191505060405180910390fd5b600073ffffffffffffffffffffffffffffffffffffffff168173ffffffffffffffffffffffffffffffffffffffff1614156113d8576040517f08c379a0000000000000000000000000000000000000000000000000000000008152600401808060200182810382526035815260200180614b576035913960400191505060405180910390fd5b6000600260009054906101000a900473ffffffffffffffffffffffffffffffffffffffff1673ffffffffffffffffffffffffffffffffffffffff166370a08231306040518263ffffffff1660e01b8152600401808273ffffffffffffffffffffffffffffffffffffffff16815260200191505060206040518083038186803b15801561146357600080fd5b505afa158015611477573d6000803e3d6000fd5b505050506040513d602081101561148d57600080fd5b810190808051906020019092919050505090506114ed8282600260009054906101000a900473ffffffffffffffffffffffffffffffffffffffff1673ffffffffffffffffffffffffffffffffffffffff16612cd99092919063ffffffff16565b7f2717ead6b9200dd235aad468c9809ea400fe33ac69b5bfaa6d3e90fc922b639882600260009054906101000a900473ffffffffffffffffffffffffffffffffffffffff1683604051808473ffffffffffffffffffffffffffffffffffffffff1681526020018373ffffffffffffffffffffffffffffffffffffffff168152602001828152602001935050505060405180910390a15050565b60008060149054906101000a900460ff16905090565b60006115cb600460009054906101000a900473ffffffffffffffffffffffffffffffffffffffff168484612d7b565b905092915050565b600460009054906101000a900473ffffffffffffffffffffffffffffffffffffffff1681565b6000611628600360009054906101000a900473ffffffffffffffffffffffffffffffffffffffff168484612444565b905092915050565b6116386129a7565b73ffffffffffffffffffffffffffffffffffffffff1660008054906101000a900473ffffffffffffffffffffffffffffffffffffffff1673ffffffffffffffffffffffffffffffffffffffff16146116f8576040517f08c379a00000000000000000000000000000000000000000000000000000000081526004018080602001828103825260208152602001807f4f776e61626c653a2063616c6c6572206973206e6f7420746865206f776e657281525060200191505060405180910390fd5b600073ffffffffffffffffffffffffffffffffffffffff1660008054906101000a900473ffffffffffffffffffffffffffffffffffffffff1673ffffffffffffffffffffffffffffffffffffffff167f8be0079c531659141344cd1fd0a4f28419497f9722a3daafe3b4186f6b6457e060405160405180910390a360008060006101000a81548173ffffffffffffffffffffffffffffffffffffffff021916908373ffffffffffffffffffffffffffffffffffffffff160217905550565b600660009054906101000a900473ffffffffffffffffffffffffffffffffffffffff1681565b6000611809600360009054906101000a900473ffffffffffffffffffffffffffffffffffffffff16613446565b905090565b600260009054906101000a900473ffffffffffffffffffffffffffffffffffffffff1681565b61183c6129a7565b73ffffffffffffffffffffffffffffffffffffffff16600160009054906101000a900473ffffffffffffffffffffffffffffffffffffffff1673ffffffffffffffffffffffffffffffffffffffff1614806118d0575061189a6129a7565b73ffffffffffffffffffffffffffffffffffffffff166118b8611966565b73ffffffffffffffffffffffffffffffffffffffff16145b611925576040517f08c379a00000000000000000000000000000000000000000000000000000000081526004018080602001828103825260418152602001806149de6041913960600191505060405180910390fd5b61192d6139b7565b565b600061195e600360009054906101000a900473ffffffffffffffffffffffffffffffffffffffff168484612d7b565b905092915050565b60008060009054906101000a900473ffffffffffffffffffffffffffffffffffffffff16905090565b600160009054906101000a900473ffffffffffffffffffffffffffffffffffffffff1681565b600080600460009054906101000a900473ffffffffffffffffffffffffffffffffffffffff1673ffffffffffffffffffffffffffffffffffffffff166370a08231336040518263ffffffff1660e01b8152600401808273ffffffffffffffffffffffffffffffffffffffff16815260200191505060206040518083038186803b158015611a4157600080fd5b505afa158015611a55573d6000803e3d6000fd5b505050506040513d6020811015611a6b57600080fd5b810190808051906020019092919050505011611ad2576040517f08c379a0000000000000000000000000000000000000000000000000000000008152600401808060200182810382526040815260200180614a9d6040913960400191505060405180910390fd5b611afd600460009054906101000a900473ffffffffffffffffffffffffffffffffffffffff16613446565b905090565b611b0a6129a7565b73ffffffffffffffffffffffffffffffffffffffff1660008054906101000a900473ffffffffffffffffffffffffffffffffffffffff1673ffffffffffffffffffffffffffffffffffffffff1614611bca576040517f08c379a00000000000000000000000000000000000000000000000000000000081526004018080602001828103825260208152602001807f4f776e61626c653a2063616c6c6572206973206e6f7420746865206f776e657281525060200191505060405180910390fd5b60008111611c23576040517f08c379a000000000000000000000000000000000000000000000000000000000815260040180806020018281038252602f815260200180614bad602f913960400191505060405180910390fd5b806005819055507f6b4bad8a5f845b5369ba4d524448526b53b7fd96eaa8003e8d766331dad9fd3d816040518082815260200191505060405180910390a150565b611c6c6129a7565b73ffffffffffffffffffffffffffffffffffffffff1660008054906101000a900473ffffffffffffffffffffffffffffffffffffffff1673ffffffffffffffffffffffffffffffffffffffff1614611d2c576040517f08c379a00000000000000000000000000000000000000000000000000000000081526004018080602001828103825260208152602001807f4f776e61626c653a2063616c6c6572206973206e6f7420746865206f776e657281525060200191505060405180910390fd5b80600660006101000a81548173ffffffffffffffffffffffffffffffffffffffff021916908373ffffffffffffffffffffffffffffffffffffffff1602179055507f0a3776494a324cdd72863deb1475d9eb705db96d66e7e199f3ebe4948343a43881604051808273ffffffffffffffffffffffffffffffffffffffff16815260200191505060405180910390a150565b611dc56129a7565b73ffffffffffffffffffffffffffffffffffffffff1660008054906101000a900473ffffffffffffffffffffffffffffffffffffffff1673ffffffffffffffffffffffffffffffffffffffff1614611e85576040517f08c379a00000000000000000000000000000000000000000000000000000000081526004018080602001828103825260208152602001807f4f776e61626c653a2063616c6c6572206973206e6f7420746865206f776e657281525060200191505060405180910390fd5b60405180602001604052806000815250600860008373ffffffffffffffffffffffffffffffffffffffff1673ffffffffffffffffffffffffffffffffffffffff1681526020019081526020016000209080519060200190611ee7929190614876565b507f99141d0e2d4f048b95e099fa59ce3343ad2b2827553ca03a066fdcbfc421dbb181604051808273ffffffffffffffffffffffffffffffffffffffff16815260200191505060405180910390a150565b600080600860008473ffffffffffffffffffffffffffffffffffffffff1673ffffffffffffffffffffffffffffffffffffffff16815260200190815260200160002080546001816001161561010002031660029004905014159050919050565b611fa06129a7565b73ffffffffffffffffffffffffffffffffffffffff1660008054906101000a900473ffffffffffffffffffffffffffffffffffffffff1673ffffffffffffffffffffffffffffffffffffffff1614612060576040517f08c379a00000000000000000000000000000000000000000000000000000000081526004018080602001828103825260208152602001807f4f776e61626c653a2063616c6c6572206973206e6f7420746865206f776e657281525060200191505060405180910390fd5b8181600860008673ffffffffffffffffffffffffffffffffffffffff1673ffffffffffffffffffffffffffffffffffffffff16815260200190815260200160002091906120ae9291906148f6565b507f7e0e5645cdb1c97ffe3d599ebe4d4a327d4b5c9e9374f01018604e37d310e36c838383604051808473ffffffffffffffffffffffffffffffffffffffff168152602001806020018281038252848482818152602001925080828437600081840152601f19601f82011690508083019250505094505050505060405180910390a1505050565b60055481565b6121436129a7565b73ffffffffffffffffffffffffffffffffffffffff1660008054906101000a900473ffffffffffffffffffffffffffffffffffffffff1673ffffffffffffffffffffffffffffffffffffffff1614612203576040517f08c379a00000000000000000000000000000000000000000000000000000000081526004018080602001828103825260208152602001807f4f776e61626c653a2063616c6c6572206973206e6f7420746865206f776e657281525060200191505060405180910390fd5b612230600460009054906101000a900473ffffffffffffffffffffffffffffffffffffffff1683836129af565b5050565b600681565b6122416129a7565b73ffffffffffffffffffffffffffffffffffffffff1660008054906101000a900473ffffffffffffffffffffffffffffffffffffffff1673ffffffffffffffffffffffffffffffffffffffff1614612301576040517f08c379a00000000000000000000000000000000000000000000000000000000081526004018080602001828103825260208152602001807f4f776e61626c653a2063616c6c6572206973206e6f7420746865206f776e657281525060200191505060405180910390fd5b600073ffffffffffffffffffffffffffffffffffffffff168173ffffffffffffffffffffffffffffffffffffffff161415612387576040517f08c379a00000000000000000000000000000000000000000000000000000000081526004018080602001828103825260268152602001806149b86026913960400191505060405180910390fd5b8073ffffffffffffffffffffffffffffffffffffffff1660008054906101000a900473ffffffffffffffffffffffffffffffffffffffff1673ffffffffffffffffffffffffffffffffffffffff167f8be0079c531659141344cd1fd0a4f28419497f9722a3daafe3b4186f6b6457e060405160405180910390a3806000806101000a81548173ffffffffffffffffffffffffffffffffffffffff021916908373ffffffffffffffffffffffffffffffffffffffff16021790555050565b60008060149054906101000a900460ff16156124c8576040517f08c379a00000000000000000000000000000000000000000000000000000000081526004018080602001828103825260108152602001807f5061757361626c653a207061757365640000000000000000000000000000000081525060200191505060405180910390fd5b6124d183611f38565b612543576040517f08c379a000000000000000000000000000000000000000000000000000000000815260040180806020018281038252601a8152602001807f4d61726b65743a3a6275793a20696e76616c696420746f6b656e00000000000081525060200191505060405180910390fd5b6000612550858585612d7b565b905061257f3330858773ffffffffffffffffffffffffffffffffffffffff16613aab909392919063ffffffff16565b600260009054906101000a900473ffffffffffffffffffffffffffffffffffffffff1673ffffffffffffffffffffffffffffffffffffffff168473ffffffffffffffffffffffffffffffffffffffff16146128555760006125e08585613b6c565b9050600081141561263c576040517f08c379a00000000000000000000000000000000000000000000000000000000081526004018080602001828103825260248152602001806149946024913960400191505060405180910390fd5b612689600660009054906101000a900473ffffffffffffffffffffffffffffffffffffffff16858773ffffffffffffffffffffffffffffffffffffffff16613d879092919063ffffffff16565b600660009054906101000a900473ffffffffffffffffffffffffffffffffffffffff1673ffffffffffffffffffffffffffffffffffffffff166338ed173985836126d289613f4c565b30426040518663ffffffff1660e01b815260040180868152602001858152602001806020018473ffffffffffffffffffffffffffffffffffffffff168152602001838152602001828103825285818151815260200191508051906020019060200280838360005b83811015612754578082015181840152602081019050612739565b505050509050019650505050505050600060405180830381600087803b15801561277d57600080fd5b505af1158015612791573d6000803e3d6000fd5b505050506040513d6000823e3d601f19601f8201168201806040525060208110156127bb57600080fd5b81019080805160405193929190846401000000008211156127db57600080fd5b838201915060208201858111156127f157600080fd5b825186602082028301116401000000008211171561280e57600080fd5b8083526020830192505050908051906020019060200280838360005b8381101561284557808201518184015260208101905061282a565b5050505090500160405250505050505b8473ffffffffffffffffffffffffffffffffffffffff1663a9059cbb33836040518363ffffffff1660e01b8152600401808373ffffffffffffffffffffffffffffffffffffffff16815260200182815260200192505050602060405180830381600087803b1580156128c657600080fd5b505af11580156128da573d6000803e3d6000fd5b505050506040513d60208110156128f057600080fd5b8101908080519060200190929190505050507fbab4aa6b2d5c0935e0e2937d1f73655848f670d43bf6f0c7e9e11e635bb5d86f3386868685604051808673ffffffffffffffffffffffffffffffffffffffff1681526020018573ffffffffffffffffffffffffffffffffffffffff1681526020018473ffffffffffffffffffffffffffffffffffffffff1681526020018381526020018281526020019550505050505060405180910390a160019150509392505050565b600033905090565b600073ffffffffffffffffffffffffffffffffffffffff168273ffffffffffffffffffffffffffffffffffffffff161415612a35576040517f08c379a0000000000000000000000000000000000000000000000000000000008152600401808060200182810382526035815260200180614bdc6035913960400191505060405180910390fd5b60008373ffffffffffffffffffffffffffffffffffffffff166370a08231306040518263ffffffff1660e01b8152600401808273ffffffffffffffffffffffffffffffffffffffff16815260200191505060206040518083038186803b158015612a9e57600080fd5b505afa158015612ab2573d6000803e3d6000fd5b505050506040513d6020811015612ac857600080fd5b8101908080519060200190929190505050905080821115612b34576040517f08c379a0000000000000000000000000000000000000000000000000000000008152600401808060200182810382526023815260200180614c3b6023913960400191505060405180910390fd5b8373ffffffffffffffffffffffffffffffffffffffff1663a9059cbb84846040518363ffffffff1660e01b8152600401808373ffffffffffffffffffffffffffffffffffffffff16815260200182815260200192505050602060405180830381600087803b158015612ba557600080fd5b505af1158015612bb9573d6000803e3d6000fd5b505050506040513d6020811015612bcf57600080fd5b81019080805190602001909291905050505050505050565b600060149054906101000a900460ff16612c69576040517f08c379a00000000000000000000000000000000000000000000000000000000081526004018080602001828103825260148152602001807f5061757361626c653a206e6f742070617573656400000000000000000000000081525060200191505060405180910390fd5b60008060146101000a81548160ff0219169083151502179055507f5db9ee0a495bf2e6ff9c91a7834c1ba4fdd244a5e8aa4e537bd38aeae4b073aa612cac6129a7565b604051808273ffffffffffffffffffffffffffffffffffffffff16815260200191505060405180910390a1565b612d768363a9059cbb60e01b8484604051602401808373ffffffffffffffffffffffffffffffffffffffff16815260200182815260200192505050604051602081830303815290604052907bffffffffffffffffffffffffffffffffffffffffffffffffffffffff19166020820180517bffffffffffffffffffffffffffffffffffffffffffffffffffffffff8381831617835250505050614282565b505050565b6000612d8683611f38565b612df8576040517f08c379a000000000000000000000000000000000000000000000000000000000815260040180806020018281038252601c8152602001807f4d61726b65743a3a70726963653a20696e76616c696420746f6b656e0000000081525060200191505060405180910390fd5b60008373ffffffffffffffffffffffffffffffffffffffff1663313ce5676040518163ffffffff1660e01b815260040160206040518083038186803b158015612e4057600080fd5b505afa158015612e54573d6000803e3d6000fd5b505050506040513d6020811015612e6a57600080fd5b810190808051906020019092919050505060ff16905060008573ffffffffffffffffffffffffffffffffffffffff1663313ce5676040518163ffffffff1660e01b815260040160206040518083038186803b158015612ec857600080fd5b505afa158015612edc573d6000803e3d6000fd5b505050506040513d6020811015612ef257600080fd5b810190808051906020019092919050505060ff1690506000600760009054906101000a900473ffffffffffffffffffffffffffffffffffffffff1673ffffffffffffffffffffffffffffffffffffffff1663fe2c6198600860008973ffffffffffffffffffffffffffffffffffffffff1673ffffffffffffffffffffffffffffffffffffffff1681526020019081526020016000206040518263ffffffff1660e01b8152600401808060200182810382528381815460018160011615610100020316600290048152602001915080546001816001161561010002031660029004801561301f5780601f10612ff45761010080835404028352916020019161301f565b820191906000526020600020905b81548152906001019060200180831161300257829003601f168201915b50509250505060206040518083038186803b15801561303d57600080fd5b505afa158015613051573d6000803e3d6000fd5b505050506040513d602081101561306757600080fd5b810190808051906020019092919050505090506000600760009054906101000a900473ffffffffffffffffffffffffffffffffffffffff1673ffffffffffffffffffffffffffffffffffffffff1663fe2c6198600260009054906101000a900473ffffffffffffffffffffffffffffffffffffffff1673ffffffffffffffffffffffffffffffffffffffff166395d89b416040518163ffffffff1660e01b815260040160006040518083038186803b15801561312257600080fd5b505afa158015613136573d6000803e3d6000fd5b505050506040513d6000823e3d601f19601f82011682018060405250602081101561316057600080fd5b810190808051604051939291908464010000000082111561318057600080fd5b8382019150602082018581111561319657600080fd5b82518660018202830111640100000000821117156131b357600080fd5b8083526020830192505050908051906020019080838360005b838110156131e75780820151818401526020810190506131cc565b50505050905090810190601f1680156132145780820380516001836020036101000a031916815260200191505b506040525050506040518263ffffffff1660e01b81526004018080602001828103825283818151815260200191508051906020019080838360005b8381101561326a57808201518184015260208101905061324f565b50505050905090810190601f1680156132975780820380516001836020036101000a031916815260200191505b509250505060206040518083038186803b1580156132b457600080fd5b505afa1580156132c8573d6000803e3d6000fd5b505050506040513d60208110156132de57600080fd5b81019080805190602001909291905050509050600061331b613309868661437190919063ffffffff16565b600a0a886143bb90919063ffffffff16565b90508773ffffffffffffffffffffffffffffffffffffffff168973ffffffffffffffffffffffffffffffffffffffff16146133cb576133c8613366868661437190919063ffffffff16565b600a0a6133ba6006600a0a6133ac8b61339e886133906006600a0a8c6143bb90919063ffffffff16565b61444190919063ffffffff16565b6143bb90919063ffffffff16565b61444190919063ffffffff16565b6143bb90919063ffffffff16565b90505b600460009054906101000a900473ffffffffffffffffffffffffffffffffffffffff1673ffffffffffffffffffffffffffffffffffffffff168973ffffffffffffffffffffffffffffffffffffffff1614156134365761342a8161448b565b9550505050505061343f565b80955050505050505b9392505050565b60008060149054906101000a900460ff16156134ca576040517f08c379a00000000000000000000000000000000000000000000000000000000081526004018080602001828103825260108152602001807f5061757361626c653a207061757365640000000000000000000000000000000081525060200191505060405180910390fd5b6000600660009054906101000a900473ffffffffffffffffffffffffffffffffffffffff1673ffffffffffffffffffffffffffffffffffffffff1663ad5c46486040518163ffffffff1660e01b815260040160206040518083038186803b15801561353457600080fd5b505afa158015613548573d6000803e3d6000fd5b505050506040513d602081101561355e57600080fd5b81019080805190602001909291905050509050600034905061357f82611f38565b6135d4576040517f08c379a0000000000000000000000000000000000000000000000000000000008152600401808060200182810382526021815260200180614b8c6021913960400191505060405180910390fd5b60006135e1858484612d7b565b9050600260009054906101000a900473ffffffffffffffffffffffffffffffffffffffff1673ffffffffffffffffffffffffffffffffffffffff168373ffffffffffffffffffffffffffffffffffffffff16146138655760006136448484613b6c565b905060008114156136a0576040517f08c379a000000000000000000000000000000000000000000000000000000000815260040180806020018281038252602b815260200180614add602b913960400191505060405180910390fd5b600660009054906101000a900473ffffffffffffffffffffffffffffffffffffffff1673ffffffffffffffffffffffffffffffffffffffff16637ff36ab584836136e988613f4c565b30426040518663ffffffff1660e01b815260040180858152602001806020018473ffffffffffffffffffffffffffffffffffffffff168152602001838152602001828103825285818151815260200191508051906020019060200280838360005b8381101561376557808201518184015260208101905061374a565b50505050905001955050505050506000604051808303818588803b15801561378c57600080fd5b505af11580156137a0573d6000803e3d6000fd5b50505050506040513d6000823e3d601f19601f8201168201806040525060208110156137cb57600080fd5b81019080805160405193929190846401000000008211156137eb57600080fd5b8382019150602082018581111561380157600080fd5b825186602082028301116401000000008211171561381e57600080fd5b8083526020830192505050908051906020019060200280838360005b8381101561385557808201518184015260208101905061383a565b5050505090500160405250505050505b8473ffffffffffffffffffffffffffffffffffffffff1663a9059cbb33836040518363ffffffff1660e01b8152600401808373ffffffffffffffffffffffffffffffffffffffff16815260200182815260200192505050602060405180830381600087803b1580156138d657600080fd5b505af11580156138ea573d6000803e3d6000fd5b505050506040513d602081101561390057600080fd5b8101908080519060200190929190505050507fbab4aa6b2d5c0935e0e2937d1f73655848f670d43bf6f0c7e9e11e635bb5d86f3386858585604051808673ffffffffffffffffffffffffffffffffffffffff1681526020018573ffffffffffffffffffffffffffffffffffffffff1681526020018473ffffffffffffffffffffffffffffffffffffffff1681526020018381526020018281526020019550505050505060405180910390a160019350505050919050565b600060149054906101000a900460ff1615613a3a576040517f08c379a00000000000000000000000000000000000000000000000000000000081526004018080602001828103825260108152602001807f5061757361626c653a207061757365640000000000000000000000000000000081525060200191505060405180910390fd5b6001600060146101000a81548160ff0219169083151502179055507f62e78cea01bee320cd4e420270b5ea74000d11b0c9f74754ebdbfc544b05a258613a7e6129a7565b604051808273ffffffffffffffffffffffffffffffffffffffff16815260200191505060405180910390a1565b613b66846323b872dd60e01b858585604051602401808473ffffffffffffffffffffffffffffffffffffffff1681526020018373ffffffffffffffffffffffffffffffffffffffff1681526020018281526020019350505050604051602081830303815290604052907bffffffffffffffffffffffffffffffffffffffffffffffffffffffff19166020820180517bffffffffffffffffffffffffffffffffffffffffffffffffffffffff8381831617835250505050614282565b50505050565b60006060600660009054906101000a900473ffffffffffffffffffffffffffffffffffffffff1673ffffffffffffffffffffffffffffffffffffffff1663d06ca61f84613bb887613f4c565b6040518363ffffffff1660e01b81526004018083815260200180602001828103825283818151815260200191508051906020019060200280838360005b83811015613c10578082015181840152602081019050613bf5565b50505050905001935050505060006040518083038186803b158015613c3457600080fd5b505afa158015613c48573d6000803e3d6000fd5b505050506040513d6000823e3d601f19601f820116820180604052506020811015613c7257600080fd5b8101908080516040519392919084640100000000821115613c9257600080fd5b83820191506020820185811115613ca857600080fd5b8251866020820283011164010000000082111715613cc557600080fd5b8083526020830192505050908051906020019060200280838360005b83811015613cfc578082015181840152602081019050613ce1565b505050509050016040525050509050600081511415613d66576040517f08c379a000000000000000000000000000000000000000000000000000000000815260040180806020018281038252602e815260200180614b29602e913960400191505060405180910390fd5b80600182510381518110613d7657fe5b602002602001015191505092915050565b6000811480613e55575060008373ffffffffffffffffffffffffffffffffffffffff1663dd62ed3e30856040518363ffffffff1660e01b8152600401808373ffffffffffffffffffffffffffffffffffffffff1681526020018273ffffffffffffffffffffffffffffffffffffffff1681526020019250505060206040518083038186803b158015613e1857600080fd5b505afa158015613e2c573d6000803e3d6000fd5b505050506040513d6020811015613e4257600080fd5b8101908080519060200190929190505050145b613eaa576040517f08c379a0000000000000000000000000000000000000000000000000000000008152600401808060200182810382526036815260200180614c5e6036913960400191505060405180910390fd5b613f478363095ea7b360e01b8484604051602401808373ffffffffffffffffffffffffffffffffffffffff16815260200182815260200192505050604051602081830303815290604052907bffffffffffffffffffffffffffffffffffffffffffffffffffffffff19166020820180517bffffffffffffffffffffffffffffffffffffffffffffffffffffffff8381831617835250505050614282565b505050565b60606000600660009054906101000a900473ffffffffffffffffffffffffffffffffffffffff1673ffffffffffffffffffffffffffffffffffffffff1663ad5c46486040518163ffffffff1660e01b815260040160206040518083038186803b158015613fb857600080fd5b505afa158015613fcc573d6000803e3d6000fd5b505050506040513d6020811015613fe257600080fd5b810190808051906020019092919050505090508273ffffffffffffffffffffffffffffffffffffffff168173ffffffffffffffffffffffffffffffffffffffff161415614131576060600267ffffffffffffffff8111801561404357600080fd5b506040519080825280602002602001820160405280156140725781602001602082028036833780820191505090505b509050838160008151811061408357fe5b602002602001019073ffffffffffffffffffffffffffffffffffffffff16908173ffffffffffffffffffffffffffffffffffffffff1681525050600260009054906101000a900473ffffffffffffffffffffffffffffffffffffffff16816001815181106140ed57fe5b602002602001019073ffffffffffffffffffffffffffffffffffffffff16908173ffffffffffffffffffffffffffffffffffffffff1681525050809250505061427d565b6060600367ffffffffffffffff8111801561414b57600080fd5b5060405190808252806020026020018201604052801561417a5781602001602082028036833780820191505090505b509050838160008151811061418b57fe5b602002602001019073ffffffffffffffffffffffffffffffffffffffff16908173ffffffffffffffffffffffffffffffffffffffff168152505081816001815181106141d357fe5b602002602001019073ffffffffffffffffffffffffffffffffffffffff16908173ffffffffffffffffffffffffffffffffffffffff1681525050600260009054906101000a900473ffffffffffffffffffffffffffffffffffffffff168160028151811061423d57fe5b602002602001019073ffffffffffffffffffffffffffffffffffffffff16908173ffffffffffffffffffffffffffffffffffffffff168152505080925050505b919050565b60606142e4826040518060400160405280602081526020017f5361666545524332303a206c6f772d6c6576656c2063616c6c206661696c65648152508573ffffffffffffffffffffffffffffffffffffffff166144bf9092919063ffffffff16565b905060008151111561436c5780806020019051602081101561430557600080fd5b810190808051906020019092919050505061436b576040517f08c379a000000000000000000000000000000000000000000000000000000000815260040180806020018281038252602a815260200180614c11602a913960400191505060405180910390fd5b5b505050565b60006143b383836040518060400160405280601e81526020017f536166654d6174683a207375627472616374696f6e206f766572666c6f7700008152506144d7565b905092915050565b6000808314156143ce576000905061443b565b60008284029050828482816143df57fe5b0414614436576040517f08c379a0000000000000000000000000000000000000000000000000000000008152600401808060200182810382526021815260200180614b086021913960400191505060405180910390fd5b809150505b92915050565b600061448383836040518060400160405280601a81526020017f536166654d6174683a206469766973696f6e206279207a65726f000000000000815250614597565b905092915050565b60006144b86005546144aa6006600a0a856143bb90919063ffffffff16565b61444190919063ffffffff16565b9050919050565b60606144ce848460008561465d565b90509392505050565b6000838311158290614584576040517f08c379a00000000000000000000000000000000000000000000000000000000081526004018080602001828103825283818151815260200191508051906020019080838360005b8381101561454957808201518184015260208101905061452e565b50505050905090810190601f1680156145765780820380516001836020036101000a031916815260200191505b509250505060405180910390fd5b5060008385039050809150509392505050565b60008083118290614643576040517f08c379a00000000000000000000000000000000000000000000000000000000081526004018080602001828103825283818151815260200191508051906020019080838360005b838110156146085780820151818401526020810190506145ed565b50505050905090810190601f1680156146355780820380516001836020036101000a031916815260200191505b509250505060405180910390fd5b50600083858161464f57fe5b049050809150509392505050565b606061466885614863565b6146da576040517f08c379a000000000000000000000000000000000000000000000000000000000815260040180806020018281038252601d8152602001807f416464726573733a2063616c6c20746f206e6f6e2d636f6e747261637400000081525060200191505060405180910390fd5b600060608673ffffffffffffffffffffffffffffffffffffffff1685876040518082805190602001908083835b6020831061472a5780518252602082019150602081019050602083039250614707565b6001836020036101000a03801982511681845116808217855250505050505090500191505060006040518083038185875af1925050503d806000811461478c576040519150601f19603f3d011682016040523d82523d6000602084013e614791565b606091505b509150915081156147a657809250505061485b565b6000815111156147b95780518082602001fd5b836040517f08c379a00000000000000000000000000000000000000000000000000000000081526004018080602001828103825283818151815260200191508051906020019080838360005b83811015614820578082015181840152602081019050614805565b50505050905090810190601f16801561484d5780820380516001836020036101000a031916815260200191505b509250505060405180910390fd5b949350505050565b600080823b905060008111915050919050565b828054600181600116156101000203166002900490600052602060002090601f016020900481019282601f106148b757805160ff19168380011785556148e5565b828001600101855582156148e5579182015b828111156148e45782518255916020019190600101906148c9565b5b5090506148f29190614976565b5090565b828054600181600116156101000203166002900490600052602060002090601f016020900481019282601f1061493757803560ff1916838001178555614965565b82800160010185558215614965579182015b82811115614964578235825591602001919060010190614949565b5b5090506149729190614976565b5090565b5b8082111561498f576000816000905550600101614977565b509056fe4d61726b65743a3a6275793a206c697175696469747920706f6f6c20697320656d7074794f776e61626c653a206e6577206f776e657220697320746865207a65726f20616464726573734f776e61626c655061757361626c653a3a70617573653a206f6e6c792070617573657220616e64206f776e6572206d75737420706175736520636f6e74726163744f776e61626c655061757361626c653a3a756e70617573653a206f6e6c792070617573657220616e64206f776e6572206d75737420756e706175736520636f6e74726163744d61726b65743a3a627579426f6e643a206f6e6c7920746f6b656e686f6c6465722063616e20627579206e657720626f6e6420746f6b656e734d61726b65743a3a627579426f6e6446726f6d4554483a206f6e6c7920746f6b656e686f6c6465722063616e20627579206e657720626f6e6420746f6b656e734d61726b65743a3a62757946726f6d4554483a206c697175696469747920706f6f6c20697320656d707479536166654d6174683a206d756c7469706c69636174696f6e206f766572666c6f774d61726b65743a3a5f616d6f756e744f75743a20696e76616c696420616d6f756e7473206f7574206c656e6774684d61726b65743a3a77697468647261773a2063616e6e6f74207472616e7366657220746f20746865207a65726f20616464726573734d61726b65743a3a62757946726f6d4554483a20696e76616c696420746f6b656e4d61726b65743a3a6368616e6765426f6e6450726963653a20696e76616c6964206e657720626f6e642070726963654d61726b65743a3a7472616e736665723a2063616e6e6f74207472616e7366657220746f20746865207a65726f20616464726573735361666545524332303a204552433230206f7065726174696f6e20646964206e6f7420737563636565644d61726b65743a3a7472616e736665723a206e6f7420656e6f75676820746f6b656e735361666545524332303a20617070726f76652066726f6d206e6f6e2d7a65726f20746f206e6f6e2d7a65726f20616c6c6f77616e6365a26469706673582212207358faa2e16f7b5050d07340d598cf933cae67d10c28d1946e2e0bed97381a9764736f6c634300060c0033",
  "linkReferences": {},
  "deployedLinkReferences": {}
}