{
  "_format": "hh-sol-artifact-1",
  "contractName": "Stacking",
  "sourceName": "contracts/Stacking.sol",
  "abi": [
    {
      "inputs": [
        {
          "internalType": "address",
          "name": "_rewardToken",
          "type": "address"
        }
      ],
      "stateMutability": "nonpayable",
      "type": "constructor"
    },
    {
      "anonymous": false,
      "inputs": [
        {
          "indexed": false,
          "internalType": "address",
          "name": "account",
          "type": "address"
        },
        {
          "indexed": false,
          "internalType": "address",
          "name": "token",
          "type": "address"
        },
        {
          "indexed": false,
          "internalType": "uint256",
          "name": "amount",
          "type": "uint256"
        }
      ],
      "name": "Locked",
      "type": "event"
    },
    {
      "anonymous": false,
      "inputs": [
        {
          "indexed": true,
          "internalType": "address",
          "name": "previousOwner",
          "type": "address"
        },
        {
          "indexed": true,
          "internalType": "address",
          "name": "newOwner",
          "type": "address"
        }
      ],
      "name": "OwnershipTransferred",
      "type": "event"
    },
    {
      "anonymous": false,
      "inputs": [
        {
          "indexed": false,
          "internalType": "address",
          "name": "account",
          "type": "address"
        }
      ],
      "name": "Paused",
      "type": "event"
    },
    {
      "anonymous": false,
      "inputs": [
        {
          "indexed": false,
          "internalType": "address",
          "name": "newPauser",
          "type": "address"
        }
      ],
      "name": "PauserChanged",
      "type": "event"
    },
    {
      "anonymous": false,
      "inputs": [
        {
          "indexed": false,
          "internalType": "address",
          "name": "token",
          "type": "address"
        },
        {
          "indexed": false,
          "internalType": "uint256",
          "name": "from",
          "type": "uint256"
        },
        {
          "indexed": false,
          "internalType": "uint256",
          "name": "to",
          "type": "uint256"
        }
      ],
      "name": "RewardChanged",
      "type": "event"
    },
    {
      "anonymous": false,
      "inputs": [
        {
          "indexed": false,
          "internalType": "address",
          "name": "account",
          "type": "address"
        },
        {
          "indexed": false,
          "internalType": "address",
          "name": "token",
          "type": "address"
        }
      ],
      "name": "Unlocked",
      "type": "event"
    },
    {
      "anonymous": false,
      "inputs": [
        {
          "indexed": false,
          "internalType": "address",
          "name": "account",
          "type": "address"
        }
      ],
      "name": "Unpaused",
      "type": "event"
    },
    {
      "inputs": [
        {
          "internalType": "address",
          "name": "",
          "type": "address"
        },
        {
          "internalType": "address",
          "name": "",
          "type": "address"
        }
      ],
      "name": "balances",
      "outputs": [
        {
          "internalType": "uint256",
          "name": "amount",
          "type": "uint256"
        },
        {
          "internalType": "uint256",
          "name": "cost",
          "type": "uint256"
        }
      ],
      "stateMutability": "view",
      "type": "function"
    },
    {
      "inputs": [
        {
          "internalType": "address",
          "name": "newPauser",
          "type": "address"
        }
      ],
      "name": "changePauser",
      "outputs": [],
      "stateMutability": "nonpayable",
      "type": "function"
    },
    {
      "inputs": [
        {
          "internalType": "address",
          "name": "token",
          "type": "address"
        },
        {
          "internalType": "uint256",
          "name": "newDelta",
          "type": "uint256"
        }
      ],
      "name": "changeReward",
      "outputs": [],
      "stateMutability": "nonpayable",
      "type": "function"
    },
    {
      "inputs": [
        {
          "internalType": "address",
          "name": "token",
          "type": "address"
        },
        {
          "internalType": "uint256",
          "name": "amount",
          "type": "uint256"
        }
      ],
      "name": "lock",
      "outputs": [],
      "stateMutability": "nonpayable",
      "type": "function"
    },
    {
      "inputs": [],
      "name": "owner",
      "outputs": [
        {
          "internalType": "address",
          "name": "",
          "type": "address"
        }
      ],
      "stateMutability": "view",
      "type": "function"
    },
    {
      "inputs": [],
      "name": "pause",
      "outputs": [],
      "stateMutability": "nonpayable",
      "type": "function"
    },
    {
      "inputs": [],
      "name": "paused",
      "outputs": [
        {
          "internalType": "bool",
          "name": "",
          "type": "bool"
        }
      ],
      "stateMutability": "view",
      "type": "function"
    },
    {
      "inputs": [],
      "name": "pauser",
      "outputs": [
        {
          "internalType": "address",
          "name": "",
          "type": "address"
        }
      ],
      "stateMutability": "view",
      "type": "function"
    },
    {
      "inputs": [
        {
          "internalType": "address",
          "name": "token",
          "type": "address"
        }
      ],
      "name": "price",
      "outputs": [
        {
          "internalType": "uint256",
          "name": "",
          "type": "uint256"
        }
      ],
      "stateMutability": "view",
      "type": "function"
    },
    {
      "inputs": [],
      "name": "renounceOwnership",
      "outputs": [],
      "stateMutability": "nonpayable",
      "type": "function"
    },
    {
      "inputs": [
        {
          "internalType": "address",
          "name": "token",
          "type": "address"
        }
      ],
      "name": "reward",
      "outputs": [
        {
          "internalType": "uint256",
          "name": "",
          "type": "uint256"
        }
      ],
      "stateMutability": "view",
      "type": "function"
    },
    {
      "inputs": [],
      "name": "rewardToken",
      "outputs": [
        {
          "internalType": "contract ERC20",
          "name": "",
          "type": "address"
        }
      ],
      "stateMutability": "view",
      "type": "function"
    },
    {
      "inputs": [
        {
          "internalType": "address",
          "name": "",
          "type": "address"
        }
      ],
      "name": "rewards",
      "outputs": [
        {
          "internalType": "uint256",
          "name": "delta",
          "type": "uint256"
        },
        {
          "internalType": "uint256",
          "name": "blockAt",
          "type": "uint256"
        },
        {
          "internalType": "uint256",
          "name": "priceAt",
          "type": "uint256"
        }
      ],
      "stateMutability": "view",
      "type": "function"
    },
    {
      "inputs": [
        {
          "internalType": "address",
          "name": "newOwner",
          "type": "address"
        }
      ],
      "name": "transferOwnership",
      "outputs": [],
      "stateMutability": "nonpayable",
      "type": "function"
    },
    {
      "inputs": [
        {
          "internalType": "address",
          "name": "token",
          "type": "address"
        }
      ],
      "name": "unlock",
      "outputs": [],
      "stateMutability": "nonpayable",
      "type": "function"
    },
    {
      "inputs": [],
      "name": "unpause",
      "outputs": [],
      "stateMutability": "nonpayable",
      "type": "function"
    }
  ],
  "bytecode": "0x60806040523480156200001157600080fd5b5060405162002779380380620027798339818101604052810190620000379190620001e1565b6000620000496200019960201b60201c565b9050806000806101000a81548173ffffffffffffffffffffffffffffffffffffffff021916908373ffffffffffffffffffffffffffffffffffffffff1602179055508073ffffffffffffffffffffffffffffffffffffffff16600073ffffffffffffffffffffffffffffffffffffffff167f8be0079c531659141344cd1fd0a4f28419497f9722a3daafe3b4186f6b6457e060405160405180910390a35060008060146101000a81548160ff02191690831515021790555062000111620001a160201b60201c565b600160006101000a81548173ffffffffffffffffffffffffffffffffffffffff021916908373ffffffffffffffffffffffffffffffffffffffff16021790555080600260006101000a81548173ffffffffffffffffffffffffffffffffffffffff021916908373ffffffffffffffffffffffffffffffffffffffff160217905550506200025b565b600033905090565b60008060009054906101000a900473ffffffffffffffffffffffffffffffffffffffff16905090565b600081519050620001db8162000241565b92915050565b600060208284031215620001f457600080fd5b60006200020484828501620001ca565b91505092915050565b60006200021a8262000221565b9050919050565b600073ffffffffffffffffffffffffffffffffffffffff82169050919050565b6200024c816200020d565b81146200025857600080fd5b50565b61250e806200026b6000396000f3fe608060405234801561001057600080fd5b50600436106101005760003560e01c8063715018a611610097578063aea9107811610066578063aea910781461024f578063c23f001f1461027f578063f2fde38b146102b0578063f7c618c1146102cc57610100565b8063715018a6146101ff5780638456cb59146102095780638da5cb5b146102135780639fd0506d1461023157610100565b80633f4ba83a116100d35780633f4ba83a1461018b578063555196cc146101955780635c975abb146101b15780636353586b146101cf57610100565b80630700037d14610105578063282d3fdf146101375780632cd271e7146101535780632f6c493c1461016f575b600080fd5b61011f600480360381019061011a91906119e8565b6102ea565b60405161012e93929190612320565b60405180910390f35b610151600480360381019061014c9190611a4d565b610314565b005b61016d600480360381019061016891906119e8565b61058f565b005b610189600480360381019061018491906119e8565b6106c1565b005b610193610978565b005b6101af60048036038101906101aa9190611a4d565b610a5d565b005b6101b9610c25565b6040516101c69190612104565b60405180910390f35b6101e960048036038101906101e491906119e8565b610c3b565b6040516101f691906122dc565b60405180910390f35b610207610db6565b005b610211610f09565b005b61021b610fee565b6040516102289190611fd7565b60405180910390f35b610239611017565b6040516102469190611fd7565b60405180910390f35b610269600480360381019061026491906119e8565b61103d565b60405161027691906122dc565b60405180910390f35b61029960048036038101906102949190611a11565b6110cc565b6040516102a79291906122f7565b60405180910390f35b6102ca60048036038101906102c591906119e8565b6110fd565b005b6102d46112bf565b6040516102e1919061211f565b60405180910390f35b60036020528060005260406000206000915090508060000154908060010154908060020154905083565b600060149054906101000a900460ff1615610364576040517f08c379a000000000000000000000000000000000000000000000000000000000815260040161035b9061221c565b60405180910390fd5b60008114156103a8576040517f08c379a000000000000000000000000000000000000000000000000000000000815260040161039f906121fc565b60405180910390fd5b6103d53330838573ffffffffffffffffffffffffffffffffffffffff166112e5909392919063ffffffff16565b6000600460003373ffffffffffffffffffffffffffffffffffffffff1673ffffffffffffffffffffffffffffffffffffffff16815260200190815260200160002060008473ffffffffffffffffffffffffffffffffffffffff1673ffffffffffffffffffffffffffffffffffffffff1681526020019081526020016000209050600061046e83836000015461136e90919063ffffffff16565b905060006104a36104906104818761103d565b866113c390919063ffffffff16565b846001015461136e90919063ffffffff16565b9050604051806040016040528083815260200182815250600460003373ffffffffffffffffffffffffffffffffffffffff1673ffffffffffffffffffffffffffffffffffffffff16815260200190815260200160002060008773ffffffffffffffffffffffffffffffffffffffff1673ffffffffffffffffffffffffffffffffffffffff16815260200190815260200160002060008201518160000155602082015181600101559050507f989eaa915cbb416ea3d6f9a63b1a3de51770c7674b11fe21ecdf76b4e1d1391033868660405161058093929190612036565b60405180910390a15050505050565b610597611433565b73ffffffffffffffffffffffffffffffffffffffff1660008054906101000a900473ffffffffffffffffffffffffffffffffffffffff1673ffffffffffffffffffffffffffffffffffffffff1614610624576040517f08c379a000000000000000000000000000000000000000000000000000000000815260040161061b9061225c565b60405180910390fd5b80600160006101000a81548173ffffffffffffffffffffffffffffffffffffffff021916908373ffffffffffffffffffffffffffffffffffffffff1602179055507fb80482a293ca2e013eda8683c9bd7fc8347cfdaeea5ede58cba46df502c2a604600160009054906101000a900473ffffffffffffffffffffffffffffffffffffffff166040516106b69190611fd7565b60405180910390a150565b600060149054906101000a900460ff1615610711576040517f08c379a00000000000000000000000000000000000000000000000000000000081526004016107089061221c565b60405180910390fd5b61071961197a565b600460003373ffffffffffffffffffffffffffffffffffffffff1673ffffffffffffffffffffffffffffffffffffffff16815260200190815260200160002060008373ffffffffffffffffffffffffffffffffffffffff1673ffffffffffffffffffffffffffffffffffffffff16815260200190815260200160002060405180604001604052908160008201548152602001600182015481525050905060008160000151116107fd576040517f08c379a00000000000000000000000000000000000000000000000000000000081526004016107f49061229c565b60405180910390fd5b600061080883610c3b565b90506040518060400160405280600081526020016000815250600460003373ffffffffffffffffffffffffffffffffffffffff1673ffffffffffffffffffffffffffffffffffffffff16815260200190815260200160002060008573ffffffffffffffffffffffffffffffffffffffff1673ffffffffffffffffffffffffffffffffffffffff16815260200190815260200160002060008201518160000155602082015181600101559050506108e33383600001518573ffffffffffffffffffffffffffffffffffffffff1661143b9092919063ffffffff16565b600081111561093a576109393382600260009054906101000a900473ffffffffffffffffffffffffffffffffffffffff1673ffffffffffffffffffffffffffffffffffffffff1661143b9092919063ffffffff16565b5b7f94deece35517fb95773e8f8b437e3e335de29d773663ccf055c2563b0bd6b99a338460405161096b92919061200d565b60405180910390a1505050565b610980611433565b73ffffffffffffffffffffffffffffffffffffffff16600160009054906101000a900473ffffffffffffffffffffffffffffffffffffffff1673ffffffffffffffffffffffffffffffffffffffff161480610a1457506109de611433565b73ffffffffffffffffffffffffffffffffffffffff166109fc610fee565b73ffffffffffffffffffffffffffffffffffffffff16145b610a53576040517f08c379a0000000000000000000000000000000000000000000000000000000008152600401610a4a906121bc565b60405180910390fd5b610a5b6114c1565b565b610a65611433565b73ffffffffffffffffffffffffffffffffffffffff1660008054906101000a900473ffffffffffffffffffffffffffffffffffffffff1673ffffffffffffffffffffffffffffffffffffffff1614610af2576040517f08c379a0000000000000000000000000000000000000000000000000000000008152600401610ae99061225c565b60405180910390fd5b6000600360008473ffffffffffffffffffffffffffffffffffffffff1673ffffffffffffffffffffffffffffffffffffffff16815260200190815260200160002090506040518060600160405280838152602001610b5a60014361156a90919063ffffffff16565b8152602001610b7e8360000154610b708761103d565b61156a90919063ffffffff16565b815250600360008573ffffffffffffffffffffffffffffffffffffffff1673ffffffffffffffffffffffffffffffffffffffff1681526020019081526020016000206000820151816000015560208201518160010155604082015181600201559050507f96e997fbb9668a29af391a5cd27f5a4d30484b18e7bb5fcaaf2f7075066eb67383826000015484604051610c18939291906120cd565b60405180910390a1505050565b60008060149054906101000a900460ff16905090565b600080600260009054906101000a900473ffffffffffffffffffffffffffffffffffffffff1673ffffffffffffffffffffffffffffffffffffffff1663313ce5676040518163ffffffff1660e01b815260040160206040518083038186803b158015610ca657600080fd5b505afa158015610cba573d6000803e3d6000fd5b505050506040513d601f19601f82011682018060405250810190610cde9190611ab2565b60ff1690506000600460003373ffffffffffffffffffffffffffffffffffffffff1673ffffffffffffffffffffffffffffffffffffffff16815260200190815260200160002060008573ffffffffffffffffffffffffffffffffffffffff1673ffffffffffffffffffffffffffffffffffffffff1681526020019081526020016000209050610dad82600a0a610d9f8360010154610d91610d7e8961103d565b86600001546113c390919063ffffffff16565b61156a90919063ffffffff16565b6115b490919063ffffffff16565b92505050919050565b610dbe611433565b73ffffffffffffffffffffffffffffffffffffffff1660008054906101000a900473ffffffffffffffffffffffffffffffffffffffff1673ffffffffffffffffffffffffffffffffffffffff1614610e4b576040517f08c379a0000000000000000000000000000000000000000000000000000000008152600401610e429061225c565b60405180910390fd5b600073ffffffffffffffffffffffffffffffffffffffff1660008054906101000a900473ffffffffffffffffffffffffffffffffffffffff1673ffffffffffffffffffffffffffffffffffffffff167f8be0079c531659141344cd1fd0a4f28419497f9722a3daafe3b4186f6b6457e060405160405180910390a360008060006101000a81548173ffffffffffffffffffffffffffffffffffffffff021916908373ffffffffffffffffffffffffffffffffffffffff160217905550565b610f11611433565b73ffffffffffffffffffffffffffffffffffffffff16600160009054906101000a900473ffffffffffffffffffffffffffffffffffffffff1673ffffffffffffffffffffffffffffffffffffffff161480610fa55750610f6f611433565b73ffffffffffffffffffffffffffffffffffffffff16610f8d610fee565b73ffffffffffffffffffffffffffffffffffffffff16145b610fe4576040517f08c379a0000000000000000000000000000000000000000000000000000000008152600401610fdb9061219c565b60405180910390fd5b610fec6115fe565b565b60008060009054906101000a900473ffffffffffffffffffffffffffffffffffffffff16905090565b600160009054906101000a900473ffffffffffffffffffffffffffffffffffffffff1681565b600080600360008473ffffffffffffffffffffffffffffffffffffffff1673ffffffffffffffffffffffffffffffffffffffff16815260200190815260200160002090506110c46110b161109e83600101544361156a90919063ffffffff16565b83600001546113c390919063ffffffff16565b826002015461136e90919063ffffffff16565b915050919050565b6004602052816000526040600020602052806000526040600020600091509150508060000154908060010154905082565b611105611433565b73ffffffffffffffffffffffffffffffffffffffff1660008054906101000a900473ffffffffffffffffffffffffffffffffffffffff1673ffffffffffffffffffffffffffffffffffffffff1614611192576040517f08c379a00000000000000000000000000000000000000000000000000000000081526004016111899061225c565b60405180910390fd5b600073ffffffffffffffffffffffffffffffffffffffff168173ffffffffffffffffffffffffffffffffffffffff161415611202576040517f08c379a00000000000000000000000000000000000000000000000000000000081526004016111f99061217c565b60405180910390fd5b8073ffffffffffffffffffffffffffffffffffffffff1660008054906101000a900473ffffffffffffffffffffffffffffffffffffffff1673ffffffffffffffffffffffffffffffffffffffff167f8be0079c531659141344cd1fd0a4f28419497f9722a3daafe3b4186f6b6457e060405160405180910390a3806000806101000a81548173ffffffffffffffffffffffffffffffffffffffff021916908373ffffffffffffffffffffffffffffffffffffffff16021790555050565b600260009054906101000a900473ffffffffffffffffffffffffffffffffffffffff1681565b611368846323b872dd60e01b8585856040516024016113069392919061206d565b604051602081830303815290604052907bffffffffffffffffffffffffffffffffffffffffffffffffffffffff19166020820180517bffffffffffffffffffffffffffffffffffffffffffffffffffffffff83818316178352505050506116a9565b50505050565b6000808284019050838110156113b9576040517f08c379a00000000000000000000000000000000000000000000000000000000081526004016113b0906121dc565b60405180910390fd5b8091505092915050565b6000808314156113d6576000905061142d565b60008284029050828482816113e757fe5b0414611428576040517f08c379a000000000000000000000000000000000000000000000000000000000815260040161141f9061223c565b60405180910390fd5b809150505b92915050565b600033905090565b6114bc8363a9059cbb60e01b848460405160240161145a9291906120a4565b604051602081830303815290604052907bffffffffffffffffffffffffffffffffffffffffffffffffffffffff19166020820180517bffffffffffffffffffffffffffffffffffffffffffffffffffffffff83818316178352505050506116a9565b505050565b600060149054906101000a900460ff16611510576040517f08c379a00000000000000000000000000000000000000000000000000000000081526004016115079061215c565b60405180910390fd5b60008060146101000a81548160ff0219169083151502179055507f5db9ee0a495bf2e6ff9c91a7834c1ba4fdd244a5e8aa4e537bd38aeae4b073aa611553611433565b6040516115609190611ff2565b60405180910390a1565b60006115ac83836040518060400160405280601e81526020017f536166654d6174683a207375627472616374696f6e206f766572666c6f770000815250611770565b905092915050565b60006115f683836040518060400160405280601a81526020017f536166654d6174683a206469766973696f6e206279207a65726f0000000000008152506117cb565b905092915050565b600060149054906101000a900460ff161561164e576040517f08c379a00000000000000000000000000000000000000000000000000000000081526004016116459061221c565b60405180910390fd5b6001600060146101000a81548160ff0219169083151502179055507f62e78cea01bee320cd4e420270b5ea74000d11b0c9f74754ebdbfc544b05a258611692611433565b60405161169f9190611ff2565b60405180910390a1565b606061170b826040518060400160405280602081526020017f5361666545524332303a206c6f772d6c6576656c2063616c6c206661696c65648152508573ffffffffffffffffffffffffffffffffffffffff1661182c9092919063ffffffff16565b905060008151111561176b578080602001905181019061172b9190611a89565b61176a576040517f08c379a0000000000000000000000000000000000000000000000000000000008152600401611761906122bc565b60405180910390fd5b5b505050565b60008383111582906117b8576040517f08c379a00000000000000000000000000000000000000000000000000000000081526004016117af919061213a565b60405180910390fd5b5060008385039050809150509392505050565b60008083118290611812576040517f08c379a0000000000000000000000000000000000000000000000000000000008152600401611809919061213a565b60405180910390fd5b50600083858161181e57fe5b049050809150509392505050565b606061183b8484600085611844565b90509392505050565b606061184f85611967565b61188e576040517f08c379a00000000000000000000000000000000000000000000000000000000081526004016118859061227c565b60405180910390fd5b600060608673ffffffffffffffffffffffffffffffffffffffff1685876040516118b89190611fc0565b60006040518083038185875af1925050503d80600081146118f5576040519150601f19603f3d011682016040523d82523d6000602084013e6118fa565b606091505b5091509150811561190f57809250505061195f565b6000815111156119225780518082602001fd5b836040517f08c379a0000000000000000000000000000000000000000000000000000000008152600401611956919061213a565b60405180910390fd5b949350505050565b600080823b905060008111915050919050565b604051806040016040528060008152602001600081525090565b6000813590506119a38161247c565b92915050565b6000815190506119b881612493565b92915050565b6000813590506119cd816124aa565b92915050565b6000815190506119e2816124c1565b92915050565b6000602082840312156119fa57600080fd5b6000611a0884828501611994565b91505092915050565b60008060408385031215611a2457600080fd5b6000611a3285828601611994565b9250506020611a4385828601611994565b9150509250929050565b60008060408385031215611a6057600080fd5b6000611a6e85828601611994565b9250506020611a7f858286016119be565b9150509250929050565b600060208284031215611a9b57600080fd5b6000611aa9848285016119a9565b91505092915050565b600060208284031215611ac457600080fd5b6000611ad2848285016119d3565b91505092915050565b611ae4816123de565b82525050565b611af381612389565b82525050565b611b028161239b565b82525050565b6000611b1382612357565b611b1d818561236d565b9350611b2d818560208601612438565b80840191505092915050565b611b42816123f0565b82525050565b6000611b5382612362565b611b5d8185612378565b9350611b6d818560208601612438565b611b768161246b565b840191505092915050565b6000611b8e601483612378565b91507f5061757361626c653a206e6f74207061757365640000000000000000000000006000830152602082019050919050565b6000611bce602683612378565b91507f4f776e61626c653a206e6577206f776e657220697320746865207a65726f206160008301527f64647265737300000000000000000000000000000000000000000000000000006020830152604082019050919050565b6000611c34604183612378565b91507f4f776e61626c655061757361626c653a3a70617573653a206f6e6c792070617560008301527f73657220616e64206f776e6572206d75737420706175736520636f6e7472616360208301527f74000000000000000000000000000000000000000000000000000000000000006040830152606082019050919050565b6000611cc0604583612378565b91507f4f776e61626c655061757361626c653a3a756e70617573653a206f6e6c79207060008301527f617573657220616e64206f776e6572206d75737420756e706175736520636f6e60208301527f74726163740000000000000000000000000000000000000000000000000000006040830152606082019050919050565b6000611d4c601b83612378565b91507f536166654d6174683a206164646974696f6e206f766572666c6f7700000000006000830152602082019050919050565b6000611d8c601f83612378565b91507f537461636b696e673a3a6c6f636b3a206e6567617469766520616d6f756e74006000830152602082019050919050565b6000611dcc601083612378565b91507f5061757361626c653a20706175736564000000000000000000000000000000006000830152602082019050919050565b6000611e0c602183612378565b91507f536166654d6174683a206d756c7469706c69636174696f6e206f766572666c6f60008301527f77000000000000000000000000000000000000000000000000000000000000006020830152604082019050919050565b6000611e72602083612378565b91507f4f776e61626c653a2063616c6c6572206973206e6f7420746865206f776e65726000830152602082019050919050565b6000611eb2601d83612378565b91507f416464726573733a2063616c6c20746f206e6f6e2d636f6e74726163740000006000830152602082019050919050565b6000611ef2602283612378565b91507f537461636b696e673a3a756e6c6f636b3a2062616c616e636520697320656d7060008301527f74790000000000000000000000000000000000000000000000000000000000006020830152604082019050919050565b6000611f58602a83612378565b91507f5361666545524332303a204552433230206f7065726174696f6e20646964206e60008301527f6f742073756363656564000000000000000000000000000000000000000000006020830152604082019050919050565b611fba816123c7565b82525050565b6000611fcc8284611b08565b915081905092915050565b6000602082019050611fec6000830184611aea565b92915050565b60006020820190506120076000830184611adb565b92915050565b60006040820190506120226000830185611adb565b61202f6020830184611aea565b9392505050565b600060608201905061204b6000830186611adb565b6120586020830185611aea565b6120656040830184611fb1565b949350505050565b60006060820190506120826000830186611aea565b61208f6020830185611aea565b61209c6040830184611fb1565b949350505050565b60006040820190506120b96000830185611aea565b6120c66020830184611fb1565b9392505050565b60006060820190506120e26000830186611aea565b6120ef6020830185611fb1565b6120fc6040830184611fb1565b949350505050565b60006020820190506121196000830184611af9565b92915050565b60006020820190506121346000830184611b39565b92915050565b600060208201905081810360008301526121548184611b48565b905092915050565b6000602082019050818103600083015261217581611b81565b9050919050565b6000602082019050818103600083015261219581611bc1565b9050919050565b600060208201905081810360008301526121b581611c27565b9050919050565b600060208201905081810360008301526121d581611cb3565b9050919050565b600060208201905081810360008301526121f581611d3f565b9050919050565b6000602082019050818103600083015261221581611d7f565b9050919050565b6000602082019050818103600083015261223581611dbf565b9050919050565b6000602082019050818103600083015261225581611dff565b9050919050565b6000602082019050818103600083015261227581611e65565b9050919050565b6000602082019050818103600083015261229581611ea5565b9050919050565b600060208201905081810360008301526122b581611ee5565b9050919050565b600060208201905081810360008301526122d581611f4b565b9050919050565b60006020820190506122f16000830184611fb1565b92915050565b600060408201905061230c6000830185611fb1565b6123196020830184611fb1565b9392505050565b60006060820190506123356000830186611fb1565b6123426020830185611fb1565b61234f6040830184611fb1565b949350505050565b600081519050919050565b600081519050919050565b600081905092915050565b600082825260208201905092915050565b6000612394826123a7565b9050919050565b60008115159050919050565b600073ffffffffffffffffffffffffffffffffffffffff82169050919050565b6000819050919050565b600060ff82169050919050565b60006123e982612414565b9050919050565b60006123fb82612402565b9050919050565b600061240d826123a7565b9050919050565b600061241f82612426565b9050919050565b6000612431826123a7565b9050919050565b60005b8381101561245657808201518184015260208101905061243b565b83811115612465576000848401525b50505050565b6000601f19601f8301169050919050565b61248581612389565b811461249057600080fd5b50565b61249c8161239b565b81146124a757600080fd5b50565b6124b3816123c7565b81146124be57600080fd5b50565b6124ca816123d1565b81146124d557600080fd5b5056fea2646970667358221220f350a2f4618ddcbfd06d6d4f59d532211ed3f23826af9d57c95ae4550996853764736f6c634300060c0033",
  "linkReferences": {},
  "deployedLinkReferences": {}
}