{
  "_format": "hh-sol-artifact-1",
  "contractName": "Stacking",
  "sourceName": "contracts/Stacking.sol",
  "abi": [
    {
      "inputs": [
        {
          "internalType": "address",
          "name": "_rewardToken",
          "type": "address"
        }
      ],
      "stateMutability": "nonpayable",
      "type": "constructor"
    },
    {
      "anonymous": false,
      "inputs": [
        {
          "indexed": false,
          "internalType": "address",
          "name": "account",
          "type": "address"
        },
        {
          "indexed": false,
          "internalType": "address",
          "name": "token",
          "type": "address"
        },
        {
          "indexed": false,
          "internalType": "uint256",
          "name": "amount",
          "type": "uint256"
        }
      ],
      "name": "Locked",
      "type": "event"
    },
    {
      "anonymous": false,
      "inputs": [
        {
          "indexed": true,
          "internalType": "address",
          "name": "previousOwner",
          "type": "address"
        },
        {
          "indexed": true,
          "internalType": "address",
          "name": "newOwner",
          "type": "address"
        }
      ],
      "name": "OwnershipTransferred",
      "type": "event"
    },
    {
      "anonymous": false,
      "inputs": [
        {
          "indexed": false,
          "internalType": "address",
          "name": "account",
          "type": "address"
        }
      ],
      "name": "Paused",
      "type": "event"
    },
    {
      "anonymous": false,
      "inputs": [
        {
          "indexed": false,
          "internalType": "address",
          "name": "newPauser",
          "type": "address"
        }
      ],
      "name": "PauserChanged",
      "type": "event"
    },
    {
      "anonymous": false,
      "inputs": [
        {
          "indexed": false,
          "internalType": "address",
          "name": "token",
          "type": "address"
        },
        {
          "indexed": false,
          "internalType": "uint256",
          "name": "from",
          "type": "uint256"
        },
        {
          "indexed": false,
          "internalType": "uint256",
          "name": "to",
          "type": "uint256"
        }
      ],
      "name": "RewardChanged",
      "type": "event"
    },
    {
      "anonymous": false,
      "inputs": [
        {
          "indexed": false,
          "internalType": "address",
          "name": "account",
          "type": "address"
        },
        {
          "indexed": false,
          "internalType": "address",
          "name": "token",
          "type": "address"
        }
      ],
      "name": "Unlocked",
      "type": "event"
    },
    {
      "anonymous": false,
      "inputs": [
        {
          "indexed": false,
          "internalType": "address",
          "name": "account",
          "type": "address"
        }
      ],
      "name": "Unpaused",
      "type": "event"
    },
    {
      "inputs": [
        {
          "internalType": "address",
          "name": "",
          "type": "address"
        },
        {
          "internalType": "address",
          "name": "",
          "type": "address"
        }
      ],
      "name": "balances",
      "outputs": [
        {
          "internalType": "uint256",
          "name": "amount",
          "type": "uint256"
        },
        {
          "internalType": "uint256",
          "name": "cost",
          "type": "uint256"
        }
      ],
      "stateMutability": "view",
      "type": "function"
    },
    {
      "inputs": [
        {
          "internalType": "address",
          "name": "newPauser",
          "type": "address"
        }
      ],
      "name": "changePauser",
      "outputs": [],
      "stateMutability": "nonpayable",
      "type": "function"
    },
    {
      "inputs": [
        {
          "internalType": "address",
          "name": "token",
          "type": "address"
        },
        {
          "internalType": "uint256",
          "name": "newDelta",
          "type": "uint256"
        }
      ],
      "name": "changeReward",
      "outputs": [],
      "stateMutability": "nonpayable",
      "type": "function"
    },
    {
      "inputs": [
        {
          "internalType": "address",
          "name": "token",
          "type": "address"
        },
        {
          "internalType": "uint256",
          "name": "amount",
          "type": "uint256"
        }
      ],
      "name": "lock",
      "outputs": [],
      "stateMutability": "nonpayable",
      "type": "function"
    },
    {
      "inputs": [],
      "name": "owner",
      "outputs": [
        {
          "internalType": "address",
          "name": "",
          "type": "address"
        }
      ],
      "stateMutability": "view",
      "type": "function"
    },
    {
      "inputs": [],
      "name": "pause",
      "outputs": [],
      "stateMutability": "nonpayable",
      "type": "function"
    },
    {
      "inputs": [],
      "name": "paused",
      "outputs": [
        {
          "internalType": "bool",
          "name": "",
          "type": "bool"
        }
      ],
      "stateMutability": "view",
      "type": "function"
    },
    {
      "inputs": [],
      "name": "pauser",
      "outputs": [
        {
          "internalType": "address",
          "name": "",
          "type": "address"
        }
      ],
      "stateMutability": "view",
      "type": "function"
    },
    {
      "inputs": [
        {
          "internalType": "address",
          "name": "token",
          "type": "address"
        }
      ],
      "name": "price",
      "outputs": [
        {
          "internalType": "uint256",
          "name": "",
          "type": "uint256"
        }
      ],
      "stateMutability": "view",
      "type": "function"
    },
    {
      "inputs": [],
      "name": "renounceOwnership",
      "outputs": [],
      "stateMutability": "nonpayable",
      "type": "function"
    },
    {
      "inputs": [
        {
          "internalType": "address",
          "name": "token",
          "type": "address"
        }
      ],
      "name": "reward",
      "outputs": [
        {
          "internalType": "uint256",
          "name": "",
          "type": "uint256"
        }
      ],
      "stateMutability": "view",
      "type": "function"
    },
    {
      "inputs": [],
      "name": "rewardToken",
      "outputs": [
        {
          "internalType": "contract ERC20",
          "name": "",
          "type": "address"
        }
      ],
      "stateMutability": "view",
      "type": "function"
    },
    {
      "inputs": [
        {
          "internalType": "address",
          "name": "",
          "type": "address"
        }
      ],
      "name": "rewards",
      "outputs": [
        {
          "internalType": "uint256",
          "name": "delta",
          "type": "uint256"
        },
        {
          "internalType": "uint256",
          "name": "blockAt",
          "type": "uint256"
        },
        {
          "internalType": "uint256",
          "name": "priceAt",
          "type": "uint256"
        }
      ],
      "stateMutability": "view",
      "type": "function"
    },
    {
      "inputs": [
        {
          "internalType": "address",
          "name": "newOwner",
          "type": "address"
        }
      ],
      "name": "transferOwnership",
      "outputs": [],
      "stateMutability": "nonpayable",
      "type": "function"
    },
    {
      "inputs": [
        {
          "internalType": "address",
          "name": "token",
          "type": "address"
        }
      ],
      "name": "unlock",
      "outputs": [],
      "stateMutability": "nonpayable",
      "type": "function"
    },
    {
      "inputs": [],
      "name": "unpause",
      "outputs": [],
      "stateMutability": "nonpayable",
      "type": "function"
    }
  ],
  "bytecode": "0x60806040523480156200001157600080fd5b506040516200277f3803806200277f8339818101604052620000379190810190620001e1565b6000620000496200019960201b60201c565b9050806000806101000a81548173ffffffffffffffffffffffffffffffffffffffff021916908373ffffffffffffffffffffffffffffffffffffffff1602179055508073ffffffffffffffffffffffffffffffffffffffff16600073ffffffffffffffffffffffffffffffffffffffff167f8be0079c531659141344cd1fd0a4f28419497f9722a3daafe3b4186f6b6457e060405160405180910390a35060008060146101000a81548160ff02191690831515021790555062000111620001a160201b60201c565b600160006101000a81548173ffffffffffffffffffffffffffffffffffffffff021916908373ffffffffffffffffffffffffffffffffffffffff16021790555080600260006101000a81548173ffffffffffffffffffffffffffffffffffffffff021916908373ffffffffffffffffffffffffffffffffffffffff160217905550506200025b565b600033905090565b60008060009054906101000a900473ffffffffffffffffffffffffffffffffffffffff16905090565b600081519050620001db8162000241565b92915050565b600060208284031215620001f457600080fd5b60006200020484828501620001ca565b91505092915050565b60006200021a8262000221565b9050919050565b600073ffffffffffffffffffffffffffffffffffffffff82169050919050565b6200024c816200020d565b81146200025857600080fd5b50565b612514806200026b6000396000f3fe608060405234801561001057600080fd5b50600436106101005760003560e01c8063715018a611610097578063aea9107811610066578063aea910781461024f578063c23f001f1461027f578063f2fde38b146102b0578063f7c618c1146102cc57610100565b8063715018a6146101ff5780638456cb59146102095780638da5cb5b146102135780639fd0506d1461023157610100565b80633f4ba83a116100d35780633f4ba83a1461018b578063555196cc146101955780635c975abb146101b15780636353586b146101cf57610100565b80630700037d14610105578063282d3fdf146101375780632cd271e7146101535780632f6c493c1461016f575b600080fd5b61011f600480360361011a91908101906119ee565b6102ea565b60405161012e93929190612326565b60405180910390f35b610151600480360361014c9190810190611a53565b610314565b005b61016d600480360361016891908101906119ee565b61058f565b005b610189600480360361018491908101906119ee565b6106c2565b005b610193610979565b005b6101af60048036036101aa9190810190611a53565b610a5e565b005b6101b9610c27565b6040516101c6919061210a565b60405180910390f35b6101e960048036036101e491908101906119ee565b610c3d565b6040516101f691906122e2565b60405180910390f35b610207610db8565b005b610211610f0d565b005b61021b610ff2565b6040516102289190611fdd565b60405180910390f35b61023961101b565b6040516102469190611fdd565b60405180910390f35b610269600480360361026491908101906119ee565b611041565b60405161027691906122e2565b60405180910390f35b61029960048036036102949190810190611a17565b6110d0565b6040516102a79291906122fd565b60405180910390f35b6102ca60048036036102c591908101906119ee565b611101565b005b6102d46112c5565b6040516102e19190612125565b60405180910390f35b60036020528060005260406000206000915090508060000154908060010154908060020154905083565b600060149054906101000a900460ff1615610364576040517f08c379a000000000000000000000000000000000000000000000000000000000815260040161035b90612222565b60405180910390fd5b60008114156103a8576040517f08c379a000000000000000000000000000000000000000000000000000000000815260040161039f90612202565b60405180910390fd5b6103d53330838573ffffffffffffffffffffffffffffffffffffffff166112eb909392919063ffffffff16565b6000600460003373ffffffffffffffffffffffffffffffffffffffff1673ffffffffffffffffffffffffffffffffffffffff16815260200190815260200160002060008473ffffffffffffffffffffffffffffffffffffffff1673ffffffffffffffffffffffffffffffffffffffff1681526020019081526020016000209050600061046e83836000015461137490919063ffffffff16565b905060006104a361049061048187611041565b866113c990919063ffffffff16565b846001015461137490919063ffffffff16565b9050604051806040016040528083815260200182815250600460003373ffffffffffffffffffffffffffffffffffffffff1673ffffffffffffffffffffffffffffffffffffffff16815260200190815260200160002060008773ffffffffffffffffffffffffffffffffffffffff1673ffffffffffffffffffffffffffffffffffffffff16815260200190815260200160002060008201518160000155602082015181600101559050507f989eaa915cbb416ea3d6f9a63b1a3de51770c7674b11fe21ecdf76b4e1d139103386866040516105809392919061203c565b60405180910390a15050505050565b610597611439565b73ffffffffffffffffffffffffffffffffffffffff166000809054906101000a900473ffffffffffffffffffffffffffffffffffffffff1673ffffffffffffffffffffffffffffffffffffffff1614610625576040517f08c379a000000000000000000000000000000000000000000000000000000000815260040161061c90612262565b60405180910390fd5b80600160006101000a81548173ffffffffffffffffffffffffffffffffffffffff021916908373ffffffffffffffffffffffffffffffffffffffff1602179055507fb80482a293ca2e013eda8683c9bd7fc8347cfdaeea5ede58cba46df502c2a604600160009054906101000a900473ffffffffffffffffffffffffffffffffffffffff166040516106b79190611fdd565b60405180910390a150565b600060149054906101000a900460ff1615610712576040517f08c379a000000000000000000000000000000000000000000000000000000000815260040161070990612222565b60405180910390fd5b61071a611980565b600460003373ffffffffffffffffffffffffffffffffffffffff1673ffffffffffffffffffffffffffffffffffffffff16815260200190815260200160002060008373ffffffffffffffffffffffffffffffffffffffff1673ffffffffffffffffffffffffffffffffffffffff16815260200190815260200160002060405180604001604052908160008201548152602001600182015481525050905060008160000151116107fe576040517f08c379a00000000000000000000000000000000000000000000000000000000081526004016107f5906122a2565b60405180910390fd5b600061080983610c3d565b90506040518060400160405280600081526020016000815250600460003373ffffffffffffffffffffffffffffffffffffffff1673ffffffffffffffffffffffffffffffffffffffff16815260200190815260200160002060008573ffffffffffffffffffffffffffffffffffffffff1673ffffffffffffffffffffffffffffffffffffffff16815260200190815260200160002060008201518160000155602082015181600101559050506108e43383600001518573ffffffffffffffffffffffffffffffffffffffff166114419092919063ffffffff16565b600081111561093b5761093a3382600260009054906101000a900473ffffffffffffffffffffffffffffffffffffffff1673ffffffffffffffffffffffffffffffffffffffff166114419092919063ffffffff16565b5b7f94deece35517fb95773e8f8b437e3e335de29d773663ccf055c2563b0bd6b99a338460405161096c929190612013565b60405180910390a1505050565b610981611439565b73ffffffffffffffffffffffffffffffffffffffff16600160009054906101000a900473ffffffffffffffffffffffffffffffffffffffff1673ffffffffffffffffffffffffffffffffffffffff161480610a1557506109df611439565b73ffffffffffffffffffffffffffffffffffffffff166109fd610ff2565b73ffffffffffffffffffffffffffffffffffffffff16145b610a54576040517f08c379a0000000000000000000000000000000000000000000000000000000008152600401610a4b906121c2565b60405180910390fd5b610a5c6114c7565b565b610a66611439565b73ffffffffffffffffffffffffffffffffffffffff166000809054906101000a900473ffffffffffffffffffffffffffffffffffffffff1673ffffffffffffffffffffffffffffffffffffffff1614610af4576040517f08c379a0000000000000000000000000000000000000000000000000000000008152600401610aeb90612262565b60405180910390fd5b6000600360008473ffffffffffffffffffffffffffffffffffffffff1673ffffffffffffffffffffffffffffffffffffffff16815260200190815260200160002090506040518060600160405280838152602001610b5c60014361157090919063ffffffff16565b8152602001610b808360000154610b7287611041565b61157090919063ffffffff16565b815250600360008573ffffffffffffffffffffffffffffffffffffffff1673ffffffffffffffffffffffffffffffffffffffff1681526020019081526020016000206000820151816000015560208201518160010155604082015181600201559050507f96e997fbb9668a29af391a5cd27f5a4d30484b18e7bb5fcaaf2f7075066eb67383826000015484604051610c1a939291906120d3565b60405180910390a1505050565b60008060149054906101000a900460ff16905090565b600080600260009054906101000a900473ffffffffffffffffffffffffffffffffffffffff1673ffffffffffffffffffffffffffffffffffffffff1663313ce5676040518163ffffffff1660e01b815260040160206040518083038186803b158015610ca857600080fd5b505afa158015610cbc573d6000803e3d6000fd5b505050506040513d601f19601f82011682018060405250610ce09190810190611ab8565b60ff1690506000600460003373ffffffffffffffffffffffffffffffffffffffff1673ffffffffffffffffffffffffffffffffffffffff16815260200190815260200160002060008573ffffffffffffffffffffffffffffffffffffffff1673ffffffffffffffffffffffffffffffffffffffff1681526020019081526020016000209050610daf82600a0a610da18360010154610d93610d8089611041565b86600001546113c990919063ffffffff16565b61157090919063ffffffff16565b6115ba90919063ffffffff16565b92505050919050565b610dc0611439565b73ffffffffffffffffffffffffffffffffffffffff166000809054906101000a900473ffffffffffffffffffffffffffffffffffffffff1673ffffffffffffffffffffffffffffffffffffffff1614610e4e576040517f08c379a0000000000000000000000000000000000000000000000000000000008152600401610e4590612262565b60405180910390fd5b600073ffffffffffffffffffffffffffffffffffffffff166000809054906101000a900473ffffffffffffffffffffffffffffffffffffffff1673ffffffffffffffffffffffffffffffffffffffff167f8be0079c531659141344cd1fd0a4f28419497f9722a3daafe3b4186f6b6457e060405160405180910390a360008060006101000a81548173ffffffffffffffffffffffffffffffffffffffff021916908373ffffffffffffffffffffffffffffffffffffffff160217905550565b610f15611439565b73ffffffffffffffffffffffffffffffffffffffff16600160009054906101000a900473ffffffffffffffffffffffffffffffffffffffff1673ffffffffffffffffffffffffffffffffffffffff161480610fa95750610f73611439565b73ffffffffffffffffffffffffffffffffffffffff16610f91610ff2565b73ffffffffffffffffffffffffffffffffffffffff16145b610fe8576040517f08c379a0000000000000000000000000000000000000000000000000000000008152600401610fdf906121a2565b60405180910390fd5b610ff0611604565b565b60008060009054906101000a900473ffffffffffffffffffffffffffffffffffffffff16905090565b600160009054906101000a900473ffffffffffffffffffffffffffffffffffffffff1681565b600080600360008473ffffffffffffffffffffffffffffffffffffffff1673ffffffffffffffffffffffffffffffffffffffff16815260200190815260200160002090506110c86110b56110a283600101544361157090919063ffffffff16565b83600001546113c990919063ffffffff16565b826002015461137490919063ffffffff16565b915050919050565b6004602052816000526040600020602052806000526040600020600091509150508060000154908060010154905082565b611109611439565b73ffffffffffffffffffffffffffffffffffffffff166000809054906101000a900473ffffffffffffffffffffffffffffffffffffffff1673ffffffffffffffffffffffffffffffffffffffff1614611197576040517f08c379a000000000000000000000000000000000000000000000000000000000815260040161118e90612262565b60405180910390fd5b600073ffffffffffffffffffffffffffffffffffffffff168173ffffffffffffffffffffffffffffffffffffffff161415611207576040517f08c379a00000000000000000000000000000000000000000000000000000000081526004016111fe90612182565b60405180910390fd5b8073ffffffffffffffffffffffffffffffffffffffff166000809054906101000a900473ffffffffffffffffffffffffffffffffffffffff1673ffffffffffffffffffffffffffffffffffffffff167f8be0079c531659141344cd1fd0a4f28419497f9722a3daafe3b4186f6b6457e060405160405180910390a3806000806101000a81548173ffffffffffffffffffffffffffffffffffffffff021916908373ffffffffffffffffffffffffffffffffffffffff16021790555050565b600260009054906101000a900473ffffffffffffffffffffffffffffffffffffffff1681565b61136e846323b872dd60e01b85858560405160240161130c93929190612073565b604051602081830303815290604052907bffffffffffffffffffffffffffffffffffffffffffffffffffffffff19166020820180517bffffffffffffffffffffffffffffffffffffffffffffffffffffffff83818316178352505050506116af565b50505050565b6000808284019050838110156113bf576040517f08c379a00000000000000000000000000000000000000000000000000000000081526004016113b6906121e2565b60405180910390fd5b8091505092915050565b6000808314156113dc5760009050611433565b60008284029050828482816113ed57fe5b041461142e576040517f08c379a000000000000000000000000000000000000000000000000000000000815260040161142590612242565b60405180910390fd5b809150505b92915050565b600033905090565b6114c28363a9059cbb60e01b84846040516024016114609291906120aa565b604051602081830303815290604052907bffffffffffffffffffffffffffffffffffffffffffffffffffffffff19166020820180517bffffffffffffffffffffffffffffffffffffffffffffffffffffffff83818316178352505050506116af565b505050565b600060149054906101000a900460ff16611516576040517f08c379a000000000000000000000000000000000000000000000000000000000815260040161150d90612162565b60405180910390fd5b60008060146101000a81548160ff0219169083151502179055507f5db9ee0a495bf2e6ff9c91a7834c1ba4fdd244a5e8aa4e537bd38aeae4b073aa611559611439565b6040516115669190611ff8565b60405180910390a1565b60006115b283836040518060400160405280601e81526020017f536166654d6174683a207375627472616374696f6e206f766572666c6f770000815250611776565b905092915050565b60006115fc83836040518060400160405280601a81526020017f536166654d6174683a206469766973696f6e206279207a65726f0000000000008152506117d1565b905092915050565b600060149054906101000a900460ff1615611654576040517f08c379a000000000000000000000000000000000000000000000000000000000815260040161164b90612222565b60405180910390fd5b6001600060146101000a81548160ff0219169083151502179055507f62e78cea01bee320cd4e420270b5ea74000d11b0c9f74754ebdbfc544b05a258611698611439565b6040516116a59190611ff8565b60405180910390a1565b6060611711826040518060400160405280602081526020017f5361666545524332303a206c6f772d6c6576656c2063616c6c206661696c65648152508573ffffffffffffffffffffffffffffffffffffffff166118329092919063ffffffff16565b905060008151111561177157808060200190516117319190810190611a8f565b611770576040517f08c379a0000000000000000000000000000000000000000000000000000000008152600401611767906122c2565b60405180910390fd5b5b505050565b60008383111582906117be576040517f08c379a00000000000000000000000000000000000000000000000000000000081526004016117b59190612140565b60405180910390fd5b5060008385039050809150509392505050565b60008083118290611818576040517f08c379a000000000000000000000000000000000000000000000000000000000815260040161180f9190612140565b60405180910390fd5b50600083858161182457fe5b049050809150509392505050565b6060611841848460008561184a565b90509392505050565b60606118558561196d565b611894576040517f08c379a000000000000000000000000000000000000000000000000000000000815260040161188b90612282565b60405180910390fd5b600060608673ffffffffffffffffffffffffffffffffffffffff1685876040516118be9190611fc6565b60006040518083038185875af1925050503d80600081146118fb576040519150601f19603f3d011682016040523d82523d6000602084013e611900565b606091505b50915091508115611915578092505050611965565b6000815111156119285780518082602001fd5b836040517f08c379a000000000000000000000000000000000000000000000000000000000815260040161195c9190612140565b60405180910390fd5b949350505050565b600080823b905060008111915050919050565b604051806040016040528060008152602001600081525090565b6000813590506119a981612482565b92915050565b6000815190506119be81612499565b92915050565b6000813590506119d3816124b0565b92915050565b6000815190506119e8816124c7565b92915050565b600060208284031215611a0057600080fd5b6000611a0e8482850161199a565b91505092915050565b60008060408385031215611a2a57600080fd5b6000611a388582860161199a565b9250506020611a498582860161199a565b9150509250929050565b60008060408385031215611a6657600080fd5b6000611a748582860161199a565b9250506020611a85858286016119c4565b9150509250929050565b600060208284031215611aa157600080fd5b6000611aaf848285016119af565b91505092915050565b600060208284031215611aca57600080fd5b6000611ad8848285016119d9565b91505092915050565b611aea816123e4565b82525050565b611af98161238f565b82525050565b611b08816123a1565b82525050565b6000611b198261235d565b611b238185612373565b9350611b3381856020860161243e565b80840191505092915050565b611b48816123f6565b82525050565b6000611b5982612368565b611b63818561237e565b9350611b7381856020860161243e565b611b7c81612471565b840191505092915050565b6000611b9460148361237e565b91507f5061757361626c653a206e6f74207061757365640000000000000000000000006000830152602082019050919050565b6000611bd460268361237e565b91507f4f776e61626c653a206e6577206f776e657220697320746865207a65726f206160008301527f64647265737300000000000000000000000000000000000000000000000000006020830152604082019050919050565b6000611c3a60418361237e565b91507f4f776e61626c655061757361626c653a3a70617573653a206f6e6c792070617560008301527f73657220616e64206f776e6572206d75737420706175736520636f6e7472616360208301527f74000000000000000000000000000000000000000000000000000000000000006040830152606082019050919050565b6000611cc660458361237e565b91507f4f776e61626c655061757361626c653a3a756e70617573653a206f6e6c79207060008301527f617573657220616e64206f776e6572206d75737420756e706175736520636f6e60208301527f74726163740000000000000000000000000000000000000000000000000000006040830152606082019050919050565b6000611d52601b8361237e565b91507f536166654d6174683a206164646974696f6e206f766572666c6f7700000000006000830152602082019050919050565b6000611d92601f8361237e565b91507f537461636b696e673a3a6c6f636b3a206e6567617469766520616d6f756e74006000830152602082019050919050565b6000611dd260108361237e565b91507f5061757361626c653a20706175736564000000000000000000000000000000006000830152602082019050919050565b6000611e1260218361237e565b91507f536166654d6174683a206d756c7469706c69636174696f6e206f766572666c6f60008301527f77000000000000000000000000000000000000000000000000000000000000006020830152604082019050919050565b6000611e7860208361237e565b91507f4f776e61626c653a2063616c6c6572206973206e6f7420746865206f776e65726000830152602082019050919050565b6000611eb8601d8361237e565b91507f416464726573733a2063616c6c20746f206e6f6e2d636f6e74726163740000006000830152602082019050919050565b6000611ef860228361237e565b91507f537461636b696e673a3a756e6c6f636b3a2062616c616e636520697320656d7060008301527f74790000000000000000000000000000000000000000000000000000000000006020830152604082019050919050565b6000611f5e602a8361237e565b91507f5361666545524332303a204552433230206f7065726174696f6e20646964206e60008301527f6f742073756363656564000000000000000000000000000000000000000000006020830152604082019050919050565b611fc0816123cd565b82525050565b6000611fd28284611b0e565b915081905092915050565b6000602082019050611ff26000830184611af0565b92915050565b600060208201905061200d6000830184611ae1565b92915050565b60006040820190506120286000830185611ae1565b6120356020830184611af0565b9392505050565b60006060820190506120516000830186611ae1565b61205e6020830185611af0565b61206b6040830184611fb7565b949350505050565b60006060820190506120886000830186611af0565b6120956020830185611af0565b6120a26040830184611fb7565b949350505050565b60006040820190506120bf6000830185611af0565b6120cc6020830184611fb7565b9392505050565b60006060820190506120e86000830186611af0565b6120f56020830185611fb7565b6121026040830184611fb7565b949350505050565b600060208201905061211f6000830184611aff565b92915050565b600060208201905061213a6000830184611b3f565b92915050565b6000602082019050818103600083015261215a8184611b4e565b905092915050565b6000602082019050818103600083015261217b81611b87565b9050919050565b6000602082019050818103600083015261219b81611bc7565b9050919050565b600060208201905081810360008301526121bb81611c2d565b9050919050565b600060208201905081810360008301526121db81611cb9565b9050919050565b600060208201905081810360008301526121fb81611d45565b9050919050565b6000602082019050818103600083015261221b81611d85565b9050919050565b6000602082019050818103600083015261223b81611dc5565b9050919050565b6000602082019050818103600083015261225b81611e05565b9050919050565b6000602082019050818103600083015261227b81611e6b565b9050919050565b6000602082019050818103600083015261229b81611eab565b9050919050565b600060208201905081810360008301526122bb81611eeb565b9050919050565b600060208201905081810360008301526122db81611f51565b9050919050565b60006020820190506122f76000830184611fb7565b92915050565b60006040820190506123126000830185611fb7565b61231f6020830184611fb7565b9392505050565b600060608201905061233b6000830186611fb7565b6123486020830185611fb7565b6123556040830184611fb7565b949350505050565b600081519050919050565b600081519050919050565b600081905092915050565b600082825260208201905092915050565b600061239a826123ad565b9050919050565b60008115159050919050565b600073ffffffffffffffffffffffffffffffffffffffff82169050919050565b6000819050919050565b600060ff82169050919050565b60006123ef8261241a565b9050919050565b600061240182612408565b9050919050565b6000612413826123ad565b9050919050565b60006124258261242c565b9050919050565b6000612437826123ad565b9050919050565b60005b8381101561245c578082015181840152602081019050612441565b8381111561246b576000848401525b50505050565b6000601f19601f8301169050919050565b61248b8161238f565b811461249657600080fd5b50565b6124a2816123a1565b81146124ad57600080fd5b50565b6124b9816123cd565b81146124c457600080fd5b50565b6124d0816123d7565b81146124db57600080fd5b5056fea26469706673582212204fb2bc967e5084c74a1c4aab4b45f9844d61cefb5706b6131282a0ce78f470c864736f6c63430006020033",
  "linkReferences": {},
  "deployedLinkReferences": {}
}