{
  "address": "0x37f677d3298ba5b5988f98C4D80610A3170db687",
  "abi": [
    {
      "anonymous": false,
      "inputs": [
        {
          "indexed": true,
          "internalType": "address",
          "name": "previousOwner",
          "type": "address"
        },
        {
          "indexed": true,
          "internalType": "address",
          "name": "newOwner",
          "type": "address"
        }
      ],
      "name": "OwnershipTransferred",
      "type": "event"
    },
    {
      "anonymous": false,
      "inputs": [
        {
          "indexed": false,
          "internalType": "string",
          "name": "isin",
          "type": "string"
        },
        {
          "indexed": false,
          "internalType": "uint256",
          "name": "amount",
          "type": "uint256"
        }
      ],
      "name": "Update",
      "type": "event"
    },
    {
      "inputs": [],
      "name": "all",
      "outputs": [
        {
          "components": [
            {
              "internalType": "string",
              "name": "isin",
              "type": "string"
            },
            {
              "internalType": "uint256",
              "name": "amount",
              "type": "uint256"
            }
          ],
          "internalType": "struct IDepositaryOracle.Security[]",
          "name": "",
          "type": "tuple[]"
        }
      ],
      "stateMutability": "view",
      "type": "function"
    },
    {
      "inputs": [
        {
          "internalType": "string",
          "name": "isin",
          "type": "string"
        }
      ],
      "name": "get",
      "outputs": [
        {
          "components": [
            {
              "internalType": "string",
              "name": "isin",
              "type": "string"
            },
            {
              "internalType": "uint256",
              "name": "amount",
              "type": "uint256"
            }
          ],
          "internalType": "struct IDepositaryOracle.Security",
          "name": "",
          "type": "tuple"
        }
      ],
      "stateMutability": "view",
      "type": "function"
    },
    {
      "inputs": [],
      "name": "maxSize",
      "outputs": [
        {
          "internalType": "uint256",
          "name": "",
          "type": "uint256"
        }
      ],
      "stateMutability": "pure",
      "type": "function"
    },
    {
      "inputs": [],
      "name": "owner",
      "outputs": [
        {
          "internalType": "address",
          "name": "",
          "type": "address"
        }
      ],
      "stateMutability": "view",
      "type": "function"
    },
    {
      "inputs": [
        {
          "internalType": "string",
          "name": "isin",
          "type": "string"
        },
        {
          "internalType": "uint256",
          "name": "amount",
          "type": "uint256"
        }
      ],
      "name": "put",
      "outputs": [],
      "stateMutability": "nonpayable",
      "type": "function"
    },
    {
      "inputs": [],
      "name": "renounceOwnership",
      "outputs": [],
      "stateMutability": "nonpayable",
      "type": "function"
    },
    {
      "inputs": [
        {
          "internalType": "address",
          "name": "newOwner",
          "type": "address"
        }
      ],
      "name": "transferOwnership",
      "outputs": [],
      "stateMutability": "nonpayable",
      "type": "function"
    }
  ],
  "transactionHash": "0x5548a82663684001ad3b7739d7ee92528b571c1e90cebf7921a8c0c70ba75df1",
  "args": [],
  "solcInputHash": "ada1febcc808662b03fc4e29c5d319e3",
  "bytecode": "0x608060405234801561001057600080fd5b5060006100216100c460201b60201c565b9050806000806101000a81548173ffffffffffffffffffffffffffffffffffffffff021916908373ffffffffffffffffffffffffffffffffffffffff1602179055508073ffffffffffffffffffffffffffffffffffffffff16600073ffffffffffffffffffffffffffffffffffffffff167f8be0079c531659141344cd1fd0a4f28419497f9722a3daafe3b4186f6b6457e060405160405180910390a3506100cc565b600033905090565b611186806100db6000396000f3fe608060405234801561001057600080fd5b506004361061007d5760003560e01c8063715018a61161005b578063715018a6146100ee5780638da5cb5b146100f8578063f2fde38b14610116578063fa0bef9b146101325761007d565b806310c4e8b0146100825780632565b159146100a0578063693ec85e146100be575b600080fd5b61008a61014e565b6040516100979190610f1c565b60405180910390f35b6100a86102d1565b6040516100b59190610ff2565b60405180910390f35b6100d860048036038101906100d39190610adf565b6102da565b6040516100e59190610fd0565b60405180910390f35b6100f66103c1565b005b610100610514565b60405161010d9190610f01565b60405180910390f35b610130600480360381019061012b9190610ab6565b61053d565b005b61014c60048036038101906101479190610b24565b6106ff565b005b60608060028054905067ffffffffffffffff8111801561016d57600080fd5b506040519080825280602002602001820160405280156101a757816020015b61019461090b565b81526020019060019003908161018c5790505b50905060005b6002805490508110156102c9576001600282815481106101c957fe5b906000526020600020016040516101e09190610eea565b9081526020016040518091039020604051806040016040529081600082018054600181600116156101000203166002900480601f0160208091040260200160405190810160405280929190818152602001828054600181600116156101000203166002900480156102925780601f1061026757610100808354040283529160200191610292565b820191906000526020600020905b81548152906001019060200180831161027557829003601f168201915b505050505081526020016001820154815250508282815181106102b157fe5b602002602001018190525080806001019150506101ad565b508091505090565b60006032905090565b6102e261090b565b600183836040516102f4929190610ed1565b9081526020016040518091039020604051806040016040529081600082018054600181600116156101000203166002900480601f0160208091040260200160405190810160405280929190818152602001828054600181600116156101000203166002900480156103a65780601f1061037b576101008083540402835291602001916103a6565b820191906000526020600020905b81548152906001019060200180831161038957829003601f168201915b50505050508152602001600182015481525050905092915050565b6103c9610903565b73ffffffffffffffffffffffffffffffffffffffff1660008054906101000a900473ffffffffffffffffffffffffffffffffffffffff1673ffffffffffffffffffffffffffffffffffffffff1614610456576040517f08c379a000000000000000000000000000000000000000000000000000000000815260040161044d90610fb0565b60405180910390fd5b600073ffffffffffffffffffffffffffffffffffffffff1660008054906101000a900473ffffffffffffffffffffffffffffffffffffffff1673ffffffffffffffffffffffffffffffffffffffff167f8be0079c531659141344cd1fd0a4f28419497f9722a3daafe3b4186f6b6457e060405160405180910390a360008060006101000a81548173ffffffffffffffffffffffffffffffffffffffff021916908373ffffffffffffffffffffffffffffffffffffffff160217905550565b60008060009054906101000a900473ffffffffffffffffffffffffffffffffffffffff16905090565b610545610903565b73ffffffffffffffffffffffffffffffffffffffff1660008054906101000a900473ffffffffffffffffffffffffffffffffffffffff1673ffffffffffffffffffffffffffffffffffffffff16146105d2576040517f08c379a00000000000000000000000000000000000000000000000000000000081526004016105c990610fb0565b60405180910390fd5b600073ffffffffffffffffffffffffffffffffffffffff168173ffffffffffffffffffffffffffffffffffffffff161415610642576040517f08c379a000000000000000000000000000000000000000000000000000000000815260040161063990610f70565b60405180910390fd5b8073ffffffffffffffffffffffffffffffffffffffff1660008054906101000a900473ffffffffffffffffffffffffffffffffffffffff1673ffffffffffffffffffffffffffffffffffffffff167f8be0079c531659141344cd1fd0a4f28419497f9722a3daafe3b4186f6b6457e060405160405180910390a3806000806101000a81548173ffffffffffffffffffffffffffffffffffffffff021916908373ffffffffffffffffffffffffffffffffffffffff16021790555050565b610707610903565b73ffffffffffffffffffffffffffffffffffffffff1660008054906101000a900473ffffffffffffffffffffffffffffffffffffffff1673ffffffffffffffffffffffffffffffffffffffff1614610794576040517f08c379a000000000000000000000000000000000000000000000000000000000815260040161078b90610fb0565b60405180910390fd5b61079c6102d1565b600280549050106107e2576040517f08c379a00000000000000000000000000000000000000000000000000000000081526004016107d990610f90565b60405180910390fd5b604051806040016040528084848080601f016020809104026020016040519081016040528093929190818152602001838380828437600081840152601f19601f820116905080830192505050505050508152602001828152506001848460405161084d929190610ed1565b90815260200160405180910390206000820151816000019080519060200190610877929190610925565b506020820151816001015590505060028383909180600181540180825580915050600190039060005260206000200160009091929091929091929091925091906108c29291906109a5565b507f68569b533bfdeb53ee0f87318e7aa1ad56335f80086c45dfaa733c24fa43ea7b8383836040516108f693929190610f3e565b60405180910390a1505050565b600033905090565b604051806040016040528060608152602001600081525090565b828054600181600116156101000203166002900490600052602060002090601f016020900481019282601f1061096657805160ff1916838001178555610994565b82800160010185558215610994579182015b82811115610993578251825591602001919060010190610978565b5b5090506109a19190610a25565b5090565b828054600181600116156101000203166002900490600052602060002090601f016020900481019282601f106109e657803560ff1916838001178555610a14565b82800160010185558215610a14579182015b82811115610a135782358255916020019190600101906109f8565b5b509050610a219190610a25565b5090565b5b80821115610a3e576000816000905550600101610a26565b5090565b600081359050610a5181611122565b92915050565b60008083601f840112610a6957600080fd5b8235905067ffffffffffffffff811115610a8257600080fd5b602083019150836001820283011115610a9a57600080fd5b9250929050565b600081359050610ab081611139565b92915050565b600060208284031215610ac857600080fd5b6000610ad684828501610a42565b91505092915050565b60008060208385031215610af257600080fd5b600083013567ffffffffffffffff811115610b0c57600080fd5b610b1885828601610a57565b92509250509250929050565b600080600060408486031215610b3957600080fd5b600084013567ffffffffffffffff811115610b5357600080fd5b610b5f86828701610a57565b93509350506020610b7286828701610aa1565b9150509250925092565b6000610b888383610e39565b905092915050565b610b9981611093565b82525050565b6000610baa82611032565b610bb48185611055565b935083602082028501610bc68561100d565b8060005b85811015610c025784840389528151610be38582610b7c565b9450610bee83611048565b925060208a01995050600181019050610bca565b50829750879550505050505092915050565b6000610c208385611077565b9350610c2d8385846110cf565b610c3683611111565b840190509392505050565b6000610c4d8385611088565b9350610c5a8385846110cf565b82840190509392505050565b6000610c718261103d565b610c7b8185611066565b9350610c8b8185602086016110de565b610c9481611111565b840191505092915050565b600081546001811660008114610cbc5760018114610ce157610d25565b607f6002830416610ccd8187611088565b955060ff1983168652808601935050610d25565b60028204610cef8187611088565b9550610cfa8561101d565b60005b82811015610d1c57815481890152600182019150602081019050610cfd565b82880195505050505b505092915050565b6000610d3a602683611077565b91507f4f776e61626c653a206e6577206f776e657220697320746865207a65726f206160008301527f64647265737300000000000000000000000000000000000000000000000000006020830152604082019050919050565b6000610da0602a83611077565b91507f4465706f7369746172794f7261636c653a3a7075743a20746f6f206d616e792060008301527f73656375726974696573000000000000000000000000000000000000000000006020830152604082019050919050565b6000610e06602083611077565b91507f4f776e61626c653a2063616c6c6572206973206e6f7420746865206f776e65726000830152602082019050919050565b60006040830160008301518482036000860152610e568282610c66565b9150506020830151610e6b6020860182610eb3565b508091505092915050565b60006040830160008301518482036000860152610e938282610c66565b9150506020830151610ea86020860182610eb3565b508091505092915050565b610ebc816110c5565b82525050565b610ecb816110c5565b82525050565b6000610ede828486610c41565b91508190509392505050565b6000610ef68284610c9f565b915081905092915050565b6000602082019050610f166000830184610b90565b92915050565b60006020820190508181036000830152610f368184610b9f565b905092915050565b60006040820190508181036000830152610f59818587610c14565b9050610f686020830184610ec2565b949350505050565b60006020820190508181036000830152610f8981610d2d565b9050919050565b60006020820190508181036000830152610fa981610d93565b9050919050565b60006020820190508181036000830152610fc981610df9565b9050919050565b60006020820190508181036000830152610fea8184610e76565b905092915050565b60006020820190506110076000830184610ec2565b92915050565b6000819050602082019050919050565b60008190508160005260206000209050919050565b600081519050919050565b600081519050919050565b6000602082019050919050565b600082825260208201905092915050565b600082825260208201905092915050565b600082825260208201905092915050565b600081905092915050565b600061109e826110a5565b9050919050565b600073ffffffffffffffffffffffffffffffffffffffff82169050919050565b6000819050919050565b82818337600083830152505050565b60005b838110156110fc5780820151818401526020810190506110e1565b8381111561110b576000848401525b50505050565b6000601f19601f8301169050919050565b61112b81611093565b811461113657600080fd5b50565b611142816110c5565b811461114d57600080fd5b5056fea2646970667358221220020b7cf0a8ebe0de13d1d1714004309d6cbba03aca364b00c1a32cf80811621164736f6c634300060c0033",
  "devdoc": {
    "kind": "dev",
    "methods": {
      "all()": {
        "returns": {
          "_0": "All securities."
        }
      },
      "get(string)": {
        "params": {
          "isin": "International securities identification number."
        },
        "returns": {
          "_0": "amount Amount of securities."
        }
      },
      "owner()": {
        "details": "Returns the address of the current owner."
      },
      "put(string,uint256)": {
        "params": {
          "amount": "Amount of securities.",
          "isin": "International securities identification number."
        }
      },
      "renounceOwnership()": {
        "details": "Leaves the contract without owner. It will not be possible to call `onlyOwner` functions anymore. Can only be called by the current owner. NOTE: Renouncing ownership will leave the contract without an owner, thereby removing any functionality that is only available to the owner."
      },
      "transferOwnership(address)": {
        "details": "Transfers ownership of the contract to a new account (`newOwner`). Can only be called by the current owner."
      }
    },
    "stateVariables": {
      "bonds": {
        "details": "Securities in depositary."
      },
      "keys": {
        "details": "ISIN in depositary."
      }
    },
    "version": 1
  },
  "userdoc": {
    "kind": "user",
    "methods": {
      "all()": {
        "notice": "Get all depositary securities."
      },
      "get(string)": {
        "notice": "Get amount securities."
      },
      "maxSize()": {
        "notice": "The maximum number of security in this depositary."
      },
      "put(string,uint256)": {
        "notice": "Write a security amount to the storage mapping."
      }
    },
    "version": 1
  },
  "storageLayout": {
    "storage": [
      {
        "astId": 30,
        "contract": "contracts/oracle/DepositaryOracle.sol:DepositaryOracle",
        "label": "_owner",
        "offset": 0,
        "slot": "0",
        "type": "t_address"
      },
      {
        "astId": 8644,
        "contract": "contracts/oracle/DepositaryOracle.sol:DepositaryOracle",
        "label": "bonds",
        "offset": 0,
        "slot": "1",
        "type": "t_mapping(t_string_memory_ptr,t_struct(Security)8986_storage)"
      },
      {
        "astId": 8648,
        "contract": "contracts/oracle/DepositaryOracle.sol:DepositaryOracle",
        "label": "keys",
        "offset": 0,
        "slot": "2",
        "type": "t_array(t_string_storage)dyn_storage"
      }
    ],
    "types": {
      "t_address": {
        "encoding": "inplace",
        "label": "address",
        "numberOfBytes": "20"
      },
      "t_array(t_string_storage)dyn_storage": {
        "base": "t_string_storage",
        "encoding": "dynamic_array",
        "label": "string[]",
        "numberOfBytes": "32"
      },
      "t_mapping(t_string_memory_ptr,t_struct(Security)8986_storage)": {
        "encoding": "mapping",
        "key": "t_string_memory_ptr",
        "label": "mapping(string => struct IDepositaryOracle.Security)",
        "numberOfBytes": "32",
        "value": "t_struct(Security)8986_storage"
      },
      "t_string_memory_ptr": {
        "encoding": "bytes",
        "label": "string",
        "numberOfBytes": "32"
      },
      "t_string_storage": {
        "encoding": "bytes",
        "label": "string",
        "numberOfBytes": "32"
      },
      "t_struct(Security)8986_storage": {
        "encoding": "inplace",
        "label": "struct IDepositaryOracle.Security",
        "members": [
          {
            "astId": 8983,
            "contract": "contracts/oracle/DepositaryOracle.sol:DepositaryOracle",
            "label": "isin",
            "offset": 0,
            "slot": "0",
            "type": "t_string_storage"
          },
          {
            "astId": 8985,
            "contract": "contracts/oracle/DepositaryOracle.sol:DepositaryOracle",
            "label": "amount",
            "offset": 0,
            "slot": "1",
            "type": "t_uint256"
          }
        ],
        "numberOfBytes": "64"
      },
      "t_uint256": {
        "encoding": "inplace",
        "label": "uint256",
        "numberOfBytes": "32"
      }
    }
  }
}