{
  "address": "0xDd6a01bF591cA7850b3A498319818F8638d24f8a",
  "abi": [
    {
      "inputs": [
        {
          "internalType": "address",
          "name": "_timelock",
          "type": "address"
        },
        {
          "internalType": "address",
          "name": "_governanceToken",
          "type": "address"
        },
        {
          "internalType": "address",
          "name": "_guardian",
          "type": "address"
        }
      ],
      "stateMutability": "nonpayable",
      "type": "constructor"
    },
    {
      "anonymous": false,
      "inputs": [
        {
          "indexed": false,
          "internalType": "uint256",
          "name": "id",
          "type": "uint256"
        }
      ],
      "name": "ProposalCanceled",
      "type": "event"
    },
    {
      "anonymous": false,
      "inputs": [
        {
          "indexed": false,
          "internalType": "uint256",
          "name": "id",
          "type": "uint256"
        },
        {
          "indexed": false,
          "internalType": "address",
          "name": "proposer",
          "type": "address"
        },
        {
          "indexed": false,
          "internalType": "address[]",
          "name": "targets",
          "type": "address[]"
        },
        {
          "indexed": false,
          "internalType": "uint256[]",
          "name": "values",
          "type": "uint256[]"
        },
        {
          "indexed": false,
          "internalType": "string[]",
          "name": "signatures",
          "type": "string[]"
        },
        {
          "indexed": false,
          "internalType": "bytes[]",
          "name": "calldatas",
          "type": "bytes[]"
        },
        {
          "indexed": false,
          "internalType": "uint256",
          "name": "startBlock",
          "type": "uint256"
        },
        {
          "indexed": false,
          "internalType": "uint256",
          "name": "endBlock",
          "type": "uint256"
        },
        {
          "indexed": false,
          "internalType": "string",
          "name": "description",
          "type": "string"
        }
      ],
      "name": "ProposalCreated",
      "type": "event"
    },
    {
      "anonymous": false,
      "inputs": [
        {
          "indexed": false,
          "internalType": "uint256",
          "name": "id",
          "type": "uint256"
        }
      ],
      "name": "ProposalExecuted",
      "type": "event"
    },
    {
      "anonymous": false,
      "inputs": [
        {
          "indexed": false,
          "internalType": "uint256",
          "name": "id",
          "type": "uint256"
        },
        {
          "indexed": false,
          "internalType": "uint256",
          "name": "eta",
          "type": "uint256"
        }
      ],
      "name": "ProposalQueued",
      "type": "event"
    },
    {
      "anonymous": false,
      "inputs": [
        {
          "indexed": false,
          "internalType": "address",
          "name": "voter",
          "type": "address"
        },
        {
          "indexed": false,
          "internalType": "uint256",
          "name": "proposalId",
          "type": "uint256"
        },
        {
          "indexed": false,
          "internalType": "bool",
          "name": "support",
          "type": "bool"
        },
        {
          "indexed": false,
          "internalType": "uint256",
          "name": "votes",
          "type": "uint256"
        }
      ],
      "name": "VoteCast",
      "type": "event"
    },
    {
      "inputs": [],
      "name": "BALLOT_TYPEHASH",
      "outputs": [
        {
          "internalType": "bytes32",
          "name": "",
          "type": "bytes32"
        }
      ],
      "stateMutability": "view",
      "type": "function"
    },
    {
      "inputs": [],
      "name": "DOMAIN_TYPEHASH",
      "outputs": [
        {
          "internalType": "bytes32",
          "name": "",
          "type": "bytes32"
        }
      ],
      "stateMutability": "view",
      "type": "function"
    },
    {
      "inputs": [],
      "name": "__abdicate",
      "outputs": [],
      "stateMutability": "nonpayable",
      "type": "function"
    },
    {
      "inputs": [],
      "name": "__acceptAdmin",
      "outputs": [],
      "stateMutability": "nonpayable",
      "type": "function"
    },
    {
      "inputs": [
        {
          "internalType": "address",
          "name": "newPendingAdmin",
          "type": "address"
        },
        {
          "internalType": "uint256",
          "name": "eta",
          "type": "uint256"
        }
      ],
      "name": "__executeSetTimelockPendingAdmin",
      "outputs": [],
      "stateMutability": "nonpayable",
      "type": "function"
    },
    {
      "inputs": [
        {
          "internalType": "address",
          "name": "newPendingAdmin",
          "type": "address"
        },
        {
          "internalType": "uint256",
          "name": "eta",
          "type": "uint256"
        }
      ],
      "name": "__queueSetTimelockPendingAdmin",
      "outputs": [],
      "stateMutability": "nonpayable",
      "type": "function"
    },
    {
      "inputs": [
        {
          "internalType": "uint256",
          "name": "proposalId",
          "type": "uint256"
        }
      ],
      "name": "cancel",
      "outputs": [],
      "stateMutability": "nonpayable",
      "type": "function"
    },
    {
      "inputs": [
        {
          "internalType": "uint256",
          "name": "proposalId",
          "type": "uint256"
        },
        {
          "internalType": "bool",
          "name": "support",
          "type": "bool"
        }
      ],
      "name": "castVote",
      "outputs": [],
      "stateMutability": "nonpayable",
      "type": "function"
    },
    {
      "inputs": [
        {
          "internalType": "uint256",
          "name": "proposalId",
          "type": "uint256"
        },
        {
          "internalType": "bool",
          "name": "support",
          "type": "bool"
        },
        {
          "internalType": "uint8",
          "name": "v",
          "type": "uint8"
        },
        {
          "internalType": "bytes32",
          "name": "r",
          "type": "bytes32"
        },
        {
          "internalType": "bytes32",
          "name": "s",
          "type": "bytes32"
        }
      ],
      "name": "castVoteBySig",
      "outputs": [],
      "stateMutability": "nonpayable",
      "type": "function"
    },
    {
      "inputs": [
        {
          "internalType": "uint256",
          "name": "proposalId",
          "type": "uint256"
        }
      ],
      "name": "execute",
      "outputs": [],
      "stateMutability": "payable",
      "type": "function"
    },
    {
      "inputs": [
        {
          "internalType": "uint256",
          "name": "proposalId",
          "type": "uint256"
        }
      ],
      "name": "getActions",
      "outputs": [
        {
          "internalType": "address[]",
          "name": "targets",
          "type": "address[]"
        },
        {
          "internalType": "uint256[]",
          "name": "values",
          "type": "uint256[]"
        },
        {
          "internalType": "string[]",
          "name": "signatures",
          "type": "string[]"
        },
        {
          "internalType": "bytes[]",
          "name": "calldatas",
          "type": "bytes[]"
        }
      ],
      "stateMutability": "view",
      "type": "function"
    },
    {
      "inputs": [
        {
          "internalType": "uint256",
          "name": "proposalId",
          "type": "uint256"
        },
        {
          "internalType": "address",
          "name": "voter",
          "type": "address"
        }
      ],
      "name": "getReceipt",
      "outputs": [
        {
          "components": [
            {
              "internalType": "bool",
              "name": "hasVoted",
              "type": "bool"
            },
            {
              "internalType": "bool",
              "name": "support",
              "type": "bool"
            },
            {
              "internalType": "uint96",
              "name": "votes",
              "type": "uint96"
            }
          ],
          "internalType": "struct GovernorAlpha.Receipt",
          "name": "",
          "type": "tuple"
        }
      ],
      "stateMutability": "view",
      "type": "function"
    },
    {
      "inputs": [],
      "name": "governanceToken",
      "outputs": [
        {
          "internalType": "contract GovernanceTokenInterface",
          "name": "",
          "type": "address"
        }
      ],
      "stateMutability": "view",
      "type": "function"
    },
    {
      "inputs": [],
      "name": "guardian",
      "outputs": [
        {
          "internalType": "address",
          "name": "",
          "type": "address"
        }
      ],
      "stateMutability": "view",
      "type": "function"
    },
    {
      "inputs": [
        {
          "internalType": "address",
          "name": "",
          "type": "address"
        }
      ],
      "name": "latestProposalIds",
      "outputs": [
        {
          "internalType": "uint256",
          "name": "",
          "type": "uint256"
        }
      ],
      "stateMutability": "view",
      "type": "function"
    },
    {
      "inputs": [],
      "name": "name",
      "outputs": [
        {
          "internalType": "string",
          "name": "",
          "type": "string"
        }
      ],
      "stateMutability": "view",
      "type": "function"
    },
    {
      "inputs": [],
      "name": "proposalCount",
      "outputs": [
        {
          "internalType": "uint256",
          "name": "",
          "type": "uint256"
        }
      ],
      "stateMutability": "view",
      "type": "function"
    },
    {
      "inputs": [],
      "name": "proposalMaxOperations",
      "outputs": [
        {
          "internalType": "uint256",
          "name": "",
          "type": "uint256"
        }
      ],
      "stateMutability": "pure",
      "type": "function"
    },
    {
      "inputs": [],
      "name": "proposalThreshold",
      "outputs": [
        {
          "internalType": "uint256",
          "name": "",
          "type": "uint256"
        }
      ],
      "stateMutability": "pure",
      "type": "function"
    },
    {
      "inputs": [
        {
          "internalType": "uint256",
          "name": "",
          "type": "uint256"
        }
      ],
      "name": "proposals",
      "outputs": [
        {
          "internalType": "uint256",
          "name": "id",
          "type": "uint256"
        },
        {
          "internalType": "address",
          "name": "proposer",
          "type": "address"
        },
        {
          "internalType": "uint256",
          "name": "eta",
          "type": "uint256"
        },
        {
          "internalType": "uint256",
          "name": "startBlock",
          "type": "uint256"
        },
        {
          "internalType": "uint256",
          "name": "endBlock",
          "type": "uint256"
        },
        {
          "internalType": "uint256",
          "name": "forVotes",
          "type": "uint256"
        },
        {
          "internalType": "uint256",
          "name": "againstVotes",
          "type": "uint256"
        },
        {
          "internalType": "bool",
          "name": "canceled",
          "type": "bool"
        },
        {
          "internalType": "bool",
          "name": "executed",
          "type": "bool"
        }
      ],
      "stateMutability": "view",
      "type": "function"
    },
    {
      "inputs": [
        {
          "internalType": "address[]",
          "name": "targets",
          "type": "address[]"
        },
        {
          "internalType": "uint256[]",
          "name": "values",
          "type": "uint256[]"
        },
        {
          "internalType": "string[]",
          "name": "signatures",
          "type": "string[]"
        },
        {
          "internalType": "bytes[]",
          "name": "calldatas",
          "type": "bytes[]"
        },
        {
          "internalType": "string",
          "name": "description",
          "type": "string"
        }
      ],
      "name": "propose",
      "outputs": [
        {
          "internalType": "uint256",
          "name": "",
          "type": "uint256"
        }
      ],
      "stateMutability": "nonpayable",
      "type": "function"
    },
    {
      "inputs": [
        {
          "internalType": "uint256",
          "name": "proposalId",
          "type": "uint256"
        }
      ],
      "name": "queue",
      "outputs": [],
      "stateMutability": "nonpayable",
      "type": "function"
    },
    {
      "inputs": [],
      "name": "quorumVotes",
      "outputs": [
        {
          "internalType": "uint256",
          "name": "",
          "type": "uint256"
        }
      ],
      "stateMutability": "pure",
      "type": "function"
    },
    {
      "inputs": [
        {
          "internalType": "uint256",
          "name": "proposalId",
          "type": "uint256"
        }
      ],
      "name": "state",
      "outputs": [
        {
          "internalType": "enum GovernorAlpha.ProposalState",
          "name": "",
          "type": "uint8"
        }
      ],
      "stateMutability": "view",
      "type": "function"
    },
    {
      "inputs": [],
      "name": "timelock",
      "outputs": [
        {
          "internalType": "contract TimelockInterface",
          "name": "",
          "type": "address"
        }
      ],
      "stateMutability": "view",
      "type": "function"
    },
    {
      "inputs": [],
      "name": "votingDelay",
      "outputs": [
        {
          "internalType": "uint256",
          "name": "",
          "type": "uint256"
        }
      ],
      "stateMutability": "pure",
      "type": "function"
    },
    {
      "inputs": [],
      "name": "votingPeriod",
      "outputs": [
        {
          "internalType": "uint256",
          "name": "",
          "type": "uint256"
        }
      ],
      "stateMutability": "pure",
      "type": "function"
    }
  ],
  "transactionHash": "0x1e6dd3ad303ebfd63cf90d79be06ec6ffa21b24633a0f1a1b867366567ed417c",
  "args": [
    "0x37C28b997550a7123C30d9A95a71e5ACD1B5db8b",
    "0x780086577C7A94eb907174e17D6Ef84cb223b861",
    "0x9403932015576D13Fb26B135ed7a35d5d95C18d4"
  ],
  "solcInputHash": "fceaa42279e740659bdd147cb404b1d5",
  "bytecode": "0x60806040523480156200001157600080fd5b506040516200524538038062005245833981810160405281019062000037919062000119565b826000806101000a81548173ffffffffffffffffffffffffffffffffffffffff021916908373ffffffffffffffffffffffffffffffffffffffff16021790555081600160006101000a81548173ffffffffffffffffffffffffffffffffffffffff021916908373ffffffffffffffffffffffffffffffffffffffff16021790555080600260006101000a81548173ffffffffffffffffffffffffffffffffffffffff021916908373ffffffffffffffffffffffffffffffffffffffff160217905550505050620001bd565b6000815190506200011381620001a3565b92915050565b6000806000606084860312156200012f57600080fd5b60006200013f8682870162000102565b9350506020620001528682870162000102565b9250506040620001658682870162000102565b9150509250925092565b60006200017c8262000183565b9050919050565b600073ffffffffffffffffffffffffffffffffffffffff82169050919050565b620001ae816200016f565b8114620001ba57600080fd5b50565b61507880620001cd6000396000f3fe60806040526004361061019c5760003560e01c80634634c61f116100ec578063da35c6641161008a578063deaaa7cc11610064578063deaaa7cc146105af578063e23a9a52146105da578063f96dae0a14610617578063fe0d94c1146106425761019c565b8063da35c6641461051e578063da95691a14610549578063ddf0b009146105865761019c565b806391500671116100c65780639150067114610488578063b58131b0146104b1578063b9a61961146104dc578063d33219b4146104f35761019c565b80634634c61f1461041d578063760fbc13146104465780637bdbe4d01461045d5761019c565b806321f43e42116101595780633932abb1116101335780633932abb1146103615780633e4f49e61461038c57806340e58ee5146103c9578063452a9320146103f25761019c565b806321f43e42146102cd57806324bc1a64146102f6578063328dd982146103215761019c565b8063013cf08b146101a157806302a251a3146101e657806306fdde031461021157806315373e3d1461023c57806317977c611461026557806320606b70146102a2575b600080fd5b3480156101ad57600080fd5b506101c860048036038101906101c3919061331c565b61065e565b6040516101dd99989796959493929190614ac2565b60405180910390f35b3480156101f257600080fd5b506101fb6106e6565b60405161020891906149f7565b60405180910390f35b34801561021d57600080fd5b506102266106f0565b604051610233919061471a565b60405180910390f35b34801561024857600080fd5b50610263600480360381019061025e91906133aa565b610729565b005b34801561027157600080fd5b5061028c60048036038101906102879190613135565b610738565b60405161029991906149f7565b60405180910390f35b3480156102ae57600080fd5b506102b7610750565b6040516102c491906145ed565b60405180910390f35b3480156102d957600080fd5b506102f460048036038101906102ef919061315e565b610774565b005b34801561030257600080fd5b5061030b6108ff565b60405161031891906149f7565b60405180910390f35b34801561032d57600080fd5b506103486004803603810190610343919061331c565b610911565b604051610358949392919061458c565b60405180910390f35b34801561036d57600080fd5b50610376610bee565b60405161038391906149f7565b60405180910390f35b34801561039857600080fd5b506103b360048036038101906103ae919061331c565b610bf7565b6040516103c091906146ff565b60405180910390f35b3480156103d557600080fd5b506103f060048036038101906103eb919061331c565b610dda565b005b3480156103fe57600080fd5b50610407611172565b60405161041491906143b9565b60405180910390f35b34801561042957600080fd5b50610444600480360381019061043f91906133e6565b611198565b005b34801561045257600080fd5b5061045b611381565b005b34801561046957600080fd5b50610472611455565b60405161047f91906149f7565b60405180910390f35b34801561049457600080fd5b506104af60048036038101906104aa919061315e565b61145e565b005b3480156104bd57600080fd5b506104c66115e4565b6040516104d391906149f7565b60405180910390f35b3480156104e857600080fd5b506104f16115f6565b005b3480156104ff57600080fd5b50610508611708565b60405161051591906146e4565b60405180910390f35b34801561052a57600080fd5b5061053361172c565b60405161054091906149f7565b60405180910390f35b34801561055557600080fd5b50610570600480360381019061056b919061319a565b611732565b60405161057d91906149f7565b60405180910390f35b34801561059257600080fd5b506105ad60048036038101906105a8919061331c565b611cff565b005b3480156105bb57600080fd5b506105c461204a565b6040516105d191906145ed565b60405180910390f35b3480156105e657600080fd5b5061060160048036038101906105fc919061336e565b61206e565b60405161060e91906149dc565b60405180910390f35b34801561062357600080fd5b5061062c612150565b60405161063991906146c9565b60405180910390f35b61065c6004803603810190610657919061331c565b612176565b005b60046020528060005260406000206000915090508060000154908060010160009054906101000a900473ffffffffffffffffffffffffffffffffffffffff169080600201549080600701549080600801549080600901549080600a01549080600b0160009054906101000a900460ff169080600b0160019054906101000a900460ff16905089565b6000614380905090565b6040518060400160405280601a81526020017f426f6e644170706574697420476f7665726e6f7220416c70686100000000000081525081565b6107343383836123bf565b5050565b60056020528060005260406000206000915090505481565b7f8cad95687ba82c2ce50e74f7b754645e5117c3a5bec8151c0726d5857980a86681565b600260009054906101000a900473ffffffffffffffffffffffffffffffffffffffff1673ffffffffffffffffffffffffffffffffffffffff163373ffffffffffffffffffffffffffffffffffffffff1614610804576040517f08c379a00000000000000000000000000000000000000000000000000000000081526004016107fb9061479c565b60405180910390fd5b60008054906101000a900473ffffffffffffffffffffffffffffffffffffffff1673ffffffffffffffffffffffffffffffffffffffff16630825f38f60008054906101000a900473ffffffffffffffffffffffffffffffffffffffff1660008560405160200161087491906143b9565b604051602081830303815290604052856040518563ffffffff1660e01b81526004016108a394939291906143fd565b600060405180830381600087803b1580156108bd57600080fd5b505af11580156108d1573d6000803e3d6000fd5b505050506040513d6000823e3d601f19601f820116820180604052508101906108fa91906132db565b505050565b60006954b40b1f852bda000000905090565b606080606080600060046000878152602001908152602001600020905080600301816004018260050183600601838054806020026020016040519081016040528092919081815260200182805480156109bf57602002820191906000526020600020905b8160009054906101000a900473ffffffffffffffffffffffffffffffffffffffff1673ffffffffffffffffffffffffffffffffffffffff1681526020019060010190808311610975575b5050505050935082805480602002602001604051908101604052809291908181526020018280548015610a1157602002820191906000526020600020905b8154815260200190600101908083116109fd575b5050505050925081805480602002602001604051908101604052809291908181526020016000905b82821015610af5578382906000526020600020018054600181600116156101000203166002900480601f016020809104026020016040519081016040528092919081815260200182805460018160011615610100020316600290048015610ae15780601f10610ab657610100808354040283529160200191610ae1565b820191906000526020600020905b815481529060010190602001808311610ac457829003601f168201915b505050505081526020019060010190610a39565b50505050915080805480602002602001604051908101604052809291908181526020016000905b82821015610bd8578382906000526020600020018054600181600116156101000203166002900480601f016020809104026020016040519081016040528092919081815260200182805460018160011615610100020316600290048015610bc45780601f10610b9957610100808354040283529160200191610bc4565b820191906000526020600020905b815481529060010190602001808311610ba757829003601f168201915b505050505081526020019060010190610b1c565b5050505090509450945094509450509193509193565b60006001905090565b60008160035410158015610c0b5750600082115b610c4a576040517f08c379a0000000000000000000000000000000000000000000000000000000008152600401610c41906147bc565b60405180910390fd5b600060046000848152602001908152602001600020905080600b0160009054906101000a900460ff1615610c82576002915050610dd5565b80600701544311610c97576000915050610dd5565b80600801544311610cac576001915050610dd5565b80600a01548160090154111580610ccd5750610cc66108ff565b8160090154105b15610cdc576003915050610dd5565b600081600201541415610cf3576004915050610dd5565b80600b0160019054906101000a900460ff1615610d14576007915050610dd5565b610dbf816002015460008054906101000a900473ffffffffffffffffffffffffffffffffffffffff1673ffffffffffffffffffffffffffffffffffffffff1663c1a287e26040518163ffffffff1660e01b815260040160206040518083038186803b158015610d8257600080fd5b505afa158015610d96573d6000803e3d6000fd5b505050506040513d601f19601f82011682018060405250810190610dba9190613345565b61268e565b4210610dcf576006915050610dd5565b60059150505b919050565b6000610de582610bf7565b9050600780811115610df357fe5b816007811115610dff57fe5b1415610e40576040517f08c379a0000000000000000000000000000000000000000000000000000000008152600401610e379061495c565b60405180910390fd5b6000600460008481526020019081526020016000209050600260009054906101000a900473ffffffffffffffffffffffffffffffffffffffff1673ffffffffffffffffffffffffffffffffffffffff163373ffffffffffffffffffffffffffffffffffffffff161480610fa15750610eb66115e4565b600160009054906101000a900473ffffffffffffffffffffffffffffffffffffffff1673ffffffffffffffffffffffffffffffffffffffff1663782d6fe18360010160009054906101000a900473ffffffffffffffffffffffffffffffffffffffff16610f244360016126e3565b6040518363ffffffff1660e01b8152600401610f4192919061445c565b60206040518083038186803b158015610f5957600080fd5b505afa158015610f6d573d6000803e3d6000fd5b505050506040513d601f19601f82011682018060405250810190610f91919061345d565b6bffffffffffffffffffffffff16105b610fe0576040517f08c379a0000000000000000000000000000000000000000000000000000000008152600401610fd79061489c565b60405180910390fd5b600181600b0160006101000a81548160ff02191690831515021790555060005b81600301805490508110156111355760008054906101000a900473ffffffffffffffffffffffffffffffffffffffff1673ffffffffffffffffffffffffffffffffffffffff1663591fcdfe83600301838154811061105a57fe5b9060005260206000200160009054906101000a900473ffffffffffffffffffffffffffffffffffffffff1684600401848154811061109457fe5b90600052602060002001548560050185815481106110ae57fe5b906000526020600020018660060186815481106110c757fe5b9060005260206000200187600201546040518663ffffffff1660e01b81526004016110f695949392919061452b565b600060405180830381600087803b15801561111057600080fd5b505af1158015611124573d6000803e3d6000fd5b505050508080600101915050611000565b507f789cf55be980739dad1d0699b93b58e806b51c9d96619bfa8fe0a28abaa7b30c8360405161116591906149f7565b60405180910390a1505050565b600260009054906101000a900473ffffffffffffffffffffffffffffffffffffffff1681565b60007f8cad95687ba82c2ce50e74f7b754645e5117c3a5bec8151c0726d5857980a8666040518060400160405280601a81526020017f426f6e644170706574697420476f7665726e6f7220416c70686100000000000081525080519060200120611200612733565b306040516020016112149493929190614608565b60405160208183030381529060405280519060200120905060007f8e25870c07e0b0b3884c78da52790939a455c275406c44ae8b434b692fb916ee87876040516020016112639392919061464d565b60405160208183030381529060405280519060200120905060008282604051602001611290929190614382565b6040516020818303038152906040528051906020012090506000600182888888604051600081526020016040526040516112cd9493929190614684565b6020604051602081039080840390855afa1580156112ef573d6000803e3d6000fd5b505050602060405103519050600073ffffffffffffffffffffffffffffffffffffffff168173ffffffffffffffffffffffffffffffffffffffff16141561136b576040517f08c379a00000000000000000000000000000000000000000000000000000000081526004016113629061491c565b60405180910390fd5b611376818a8a6123bf565b505050505050505050565b600260009054906101000a900473ffffffffffffffffffffffffffffffffffffffff1673ffffffffffffffffffffffffffffffffffffffff163373ffffffffffffffffffffffffffffffffffffffff1614611411576040517f08c379a0000000000000000000000000000000000000000000000000000000008152600401611408906149bc565b60405180910390fd5b6000600260006101000a81548173ffffffffffffffffffffffffffffffffffffffff021916908373ffffffffffffffffffffffffffffffffffffffff160217905550565b6000600a905090565b600260009054906101000a900473ffffffffffffffffffffffffffffffffffffffff1673ffffffffffffffffffffffffffffffffffffffff163373ffffffffffffffffffffffffffffffffffffffff16146114ee576040517f08c379a00000000000000000000000000000000000000000000000000000000081526004016114e59061481c565b60405180910390fd5b60008054906101000a900473ffffffffffffffffffffffffffffffffffffffff1673ffffffffffffffffffffffffffffffffffffffff16633a66f90160008054906101000a900473ffffffffffffffffffffffffffffffffffffffff1660008560405160200161155e91906143b9565b604051602081830303815290604052856040518563ffffffff1660e01b815260040161158d94939291906143fd565b602060405180830381600087803b1580156115a757600080fd5b505af11580156115bb573d6000803e3d6000fd5b505050506040513d601f19601f820116820180604052508101906115df91906132b2565b505050565b600069152d02c7e14af6800000905090565b600260009054906101000a900473ffffffffffffffffffffffffffffffffffffffff1673ffffffffffffffffffffffffffffffffffffffff163373ffffffffffffffffffffffffffffffffffffffff1614611686576040517f08c379a000000000000000000000000000000000000000000000000000000000815260040161167d9061473c565b60405180910390fd5b60008054906101000a900473ffffffffffffffffffffffffffffffffffffffff1673ffffffffffffffffffffffffffffffffffffffff16630e18b6816040518163ffffffff1660e01b8152600401600060405180830381600087803b1580156116ee57600080fd5b505af1158015611702573d6000803e3d6000fd5b50505050565b60008054906101000a900473ffffffffffffffffffffffffffffffffffffffff1681565b60035481565b600061173c6115e4565b600160009054906101000a900473ffffffffffffffffffffffffffffffffffffffff1673ffffffffffffffffffffffffffffffffffffffff1663782d6fe1336117864360016126e3565b6040518363ffffffff1660e01b81526004016117a39291906143d4565b60206040518083038186803b1580156117bb57600080fd5b505afa1580156117cf573d6000803e3d6000fd5b505050506040513d601f19601f820116820180604052508101906117f3919061345d565b6bffffffffffffffffffffffff1611611841576040517f08c379a0000000000000000000000000000000000000000000000000000000008152600401611838906148fc565b60405180910390fd5b84518651148015611853575083518651145b8015611860575082518651145b61189f576040517f08c379a00000000000000000000000000000000000000000000000000000000081526004016118969061487c565b60405180910390fd5b6000865114156118e4576040517f08c379a00000000000000000000000000000000000000000000000000000000081526004016118db906148dc565b60405180910390fd5b6118ec611455565b8651111561192f576040517f08c379a00000000000000000000000000000000000000000000000000000000081526004016119269061483c565b60405180910390fd5b6000600560003373ffffffffffffffffffffffffffffffffffffffff1673ffffffffffffffffffffffffffffffffffffffff16815260200190815260200160002054905060008114611a3e57600061198682610bf7565b90506001600781111561199557fe5b8160078111156119a157fe5b14156119e2576040517f08c379a00000000000000000000000000000000000000000000000000000000081526004016119d99061493c565b60405180910390fd5b600060078111156119ef57fe5b8160078111156119fb57fe5b1415611a3c576040517f08c379a0000000000000000000000000000000000000000000000000000000008152600401611a33906147fc565b60405180910390fd5b505b6000611a5143611a4c610bee565b61268e565b90506000611a6682611a616106e6565b61268e565b9050600360008154809291906001019190505550611a82612912565b604051806101a0016040528060035481526020013373ffffffffffffffffffffffffffffffffffffffff168152602001600081526020018b81526020018a815260200189815260200188815260200184815260200183815260200160008152602001600081526020016000151581526020016000151581525090508060046000836000015181526020019081526020016000206000820151816000015560208201518160010160006101000a81548173ffffffffffffffffffffffffffffffffffffffff021916908373ffffffffffffffffffffffffffffffffffffffff160217905550604082015181600201556060820151816003019080519060200190611b8c929190612994565b506080820151816004019080519060200190611ba9929190612a1e565b5060a0820151816005019080519060200190611bc6929190612a6b565b5060c0820151816006019080519060200190611be3929190612acb565b5060e082015181600701556101008201518160080155610120820151816009015561014082015181600a015561016082015181600b0160006101000a81548160ff02191690831515021790555061018082015181600b0160016101000a81548160ff021916908315150217905550905050806000015160056000836020015173ffffffffffffffffffffffffffffffffffffffff1673ffffffffffffffffffffffffffffffffffffffff168152602001908152602001600020819055507f7d84a6263ae0d98d3329bd7b46bb4e8d6f98cd35a7adb45c274c8b7fd5ebd5e08160000151338c8c8c8c89898e604051611ce399989796959493929190614a12565b60405180910390a1806000015194505050505095945050505050565b60046007811115611d0c57fe5b611d1582610bf7565b6007811115611d2057fe5b14611d60576040517f08c379a0000000000000000000000000000000000000000000000000000000008152600401611d579061475c565b60405180910390fd5b60006004600083815260200190815260200160002090506000611e204260008054906101000a900473ffffffffffffffffffffffffffffffffffffffff1673ffffffffffffffffffffffffffffffffffffffff16636a42b8f86040518163ffffffff1660e01b815260040160206040518083038186803b158015611de357600080fd5b505afa158015611df7573d6000803e3d6000fd5b505050506040513d601f19601f82011682018060405250810190611e1b9190613345565b61268e565b905060005b826003018054905081101561200257611ff5836003018281548110611e4657fe5b9060005260206000200160009054906101000a900473ffffffffffffffffffffffffffffffffffffffff16846004018381548110611e8057fe5b9060005260206000200154856005018481548110611e9a57fe5b906000526020600020018054600181600116156101000203166002900480601f016020809104026020016040519081016040528092919081815260200182805460018160011615610100020316600290048015611f385780601f10611f0d57610100808354040283529160200191611f38565b820191906000526020600020905b815481529060010190602001808311611f1b57829003601f168201915b5050505050866006018581548110611f4c57fe5b906000526020600020018054600181600116156101000203166002900480601f016020809104026020016040519081016040528092919081815260200182805460018160011615610100020316600290048015611fea5780601f10611fbf57610100808354040283529160200191611fea565b820191906000526020600020905b815481529060010190602001808311611fcd57829003601f168201915b505050505086612740565b8080600101915050611e25565b508082600201819055507f9a2e42fd6722813d69113e7d0079d3d940171428df7373df9c7f7617cfda2892838260405161203d929190614b4f565b60405180910390a1505050565b7f8e25870c07e0b0b3884c78da52790939a455c275406c44ae8b434b692fb916ee81565b612076612b2b565b60046000848152602001908152602001600020600c0160008373ffffffffffffffffffffffffffffffffffffffff1673ffffffffffffffffffffffffffffffffffffffff1681526020019081526020016000206040518060600160405290816000820160009054906101000a900460ff161515151581526020016000820160019054906101000a900460ff161515151581526020016000820160029054906101000a90046bffffffffffffffffffffffff166bffffffffffffffffffffffff166bffffffffffffffffffffffff1681525050905092915050565b600160009054906101000a900473ffffffffffffffffffffffffffffffffffffffff1681565b6005600781111561218357fe5b61218c82610bf7565b600781111561219757fe5b146121d7576040517f08c379a00000000000000000000000000000000000000000000000000000000081526004016121ce9061477c565b60405180910390fd5b6000600460008381526020019081526020016000209050600181600b0160016101000a81548160ff02191690831515021790555060005b81600301805490508110156123835760008054906101000a900473ffffffffffffffffffffffffffffffffffffffff1673ffffffffffffffffffffffffffffffffffffffff16630825f38f83600401838154811061226857fe5b906000526020600020015484600301848154811061228257fe5b9060005260206000200160009054906101000a900473ffffffffffffffffffffffffffffffffffffffff168560040185815481106122bc57fe5b90600052602060002001548660050186815481106122d657fe5b906000526020600020018760060187815481106122ef57fe5b9060005260206000200188600201546040518763ffffffff1660e01b815260040161231e95949392919061452b565b6000604051808303818588803b15801561233757600080fd5b505af115801561234b573d6000803e3d6000fd5b50505050506040513d6000823e3d601f19601f8201168201806040525081019061237591906132db565b50808060010191505061220e565b507f712ae1383f79ac853f8d882153778e0260ef8f03b504e2866e0593e04d2b291f826040516123b391906149f7565b60405180910390a15050565b600160078111156123cc57fe5b6123d583610bf7565b60078111156123e057fe5b14612420576040517f08c379a00000000000000000000000000000000000000000000000000000000081526004016124179061497c565b60405180910390fd5b6000600460008481526020019081526020016000209050600081600c0160008673ffffffffffffffffffffffffffffffffffffffff1673ffffffffffffffffffffffffffffffffffffffff1681526020019081526020016000209050600015158160000160009054906101000a900460ff161515146124d4576040517f08c379a00000000000000000000000000000000000000000000000000000000081526004016124cb906147dc565b60405180910390fd5b6000600160009054906101000a900473ffffffffffffffffffffffffffffffffffffffff1673ffffffffffffffffffffffffffffffffffffffff1663782d6fe18785600701546040518363ffffffff1660e01b815260040161253792919061445c565b60206040518083038186803b15801561254f57600080fd5b505afa158015612563573d6000803e3d6000fd5b505050506040513d601f19601f82011682018060405250810190612587919061345d565b905083156125b8576125ab8360090154826bffffffffffffffffffffffff1661268e565b83600901819055506125dd565b6125d483600a0154826bffffffffffffffffffffffff1661268e565b83600a01819055505b60018260000160006101000a81548160ff021916908315150217905550838260000160016101000a81548160ff021916908315150217905550808260000160026101000a8154816bffffffffffffffffffffffff02191690836bffffffffffffffffffffffff1602179055507f877856338e13f63d0c36822ff0ef736b80934cd90574a3a5bc9262c39d217c468686868460405161267e9493929190614485565b60405180910390a1505050505050565b6000808284019050838110156126d9576040517f08c379a00000000000000000000000000000000000000000000000000000000081526004016126d09061485c565b60405180910390fd5b8091505092915050565b600082821115612728576040517f08c379a000000000000000000000000000000000000000000000000000000000815260040161271f9061499c565b60405180910390fd5b818303905092915050565b6000804690508091505090565b60008054906101000a900473ffffffffffffffffffffffffffffffffffffffff1673ffffffffffffffffffffffffffffffffffffffff1663f2b0653786868686866040516020016127959594939291906144ca565b604051602081830303815290604052805190602001206040518263ffffffff1660e01b81526004016127c791906145ed565b60206040518083038186803b1580156127df57600080fd5b505afa1580156127f3573d6000803e3d6000fd5b505050506040513d601f19601f820116820180604052508101906128179190613289565b15612857576040517f08c379a000000000000000000000000000000000000000000000000000000000815260040161284e906148bc565b60405180910390fd5b60008054906101000a900473ffffffffffffffffffffffffffffffffffffffff1673ffffffffffffffffffffffffffffffffffffffff16633a66f90186868686866040518663ffffffff1660e01b81526004016128b89594939291906144ca565b602060405180830381600087803b1580156128d257600080fd5b505af11580156128e6573d6000803e3d6000fd5b505050506040513d601f19601f8201168201806040525081019061290a91906132b2565b505050505050565b604051806101a0016040528060008152602001600073ffffffffffffffffffffffffffffffffffffffff1681526020016000815260200160608152602001606081526020016060815260200160608152602001600081526020016000815260200160008152602001600081526020016000151581526020016000151581525090565b828054828255906000526020600020908101928215612a0d579160200282015b82811115612a0c5782518260006101000a81548173ffffffffffffffffffffffffffffffffffffffff021916908373ffffffffffffffffffffffffffffffffffffffff160217905550916020019190600101906129b4565b5b509050612a1a9190612b5e565b5090565b828054828255906000526020600020908101928215612a5a579160200282015b82811115612a59578251825591602001919060010190612a3e565b5b509050612a679190612b99565b5090565b828054828255906000526020600020908101928215612aba579160200282015b82811115612ab9578251829080519060200190612aa9929190612bb6565b5091602001919060010190612a8b565b5b509050612ac79190612c36565b5090565b828054828255906000526020600020908101928215612b1a579160200282015b82811115612b19578251829080519060200190612b09929190612c5a565b5091602001919060010190612aeb565b5b509050612b279190612cda565b5090565b604051806060016040528060001515815260200160001515815260200160006bffffffffffffffffffffffff1681525090565b5b80821115612b9557600081816101000a81549073ffffffffffffffffffffffffffffffffffffffff021916905550600101612b5f565b5090565b5b80821115612bb2576000816000905550600101612b9a565b5090565b828054600181600116156101000203166002900490600052602060002090601f016020900481019282601f10612bf757805160ff1916838001178555612c25565b82800160010185558215612c25579182015b82811115612c24578251825591602001919060010190612c09565b5b509050612c329190612b99565b5090565b5b80821115612c565760008181612c4d9190612cfe565b50600101612c37565b5090565b828054600181600116156101000203166002900490600052602060002090601f016020900481019282601f10612c9b57805160ff1916838001178555612cc9565b82800160010185558215612cc9579182015b82811115612cc8578251825591602001919060010190612cad565b5b509050612cd69190612b99565b5090565b5b80821115612cfa5760008181612cf19190612d46565b50600101612cdb565b5090565b50805460018160011615610100020316600290046000825580601f10612d245750612d43565b601f016020900490600052602060002090810190612d429190612b99565b5b50565b50805460018160011615610100020316600290046000825580601f10612d6c5750612d8b565b601f016020900490600052602060002090810190612d8a9190612b99565b5b50565b600081359050612d9d81614fb8565b92915050565b600082601f830112612db457600080fd5b8135612dc7612dc282614ba5565b614b78565b91508181835260208401935060208101905083856020840282011115612dec57600080fd5b60005b83811015612e1c5781612e028882612d8e565b845260208401935060208301925050600181019050612def565b5050505092915050565b600082601f830112612e3757600080fd5b8135612e4a612e4582614bcd565b614b78565b9150818183526020840193506020810190508360005b83811015612e905781358601612e768882612fe5565b845260208401935060208301925050600181019050612e60565b5050505092915050565b600082601f830112612eab57600080fd5b8135612ebe612eb982614bf5565b614b78565b9150818183526020840193506020810190508360005b83811015612f045781358601612eea888261308d565b845260208401935060208301925050600181019050612ed4565b5050505092915050565b600082601f830112612f1f57600080fd5b8135612f32612f2d82614c1d565b614b78565b91508181835260208401935060208101905083856020840282011115612f5757600080fd5b60005b83811015612f875781612f6d88826130e1565b845260208401935060208301925050600181019050612f5a565b5050505092915050565b600081359050612fa081614fcf565b92915050565b600081519050612fb581614fcf565b92915050565b600081359050612fca81614fe6565b92915050565b600081519050612fdf81614fe6565b92915050565b600082601f830112612ff657600080fd5b813561300961300482614c45565b614b78565b9150808252602083016020830185838301111561302557600080fd5b613030838284614f4e565b50505092915050565b600082601f83011261304a57600080fd5b815161305d61305882614c45565b614b78565b9150808252602083016020830185838301111561307957600080fd5b613084838284614f5d565b50505092915050565b600082601f83011261309e57600080fd5b81356130b16130ac82614c71565b614b78565b915080825260208301602083018583830111156130cd57600080fd5b6130d8838284614f4e565b50505092915050565b6000813590506130f081614ffd565b92915050565b60008151905061310581614ffd565b92915050565b60008135905061311a81615014565b92915050565b60008151905061312f8161502b565b92915050565b60006020828403121561314757600080fd5b600061315584828501612d8e565b91505092915050565b6000806040838503121561317157600080fd5b600061317f85828601612d8e565b9250506020613190858286016130e1565b9150509250929050565b600080600080600060a086880312156131b257600080fd5b600086013567ffffffffffffffff8111156131cc57600080fd5b6131d888828901612da3565b955050602086013567ffffffffffffffff8111156131f557600080fd5b61320188828901612f0e565b945050604086013567ffffffffffffffff81111561321e57600080fd5b61322a88828901612e9a565b935050606086013567ffffffffffffffff81111561324757600080fd5b61325388828901612e26565b925050608086013567ffffffffffffffff81111561327057600080fd5b61327c8882890161308d565b9150509295509295909350565b60006020828403121561329b57600080fd5b60006132a984828501612fa6565b91505092915050565b6000602082840312156132c457600080fd5b60006132d284828501612fd0565b91505092915050565b6000602082840312156132ed57600080fd5b600082015167ffffffffffffffff81111561330757600080fd5b61331384828501613039565b91505092915050565b60006020828403121561332e57600080fd5b600061333c848285016130e1565b91505092915050565b60006020828403121561335757600080fd5b6000613365848285016130f6565b91505092915050565b6000806040838503121561338157600080fd5b600061338f858286016130e1565b92505060206133a085828601612d8e565b9150509250929050565b600080604083850312156133bd57600080fd5b60006133cb858286016130e1565b92505060206133dc85828601612f91565b9150509250929050565b600080600080600060a086880312156133fe57600080fd5b600061340c888289016130e1565b955050602061341d88828901612f91565b945050604061342e8882890161310b565b935050606061343f88828901612fbb565b925050608061345088828901612fbb565b9150509295509295909350565b60006020828403121561346f57600080fd5b600061347d84828501613120565b91505092915050565b600061349283836134ed565b60208301905092915050565b60006134aa83836136f5565b905092915050565b60006134be8383613832565b905092915050565b60006134d28383614337565b60208301905092915050565b6134e781614e9a565b82525050565b6134f681614e10565b82525050565b61350581614e10565b82525050565b600061351682614d07565b6135208185614d7d565b935061352b83614c9d565b8060005b8381101561355c5781516135438882613486565b975061354e83614d49565b92505060018101905061352f565b5085935050505092915050565b600061357482614d12565b61357e8185614d8e565b93508360208202850161359085614cad565b8060005b858110156135cc57848403895281516135ad858261349e565b94506135b883614d56565b925060208a01995050600181019050613594565b50829750879550505050505092915050565b60006135e982614d1d565b6135f38185614d9f565b93508360208202850161360585614cbd565b8060005b85811015613641578484038952815161362285826134b2565b945061362d83614d63565b925060208a01995050600181019050613609565b50829750879550505050505092915050565b600061365e82614d28565b6136688185614db0565b935061367383614ccd565b8060005b838110156136a457815161368b88826134c6565b975061369683614d70565b925050600181019050613677565b5085935050505092915050565b6136ba81614e22565b82525050565b6136c981614e22565b82525050565b6136d881614e2e565b82525050565b6136ef6136ea82614e2e565b614f90565b82525050565b600061370082614d33565b61370a8185614dc1565b935061371a818560208601614f5d565b61372381614f9a565b840191505092915050565b600061373982614d33565b6137438185614dd2565b9350613753818560208601614f5d565b61375c81614f9a565b840191505092915050565b60008154600181166000811461378457600181146137aa576137ee565b607f60028304166137958187614dd2565b955060ff1983168652602086019350506137ee565b600282046137b88187614dd2565b95506137c385614cdd565b60005b828110156137e5578154818901526001820191506020810190506137c6565b80880195505050505b505092915050565b6137ff81614eac565b82525050565b61380e81614ed0565b82525050565b61381d81614ef4565b82525050565b61382c81614f06565b82525050565b600061383d82614d3e565b6138478185614de3565b9350613857818560208601614f5d565b61386081614f9a565b840191505092915050565b600061387682614d3e565b6138808185614df4565b9350613890818560208601614f5d565b61389981614f9a565b840191505092915050565b6000815460018116600081146138c157600181146138e75761392b565b607f60028304166138d28187614df4565b955060ff19831686526020860193505061392b565b600282046138f58187614df4565b955061390085614cf2565b60005b8281101561392257815481890152600182019150602081019050613903565b80880195505050505b505092915050565b6000613940603983614df4565b91507f476f7665726e6f72416c7068613a3a5f5f61636365707441646d696e3a20736560008301527f6e646572206d75737420626520676f7620677561726469616e000000000000006020830152604082019050919050565b60006139a6604483614df4565b91507f476f7665726e6f72416c7068613a3a71756575653a2070726f706f73616c206360008301527f616e206f6e6c792062652071756575656420696620697420697320737563636560208301527f65646564000000000000000000000000000000000000000000000000000000006040830152606082019050919050565b6000613a32604583614df4565b91507f476f7665726e6f72416c7068613a3a657865637574653a2070726f706f73616c60008301527f2063616e206f6e6c79206265206578656375746564206966206974206973207160208301527f75657565640000000000000000000000000000000000000000000000000000006040830152606082019050919050565b6000613abe600283614e05565b91507f19010000000000000000000000000000000000000000000000000000000000006000830152600282019050919050565b6000613afe604c83614df4565b91507f476f7665726e6f72416c7068613a3a5f5f6578656375746553657454696d656c60008301527f6f636b50656e64696e6741646d696e3a2073656e646572206d7573742062652060208301527f676f7620677561726469616e00000000000000000000000000000000000000006040830152606082019050919050565b6000613b8a601883614df4565b91507f73657450656e64696e6741646d696e28616464726573732900000000000000006000830152602082019050919050565b6000613bca602983614df4565b91507f476f7665726e6f72416c7068613a3a73746174653a20696e76616c696420707260008301527f6f706f73616c20696400000000000000000000000000000000000000000000006020830152604082019050919050565b6000613c30602d83614df4565b91507f476f7665726e6f72416c7068613a3a5f63617374566f74653a20766f7465722060008301527f616c726561647920766f746564000000000000000000000000000000000000006020830152604082019050919050565b6000613c96605983614df4565b91507f476f7665726e6f72416c7068613a3a70726f706f73653a206f6e65206c69766560008301527f2070726f706f73616c207065722070726f706f7365722c20666f756e6420616e60208301527f20616c72656164792070656e64696e672070726f706f73616c000000000000006040830152606082019050919050565b6000613d22604a83614df4565b91507f476f7665726e6f72416c7068613a3a5f5f717565756553657454696d656c6f6360008301527f6b50656e64696e6741646d696e3a2073656e646572206d75737420626520676f60208301527f7620677561726469616e000000000000000000000000000000000000000000006040830152606082019050919050565b6000613dae602883614df4565b91507f476f7665726e6f72416c7068613a3a70726f706f73653a20746f6f206d616e7960008301527f20616374696f6e730000000000000000000000000000000000000000000000006020830152604082019050919050565b6000613e14601183614df4565b91507f6164646974696f6e206f766572666c6f770000000000000000000000000000006000830152602082019050919050565b6000613e54604483614df4565b91507f476f7665726e6f72416c7068613a3a70726f706f73653a2070726f706f73616c60008301527f2066756e6374696f6e20696e666f726d6174696f6e206172697479206d69736d60208301527f61746368000000000000000000000000000000000000000000000000000000006040830152606082019050919050565b6000613ee0602f83614df4565b91507f476f7665726e6f72416c7068613a3a63616e63656c3a2070726f706f7365722060008301527f61626f7665207468726573686f6c6400000000000000000000000000000000006020830152604082019050919050565b6000613f46604483614df4565b91507f476f7665726e6f72416c7068613a3a5f71756575654f725265766572743a207060008301527f726f706f73616c20616374696f6e20616c72656164792071756575656420617460208301527f20657461000000000000000000000000000000000000000000000000000000006040830152606082019050919050565b6000613fd2602c83614df4565b91507f476f7665726e6f72416c7068613a3a70726f706f73653a206d7573742070726f60008301527f7669646520616374696f6e7300000000000000000000000000000000000000006020830152604082019050919050565b6000614038603f83614df4565b91507f476f7665726e6f72416c7068613a3a70726f706f73653a2070726f706f73657260008301527f20766f7465732062656c6f772070726f706f73616c207468726573686f6c64006020830152604082019050919050565b600061409e602f83614df4565b91507f476f7665726e6f72416c7068613a3a63617374566f746542795369673a20696e60008301527f76616c6964207369676e617475726500000000000000000000000000000000006020830152604082019050919050565b6000614104605883614df4565b91507f476f7665726e6f72416c7068613a3a70726f706f73653a206f6e65206c69766560008301527f2070726f706f73616c207065722070726f706f7365722c20666f756e6420616e60208301527f20616c7265616479206163746976652070726f706f73616c00000000000000006040830152606082019050919050565b6000614190603683614df4565b91507f476f7665726e6f72416c7068613a3a63616e63656c3a2063616e6e6f7420636160008301527f6e63656c2065786563757465642070726f706f73616c000000000000000000006020830152604082019050919050565b60006141f6602a83614df4565b91507f476f7665726e6f72416c7068613a3a5f63617374566f74653a20766f74696e6760008301527f20697320636c6f736564000000000000000000000000000000000000000000006020830152604082019050919050565b600061425c601583614df4565b91507f7375627472616374696f6e20756e646572666c6f7700000000000000000000006000830152602082019050919050565b600061429c603683614df4565b91507f476f7665726e6f72416c7068613a3a5f5f61626469636174653a2073656e646560008301527f72206d75737420626520676f7620677561726469616e000000000000000000006020830152604082019050919050565b60608201600082015161430b60008501826136b1565b50602082015161431e60208501826136b1565b5060408201516143316040850182614373565b50505050565b61434081614e6b565b82525050565b61434f81614e6b565b82525050565b61435e81614e75565b82525050565b61436d81614f3c565b82525050565b61437c81614e82565b82525050565b600061438d82613ab1565b915061439982856136de565b6020820191506143a982846136de565b6020820191508190509392505050565b60006020820190506143ce60008301846134fc565b92915050565b60006040820190506143e960008301856134de565b6143f66020830184614346565b9392505050565b600060a08201905061441260008301876134fc565b61441f6020830186613823565b818103604083015261443081613b7d565b90508181036060830152614444818561372e565b90506144536080830184614346565b95945050505050565b600060408201905061447160008301856134fc565b61447e6020830184614346565b9392505050565b600060808201905061449a60008301876134fc565b6144a76020830186614346565b6144b460408301856136c0565b6144c16060830184614364565b95945050505050565b600060a0820190506144df60008301886134fc565b6144ec6020830187614346565b81810360408301526144fe818661386b565b90508181036060830152614512818561372e565b90506145216080830184614346565b9695505050505050565b600060a08201905061454060008301886134fc565b61454d6020830187614346565b818103604083015261455f81866138a4565b905081810360608301526145738185613767565b90506145826080830184614346565b9695505050505050565b600060808201905081810360008301526145a6818761350b565b905081810360208301526145ba8186613653565b905081810360408301526145ce81856135de565b905081810360608301526145e28184613569565b905095945050505050565b600060208201905061460260008301846136cf565b92915050565b600060808201905061461d60008301876136cf565b61462a60208301866136cf565b6146376040830185614346565b61464460608301846134fc565b95945050505050565b600060608201905061466260008301866136cf565b61466f6020830185614346565b61467c60408301846136c0565b949350505050565b600060808201905061469960008301876136cf565b6146a66020830186614355565b6146b360408301856136cf565b6146c060608301846136cf565b95945050505050565b60006020820190506146de60008301846137f6565b92915050565b60006020820190506146f96000830184613805565b92915050565b60006020820190506147146000830184613814565b92915050565b60006020820190508181036000830152614734818461386b565b905092915050565b6000602082019050818103600083015261475581613933565b9050919050565b6000602082019050818103600083015261477581613999565b9050919050565b6000602082019050818103600083015261479581613a25565b9050919050565b600060208201905081810360008301526147b581613af1565b9050919050565b600060208201905081810360008301526147d581613bbd565b9050919050565b600060208201905081810360008301526147f581613c23565b9050919050565b6000602082019050818103600083015261481581613c89565b9050919050565b6000602082019050818103600083015261483581613d15565b9050919050565b6000602082019050818103600083015261485581613da1565b9050919050565b6000602082019050818103600083015261487581613e07565b9050919050565b6000602082019050818103600083015261489581613e47565b9050919050565b600060208201905081810360008301526148b581613ed3565b9050919050565b600060208201905081810360008301526148d581613f39565b9050919050565b600060208201905081810360008301526148f581613fc5565b9050919050565b600060208201905081810360008301526149158161402b565b9050919050565b6000602082019050818103600083015261493581614091565b9050919050565b60006020820190508181036000830152614955816140f7565b9050919050565b6000602082019050818103600083015261497581614183565b9050919050565b60006020820190508181036000830152614995816141e9565b9050919050565b600060208201905081810360008301526149b58161424f565b9050919050565b600060208201905081810360008301526149d58161428f565b9050919050565b60006060820190506149f160008301846142f5565b92915050565b6000602082019050614a0c6000830184614346565b92915050565b600061012082019050614a28600083018c614346565b614a35602083018b6134de565b8181036040830152614a47818a61350b565b90508181036060830152614a5b8189613653565b90508181036080830152614a6f81886135de565b905081810360a0830152614a838187613569565b9050614a9260c0830186614346565b614a9f60e0830185614346565b818103610100830152614ab2818461386b565b90509a9950505050505050505050565b600061012082019050614ad8600083018c614346565b614ae5602083018b6134fc565b614af2604083018a614346565b614aff6060830189614346565b614b0c6080830188614346565b614b1960a0830187614346565b614b2660c0830186614346565b614b3360e08301856136c0565b614b416101008301846136c0565b9a9950505050505050505050565b6000604082019050614b646000830185614346565b614b716020830184614346565b9392505050565b6000604051905081810181811067ffffffffffffffff82111715614b9b57600080fd5b8060405250919050565b600067ffffffffffffffff821115614bbc57600080fd5b602082029050602081019050919050565b600067ffffffffffffffff821115614be457600080fd5b602082029050602081019050919050565b600067ffffffffffffffff821115614c0c57600080fd5b602082029050602081019050919050565b600067ffffffffffffffff821115614c3457600080fd5b602082029050602081019050919050565b600067ffffffffffffffff821115614c5c57600080fd5b601f19601f8301169050602081019050919050565b600067ffffffffffffffff821115614c8857600080fd5b601f19601f8301169050602081019050919050565b6000819050602082019050919050565b6000819050602082019050919050565b6000819050602082019050919050565b6000819050602082019050919050565b60008190508160005260206000209050919050565b60008190508160005260206000209050919050565b600081519050919050565b600081519050919050565b600081519050919050565b600081519050919050565b600081519050919050565b600081519050919050565b6000602082019050919050565b6000602082019050919050565b6000602082019050919050565b6000602082019050919050565b600082825260208201905092915050565b600082825260208201905092915050565b600082825260208201905092915050565b600082825260208201905092915050565b600082825260208201905092915050565b600082825260208201905092915050565b600082825260208201905092915050565b600082825260208201905092915050565b600081905092915050565b6000614e1b82614e4b565b9050919050565b60008115159050919050565b6000819050919050565b6000819050614e4682614fab565b919050565b600073ffffffffffffffffffffffffffffffffffffffff82169050919050565b6000819050919050565b600060ff82169050919050565b60006bffffffffffffffffffffffff82169050919050565b6000614ea582614f18565b9050919050565b6000614eb782614ebe565b9050919050565b6000614ec982614e4b565b9050919050565b6000614edb82614ee2565b9050919050565b6000614eed82614e4b565b9050919050565b6000614eff82614e38565b9050919050565b6000614f1182614e6b565b9050919050565b6000614f2382614f2a565b9050919050565b6000614f3582614e4b565b9050919050565b6000614f4782614e82565b9050919050565b82818337600083830152505050565b60005b83811015614f7b578082015181840152602081019050614f60565b83811115614f8a576000848401525b50505050565b6000819050919050565b6000601f19601f8301169050919050565b60088110614fb557fe5b50565b614fc181614e10565b8114614fcc57600080fd5b50565b614fd881614e22565b8114614fe357600080fd5b50565b614fef81614e2e565b8114614ffa57600080fd5b50565b61500681614e6b565b811461501157600080fd5b50565b61501d81614e75565b811461502857600080fd5b50565b61503481614e82565b811461503f57600080fd5b5056fea2646970667358221220f77c6ec45b369f717f6a4098861d2fcee7eae33b7a784f17e2bc2dd3ed38d50f64736f6c634300060c0033",
  "devdoc": {
    "kind": "dev",
    "methods": {},
    "version": 1
  },
  "userdoc": {
    "events": {
      "ProposalCanceled(uint256)": {
        "notice": "An event emitted when a proposal has been canceled"
      },
      "ProposalCreated(uint256,address,address[],uint256[],string[],bytes[],uint256,uint256,string)": {
        "notice": "An event emitted when a new proposal is created"
      },
      "ProposalExecuted(uint256)": {
        "notice": "An event emitted when a proposal has been executed in the Timelock"
      },
      "ProposalQueued(uint256,uint256)": {
        "notice": "An event emitted when a proposal has been queued in the Timelock"
      },
      "VoteCast(address,uint256,bool,uint256)": {
        "notice": "An event emitted when a vote has been cast on a proposal"
      }
    },
    "kind": "user",
    "methods": {
      "BALLOT_TYPEHASH()": {
        "notice": "The EIP-712 typehash for the ballot struct used by the contract"
      },
      "DOMAIN_TYPEHASH()": {
        "notice": "The EIP-712 typehash for the contract's domain"
      },
      "governanceToken()": {
        "notice": "The address of the governance token"
      },
      "guardian()": {
        "notice": "The address of the Governor Guardian"
      },
      "latestProposalIds(address)": {
        "notice": "The latest proposal for each proposer"
      },
      "name()": {
        "notice": "The name of this contract"
      },
      "proposalCount()": {
        "notice": "The total number of proposals"
      },
      "proposalMaxOperations()": {
        "notice": "The maximum number of actions that can be included in a proposal"
      },
      "proposalThreshold()": {
        "notice": "The number of votes required in order for a voter to become a proposer"
      },
      "proposals(uint256)": {
        "notice": "The official record of all proposals ever proposed"
      },
      "quorumVotes()": {
        "notice": "The number of votes in support of a proposal required in order for a quorum to be reached and for a vote to succeed"
      },
      "timelock()": {
        "notice": "The address of the Timelock contract"
      },
      "votingDelay()": {
        "notice": "The delay before voting on a proposal may take place, once proposed"
      },
      "votingPeriod()": {
        "notice": "The duration of voting on a proposal, in blocks"
      }
    },
    "version": 1
  },
  "storageLayout": {
    "storage": [
      {
        "astId": 3586,
        "contract": "contracts/GovernorAlpha.sol:GovernorAlpha",
        "label": "timelock",
        "offset": 0,
        "slot": "0",
        "type": "t_contract(TimelockInterface)4788"
      },
      {
        "astId": 3589,
        "contract": "contracts/GovernorAlpha.sol:GovernorAlpha",
        "label": "governanceToken",
        "offset": 0,
        "slot": "1",
        "type": "t_contract(GovernanceTokenInterface)4798"
      },
      {
        "astId": 3592,
        "contract": "contracts/GovernorAlpha.sol:GovernorAlpha",
        "label": "guardian",
        "offset": 0,
        "slot": "2",
        "type": "t_address"
      },
      {
        "astId": 3595,
        "contract": "contracts/GovernorAlpha.sol:GovernorAlpha",
        "label": "proposalCount",
        "offset": 0,
        "slot": "3",
        "type": "t_uint256"
      },
      {
        "astId": 3651,
        "contract": "contracts/GovernorAlpha.sol:GovernorAlpha",
        "label": "proposals",
        "offset": 0,
        "slot": "4",
        "type": "t_mapping(t_uint256,t_struct(Proposal)3630_storage)"
      },
      {
        "astId": 3656,
        "contract": "contracts/GovernorAlpha.sol:GovernorAlpha",
        "label": "latestProposalIds",
        "offset": 0,
        "slot": "5",
        "type": "t_mapping(t_address,t_uint256)"
      }
    ],
    "types": {
      "t_address": {
        "encoding": "inplace",
        "label": "address",
        "numberOfBytes": "20"
      },
      "t_array(t_address)dyn_storage": {
        "base": "t_address",
        "encoding": "dynamic_array",
        "label": "address[]",
        "numberOfBytes": "32"
      },
      "t_array(t_bytes_storage)dyn_storage": {
        "base": "t_bytes_storage",
        "encoding": "dynamic_array",
        "label": "bytes[]",
        "numberOfBytes": "32"
      },
      "t_array(t_string_storage)dyn_storage": {
        "base": "t_string_storage",
        "encoding": "dynamic_array",
        "label": "string[]",
        "numberOfBytes": "32"
      },
      "t_array(t_uint256)dyn_storage": {
        "base": "t_uint256",
        "encoding": "dynamic_array",
        "label": "uint256[]",
        "numberOfBytes": "32"
      },
      "t_bool": {
        "encoding": "inplace",
        "label": "bool",
        "numberOfBytes": "1"
      },
      "t_bytes_storage": {
        "encoding": "bytes",
        "label": "bytes",
        "numberOfBytes": "32"
      },
      "t_contract(GovernanceTokenInterface)4798": {
        "encoding": "inplace",
        "label": "contract GovernanceTokenInterface",
        "numberOfBytes": "20"
      },
      "t_contract(TimelockInterface)4788": {
        "encoding": "inplace",
        "label": "contract TimelockInterface",
        "numberOfBytes": "20"
      },
      "t_mapping(t_address,t_struct(Receipt)3637_storage)": {
        "encoding": "mapping",
        "key": "t_address",
        "label": "mapping(address => struct GovernorAlpha.Receipt)",
        "numberOfBytes": "32",
        "value": "t_struct(Receipt)3637_storage"
      },
      "t_mapping(t_address,t_uint256)": {
        "encoding": "mapping",
        "key": "t_address",
        "label": "mapping(address => uint256)",
        "numberOfBytes": "32",
        "value": "t_uint256"
      },
      "t_mapping(t_uint256,t_struct(Proposal)3630_storage)": {
        "encoding": "mapping",
        "key": "t_uint256",
        "label": "mapping(uint256 => struct GovernorAlpha.Proposal)",
        "numberOfBytes": "32",
        "value": "t_struct(Proposal)3630_storage"
      },
      "t_string_storage": {
        "encoding": "bytes",
        "label": "string",
        "numberOfBytes": "32"
      },
      "t_struct(Proposal)3630_storage": {
        "encoding": "inplace",
        "label": "struct GovernorAlpha.Proposal",
        "members": [
          {
            "astId": 3597,
            "contract": "contracts/GovernorAlpha.sol:GovernorAlpha",
            "label": "id",
            "offset": 0,
            "slot": "0",
            "type": "t_uint256"
          },
          {
            "astId": 3599,
            "contract": "contracts/GovernorAlpha.sol:GovernorAlpha",
            "label": "proposer",
            "offset": 0,
            "slot": "1",
            "type": "t_address"
          },
          {
            "astId": 3601,
            "contract": "contracts/GovernorAlpha.sol:GovernorAlpha",
            "label": "eta",
            "offset": 0,
            "slot": "2",
            "type": "t_uint256"
          },
          {
            "astId": 3604,
            "contract": "contracts/GovernorAlpha.sol:GovernorAlpha",
            "label": "targets",
            "offset": 0,
            "slot": "3",
            "type": "t_array(t_address)dyn_storage"
          },
          {
            "astId": 3607,
            "contract": "contracts/GovernorAlpha.sol:GovernorAlpha",
            "label": "values",
            "offset": 0,
            "slot": "4",
            "type": "t_array(t_uint256)dyn_storage"
          },
          {
            "astId": 3610,
            "contract": "contracts/GovernorAlpha.sol:GovernorAlpha",
            "label": "signatures",
            "offset": 0,
            "slot": "5",
            "type": "t_array(t_string_storage)dyn_storage"
          },
          {
            "astId": 3613,
            "contract": "contracts/GovernorAlpha.sol:GovernorAlpha",
            "label": "calldatas",
            "offset": 0,
            "slot": "6",
            "type": "t_array(t_bytes_storage)dyn_storage"
          },
          {
            "astId": 3615,
            "contract": "contracts/GovernorAlpha.sol:GovernorAlpha",
            "label": "startBlock",
            "offset": 0,
            "slot": "7",
            "type": "t_uint256"
          },
          {
            "astId": 3617,
            "contract": "contracts/GovernorAlpha.sol:GovernorAlpha",
            "label": "endBlock",
            "offset": 0,
            "slot": "8",
            "type": "t_uint256"
          },
          {
            "astId": 3619,
            "contract": "contracts/GovernorAlpha.sol:GovernorAlpha",
            "label": "forVotes",
            "offset": 0,
            "slot": "9",
            "type": "t_uint256"
          },
          {
            "astId": 3621,
            "contract": "contracts/GovernorAlpha.sol:GovernorAlpha",
            "label": "againstVotes",
            "offset": 0,
            "slot": "10",
            "type": "t_uint256"
          },
          {
            "astId": 3623,
            "contract": "contracts/GovernorAlpha.sol:GovernorAlpha",
            "label": "canceled",
            "offset": 0,
            "slot": "11",
            "type": "t_bool"
          },
          {
            "astId": 3625,
            "contract": "contracts/GovernorAlpha.sol:GovernorAlpha",
            "label": "executed",
            "offset": 1,
            "slot": "11",
            "type": "t_bool"
          },
          {
            "astId": 3629,
            "contract": "contracts/GovernorAlpha.sol:GovernorAlpha",
            "label": "receipts",
            "offset": 0,
            "slot": "12",
            "type": "t_mapping(t_address,t_struct(Receipt)3637_storage)"
          }
        ],
        "numberOfBytes": "416"
      },
      "t_struct(Receipt)3637_storage": {
        "encoding": "inplace",
        "label": "struct GovernorAlpha.Receipt",
        "members": [
          {
            "astId": 3632,
            "contract": "contracts/GovernorAlpha.sol:GovernorAlpha",
            "label": "hasVoted",
            "offset": 0,
            "slot": "0",
            "type": "t_bool"
          },
          {
            "astId": 3634,
            "contract": "contracts/GovernorAlpha.sol:GovernorAlpha",
            "label": "support",
            "offset": 1,
            "slot": "0",
            "type": "t_bool"
          },
          {
            "astId": 3636,
            "contract": "contracts/GovernorAlpha.sol:GovernorAlpha",
            "label": "votes",
            "offset": 2,
            "slot": "0",
            "type": "t_uint96"
          }
        ],
        "numberOfBytes": "32"
      },
      "t_uint256": {
        "encoding": "inplace",
        "label": "uint256",
        "numberOfBytes": "32"
      },
      "t_uint96": {
        "encoding": "inplace",
        "label": "uint96",
        "numberOfBytes": "12"
      }
    }
  }
}