{
  "address": "0xEcEf42fdb1059D24AB774Ab04bcbe1dcf64229E7",
  "abi": [
    {
      "inputs": [
        {
          "internalType": "address",
          "name": "_cumulative",
          "type": "address"
        },
        {
          "internalType": "address",
          "name": "_stableToken",
          "type": "address"
        },
        {
          "internalType": "address",
          "name": "_governanceToken",
          "type": "address"
        },
        {
          "internalType": "address",
          "name": "_uniswapRouter",
          "type": "address"
        },
        {
          "internalType": "address",
          "name": "_priceOracle",
          "type": "address"
        }
      ],
      "stateMutability": "nonpayable",
      "type": "constructor"
    },
    {
      "anonymous": false,
      "inputs": [
        {
          "indexed": false,
          "internalType": "address",
          "name": "customer",
          "type": "address"
        },
        {
          "indexed": false,
          "internalType": "address",
          "name": "product",
          "type": "address"
        },
        {
          "indexed": false,
          "internalType": "address",
          "name": "token",
          "type": "address"
        },
        {
          "indexed": false,
          "internalType": "uint256",
          "name": "amount",
          "type": "uint256"
        },
        {
          "indexed": false,
          "internalType": "uint256",
          "name": "buy",
          "type": "uint256"
        }
      ],
      "name": "Buy",
      "type": "event"
    },
    {
      "anonymous": false,
      "inputs": [
        {
          "indexed": false,
          "internalType": "address",
          "name": "newToken",
          "type": "address"
        }
      ],
      "name": "CumulativeChanged",
      "type": "event"
    },
    {
      "anonymous": false,
      "inputs": [
        {
          "indexed": false,
          "internalType": "uint256",
          "name": "newPrice",
          "type": "uint256"
        }
      ],
      "name": "GovernanceTokenPriceChanged",
      "type": "event"
    },
    {
      "anonymous": false,
      "inputs": [
        {
          "indexed": true,
          "internalType": "address",
          "name": "previousOwner",
          "type": "address"
        },
        {
          "indexed": true,
          "internalType": "address",
          "name": "newOwner",
          "type": "address"
        }
      ],
      "name": "OwnershipTransferred",
      "type": "event"
    },
    {
      "anonymous": false,
      "inputs": [
        {
          "indexed": false,
          "internalType": "address",
          "name": "account",
          "type": "address"
        }
      ],
      "name": "Paused",
      "type": "event"
    },
    {
      "anonymous": false,
      "inputs": [
        {
          "indexed": false,
          "internalType": "address",
          "name": "newPauser",
          "type": "address"
        }
      ],
      "name": "PauserChanged",
      "type": "event"
    },
    {
      "anonymous": false,
      "inputs": [
        {
          "indexed": false,
          "internalType": "address",
          "name": "newPriceOracle",
          "type": "address"
        }
      ],
      "name": "PriceOracleChanged",
      "type": "event"
    },
    {
      "anonymous": false,
      "inputs": [
        {
          "indexed": false,
          "internalType": "address",
          "name": "token",
          "type": "address"
        },
        {
          "indexed": false,
          "internalType": "string",
          "name": "symbol",
          "type": "string"
        }
      ],
      "name": "TokenAllowed",
      "type": "event"
    },
    {
      "anonymous": false,
      "inputs": [
        {
          "indexed": false,
          "internalType": "address",
          "name": "token",
          "type": "address"
        }
      ],
      "name": "TokenDenied",
      "type": "event"
    },
    {
      "anonymous": false,
      "inputs": [
        {
          "indexed": false,
          "internalType": "address",
          "name": "newUniswapRouter",
          "type": "address"
        }
      ],
      "name": "UniswapRouterChanged",
      "type": "event"
    },
    {
      "anonymous": false,
      "inputs": [
        {
          "indexed": false,
          "internalType": "address",
          "name": "account",
          "type": "address"
        }
      ],
      "name": "Unpaused",
      "type": "event"
    },
    {
      "anonymous": false,
      "inputs": [
        {
          "indexed": false,
          "internalType": "address",
          "name": "recipient",
          "type": "address"
        },
        {
          "indexed": false,
          "internalType": "address",
          "name": "token",
          "type": "address"
        },
        {
          "indexed": false,
          "internalType": "uint256",
          "name": "amount",
          "type": "uint256"
        }
      ],
      "name": "Withdrawal",
      "type": "event"
    },
    {
      "inputs": [],
      "name": "PRICE_DECIMALS",
      "outputs": [
        {
          "internalType": "uint256",
          "name": "",
          "type": "uint256"
        }
      ],
      "stateMutability": "view",
      "type": "function"
    },
    {
      "inputs": [
        {
          "internalType": "address",
          "name": "token",
          "type": "address"
        },
        {
          "internalType": "string",
          "name": "symbol",
          "type": "string"
        }
      ],
      "name": "allowToken",
      "outputs": [],
      "stateMutability": "nonpayable",
      "type": "function"
    },
    {
      "inputs": [
        {
          "internalType": "address",
          "name": "token",
          "type": "address"
        },
        {
          "internalType": "uint256",
          "name": "amount",
          "type": "uint256"
        }
      ],
      "name": "buyGovernanceToken",
      "outputs": [
        {
          "internalType": "bool",
          "name": "",
          "type": "bool"
        }
      ],
      "stateMutability": "nonpayable",
      "type": "function"
    },
    {
      "inputs": [],
      "name": "buyGovernanceTokenFromETH",
      "outputs": [
        {
          "internalType": "bool",
          "name": "",
          "type": "bool"
        }
      ],
      "stateMutability": "payable",
      "type": "function"
    },
    {
      "inputs": [
        {
          "internalType": "address",
          "name": "token",
          "type": "address"
        },
        {
          "internalType": "uint256",
          "name": "amount",
          "type": "uint256"
        }
      ],
      "name": "buyStableToken",
      "outputs": [
        {
          "internalType": "bool",
          "name": "",
          "type": "bool"
        }
      ],
      "stateMutability": "nonpayable",
      "type": "function"
    },
    {
      "inputs": [],
      "name": "buyStableTokenFromETH",
      "outputs": [
        {
          "internalType": "bool",
          "name": "",
          "type": "bool"
        }
      ],
      "stateMutability": "payable",
      "type": "function"
    },
    {
      "inputs": [
        {
          "internalType": "address",
          "name": "newToken",
          "type": "address"
        },
        {
          "internalType": "address",
          "name": "recipient",
          "type": "address"
        }
      ],
      "name": "changeCumulativeToken",
      "outputs": [],
      "stateMutability": "nonpayable",
      "type": "function"
    },
    {
      "inputs": [
        {
          "internalType": "uint256",
          "name": "newPrice",
          "type": "uint256"
        }
      ],
      "name": "changeGovernanceTokenPrice",
      "outputs": [],
      "stateMutability": "nonpayable",
      "type": "function"
    },
    {
      "inputs": [
        {
          "internalType": "address",
          "name": "newPauser",
          "type": "address"
        }
      ],
      "name": "changePauser",
      "outputs": [],
      "stateMutability": "nonpayable",
      "type": "function"
    },
    {
      "inputs": [
        {
          "internalType": "address",
          "name": "_priceOracle",
          "type": "address"
        }
      ],
      "name": "changePriceOracle",
      "outputs": [],
      "stateMutability": "nonpayable",
      "type": "function"
    },
    {
      "inputs": [
        {
          "internalType": "address",
          "name": "_uniswapRouter",
          "type": "address"
        }
      ],
      "name": "changeUniswapRouter",
      "outputs": [],
      "stateMutability": "nonpayable",
      "type": "function"
    },
    {
      "inputs": [],
      "name": "cumulative",
      "outputs": [
        {
          "internalType": "contract ERC20",
          "name": "",
          "type": "address"
        }
      ],
      "stateMutability": "view",
      "type": "function"
    },
    {
      "inputs": [
        {
          "internalType": "address",
          "name": "token",
          "type": "address"
        }
      ],
      "name": "denyToken",
      "outputs": [],
      "stateMutability": "nonpayable",
      "type": "function"
    },
    {
      "inputs": [],
      "name": "governanceToken",
      "outputs": [
        {
          "internalType": "contract ERC20",
          "name": "",
          "type": "address"
        }
      ],
      "stateMutability": "view",
      "type": "function"
    },
    {
      "inputs": [],
      "name": "governanceTokenPrice",
      "outputs": [
        {
          "internalType": "uint256",
          "name": "",
          "type": "uint256"
        }
      ],
      "stateMutability": "view",
      "type": "function"
    },
    {
      "inputs": [
        {
          "internalType": "address",
          "name": "token",
          "type": "address"
        }
      ],
      "name": "isAllowedToken",
      "outputs": [
        {
          "internalType": "bool",
          "name": "",
          "type": "bool"
        }
      ],
      "stateMutability": "view",
      "type": "function"
    },
    {
      "inputs": [],
      "name": "owner",
      "outputs": [
        {
          "internalType": "address",
          "name": "",
          "type": "address"
        }
      ],
      "stateMutability": "view",
      "type": "function"
    },
    {
      "inputs": [],
      "name": "pause",
      "outputs": [],
      "stateMutability": "nonpayable",
      "type": "function"
    },
    {
      "inputs": [],
      "name": "paused",
      "outputs": [
        {
          "internalType": "bool",
          "name": "",
          "type": "bool"
        }
      ],
      "stateMutability": "view",
      "type": "function"
    },
    {
      "inputs": [],
      "name": "pauser",
      "outputs": [
        {
          "internalType": "address",
          "name": "",
          "type": "address"
        }
      ],
      "stateMutability": "view",
      "type": "function"
    },
    {
      "inputs": [
        {
          "internalType": "address",
          "name": "token",
          "type": "address"
        },
        {
          "internalType": "uint256",
          "name": "amount",
          "type": "uint256"
        }
      ],
      "name": "priceGovernanceToken",
      "outputs": [
        {
          "internalType": "uint256",
          "name": "",
          "type": "uint256"
        }
      ],
      "stateMutability": "view",
      "type": "function"
    },
    {
      "inputs": [],
      "name": "priceOracle",
      "outputs": [
        {
          "internalType": "contract IUniswapAnchoredView",
          "name": "",
          "type": "address"
        }
      ],
      "stateMutability": "view",
      "type": "function"
    },
    {
      "inputs": [
        {
          "internalType": "address",
          "name": "token",
          "type": "address"
        },
        {
          "internalType": "uint256",
          "name": "amount",
          "type": "uint256"
        }
      ],
      "name": "priceStableToken",
      "outputs": [
        {
          "internalType": "uint256",
          "name": "",
          "type": "uint256"
        }
      ],
      "stateMutability": "view",
      "type": "function"
    },
    {
      "inputs": [],
      "name": "renounceOwnership",
      "outputs": [],
      "stateMutability": "nonpayable",
      "type": "function"
    },
    {
      "inputs": [],
      "name": "stableToken",
      "outputs": [
        {
          "internalType": "contract ERC20",
          "name": "",
          "type": "address"
        }
      ],
      "stateMutability": "view",
      "type": "function"
    },
    {
      "inputs": [
        {
          "internalType": "address",
          "name": "recipient",
          "type": "address"
        },
        {
          "internalType": "uint256",
          "name": "amount",
          "type": "uint256"
        }
      ],
      "name": "transferGovernanceToken",
      "outputs": [],
      "stateMutability": "nonpayable",
      "type": "function"
    },
    {
      "inputs": [
        {
          "internalType": "address",
          "name": "newOwner",
          "type": "address"
        }
      ],
      "name": "transferOwnership",
      "outputs": [],
      "stateMutability": "nonpayable",
      "type": "function"
    },
    {
      "inputs": [
        {
          "internalType": "address",
          "name": "recipient",
          "type": "address"
        },
        {
          "internalType": "uint256",
          "name": "amount",
          "type": "uint256"
        }
      ],
      "name": "transferStableToken",
      "outputs": [],
      "stateMutability": "nonpayable",
      "type": "function"
    },
    {
      "inputs": [],
      "name": "uniswapRouter",
      "outputs": [
        {
          "internalType": "contract IUniswapV2Router02",
          "name": "",
          "type": "address"
        }
      ],
      "stateMutability": "view",
      "type": "function"
    },
    {
      "inputs": [],
      "name": "unpause",
      "outputs": [],
      "stateMutability": "nonpayable",
      "type": "function"
    },
    {
      "inputs": [
        {
          "internalType": "address",
          "name": "recipient",
          "type": "address"
        }
      ],
      "name": "withdraw",
      "outputs": [],
      "stateMutability": "nonpayable",
      "type": "function"
    }
  ],
  "transactionHash": "0x52033d9d706072b31a4cad4e7e1935e5e65b3b5e0a6be56cdf5712dcccdcc741",
  "args": [
    "0x0D9C8723B343A8368BebE0B5E89273fF8D712e3C",
    "0xb028D5a54f996bA4EF3eF2C2C7707db1f3D93120",
    "0x780086577C7A94eb907174e17D6Ef84cb223b861",
    "0x7a250d5630B4cF539739dF2C5dAcb4c659F2488D",
    "0xbef4e076a995c784be6094a432b9ca99b7431a3f"
  ],
  "solcInputHash": "8b37459e9c8fd497ace2b9a55f91c6f0",
  "bytecode": "0x6080604052620f42406005553480156200001857600080fd5b5060405162004e9f38038062004e9f833981810160405260a08110156200003e57600080fd5b810190808051906020019092919080519060200190929190805190602001909291908051906020019092919080519060200190929190505050600062000089620002e160201b60201c565b9050806000806101000a81548173ffffffffffffffffffffffffffffffffffffffff021916908373ffffffffffffffffffffffffffffffffffffffff1602179055508073ffffffffffffffffffffffffffffffffffffffff16600073ffffffffffffffffffffffffffffffffffffffff167f8be0079c531659141344cd1fd0a4f28419497f9722a3daafe3b4186f6b6457e060405160405180910390a35060008060146101000a81548160ff02191690831515021790555062000151620002e960201b60201c565b600160006101000a81548173ffffffffffffffffffffffffffffffffffffffff021916908373ffffffffffffffffffffffffffffffffffffffff16021790555084600260006101000a81548173ffffffffffffffffffffffffffffffffffffffff021916908373ffffffffffffffffffffffffffffffffffffffff16021790555083600360006101000a81548173ffffffffffffffffffffffffffffffffffffffff021916908373ffffffffffffffffffffffffffffffffffffffff16021790555082600460006101000a81548173ffffffffffffffffffffffffffffffffffffffff021916908373ffffffffffffffffffffffffffffffffffffffff16021790555081600660006101000a81548173ffffffffffffffffffffffffffffffffffffffff021916908373ffffffffffffffffffffffffffffffffffffffff16021790555080600760006101000a81548173ffffffffffffffffffffffffffffffffffffffff021916908373ffffffffffffffffffffffffffffffffffffffff160217905550505050505062000312565b600033905090565b60008060009054906101000a900473ffffffffffffffffffffffffffffffffffffffff16905090565b614b7d80620003226000396000f3fe6080604052600436106101d85760003560e01c80637ae176ff11610102578063c337083711610095578063e27791ed11610064578063e27791ed146109c9578063f1a640f814610a04578063f2fde38b14610a2f578063f96dae0a14610a80576101d8565b8063c33708371461081a578063c5ea3d831461086b578063cbe230c3146108bc578063d55e649414610923576101d8565b80639fd0506d116100d15780639fd0506d14610709578063a9d75b2b1461074a578063b106c98b1461078b578063b779a4da146107fa576101d8565b80637ae176ff146106155780638456cb59146106565780638da5cb5b1461066d57806395b48886146106ae576101d8565b80633f7fd8841161017a5780635d987bd3116101495780635d987bd31461054257806365893ec014610562578063715018a6146105bd578063735de9f7146105d4576101d8565b80633f7fd884146104285780634ab2d73b1461045357806351cff8d9146104c45780635c975abb14610515576101d8565b80632cd271e7116101b65780632cd271e7146102de5780632fdc9a641461032f5780633a3c2da7146103a05780633f4ba83a14610411576101d8565b80631994aa49146101dd5780632630c12f1461024c5780632ccde94b1461028d575b600080fd5b3480156101e957600080fd5b506102366004803603604081101561020057600080fd5b81019080803573ffffffffffffffffffffffffffffffffffffffff16906020019092919080359060200190929190505050610ac1565b6040518082815260200191505060405180910390f35b34801561025857600080fd5b50610261610af8565b604051808273ffffffffffffffffffffffffffffffffffffffff16815260200191505060405180910390f35b34801561029957600080fd5b506102dc600480360360208110156102b057600080fd5b81019080803573ffffffffffffffffffffffffffffffffffffffff169060200190929190505050610b1e565b005b3480156102ea57600080fd5b5061032d6004803603602081101561030157600080fd5b81019080803573ffffffffffffffffffffffffffffffffffffffff169060200190929190505050610c77565b005b34801561033b57600080fd5b506103886004803603604081101561035257600080fd5b81019080803573ffffffffffffffffffffffffffffffffffffffff16906020019092919080359060200190929190505050610df2565b60405180821515815260200191505060405180910390f35b3480156103ac57600080fd5b5061040f600480360360408110156103c357600080fd5b81019080803573ffffffffffffffffffffffffffffffffffffffff169060200190929190803573ffffffffffffffffffffffffffffffffffffffff169060200190929190505050610e29565b005b34801561041d57600080fd5b50610426610f8c565b005b34801561043457600080fd5b5061043d611087565b6040518082815260200191505060405180910390f35b34801561045f57600080fd5b506104ac6004803603604081101561047657600080fd5b81019080803573ffffffffffffffffffffffffffffffffffffffff1690602001909291908035906020019092919050505061108d565b60405180821515815260200191505060405180910390f35b3480156104d057600080fd5b50610513600480360360208110156104e757600080fd5b81019080803573ffffffffffffffffffffffffffffffffffffffff1690602001909291905050506111df565b005b34801561052157600080fd5b5061052a6114db565b60405180821515815260200191505060405180910390f35b61054a6114f1565b60405180821515815260200191505060405180910390f35b34801561056e57600080fd5b506105bb6004803603604081101561058557600080fd5b81019080803573ffffffffffffffffffffffffffffffffffffffff1690602001909291908035906020019092919050505061163e565b005b3480156105c957600080fd5b506105d2611737565b005b3480156105e057600080fd5b506105e96118bd565b604051808273ffffffffffffffffffffffffffffffffffffffff16815260200191505060405180910390f35b34801561062157600080fd5b5061062a6118e3565b604051808273ffffffffffffffffffffffffffffffffffffffff16815260200191505060405180910390f35b34801561066257600080fd5b5061066b611909565b005b34801561067957600080fd5b50610682611a04565b604051808273ffffffffffffffffffffffffffffffffffffffff16815260200191505060405180910390f35b3480156106ba57600080fd5b50610707600480360360408110156106d157600080fd5b81019080803573ffffffffffffffffffffffffffffffffffffffff16906020019092919080359060200190929190505050611a2d565b005b34801561071557600080fd5b5061071e611b26565b604051808273ffffffffffffffffffffffffffffffffffffffff16815260200191505060405180910390f35b34801561075657600080fd5b5061075f611b4c565b604051808273ffffffffffffffffffffffffffffffffffffffff16815260200191505060405180910390f35b34801561079757600080fd5b506107e4600480360360408110156107ae57600080fd5b81019080803573ffffffffffffffffffffffffffffffffffffffff16906020019092919080359060200190929190505050611b72565b6040518082815260200191505060405180910390f35b610802611ba9565b60405180821515815260200191505060405180910390f35b34801561082657600080fd5b506108696004803603602081101561083d57600080fd5b81019080803573ffffffffffffffffffffffffffffffffffffffff169060200190929190505050611bdb565b005b34801561087757600080fd5b506108ba6004803603602081101561088e57600080fd5b81019080803573ffffffffffffffffffffffffffffffffffffffff169060200190929190505050611d34565b005b3480156108c857600080fd5b5061090b600480360360208110156108df57600080fd5b81019080803573ffffffffffffffffffffffffffffffffffffffff169060200190929190505050611eaf565b60405180821515815260200191505060405180910390f35b34801561092f57600080fd5b506109c76004803603604081101561094657600080fd5b81019080803573ffffffffffffffffffffffffffffffffffffffff1690602001909291908035906020019064010000000081111561098357600080fd5b82018360208201111561099557600080fd5b803590602001918460018302840111640100000000831117156109b757600080fd5b9091929391929390505050611f0f565b005b3480156109d557600080fd5b50610a02600480360360208110156109ec57600080fd5b81019080803590602001909291905050506120ac565b005b348015610a1057600080fd5b50610a1961220e565b6040518082815260200191505060405180910390f35b348015610a3b57600080fd5b50610a7e60048036036020811015610a5257600080fd5b81019080803573ffffffffffffffffffffffffffffffffffffffff169060200190929190505050612213565b005b348015610a8c57600080fd5b50610a9561241e565b604051808273ffffffffffffffffffffffffffffffffffffffff16815260200191505060405180910390f35b6000610af0600460009054906101000a900473ffffffffffffffffffffffffffffffffffffffff168484612444565b905092915050565b600760009054906101000a900473ffffffffffffffffffffffffffffffffffffffff1681565b610b26612b0f565b73ffffffffffffffffffffffffffffffffffffffff1660008054906101000a900473ffffffffffffffffffffffffffffffffffffffff1673ffffffffffffffffffffffffffffffffffffffff1614610be6576040517f08c379a00000000000000000000000000000000000000000000000000000000081526004018080602001828103825260208152602001807f4f776e61626c653a2063616c6c6572206973206e6f7420746865206f776e657281525060200191505060405180910390fd5b80600760006101000a81548173ffffffffffffffffffffffffffffffffffffffff021916908373ffffffffffffffffffffffffffffffffffffffff1602179055507fb36d86785c7d32b1ad714bb705e00e93eccc37b8cf47549043e61e10908ad25181604051808273ffffffffffffffffffffffffffffffffffffffff16815260200191505060405180910390a150565b610c7f612b0f565b73ffffffffffffffffffffffffffffffffffffffff1660008054906101000a900473ffffffffffffffffffffffffffffffffffffffff1673ffffffffffffffffffffffffffffffffffffffff1614610d3f576040517f08c379a00000000000000000000000000000000000000000000000000000000081526004018080602001828103825260208152602001807f4f776e61626c653a2063616c6c6572206973206e6f7420746865206f776e657281525060200191505060405180910390fd5b80600160006101000a81548173ffffffffffffffffffffffffffffffffffffffff021916908373ffffffffffffffffffffffffffffffffffffffff1602179055507fb80482a293ca2e013eda8683c9bd7fc8347cfdaeea5ede58cba46df502c2a604600160009054906101000a900473ffffffffffffffffffffffffffffffffffffffff16604051808273ffffffffffffffffffffffffffffffffffffffff16815260200191505060405180910390a150565b6000610e21600360009054906101000a900473ffffffffffffffffffffffffffffffffffffffff168484612b17565b905092915050565b610e31612b0f565b73ffffffffffffffffffffffffffffffffffffffff1660008054906101000a900473ffffffffffffffffffffffffffffffffffffffff1673ffffffffffffffffffffffffffffffffffffffff1614610ef1576040517f08c379a00000000000000000000000000000000000000000000000000000000081526004018080602001828103825260208152602001807f4f776e61626c653a2063616c6c6572206973206e6f7420746865206f776e657281525060200191505060405180910390fd5b610efa816111df565b81600260006101000a81548173ffffffffffffffffffffffffffffffffffffffff021916908373ffffffffffffffffffffffffffffffffffffffff1602179055507f211984bb289184fd6dff2b81a63abf6245c2ad65b2509acf4cdff1fcc0a8734c82604051808273ffffffffffffffffffffffffffffffffffffffff16815260200191505060405180910390a15050565b610f94612b0f565b73ffffffffffffffffffffffffffffffffffffffff16600160009054906101000a900473ffffffffffffffffffffffffffffffffffffffff1673ffffffffffffffffffffffffffffffffffffffff1614806110285750610ff2612b0f565b73ffffffffffffffffffffffffffffffffffffffff16611010611a04565b73ffffffffffffffffffffffffffffffffffffffff16145b61107d576040517f08c379a00000000000000000000000000000000000000000000000000000000081526004018080602001828103825260458152602001806149326045913960600191505060405180910390fd5b611085612ff8565b565b60055481565b600080600460009054906101000a900473ffffffffffffffffffffffffffffffffffffffff1673ffffffffffffffffffffffffffffffffffffffff166370a08231336040518263ffffffff1660e01b8152600401808273ffffffffffffffffffffffffffffffffffffffff16815260200191505060206040518083038186803b15801561111957600080fd5b505afa15801561112d573d6000803e3d6000fd5b505050506040513d602081101561114357600080fd5b8101908080519060200190929190505050116111aa576040517f08c379a00000000000000000000000000000000000000000000000000000000081526004018080602001828103825260498152602001806148826049913960600191505060405180910390fd5b6111d7600460009054906101000a900473ffffffffffffffffffffffffffffffffffffffff168484612b17565b905092915050565b6111e7612b0f565b73ffffffffffffffffffffffffffffffffffffffff1660008054906101000a900473ffffffffffffffffffffffffffffffffffffffff1673ffffffffffffffffffffffffffffffffffffffff16146112a7576040517f08c379a00000000000000000000000000000000000000000000000000000000081526004018080602001828103825260208152602001807f4f776e61626c653a2063616c6c6572206973206e6f7420746865206f776e657281525060200191505060405180910390fd5b600073ffffffffffffffffffffffffffffffffffffffff168173ffffffffffffffffffffffffffffffffffffffff16141561132d576040517f08c379a00000000000000000000000000000000000000000000000000000000081526004018080602001828103825260358152602001806149f16035913960400191505060405180910390fd5b6000600260009054906101000a900473ffffffffffffffffffffffffffffffffffffffff1673ffffffffffffffffffffffffffffffffffffffff166370a08231306040518263ffffffff1660e01b8152600401808273ffffffffffffffffffffffffffffffffffffffff16815260200191505060206040518083038186803b1580156113b857600080fd5b505afa1580156113cc573d6000803e3d6000fd5b505050506040513d60208110156113e257600080fd5b810190808051906020019092919050505090506114428282600260009054906101000a900473ffffffffffffffffffffffffffffffffffffffff1673ffffffffffffffffffffffffffffffffffffffff166130ea9092919063ffffffff16565b7f2717ead6b9200dd235aad468c9809ea400fe33ac69b5bfaa6d3e90fc922b639882600260009054906101000a900473ffffffffffffffffffffffffffffffffffffffff1683604051808473ffffffffffffffffffffffffffffffffffffffff1681526020018373ffffffffffffffffffffffffffffffffffffffff168152602001828152602001935050505060405180910390a15050565b60008060149054906101000a900460ff16905090565b600080600460009054906101000a900473ffffffffffffffffffffffffffffffffffffffff1673ffffffffffffffffffffffffffffffffffffffff166370a08231336040518263ffffffff1660e01b8152600401808273ffffffffffffffffffffffffffffffffffffffff16815260200191505060206040518083038186803b15801561157d57600080fd5b505afa158015611591573d6000803e3d6000fd5b505050506040513d60208110156115a757600080fd5b81019080805190602001909291905050501161160e576040517f08c379a00000000000000000000000000000000000000000000000000000000081526004018080602001828103825260508152602001806148326050913960600191505060405180910390fd5b611639600460009054906101000a900473ffffffffffffffffffffffffffffffffffffffff1661318c565b905090565b611646612b0f565b73ffffffffffffffffffffffffffffffffffffffff1660008054906101000a900473ffffffffffffffffffffffffffffffffffffffff1673ffffffffffffffffffffffffffffffffffffffff1614611706576040517f08c379a00000000000000000000000000000000000000000000000000000000081526004018080602001828103825260208152602001807f4f776e61626c653a2063616c6c6572206973206e6f7420746865206f776e657281525060200191505060405180910390fd5b611733600360009054906101000a900473ffffffffffffffffffffffffffffffffffffffff16838361367b565b5050565b61173f612b0f565b73ffffffffffffffffffffffffffffffffffffffff1660008054906101000a900473ffffffffffffffffffffffffffffffffffffffff1673ffffffffffffffffffffffffffffffffffffffff16146117ff576040517f08c379a00000000000000000000000000000000000000000000000000000000081526004018080602001828103825260208152602001807f4f776e61626c653a2063616c6c6572206973206e6f7420746865206f776e657281525060200191505060405180910390fd5b600073ffffffffffffffffffffffffffffffffffffffff1660008054906101000a900473ffffffffffffffffffffffffffffffffffffffff1673ffffffffffffffffffffffffffffffffffffffff167f8be0079c531659141344cd1fd0a4f28419497f9722a3daafe3b4186f6b6457e060405160405180910390a360008060006101000a81548173ffffffffffffffffffffffffffffffffffffffff021916908373ffffffffffffffffffffffffffffffffffffffff160217905550565b600660009054906101000a900473ffffffffffffffffffffffffffffffffffffffff1681565b600260009054906101000a900473ffffffffffffffffffffffffffffffffffffffff1681565b611911612b0f565b73ffffffffffffffffffffffffffffffffffffffff16600160009054906101000a900473ffffffffffffffffffffffffffffffffffffffff1673ffffffffffffffffffffffffffffffffffffffff1614806119a5575061196f612b0f565b73ffffffffffffffffffffffffffffffffffffffff1661198d611a04565b73ffffffffffffffffffffffffffffffffffffffff16145b6119fa576040517f08c379a00000000000000000000000000000000000000000000000000000000081526004018080602001828103825260418152602001806148f16041913960600191505060405180910390fd5b611a02613831565b565b60008060009054906101000a900473ffffffffffffffffffffffffffffffffffffffff16905090565b611a35612b0f565b73ffffffffffffffffffffffffffffffffffffffff1660008054906101000a900473ffffffffffffffffffffffffffffffffffffffff1673ffffffffffffffffffffffffffffffffffffffff1614611af5576040517f08c379a00000000000000000000000000000000000000000000000000000000081526004018080602001828103825260208152602001807f4f776e61626c653a2063616c6c6572206973206e6f7420746865206f776e657281525060200191505060405180910390fd5b611b22600460009054906101000a900473ffffffffffffffffffffffffffffffffffffffff16838361367b565b5050565b600160009054906101000a900473ffffffffffffffffffffffffffffffffffffffff1681565b600360009054906101000a900473ffffffffffffffffffffffffffffffffffffffff1681565b6000611ba1600360009054906101000a900473ffffffffffffffffffffffffffffffffffffffff168484612444565b905092915050565b6000611bd6600360009054906101000a900473ffffffffffffffffffffffffffffffffffffffff1661318c565b905090565b611be3612b0f565b73ffffffffffffffffffffffffffffffffffffffff1660008054906101000a900473ffffffffffffffffffffffffffffffffffffffff1673ffffffffffffffffffffffffffffffffffffffff1614611ca3576040517f08c379a00000000000000000000000000000000000000000000000000000000081526004018080602001828103825260208152602001807f4f776e61626c653a2063616c6c6572206973206e6f7420746865206f776e657281525060200191505060405180910390fd5b80600660006101000a81548173ffffffffffffffffffffffffffffffffffffffff021916908373ffffffffffffffffffffffffffffffffffffffff1602179055507f0a3776494a324cdd72863deb1475d9eb705db96d66e7e199f3ebe4948343a43881604051808273ffffffffffffffffffffffffffffffffffffffff16815260200191505060405180910390a150565b611d3c612b0f565b73ffffffffffffffffffffffffffffffffffffffff1660008054906101000a900473ffffffffffffffffffffffffffffffffffffffff1673ffffffffffffffffffffffffffffffffffffffff1614611dfc576040517f08c379a00000000000000000000000000000000000000000000000000000000081526004018080602001828103825260208152602001807f4f776e61626c653a2063616c6c6572206973206e6f7420746865206f776e657281525060200191505060405180910390fd5b60405180602001604052806000815250600860008373ffffffffffffffffffffffffffffffffffffffff1673ffffffffffffffffffffffffffffffffffffffff1681526020019081526020016000209080519060200190611e5e9291906146f0565b507f99141d0e2d4f048b95e099fa59ce3343ad2b2827553ca03a066fdcbfc421dbb181604051808273ffffffffffffffffffffffffffffffffffffffff16815260200191505060405180910390a150565b600080600860008473ffffffffffffffffffffffffffffffffffffffff1673ffffffffffffffffffffffffffffffffffffffff16815260200190815260200160002080546001816001161561010002031660029004905014159050919050565b611f17612b0f565b73ffffffffffffffffffffffffffffffffffffffff1660008054906101000a900473ffffffffffffffffffffffffffffffffffffffff1673ffffffffffffffffffffffffffffffffffffffff1614611fd7576040517f08c379a00000000000000000000000000000000000000000000000000000000081526004018080602001828103825260208152602001807f4f776e61626c653a2063616c6c6572206973206e6f7420746865206f776e657281525060200191505060405180910390fd5b8181600860008673ffffffffffffffffffffffffffffffffffffffff1673ffffffffffffffffffffffffffffffffffffffff1681526020019081526020016000209190612025929190614770565b507f7e0e5645cdb1c97ffe3d599ebe4d4a327d4b5c9e9374f01018604e37d310e36c838383604051808473ffffffffffffffffffffffffffffffffffffffff168152602001806020018281038252848482818152602001925080828437600081840152601f19601f82011690508083019250505094505050505060405180910390a1505050565b6120b4612b0f565b73ffffffffffffffffffffffffffffffffffffffff1660008054906101000a900473ffffffffffffffffffffffffffffffffffffffff1673ffffffffffffffffffffffffffffffffffffffff1614612174576040517f08c379a00000000000000000000000000000000000000000000000000000000081526004018080602001828103825260208152602001807f4f776e61626c653a2063616c6c6572206973206e6f7420746865206f776e657281525060200191505060405180910390fd5b600081116121cd576040517f08c379a0000000000000000000000000000000000000000000000000000000008152600401808060200182810382526049815260200180614a7c6049913960600191505060405180910390fd5b806005819055507f17e5a94e110fff4c720c899702ca8e0a4d90ad8a8bdc828eb08f6c00df801c13816040518082815260200191505060405180910390a150565b600681565b61221b612b0f565b73ffffffffffffffffffffffffffffffffffffffff1660008054906101000a900473ffffffffffffffffffffffffffffffffffffffff1673ffffffffffffffffffffffffffffffffffffffff16146122db576040517f08c379a00000000000000000000000000000000000000000000000000000000081526004018080602001828103825260208152602001807f4f776e61626c653a2063616c6c6572206973206e6f7420746865206f776e657281525060200191505060405180910390fd5b600073ffffffffffffffffffffffffffffffffffffffff168173ffffffffffffffffffffffffffffffffffffffff161415612361576040517f08c379a00000000000000000000000000000000000000000000000000000000081526004018080602001828103825260268152602001806148cb6026913960400191505060405180910390fd5b8073ffffffffffffffffffffffffffffffffffffffff1660008054906101000a900473ffffffffffffffffffffffffffffffffffffffff1673ffffffffffffffffffffffffffffffffffffffff167f8be0079c531659141344cd1fd0a4f28419497f9722a3daafe3b4186f6b6457e060405160405180910390a3806000806101000a81548173ffffffffffffffffffffffffffffffffffffffff021916908373ffffffffffffffffffffffffffffffffffffffff16021790555050565b600460009054906101000a900473ffffffffffffffffffffffffffffffffffffffff1681565b600061244f83611eaf565b6124c1576040517f08c379a000000000000000000000000000000000000000000000000000000000815260040180806020018281038252601c8152602001807f4d61726b65743a3a70726963653a20696e76616c696420746f6b656e0000000081525060200191505060405180910390fd5b60008373ffffffffffffffffffffffffffffffffffffffff1663313ce5676040518163ffffffff1660e01b815260040160206040518083038186803b15801561250957600080fd5b505afa15801561251d573d6000803e3d6000fd5b505050506040513d602081101561253357600080fd5b810190808051906020019092919050505060ff16905060008573ffffffffffffffffffffffffffffffffffffffff1663313ce5676040518163ffffffff1660e01b815260040160206040518083038186803b15801561259157600080fd5b505afa1580156125a5573d6000803e3d6000fd5b505050506040513d60208110156125bb57600080fd5b810190808051906020019092919050505060ff1690506000600760009054906101000a900473ffffffffffffffffffffffffffffffffffffffff1673ffffffffffffffffffffffffffffffffffffffff1663fe2c6198600860008973ffffffffffffffffffffffffffffffffffffffff1673ffffffffffffffffffffffffffffffffffffffff1681526020019081526020016000206040518263ffffffff1660e01b815260040180806020018281038252838181546001816001161561010002031660029004815260200191508054600181600116156101000203166002900480156126e85780601f106126bd576101008083540402835291602001916126e8565b820191906000526020600020905b8154815290600101906020018083116126cb57829003601f168201915b50509250505060206040518083038186803b15801561270657600080fd5b505afa15801561271a573d6000803e3d6000fd5b505050506040513d602081101561273057600080fd5b810190808051906020019092919050505090506000600760009054906101000a900473ffffffffffffffffffffffffffffffffffffffff1673ffffffffffffffffffffffffffffffffffffffff1663fe2c6198600260009054906101000a900473ffffffffffffffffffffffffffffffffffffffff1673ffffffffffffffffffffffffffffffffffffffff166395d89b416040518163ffffffff1660e01b815260040160006040518083038186803b1580156127eb57600080fd5b505afa1580156127ff573d6000803e3d6000fd5b505050506040513d6000823e3d601f19601f82011682018060405250602081101561282957600080fd5b810190808051604051939291908464010000000082111561284957600080fd5b8382019150602082018581111561285f57600080fd5b825186600182028301116401000000008211171561287c57600080fd5b8083526020830192505050908051906020019080838360005b838110156128b0578082015181840152602081019050612895565b50505050905090810190601f1680156128dd5780820380516001836020036101000a031916815260200191505b506040525050506040518263ffffffff1660e01b81526004018080602001828103825283818151815260200191508051906020019080838360005b83811015612933578082015181840152602081019050612918565b50505050905090810190601f1680156129605780820380516001836020036101000a031916815260200191505b509250505060206040518083038186803b15801561297d57600080fd5b505afa158015612991573d6000803e3d6000fd5b505050506040513d60208110156129a757600080fd5b8101908080519060200190929190505050905060006129e46129d2868661392590919063ffffffff16565b600a0a8861396f90919063ffffffff16565b90508773ffffffffffffffffffffffffffffffffffffffff168973ffffffffffffffffffffffffffffffffffffffff1614612a9457612a91612a2f868661392590919063ffffffff16565b600a0a612a836006600a0a612a758b612a6788612a596006600a0a8c61396f90919063ffffffff16565b6139f590919063ffffffff16565b61396f90919063ffffffff16565b6139f590919063ffffffff16565b61396f90919063ffffffff16565b90505b600460009054906101000a900473ffffffffffffffffffffffffffffffffffffffff1673ffffffffffffffffffffffffffffffffffffffff168973ffffffffffffffffffffffffffffffffffffffff161415612aff57612af381613a3f565b95505050505050612b08565b80955050505050505b9392505050565b600033905090565b60008060149054906101000a900460ff1615612b9b576040517f08c379a00000000000000000000000000000000000000000000000000000000081526004018080602001828103825260108152602001807f5061757361626c653a207061757365640000000000000000000000000000000081525060200191505060405180910390fd5b612ba483611eaf565b612c16576040517f08c379a000000000000000000000000000000000000000000000000000000000815260040180806020018281038252601a8152602001807f4d61726b65743a3a6275793a20696e76616c696420746f6b656e00000000000081525060200191505060405180910390fd5b6000612c23858585612444565b9050612c523330858773ffffffffffffffffffffffffffffffffffffffff16613a73909392919063ffffffff16565b600260009054906101000a900473ffffffffffffffffffffffffffffffffffffffff1673ffffffffffffffffffffffffffffffffffffffff168473ffffffffffffffffffffffffffffffffffffffff1614612f28576000612cb38585613b34565b90506000811415612d0f576040517f08c379a000000000000000000000000000000000000000000000000000000000815260040180806020018281038252602481526020018061480e6024913960400191505060405180910390fd5b612d5c600660009054906101000a900473ffffffffffffffffffffffffffffffffffffffff16858773ffffffffffffffffffffffffffffffffffffffff16613d4f9092919063ffffffff16565b600660009054906101000a900473ffffffffffffffffffffffffffffffffffffffff1673ffffffffffffffffffffffffffffffffffffffff166338ed17398583612da589613f14565b30426040518663ffffffff1660e01b815260040180868152602001858152602001806020018473ffffffffffffffffffffffffffffffffffffffff168152602001838152602001828103825285818151815260200191508051906020019060200280838360005b83811015612e27578082015181840152602081019050612e0c565b505050509050019650505050505050600060405180830381600087803b158015612e5057600080fd5b505af1158015612e64573d6000803e3d6000fd5b505050506040513d6000823e3d601f19601f820116820180604052506020811015612e8e57600080fd5b8101908080516040519392919084640100000000821115612eae57600080fd5b83820191506020820185811115612ec457600080fd5b8251866020820283011164010000000082111715612ee157600080fd5b8083526020830192505050908051906020019060200280838360005b83811015612f18578082015181840152602081019050612efd565b5050505090500160405250505050505b612f5333828773ffffffffffffffffffffffffffffffffffffffff166130ea9092919063ffffffff16565b7fbab4aa6b2d5c0935e0e2937d1f73655848f670d43bf6f0c7e9e11e635bb5d86f3386868685604051808673ffffffffffffffffffffffffffffffffffffffff1681526020018573ffffffffffffffffffffffffffffffffffffffff1681526020018473ffffffffffffffffffffffffffffffffffffffff1681526020018381526020018281526020019550505050505060405180910390a160019150509392505050565b600060149054906101000a900460ff1661307a576040517f08c379a00000000000000000000000000000000000000000000000000000000081526004018080602001828103825260148152602001807f5061757361626c653a206e6f742070617573656400000000000000000000000081525060200191505060405180910390fd5b60008060146101000a81548160ff0219169083151502179055507f5db9ee0a495bf2e6ff9c91a7834c1ba4fdd244a5e8aa4e537bd38aeae4b073aa6130bd612b0f565b604051808273ffffffffffffffffffffffffffffffffffffffff16815260200191505060405180910390a1565b6131878363a9059cbb60e01b8484604051602401808373ffffffffffffffffffffffffffffffffffffffff16815260200182815260200192505050604051602081830303815290604052907bffffffffffffffffffffffffffffffffffffffffffffffffffffffff19166020820180517bffffffffffffffffffffffffffffffffffffffffffffffffffffffff838183161783525050505061424a565b505050565b60008060149054906101000a900460ff1615613210576040517f08c379a00000000000000000000000000000000000000000000000000000000081526004018080602001828103825260108152602001807f5061757361626c653a207061757365640000000000000000000000000000000081525060200191505060405180910390fd5b6000600660009054906101000a900473ffffffffffffffffffffffffffffffffffffffff1673ffffffffffffffffffffffffffffffffffffffff1663ad5c46486040518163ffffffff1660e01b815260040160206040518083038186803b15801561327a57600080fd5b505afa15801561328e573d6000803e3d6000fd5b505050506040513d60208110156132a457600080fd5b8101908080519060200190929190505050905060003490506132c582611eaf565b61331a576040517f08c379a0000000000000000000000000000000000000000000000000000000008152600401808060200182810382526021815260200180614a266021913960400191505060405180910390fd5b6000613327858484612444565b9050600260009054906101000a900473ffffffffffffffffffffffffffffffffffffffff1673ffffffffffffffffffffffffffffffffffffffff168373ffffffffffffffffffffffffffffffffffffffff16146135ab57600061338a8484613b34565b905060008114156133e6576040517f08c379a000000000000000000000000000000000000000000000000000000000815260040180806020018281038252602b815260200180614977602b913960400191505060405180910390fd5b600660009054906101000a900473ffffffffffffffffffffffffffffffffffffffff1673ffffffffffffffffffffffffffffffffffffffff16637ff36ab5848361342f88613f14565b30426040518663ffffffff1660e01b815260040180858152602001806020018473ffffffffffffffffffffffffffffffffffffffff168152602001838152602001828103825285818151815260200191508051906020019060200280838360005b838110156134ab578082015181840152602081019050613490565b50505050905001955050505050506000604051808303818588803b1580156134d257600080fd5b505af11580156134e6573d6000803e3d6000fd5b50505050506040513d6000823e3d601f19601f82011682018060405250602081101561351157600080fd5b810190808051604051939291908464010000000082111561353157600080fd5b8382019150602082018581111561354757600080fd5b825186602082028301116401000000008211171561356457600080fd5b8083526020830192505050908051906020019060200280838360005b8381101561359b578082015181840152602081019050613580565b5050505090500160405250505050505b6135d633828773ffffffffffffffffffffffffffffffffffffffff166130ea9092919063ffffffff16565b7fbab4aa6b2d5c0935e0e2937d1f73655848f670d43bf6f0c7e9e11e635bb5d86f3386858585604051808673ffffffffffffffffffffffffffffffffffffffff1681526020018573ffffffffffffffffffffffffffffffffffffffff1681526020018473ffffffffffffffffffffffffffffffffffffffff1681526020018381526020018281526020019550505050505060405180910390a160019350505050919050565b600073ffffffffffffffffffffffffffffffffffffffff168273ffffffffffffffffffffffffffffffffffffffff161415613701576040517f08c379a0000000000000000000000000000000000000000000000000000000008152600401808060200182810382526035815260200180614a476035913960400191505060405180910390fd5b60008373ffffffffffffffffffffffffffffffffffffffff166370a08231306040518263ffffffff1660e01b8152600401808273ffffffffffffffffffffffffffffffffffffffff16815260200191505060206040518083038186803b15801561376a57600080fd5b505afa15801561377e573d6000803e3d6000fd5b505050506040513d602081101561379457600080fd5b8101908080519060200190929190505050905080821115613800576040517f08c379a0000000000000000000000000000000000000000000000000000000008152600401808060200182810382526023815260200180614aef6023913960400191505060405180910390fd5b61382b83838673ffffffffffffffffffffffffffffffffffffffff166130ea9092919063ffffffff16565b50505050565b600060149054906101000a900460ff16156138b4576040517f08c379a00000000000000000000000000000000000000000000000000000000081526004018080602001828103825260108152602001807f5061757361626c653a207061757365640000000000000000000000000000000081525060200191505060405180910390fd5b6001600060146101000a81548160ff0219169083151502179055507f62e78cea01bee320cd4e420270b5ea74000d11b0c9f74754ebdbfc544b05a2586138f8612b0f565b604051808273ffffffffffffffffffffffffffffffffffffffff16815260200191505060405180910390a1565b600061396783836040518060400160405280601e81526020017f536166654d6174683a207375627472616374696f6e206f766572666c6f770000815250614339565b905092915050565b60008083141561398257600090506139ef565b600082840290508284828161399357fe5b04146139ea576040517f08c379a00000000000000000000000000000000000000000000000000000000081526004018080602001828103825260218152602001806149a26021913960400191505060405180910390fd5b809150505b92915050565b6000613a3783836040518060400160405280601a81526020017f536166654d6174683a206469766973696f6e206279207a65726f0000000000008152506143f9565b905092915050565b6000613a6c600554613a5e6006600a0a8561396f90919063ffffffff16565b6139f590919063ffffffff16565b9050919050565b613b2e846323b872dd60e01b858585604051602401808473ffffffffffffffffffffffffffffffffffffffff1681526020018373ffffffffffffffffffffffffffffffffffffffff1681526020018281526020019350505050604051602081830303815290604052907bffffffffffffffffffffffffffffffffffffffffffffffffffffffff19166020820180517bffffffffffffffffffffffffffffffffffffffffffffffffffffffff838183161783525050505061424a565b50505050565b60006060600660009054906101000a900473ffffffffffffffffffffffffffffffffffffffff1673ffffffffffffffffffffffffffffffffffffffff1663d06ca61f84613b8087613f14565b6040518363ffffffff1660e01b81526004018083815260200180602001828103825283818151815260200191508051906020019060200280838360005b83811015613bd8578082015181840152602081019050613bbd565b50505050905001935050505060006040518083038186803b158015613bfc57600080fd5b505afa158015613c10573d6000803e3d6000fd5b505050506040513d6000823e3d601f19601f820116820180604052506020811015613c3a57600080fd5b8101908080516040519392919084640100000000821115613c5a57600080fd5b83820191506020820185811115613c7057600080fd5b8251866020820283011164010000000082111715613c8d57600080fd5b8083526020830192505050908051906020019060200280838360005b83811015613cc4578082015181840152602081019050613ca9565b505050509050016040525050509050600081511415613d2e576040517f08c379a000000000000000000000000000000000000000000000000000000000815260040180806020018281038252602e8152602001806149c3602e913960400191505060405180910390fd5b80600182510381518110613d3e57fe5b602002602001015191505092915050565b6000811480613e1d575060008373ffffffffffffffffffffffffffffffffffffffff1663dd62ed3e30856040518363ffffffff1660e01b8152600401808373ffffffffffffffffffffffffffffffffffffffff1681526020018273ffffffffffffffffffffffffffffffffffffffff1681526020019250505060206040518083038186803b158015613de057600080fd5b505afa158015613df4573d6000803e3d6000fd5b505050506040513d6020811015613e0a57600080fd5b8101908080519060200190929190505050145b613e72576040517f08c379a0000000000000000000000000000000000000000000000000000000008152600401808060200182810382526036815260200180614b126036913960400191505060405180910390fd5b613f0f8363095ea7b360e01b8484604051602401808373ffffffffffffffffffffffffffffffffffffffff16815260200182815260200192505050604051602081830303815290604052907bffffffffffffffffffffffffffffffffffffffffffffffffffffffff19166020820180517bffffffffffffffffffffffffffffffffffffffffffffffffffffffff838183161783525050505061424a565b505050565b60606000600660009054906101000a900473ffffffffffffffffffffffffffffffffffffffff1673ffffffffffffffffffffffffffffffffffffffff1663ad5c46486040518163ffffffff1660e01b815260040160206040518083038186803b158015613f8057600080fd5b505afa158015613f94573d6000803e3d6000fd5b505050506040513d6020811015613faa57600080fd5b810190808051906020019092919050505090508273ffffffffffffffffffffffffffffffffffffffff168173ffffffffffffffffffffffffffffffffffffffff1614156140f9576060600267ffffffffffffffff8111801561400b57600080fd5b5060405190808252806020026020018201604052801561403a5781602001602082028036833780820191505090505b509050838160008151811061404b57fe5b602002602001019073ffffffffffffffffffffffffffffffffffffffff16908173ffffffffffffffffffffffffffffffffffffffff1681525050600260009054906101000a900473ffffffffffffffffffffffffffffffffffffffff16816001815181106140b557fe5b602002602001019073ffffffffffffffffffffffffffffffffffffffff16908173ffffffffffffffffffffffffffffffffffffffff16815250508092505050614245565b6060600367ffffffffffffffff8111801561411357600080fd5b506040519080825280602002602001820160405280156141425781602001602082028036833780820191505090505b509050838160008151811061415357fe5b602002602001019073ffffffffffffffffffffffffffffffffffffffff16908173ffffffffffffffffffffffffffffffffffffffff1681525050818160018151811061419b57fe5b602002602001019073ffffffffffffffffffffffffffffffffffffffff16908173ffffffffffffffffffffffffffffffffffffffff1681525050600260009054906101000a900473ffffffffffffffffffffffffffffffffffffffff168160028151811061420557fe5b602002602001019073ffffffffffffffffffffffffffffffffffffffff16908173ffffffffffffffffffffffffffffffffffffffff168152505080925050505b919050565b60606142ac826040518060400160405280602081526020017f5361666545524332303a206c6f772d6c6576656c2063616c6c206661696c65648152508573ffffffffffffffffffffffffffffffffffffffff166144bf9092919063ffffffff16565b9050600081511115614334578080602001905160208110156142cd57600080fd5b8101908080519060200190929190505050614333576040517f08c379a000000000000000000000000000000000000000000000000000000000815260040180806020018281038252602a815260200180614ac5602a913960400191505060405180910390fd5b5b505050565b60008383111582906143e6576040517f08c379a00000000000000000000000000000000000000000000000000000000081526004018080602001828103825283818151815260200191508051906020019080838360005b838110156143ab578082015181840152602081019050614390565b50505050905090810190601f1680156143d85780820380516001836020036101000a031916815260200191505b509250505060405180910390fd5b5060008385039050809150509392505050565b600080831182906144a5576040517f08c379a00000000000000000000000000000000000000000000000000000000081526004018080602001828103825283818151815260200191508051906020019080838360005b8381101561446a57808201518184015260208101905061444f565b50505050905090810190601f1680156144975780820380516001836020036101000a031916815260200191505b509250505060405180910390fd5b5060008385816144b157fe5b049050809150509392505050565b60606144ce84846000856144d7565b90509392505050565b60606144e2856146dd565b614554576040517f08c379a000000000000000000000000000000000000000000000000000000000815260040180806020018281038252601d8152602001807f416464726573733a2063616c6c20746f206e6f6e2d636f6e747261637400000081525060200191505060405180910390fd5b600060608673ffffffffffffffffffffffffffffffffffffffff1685876040518082805190602001908083835b602083106145a45780518252602082019150602081019050602083039250614581565b6001836020036101000a03801982511681845116808217855250505050505090500191505060006040518083038185875af1925050503d8060008114614606576040519150601f19603f3d011682016040523d82523d6000602084013e61460b565b606091505b509150915081156146205780925050506146d5565b6000815111156146335780518082602001fd5b836040517f08c379a00000000000000000000000000000000000000000000000000000000081526004018080602001828103825283818151815260200191508051906020019080838360005b8381101561469a57808201518184015260208101905061467f565b50505050905090810190601f1680156146c75780820380516001836020036101000a031916815260200191505b509250505060405180910390fd5b949350505050565b600080823b905060008111915050919050565b828054600181600116156101000203166002900490600052602060002090601f016020900481019282601f1061473157805160ff191683800117855561475f565b8280016001018555821561475f579182015b8281111561475e578251825591602001919060010190614743565b5b50905061476c91906147f0565b5090565b828054600181600116156101000203166002900490600052602060002090601f016020900481019282601f106147b157803560ff19168380011785556147df565b828001600101855582156147df579182015b828111156147de5782358255916020019190600101906147c3565b5b5090506147ec91906147f0565b5090565b5b808211156148095760008160009055506001016147f1565b509056fe4d61726b65743a3a6275793a206c697175696469747920706f6f6c20697320656d7074794d61726b65743a3a627579476f7665726e616e6365546f6b656e46726f6d4554483a206f6e6c7920746f6b656e686f6c6465722063616e20627579206e657720676f7665726e616e636520746f6b656e4d61726b65743a3a627579476f7665726e616e6365546f6b656e3a206f6e6c7920746f6b656e686f6c6465722063616e20627579206e657720676f7665726e616e636520746f6b656e4f776e61626c653a206e6577206f776e657220697320746865207a65726f20616464726573734f776e61626c655061757361626c653a3a70617573653a206f6e6c792070617573657220616e64206f776e6572206d75737420706175736520636f6e74726163744f776e61626c655061757361626c653a3a756e70617573653a206f6e6c792070617573657220616e64206f776e6572206d75737420756e706175736520636f6e74726163744d61726b65743a3a62757946726f6d4554483a206c697175696469747920706f6f6c20697320656d707479536166654d6174683a206d756c7469706c69636174696f6e206f766572666c6f774d61726b65743a3a5f616d6f756e744f75743a20696e76616c696420616d6f756e7473206f7574206c656e6774684d61726b65743a3a77697468647261773a2063616e6e6f74207472616e7366657220746f20746865207a65726f20616464726573734d61726b65743a3a62757946726f6d4554483a20696e76616c696420746f6b656e4d61726b65743a3a7472616e736665723a2063616e6e6f74207472616e7366657220746f20746865207a65726f20616464726573734d61726b65743a3a6368616e6765476f7665726e616e6365546f6b656e50726963653a20696e76616c6964206e6577207072696365206f6620676f7665726e616e636520746f6b656e5361666545524332303a204552433230206f7065726174696f6e20646964206e6f7420737563636565644d61726b65743a3a7472616e736665723a206e6f7420656e6f75676820746f6b656e735361666545524332303a20617070726f76652066726f6d206e6f6e2d7a65726f20746f206e6f6e2d7a65726f20616c6c6f77616e6365a264697066735822122076dfbb75cb6e53257a700c87cd6cc70c49207a2cae8855a3dd3e190f1f4a459364736f6c634300060c0033",
  "devdoc": {
    "kind": "dev",
    "methods": {
      "allowToken(address,string)": {
        "params": {
          "token": "Allowable token."
        }
      },
      "buyGovernanceToken(address,uint256)": {
        "params": {
          "amount": "Amount of payment token.",
          "token": "Payment token."
        },
        "returns": {
          "_0": "True if success."
        }
      },
      "buyGovernanceTokenFromETH()": {
        "returns": {
          "_0": "True if success."
        }
      },
      "buyStableToken(address,uint256)": {
        "params": {
          "amount": "Amount of payment token.",
          "token": "Payment token."
        },
        "returns": {
          "_0": "True if success."
        }
      },
      "buyStableTokenFromETH()": {
        "returns": {
          "_0": "True if success."
        }
      },
      "changeCumulativeToken(address,address)": {
        "params": {
          "newToken": "Address new cumulative token.",
          "recipient": "Address of recipient for withdraw current cumulative balance."
        }
      },
      "changeGovernanceTokenPrice(uint256)": {
        "params": {
          "newPrice": "New price of governance token of USD (6 decimal)."
        }
      },
      "changePauser(address)": {
        "params": {
          "newPauser": "Address of new pauser account."
        }
      },
      "changePriceOracle(address)": {
        "params": {
          "_priceOracle": "Address new price oracle contract."
        }
      },
      "changeUniswapRouter(address)": {
        "params": {
          "_uniswapRouter": "Address new uniswap router contract."
        }
      },
      "constructor": {
        "params": {
          "_cumulative": "Address of cumulative token.",
          "_governanceToken": "Address of governance token.",
          "_priceOracle": "Address of Price oracle contract.",
          "_stableToken": "Address of stable token.",
          "_uniswapRouter": "Address of Uniswap router contract."
        }
      },
      "denyToken(address)": {
        "params": {
          "token": "Denied token."
        }
      },
      "isAllowedToken(address)": {
        "params": {
          "token": "Target token."
        },
        "returns": {
          "_0": "Is target token allowed."
        }
      },
      "owner()": {
        "details": "Returns the address of the current owner."
      },
      "paused()": {
        "details": "Returns true if the contract is paused, and false otherwise."
      },
      "priceGovernanceToken(address,uint256)": {
        "details": "Get governance token price from payment token amount.",
        "params": {
          "amount": "Payment token amount.",
          "token": "Payment token."
        },
        "returns": {
          "_0": "Price of product token."
        }
      },
      "priceStableToken(address,uint256)": {
        "details": "Get stable token price from payment token amount.",
        "params": {
          "amount": "Payment token amount.",
          "token": "Payment token."
        },
        "returns": {
          "_0": "Price of product token."
        }
      },
      "renounceOwnership()": {
        "details": "Leaves the contract without owner. It will not be possible to call `onlyOwner` functions anymore. Can only be called by the current owner. NOTE: Renouncing ownership will leave the contract without an owner, thereby removing any functionality that is only available to the owner."
      },
      "transferGovernanceToken(address,uint256)": {
        "params": {
          "amount": "Amount of transfered token.",
          "recipient": "Address of recipient."
        }
      },
      "transferOwnership(address)": {
        "details": "Transfers ownership of the contract to a new account (`newOwner`). Can only be called by the current owner."
      },
      "transferStableToken(address,uint256)": {
        "params": {
          "amount": "Amount of transfered token.",
          "recipient": "Address of recipient."
        }
      },
      "withdraw(address)": {
        "params": {
          "recipient": "Recipient of token."
        }
      }
    },
    "stateVariables": {
      "allowedTokens": {
        "details": "Allowed tokens symbols list."
      },
      "priceOracle": {
        "details": "Address of IUniswapAnchoredView."
      },
      "uniswapRouter": {
        "details": "Address of UniswapV2Router."
      }
    },
    "version": 1
  },
  "userdoc": {
    "events": {
      "Buy(address,address,address,uint256,uint256)": {
        "notice": "An event thats emitted when an account buyed token."
      },
      "CumulativeChanged(address)": {
        "notice": "An event thats emitted when an cumulative token changed."
      },
      "GovernanceTokenPriceChanged(uint256)": {
        "notice": "An event thats emitted when an governance token price changed."
      },
      "PauserChanged(address)": {
        "notice": "An event thats emitted when an pauser address changed."
      },
      "PriceOracleChanged(address)": {
        "notice": "An event thats emitted when an price oracle contract address changed."
      },
      "TokenAllowed(address,string)": {
        "notice": "An event thats emitted when an token allowed."
      },
      "TokenDenied(address)": {
        "notice": "An event thats emitted when an token denied."
      },
      "UniswapRouterChanged(address)": {
        "notice": "An event thats emitted when an uniswap router contract address changed."
      },
      "Withdrawal(address,address,uint256)": {
        "notice": "An event thats emitted when an cumulative token withdrawal."
      }
    },
    "kind": "user",
    "methods": {
      "allowToken(address,string)": {
        "notice": "Add token to tokens white list."
      },
      "buyGovernanceToken(address,uint256)": {
        "notice": "Buy governance token with ERC20 payment token amount."
      },
      "buyGovernanceTokenFromETH()": {
        "notice": "Buy governance token with ETH amount."
      },
      "buyStableToken(address,uint256)": {
        "notice": "Buy stable token with ERC20 payment token amount."
      },
      "buyStableTokenFromETH()": {
        "notice": "Buy stable token with ETH amount."
      },
      "changeCumulativeToken(address,address)": {
        "notice": "Changed cumulative token address."
      },
      "changeGovernanceTokenPrice(uint256)": {
        "notice": "Update price of governance token."
      },
      "changePauser(address)": {
        "notice": "Change pauser account."
      },
      "changePriceOracle(address)": {
        "notice": "Changed price oracle contract address."
      },
      "changeUniswapRouter(address)": {
        "notice": "Changed uniswap router contract address."
      },
      "cumulative()": {
        "notice": "Address of cumulative token."
      },
      "denyToken(address)": {
        "notice": "Remove token from tokens white list."
      },
      "governanceToken()": {
        "notice": "Address of governance token contract."
      },
      "governanceTokenPrice()": {
        "notice": "Price of governance token"
      },
      "pause()": {
        "notice": "Triggers stopped state."
      },
      "pauser()": {
        "notice": "Address that can pause a contract."
      },
      "stableToken()": {
        "notice": "Address of stable token contract."
      },
      "transferGovernanceToken(address,uint256)": {
        "notice": "Transfer governance token to recipient."
      },
      "transferStableToken(address,uint256)": {
        "notice": "Transfer stable token to recipient."
      },
      "unpause()": {
        "notice": "Returns to normal state."
      },
      "withdraw(address)": {
        "notice": "Withdraw cumulative token to address."
      }
    },
    "version": 1
  },
  "storageLayout": {
    "storage": [
      {
        "astId": 30,
        "contract": "contracts/Market.sol:Market",
        "label": "_owner",
        "offset": 0,
        "slot": "0",
        "type": "t_address"
      },
      {
        "astId": 1806,
        "contract": "contracts/Market.sol:Market",
        "label": "_paused",
        "offset": 20,
        "slot": "0",
        "type": "t_bool"
      },
      {
        "astId": 11563,
        "contract": "contracts/Market.sol:Market",
        "label": "pauser",
        "offset": 0,
        "slot": "1",
        "type": "t_address"
      },
      {
        "astId": 5613,
        "contract": "contracts/Market.sol:Market",
        "label": "cumulative",
        "offset": 0,
        "slot": "2",
        "type": "t_contract(ERC20)907"
      },
      {
        "astId": 5616,
        "contract": "contracts/Market.sol:Market",
        "label": "stableToken",
        "offset": 0,
        "slot": "3",
        "type": "t_contract(ERC20)907"
      },
      {
        "astId": 5619,
        "contract": "contracts/Market.sol:Market",
        "label": "governanceToken",
        "offset": 0,
        "slot": "4",
        "type": "t_contract(ERC20)907"
      },
      {
        "astId": 5623,
        "contract": "contracts/Market.sol:Market",
        "label": "governanceTokenPrice",
        "offset": 0,
        "slot": "5",
        "type": "t_uint256"
      },
      {
        "astId": 5626,
        "contract": "contracts/Market.sol:Market",
        "label": "uniswapRouter",
        "offset": 0,
        "slot": "6",
        "type": "t_contract(IUniswapV2Router02)11552"
      },
      {
        "astId": 5629,
        "contract": "contracts/Market.sol:Market",
        "label": "priceOracle",
        "offset": 0,
        "slot": "7",
        "type": "t_contract(IUniswapAnchoredView)11099"
      },
      {
        "astId": 5634,
        "contract": "contracts/Market.sol:Market",
        "label": "allowedTokens",
        "offset": 0,
        "slot": "8",
        "type": "t_mapping(t_address,t_string_storage)"
      }
    ],
    "types": {
      "t_address": {
        "encoding": "inplace",
        "label": "address",
        "numberOfBytes": "20"
      },
      "t_bool": {
        "encoding": "inplace",
        "label": "bool",
        "numberOfBytes": "1"
      },
      "t_contract(ERC20)907": {
        "encoding": "inplace",
        "label": "contract ERC20",
        "numberOfBytes": "20"
      },
      "t_contract(IUniswapAnchoredView)11099": {
        "encoding": "inplace",
        "label": "contract IUniswapAnchoredView",
        "numberOfBytes": "20"
      },
      "t_contract(IUniswapV2Router02)11552": {
        "encoding": "inplace",
        "label": "contract IUniswapV2Router02",
        "numberOfBytes": "20"
      },
      "t_mapping(t_address,t_string_storage)": {
        "encoding": "mapping",
        "key": "t_address",
        "label": "mapping(address => string)",
        "numberOfBytes": "32",
        "value": "t_string_storage"
      },
      "t_string_storage": {
        "encoding": "bytes",
        "label": "string",
        "numberOfBytes": "32"
      },
      "t_uint256": {
        "encoding": "inplace",
        "label": "uint256",
        "numberOfBytes": "32"
      }
    }
  }
}