{
  "address": "0x6519d43c37ff699Cb311CED15D147327633e481a",
  "abi": [
    {
      "anonymous": false,
      "inputs": [
        {
          "indexed": true,
          "internalType": "address",
          "name": "previousOwner",
          "type": "address"
        },
        {
          "indexed": true,
          "internalType": "address",
          "name": "newOwner",
          "type": "address"
        }
      ],
      "name": "OwnershipTransferred",
      "type": "event"
    },
    {
      "anonymous": false,
      "inputs": [
        {
          "indexed": false,
          "internalType": "string",
          "name": "isin",
          "type": "string"
        },
        {
          "indexed": false,
          "internalType": "string",
          "name": "prop",
          "type": "string"
        },
        {
          "indexed": false,
          "internalType": "bytes",
          "name": "value",
          "type": "bytes"
        }
      ],
      "name": "Update",
      "type": "event"
    },
    {
      "inputs": [
        {
          "internalType": "string",
          "name": "isin",
          "type": "string"
        },
        {
          "internalType": "string",
          "name": "prop",
          "type": "string"
        }
      ],
      "name": "get",
      "outputs": [
        {
          "internalType": "bytes",
          "name": "",
          "type": "bytes"
        }
      ],
      "stateMutability": "view",
      "type": "function"
    },
    {
      "inputs": [],
      "name": "owner",
      "outputs": [
        {
          "internalType": "address",
          "name": "",
          "type": "address"
        }
      ],
      "stateMutability": "view",
      "type": "function"
    },
    {
      "inputs": [
        {
          "internalType": "string",
          "name": "isin",
          "type": "string"
        },
        {
          "internalType": "string",
          "name": "prop",
          "type": "string"
        },
        {
          "internalType": "bytes",
          "name": "value",
          "type": "bytes"
        }
      ],
      "name": "put",
      "outputs": [],
      "stateMutability": "nonpayable",
      "type": "function"
    },
    {
      "inputs": [],
      "name": "renounceOwnership",
      "outputs": [],
      "stateMutability": "nonpayable",
      "type": "function"
    },
    {
      "inputs": [
        {
          "internalType": "address",
          "name": "newOwner",
          "type": "address"
        }
      ],
      "name": "transferOwnership",
      "outputs": [],
      "stateMutability": "nonpayable",
      "type": "function"
    }
  ],
  "transactionHash": "0x7f6fedb18703088bf675673e3bdca75b6e3e4d2396ad59172716651737b35d4e",
  "args": [],
  "solcInputHash": "fceaa42279e740659bdd147cb404b1d5",
  "bytecode": "0x608060405234801561001057600080fd5b5060006100216100c460201b60201c565b9050806000806101000a81548173ffffffffffffffffffffffffffffffffffffffff021916908373ffffffffffffffffffffffffffffffffffffffff1602179055508073ffffffffffffffffffffffffffffffffffffffff16600073ffffffffffffffffffffffffffffffffffffffff167f8be0079c531659141344cd1fd0a4f28419497f9722a3daafe3b4186f6b6457e060405160405180910390a3506100cc565b600033905090565b610aeb806100db6000396000f3fe608060405234801561001057600080fd5b50600436106100575760003560e01c80633e10510b1461005c578063715018a6146101a35780638da5cb5b146101ad578063f2fde38b146101e1578063fc8d118614610225575b600080fd5b6101286004803603604081101561007257600080fd5b810190808035906020019064010000000081111561008f57600080fd5b8201836020820111156100a157600080fd5b803590602001918460018302840111640100000000831117156100c357600080fd5b9091929391929390803590602001906401000000008111156100e457600080fd5b8201836020820111156100f657600080fd5b8035906020019184600183028401116401000000008311171561011857600080fd5b9091929391929390505050610348565b6040518080602001828103825283818151815260200191508051906020019080838360005b8381101561016857808201518184015260208101905061014d565b50505050905090810190601f1680156101955780820380516001836020036101000a031916815260200191505b509250505060405180910390f35b6101ab610439565b005b6101b56105bf565b604051808273ffffffffffffffffffffffffffffffffffffffff16815260200191505060405180910390f35b610223600480360360208110156101f757600080fd5b81019080803573ffffffffffffffffffffffffffffffffffffffff1690602001909291905050506105e8565b005b6103466004803603606081101561023b57600080fd5b810190808035906020019064010000000081111561025857600080fd5b82018360208201111561026a57600080fd5b8035906020019184600183028401116401000000008311171561028c57600080fd5b9091929391929390803590602001906401000000008111156102ad57600080fd5b8201836020820111156102bf57600080fd5b803590602001918460018302840111640100000000831117156102e157600080fd5b90919293919293908035906020019064010000000081111561030257600080fd5b82018360208201111561031457600080fd5b8035906020019184600183028401116401000000008311171561033657600080fd5b90919293919293905050506107f3565b005b6060600185856040518083838082843780830192505050925050509081526020016040518091039020838360405180838380828437808301925050509250505090815260200160405180910390208054600181600116156101000203166002900480601f01602080910402602001604051908101604052809291908181526020018280546001816001161561010002031660029004801561042a5780601f106103ff5761010080835404028352916020019161042a565b820191906000526020600020905b81548152906001019060200180831161040d57829003601f168201915b50505050509050949350505050565b6104416109ea565b73ffffffffffffffffffffffffffffffffffffffff1660008054906101000a900473ffffffffffffffffffffffffffffffffffffffff1673ffffffffffffffffffffffffffffffffffffffff1614610501576040517f08c379a00000000000000000000000000000000000000000000000000000000081526004018080602001828103825260208152602001807f4f776e61626c653a2063616c6c6572206973206e6f7420746865206f776e657281525060200191505060405180910390fd5b600073ffffffffffffffffffffffffffffffffffffffff1660008054906101000a900473ffffffffffffffffffffffffffffffffffffffff1673ffffffffffffffffffffffffffffffffffffffff167f8be0079c531659141344cd1fd0a4f28419497f9722a3daafe3b4186f6b6457e060405160405180910390a360008060006101000a81548173ffffffffffffffffffffffffffffffffffffffff021916908373ffffffffffffffffffffffffffffffffffffffff160217905550565b60008060009054906101000a900473ffffffffffffffffffffffffffffffffffffffff16905090565b6105f06109ea565b73ffffffffffffffffffffffffffffffffffffffff1660008054906101000a900473ffffffffffffffffffffffffffffffffffffffff1673ffffffffffffffffffffffffffffffffffffffff16146106b0576040517f08c379a00000000000000000000000000000000000000000000000000000000081526004018080602001828103825260208152602001807f4f776e61626c653a2063616c6c6572206973206e6f7420746865206f776e657281525060200191505060405180910390fd5b600073ffffffffffffffffffffffffffffffffffffffff168173ffffffffffffffffffffffffffffffffffffffff161415610736576040517f08c379a0000000000000000000000000000000000000000000000000000000008152600401808060200182810382526026815260200180610a906026913960400191505060405180910390fd5b8073ffffffffffffffffffffffffffffffffffffffff1660008054906101000a900473ffffffffffffffffffffffffffffffffffffffff1673ffffffffffffffffffffffffffffffffffffffff167f8be0079c531659141344cd1fd0a4f28419497f9722a3daafe3b4186f6b6457e060405160405180910390a3806000806101000a81548173ffffffffffffffffffffffffffffffffffffffff021916908373ffffffffffffffffffffffffffffffffffffffff16021790555050565b6107fb6109ea565b73ffffffffffffffffffffffffffffffffffffffff1660008054906101000a900473ffffffffffffffffffffffffffffffffffffffff1673ffffffffffffffffffffffffffffffffffffffff16146108bb576040517f08c379a00000000000000000000000000000000000000000000000000000000081526004018080602001828103825260208152602001807f4f776e61626c653a2063616c6c6572206973206e6f7420746865206f776e657281525060200191505060405180910390fd5b81816001888860405180838380828437808301925050509250505090815260200160405180910390208686604051808383808284378083019250505092505050908152602001604051809103902091906109169291906109f2565b507f5729627af84ffe68a8fdd1651399993e77c5ffc76e47b43c6999d01776c52bbd8686868686866040518080602001806020018060200184810384528a8a82818152602001925080828437600081840152601f19601f8201169050808301925050508481038352888882818152602001925080828437600081840152601f19601f8201169050808301925050508481038252868682818152602001925080828437600081840152601f19601f820116905080830192505050995050505050505050505060405180910390a1505050505050565b600033905090565b828054600181600116156101000203166002900490600052602060002090601f016020900481019282601f10610a3357803560ff1916838001178555610a61565b82800160010185558215610a61579182015b82811115610a60578235825591602001919060010190610a45565b5b509050610a6e9190610a72565b5090565b5b80821115610a8b576000816000905550600101610a73565b509056fe4f776e61626c653a206e6577206f776e657220697320746865207a65726f2061646472657373a2646970667358221220d02baa32c8916072295dbdef11ec44bc4e7cbac7bf8603c547aa1a1748e5363864736f6c634300060c0033",
  "devdoc": {
    "kind": "dev",
    "methods": {
      "get(string,string)": {
        "params": {
          "isin": "International securities identification number of security.",
          "prop": "Property name of security."
        },
        "returns": {
          "_0": "Property value of security."
        }
      },
      "owner()": {
        "details": "Returns the address of the current owner."
      },
      "put(string,string,bytes)": {
        "params": {
          "isin": "International securities identification number of security.",
          "prop": "Property name of security.",
          "value": "Property value."
        }
      },
      "renounceOwnership()": {
        "details": "Leaves the contract without owner. It will not be possible to call `onlyOwner` functions anymore. Can only be called by the current owner. NOTE: Renouncing ownership will leave the contract without an owner, thereby removing any functionality that is only available to the owner."
      },
      "transferOwnership(address)": {
        "details": "Transfers ownership of the contract to a new account (`newOwner`). Can only be called by the current owner."
      }
    },
    "stateVariables": {
      "data": {
        "details": "Data of security properties."
      }
    },
    "version": 1
  },
  "userdoc": {
    "kind": "user",
    "methods": {
      "get(string,string)": {
        "notice": "Get property value of security."
      },
      "put(string,string,bytes)": {
        "notice": "Put property value of security."
      }
    },
    "version": 1
  },
  "storageLayout": {
    "storage": [
      {
        "astId": 30,
        "contract": "contracts/oracle/SecurityOracle.sol:SecurityOracle",
        "label": "_owner",
        "offset": 0,
        "slot": "0",
        "type": "t_address"
      },
      {
        "astId": 9040,
        "contract": "contracts/oracle/SecurityOracle.sol:SecurityOracle",
        "label": "data",
        "offset": 0,
        "slot": "1",
        "type": "t_mapping(t_string_memory_ptr,t_mapping(t_string_memory_ptr,t_bytes_storage))"
      }
    ],
    "types": {
      "t_address": {
        "encoding": "inplace",
        "label": "address",
        "numberOfBytes": "20"
      },
      "t_bytes_storage": {
        "encoding": "bytes",
        "label": "bytes",
        "numberOfBytes": "32"
      },
      "t_mapping(t_string_memory_ptr,t_bytes_storage)": {
        "encoding": "mapping",
        "key": "t_string_memory_ptr",
        "label": "mapping(string => bytes)",
        "numberOfBytes": "32",
        "value": "t_bytes_storage"
      },
      "t_mapping(t_string_memory_ptr,t_mapping(t_string_memory_ptr,t_bytes_storage))": {
        "encoding": "mapping",
        "key": "t_string_memory_ptr",
        "label": "mapping(string => mapping(string => bytes))",
        "numberOfBytes": "32",
        "value": "t_mapping(t_string_memory_ptr,t_bytes_storage)"
      },
      "t_string_memory_ptr": {
        "encoding": "bytes",
        "label": "string",
        "numberOfBytes": "32"
      }
    }
  }
}