{
  "address": "0x7328E284B07306008207C37E83bb6b107Dac69f6",
  "abi": [
    {
      "inputs": [
        {
          "internalType": "address",
          "name": "admin_",
          "type": "address"
        },
        {
          "internalType": "uint256",
          "name": "delay_",
          "type": "uint256"
        }
      ],
      "stateMutability": "nonpayable",
      "type": "constructor"
    },
    {
      "anonymous": false,
      "inputs": [
        {
          "indexed": true,
          "internalType": "bytes32",
          "name": "txHash",
          "type": "bytes32"
        },
        {
          "indexed": true,
          "internalType": "address",
          "name": "target",
          "type": "address"
        },
        {
          "indexed": false,
          "internalType": "uint256",
          "name": "value",
          "type": "uint256"
        },
        {
          "indexed": false,
          "internalType": "string",
          "name": "signature",
          "type": "string"
        },
        {
          "indexed": false,
          "internalType": "bytes",
          "name": "data",
          "type": "bytes"
        },
        {
          "indexed": false,
          "internalType": "uint256",
          "name": "eta",
          "type": "uint256"
        }
      ],
      "name": "CancelTransaction",
      "type": "event"
    },
    {
      "anonymous": false,
      "inputs": [
        {
          "indexed": true,
          "internalType": "bytes32",
          "name": "txHash",
          "type": "bytes32"
        },
        {
          "indexed": true,
          "internalType": "address",
          "name": "target",
          "type": "address"
        },
        {
          "indexed": false,
          "internalType": "uint256",
          "name": "value",
          "type": "uint256"
        },
        {
          "indexed": false,
          "internalType": "string",
          "name": "signature",
          "type": "string"
        },
        {
          "indexed": false,
          "internalType": "bytes",
          "name": "data",
          "type": "bytes"
        },
        {
          "indexed": false,
          "internalType": "uint256",
          "name": "eta",
          "type": "uint256"
        }
      ],
      "name": "ExecuteTransaction",
      "type": "event"
    },
    {
      "anonymous": false,
      "inputs": [
        {
          "indexed": true,
          "internalType": "address",
          "name": "newAdmin",
          "type": "address"
        }
      ],
      "name": "NewAdmin",
      "type": "event"
    },
    {
      "anonymous": false,
      "inputs": [
        {
          "indexed": true,
          "internalType": "uint256",
          "name": "newDelay",
          "type": "uint256"
        }
      ],
      "name": "NewDelay",
      "type": "event"
    },
    {
      "anonymous": false,
      "inputs": [
        {
          "indexed": true,
          "internalType": "address",
          "name": "newPendingAdmin",
          "type": "address"
        }
      ],
      "name": "NewPendingAdmin",
      "type": "event"
    },
    {
      "anonymous": false,
      "inputs": [
        {
          "indexed": true,
          "internalType": "bytes32",
          "name": "txHash",
          "type": "bytes32"
        },
        {
          "indexed": true,
          "internalType": "address",
          "name": "target",
          "type": "address"
        },
        {
          "indexed": false,
          "internalType": "uint256",
          "name": "value",
          "type": "uint256"
        },
        {
          "indexed": false,
          "internalType": "string",
          "name": "signature",
          "type": "string"
        },
        {
          "indexed": false,
          "internalType": "bytes",
          "name": "data",
          "type": "bytes"
        },
        {
          "indexed": false,
          "internalType": "uint256",
          "name": "eta",
          "type": "uint256"
        }
      ],
      "name": "QueueTransaction",
      "type": "event"
    },
    {
      "inputs": [],
      "name": "GRACE_PERIOD",
      "outputs": [
        {
          "internalType": "uint256",
          "name": "",
          "type": "uint256"
        }
      ],
      "stateMutability": "view",
      "type": "function"
    },
    {
      "inputs": [],
      "name": "MAXIMUM_DELAY",
      "outputs": [
        {
          "internalType": "uint256",
          "name": "",
          "type": "uint256"
        }
      ],
      "stateMutability": "view",
      "type": "function"
    },
    {
      "inputs": [],
      "name": "MINIMUM_DELAY",
      "outputs": [
        {
          "internalType": "uint256",
          "name": "",
          "type": "uint256"
        }
      ],
      "stateMutability": "view",
      "type": "function"
    },
    {
      "inputs": [
        {
          "internalType": "address",
          "name": "_newAdmin",
          "type": "address"
        }
      ],
      "name": "__transferAdmin",
      "outputs": [],
      "stateMutability": "nonpayable",
      "type": "function"
    },
    {
      "inputs": [],
      "name": "acceptAdmin",
      "outputs": [],
      "stateMutability": "nonpayable",
      "type": "function"
    },
    {
      "inputs": [],
      "name": "admin",
      "outputs": [
        {
          "internalType": "address",
          "name": "",
          "type": "address"
        }
      ],
      "stateMutability": "view",
      "type": "function"
    },
    {
      "inputs": [
        {
          "internalType": "address",
          "name": "target",
          "type": "address"
        },
        {
          "internalType": "uint256",
          "name": "value",
          "type": "uint256"
        },
        {
          "internalType": "string",
          "name": "signature",
          "type": "string"
        },
        {
          "internalType": "bytes",
          "name": "data",
          "type": "bytes"
        },
        {
          "internalType": "uint256",
          "name": "eta",
          "type": "uint256"
        }
      ],
      "name": "cancelTransaction",
      "outputs": [],
      "stateMutability": "nonpayable",
      "type": "function"
    },
    {
      "inputs": [],
      "name": "delay",
      "outputs": [
        {
          "internalType": "uint256",
          "name": "",
          "type": "uint256"
        }
      ],
      "stateMutability": "view",
      "type": "function"
    },
    {
      "inputs": [
        {
          "internalType": "address",
          "name": "target",
          "type": "address"
        },
        {
          "internalType": "uint256",
          "name": "value",
          "type": "uint256"
        },
        {
          "internalType": "string",
          "name": "signature",
          "type": "string"
        },
        {
          "internalType": "bytes",
          "name": "data",
          "type": "bytes"
        },
        {
          "internalType": "uint256",
          "name": "eta",
          "type": "uint256"
        }
      ],
      "name": "executeTransaction",
      "outputs": [
        {
          "internalType": "bytes",
          "name": "",
          "type": "bytes"
        }
      ],
      "stateMutability": "payable",
      "type": "function"
    },
    {
      "inputs": [],
      "name": "pendingAdmin",
      "outputs": [
        {
          "internalType": "address",
          "name": "",
          "type": "address"
        }
      ],
      "stateMutability": "view",
      "type": "function"
    },
    {
      "inputs": [
        {
          "internalType": "address",
          "name": "target",
          "type": "address"
        },
        {
          "internalType": "uint256",
          "name": "value",
          "type": "uint256"
        },
        {
          "internalType": "string",
          "name": "signature",
          "type": "string"
        },
        {
          "internalType": "bytes",
          "name": "data",
          "type": "bytes"
        },
        {
          "internalType": "uint256",
          "name": "eta",
          "type": "uint256"
        }
      ],
      "name": "queueTransaction",
      "outputs": [
        {
          "internalType": "bytes32",
          "name": "",
          "type": "bytes32"
        }
      ],
      "stateMutability": "nonpayable",
      "type": "function"
    },
    {
      "inputs": [
        {
          "internalType": "bytes32",
          "name": "",
          "type": "bytes32"
        }
      ],
      "name": "queuedTransactions",
      "outputs": [
        {
          "internalType": "bool",
          "name": "",
          "type": "bool"
        }
      ],
      "stateMutability": "view",
      "type": "function"
    },
    {
      "inputs": [
        {
          "internalType": "uint256",
          "name": "delay_",
          "type": "uint256"
        }
      ],
      "name": "setDelay",
      "outputs": [],
      "stateMutability": "nonpayable",
      "type": "function"
    },
    {
      "inputs": [
        {
          "internalType": "address",
          "name": "pendingAdmin_",
          "type": "address"
        }
      ],
      "name": "setPendingAdmin",
      "outputs": [],
      "stateMutability": "nonpayable",
      "type": "function"
    },
    {
      "stateMutability": "payable",
      "type": "receive"
    }
  ],
  "transactionHash": "0xff9c48698a22165d7c699d7a1f04f4ef43c11f36871f53e88cfdc57b95c3afc9",
  "args": [
    "0x9403932015576D13Fb26B135ed7a35d5d95C18d4",
    172800
  ],
  "solcInputHash": "c8270655ba338b93a428542b1862ab27",
  "bytecode": "0x608060405234801561001057600080fd5b506040516121783803806121788339818101604052604081101561003357600080fd5b8101908080519060200190929190805190602001909291905050506202a3008110156100aa576040517f08c379a00000000000000000000000000000000000000000000000000000000081526004018080602001828103825260378152602001806121096037913960400191505060405180910390fd5b62278d00811115610106576040517f08c379a00000000000000000000000000000000000000000000000000000000081526004018080602001828103825260388152602001806121406038913960400191505060405180910390fd5b816000806101000a81548173ffffffffffffffffffffffffffffffffffffffff021916908373ffffffffffffffffffffffffffffffffffffffff160217905550806002819055505050611fab8061015e6000396000f3fe6080604052600436106100e15760003560e01c80637d645fab1161007f578063c1a287e211610059578063c1a287e2146107a1578063e177246e146107cc578063f2b0653714610807578063f851a44014610858576100e8565b80637d645fab146106fa578063a2ac4c2814610725578063b1b43ae514610776576100e8565b80633a66f901116100bb5780633a66f901146103445780634dd18bf5146104eb578063591fcdfe1461053c5780636a42b8f8146106cf576100e8565b80630825f38f146100ed5780630e18b681146102ec5780632678224714610303576100e8565b366100e857005b600080fd5b610271600480360360a081101561010357600080fd5b81019080803573ffffffffffffffffffffffffffffffffffffffff169060200190929190803590602001909291908035906020019064010000000081111561014a57600080fd5b82018360208201111561015c57600080fd5b8035906020019184600183028401116401000000008311171561017e57600080fd5b91908080601f016020809104026020016040519081016040528093929190818152602001838380828437600081840152601f19601f820116905080830192505050505050509192919290803590602001906401000000008111156101e157600080fd5b8201836020820111156101f357600080fd5b8035906020019184600183028401116401000000008311171561021557600080fd5b91908080601f016020809104026020016040519081016040528093929190818152602001838380828437600081840152601f19601f82011690508083019250505050505050919291929080359060200190929190505050610899565b6040518080602001828103825283818151815260200191508051906020019080838360005b838110156102b1578082015181840152602081019050610296565b50505050905090810190601f1680156102de5780820380516001836020036101000a031916815260200191505b509250505060405180910390f35b3480156102f857600080fd5b50610301610ee4565b005b34801561030f57600080fd5b50610318611071565b604051808273ffffffffffffffffffffffffffffffffffffffff16815260200191505060405180910390f35b34801561035057600080fd5b506104d5600480360360a081101561036757600080fd5b81019080803573ffffffffffffffffffffffffffffffffffffffff16906020019092919080359060200190929190803590602001906401000000008111156103ae57600080fd5b8201836020820111156103c057600080fd5b803590602001918460018302840111640100000000831117156103e257600080fd5b91908080601f016020809104026020016040519081016040528093929190818152602001838380828437600081840152601f19601f8201169050808301925050505050505091929192908035906020019064010000000081111561044557600080fd5b82018360208201111561045757600080fd5b8035906020019184600183028401116401000000008311171561047957600080fd5b91908080601f016020809104026020016040519081016040528093929190818152602001838380828437600081840152601f19601f82011690508083019250505050505050919291929080359060200190929190505050611097565b6040518082815260200191505060405180910390f35b3480156104f757600080fd5b5061053a6004803603602081101561050e57600080fd5b81019080803573ffffffffffffffffffffffffffffffffffffffff169060200190929190505050611447565b005b34801561054857600080fd5b506106cd600480360360a081101561055f57600080fd5b81019080803573ffffffffffffffffffffffffffffffffffffffff16906020019092919080359060200190929190803590602001906401000000008111156105a657600080fd5b8201836020820111156105b857600080fd5b803590602001918460018302840111640100000000831117156105da57600080fd5b91908080601f016020809104026020016040519081016040528093929190818152602001838380828437600081840152601f19601f8201169050808301925050505050505091929192908035906020019064010000000081111561063d57600080fd5b82018360208201111561064f57600080fd5b8035906020019184600183028401116401000000008311171561067157600080fd5b91908080601f016020809104026020016040519081016040528093929190818152602001838380828437600081840152601f19601f82011690508083019250505050505050919291929080359060200190929190505050611574565b005b3480156106db57600080fd5b506106e46118a8565b6040518082815260200191505060405180910390f35b34801561070657600080fd5b5061070f6118ae565b6040518082815260200191505060405180910390f35b34801561073157600080fd5b506107746004803603602081101561074857600080fd5b81019080803573ffffffffffffffffffffffffffffffffffffffff1690602001909291905050506118b5565b005b34801561078257600080fd5b5061078b6119ff565b6040518082815260200191505060405180910390f35b3480156107ad57600080fd5b506107b6611a06565b6040518082815260200191505060405180910390f35b3480156107d857600080fd5b50610805600480360360208110156107ef57600080fd5b8101908080359060200190929190505050611a0d565b005b34801561081357600080fd5b506108406004803603602081101561082a57600080fd5b8101908080359060200190929190505050611b82565b60405180821515815260200191505060405180910390f35b34801561086457600080fd5b5061086d611ba2565b604051808273ffffffffffffffffffffffffffffffffffffffff16815260200191505060405180910390f35b606060008054906101000a900473ffffffffffffffffffffffffffffffffffffffff1673ffffffffffffffffffffffffffffffffffffffff163373ffffffffffffffffffffffffffffffffffffffff161461093f576040517f08c379a0000000000000000000000000000000000000000000000000000000008152600401808060200182810382526038815260200180611c576038913960400191505060405180910390fd5b60008686868686604051602001808673ffffffffffffffffffffffffffffffffffffffff1681526020018581526020018060200180602001848152602001838103835286818151815260200191508051906020019080838360005b838110156109b557808201518184015260208101905061099a565b50505050905090810190601f1680156109e25780820380516001836020036101000a031916815260200191505b50838103825285818151815260200191508051906020019080838360005b83811015610a1b578082015181840152602081019050610a00565b50505050905090810190601f168015610a485780820380516001836020036101000a031916815260200191505b509750505050505050506040516020818303038152906040528051906020012090506003600082815260200190815260200160002060009054906101000a900460ff16610ae0576040517f08c379a000000000000000000000000000000000000000000000000000000000815260040180806020018281038252603d815260200180611daa603d913960400191505060405180910390fd5b82610ae9611bc6565b1015610b40576040517f08c379a0000000000000000000000000000000000000000000000000000000008152600401808060200182810382526045815260200180611cf96045913960600191505060405180910390fd5b610b566212750084611bce90919063ffffffff16565b610b5e611bc6565b1115610bb5576040517f08c379a0000000000000000000000000000000000000000000000000000000008152600401808060200182810382526033815260200180611cc66033913960400191505060405180910390fd5b60006003600083815260200190815260200160002060006101000a81548160ff0219169083151502179055506060600086511415610bf557849050610c91565b85805190602001208560405160200180837bffffffffffffffffffffffffffffffffffffffffffffffffffffffff1916815260040182805190602001908083835b60208310610c595780518252602082019150602081019050602083039250610c36565b6001836020036101000a0380198251168184511680821785525050505050509050019250505060405160208183030381529060405290505b600060608973ffffffffffffffffffffffffffffffffffffffff1689846040518082805190602001908083835b60208310610ce15780518252602082019150602081019050602083039250610cbe565b6001836020036101000a03801982511681845116808217855250505050505090500191505060006040518083038185875af1925050503d8060008114610d43576040519150601f19603f3d011682016040523d82523d6000602084013e610d48565b606091505b509150915081610da3576040517f08c379a000000000000000000000000000000000000000000000000000000000815260040180806020018281038252603d815260200180611ebf603d913960400191505060405180910390fd5b8973ffffffffffffffffffffffffffffffffffffffff16847fa560e3198060a2f10670c1ec5b403077ea6ae93ca8de1c32b451dc1a943cd6e78b8b8b8b604051808581526020018060200180602001848152602001838103835286818151815260200191508051906020019080838360005b83811015610e30578082015181840152602081019050610e15565b50505050905090810190601f168015610e5d5780820380516001836020036101000a031916815260200191505b50838103825285818151815260200191508051906020019080838360005b83811015610e96578082015181840152602081019050610e7b565b50505050905090810190601f168015610ec35780820380516001836020036101000a031916815260200191505b50965050505050505060405180910390a38094505050505095945050505050565b600160009054906101000a900473ffffffffffffffffffffffffffffffffffffffff1673ffffffffffffffffffffffffffffffffffffffff163373ffffffffffffffffffffffffffffffffffffffff1614610f8a576040517f08c379a0000000000000000000000000000000000000000000000000000000008152600401808060200182810382526038815260200180611e196038913960400191505060405180910390fd5b336000806101000a81548173ffffffffffffffffffffffffffffffffffffffff021916908373ffffffffffffffffffffffffffffffffffffffff1602179055506000600160006101000a81548173ffffffffffffffffffffffffffffffffffffffff021916908373ffffffffffffffffffffffffffffffffffffffff16021790555060008054906101000a900473ffffffffffffffffffffffffffffffffffffffff1673ffffffffffffffffffffffffffffffffffffffff167f71614071b88dee5e0b2ae578a9dd7b2ebbe9ae832ba419dc0242cd065a290b6c60405160405180910390a2565b600160009054906101000a900473ffffffffffffffffffffffffffffffffffffffff1681565b60008060009054906101000a900473ffffffffffffffffffffffffffffffffffffffff1673ffffffffffffffffffffffffffffffffffffffff163373ffffffffffffffffffffffffffffffffffffffff161461113e576040517f08c379a0000000000000000000000000000000000000000000000000000000008152600401808060200182810382526036815260200180611e896036913960400191505060405180910390fd5b61115a60025461114c611bc6565b611bce90919063ffffffff16565b8210156111b2576040517f08c379a0000000000000000000000000000000000000000000000000000000008152600401808060200182810382526049815260200180611efc6049913960600191505060405180910390fd5b60008686868686604051602001808673ffffffffffffffffffffffffffffffffffffffff1681526020018581526020018060200180602001848152602001838103835286818151815260200191508051906020019080838360005b8381101561122857808201518184015260208101905061120d565b50505050905090810190601f1680156112555780820380516001836020036101000a031916815260200191505b50838103825285818151815260200191508051906020019080838360005b8381101561128e578082015181840152602081019050611273565b50505050905090810190601f1680156112bb5780820380516001836020036101000a031916815260200191505b5097505050505050505060405160208183030381529060405280519060200120905060016003600083815260200190815260200160002060006101000a81548160ff0219169083151502179055508673ffffffffffffffffffffffffffffffffffffffff16817f76e2796dc3a81d57b0e8504b647febcbeeb5f4af818e164f11eef8131a6a763f88888888604051808581526020018060200180602001848152602001838103835286818151815260200191508051906020019080838360005b8381101561139657808201518184015260208101905061137b565b50505050905090810190601f1680156113c35780820380516001836020036101000a031916815260200191505b50838103825285818151815260200191508051906020019080838360005b838110156113fc5780820151818401526020810190506113e1565b50505050905090810190601f1680156114295780820380516001836020036101000a031916815260200191505b50965050505050505060405180910390a38091505095945050505050565b3073ffffffffffffffffffffffffffffffffffffffff163373ffffffffffffffffffffffffffffffffffffffff16146114cb576040517f08c379a0000000000000000000000000000000000000000000000000000000008152600401808060200182810382526038815260200180611e516038913960400191505060405180910390fd5b80600160006101000a81548173ffffffffffffffffffffffffffffffffffffffff021916908373ffffffffffffffffffffffffffffffffffffffff160217905550600160009054906101000a900473ffffffffffffffffffffffffffffffffffffffff1673ffffffffffffffffffffffffffffffffffffffff167f69d78e38a01985fbb1462961809b4b2d65531bc93b2b94037f3334b82ca4a75660405160405180910390a250565b60008054906101000a900473ffffffffffffffffffffffffffffffffffffffff1673ffffffffffffffffffffffffffffffffffffffff163373ffffffffffffffffffffffffffffffffffffffff1614611618576040517f08c379a0000000000000000000000000000000000000000000000000000000008152600401808060200182810382526037815260200180611c8f6037913960400191505060405180910390fd5b60008585858585604051602001808673ffffffffffffffffffffffffffffffffffffffff1681526020018581526020018060200180602001848152602001838103835286818151815260200191508051906020019080838360005b8381101561168e578082015181840152602081019050611673565b50505050905090810190601f1680156116bb5780820380516001836020036101000a031916815260200191505b50838103825285818151815260200191508051906020019080838360005b838110156116f45780820151818401526020810190506116d9565b50505050905090810190601f1680156117215780820380516001836020036101000a031916815260200191505b5097505050505050505060405160208183030381529060405280519060200120905060006003600083815260200190815260200160002060006101000a81548160ff0219169083151502179055508573ffffffffffffffffffffffffffffffffffffffff16817f2fffc091a501fd91bfbff27141450d3acb40fb8e6d8382b243ec7a812a3aaf8787878787604051808581526020018060200180602001848152602001838103835286818151815260200191508051906020019080838360005b838110156117fc5780820151818401526020810190506117e1565b50505050905090810190601f1680156118295780820380516001836020036101000a031916815260200191505b50838103825285818151815260200191508051906020019080838360005b83811015611862578082015181840152602081019050611847565b50505050905090810190601f16801561188f5780820380516001836020036101000a031916815260200191505b50965050505050505060405180910390a3505050505050565b60025481565b62278d0081565b60008054906101000a900473ffffffffffffffffffffffffffffffffffffffff1673ffffffffffffffffffffffffffffffffffffffff163373ffffffffffffffffffffffffffffffffffffffff1614611959576040517f08c379a0000000000000000000000000000000000000000000000000000000008152600401808060200182810382526032815260200180611de76032913960400191505060405180910390fd5b806000806101000a81548173ffffffffffffffffffffffffffffffffffffffff021916908373ffffffffffffffffffffffffffffffffffffffff16021790555060008054906101000a900473ffffffffffffffffffffffffffffffffffffffff1673ffffffffffffffffffffffffffffffffffffffff167f71614071b88dee5e0b2ae578a9dd7b2ebbe9ae832ba419dc0242cd065a290b6c60405160405180910390a250565b6202a30081565b6212750081565b3073ffffffffffffffffffffffffffffffffffffffff163373ffffffffffffffffffffffffffffffffffffffff1614611a91576040517f08c379a0000000000000000000000000000000000000000000000000000000008152600401808060200182810382526031815260200180611f456031913960400191505060405180910390fd5b6202a300811015611aed576040517f08c379a0000000000000000000000000000000000000000000000000000000008152600401808060200182810382526034815260200180611d3e6034913960400191505060405180910390fd5b62278d00811115611b49576040517f08c379a0000000000000000000000000000000000000000000000000000000008152600401808060200182810382526038815260200180611d726038913960400191505060405180910390fd5b806002819055506002547f948b1f6a42ee138b7e34058ba85a37f716d55ff25ff05a763f15bed6a04c8d2c60405160405180910390a250565b60036020528060005260406000206000915054906101000a900460ff1681565b60008054906101000a900473ffffffffffffffffffffffffffffffffffffffff1681565b600042905090565b600080828401905083811015611c4c576040517f08c379a000000000000000000000000000000000000000000000000000000000815260040180806020018281038252601b8152602001807f536166654d6174683a206164646974696f6e206f766572666c6f77000000000081525060200191505060405180910390fd5b809150509291505056fe54696d656c6f636b3a3a657865637574655472616e73616374696f6e3a2043616c6c206d75737420636f6d652066726f6d2061646d696e2e54696d656c6f636b3a3a63616e63656c5472616e73616374696f6e3a2043616c6c206d75737420636f6d652066726f6d2061646d696e2e54696d656c6f636b3a3a657865637574655472616e73616374696f6e3a205472616e73616374696f6e206973207374616c652e54696d656c6f636b3a3a657865637574655472616e73616374696f6e3a205472616e73616374696f6e206861736e2774207375727061737365642074696d65206c6f636b2e54696d656c6f636b3a3a73657444656c61793a2044656c6179206d75737420657863656564206d696e696d756d2064656c61792e54696d656c6f636b3a3a73657444656c61793a2044656c6179206d757374206e6f7420657863656564206d6178696d756d2064656c61792e54696d656c6f636b3a3a657865637574655472616e73616374696f6e3a205472616e73616374696f6e206861736e2774206265656e207175657565642e54696d656c6f636b3a3a5f5f7472616e7366657241646d696e3a2063616c6c6572206973206e6f74207468652061646d696e54696d656c6f636b3a3a61636365707441646d696e3a2043616c6c206d75737420636f6d652066726f6d2070656e64696e6741646d696e2e54696d656c6f636b3a3a73657450656e64696e6741646d696e3a2043616c6c206d75737420636f6d652066726f6d2054696d656c6f636b2e54696d656c6f636b3a3a71756575655472616e73616374696f6e3a2043616c6c206d75737420636f6d652066726f6d2061646d696e2e54696d656c6f636b3a3a657865637574655472616e73616374696f6e3a205472616e73616374696f6e20657865637574696f6e2072657665727465642e54696d656c6f636b3a3a71756575655472616e73616374696f6e3a20457374696d6174656420657865637574696f6e20626c6f636b206d75737420736174697366792064656c61792e54696d656c6f636b3a3a73657444656c61793a2043616c6c206d75737420636f6d652066726f6d2054696d656c6f636b2ea2646970667358221220d886a492d8d300dfdb29a770d2ee0855057418a0754f6f3d2d9973251404e5d164736f6c634300060c003354696d656c6f636b3a3a636f6e7374727563746f723a2044656c6179206d75737420657863656564206d696e696d756d2064656c61792e54696d656c6f636b3a3a73657444656c61793a2044656c6179206d757374206e6f7420657863656564206d6178696d756d2064656c61792e",
  "libraries": {
    "SafeMath": "0xf9DD4A213C447A2Fe72781c811917Aab0767D725"
  },
  "devdoc": {
    "kind": "dev",
    "methods": {},
    "version": 1
  },
  "userdoc": {
    "kind": "user",
    "methods": {},
    "version": 1
  },
  "storageLayout": {
    "storage": [
      {
        "astId": 7362,
        "contract": "contracts/Timelock.sol:Timelock",
        "label": "admin",
        "offset": 0,
        "slot": "0",
        "type": "t_address"
      },
      {
        "astId": 7364,
        "contract": "contracts/Timelock.sol:Timelock",
        "label": "pendingAdmin",
        "offset": 0,
        "slot": "1",
        "type": "t_address"
      },
      {
        "astId": 7366,
        "contract": "contracts/Timelock.sol:Timelock",
        "label": "delay",
        "offset": 0,
        "slot": "2",
        "type": "t_uint256"
      },
      {
        "astId": 7370,
        "contract": "contracts/Timelock.sol:Timelock",
        "label": "queuedTransactions",
        "offset": 0,
        "slot": "3",
        "type": "t_mapping(t_bytes32,t_bool)"
      }
    ],
    "types": {
      "t_address": {
        "encoding": "inplace",
        "label": "address",
        "numberOfBytes": "20"
      },
      "t_bool": {
        "encoding": "inplace",
        "label": "bool",
        "numberOfBytes": "1"
      },
      "t_bytes32": {
        "encoding": "inplace",
        "label": "bytes32",
        "numberOfBytes": "32"
      },
      "t_mapping(t_bytes32,t_bool)": {
        "encoding": "mapping",
        "key": "t_bytes32",
        "label": "mapping(bytes32 => bool)",
        "numberOfBytes": "32",
        "value": "t_bool"
      },
      "t_uint256": {
        "encoding": "inplace",
        "label": "uint256",
        "numberOfBytes": "32"
      }
    }
  }
}