{
  "_format": "hh-sol-artifact-1",
  "contractName": "Buyback",
  "sourceName": "contracts/profit/Buyback.sol",
  "abi": [
    {
      "inputs": [
        {
          "internalType": "address",
          "name": "_incoming",
          "type": "address"
        },
        {
          "internalType": "address",
          "name": "_outcoming",
          "type": "address"
        },
        {
          "internalType": "address",
          "name": "_recipient",
          "type": "address"
        },
        {
          "internalType": "address",
          "name": "_uniswapRouter",
          "type": "address"
        }
      ],
      "stateMutability": "nonpayable",
      "type": "constructor"
    },
    {
      "anonymous": false,
      "inputs": [
        {
          "indexed": false,
          "internalType": "uint256",
          "name": "incoming",
          "type": "uint256"
        },
        {
          "indexed": false,
          "internalType": "uint256",
          "name": "outcoming",
          "type": "uint256"
        }
      ],
      "name": "BuybackSuccessed",
      "type": "event"
    },
    {
      "anonymous": false,
      "inputs": [
        {
          "indexed": false,
          "internalType": "address",
          "name": "newIncoming",
          "type": "address"
        }
      ],
      "name": "IncomingChanged",
      "type": "event"
    },
    {
      "anonymous": false,
      "inputs": [
        {
          "indexed": true,
          "internalType": "address",
          "name": "previousOwner",
          "type": "address"
        },
        {
          "indexed": true,
          "internalType": "address",
          "name": "newOwner",
          "type": "address"
        }
      ],
      "name": "OwnershipTransferred",
      "type": "event"
    },
    {
      "anonymous": false,
      "inputs": [
        {
          "indexed": false,
          "internalType": "address",
          "name": "account",
          "type": "address"
        }
      ],
      "name": "Paused",
      "type": "event"
    },
    {
      "anonymous": false,
      "inputs": [
        {
          "indexed": false,
          "internalType": "address",
          "name": "newPauser",
          "type": "address"
        }
      ],
      "name": "PauserChanged",
      "type": "event"
    },
    {
      "anonymous": false,
      "inputs": [
        {
          "indexed": false,
          "internalType": "address",
          "name": "newRecipient",
          "type": "address"
        }
      ],
      "name": "RecipientChanged",
      "type": "event"
    },
    {
      "anonymous": false,
      "inputs": [
        {
          "indexed": false,
          "internalType": "address",
          "name": "recipient",
          "type": "address"
        },
        {
          "indexed": false,
          "internalType": "uint256",
          "name": "amount",
          "type": "uint256"
        }
      ],
      "name": "Transfer",
      "type": "event"
    },
    {
      "anonymous": false,
      "inputs": [
        {
          "indexed": false,
          "internalType": "address",
          "name": "newUniswapRouter",
          "type": "address"
        }
      ],
      "name": "UniswapRouterChanged",
      "type": "event"
    },
    {
      "anonymous": false,
      "inputs": [
        {
          "indexed": false,
          "internalType": "address",
          "name": "account",
          "type": "address"
        }
      ],
      "name": "Unpaused",
      "type": "event"
    },
    {
      "inputs": [
        {
          "internalType": "uint256",
          "name": "amount",
          "type": "uint256"
        }
      ],
      "name": "buy",
      "outputs": [],
      "stateMutability": "nonpayable",
      "type": "function"
    },
    {
      "inputs": [
        {
          "internalType": "address",
          "name": "_incoming",
          "type": "address"
        },
        {
          "internalType": "address",
          "name": "_recipient",
          "type": "address"
        }
      ],
      "name": "changeIncoming",
      "outputs": [],
      "stateMutability": "nonpayable",
      "type": "function"
    },
    {
      "inputs": [
        {
          "internalType": "address",
          "name": "newPauser",
          "type": "address"
        }
      ],
      "name": "changePauser",
      "outputs": [],
      "stateMutability": "nonpayable",
      "type": "function"
    },
    {
      "inputs": [
        {
          "internalType": "address",
          "name": "_recipient",
          "type": "address"
        }
      ],
      "name": "changeRecipient",
      "outputs": [],
      "stateMutability": "nonpayable",
      "type": "function"
    },
    {
      "inputs": [
        {
          "internalType": "address",
          "name": "_uniswapRouter",
          "type": "address"
        }
      ],
      "name": "changeUniswapRouter",
      "outputs": [],
      "stateMutability": "nonpayable",
      "type": "function"
    },
    {
      "inputs": [],
      "name": "incoming",
      "outputs": [
        {
          "internalType": "contract ERC20",
          "name": "",
          "type": "address"
        }
      ],
      "stateMutability": "view",
      "type": "function"
    },
    {
      "inputs": [],
      "name": "outcoming",
      "outputs": [
        {
          "internalType": "contract ERC20",
          "name": "",
          "type": "address"
        }
      ],
      "stateMutability": "view",
      "type": "function"
    },
    {
      "inputs": [],
      "name": "owner",
      "outputs": [
        {
          "internalType": "address",
          "name": "",
          "type": "address"
        }
      ],
      "stateMutability": "view",
      "type": "function"
    },
    {
      "inputs": [],
      "name": "pause",
      "outputs": [],
      "stateMutability": "nonpayable",
      "type": "function"
    },
    {
      "inputs": [],
      "name": "paused",
      "outputs": [
        {
          "internalType": "bool",
          "name": "",
          "type": "bool"
        }
      ],
      "stateMutability": "view",
      "type": "function"
    },
    {
      "inputs": [],
      "name": "pauser",
      "outputs": [
        {
          "internalType": "address",
          "name": "",
          "type": "address"
        }
      ],
      "stateMutability": "view",
      "type": "function"
    },
    {
      "inputs": [],
      "name": "recipient",
      "outputs": [
        {
          "internalType": "address",
          "name": "",
          "type": "address"
        }
      ],
      "stateMutability": "view",
      "type": "function"
    },
    {
      "inputs": [],
      "name": "renounceOwnership",
      "outputs": [],
      "stateMutability": "nonpayable",
      "type": "function"
    },
    {
      "inputs": [
        {
          "internalType": "address",
          "name": "_recipient",
          "type": "address"
        },
        {
          "internalType": "uint256",
          "name": "amount",
          "type": "uint256"
        }
      ],
      "name": "transfer",
      "outputs": [],
      "stateMutability": "nonpayable",
      "type": "function"
    },
    {
      "inputs": [
        {
          "internalType": "address",
          "name": "newOwner",
          "type": "address"
        }
      ],
      "name": "transferOwnership",
      "outputs": [],
      "stateMutability": "nonpayable",
      "type": "function"
    },
    {
      "inputs": [],
      "name": "uniswapRouter",
      "outputs": [
        {
          "internalType": "contract IUniswapV2Router02",
          "name": "",
          "type": "address"
        }
      ],
      "stateMutability": "view",
      "type": "function"
    },
    {
      "inputs": [],
      "name": "unpause",
      "outputs": [],
      "stateMutability": "nonpayable",
      "type": "function"
    }
  ],
  "bytecode": "0x60806040523480156200001157600080fd5b506040516200296638038062002966833981810160405260808110156200003757600080fd5b81019080805190602001909291908051906020019092919080519060200190929190805190602001909291905050506000620000786200028e60201b60201c565b9050806000806101000a81548173ffffffffffffffffffffffffffffffffffffffff021916908373ffffffffffffffffffffffffffffffffffffffff1602179055508073ffffffffffffffffffffffffffffffffffffffff16600073ffffffffffffffffffffffffffffffffffffffff167f8be0079c531659141344cd1fd0a4f28419497f9722a3daafe3b4186f6b6457e060405160405180910390a35060008060146101000a81548160ff021916908315150217905550620001406200029660201b60201c565b600160006101000a81548173ffffffffffffffffffffffffffffffffffffffff021916908373ffffffffffffffffffffffffffffffffffffffff16021790555083600260006101000a81548173ffffffffffffffffffffffffffffffffffffffff021916908373ffffffffffffffffffffffffffffffffffffffff16021790555082600360006101000a81548173ffffffffffffffffffffffffffffffffffffffff021916908373ffffffffffffffffffffffffffffffffffffffff16021790555081600460006101000a81548173ffffffffffffffffffffffffffffffffffffffff021916908373ffffffffffffffffffffffffffffffffffffffff16021790555080600560006101000a81548173ffffffffffffffffffffffffffffffffffffffff021916908373ffffffffffffffffffffffffffffffffffffffff16021790555050505050620002bf565b600033905090565b60008060009054906101000a900473ffffffffffffffffffffffffffffffffffffffff16905090565b61269780620002cf6000396000f3fe608060405234801561001057600080fd5b506004361061010b5760003560e01c80638da5cb5b116100a2578063a9059cbb11610071578063a9059cbb1461030e578063c33708371461035c578063d96a094a146103a0578063f2fde38b146103ce578063f6dedc3f146104125761010b565b80638da5cb5b1461022e57806392c2bcb4146102625780639fc8f2fe146102a65780639fd0506d146102da5761010b565b806366d003ac116100de57806366d003ac146101b2578063715018a6146101e6578063735de9f7146101f05780638456cb59146102245761010b565b80631248f099146101105780632cd271e7146101445780633f4ba83a146101885780635c975abb14610192575b600080fd5b610118610476565b604051808273ffffffffffffffffffffffffffffffffffffffff16815260200191505060405180910390f35b6101866004803603602081101561015a57600080fd5b81019080803573ffffffffffffffffffffffffffffffffffffffff16906020019092919050505061049c565b005b610190610617565b005b61019a610712565b60405180821515815260200191505060405180910390f35b6101ba610728565b604051808273ffffffffffffffffffffffffffffffffffffffff16815260200191505060405180910390f35b6101ee61074e565b005b6101f86108d4565b604051808273ffffffffffffffffffffffffffffffffffffffff16815260200191505060405180910390f35b61022c6108fa565b005b6102366109f5565b604051808273ffffffffffffffffffffffffffffffffffffffff16815260200191505060405180910390f35b6102a46004803603602081101561027857600080fd5b81019080803573ffffffffffffffffffffffffffffffffffffffff169060200190929190505050610a1e565b005b6102ae610b99565b604051808273ffffffffffffffffffffffffffffffffffffffff16815260200191505060405180910390f35b6102e2610bbf565b604051808273ffffffffffffffffffffffffffffffffffffffff16815260200191505060405180910390f35b61035a6004803603604081101561032457600080fd5b81019080803573ffffffffffffffffffffffffffffffffffffffff16906020019092919080359060200190929190505050610be5565b005b61039e6004803603602081101561037257600080fd5b81019080803573ffffffffffffffffffffffffffffffffffffffff169060200190929190505050610dd9565b005b6103cc600480360360208110156103b657600080fd5b8101908080359060200190929190505050610f32565b005b610410600480360360208110156103e457600080fd5b81019080803573ffffffffffffffffffffffffffffffffffffffff16906020019092919050505061174d565b005b6104746004803603604081101561042857600080fd5b81019080803573ffffffffffffffffffffffffffffffffffffffff169060200190929190803573ffffffffffffffffffffffffffffffffffffffff169060200190929190505050611958565b005b600360009054906101000a900473ffffffffffffffffffffffffffffffffffffffff1681565b6104a4611c36565b73ffffffffffffffffffffffffffffffffffffffff1660008054906101000a900473ffffffffffffffffffffffffffffffffffffffff1673ffffffffffffffffffffffffffffffffffffffff1614610564576040517f08c379a00000000000000000000000000000000000000000000000000000000081526004018080602001828103825260208152602001807f4f776e61626c653a2063616c6c6572206973206e6f7420746865206f776e657281525060200191505060405180910390fd5b80600160006101000a81548173ffffffffffffffffffffffffffffffffffffffff021916908373ffffffffffffffffffffffffffffffffffffffff1602179055507fb80482a293ca2e013eda8683c9bd7fc8347cfdaeea5ede58cba46df502c2a604600160009054906101000a900473ffffffffffffffffffffffffffffffffffffffff16604051808273ffffffffffffffffffffffffffffffffffffffff16815260200191505060405180910390a150565b61061f611c36565b73ffffffffffffffffffffffffffffffffffffffff16600160009054906101000a900473ffffffffffffffffffffffffffffffffffffffff1673ffffffffffffffffffffffffffffffffffffffff1614806106b3575061067d611c36565b73ffffffffffffffffffffffffffffffffffffffff1661069b6109f5565b73ffffffffffffffffffffffffffffffffffffffff16145b610708576040517f08c379a00000000000000000000000000000000000000000000000000000000081526004018080602001828103825260458152602001806124d46045913960600191505060405180910390fd5b610710611c3e565b565b60008060149054906101000a900460ff16905090565b600460009054906101000a900473ffffffffffffffffffffffffffffffffffffffff1681565b610756611c36565b73ffffffffffffffffffffffffffffffffffffffff1660008054906101000a900473ffffffffffffffffffffffffffffffffffffffff1673ffffffffffffffffffffffffffffffffffffffff1614610816576040517f08c379a00000000000000000000000000000000000000000000000000000000081526004018080602001828103825260208152602001807f4f776e61626c653a2063616c6c6572206973206e6f7420746865206f776e657281525060200191505060405180910390fd5b600073ffffffffffffffffffffffffffffffffffffffff1660008054906101000a900473ffffffffffffffffffffffffffffffffffffffff1673ffffffffffffffffffffffffffffffffffffffff167f8be0079c531659141344cd1fd0a4f28419497f9722a3daafe3b4186f6b6457e060405160405180910390a360008060006101000a81548173ffffffffffffffffffffffffffffffffffffffff021916908373ffffffffffffffffffffffffffffffffffffffff160217905550565b600560009054906101000a900473ffffffffffffffffffffffffffffffffffffffff1681565b610902611c36565b73ffffffffffffffffffffffffffffffffffffffff16600160009054906101000a900473ffffffffffffffffffffffffffffffffffffffff1673ffffffffffffffffffffffffffffffffffffffff1614806109965750610960611c36565b73ffffffffffffffffffffffffffffffffffffffff1661097e6109f5565b73ffffffffffffffffffffffffffffffffffffffff16145b6109eb576040517f08c379a00000000000000000000000000000000000000000000000000000000081526004018080602001828103825260418152602001806124936041913960600191505060405180910390fd5b6109f3611d30565b565b60008060009054906101000a900473ffffffffffffffffffffffffffffffffffffffff16905090565b610a26611c36565b73ffffffffffffffffffffffffffffffffffffffff1660008054906101000a900473ffffffffffffffffffffffffffffffffffffffff1673ffffffffffffffffffffffffffffffffffffffff1614610ae6576040517f08c379a00000000000000000000000000000000000000000000000000000000081526004018080602001828103825260208152602001807f4f776e61626c653a2063616c6c6572206973206e6f7420746865206f776e657281525060200191505060405180910390fd5b80600460006101000a81548173ffffffffffffffffffffffffffffffffffffffff021916908373ffffffffffffffffffffffffffffffffffffffff1602179055507fff2d07bd188a9eb41acbc4a7db39e18956c95ab7f54f434d97849bf6206e577c600460009054906101000a900473ffffffffffffffffffffffffffffffffffffffff16604051808273ffffffffffffffffffffffffffffffffffffffff16815260200191505060405180910390a150565b600260009054906101000a900473ffffffffffffffffffffffffffffffffffffffff1681565b600160009054906101000a900473ffffffffffffffffffffffffffffffffffffffff1681565b610bed611c36565b73ffffffffffffffffffffffffffffffffffffffff1660008054906101000a900473ffffffffffffffffffffffffffffffffffffffff1673ffffffffffffffffffffffffffffffffffffffff1614610cad576040517f08c379a00000000000000000000000000000000000000000000000000000000081526004018080602001828103825260208152602001807f4f776e61626c653a2063616c6c6572206973206e6f7420746865206f776e657281525060200191505060405180910390fd5b600073ffffffffffffffffffffffffffffffffffffffff168273ffffffffffffffffffffffffffffffffffffffff161415610d33576040517f08c379a00000000000000000000000000000000000000000000000000000000081526004018080602001828103825260368152602001806125196036913960400191505060405180910390fd5b610d808282600260009054906101000a900473ffffffffffffffffffffffffffffffffffffffff1673ffffffffffffffffffffffffffffffffffffffff16611e249092919063ffffffff16565b7f69ca02dd4edd7bf0a4abb9ed3b7af3f14778db5d61921c7dc7cd545266326de28282604051808373ffffffffffffffffffffffffffffffffffffffff1681526020018281526020019250505060405180910390a15050565b610de1611c36565b73ffffffffffffffffffffffffffffffffffffffff1660008054906101000a900473ffffffffffffffffffffffffffffffffffffffff1673ffffffffffffffffffffffffffffffffffffffff1614610ea1576040517f08c379a00000000000000000000000000000000000000000000000000000000081526004018080602001828103825260208152602001807f4f776e61626c653a2063616c6c6572206973206e6f7420746865206f776e657281525060200191505060405180910390fd5b80600560006101000a81548173ffffffffffffffffffffffffffffffffffffffff021916908373ffffffffffffffffffffffffffffffffffffffff1602179055507f0a3776494a324cdd72863deb1475d9eb705db96d66e7e199f3ebe4948343a43881604051808273ffffffffffffffffffffffffffffffffffffffff16815260200191505060405180910390a150565b600060149054906101000a900460ff1615610fb5576040517f08c379a00000000000000000000000000000000000000000000000000000000081526004018080602001828103825260108152602001807f5061757361626c653a207061757365640000000000000000000000000000000081525060200191505060405180910390fd5b600081111561100e5761100d333083600260009054906101000a900473ffffffffffffffffffffffffffffffffffffffff1673ffffffffffffffffffffffffffffffffffffffff16611ec6909392919063ffffffff16565b5b6060600267ffffffffffffffff8111801561102857600080fd5b506040519080825280602002602001820160405280156110575781602001602082028036833780820191505090505b509050600260009054906101000a900473ffffffffffffffffffffffffffffffffffffffff168160008151811061108a57fe5b602002602001019073ffffffffffffffffffffffffffffffffffffffff16908173ffffffffffffffffffffffffffffffffffffffff1681525050600360009054906101000a900473ffffffffffffffffffffffffffffffffffffffff16816001815181106110f457fe5b602002602001019073ffffffffffffffffffffffffffffffffffffffff16908173ffffffffffffffffffffffffffffffffffffffff16815250506000600260009054906101000a900473ffffffffffffffffffffffffffffffffffffffff1673ffffffffffffffffffffffffffffffffffffffff166370a08231306040518263ffffffff1660e01b8152600401808273ffffffffffffffffffffffffffffffffffffffff16815260200191505060206040518083038186803b1580156111b957600080fd5b505afa1580156111cd573d6000803e3d6000fd5b505050506040513d60208110156111e357600080fd5b810190808051906020019092919050505090506000811161124f576040517f08c379a000000000000000000000000000000000000000000000000000000000815260040180806020018281038252602d81526020018061254f602d913960400191505060405180910390fd5b6060600560009054906101000a900473ffffffffffffffffffffffffffffffffffffffff1673ffffffffffffffffffffffffffffffffffffffff1663d06ca61f83856040518363ffffffff1660e01b81526004018083815260200180602001828103825283818151815260200191508051906020019060200280838360005b838110156112e95780820151818401526020810190506112ce565b50505050905001935050505060006040518083038186803b15801561130d57600080fd5b505afa158015611321573d6000803e3d6000fd5b505050506040513d6000823e3d601f19601f82011682018060405250602081101561134b57600080fd5b810190808051604051939291908464010000000082111561136b57600080fd5b8382019150602082018581111561138157600080fd5b825186602082028301116401000000008211171561139e57600080fd5b8083526020830192505050908051906020019060200280838360005b838110156113d55780820151818401526020810190506113ba565b50505050905001604052505050905060008151141561143f576040517f08c379a000000000000000000000000000000000000000000000000000000000815260040180806020018281038252602881526020018061257c6028913960400191505060405180910390fd5b60008160018351038151811061145157fe5b60200260200101519050600081116114b4576040517f08c379a00000000000000000000000000000000000000000000000000000000081526004018080602001828103825260258152602001806125a46025913960400191505060405180910390fd5b611523600560009054906101000a900473ffffffffffffffffffffffffffffffffffffffff1684600260009054906101000a900473ffffffffffffffffffffffffffffffffffffffff1673ffffffffffffffffffffffffffffffffffffffff16611f879092919063ffffffff16565b600560009054906101000a900473ffffffffffffffffffffffffffffffffffffffff1673ffffffffffffffffffffffffffffffffffffffff166338ed1739848387600460009054906101000a900473ffffffffffffffffffffffffffffffffffffffff16426040518663ffffffff1660e01b815260040180868152602001858152602001806020018473ffffffffffffffffffffffffffffffffffffffff168152602001838152602001828103825285818151815260200191508051906020019060200280838360005b838110156116085780820151818401526020810190506115ed565b505050509050019650505050505050600060405180830381600087803b15801561163157600080fd5b505af1158015611645573d6000803e3d6000fd5b505050506040513d6000823e3d601f19601f82011682018060405250602081101561166f57600080fd5b810190808051604051939291908464010000000082111561168f57600080fd5b838201915060208201858111156116a557600080fd5b82518660208202830111640100000000821117156116c257600080fd5b8083526020830192505050908051906020019060200280838360005b838110156116f95780820151818401526020810190506116de565b50505050905001604052505050507f297db515a31f7f3837e23e4bfb5c33e1e3b40be24e853837ffa29dfe4c5411398382604051808381526020018281526020019250505060405180910390a15050505050565b611755611c36565b73ffffffffffffffffffffffffffffffffffffffff1660008054906101000a900473ffffffffffffffffffffffffffffffffffffffff1673ffffffffffffffffffffffffffffffffffffffff1614611815576040517f08c379a00000000000000000000000000000000000000000000000000000000081526004018080602001828103825260208152602001807f4f776e61626c653a2063616c6c6572206973206e6f7420746865206f776e657281525060200191505060405180910390fd5b600073ffffffffffffffffffffffffffffffffffffffff168173ffffffffffffffffffffffffffffffffffffffff16141561189b576040517f08c379a000000000000000000000000000000000000000000000000000000000815260040180806020018281038252602681526020018061246d6026913960400191505060405180910390fd5b8073ffffffffffffffffffffffffffffffffffffffff1660008054906101000a900473ffffffffffffffffffffffffffffffffffffffff1673ffffffffffffffffffffffffffffffffffffffff167f8be0079c531659141344cd1fd0a4f28419497f9722a3daafe3b4186f6b6457e060405160405180910390a3806000806101000a81548173ffffffffffffffffffffffffffffffffffffffff021916908373ffffffffffffffffffffffffffffffffffffffff16021790555050565b611960611c36565b73ffffffffffffffffffffffffffffffffffffffff1660008054906101000a900473ffffffffffffffffffffffffffffffffffffffff1673ffffffffffffffffffffffffffffffffffffffff1614611a20576040517f08c379a00000000000000000000000000000000000000000000000000000000081526004018080602001828103825260208152602001807f4f776e61626c653a2063616c6c6572206973206e6f7420746865206f776e657281525060200191505060405180910390fd5b8173ffffffffffffffffffffffffffffffffffffffff16600260009054906101000a900473ffffffffffffffffffffffffffffffffffffffff1673ffffffffffffffffffffffffffffffffffffffff161415611ac7576040517f08c379a00000000000000000000000000000000000000000000000000000000081526004018080602001828103825260398152602001806125c96039913960400191505060405180910390fd5b6000600260009054906101000a900473ffffffffffffffffffffffffffffffffffffffff1673ffffffffffffffffffffffffffffffffffffffff166370a08231306040518263ffffffff1660e01b8152600401808273ffffffffffffffffffffffffffffffffffffffff16815260200191505060206040518083038186803b158015611b5257600080fd5b505afa158015611b66573d6000803e3d6000fd5b505050506040513d6020811015611b7c57600080fd5b810190808051906020019092919050505090506000811115611ba357611ba28282610be5565b5b82600260006101000a81548173ffffffffffffffffffffffffffffffffffffffff021916908373ffffffffffffffffffffffffffffffffffffffff1602179055507fefe17208340787cbdf98b690d3d3dc01263f933ae65ed1a4d95f34607ab3af4283604051808273ffffffffffffffffffffffffffffffffffffffff16815260200191505060405180910390a1505050565b600033905090565b600060149054906101000a900460ff16611cc0576040517f08c379a00000000000000000000000000000000000000000000000000000000081526004018080602001828103825260148152602001807f5061757361626c653a206e6f742070617573656400000000000000000000000081525060200191505060405180910390fd5b60008060146101000a81548160ff0219169083151502179055507f5db9ee0a495bf2e6ff9c91a7834c1ba4fdd244a5e8aa4e537bd38aeae4b073aa611d03611c36565b604051808273ffffffffffffffffffffffffffffffffffffffff16815260200191505060405180910390a1565b600060149054906101000a900460ff1615611db3576040517f08c379a00000000000000000000000000000000000000000000000000000000081526004018080602001828103825260108152602001807f5061757361626c653a207061757365640000000000000000000000000000000081525060200191505060405180910390fd5b6001600060146101000a81548160ff0219169083151502179055507f62e78cea01bee320cd4e420270b5ea74000d11b0c9f74754ebdbfc544b05a258611df7611c36565b604051808273ffffffffffffffffffffffffffffffffffffffff16815260200191505060405180910390a1565b611ec18363a9059cbb60e01b8484604051602401808373ffffffffffffffffffffffffffffffffffffffff16815260200182815260200192505050604051602081830303815290604052907bffffffffffffffffffffffffffffffffffffffffffffffffffffffff19166020820180517bffffffffffffffffffffffffffffffffffffffffffffffffffffffff838183161783525050505061214c565b505050565b611f81846323b872dd60e01b858585604051602401808473ffffffffffffffffffffffffffffffffffffffff1681526020018373ffffffffffffffffffffffffffffffffffffffff1681526020018281526020019350505050604051602081830303815290604052907bffffffffffffffffffffffffffffffffffffffffffffffffffffffff19166020820180517bffffffffffffffffffffffffffffffffffffffffffffffffffffffff838183161783525050505061214c565b50505050565b6000811480612055575060008373ffffffffffffffffffffffffffffffffffffffff1663dd62ed3e30856040518363ffffffff1660e01b8152600401808373ffffffffffffffffffffffffffffffffffffffff1681526020018273ffffffffffffffffffffffffffffffffffffffff1681526020019250505060206040518083038186803b15801561201857600080fd5b505afa15801561202c573d6000803e3d6000fd5b505050506040513d602081101561204257600080fd5b8101908080519060200190929190505050145b6120aa576040517f08c379a000000000000000000000000000000000000000000000000000000000815260040180806020018281038252603681526020018061262c6036913960400191505060405180910390fd5b6121478363095ea7b360e01b8484604051602401808373ffffffffffffffffffffffffffffffffffffffff16815260200182815260200192505050604051602081830303815290604052907bffffffffffffffffffffffffffffffffffffffffffffffffffffffff19166020820180517bffffffffffffffffffffffffffffffffffffffffffffffffffffffff838183161783525050505061214c565b505050565b60606121ae826040518060400160405280602081526020017f5361666545524332303a206c6f772d6c6576656c2063616c6c206661696c65648152508573ffffffffffffffffffffffffffffffffffffffff1661223b9092919063ffffffff16565b9050600081511115612236578080602001905160208110156121cf57600080fd5b8101908080519060200190929190505050612235576040517f08c379a000000000000000000000000000000000000000000000000000000000815260040180806020018281038252602a815260200180612602602a913960400191505060405180910390fd5b5b505050565b606061224a8484600085612253565b90509392505050565b606061225e85612459565b6122d0576040517f08c379a000000000000000000000000000000000000000000000000000000000815260040180806020018281038252601d8152602001807f416464726573733a2063616c6c20746f206e6f6e2d636f6e747261637400000081525060200191505060405180910390fd5b600060608673ffffffffffffffffffffffffffffffffffffffff1685876040518082805190602001908083835b6020831061232057805182526020820191506020810190506020830392506122fd565b6001836020036101000a03801982511681845116808217855250505050505090500191505060006040518083038185875af1925050503d8060008114612382576040519150601f19603f3d011682016040523d82523d6000602084013e612387565b606091505b5091509150811561239c578092505050612451565b6000815111156123af5780518082602001fd5b836040517f08c379a00000000000000000000000000000000000000000000000000000000081526004018080602001828103825283818151815260200191508051906020019080838360005b838110156124165780820151818401526020810190506123fb565b50505050905090810190601f1680156124435780820380516001836020036101000a031916815260200191505b509250505060405180910390fd5b949350505050565b600080823b90506000811191505091905056fe4f776e61626c653a206e6577206f776e657220697320746865207a65726f20616464726573734f776e61626c655061757361626c653a3a70617573653a206f6e6c792070617573657220616e64206f776e6572206d75737420706175736520636f6e74726163744f776e61626c655061757361626c653a3a756e70617573653a206f6e6c792070617573657220616e64206f776e6572206d75737420756e706175736520636f6e74726163744275796261636b3a3a7472616e736665723a2063616e6e6f74207472616e7366657220746f20746865207a65726f20616464726573734275796261636b3a3a6275793a20696e636f6d696e6720746f6b656e2062616c616e636520697320656d7074794275796261636b3a3a6275793a20696e76616c696420616d6f756e7473206f7574206c656e6774684275796261636b3a3a6275793a206c697175696469747920706f6f6c20697320656d7074794275796261636b3a3a6368616e6765496e636f6d696e673a206475706c696361746520696e636f6d696e6720746f6b656e20616464726573735361666545524332303a204552433230206f7065726174696f6e20646964206e6f7420737563636565645361666545524332303a20617070726f76652066726f6d206e6f6e2d7a65726f20746f206e6f6e2d7a65726f20616c6c6f77616e6365a2646970667358221220a0b3fb0b05333038e0ab22acfd40600eb96abb50085a9dfe504b591173eb81f464736f6c634300060c0033",
  "linkReferences": {},
  "deployedLinkReferences": {}
}