{
  "address": "0xaa1018F90ff82F058b1Ec7aa3D72A243F66300Bd",
  "abi": [
    {
      "inputs": [
        {
          "internalType": "address",
          "name": "_cumulative",
          "type": "address"
        },
        {
          "internalType": "address",
          "name": "_governanceToken",
          "type": "address"
        },
        {
          "internalType": "uint256",
          "name": "_governanceTokenLockDate",
          "type": "uint256"
        },
        {
          "internalType": "uint256",
          "name": "_governanceTokenPrice",
          "type": "uint256"
        },
        {
          "internalType": "address",
          "name": "_uniswapRouter",
          "type": "address"
        }
      ],
      "stateMutability": "nonpayable",
      "type": "constructor"
    },
    {
      "anonymous": false,
      "inputs": [
        {
          "indexed": false,
          "internalType": "uint256",
          "name": "newLockDate",
          "type": "uint256"
        }
      ],
      "name": "GovernanceTokenLockDateChanged",
      "type": "event"
    },
    {
      "anonymous": false,
      "inputs": [
        {
          "indexed": false,
          "internalType": "uint256",
          "name": "newPrice",
          "type": "uint256"
        }
      ],
      "name": "GovernanceTokenPriceChanged",
      "type": "event"
    },
    {
      "anonymous": false,
      "inputs": [
        {
          "indexed": false,
          "internalType": "address",
          "name": "token",
          "type": "address"
        }
      ],
      "name": "InvestTokenAllowed",
      "type": "event"
    },
    {
      "anonymous": false,
      "inputs": [
        {
          "indexed": false,
          "internalType": "address",
          "name": "token",
          "type": "address"
        }
      ],
      "name": "InvestTokenDenied",
      "type": "event"
    },
    {
      "anonymous": false,
      "inputs": [
        {
          "indexed": false,
          "internalType": "address",
          "name": "investor",
          "type": "address"
        },
        {
          "indexed": false,
          "internalType": "address",
          "name": "token",
          "type": "address"
        },
        {
          "indexed": false,
          "internalType": "uint256",
          "name": "amount",
          "type": "uint256"
        },
        {
          "indexed": false,
          "internalType": "uint256",
          "name": "reward",
          "type": "uint256"
        }
      ],
      "name": "Invested",
      "type": "event"
    },
    {
      "anonymous": false,
      "inputs": [
        {
          "indexed": true,
          "internalType": "address",
          "name": "previousOwner",
          "type": "address"
        },
        {
          "indexed": true,
          "internalType": "address",
          "name": "newOwner",
          "type": "address"
        }
      ],
      "name": "OwnershipTransferred",
      "type": "event"
    },
    {
      "anonymous": false,
      "inputs": [
        {
          "indexed": false,
          "internalType": "address",
          "name": "account",
          "type": "address"
        }
      ],
      "name": "Paused",
      "type": "event"
    },
    {
      "anonymous": false,
      "inputs": [
        {
          "indexed": false,
          "internalType": "address",
          "name": "newPauser",
          "type": "address"
        }
      ],
      "name": "PauserChanged",
      "type": "event"
    },
    {
      "anonymous": false,
      "inputs": [
        {
          "indexed": false,
          "internalType": "address",
          "name": "newUniswapRouter",
          "type": "address"
        }
      ],
      "name": "UniswapRouterChanged",
      "type": "event"
    },
    {
      "anonymous": false,
      "inputs": [
        {
          "indexed": false,
          "internalType": "address",
          "name": "account",
          "type": "address"
        }
      ],
      "name": "Unpaused",
      "type": "event"
    },
    {
      "anonymous": false,
      "inputs": [
        {
          "indexed": false,
          "internalType": "address",
          "name": "recipient",
          "type": "address"
        },
        {
          "indexed": false,
          "internalType": "address",
          "name": "token",
          "type": "address"
        },
        {
          "indexed": false,
          "internalType": "uint256",
          "name": "amount",
          "type": "uint256"
        }
      ],
      "name": "Withdrawal",
      "type": "event"
    },
    {
      "inputs": [
        {
          "internalType": "address",
          "name": "token",
          "type": "address"
        }
      ],
      "name": "allowToken",
      "outputs": [],
      "stateMutability": "nonpayable",
      "type": "function"
    },
    {
      "inputs": [],
      "name": "allowedTokens",
      "outputs": [
        {
          "internalType": "address[]",
          "name": "",
          "type": "address[]"
        }
      ],
      "stateMutability": "view",
      "type": "function"
    },
    {
      "inputs": [
        {
          "internalType": "uint256",
          "name": "_governanceTokenLockDate",
          "type": "uint256"
        }
      ],
      "name": "changeGovernanceTokenLockDate",
      "outputs": [],
      "stateMutability": "nonpayable",
      "type": "function"
    },
    {
      "inputs": [
        {
          "internalType": "uint256",
          "name": "newPrice",
          "type": "uint256"
        }
      ],
      "name": "changeGovernanceTokenPrice",
      "outputs": [],
      "stateMutability": "nonpayable",
      "type": "function"
    },
    {
      "inputs": [
        {
          "internalType": "address",
          "name": "newPauser",
          "type": "address"
        }
      ],
      "name": "changePauser",
      "outputs": [],
      "stateMutability": "nonpayable",
      "type": "function"
    },
    {
      "inputs": [
        {
          "internalType": "address",
          "name": "_uniswapRouter",
          "type": "address"
        }
      ],
      "name": "changeUniswapRouter",
      "outputs": [],
      "stateMutability": "nonpayable",
      "type": "function"
    },
    {
      "inputs": [],
      "name": "cumulative",
      "outputs": [
        {
          "internalType": "contract ERC20",
          "name": "",
          "type": "address"
        }
      ],
      "stateMutability": "view",
      "type": "function"
    },
    {
      "inputs": [
        {
          "internalType": "address",
          "name": "token",
          "type": "address"
        }
      ],
      "name": "denyToken",
      "outputs": [],
      "stateMutability": "nonpayable",
      "type": "function"
    },
    {
      "inputs": [],
      "name": "governanceToken",
      "outputs": [
        {
          "internalType": "contract GovernanceToken",
          "name": "",
          "type": "address"
        }
      ],
      "stateMutability": "view",
      "type": "function"
    },
    {
      "inputs": [],
      "name": "governanceTokenLockDate",
      "outputs": [
        {
          "internalType": "uint256",
          "name": "",
          "type": "uint256"
        }
      ],
      "stateMutability": "view",
      "type": "function"
    },
    {
      "inputs": [],
      "name": "governanceTokenPrice",
      "outputs": [
        {
          "internalType": "uint256",
          "name": "",
          "type": "uint256"
        }
      ],
      "stateMutability": "view",
      "type": "function"
    },
    {
      "inputs": [
        {
          "internalType": "address",
          "name": "token",
          "type": "address"
        },
        {
          "internalType": "uint256",
          "name": "amount",
          "type": "uint256"
        }
      ],
      "name": "invest",
      "outputs": [
        {
          "internalType": "bool",
          "name": "",
          "type": "bool"
        }
      ],
      "stateMutability": "nonpayable",
      "type": "function"
    },
    {
      "inputs": [],
      "name": "investETH",
      "outputs": [
        {
          "internalType": "bool",
          "name": "",
          "type": "bool"
        }
      ],
      "stateMutability": "payable",
      "type": "function"
    },
    {
      "inputs": [],
      "name": "owner",
      "outputs": [
        {
          "internalType": "address",
          "name": "",
          "type": "address"
        }
      ],
      "stateMutability": "view",
      "type": "function"
    },
    {
      "inputs": [],
      "name": "pause",
      "outputs": [],
      "stateMutability": "nonpayable",
      "type": "function"
    },
    {
      "inputs": [],
      "name": "paused",
      "outputs": [
        {
          "internalType": "bool",
          "name": "",
          "type": "bool"
        }
      ],
      "stateMutability": "view",
      "type": "function"
    },
    {
      "inputs": [],
      "name": "pauser",
      "outputs": [
        {
          "internalType": "address",
          "name": "",
          "type": "address"
        }
      ],
      "stateMutability": "view",
      "type": "function"
    },
    {
      "inputs": [
        {
          "internalType": "address",
          "name": "token",
          "type": "address"
        },
        {
          "internalType": "uint256",
          "name": "amount",
          "type": "uint256"
        }
      ],
      "name": "price",
      "outputs": [
        {
          "internalType": "uint256",
          "name": "",
          "type": "uint256"
        }
      ],
      "stateMutability": "view",
      "type": "function"
    },
    {
      "inputs": [],
      "name": "renounceOwnership",
      "outputs": [],
      "stateMutability": "nonpayable",
      "type": "function"
    },
    {
      "inputs": [
        {
          "internalType": "address",
          "name": "newOwner",
          "type": "address"
        }
      ],
      "name": "transferOwnership",
      "outputs": [],
      "stateMutability": "nonpayable",
      "type": "function"
    },
    {
      "inputs": [],
      "name": "unpause",
      "outputs": [],
      "stateMutability": "nonpayable",
      "type": "function"
    },
    {
      "inputs": [
        {
          "internalType": "address",
          "name": "recipient",
          "type": "address"
        }
      ],
      "name": "withdraw",
      "outputs": [],
      "stateMutability": "nonpayable",
      "type": "function"
    }
  ],
  "transactionHash": "0x13a1f6e3cb0a09c16763782ac379217a104cce48f539ab074751c4cca51730c5",
  "args": [
    "0xa0b86991c6218b36c1d19d4a2e9eb0ce3606eb48",
    "0x28A06c02287e657ec3F8e151A13C36A1D43814b0",
    1633057200,
    "2500000",
    "0x7a250d5630B4cF539739dF2C5dAcb4c659F2488D"
  ],
  "solcInputHash": "e66f57a7d8a1058d34d8c43684fd613f",
  "bytecode": "0x60806040523480156200001157600080fd5b5060405162003edd38038062003edd833981810160405260a08110156200003757600080fd5b8101908080519060200190929190805190602001909291908051906020019092919080519060200190929190805190602001909291905050506000620000826200026660201b60201c565b9050806000806101000a81548173ffffffffffffffffffffffffffffffffffffffff021916908373ffffffffffffffffffffffffffffffffffffffff1602179055508073ffffffffffffffffffffffffffffffffffffffff16600073ffffffffffffffffffffffffffffffffffffffff167f8be0079c531659141344cd1fd0a4f28419497f9722a3daafe3b4186f6b6457e060405160405180910390a35060008060146101000a81548160ff0219169083151502179055506200014a6200026e60201b60201c565b600160006101000a81548173ffffffffffffffffffffffffffffffffffffffff021916908373ffffffffffffffffffffffffffffffffffffffff16021790555084600260006101000a81548173ffffffffffffffffffffffffffffffffffffffff021916908373ffffffffffffffffffffffffffffffffffffffff16021790555083600360006101000a81548173ffffffffffffffffffffffffffffffffffffffff021916908373ffffffffffffffffffffffffffffffffffffffff160217905550826004819055508160058190555080600660006101000a81548173ffffffffffffffffffffffffffffffffffffffff021916908373ffffffffffffffffffffffffffffffffffffffff160217905550505050505062000297565b600033905090565b60008060009054906101000a900473ffffffffffffffffffffffffffffffffffffffff16905090565b613c3680620002a76000396000f3fe6080604052600436106101355760003560e01c80639fd0506d116100ab578063c33708371161006f578063c337083714610534578063c5ea3d8314610585578063d3cd97a5146105d6578063e27791ed14610601578063f2fde38b1461063c578063f96dae0a1461068d57610135565b80639fd0506d146103a2578063a39cfae6146103e3578063ad9b802414610403578063b53472ef14610472578063b9b8c246146104c357610135565b80635c975abb116100fd5780635c975abb1461028a578063690ca33c146102b7578063715018a6146102f25780637ae176ff146103095780638456cb591461034a5780638da5cb5b1461036157610135565b80632cd271e71461013a5780633f4ba83a1461018b5780633f7fd884146101a257806351cff8d9146101cd5780635284d6d01461021e575b600080fd5b34801561014657600080fd5b506101896004803603602081101561015d57600080fd5b81019080803573ffffffffffffffffffffffffffffffffffffffff1690602001909291905050506106ce565b005b34801561019757600080fd5b506101a0610849565b005b3480156101ae57600080fd5b506101b7610944565b6040518082815260200191505060405180910390f35b3480156101d957600080fd5b5061021c600480360360208110156101f057600080fd5b81019080803573ffffffffffffffffffffffffffffffffffffffff16906020019092919050505061094a565b005b34801561022a57600080fd5b50610233610c46565b6040518080602001828103825283818151815260200191508051906020019060200280838360005b8381101561027657808201518184015260208101905061025b565b505050509050019250505060405180910390f35b34801561029657600080fd5b5061029f610d1e565b60405180821515815260200191505060405180910390f35b3480156102c357600080fd5b506102f0600480360360208110156102da57600080fd5b8101908080359060200190929190505050610d34565b005b3480156102fe57600080fd5b50610307610e3f565b005b34801561031557600080fd5b5061031e610fc5565b604051808273ffffffffffffffffffffffffffffffffffffffff16815260200191505060405180910390f35b34801561035657600080fd5b5061035f610feb565b005b34801561036d57600080fd5b506103766110e6565b604051808273ffffffffffffffffffffffffffffffffffffffff16815260200191505060405180910390f35b3480156103ae57600080fd5b506103b761110f565b604051808273ffffffffffffffffffffffffffffffffffffffff16815260200191505060405180910390f35b6103eb611135565b60405180821515815260200191505060405180910390f35b34801561040f57600080fd5b5061045c6004803603604081101561042657600080fd5b81019080803573ffffffffffffffffffffffffffffffffffffffff169060200190929190803590602001909291905050506116ce565b6040518082815260200191505060405180910390f35b34801561047e57600080fd5b506104c16004803603602081101561049557600080fd5b81019080803573ffffffffffffffffffffffffffffffffffffffff1690602001909291905050506117b2565b005b3480156104cf57600080fd5b5061051c600480360360408110156104e657600080fd5b81019080803573ffffffffffffffffffffffffffffffffffffffff169060200190929190803590602001909291905050506118df565b60405180821515815260200191505060405180910390f35b34801561054057600080fd5b506105836004803603602081101561055757600080fd5b81019080803573ffffffffffffffffffffffffffffffffffffffff169060200190929190505050611ea9565b005b34801561059157600080fd5b506105d4600480360360208110156105a857600080fd5b81019080803573ffffffffffffffffffffffffffffffffffffffff169060200190929190505050612002565b005b3480156105e257600080fd5b506105eb61212f565b6040518082815260200191505060405180910390f35b34801561060d57600080fd5b5061063a6004803603602081101561062457600080fd5b8101908080359060200190929190505050612135565b005b34801561064857600080fd5b5061068b6004803603602081101561065f57600080fd5b81019080803573ffffffffffffffffffffffffffffffffffffffff169060200190929190505050612297565b005b34801561069957600080fd5b506106a26124a2565b604051808273ffffffffffffffffffffffffffffffffffffffff16815260200191505060405180910390f35b6106d66124c8565b73ffffffffffffffffffffffffffffffffffffffff1660008054906101000a900473ffffffffffffffffffffffffffffffffffffffff1673ffffffffffffffffffffffffffffffffffffffff1614610796576040517f08c379a00000000000000000000000000000000000000000000000000000000081526004018080602001828103825260208152602001807f4f776e61626c653a2063616c6c6572206973206e6f7420746865206f776e657281525060200191505060405180910390fd5b80600160006101000a81548173ffffffffffffffffffffffffffffffffffffffff021916908373ffffffffffffffffffffffffffffffffffffffff1602179055507fb80482a293ca2e013eda8683c9bd7fc8347cfdaeea5ede58cba46df502c2a604600160009054906101000a900473ffffffffffffffffffffffffffffffffffffffff16604051808273ffffffffffffffffffffffffffffffffffffffff16815260200191505060405180910390a150565b6108516124c8565b73ffffffffffffffffffffffffffffffffffffffff16600160009054906101000a900473ffffffffffffffffffffffffffffffffffffffff1673ffffffffffffffffffffffffffffffffffffffff1614806108e557506108af6124c8565b73ffffffffffffffffffffffffffffffffffffffff166108cd6110e6565b73ffffffffffffffffffffffffffffffffffffffff16145b61093a576040517f08c379a0000000000000000000000000000000000000000000000000000000008152600401808060200182810382526045815260200180613a006045913960600191505060405180910390fd5b6109426124d0565b565b60055481565b6109526124c8565b73ffffffffffffffffffffffffffffffffffffffff1660008054906101000a900473ffffffffffffffffffffffffffffffffffffffff1673ffffffffffffffffffffffffffffffffffffffff1614610a12576040517f08c379a00000000000000000000000000000000000000000000000000000000081526004018080602001828103825260208152602001807f4f776e61626c653a2063616c6c6572206973206e6f7420746865206f776e657281525060200191505060405180910390fd5b600073ffffffffffffffffffffffffffffffffffffffff168173ffffffffffffffffffffffffffffffffffffffff161415610a98576040517f08c379a0000000000000000000000000000000000000000000000000000000008152600401808060200182810382526039815260200180613a716039913960400191505060405180910390fd5b6000600260009054906101000a900473ffffffffffffffffffffffffffffffffffffffff1673ffffffffffffffffffffffffffffffffffffffff166370a08231306040518263ffffffff1660e01b8152600401808273ffffffffffffffffffffffffffffffffffffffff16815260200191505060206040518083038186803b158015610b2357600080fd5b505afa158015610b37573d6000803e3d6000fd5b505050506040513d6020811015610b4d57600080fd5b81019080805190602001909291905050509050610bad8282600260009054906101000a900473ffffffffffffffffffffffffffffffffffffffff1673ffffffffffffffffffffffffffffffffffffffff166125c29092919063ffffffff16565b7f2717ead6b9200dd235aad468c9809ea400fe33ac69b5bfaa6d3e90fc922b639882600260009054906101000a900473ffffffffffffffffffffffffffffffffffffffff1683604051808473ffffffffffffffffffffffffffffffffffffffff1681526020018373ffffffffffffffffffffffffffffffffffffffff168152602001828152602001935050505060405180910390a15050565b606080610c536007612664565b67ffffffffffffffff81118015610c6957600080fd5b50604051908082528060200260200182016040528015610c985781602001602082028036833780820191505090505b50905060005b610ca86007612664565b811015610d1657610cc381600761267990919063ffffffff16565b828281518110610ccf57fe5b602002602001019073ffffffffffffffffffffffffffffffffffffffff16908173ffffffffffffffffffffffffffffffffffffffff16815250508080600101915050610c9e565b508091505090565b60008060149054906101000a900460ff16905090565b610d3c6124c8565b73ffffffffffffffffffffffffffffffffffffffff1660008054906101000a900473ffffffffffffffffffffffffffffffffffffffff1673ffffffffffffffffffffffffffffffffffffffff1614610dfc576040517f08c379a00000000000000000000000000000000000000000000000000000000081526004018080602001828103825260208152602001807f4f776e61626c653a2063616c6c6572206973206e6f7420746865206f776e657281525060200191505060405180910390fd5b806004819055507fd7f7771ff7e14a20e8f77ca76287148c795c8dd3f69d2333c47c7bd640e650dc6004546040518082815260200191505060405180910390a150565b610e476124c8565b73ffffffffffffffffffffffffffffffffffffffff1660008054906101000a900473ffffffffffffffffffffffffffffffffffffffff1673ffffffffffffffffffffffffffffffffffffffff1614610f07576040517f08c379a00000000000000000000000000000000000000000000000000000000081526004018080602001828103825260208152602001807f4f776e61626c653a2063616c6c6572206973206e6f7420746865206f776e657281525060200191505060405180910390fd5b600073ffffffffffffffffffffffffffffffffffffffff1660008054906101000a900473ffffffffffffffffffffffffffffffffffffffff1673ffffffffffffffffffffffffffffffffffffffff167f8be0079c531659141344cd1fd0a4f28419497f9722a3daafe3b4186f6b6457e060405160405180910390a360008060006101000a81548173ffffffffffffffffffffffffffffffffffffffff021916908373ffffffffffffffffffffffffffffffffffffffff160217905550565b600260009054906101000a900473ffffffffffffffffffffffffffffffffffffffff1681565b610ff36124c8565b73ffffffffffffffffffffffffffffffffffffffff16600160009054906101000a900473ffffffffffffffffffffffffffffffffffffffff1673ffffffffffffffffffffffffffffffffffffffff16148061108757506110516124c8565b73ffffffffffffffffffffffffffffffffffffffff1661106f6110e6565b73ffffffffffffffffffffffffffffffffffffffff16145b6110dc576040517f08c379a00000000000000000000000000000000000000000000000000000000081526004018080602001828103825260418152602001806139bf6041913960600191505060405180910390fd5b6110e4612693565b565b60008060009054906101000a900473ffffffffffffffffffffffffffffffffffffffff16905090565b600160009054906101000a900473ffffffffffffffffffffffffffffffffffffffff1681565b60008060149054906101000a900460ff16156111b9576040517f08c379a00000000000000000000000000000000000000000000000000000000081526004018080602001828103825260108152602001807f5061757361626c653a207061757365640000000000000000000000000000000081525060200191505060405180910390fd5b6000600660009054906101000a900473ffffffffffffffffffffffffffffffffffffffff1673ffffffffffffffffffffffffffffffffffffffff1663ad5c46486040518163ffffffff1660e01b815260040160206040518083038186803b15801561122357600080fd5b505afa158015611237573d6000803e3d6000fd5b505050506040513d602081101561124d57600080fd5b8101908080519060200190929190505050905061127481600761278790919063ffffffff16565b6112c9576040517f08c379a000000000000000000000000000000000000000000000000000000000815260040180806020018281038252602f815260200180613b28602f913960400191505060405180910390fd5b60006112d4346127b7565b9050600260009054906101000a900473ffffffffffffffffffffffffffffffffffffffff1673ffffffffffffffffffffffffffffffffffffffff168273ffffffffffffffffffffffffffffffffffffffff161461156357600061133783346128bd565b90506000811415611393576040517f08c379a000000000000000000000000000000000000000000000000000000000815260040180806020018281038252602b81526020018061396e602b913960400191505060405180910390fd5b61139c816127b7565b9150600660009054906101000a900473ffffffffffffffffffffffffffffffffffffffff1673ffffffffffffffffffffffffffffffffffffffff16637ff36ab534836113e787612ad8565b30426040518663ffffffff1660e01b815260040180858152602001806020018473ffffffffffffffffffffffffffffffffffffffff168152602001838152602001828103825285818151815260200191508051906020019060200280838360005b83811015611463578082015181840152602081019050611448565b50505050905001955050505050506000604051808303818588803b15801561148a57600080fd5b505af115801561149e573d6000803e3d6000fd5b50505050506040513d6000823e3d601f19601f8201168201806040525060208110156114c957600080fd5b81019080805160405193929190846401000000008211156114e957600080fd5b838201915060208201858111156114ff57600080fd5b825186602082028301116401000000008211171561151c57600080fd5b8083526020830192505050908051906020019060200280838360005b83811015611553578082015181840152602081019050611538565b5050505090500160405250505050505b600360009054906101000a900473ffffffffffffffffffffffffffffffffffffffff1673ffffffffffffffffffffffffffffffffffffffff1663d72896db6115a96124c8565b836004546040518463ffffffff1660e01b8152600401808473ffffffffffffffffffffffffffffffffffffffff1681526020018381526020018281526020019350505050602060405180830381600087803b15801561160757600080fd5b505af115801561161b573d6000803e3d6000fd5b505050506040513d602081101561163157600080fd5b8101908080519060200190929190505050507f93638e6cf18b4f6a839de65df95898221f5d9f7dc54b87d4b31d40297643266e61166c6124c8565b833484604051808573ffffffffffffffffffffffffffffffffffffffff1681526020018473ffffffffffffffffffffffffffffffffffffffff16815260200183815260200182815260200194505050505060405180910390a160019250505090565b60006116e483600761278790919063ffffffff16565b611739576040517f08c379a000000000000000000000000000000000000000000000000000000000815260040180806020018281038252602b815260200180613afd602b913960400191505060405180910390fd5b6000829050600260009054906101000a900473ffffffffffffffffffffffffffffffffffffffff1673ffffffffffffffffffffffffffffffffffffffff168473ffffffffffffffffffffffffffffffffffffffff16146117a05761179d84846128bd565b90505b6117a9816127b7565b91505092915050565b6117ba6124c8565b73ffffffffffffffffffffffffffffffffffffffff1660008054906101000a900473ffffffffffffffffffffffffffffffffffffffff1673ffffffffffffffffffffffffffffffffffffffff161461187a576040517f08c379a00000000000000000000000000000000000000000000000000000000081526004018080602001828103825260208152602001807f4f776e61626c653a2063616c6c6572206973206e6f7420746865206f776e657281525060200191505060405180910390fd5b61188e816007612e0e90919063ffffffff16565b507f25dacf8d076093c5272121a9d819f9002f65548533e715e76e04522fa5a59fb181604051808273ffffffffffffffffffffffffffffffffffffffff16815260200191505060405180910390a150565b60008060149054906101000a900460ff1615611963576040517f08c379a00000000000000000000000000000000000000000000000000000000081526004018080602001828103825260108152602001807f5061757361626c653a207061757365640000000000000000000000000000000081525060200191505060405180910390fd5b61197783600761278790919063ffffffff16565b6119cc576040517f08c379a000000000000000000000000000000000000000000000000000000000815260040180806020018281038252602c815260200180613a45602c913960400191505060405180910390fd5b60006119d7836127b7565b9050611a0d6119e46124c8565b30858773ffffffffffffffffffffffffffffffffffffffff16612e3e909392919063ffffffff16565b600260009054906101000a900473ffffffffffffffffffffffffffffffffffffffff1673ffffffffffffffffffffffffffffffffffffffff168473ffffffffffffffffffffffffffffffffffffffff1614611d3c576000611a6e85856128bd565b90506000811415611aca576040517f08c379a000000000000000000000000000000000000000000000000000000000815260040180806020018281038252602b81526020018061396e602b913960400191505060405180910390fd5b611ad3816127b7565b9150611b23600660009054906101000a900473ffffffffffffffffffffffffffffffffffffffff1660008773ffffffffffffffffffffffffffffffffffffffff16612eff9092919063ffffffff16565b611b70600660009054906101000a900473ffffffffffffffffffffffffffffffffffffffff16858773ffffffffffffffffffffffffffffffffffffffff16612eff9092919063ffffffff16565b600660009054906101000a900473ffffffffffffffffffffffffffffffffffffffff1673ffffffffffffffffffffffffffffffffffffffff166338ed17398583611bb989612ad8565b30426040518663ffffffff1660e01b815260040180868152602001858152602001806020018473ffffffffffffffffffffffffffffffffffffffff168152602001838152602001828103825285818151815260200191508051906020019060200280838360005b83811015611c3b578082015181840152602081019050611c20565b505050509050019650505050505050600060405180830381600087803b158015611c6457600080fd5b505af1158015611c78573d6000803e3d6000fd5b505050506040513d6000823e3d601f19601f820116820180604052506020811015611ca257600080fd5b8101908080516040519392919084640100000000821115611cc257600080fd5b83820191506020820185811115611cd857600080fd5b8251866020820283011164010000000082111715611cf557600080fd5b8083526020830192505050908051906020019060200280838360005b83811015611d2c578082015181840152602081019050611d11565b5050505090500160405250505050505b600360009054906101000a900473ffffffffffffffffffffffffffffffffffffffff1673ffffffffffffffffffffffffffffffffffffffff1663d72896db611d826124c8565b836004546040518463ffffffff1660e01b8152600401808473ffffffffffffffffffffffffffffffffffffffff1681526020018381526020018281526020019350505050602060405180830381600087803b158015611de057600080fd5b505af1158015611df4573d6000803e3d6000fd5b505050506040513d6020811015611e0a57600080fd5b8101908080519060200190929190505050507f93638e6cf18b4f6a839de65df95898221f5d9f7dc54b87d4b31d40297643266e611e456124c8565b858584604051808573ffffffffffffffffffffffffffffffffffffffff1681526020018473ffffffffffffffffffffffffffffffffffffffff16815260200183815260200182815260200194505050505060405180910390a1600191505092915050565b611eb16124c8565b73ffffffffffffffffffffffffffffffffffffffff1660008054906101000a900473ffffffffffffffffffffffffffffffffffffffff1673ffffffffffffffffffffffffffffffffffffffff1614611f71576040517f08c379a00000000000000000000000000000000000000000000000000000000081526004018080602001828103825260208152602001807f4f776e61626c653a2063616c6c6572206973206e6f7420746865206f776e657281525060200191505060405180910390fd5b80600660006101000a81548173ffffffffffffffffffffffffffffffffffffffff021916908373ffffffffffffffffffffffffffffffffffffffff1602179055507f0a3776494a324cdd72863deb1475d9eb705db96d66e7e199f3ebe4948343a43881604051808273ffffffffffffffffffffffffffffffffffffffff16815260200191505060405180910390a150565b61200a6124c8565b73ffffffffffffffffffffffffffffffffffffffff1660008054906101000a900473ffffffffffffffffffffffffffffffffffffffff1673ffffffffffffffffffffffffffffffffffffffff16146120ca576040517f08c379a00000000000000000000000000000000000000000000000000000000081526004018080602001828103825260208152602001807f4f776e61626c653a2063616c6c6572206973206e6f7420746865206f776e657281525060200191505060405180910390fd5b6120de8160076130c490919063ffffffff16565b507f1a50e5e1b18452e94911b877cd2967e8b348bbdaba6d4992dd27e4be3b907b6881604051808273ffffffffffffffffffffffffffffffffffffffff16815260200191505060405180910390a150565b60045481565b61213d6124c8565b73ffffffffffffffffffffffffffffffffffffffff1660008054906101000a900473ffffffffffffffffffffffffffffffffffffffff1673ffffffffffffffffffffffffffffffffffffffff16146121fd576040517f08c379a00000000000000000000000000000000000000000000000000000000081526004018080602001828103825260208152602001807f4f776e61626c653a2063616c6c6572206973206e6f7420746865206f776e657281525060200191505060405180910390fd5b60008111612256576040517f08c379a000000000000000000000000000000000000000000000000000000000815260040180806020018281038252604a815260200180613b57604a913960600191505060405180910390fd5b806005819055507f17e5a94e110fff4c720c899702ca8e0a4d90ad8a8bdc828eb08f6c00df801c13816040518082815260200191505060405180910390a150565b61229f6124c8565b73ffffffffffffffffffffffffffffffffffffffff1660008054906101000a900473ffffffffffffffffffffffffffffffffffffffff1673ffffffffffffffffffffffffffffffffffffffff161461235f576040517f08c379a00000000000000000000000000000000000000000000000000000000081526004018080602001828103825260208152602001807f4f776e61626c653a2063616c6c6572206973206e6f7420746865206f776e657281525060200191505060405180910390fd5b600073ffffffffffffffffffffffffffffffffffffffff168173ffffffffffffffffffffffffffffffffffffffff1614156123e5576040517f08c379a00000000000000000000000000000000000000000000000000000000081526004018080602001828103825260268152602001806139996026913960400191505060405180910390fd5b8073ffffffffffffffffffffffffffffffffffffffff1660008054906101000a900473ffffffffffffffffffffffffffffffffffffffff1673ffffffffffffffffffffffffffffffffffffffff167f8be0079c531659141344cd1fd0a4f28419497f9722a3daafe3b4186f6b6457e060405160405180910390a3806000806101000a81548173ffffffffffffffffffffffffffffffffffffffff021916908373ffffffffffffffffffffffffffffffffffffffff16021790555050565b600360009054906101000a900473ffffffffffffffffffffffffffffffffffffffff1681565b600033905090565b600060149054906101000a900460ff16612552576040517f08c379a00000000000000000000000000000000000000000000000000000000081526004018080602001828103825260148152602001807f5061757361626c653a206e6f742070617573656400000000000000000000000081525060200191505060405180910390fd5b60008060146101000a81548160ff0219169083151502179055507f5db9ee0a495bf2e6ff9c91a7834c1ba4fdd244a5e8aa4e537bd38aeae4b073aa6125956124c8565b604051808273ffffffffffffffffffffffffffffffffffffffff16815260200191505060405180910390a1565b61265f8363a9059cbb60e01b8484604051602401808373ffffffffffffffffffffffffffffffffffffffff16815260200182815260200192505050604051602081830303815290604052907bffffffffffffffffffffffffffffffffffffffffffffffffffffffff19166020820180517bffffffffffffffffffffffffffffffffffffffffffffffffffffffff83818316178352505050506130f4565b505050565b6000612672826000016131e3565b9050919050565b600061268883600001836131f4565b60001c905092915050565b600060149054906101000a900460ff1615612716576040517f08c379a00000000000000000000000000000000000000000000000000000000081526004018080602001828103825260108152602001807f5061757361626c653a207061757365640000000000000000000000000000000081525060200191505060405180910390fd5b6001600060146101000a81548160ff0219169083151502179055507f62e78cea01bee320cd4e420270b5ea74000d11b0c9f74754ebdbfc544b05a25861275a6124c8565b604051808273ffffffffffffffffffffffffffffffffffffffff16815260200191505060405180910390a1565b60006127af836000018373ffffffffffffffffffffffffffffffffffffffff1660001b613277565b905092915050565b600080600260009054906101000a900473ffffffffffffffffffffffffffffffffffffffff1673ffffffffffffffffffffffffffffffffffffffff1663313ce5676040518163ffffffff1660e01b815260040160206040518083038186803b15801561282257600080fd5b505afa158015612836573d6000803e3d6000fd5b505050506040513d602081101561284c57600080fd5b810190808051906020019092919050505060ff1690506128b56005546128a7612895600660ff1661288786601261329a90919063ffffffff16565b6132e490919063ffffffff16565b600a0a8661336c90919063ffffffff16565b6133f290919063ffffffff16565b915050919050565b60006060600660009054906101000a900473ffffffffffffffffffffffffffffffffffffffff1673ffffffffffffffffffffffffffffffffffffffff1663d06ca61f8461290987612ad8565b6040518363ffffffff1660e01b81526004018083815260200180602001828103825283818151815260200191508051906020019060200280838360005b83811015612961578082015181840152602081019050612946565b50505050905001935050505060006040518083038186803b15801561298557600080fd5b505afa158015612999573d6000803e3d6000fd5b505050506040513d6000823e3d601f19601f8201168201806040525060208110156129c357600080fd5b81019080805160405193929190846401000000008211156129e357600080fd5b838201915060208201858111156129f957600080fd5b8251866020820283011164010000000082111715612a1657600080fd5b8083526020830192505050908051906020019060200280838360005b83811015612a4d578082015181840152602081019050612a32565b505050509050016040525050509050600081511415612ab7576040517f08c379a0000000000000000000000000000000000000000000000000000000008152600401808060200182810382526032815260200180613acb6032913960400191505060405180910390fd5b80600182510381518110612ac757fe5b602002602001015191505092915050565b60606000600660009054906101000a900473ffffffffffffffffffffffffffffffffffffffff1673ffffffffffffffffffffffffffffffffffffffff1663ad5c46486040518163ffffffff1660e01b815260040160206040518083038186803b158015612b4457600080fd5b505afa158015612b58573d6000803e3d6000fd5b505050506040513d6020811015612b6e57600080fd5b810190808051906020019092919050505090508273ffffffffffffffffffffffffffffffffffffffff168173ffffffffffffffffffffffffffffffffffffffff161415612cbd576060600267ffffffffffffffff81118015612bcf57600080fd5b50604051908082528060200260200182016040528015612bfe5781602001602082028036833780820191505090505b5090508381600081518110612c0f57fe5b602002602001019073ffffffffffffffffffffffffffffffffffffffff16908173ffffffffffffffffffffffffffffffffffffffff1681525050600260009054906101000a900473ffffffffffffffffffffffffffffffffffffffff1681600181518110612c7957fe5b602002602001019073ffffffffffffffffffffffffffffffffffffffff16908173ffffffffffffffffffffffffffffffffffffffff16815250508092505050612e09565b6060600367ffffffffffffffff81118015612cd757600080fd5b50604051908082528060200260200182016040528015612d065781602001602082028036833780820191505090505b5090508381600081518110612d1757fe5b602002602001019073ffffffffffffffffffffffffffffffffffffffff16908173ffffffffffffffffffffffffffffffffffffffff16815250508181600181518110612d5f57fe5b602002602001019073ffffffffffffffffffffffffffffffffffffffff16908173ffffffffffffffffffffffffffffffffffffffff1681525050600260009054906101000a900473ffffffffffffffffffffffffffffffffffffffff1681600281518110612dc957fe5b602002602001019073ffffffffffffffffffffffffffffffffffffffff16908173ffffffffffffffffffffffffffffffffffffffff168152505080925050505b919050565b6000612e36836000018373ffffffffffffffffffffffffffffffffffffffff1660001b61343c565b905092915050565b612ef9846323b872dd60e01b858585604051602401808473ffffffffffffffffffffffffffffffffffffffff1681526020018373ffffffffffffffffffffffffffffffffffffffff1681526020018281526020019350505050604051602081830303815290604052907bffffffffffffffffffffffffffffffffffffffffffffffffffffffff19166020820180517bffffffffffffffffffffffffffffffffffffffffffffffffffffffff83818316178352505050506130f4565b50505050565b6000811480612fcd575060008373ffffffffffffffffffffffffffffffffffffffff1663dd62ed3e30856040518363ffffffff1660e01b8152600401808373ffffffffffffffffffffffffffffffffffffffff1681526020018273ffffffffffffffffffffffffffffffffffffffff1681526020019250505060206040518083038186803b158015612f9057600080fd5b505afa158015612fa4573d6000803e3d6000fd5b505050506040513d6020811015612fba57600080fd5b8101908080519060200190929190505050145b613022576040517f08c379a0000000000000000000000000000000000000000000000000000000008152600401808060200182810382526036815260200180613bcb6036913960400191505060405180910390fd5b6130bf8363095ea7b360e01b8484604051602401808373ffffffffffffffffffffffffffffffffffffffff16815260200182815260200192505050604051602081830303815290604052907bffffffffffffffffffffffffffffffffffffffffffffffffffffffff19166020820180517bffffffffffffffffffffffffffffffffffffffffffffffffffffffff83818316178352505050506130f4565b505050565b60006130ec836000018373ffffffffffffffffffffffffffffffffffffffff1660001b6134ac565b905092915050565b6060613156826040518060400160405280602081526020017f5361666545524332303a206c6f772d6c6576656c2063616c6c206661696c65648152508573ffffffffffffffffffffffffffffffffffffffff166135949092919063ffffffff16565b90506000815111156131de5780806020019051602081101561317757600080fd5b81019080805190602001909291905050506131dd576040517f08c379a000000000000000000000000000000000000000000000000000000000815260040180806020018281038252602a815260200180613ba1602a913960400191505060405180910390fd5b5b505050565b600081600001805490509050919050565b600081836000018054905011613255576040517f08c379a000000000000000000000000000000000000000000000000000000000815260040180806020018281038252602281526020018061394c6022913960400191505060405180910390fd5b82600001828154811061326457fe5b9060005260206000200154905092915050565b600080836001016000848152602001908152602001600020541415905092915050565b60006132dc83836040518060400160405280601e81526020017f536166654d6174683a207375627472616374696f6e206f766572666c6f7700008152506135ac565b905092915050565b600080828401905083811015613362576040517f08c379a000000000000000000000000000000000000000000000000000000000815260040180806020018281038252601b8152602001807f536166654d6174683a206164646974696f6e206f766572666c6f77000000000081525060200191505060405180910390fd5b8091505092915050565b60008083141561337f57600090506133ec565b600082840290508284828161339057fe5b04146133e7576040517f08c379a0000000000000000000000000000000000000000000000000000000008152600401808060200182810382526021815260200180613aaa6021913960400191505060405180910390fd5b809150505b92915050565b600061343483836040518060400160405280601a81526020017f536166654d6174683a206469766973696f6e206279207a65726f00000000000081525061366c565b905092915050565b60006134488383613277565b6134a15782600001829080600181540180825580915050600190039060005260206000200160009091909190915055826000018054905083600101600084815260200190815260200160002081905550600190506134a6565b600090505b92915050565b6000808360010160008481526020019081526020016000205490506000811461358857600060018203905060006001866000018054905003905060008660000182815481106134f757fe5b906000526020600020015490508087600001848154811061351457fe5b906000526020600020018190555060018301876001016000838152602001908152602001600020819055508660000180548061354c57fe5b6001900381819060005260206000200160009055905586600101600087815260200190815260200160002060009055600194505050505061358e565b60009150505b92915050565b60606135a38484600085613732565b90509392505050565b6000838311158290613659576040517f08c379a00000000000000000000000000000000000000000000000000000000081526004018080602001828103825283818151815260200191508051906020019080838360005b8381101561361e578082015181840152602081019050613603565b50505050905090810190601f16801561364b5780820380516001836020036101000a031916815260200191505b509250505060405180910390fd5b5060008385039050809150509392505050565b60008083118290613718576040517f08c379a00000000000000000000000000000000000000000000000000000000081526004018080602001828103825283818151815260200191508051906020019080838360005b838110156136dd5780820151818401526020810190506136c2565b50505050905090810190601f16801561370a5780820380516001836020036101000a031916815260200191505b509250505060405180910390fd5b50600083858161372457fe5b049050809150509392505050565b606061373d85613938565b6137af576040517f08c379a000000000000000000000000000000000000000000000000000000000815260040180806020018281038252601d8152602001807f416464726573733a2063616c6c20746f206e6f6e2d636f6e747261637400000081525060200191505060405180910390fd5b600060608673ffffffffffffffffffffffffffffffffffffffff1685876040518082805190602001908083835b602083106137ff57805182526020820191506020810190506020830392506137dc565b6001836020036101000a03801982511681845116808217855250505050505090500191505060006040518083038185875af1925050503d8060008114613861576040519150601f19603f3d011682016040523d82523d6000602084013e613866565b606091505b5091509150811561387b578092505050613930565b60008151111561388e5780518082602001fd5b836040517f08c379a00000000000000000000000000000000000000000000000000000000081526004018080602001828103825283818151815260200191508051906020019080838360005b838110156138f55780820151818401526020810190506138da565b50505050905090810190601f1680156139225780820380516001836020036101000a031916815260200191505b509250505060405180910390fd5b949350505050565b600080823b90506000811191505091905056fe456e756d657261626c655365743a20696e646578206f7574206f6620626f756e6473496e766573746d656e743a3a696e766573743a206c697175696469747920706f6f6c20697320656d7074794f776e61626c653a206e6577206f776e657220697320746865207a65726f20616464726573734f776e61626c655061757361626c653a3a70617573653a206f6e6c792070617573657220616e64206f776e6572206d75737420706175736520636f6e74726163744f776e61626c655061757361626c653a3a756e70617573653a206f6e6c792070617573657220616e64206f776e6572206d75737420756e706175736520636f6e7472616374496e766573746d656e743a3a696e766573743a20696e76616c696420696e7665737461626c6520746f6b656e496e766573746d656e743a3a77697468647261773a2063616e6e6f74207472616e7366657220746f20746865207a65726f2061646472657373536166654d6174683a206d756c7469706c69636174696f6e206f766572666c6f77496e766573746d656e743a3a5f616d6f756e744f75743a20696e76616c696420616d6f756e7473206f7574206c656e677468496e766573746d656e743a3a70726963653a20696e76616c696420696e7665737461626c6520746f6b656e496e766573746d656e743a3a696e766573744554483a20696e76616c696420696e7665737461626c6520746f6b656e496e766573746d656e743a3a6368616e6765476f7665726e616e6365546f6b656e50726963653a20696e76616c6964206e657720676f7665726e616e636520746f6b656e2070726963655361666545524332303a204552433230206f7065726174696f6e20646964206e6f7420737563636565645361666545524332303a20617070726f76652066726f6d206e6f6e2d7a65726f20746f206e6f6e2d7a65726f20616c6c6f77616e6365a264697066735822122055b47cff20fa58020d51ff1f5fc1b45312f4ae82b7ff539e0d1f418cfd1ef50164736f6c634300060c0033",
  "devdoc": {
    "kind": "dev",
    "methods": {
      "allowToken(address)": {
        "params": {
          "token": "Allowable token"
        }
      },
      "allowedTokens()": {
        "returns": {
          "_0": "Allowed tokens list."
        }
      },
      "changeGovernanceTokenLockDate(uint256)": {
        "params": {
          "_governanceTokenLockDate": "New lock date of governance token."
        }
      },
      "changeGovernanceTokenPrice(uint256)": {
        "params": {
          "newPrice": "New price of governance token of USD (6 decimal)"
        }
      },
      "changePauser(address)": {
        "params": {
          "newPauser": "Address of new pauser account."
        }
      },
      "changeUniswapRouter(address)": {
        "params": {
          "_uniswapRouter": "Address new uniswap router contract."
        }
      },
      "constructor": {
        "params": {
          "_cumulative": "Address of cumulative token",
          "_governanceToken": "Address of governance token",
          "_governanceTokenLockDate": "Lock date of governance token",
          "_governanceTokenPrice": "Governance token price",
          "_uniswapRouter": "Address of UniswapV2Router"
        }
      },
      "denyToken(address)": {
        "params": {
          "token": "Denied token"
        }
      },
      "invest(address,uint256)": {
        "params": {
          "amount": "Invested amount",
          "token": "Invested token"
        }
      },
      "owner()": {
        "details": "Returns the address of the current owner."
      },
      "paused()": {
        "details": "Returns true if the contract is paused, and false otherwise."
      },
      "price(address,uint256)": {
        "params": {
          "amount": "Invested amount",
          "token": "Invested token"
        },
        "returns": {
          "_0": "Amount governance token after swap"
        }
      },
      "renounceOwnership()": {
        "details": "Leaves the contract without owner. It will not be possible to call `onlyOwner` functions anymore. Can only be called by the current owner. NOTE: Renouncing ownership will leave the contract without an owner, thereby removing any functionality that is only available to the owner."
      },
      "transferOwnership(address)": {
        "details": "Transfers ownership of the contract to a new account (`newOwner`). Can only be called by the current owner."
      },
      "withdraw(address)": {
        "params": {
          "recipient": "Recipient of tokens"
        }
      }
    },
    "stateVariables": {
      "_allowedTokens": {
        "details": "Allowed tokens list."
      },
      "uniswapRouter": {
        "details": "Address of UniswapV2Router"
      }
    },
    "version": 1
  },
  "userdoc": {
    "events": {
      "GovernanceTokenLockDateChanged(uint256)": {
        "notice": "An event thats emitted when an governance token lock date changed."
      },
      "GovernanceTokenPriceChanged(uint256)": {
        "notice": "An event thats emitted when an governance token price changed."
      },
      "InvestTokenAllowed(address)": {
        "notice": "An event thats emitted when an invest token allowed."
      },
      "InvestTokenDenied(address)": {
        "notice": "An event thats emitted when an invest token denied."
      },
      "Invested(address,address,uint256,uint256)": {
        "notice": "An event thats emitted when an invested token."
      },
      "PauserChanged(address)": {
        "notice": "An event thats emitted when an pauser address changed."
      },
      "UniswapRouterChanged(address)": {
        "notice": "An event thats emitted when an uniswap router contract address changed."
      },
      "Withdrawal(address,address,uint256)": {
        "notice": "An event thats emitted when an withdrawal token."
      }
    },
    "kind": "user",
    "methods": {
      "allowToken(address)": {
        "notice": "Add token to investable tokens white list"
      },
      "changeGovernanceTokenLockDate(uint256)": {
        "notice": "Update governance token lock date."
      },
      "changeGovernanceTokenPrice(uint256)": {
        "notice": "Update governance token price"
      },
      "changePauser(address)": {
        "notice": "Change pauser account."
      },
      "changeUniswapRouter(address)": {
        "notice": "Changed uniswap router contract address."
      },
      "cumulative()": {
        "notice": "Address of cumulative token"
      },
      "denyToken(address)": {
        "notice": "Remove token from investable tokens white list"
      },
      "governanceToken()": {
        "notice": "Address of governance token"
      },
      "governanceTokenLockDate()": {
        "notice": "Date of locking governance token"
      },
      "governanceTokenPrice()": {
        "notice": "Price governance token"
      },
      "invest(address,uint256)": {
        "notice": "Invest tokens to protocol"
      },
      "investETH()": {
        "notice": "Invest ETH to protocol"
      },
      "pause()": {
        "notice": "Triggers stopped state."
      },
      "pauser()": {
        "notice": "Address that can pause a contract."
      },
      "unpause()": {
        "notice": "Returns to normal state."
      },
      "withdraw(address)": {
        "notice": "Withdraw invested token to address"
      }
    },
    "version": 1
  },
  "storageLayout": {
    "storage": [
      {
        "astId": 30,
        "contract": "contracts/Investment.sol:Investment",
        "label": "_owner",
        "offset": 0,
        "slot": "0",
        "type": "t_address"
      },
      {
        "astId": 1806,
        "contract": "contracts/Investment.sol:Investment",
        "label": "_paused",
        "offset": 20,
        "slot": "0",
        "type": "t_bool"
      },
      {
        "astId": 12936,
        "contract": "contracts/Investment.sol:Investment",
        "label": "pauser",
        "offset": 0,
        "slot": "1",
        "type": "t_address"
      },
      {
        "astId": 5268,
        "contract": "contracts/Investment.sol:Investment",
        "label": "cumulative",
        "offset": 0,
        "slot": "2",
        "type": "t_contract(ERC20)907"
      },
      {
        "astId": 5271,
        "contract": "contracts/Investment.sol:Investment",
        "label": "governanceToken",
        "offset": 0,
        "slot": "3",
        "type": "t_contract(GovernanceToken)3978"
      },
      {
        "astId": 5274,
        "contract": "contracts/Investment.sol:Investment",
        "label": "governanceTokenLockDate",
        "offset": 0,
        "slot": "4",
        "type": "t_uint256"
      },
      {
        "astId": 5280,
        "contract": "contracts/Investment.sol:Investment",
        "label": "governanceTokenPrice",
        "offset": 0,
        "slot": "5",
        "type": "t_uint256"
      },
      {
        "astId": 5283,
        "contract": "contracts/Investment.sol:Investment",
        "label": "uniswapRouter",
        "offset": 0,
        "slot": "6",
        "type": "t_contract(IUniswapV2Router02)12781"
      },
      {
        "astId": 5286,
        "contract": "contracts/Investment.sol:Investment",
        "label": "_allowedTokens",
        "offset": 0,
        "slot": "7",
        "type": "t_struct(AddressSet)1584_storage"
      }
    ],
    "types": {
      "t_address": {
        "encoding": "inplace",
        "label": "address",
        "numberOfBytes": "20"
      },
      "t_array(t_bytes32)dyn_storage": {
        "base": "t_bytes32",
        "encoding": "dynamic_array",
        "label": "bytes32[]",
        "numberOfBytes": "32"
      },
      "t_bool": {
        "encoding": "inplace",
        "label": "bool",
        "numberOfBytes": "1"
      },
      "t_bytes32": {
        "encoding": "inplace",
        "label": "bytes32",
        "numberOfBytes": "32"
      },
      "t_contract(ERC20)907": {
        "encoding": "inplace",
        "label": "contract ERC20",
        "numberOfBytes": "20"
      },
      "t_contract(GovernanceToken)3978": {
        "encoding": "inplace",
        "label": "contract GovernanceToken",
        "numberOfBytes": "20"
      },
      "t_contract(IUniswapV2Router02)12781": {
        "encoding": "inplace",
        "label": "contract IUniswapV2Router02",
        "numberOfBytes": "20"
      },
      "t_mapping(t_bytes32,t_uint256)": {
        "encoding": "mapping",
        "key": "t_bytes32",
        "label": "mapping(bytes32 => uint256)",
        "numberOfBytes": "32",
        "value": "t_uint256"
      },
      "t_struct(AddressSet)1584_storage": {
        "encoding": "inplace",
        "label": "struct EnumerableSet.AddressSet",
        "members": [
          {
            "astId": 1583,
            "contract": "contracts/Investment.sol:Investment",
            "label": "_inner",
            "offset": 0,
            "slot": "0",
            "type": "t_struct(Set)1404_storage"
          }
        ],
        "numberOfBytes": "64"
      },
      "t_struct(Set)1404_storage": {
        "encoding": "inplace",
        "label": "struct EnumerableSet.Set",
        "members": [
          {
            "astId": 1399,
            "contract": "contracts/Investment.sol:Investment",
            "label": "_values",
            "offset": 0,
            "slot": "0",
            "type": "t_array(t_bytes32)dyn_storage"
          },
          {
            "astId": 1403,
            "contract": "contracts/Investment.sol:Investment",
            "label": "_indexes",
            "offset": 0,
            "slot": "1",
            "type": "t_mapping(t_bytes32,t_uint256)"
          }
        ],
        "numberOfBytes": "64"
      },
      "t_uint256": {
        "encoding": "inplace",
        "label": "uint256",
        "numberOfBytes": "32"
      }
    }
  }
}