{
  "address": "0xC6E36Fc68c717DDD7499dBfF67C0426564708451",
  "abi": [
    {
      "anonymous": false,
      "inputs": [
        {
          "indexed": true,
          "internalType": "address",
          "name": "previousOwner",
          "type": "address"
        },
        {
          "indexed": true,
          "internalType": "address",
          "name": "newOwner",
          "type": "address"
        }
      ],
      "name": "OwnershipTransferred",
      "type": "event"
    },
    {
      "anonymous": false,
      "inputs": [
        {
          "indexed": false,
          "internalType": "address",
          "name": "token",
          "type": "address"
        }
      ],
      "name": "TokenAllowed",
      "type": "event"
    },
    {
      "anonymous": false,
      "inputs": [
        {
          "indexed": false,
          "internalType": "address",
          "name": "token",
          "type": "address"
        }
      ],
      "name": "TokenDenied",
      "type": "event"
    },
    {
      "inputs": [
        {
          "internalType": "address",
          "name": "token",
          "type": "address"
        }
      ],
      "name": "allowToken",
      "outputs": [],
      "stateMutability": "nonpayable",
      "type": "function"
    },
    {
      "inputs": [],
      "name": "allowedTokens",
      "outputs": [
        {
          "internalType": "address[]",
          "name": "",
          "type": "address[]"
        }
      ],
      "stateMutability": "view",
      "type": "function"
    },
    {
      "inputs": [],
      "name": "balance",
      "outputs": [
        {
          "internalType": "uint256",
          "name": "",
          "type": "uint256"
        }
      ],
      "stateMutability": "view",
      "type": "function"
    },
    {
      "inputs": [],
      "name": "decimals",
      "outputs": [
        {
          "internalType": "uint256",
          "name": "",
          "type": "uint256"
        }
      ],
      "stateMutability": "view",
      "type": "function"
    },
    {
      "inputs": [
        {
          "internalType": "address",
          "name": "token",
          "type": "address"
        }
      ],
      "name": "denyToken",
      "outputs": [],
      "stateMutability": "nonpayable",
      "type": "function"
    },
    {
      "inputs": [],
      "name": "owner",
      "outputs": [
        {
          "internalType": "address",
          "name": "",
          "type": "address"
        }
      ],
      "stateMutability": "view",
      "type": "function"
    },
    {
      "inputs": [],
      "name": "renounceOwnership",
      "outputs": [],
      "stateMutability": "nonpayable",
      "type": "function"
    },
    {
      "inputs": [
        {
          "internalType": "address",
          "name": "token",
          "type": "address"
        },
        {
          "internalType": "address",
          "name": "recipient",
          "type": "address"
        },
        {
          "internalType": "uint256",
          "name": "amount",
          "type": "uint256"
        }
      ],
      "name": "transfer",
      "outputs": [],
      "stateMutability": "nonpayable",
      "type": "function"
    },
    {
      "inputs": [
        {
          "internalType": "address",
          "name": "newOwner",
          "type": "address"
        }
      ],
      "name": "transferOwnership",
      "outputs": [],
      "stateMutability": "nonpayable",
      "type": "function"
    }
  ],
  "transactionHash": "0xa0136bad4b60b262ebc0c0c65279c37b6a9a1f0163d4f2a451b66c934fb43255",
  "args": [],
  "solcInputHash": "b1a7f817d137f10155d53d247427736b",
  "bytecode": "0x6080604052601260015534801561001557600080fd5b5060006100266100c960201b60201c565b9050806000806101000a81548173ffffffffffffffffffffffffffffffffffffffff021916908373ffffffffffffffffffffffffffffffffffffffff1602179055508073ffffffffffffffffffffffffffffffffffffffff16600073ffffffffffffffffffffffffffffffffffffffff167f8be0079c531659141344cd1fd0a4f28419497f9722a3daafe3b4186f6b6457e060405160405180910390a3506100d1565b600033905090565b611b84806100e06000396000f3fe608060405234801561001057600080fd5b50600436106100935760003560e01c8063b53472ef11610066578063b53472ef146100fc578063b69ef8a814610118578063beabacc814610136578063c5ea3d8314610152578063f2fde38b1461016e57610093565b8063313ce567146100985780635284d6d0146100b6578063715018a6146100d45780638da5cb5b146100de575b600080fd5b6100a061018a565b6040516100ad91906119d3565b60405180910390f35b6100be610190565b6040516100cb919061184f565b60405180910390f35b6100dc610268565b005b6100e66103bb565b6040516100f3919061180b565b60405180910390f35b6101166004803603810190610111919061126a565b6103e4565b005b6101206105e7565b60405161012d91906119d3565b60405180910390f35b610150600480360381019061014b9190611293565b61077e565b005b61016c6004803603810190610167919061126a565b610843565b005b6101886004803603810190610183919061126a565b61097a565b005b60015481565b60608061019d6002610b3c565b67ffffffffffffffff811180156101b357600080fd5b506040519080825280602002602001820160405280156101e25781602001602082028036833780820191505090505b50905060005b6101f26002610b3c565b8110156102605761020d816002610b5190919063ffffffff16565b82828151811061021957fe5b602002602001019073ffffffffffffffffffffffffffffffffffffffff16908173ffffffffffffffffffffffffffffffffffffffff168152505080806001019150506101e8565b508091505090565b610270610b6b565b73ffffffffffffffffffffffffffffffffffffffff1660008054906101000a900473ffffffffffffffffffffffffffffffffffffffff1673ffffffffffffffffffffffffffffffffffffffff16146102fd576040517f08c379a00000000000000000000000000000000000000000000000000000000081526004016102f490611953565b60405180910390fd5b600073ffffffffffffffffffffffffffffffffffffffff1660008054906101000a900473ffffffffffffffffffffffffffffffffffffffff1673ffffffffffffffffffffffffffffffffffffffff167f8be0079c531659141344cd1fd0a4f28419497f9722a3daafe3b4186f6b6457e060405160405180910390a360008060006101000a81548173ffffffffffffffffffffffffffffffffffffffff021916908373ffffffffffffffffffffffffffffffffffffffff160217905550565b60008060009054906101000a900473ffffffffffffffffffffffffffffffffffffffff16905090565b6103ec610b6b565b73ffffffffffffffffffffffffffffffffffffffff1660008054906101000a900473ffffffffffffffffffffffffffffffffffffffff1673ffffffffffffffffffffffffffffffffffffffff1614610479576040517f08c379a000000000000000000000000000000000000000000000000000000000815260040161047090611953565b60405180910390fd5b61048d816002610b7390919063ffffffff16565b156104cd576040517f08c379a00000000000000000000000000000000000000000000000000000000081526004016104c4906119b3565b60405180910390fd5b60008173ffffffffffffffffffffffffffffffffffffffff1663313ce5676040518163ffffffff1660e01b815260040160206040518083038186803b15801561051557600080fd5b505afa158015610529573d6000803e3d6000fd5b505050506040513d601f19601f8201168201806040525081019061054d9190611334565b60ff169050600154811115610597576040517f08c379a000000000000000000000000000000000000000000000000000000000815260040161058e906118f3565b60405180910390fd5b6105ab826002610ba390919063ffffffff16565b507fbeceb48aeaa805aeae57be163cca6249077a18734e408a85aa74e875c4373809826040516105db919061180b565b60405180910390a15050565b60008060005b6105f76002610b3c565b811015610776576000610614826002610b5190919063ffffffff16565b905060008173ffffffffffffffffffffffffffffffffffffffff166370a08231306040518263ffffffff1660e01b8152600401610651919061180b565b60206040518083038186803b15801561066957600080fd5b505afa15801561067d573d6000803e3d6000fd5b505050506040513d601f19601f820116820180604052508101906106a1919061130b565b905060008273ffffffffffffffffffffffffffffffffffffffff1663313ce5676040518163ffffffff1660e01b815260040160206040518083038186803b1580156106eb57600080fd5b505afa1580156106ff573d6000803e3d6000fd5b505050506040513d601f19601f820116820180604052508101906107239190611334565b60ff16905061076461075561074383600154610bd390919063ffffffff16565b600a0a84610c1d90919063ffffffff16565b86610c8d90919063ffffffff16565b945050505080806001019150506105ed565b508091505090565b610786610b6b565b73ffffffffffffffffffffffffffffffffffffffff1660008054906101000a900473ffffffffffffffffffffffffffffffffffffffff1673ffffffffffffffffffffffffffffffffffffffff1614610813576040517f08c379a000000000000000000000000000000000000000000000000000000000815260040161080a90611953565b60405180910390fd5b61083e82828573ffffffffffffffffffffffffffffffffffffffff16610ce29092919063ffffffff16565b505050565b61084b610b6b565b73ffffffffffffffffffffffffffffffffffffffff1660008054906101000a900473ffffffffffffffffffffffffffffffffffffffff1673ffffffffffffffffffffffffffffffffffffffff16146108d8576040517f08c379a00000000000000000000000000000000000000000000000000000000081526004016108cf90611953565b60405180910390fd5b6108ec816002610b7390919063ffffffff16565b61092b576040517f08c379a000000000000000000000000000000000000000000000000000000000815260040161092290611913565b60405180910390fd5b61093f816002610d6890919063ffffffff16565b507f99141d0e2d4f048b95e099fa59ce3343ad2b2827553ca03a066fdcbfc421dbb18160405161096f919061180b565b60405180910390a150565b610982610b6b565b73ffffffffffffffffffffffffffffffffffffffff1660008054906101000a900473ffffffffffffffffffffffffffffffffffffffff1673ffffffffffffffffffffffffffffffffffffffff1614610a0f576040517f08c379a0000000000000000000000000000000000000000000000000000000008152600401610a0690611953565b60405180910390fd5b600073ffffffffffffffffffffffffffffffffffffffff168173ffffffffffffffffffffffffffffffffffffffff161415610a7f576040517f08c379a0000000000000000000000000000000000000000000000000000000008152600401610a76906118b3565b60405180910390fd5b8073ffffffffffffffffffffffffffffffffffffffff1660008054906101000a900473ffffffffffffffffffffffffffffffffffffffff1673ffffffffffffffffffffffffffffffffffffffff167f8be0079c531659141344cd1fd0a4f28419497f9722a3daafe3b4186f6b6457e060405160405180910390a3806000806101000a81548173ffffffffffffffffffffffffffffffffffffffff021916908373ffffffffffffffffffffffffffffffffffffffff16021790555050565b6000610b4a82600001610d98565b9050919050565b6000610b608360000183610da9565b60001c905092915050565b600033905090565b6000610b9b836000018373ffffffffffffffffffffffffffffffffffffffff1660001b610e16565b905092915050565b6000610bcb836000018373ffffffffffffffffffffffffffffffffffffffff1660001b610e39565b905092915050565b6000610c1583836040518060400160405280601e81526020017f536166654d6174683a207375627472616374696f6e206f766572666c6f770000815250610ea9565b905092915050565b600080831415610c305760009050610c87565b6000828402905082848281610c4157fe5b0414610c82576040517f08c379a0000000000000000000000000000000000000000000000000000000008152600401610c7990611933565b60405180910390fd5b809150505b92915050565b600080828401905083811015610cd8576040517f08c379a0000000000000000000000000000000000000000000000000000000008152600401610ccf906118d3565b60405180910390fd5b8091505092915050565b610d638363a9059cbb60e01b8484604051602401610d01929190611826565b604051602081830303815290604052907bffffffffffffffffffffffffffffffffffffffffffffffffffffffff19166020820180517bffffffffffffffffffffffffffffffffffffffffffffffffffffffff8381831617835250505050610f04565b505050565b6000610d90836000018373ffffffffffffffffffffffffffffffffffffffff1660001b610fcb565b905092915050565b600081600001805490509050919050565b600081836000018054905011610df4576040517f08c379a0000000000000000000000000000000000000000000000000000000008152600401610deb90611893565b60405180910390fd5b826000018281548110610e0357fe5b9060005260206000200154905092915050565b600080836001016000848152602001908152602001600020541415905092915050565b6000610e458383610e16565b610e9e578260000182908060018154018082558091505060019003906000526020600020016000909190919091505582600001805490508360010160008481526020019081526020016000208190555060019050610ea3565b600090505b92915050565b6000838311158290610ef1576040517f08c379a0000000000000000000000000000000000000000000000000000000008152600401610ee89190611871565b60405180910390fd5b5060008385039050809150509392505050565b6060610f66826040518060400160405280602081526020017f5361666545524332303a206c6f772d6c6576656c2063616c6c206661696c65648152508573ffffffffffffffffffffffffffffffffffffffff166110b39092919063ffffffff16565b9050600081511115610fc65780806020019051810190610f8691906112e2565b610fc5576040517f08c379a0000000000000000000000000000000000000000000000000000000008152600401610fbc90611993565b60405180910390fd5b5b505050565b600080836001016000848152602001908152602001600020549050600081146110a7576000600182039050600060018660000180549050039050600086600001828154811061101657fe5b906000526020600020015490508087600001848154811061103357fe5b906000526020600020018190555060018301876001016000838152602001908152602001600020819055508660000180548061106b57fe5b600190038181906000526020600020016000905590558660010160008781526020019081526020016000206000905560019450505050506110ad565b60009150505b92915050565b60606110c284846000856110cb565b90509392505050565b60606110d6856111ee565b611115576040517f08c379a000000000000000000000000000000000000000000000000000000000815260040161110c90611973565b60405180910390fd5b600060608673ffffffffffffffffffffffffffffffffffffffff16858760405161113f91906117f4565b60006040518083038185875af1925050503d806000811461117c576040519150601f19603f3d011682016040523d82523d6000602084013e611181565b606091505b509150915081156111965780925050506111e6565b6000815111156111a95780518082602001fd5b836040517f08c379a00000000000000000000000000000000000000000000000000000000081526004016111dd9190611871565b60405180910390fd5b949350505050565b600080823b905060008111915050919050565b60008135905061121081611af2565b92915050565b60008151905061122581611b09565b92915050565b60008135905061123a81611b20565b92915050565b60008151905061124f81611b20565b92915050565b60008151905061126481611b37565b92915050565b60006020828403121561127c57600080fd5b600061128a84828501611201565b91505092915050565b6000806000606084860312156112a857600080fd5b60006112b686828701611201565b93505060206112c786828701611201565b92505060406112d88682870161122b565b9150509250925092565b6000602082840312156112f457600080fd5b600061130284828501611216565b91505092915050565b60006020828403121561131d57600080fd5b600061132b84828501611240565b91505092915050565b60006020828403121561134657600080fd5b600061135484828501611255565b91505092915050565b60006113698383611375565b60208301905092915050565b61137e81611a59565b82525050565b61138d81611a59565b82525050565b600061139e826119fe565b6113a88185611a2c565b93506113b3836119ee565b8060005b838110156113e45781516113cb888261135d565b97506113d683611a1f565b9250506001810190506113b7565b5085935050505092915050565b60006113fc82611a09565b6114068185611a3d565b9350611416818560208601611aae565b80840191505092915050565b600061142d82611a14565b6114378185611a48565b9350611447818560208601611aae565b61145081611ae1565b840191505092915050565b6000611468602283611a48565b91507f456e756d657261626c655365743a20696e646578206f7574206f6620626f756e60008301527f64730000000000000000000000000000000000000000000000000000000000006020830152604082019050919050565b60006114ce602683611a48565b91507f4f776e61626c653a206e6577206f776e657220697320746865207a65726f206160008301527f64647265737300000000000000000000000000000000000000000000000000006020830152604082019050919050565b6000611534601b83611a48565b91507f536166654d6174683a206164646974696f6e206f766572666c6f7700000000006000830152602082019050919050565b6000611574603383611a48565b91507f546f6b656e4465706f7369746172793a3a616c6c6f77546f6b656e3a20696e7660008301527f616c696420746f6b656e20646563696d616c73000000000000000000000000006020830152604082019050919050565b60006115da603083611a48565b91507f546f6b656e4465706f7369746172793a3a64656e79546f6b656e3a20746f6b6560008301527f6e20616c72656164792064656e696564000000000000000000000000000000006020830152604082019050919050565b6000611640602183611a48565b91507f536166654d6174683a206d756c7469706c69636174696f6e206f766572666c6f60008301527f77000000000000000000000000000000000000000000000000000000000000006020830152604082019050919050565b60006116a6602083611a48565b91507f4f776e61626c653a2063616c6c6572206973206e6f7420746865206f776e65726000830152602082019050919050565b60006116e6601d83611a48565b91507f416464726573733a2063616c6c20746f206e6f6e2d636f6e74726163740000006000830152602082019050919050565b6000611726602a83611a48565b91507f5361666545524332303a204552433230206f7065726174696f6e20646964206e60008301527f6f742073756363656564000000000000000000000000000000000000000000006020830152604082019050919050565b600061178c603283611a48565b91507f546f6b656e4465706f7369746172793a3a616c6c6f77546f6b656e3a20746f6b60008301527f656e20616c726561647920616c6c6f77656400000000000000000000000000006020830152604082019050919050565b6117ee81611a97565b82525050565b600061180082846113f1565b915081905092915050565b60006020820190506118206000830184611384565b92915050565b600060408201905061183b6000830185611384565b61184860208301846117e5565b9392505050565b600060208201905081810360008301526118698184611393565b905092915050565b6000602082019050818103600083015261188b8184611422565b905092915050565b600060208201905081810360008301526118ac8161145b565b9050919050565b600060208201905081810360008301526118cc816114c1565b9050919050565b600060208201905081810360008301526118ec81611527565b9050919050565b6000602082019050818103600083015261190c81611567565b9050919050565b6000602082019050818103600083015261192c816115cd565b9050919050565b6000602082019050818103600083015261194c81611633565b9050919050565b6000602082019050818103600083015261196c81611699565b9050919050565b6000602082019050818103600083015261198c816116d9565b9050919050565b600060208201905081810360008301526119ac81611719565b9050919050565b600060208201905081810360008301526119cc8161177f565b9050919050565b60006020820190506119e860008301846117e5565b92915050565b6000819050602082019050919050565b600081519050919050565b600081519050919050565b600081519050919050565b6000602082019050919050565b600082825260208201905092915050565b600081905092915050565b600082825260208201905092915050565b6000611a6482611a77565b9050919050565b60008115159050919050565b600073ffffffffffffffffffffffffffffffffffffffff82169050919050565b6000819050919050565b600060ff82169050919050565b60005b83811015611acc578082015181840152602081019050611ab1565b83811115611adb576000848401525b50505050565b6000601f19601f8301169050919050565b611afb81611a59565b8114611b0657600080fd5b50565b611b1281611a6b565b8114611b1d57600080fd5b50565b611b2981611a97565b8114611b3457600080fd5b50565b611b4081611aa1565b8114611b4b57600080fd5b5056fea264697066735822122046aff35ff5b76def77f314545bfe5eb1baa2242f177c4484782b578f38a6c39264736f6c634300060c0033",
  "devdoc": {
    "kind": "dev",
    "methods": {
      "allowToken(address)": {
        "params": {
          "token": "Allowed token."
        }
      },
      "allowedTokens()": {
        "returns": {
          "_0": "Allowed tokens list."
        }
      },
      "balance()": {
        "returns": {
          "_0": "Balance of depositary."
        }
      },
      "denyToken(address)": {
        "params": {
          "token": "Denied token."
        }
      },
      "owner()": {
        "details": "Returns the address of the current owner."
      },
      "renounceOwnership()": {
        "details": "Leaves the contract without owner. It will not be possible to call `onlyOwner` functions anymore. Can only be called by the current owner. NOTE: Renouncing ownership will leave the contract without an owner, thereby removing any functionality that is only available to the owner."
      },
      "transfer(address,address,uint256)": {
        "params": {
          "amount": "Transfer amount.",
          "recipient": "Recipient.",
          "token": "Target token."
        }
      },
      "transferOwnership(address)": {
        "details": "Transfers ownership of the contract to a new account (`newOwner`). Can only be called by the current owner."
      }
    },
    "stateVariables": {
      "tokens": {
        "details": "Allowed tokens."
      }
    },
    "version": 1
  },
  "userdoc": {
    "events": {
      "TokenAllowed(address)": {
        "notice": "An event emitted when token allowed."
      },
      "TokenDenied(address)": {
        "notice": "An event emitted when token denied."
      }
    },
    "kind": "user",
    "methods": {
      "allowToken(address)": {
        "notice": "Allow token."
      },
      "balance()": {
        "notice": "Get balance of depositary."
      },
      "decimals()": {
        "notice": "Balance decimals."
      },
      "denyToken(address)": {
        "notice": "Deny token."
      },
      "transfer(address,address,uint256)": {
        "notice": "Transfer target token to recipient."
      }
    },
    "version": 1
  },
  "storageLayout": {
    "storage": [
      {
        "astId": 30,
        "contract": "contracts/depositary/StableTokenDepositaryBalanceView.sol:StableTokenDepositaryBalanceView",
        "label": "_owner",
        "offset": 0,
        "slot": "0",
        "type": "t_address"
      },
      {
        "astId": 10927,
        "contract": "contracts/depositary/StableTokenDepositaryBalanceView.sol:StableTokenDepositaryBalanceView",
        "label": "decimals",
        "offset": 0,
        "slot": "1",
        "type": "t_uint256"
      },
      {
        "astId": 10930,
        "contract": "contracts/depositary/StableTokenDepositaryBalanceView.sol:StableTokenDepositaryBalanceView",
        "label": "tokens",
        "offset": 0,
        "slot": "2",
        "type": "t_struct(AddressSet)1584_storage"
      }
    ],
    "types": {
      "t_address": {
        "encoding": "inplace",
        "label": "address",
        "numberOfBytes": "20"
      },
      "t_array(t_bytes32)dyn_storage": {
        "base": "t_bytes32",
        "encoding": "dynamic_array",
        "label": "bytes32[]",
        "numberOfBytes": "32"
      },
      "t_bytes32": {
        "encoding": "inplace",
        "label": "bytes32",
        "numberOfBytes": "32"
      },
      "t_mapping(t_bytes32,t_uint256)": {
        "encoding": "mapping",
        "key": "t_bytes32",
        "label": "mapping(bytes32 => uint256)",
        "numberOfBytes": "32",
        "value": "t_uint256"
      },
      "t_struct(AddressSet)1584_storage": {
        "encoding": "inplace",
        "label": "struct EnumerableSet.AddressSet",
        "members": [
          {
            "astId": 1583,
            "contract": "contracts/depositary/StableTokenDepositaryBalanceView.sol:StableTokenDepositaryBalanceView",
            "label": "_inner",
            "offset": 0,
            "slot": "0",
            "type": "t_struct(Set)1404_storage"
          }
        ],
        "numberOfBytes": "64"
      },
      "t_struct(Set)1404_storage": {
        "encoding": "inplace",
        "label": "struct EnumerableSet.Set",
        "members": [
          {
            "astId": 1399,
            "contract": "contracts/depositary/StableTokenDepositaryBalanceView.sol:StableTokenDepositaryBalanceView",
            "label": "_values",
            "offset": 0,
            "slot": "0",
            "type": "t_array(t_bytes32)dyn_storage"
          },
          {
            "astId": 1403,
            "contract": "contracts/depositary/StableTokenDepositaryBalanceView.sol:StableTokenDepositaryBalanceView",
            "label": "_indexes",
            "offset": 0,
            "slot": "1",
            "type": "t_mapping(t_bytes32,t_uint256)"
          }
        ],
        "numberOfBytes": "64"
      },
      "t_uint256": {
        "encoding": "inplace",
        "label": "uint256",
        "numberOfBytes": "32"
      }
    }
  }
}