{
  "address": "0x17c665c20693EAD6D5d233ecAf48d37eD87a6c28",
  "abi": [
    {
      "inputs": [
        {
          "internalType": "address",
          "name": "_token",
          "type": "address"
        },
        {
          "internalType": "address",
          "name": "_issuer",
          "type": "address"
        },
        {
          "internalType": "address",
          "name": "_uniswapRouter",
          "type": "address"
        },
        {
          "internalType": "address",
          "name": "_caller",
          "type": "address"
        }
      ],
      "stateMutability": "nonpayable",
      "type": "constructor"
    },
    {
      "anonymous": false,
      "inputs": [
        {
          "indexed": false,
          "internalType": "uint256",
          "name": "amount",
          "type": "uint256"
        },
        {
          "indexed": false,
          "internalType": "uint256",
          "name": "buy",
          "type": "uint256"
        }
      ],
      "name": "Buyback",
      "type": "event"
    },
    {
      "anonymous": false,
      "inputs": [
        {
          "indexed": false,
          "internalType": "address",
          "name": "newCaller",
          "type": "address"
        }
      ],
      "name": "CallerChanged",
      "type": "event"
    },
    {
      "anonymous": false,
      "inputs": [
        {
          "indexed": false,
          "internalType": "address",
          "name": "newIssuer",
          "type": "address"
        }
      ],
      "name": "IssuerChanged",
      "type": "event"
    },
    {
      "anonymous": false,
      "inputs": [
        {
          "indexed": true,
          "internalType": "address",
          "name": "previousOwner",
          "type": "address"
        },
        {
          "indexed": true,
          "internalType": "address",
          "name": "newOwner",
          "type": "address"
        }
      ],
      "name": "OwnershipTransferred",
      "type": "event"
    },
    {
      "anonymous": false,
      "inputs": [
        {
          "indexed": false,
          "internalType": "address",
          "name": "account",
          "type": "address"
        }
      ],
      "name": "Paused",
      "type": "event"
    },
    {
      "anonymous": false,
      "inputs": [
        {
          "indexed": false,
          "internalType": "address",
          "name": "newPauser",
          "type": "address"
        }
      ],
      "name": "PauserChanged",
      "type": "event"
    },
    {
      "anonymous": false,
      "inputs": [
        {
          "indexed": false,
          "internalType": "address",
          "name": "newRouter",
          "type": "address"
        }
      ],
      "name": "UniswapRouterChanged",
      "type": "event"
    },
    {
      "anonymous": false,
      "inputs": [
        {
          "indexed": false,
          "internalType": "address",
          "name": "account",
          "type": "address"
        }
      ],
      "name": "Unpaused",
      "type": "event"
    },
    {
      "inputs": [],
      "name": "balance",
      "outputs": [
        {
          "internalType": "uint256",
          "name": "",
          "type": "uint256"
        }
      ],
      "stateMutability": "view",
      "type": "function"
    },
    {
      "inputs": [
        {
          "internalType": "uint256",
          "name": "amount",
          "type": "uint256"
        }
      ],
      "name": "buy",
      "outputs": [],
      "stateMutability": "nonpayable",
      "type": "function"
    },
    {
      "inputs": [],
      "name": "caller",
      "outputs": [
        {
          "internalType": "address",
          "name": "",
          "type": "address"
        }
      ],
      "stateMutability": "view",
      "type": "function"
    },
    {
      "inputs": [
        {
          "internalType": "address",
          "name": "_caller",
          "type": "address"
        }
      ],
      "name": "changeCaller",
      "outputs": [],
      "stateMutability": "nonpayable",
      "type": "function"
    },
    {
      "inputs": [
        {
          "internalType": "address",
          "name": "_issuer",
          "type": "address"
        }
      ],
      "name": "changeIssuer",
      "outputs": [],
      "stateMutability": "nonpayable",
      "type": "function"
    },
    {
      "inputs": [
        {
          "internalType": "address",
          "name": "newPauser",
          "type": "address"
        }
      ],
      "name": "changePauser",
      "outputs": [],
      "stateMutability": "nonpayable",
      "type": "function"
    },
    {
      "inputs": [
        {
          "internalType": "address",
          "name": "_uniswapRouter",
          "type": "address"
        }
      ],
      "name": "changeUniswapRouter",
      "outputs": [],
      "stateMutability": "nonpayable",
      "type": "function"
    },
    {
      "inputs": [],
      "name": "decimals",
      "outputs": [
        {
          "internalType": "uint256",
          "name": "",
          "type": "uint256"
        }
      ],
      "stateMutability": "view",
      "type": "function"
    },
    {
      "inputs": [],
      "name": "issuer",
      "outputs": [
        {
          "internalType": "contract Issuer",
          "name": "",
          "type": "address"
        }
      ],
      "stateMutability": "view",
      "type": "function"
    },
    {
      "inputs": [],
      "name": "owner",
      "outputs": [
        {
          "internalType": "address",
          "name": "",
          "type": "address"
        }
      ],
      "stateMutability": "view",
      "type": "function"
    },
    {
      "inputs": [],
      "name": "pause",
      "outputs": [],
      "stateMutability": "nonpayable",
      "type": "function"
    },
    {
      "inputs": [],
      "name": "paused",
      "outputs": [
        {
          "internalType": "bool",
          "name": "",
          "type": "bool"
        }
      ],
      "stateMutability": "view",
      "type": "function"
    },
    {
      "inputs": [],
      "name": "pauser",
      "outputs": [
        {
          "internalType": "address",
          "name": "",
          "type": "address"
        }
      ],
      "stateMutability": "view",
      "type": "function"
    },
    {
      "inputs": [],
      "name": "renounceOwnership",
      "outputs": [],
      "stateMutability": "nonpayable",
      "type": "function"
    },
    {
      "inputs": [],
      "name": "token",
      "outputs": [
        {
          "internalType": "contract ERC20",
          "name": "",
          "type": "address"
        }
      ],
      "stateMutability": "view",
      "type": "function"
    },
    {
      "inputs": [
        {
          "internalType": "address",
          "name": "_token",
          "type": "address"
        },
        {
          "internalType": "address",
          "name": "recipient",
          "type": "address"
        },
        {
          "internalType": "uint256",
          "name": "amount",
          "type": "uint256"
        }
      ],
      "name": "transfer",
      "outputs": [],
      "stateMutability": "nonpayable",
      "type": "function"
    },
    {
      "inputs": [
        {
          "internalType": "address",
          "name": "newOwner",
          "type": "address"
        }
      ],
      "name": "transferOwnership",
      "outputs": [],
      "stateMutability": "nonpayable",
      "type": "function"
    },
    {
      "inputs": [],
      "name": "uniswapRouter",
      "outputs": [
        {
          "internalType": "contract IUniswapV2Router02",
          "name": "",
          "type": "address"
        }
      ],
      "stateMutability": "view",
      "type": "function"
    },
    {
      "inputs": [],
      "name": "unpause",
      "outputs": [],
      "stateMutability": "nonpayable",
      "type": "function"
    }
  ],
  "transactionHash": "0xed47e5529533bb2a84194d497a21144a213e5b192c2fb77bca2c36564a035030",
  "args": [
    "0xa0b86991c6218b36c1d19d4a2e9eb0ce3606eb48",
    "0x679962cb53Af1418f14991eFc3C482bF6F241d5e",
    "0x7a250d5630B4cF539739dF2C5dAcb4c659F2488D",
    "0x6Eff5218f3EBB8A813539DBA87bD5c7D4d2B3dcc"
  ],
  "solcInputHash": "0a5f9c9106543e9b0d653cd62551c57e",
  "bytecode": "0x60a06040523480156200001157600080fd5b506040516200301138038062003011833981810160405260808110156200003757600080fd5b81019080805190602001909291908051906020019092919080519060200190929190805190602001909291905050506000620000786200028460201b60201c565b9050806000806101000a81548173ffffffffffffffffffffffffffffffffffffffff021916908373ffffffffffffffffffffffffffffffffffffffff1602179055508073ffffffffffffffffffffffffffffffffffffffff16600073ffffffffffffffffffffffffffffffffffffffff167f8be0079c531659141344cd1fd0a4f28419497f9722a3daafe3b4186f6b6457e060405160405180910390a35060008060146101000a81548160ff021916908315150217905550620001406200028c60201b60201c565b600160006101000a81548173ffffffffffffffffffffffffffffffffffffffff021916908373ffffffffffffffffffffffffffffffffffffffff1602179055508373ffffffffffffffffffffffffffffffffffffffff1660808173ffffffffffffffffffffffffffffffffffffffff1660601b8152505082600260006101000a81548173ffffffffffffffffffffffffffffffffffffffff021916908373ffffffffffffffffffffffffffffffffffffffff16021790555081600360006101000a81548173ffffffffffffffffffffffffffffffffffffffff021916908373ffffffffffffffffffffffffffffffffffffffff16021790555080600460006101000a81548173ffffffffffffffffffffffffffffffffffffffff021916908373ffffffffffffffffffffffffffffffffffffffff16021790555050505050620002b5565b600033905090565b60008060009054906101000a900473ffffffffffffffffffffffffffffffffffffffff16905090565b60805160601c612d16620002fb60003980610c155280610fd3528061109d528061173e528061185352806119445280611a805280611b77528061230a5250612d166000f3fe608060405234801561001057600080fd5b50600436106101215760003560e01c80638456cb59116100ad578063c337083711610071578063c3370837146103aa578063d96a094a146103ee578063f2fde38b1461041c578063fc0c546a14610460578063fc9c8d391461049457610121565b80638456cb59146102ac5780638da5cb5b146102b65780639fd0506d146102ea578063b69ef8a81461031e578063beabacc81461033c57610121565b80633f4ba83a116100f45780633f4ba83a146102005780635c975abb1461020a578063715018a61461022a578063735de9f7146102345780637e8931591461026857610121565b80631d143848146101265780632921d8d41461015a5780632cd271e71461019e578063313ce567146101e2575b600080fd5b61012e6104c8565b604051808273ffffffffffffffffffffffffffffffffffffffff16815260200191505060405180910390f35b61019c6004803603602081101561017057600080fd5b81019080803573ffffffffffffffffffffffffffffffffffffffff1690602001909291905050506104ee565b005b6101e0600480360360208110156101b457600080fd5b81019080803573ffffffffffffffffffffffffffffffffffffffff169060200190929190505050610647565b005b6101ea6107c2565b6040518082815260200191505060405180910390f35b6102086107c7565b005b6102126108c2565b60405180821515815260200191505060405180910390f35b6102326108d8565b005b61023c610a5e565b604051808273ffffffffffffffffffffffffffffffffffffffff16815260200191505060405180910390f35b6102aa6004803603602081101561027e57600080fd5b81019080803573ffffffffffffffffffffffffffffffffffffffff169060200190929190505050610a84565b005b6102b4610e84565b005b6102be610f7f565b604051808273ffffffffffffffffffffffffffffffffffffffff16815260200191505060405180910390f35b6102f2610fa8565b604051808273ffffffffffffffffffffffffffffffffffffffff16815260200191505060405180910390f35b610326610fce565b6040518082815260200191505060405180910390f35b6103a86004803603606081101561035257600080fd5b81019080803573ffffffffffffffffffffffffffffffffffffffff169060200190929190803573ffffffffffffffffffffffffffffffffffffffff16906020019092919080359060200190929190505050611167565b005b6103ec600480360360208110156103c057600080fd5b81019080803573ffffffffffffffffffffffffffffffffffffffff16906020019092919050505061125f565b005b61041a6004803603602081101561040457600080fd5b810190808035906020019092919050505061143e565b005b61045e6004803603602081101561043257600080fd5b81019080803573ffffffffffffffffffffffffffffffffffffffff1690602001909291905050506120fd565b005b610468612308565b604051808273ffffffffffffffffffffffffffffffffffffffff16815260200191505060405180910390f35b61049c61232c565b604051808273ffffffffffffffffffffffffffffffffffffffff16815260200191505060405180910390f35b600260009054906101000a900473ffffffffffffffffffffffffffffffffffffffff1681565b6104f6612352565b73ffffffffffffffffffffffffffffffffffffffff1660008054906101000a900473ffffffffffffffffffffffffffffffffffffffff1673ffffffffffffffffffffffffffffffffffffffff16146105b6576040517f08c379a00000000000000000000000000000000000000000000000000000000081526004018080602001828103825260208152602001807f4f776e61626c653a2063616c6c6572206973206e6f7420746865206f776e657281525060200191505060405180910390fd5b80600460006101000a81548173ffffffffffffffffffffffffffffffffffffffff021916908373ffffffffffffffffffffffffffffffffffffffff1602179055507f253229f04b74cc2f5a234fa09c6e0147a424d1798c5753516b98d7a48e1b0b3f81604051808273ffffffffffffffffffffffffffffffffffffffff16815260200191505060405180910390a150565b61064f612352565b73ffffffffffffffffffffffffffffffffffffffff1660008054906101000a900473ffffffffffffffffffffffffffffffffffffffff1673ffffffffffffffffffffffffffffffffffffffff161461070f576040517f08c379a00000000000000000000000000000000000000000000000000000000081526004018080602001828103825260208152602001807f4f776e61626c653a2063616c6c6572206973206e6f7420746865206f776e657281525060200191505060405180910390fd5b80600160006101000a81548173ffffffffffffffffffffffffffffffffffffffff021916908373ffffffffffffffffffffffffffffffffffffffff1602179055507fb80482a293ca2e013eda8683c9bd7fc8347cfdaeea5ede58cba46df502c2a604600160009054906101000a900473ffffffffffffffffffffffffffffffffffffffff16604051808273ffffffffffffffffffffffffffffffffffffffff16815260200191505060405180910390a150565b601281565b6107cf612352565b73ffffffffffffffffffffffffffffffffffffffff16600160009054906101000a900473ffffffffffffffffffffffffffffffffffffffff1673ffffffffffffffffffffffffffffffffffffffff161480610863575061082d612352565b73ffffffffffffffffffffffffffffffffffffffff1661084b610f7f565b73ffffffffffffffffffffffffffffffffffffffff16145b6108b8576040517f08c379a0000000000000000000000000000000000000000000000000000000008152600401808060200182810382526045815260200180612b536045913960600191505060405180910390fd5b6108c061235a565b565b60008060149054906101000a900460ff16905090565b6108e0612352565b73ffffffffffffffffffffffffffffffffffffffff1660008054906101000a900473ffffffffffffffffffffffffffffffffffffffff1673ffffffffffffffffffffffffffffffffffffffff16146109a0576040517f08c379a00000000000000000000000000000000000000000000000000000000081526004018080602001828103825260208152602001807f4f776e61626c653a2063616c6c6572206973206e6f7420746865206f776e657281525060200191505060405180910390fd5b600073ffffffffffffffffffffffffffffffffffffffff1660008054906101000a900473ffffffffffffffffffffffffffffffffffffffff1673ffffffffffffffffffffffffffffffffffffffff167f8be0079c531659141344cd1fd0a4f28419497f9722a3daafe3b4186f6b6457e060405160405180910390a360008060006101000a81548173ffffffffffffffffffffffffffffffffffffffff021916908373ffffffffffffffffffffffffffffffffffffffff160217905550565b600360009054906101000a900473ffffffffffffffffffffffffffffffffffffffff1681565b610a8c612352565b73ffffffffffffffffffffffffffffffffffffffff1660008054906101000a900473ffffffffffffffffffffffffffffffffffffffff1673ffffffffffffffffffffffffffffffffffffffff1614610b4c576040517f08c379a00000000000000000000000000000000000000000000000000000000081526004018080602001828103825260208152602001807f4f776e61626c653a2063616c6c6572206973206e6f7420746865206f776e657281525060200191505060405180910390fd5b600073ffffffffffffffffffffffffffffffffffffffff168173ffffffffffffffffffffffffffffffffffffffff161415610bd2576040517f08c379a0000000000000000000000000000000000000000000000000000000008152600401808060200182810382526040815260200180612b136040913960400191505060405180910390fd5b80600260006101000a81548173ffffffffffffffffffffffffffffffffffffffff021916908373ffffffffffffffffffffffffffffffffffffffff1602179055507f000000000000000000000000000000000000000000000000000000000000000073ffffffffffffffffffffffffffffffffffffffff1663313ce5676040518163ffffffff1660e01b815260040160206040518083038186803b158015610c7957600080fd5b505afa158015610c8d573d6000803e3d6000fd5b505050506040513d6020811015610ca357600080fd5b810190808051906020019092919050505060ff16600260009054906101000a900473ffffffffffffffffffffffffffffffffffffffff1673ffffffffffffffffffffffffffffffffffffffff1663a9d75b2b6040518163ffffffff1660e01b815260040160206040518083038186803b158015610d1f57600080fd5b505afa158015610d33573d6000803e3d6000fd5b505050506040513d6020811015610d4957600080fd5b810190808051906020019092919050505073ffffffffffffffffffffffffffffffffffffffff1663313ce5676040518163ffffffff1660e01b815260040160206040518083038186803b158015610d9f57600080fd5b505afa158015610db3573d6000803e3d6000fd5b505050506040513d6020811015610dc957600080fd5b810190808051906020019092919050505060ff161015610e34576040517f08c379a000000000000000000000000000000000000000000000000000000000815260040180806020018281038252604e815260200180612bce604e913960600191505060405180910390fd5b7fcad349a575b7a312fc947b899cb436e2fde2cde8be518bf412258b1d7836a54e81604051808273ffffffffffffffffffffffffffffffffffffffff16815260200191505060405180910390a150565b610e8c612352565b73ffffffffffffffffffffffffffffffffffffffff16600160009054906101000a900473ffffffffffffffffffffffffffffffffffffffff1673ffffffffffffffffffffffffffffffffffffffff161480610f205750610eea612352565b73ffffffffffffffffffffffffffffffffffffffff16610f08610f7f565b73ffffffffffffffffffffffffffffffffffffffff16145b610f75576040517f08c379a0000000000000000000000000000000000000000000000000000000008152600401808060200182810382526041815260200180612ad26041913960600191505060405180910390fd5b610f7d61244c565b565b60008060009054906101000a900473ffffffffffffffffffffffffffffffffffffffff16905090565b600160009054906101000a900473ffffffffffffffffffffffffffffffffffffffff1681565b6000807f000000000000000000000000000000000000000000000000000000000000000073ffffffffffffffffffffffffffffffffffffffff166370a08231306040518263ffffffff1660e01b8152600401808273ffffffffffffffffffffffffffffffffffffffff16815260200191505060206040518083038186803b15801561105857600080fd5b505afa15801561106c573d6000803e3d6000fd5b505050506040513d602081101561108257600080fd5b8101908080519060200190929190505050905061116161114f7f000000000000000000000000000000000000000000000000000000000000000073ffffffffffffffffffffffffffffffffffffffff1663313ce5676040518163ffffffff1660e01b815260040160206040518083038186803b15801561110157600080fd5b505afa158015611115573d6000803e3d6000fd5b505050506040513d602081101561112b57600080fd5b810190808051906020019092919050505060ff16601261254090919063ffffffff16565b600a0a8261258a90919063ffffffff16565b91505090565b61116f612352565b73ffffffffffffffffffffffffffffffffffffffff1660008054906101000a900473ffffffffffffffffffffffffffffffffffffffff1673ffffffffffffffffffffffffffffffffffffffff161461122f576040517f08c379a00000000000000000000000000000000000000000000000000000000081526004018080602001828103825260208152602001807f4f776e61626c653a2063616c6c6572206973206e6f7420746865206f776e657281525060200191505060405180910390fd5b61125a82828573ffffffffffffffffffffffffffffffffffffffff166126109092919063ffffffff16565b505050565b611267612352565b73ffffffffffffffffffffffffffffffffffffffff1660008054906101000a900473ffffffffffffffffffffffffffffffffffffffff1673ffffffffffffffffffffffffffffffffffffffff1614611327576040517f08c379a00000000000000000000000000000000000000000000000000000000081526004018080602001828103825260208152602001807f4f776e61626c653a2063616c6c6572206973206e6f7420746865206f776e657281525060200191505060405180910390fd5b600073ffffffffffffffffffffffffffffffffffffffff168173ffffffffffffffffffffffffffffffffffffffff1614156113ad576040517f08c379a0000000000000000000000000000000000000000000000000000000008152600401808060200182810382526047815260200180612c9a6047913960600191505060405180910390fd5b80600360006101000a81548173ffffffffffffffffffffffffffffffffffffffff021916908373ffffffffffffffffffffffffffffffffffffffff1602179055507f0a3776494a324cdd72863deb1475d9eb705db96d66e7e199f3ebe4948343a43881604051808273ffffffffffffffffffffffffffffffffffffffff16815260200191505060405180910390a150565b600060149054906101000a900460ff16156114c1576040517f08c379a00000000000000000000000000000000000000000000000000000000081526004018080602001828103825260108152602001807f5061757361626c653a207061757365640000000000000000000000000000000081525060200191505060405180910390fd5b6114c9610f7f565b73ffffffffffffffffffffffffffffffffffffffff166114e7612352565b73ffffffffffffffffffffffffffffffffffffffff16148061155d5750600460009054906101000a900473ffffffffffffffffffffffffffffffffffffffff1673ffffffffffffffffffffffffffffffffffffffff16611545612352565b73ffffffffffffffffffffffffffffffffffffffff16145b6115b2576040517f08c379a0000000000000000000000000000000000000000000000000000000008152600401808060200182810382526036815260200180612b986036913960400191505060405180910390fd5b6000811161160b576040517f08c379a0000000000000000000000000000000000000000000000000000000008152600401808060200182810382526033815260200180612c1c6033913960400191505060405180910390fd5b6000600260009054906101000a900473ffffffffffffffffffffffffffffffffffffffff1673ffffffffffffffffffffffffffffffffffffffff1663a9d75b2b6040518163ffffffff1660e01b815260040160206040518083038186803b15801561167557600080fd5b505afa158015611689573d6000803e3d6000fd5b505050506040513d602081101561169f57600080fd5b8101908080519060200190929190505050905060008173ffffffffffffffffffffffffffffffffffffffff1663313ce5676040518163ffffffff1660e01b815260040160206040518083038186803b1580156116fa57600080fd5b505afa15801561170e573d6000803e3d6000fd5b505050506040513d602081101561172457600080fd5b810190808051906020019092919050505060ff16905060007f000000000000000000000000000000000000000000000000000000000000000073ffffffffffffffffffffffffffffffffffffffff1663dd62ed3e30600360009054906101000a900473ffffffffffffffffffffffffffffffffffffffff166040518363ffffffff1660e01b8152600401808373ffffffffffffffffffffffffffffffffffffffff1681526020018273ffffffffffffffffffffffffffffffffffffffff1681526020019250505060206040518083038186803b15801561180357600080fd5b505afa158015611817573d6000803e3d6000fd5b505050506040513d602081101561182d57600080fd5b8101908080519060200190929190505050905083811015611a32576000811115611942577f000000000000000000000000000000000000000000000000000000000000000073ffffffffffffffffffffffffffffffffffffffff1663095ea7b3600360009054906101000a900473ffffffffffffffffffffffffffffffffffffffff1660006040518363ffffffff1660e01b8152600401808373ffffffffffffffffffffffffffffffffffffffff16815260200182815260200192505050602060405180830381600087803b15801561190557600080fd5b505af1158015611919573d6000803e3d6000fd5b505050506040513d602081101561192f57600080fd5b8101908080519060200190929190505050505b7f000000000000000000000000000000000000000000000000000000000000000073ffffffffffffffffffffffffffffffffffffffff1663095ea7b3600360009054906101000a900473ffffffffffffffffffffffffffffffffffffffff16866040518363ffffffff1660e01b8152600401808373ffffffffffffffffffffffffffffffffffffffff16815260200182815260200192505050602060405180830381600087803b1580156119f557600080fd5b505af1158015611a09573d6000803e3d6000fd5b505050506040513d6020811015611a1f57600080fd5b8101908080519060200190929190505050505b6060600267ffffffffffffffff81118015611a4c57600080fd5b50604051908082528060200260200182016040528015611a7b5781602001602082028036833780820191505090505b5090507f000000000000000000000000000000000000000000000000000000000000000081600081518110611aac57fe5b602002602001019073ffffffffffffffffffffffffffffffffffffffff16908173ffffffffffffffffffffffffffffffffffffffff16815250508381600181518110611af457fe5b602002602001019073ffffffffffffffffffffffffffffffffffffffff16908173ffffffffffffffffffffffffffffffffffffffff16815250506060600360009054906101000a900473ffffffffffffffffffffffffffffffffffffffff1673ffffffffffffffffffffffffffffffffffffffff166338ed173987611c3a611c287f000000000000000000000000000000000000000000000000000000000000000073ffffffffffffffffffffffffffffffffffffffff1663313ce5676040518163ffffffff1660e01b815260040160206040518083038186803b158015611bdb57600080fd5b505afa158015611bef573d6000803e3d6000fd5b505050506040513d6020811015611c0557600080fd5b810190808051906020019092919050505060ff168961254090919063ffffffff16565b600a0a8a61258a90919063ffffffff16565b853061025842016040518663ffffffff1660e01b815260040180868152602001858152602001806020018473ffffffffffffffffffffffffffffffffffffffff168152602001838152602001828103825285818151815260200191508051906020019060200280838360005b83811015611cc1578082015181840152602081019050611ca6565b505050509050019650505050505050600060405180830381600087803b158015611cea57600080fd5b505af1158015611cfe573d6000803e3d6000fd5b505050506040513d6000823e3d601f19601f820116820180604052506020811015611d2857600080fd5b8101908080516040519392919084640100000000821115611d4857600080fd5b83820191506020820185811115611d5e57600080fd5b8251866020820283011164010000000082111715611d7b57600080fd5b8083526020830192505050908051906020019060200280838360005b83811015611db2578082015181840152602081019050611d97565b50505050905001604052505050905060008573ffffffffffffffffffffffffffffffffffffffff166318160ddd6040518163ffffffff1660e01b815260040160206040518083038186803b158015611e0957600080fd5b505afa158015611e1d573d6000803e3d6000fd5b505050506040513d6020811015611e3357600080fd5b810190808051906020019092919050505090506000600260009054906101000a900473ffffffffffffffffffffffffffffffffffffffff1673ffffffffffffffffffffffffffffffffffffffff1663b69ef8a86040518163ffffffff1660e01b815260040160206040518083038186803b158015611eb057600080fd5b505afa158015611ec4573d6000803e3d6000fd5b505050506040513d6020811015611eda57600080fd5b81019080805190602001909291905050509050808211156120a0576000611f0a828461254090919063ffffffff16565b90506000611fc28973ffffffffffffffffffffffffffffffffffffffff166370a08231306040518263ffffffff1660e01b8152600401808273ffffffffffffffffffffffffffffffffffffffff16815260200191505060206040518083038186803b158015611f7857600080fd5b505afa158015611f8c573d6000803e3d6000fd5b505050506040513d6020811015611fa257600080fd5b8101908080519060200190929190505050836126b290919063ffffffff16565b9050600081111561209d5761201a600260009054906101000a900473ffffffffffffffffffffffffffffffffffffffff16828b73ffffffffffffffffffffffffffffffffffffffff166126109092919063ffffffff16565b600260009054906101000a900473ffffffffffffffffffffffffffffffffffffffff1673ffffffffffffffffffffffffffffffffffffffff16637d7c2a1c6040518163ffffffff1660e01b8152600401600060405180830381600087803b15801561208457600080fd5b505af1158015612098573d6000803e3d6000fd5b505050505b50505b7f4e57162cf2059954fd33f1ecaaf1832e379957714070ad171bc5382b18c98d3c88846001815181106120cf57fe5b6020026020010151604051808381526020018281526020019250505060405180910390a15050505050505050565b612105612352565b73ffffffffffffffffffffffffffffffffffffffff1660008054906101000a900473ffffffffffffffffffffffffffffffffffffffff1673ffffffffffffffffffffffffffffffffffffffff16146121c5576040517f08c379a00000000000000000000000000000000000000000000000000000000081526004018080602001828103825260208152602001807f4f776e61626c653a2063616c6c6572206973206e6f7420746865206f776e657281525060200191505060405180910390fd5b600073ffffffffffffffffffffffffffffffffffffffff168173ffffffffffffffffffffffffffffffffffffffff16141561224b576040517f08c379a0000000000000000000000000000000000000000000000000000000008152600401808060200182810382526026815260200180612aac6026913960400191505060405180910390fd5b8073ffffffffffffffffffffffffffffffffffffffff1660008054906101000a900473ffffffffffffffffffffffffffffffffffffffff1673ffffffffffffffffffffffffffffffffffffffff167f8be0079c531659141344cd1fd0a4f28419497f9722a3daafe3b4186f6b6457e060405160405180910390a3806000806101000a81548173ffffffffffffffffffffffffffffffffffffffff021916908373ffffffffffffffffffffffffffffffffffffffff16021790555050565b7f000000000000000000000000000000000000000000000000000000000000000081565b600460009054906101000a900473ffffffffffffffffffffffffffffffffffffffff1681565b600033905090565b600060149054906101000a900460ff166123dc576040517f08c379a00000000000000000000000000000000000000000000000000000000081526004018080602001828103825260148152602001807f5061757361626c653a206e6f742070617573656400000000000000000000000081525060200191505060405180910390fd5b60008060146101000a81548160ff0219169083151502179055507f5db9ee0a495bf2e6ff9c91a7834c1ba4fdd244a5e8aa4e537bd38aeae4b073aa61241f612352565b604051808273ffffffffffffffffffffffffffffffffffffffff16815260200191505060405180910390a1565b600060149054906101000a900460ff16156124cf576040517f08c379a00000000000000000000000000000000000000000000000000000000081526004018080602001828103825260108152602001807f5061757361626c653a207061757365640000000000000000000000000000000081525060200191505060405180910390fd5b6001600060146101000a81548160ff0219169083151502179055507f62e78cea01bee320cd4e420270b5ea74000d11b0c9f74754ebdbfc544b05a258612513612352565b604051808273ffffffffffffffffffffffffffffffffffffffff16815260200191505060405180910390a1565b600061258283836040518060400160405280601e81526020017f536166654d6174683a207375627472616374696f6e206f766572666c6f7700008152506126cb565b905092915050565b60008083141561259d576000905061260a565b60008284029050828482816125ae57fe5b0414612605576040517f08c379a0000000000000000000000000000000000000000000000000000000008152600401808060200182810382526021815260200180612c4f6021913960400191505060405180910390fd5b809150505b92915050565b6126ad8363a9059cbb60e01b8484604051602401808373ffffffffffffffffffffffffffffffffffffffff16815260200182815260200192505050604051602081830303815290604052907bffffffffffffffffffffffffffffffffffffffffffffffffffffffff19166020820180517bffffffffffffffffffffffffffffffffffffffffffffffffffffffff838183161783525050505061278b565b505050565b60008183106126c157816126c3565b825b905092915050565b6000838311158290612778576040517f08c379a00000000000000000000000000000000000000000000000000000000081526004018080602001828103825283818151815260200191508051906020019080838360005b8381101561273d578082015181840152602081019050612722565b50505050905090810190601f16801561276a5780820380516001836020036101000a031916815260200191505b509250505060405180910390fd5b5060008385039050809150509392505050565b60606127ed826040518060400160405280602081526020017f5361666545524332303a206c6f772d6c6576656c2063616c6c206661696c65648152508573ffffffffffffffffffffffffffffffffffffffff1661287a9092919063ffffffff16565b90506000815111156128755780806020019051602081101561280e57600080fd5b8101908080519060200190929190505050612874576040517f08c379a000000000000000000000000000000000000000000000000000000000815260040180806020018281038252602a815260200180612c70602a913960400191505060405180910390fd5b5b505050565b60606128898484600085612892565b90509392505050565b606061289d85612a98565b61290f576040517f08c379a000000000000000000000000000000000000000000000000000000000815260040180806020018281038252601d8152602001807f416464726573733a2063616c6c20746f206e6f6e2d636f6e747261637400000081525060200191505060405180910390fd5b600060608673ffffffffffffffffffffffffffffffffffffffff1685876040518082805190602001908083835b6020831061295f578051825260208201915060208101905060208303925061293c565b6001836020036101000a03801982511681845116808217855250505050505090500191505060006040518083038185875af1925050503d80600081146129c1576040519150601f19603f3d011682016040523d82523d6000602084013e6129c6565b606091505b509150915081156129db578092505050612a90565b6000815111156129ee5780518082602001fd5b836040517f08c379a00000000000000000000000000000000000000000000000000000000081526004018080602001828103825283818151815260200191508051906020019080838360005b83811015612a55578082015181840152602081019050612a3a565b50505050905090810190601f168015612a825780820380516001836020036101000a031916815260200191505b509250505060405180910390fd5b949350505050565b600080823b90506000811191505091905056fe4f776e61626c653a206e6577206f776e657220697320746865207a65726f20616464726573734f776e61626c655061757361626c653a3a70617573653a206f6e6c792070617573657220616e64206f776e6572206d75737420706175736520636f6e7472616374556e6956324275796261636b4465706f73697461727942616c616e6365566965773a3a6368616e67654973737565723a20696e76616c696420616464726573734f776e61626c655061757361626c653a3a756e70617573653a206f6e6c792070617573657220616e64206f776e6572206d75737420756e706175736520636f6e7472616374556e6956324275796261636b4465706f73697461727942616c616e6365566965773a3a6275793a20696e76616c69642063616c6c6572556e6956324275796261636b4465706f73697461727942616c616e6365566965773a3a6368616e67654973737565723a20696e76616c696420737461626c6520746f6b656e20646563696d616c73556e6956324275796261636b4465706f73697461727942616c616e6365566965773a3a6275793a207a65726f20616d6f756e74536166654d6174683a206d756c7469706c69636174696f6e206f766572666c6f775361666545524332303a204552433230206f7065726174696f6e20646964206e6f742073756363656564556e6956324275796261636b4465706f73697461727942616c616e6365566965773a3a6368616e6765556e6973776170526f757465723a20696e76616c69642061646472657373a2646970667358221220b44d9f0f3f95206e45ee30718b4fb6ee7d8bba770e6b453a272e1531e9f0b75664736f6c634300060c0033",
  "devdoc": {
    "kind": "dev",
    "methods": {
      "balance()": {
        "returns": {
          "_0": "Balance of depositary."
        }
      },
      "buy(uint256)": {
        "params": {
          "amount": "Amount of buyback token."
        }
      },
      "changeCaller(address)": {
        "params": {
          "_caller": "New caller wallet."
        }
      },
      "changeIssuer(address)": {
        "params": {
          "_issuer": "New issuer contract address."
        }
      },
      "changePauser(address)": {
        "params": {
          "newPauser": "Address of new pauser account."
        }
      },
      "changeUniswapRouter(address)": {
        "params": {
          "_uniswapRouter": "New Uniswap router contract address."
        }
      },
      "owner()": {
        "details": "Returns the address of the current owner."
      },
      "paused()": {
        "details": "Returns true if the contract is paused, and false otherwise."
      },
      "renounceOwnership()": {
        "details": "Leaves the contract without owner. It will not be possible to call `onlyOwner` functions anymore. Can only be called by the current owner. NOTE: Renouncing ownership will leave the contract without an owner, thereby removing any functionality that is only available to the owner."
      },
      "transfer(address,address,uint256)": {
        "params": {
          "_token": "Target token.",
          "amount": "Amount of transferred token.",
          "recipient": "Address of recipient."
        }
      },
      "transferOwnership(address)": {
        "details": "Transfers ownership of the contract to a new account (`newOwner`). Can only be called by the current owner."
      }
    },
    "version": 1
  },
  "userdoc": {
    "events": {
      "Buyback(uint256,uint256)": {
        "notice": "An event that is emitted when an contract buyback stable token."
      },
      "CallerChanged(address)": {
        "notice": "An event that is emitted when an caller wallet changed."
      },
      "IssuerChanged(address)": {
        "notice": "An event that is emitted when an issuer contract address changed."
      },
      "PauserChanged(address)": {
        "notice": "An event thats emitted when an pauser address changed."
      },
      "UniswapRouterChanged(address)": {
        "notice": "An event that is emitted when an Uniswap router contract address changed."
      }
    },
    "kind": "user",
    "methods": {
      "balance()": {
        "notice": "Get balance of depositary."
      },
      "buy(uint256)": {
        "notice": "Buyback stable token from Uniswap pool."
      },
      "caller()": {
        "notice": "Buyback caller."
      },
      "changeCaller(address)": {
        "notice": "Change caller wallet."
      },
      "changeIssuer(address)": {
        "notice": "Change issuer contract address."
      },
      "changePauser(address)": {
        "notice": "Change pauser account."
      },
      "changeUniswapRouter(address)": {
        "notice": "Change Uniswap router contract address."
      },
      "decimals()": {
        "notice": "Balance decimals."
      },
      "issuer()": {
        "notice": "Address of issuer contract."
      },
      "pause()": {
        "notice": "Triggers stopped state."
      },
      "pauser()": {
        "notice": "Address that can pause a contract."
      },
      "token()": {
        "notice": "Address of buyback token."
      },
      "transfer(address,address,uint256)": {
        "notice": "Transfer token to recipient."
      },
      "uniswapRouter()": {
        "notice": "Uniswap router contract."
      },
      "unpause()": {
        "notice": "Returns to normal state."
      }
    },
    "version": 1
  },
  "storageLayout": {
    "storage": [
      {
        "astId": 30,
        "contract": "contracts/depositary/UniV2BuybackDepositaryBalanceView.sol:UniV2BuybackDepositaryBalanceView",
        "label": "_owner",
        "offset": 0,
        "slot": "0",
        "type": "t_address"
      },
      {
        "astId": 1985,
        "contract": "contracts/depositary/UniV2BuybackDepositaryBalanceView.sol:UniV2BuybackDepositaryBalanceView",
        "label": "_paused",
        "offset": 20,
        "slot": "0",
        "type": "t_bool"
      },
      {
        "astId": 7463,
        "contract": "contracts/depositary/UniV2BuybackDepositaryBalanceView.sol:UniV2BuybackDepositaryBalanceView",
        "label": "pauser",
        "offset": 0,
        "slot": "1",
        "type": "t_address"
      },
      {
        "astId": 6496,
        "contract": "contracts/depositary/UniV2BuybackDepositaryBalanceView.sol:UniV2BuybackDepositaryBalanceView",
        "label": "issuer",
        "offset": 0,
        "slot": "2",
        "type": "t_contract(Issuer)3568"
      },
      {
        "astId": 6499,
        "contract": "contracts/depositary/UniV2BuybackDepositaryBalanceView.sol:UniV2BuybackDepositaryBalanceView",
        "label": "uniswapRouter",
        "offset": 0,
        "slot": "3",
        "type": "t_contract(IUniswapV2Router02)7308"
      },
      {
        "astId": 6502,
        "contract": "contracts/depositary/UniV2BuybackDepositaryBalanceView.sol:UniV2BuybackDepositaryBalanceView",
        "label": "caller",
        "offset": 0,
        "slot": "4",
        "type": "t_address"
      }
    ],
    "types": {
      "t_address": {
        "encoding": "inplace",
        "label": "address",
        "numberOfBytes": "20"
      },
      "t_bool": {
        "encoding": "inplace",
        "label": "bool",
        "numberOfBytes": "1"
      },
      "t_contract(IUniswapV2Router02)7308": {
        "encoding": "inplace",
        "label": "contract IUniswapV2Router02",
        "numberOfBytes": "20"
      },
      "t_contract(Issuer)3568": {
        "encoding": "inplace",
        "label": "contract Issuer",
        "numberOfBytes": "20"
      }
    }
  }
}