{
  "address": "0xd6CAeAD8d256a720Cd818BFFb02C1A87C6698C56",
  "abi": [
    {
      "inputs": [
        {
          "internalType": "address",
          "name": "_stableToken",
          "type": "address"
        },
        {
          "internalType": "address",
          "name": "_collateral",
          "type": "address"
        },
        {
          "internalType": "uint256",
          "name": "_permissibleImbalance",
          "type": "uint256"
        }
      ],
      "stateMutability": "nonpayable",
      "type": "constructor"
    },
    {
      "anonymous": false,
      "inputs": [
        {
          "indexed": false,
          "internalType": "address",
          "name": "newCollateral",
          "type": "address"
        }
      ],
      "name": "CollateralUpdated",
      "type": "event"
    },
    {
      "anonymous": false,
      "inputs": [
        {
          "indexed": true,
          "internalType": "address",
          "name": "previousOwner",
          "type": "address"
        },
        {
          "indexed": true,
          "internalType": "address",
          "name": "newOwner",
          "type": "address"
        }
      ],
      "name": "OwnershipTransferred",
      "type": "event"
    },
    {
      "anonymous": false,
      "inputs": [
        {
          "indexed": false,
          "internalType": "uint256",
          "name": "newPermissibleImbalance",
          "type": "uint256"
        }
      ],
      "name": "PermissibleImbalanceUpdated",
      "type": "event"
    },
    {
      "anonymous": false,
      "inputs": [
        {
          "indexed": false,
          "internalType": "address",
          "name": "newStableToken",
          "type": "address"
        }
      ],
      "name": "StableTokenUpdated",
      "type": "event"
    },
    {
      "inputs": [],
      "name": "PERMISSIBLE_DECIMALS",
      "outputs": [
        {
          "internalType": "uint256",
          "name": "",
          "type": "uint256"
        }
      ],
      "stateMutability": "view",
      "type": "function"
    },
    {
      "inputs": [
        {
          "internalType": "address",
          "name": "_collateral",
          "type": "address"
        }
      ],
      "name": "changeCollateral",
      "outputs": [],
      "stateMutability": "nonpayable",
      "type": "function"
    },
    {
      "inputs": [
        {
          "internalType": "uint256",
          "name": "_permissibleImbalance",
          "type": "uint256"
        }
      ],
      "name": "changePermissibleImbalance",
      "outputs": [],
      "stateMutability": "nonpayable",
      "type": "function"
    },
    {
      "inputs": [
        {
          "internalType": "address",
          "name": "_stableToken",
          "type": "address"
        }
      ],
      "name": "changeStableToken",
      "outputs": [],
      "stateMutability": "nonpayable",
      "type": "function"
    },
    {
      "inputs": [],
      "name": "collateral",
      "outputs": [
        {
          "internalType": "contract IDepositaryBalanceView",
          "name": "",
          "type": "address"
        }
      ],
      "stateMutability": "view",
      "type": "function"
    },
    {
      "inputs": [],
      "name": "owner",
      "outputs": [
        {
          "internalType": "address",
          "name": "",
          "type": "address"
        }
      ],
      "stateMutability": "view",
      "type": "function"
    },
    {
      "inputs": [],
      "name": "permissibleImbalance",
      "outputs": [
        {
          "internalType": "uint256",
          "name": "",
          "type": "uint256"
        }
      ],
      "stateMutability": "view",
      "type": "function"
    },
    {
      "inputs": [],
      "name": "renounceOwnership",
      "outputs": [],
      "stateMutability": "nonpayable",
      "type": "function"
    },
    {
      "inputs": [],
      "name": "stableToken",
      "outputs": [
        {
          "internalType": "contract ERC20",
          "name": "",
          "type": "address"
        }
      ],
      "stateMutability": "view",
      "type": "function"
    },
    {
      "inputs": [
        {
          "internalType": "address",
          "name": "newOwner",
          "type": "address"
        }
      ],
      "name": "transferOwnership",
      "outputs": [],
      "stateMutability": "nonpayable",
      "type": "function"
    },
    {
      "inputs": [],
      "name": "validate",
      "outputs": [
        {
          "internalType": "bool",
          "name": "",
          "type": "bool"
        }
      ],
      "stateMutability": "view",
      "type": "function"
    }
  ],
  "transactionHash": "0x0077b75053fe2f11e09f81709c2947217fd61468d59502a9343193c42dfb8cfd",
  "args": [
    "0xA22ad01E517E6AA32dEa90ffCcA8703166EC0dfa",
    "0xF0d1913A790efae8b7A6F7325C0c422d70347db4",
    20
  ],
  "solcInputHash": "0cf4cc9fdb3e6a35148e94b9ef4590e5",
  "bytecode": "0x608060405234801561001057600080fd5b5060405161139b38038061139b8339818101604052606081101561003357600080fd5b81019080805190602001909291908051906020019092919080519060200190929190505050600061006861019760201b60201c565b9050806000806101000a81548173ffffffffffffffffffffffffffffffffffffffff021916908373ffffffffffffffffffffffffffffffffffffffff1602179055508073ffffffffffffffffffffffffffffffffffffffff16600073ffffffffffffffffffffffffffffffffffffffff167f8be0079c531659141344cd1fd0a4f28419497f9722a3daafe3b4186f6b6457e060405160405180910390a35082600160006101000a81548173ffffffffffffffffffffffffffffffffffffffff021916908373ffffffffffffffffffffffffffffffffffffffff16021790555081600260006101000a81548173ffffffffffffffffffffffffffffffffffffffff021916908373ffffffffffffffffffffffffffffffffffffffff1602179055508060038190555050505061019f565b600033905090565b6111ed806101ae6000396000f3fe608060405234801561001057600080fd5b50600436106100a95760003560e01c80638da5cb5b116100715780638da5cb5b1461017e578063a58a26b8146101b2578063a9d75b2b146101e0578063bcf87b1f14610214578063d8dfeb4514610232578063f2fde38b14610266576100a9565b80634c3ec167146100ae5780635b9e3e09146100f257806362a658e2146101365780636901f66814610154578063715018a614610174575b600080fd5b6100f0600480360360208110156100c457600080fd5b81019080803573ffffffffffffffffffffffffffffffffffffffff1690602001909291905050506102aa565b005b6101346004803603602081101561010857600080fd5b81019080803573ffffffffffffffffffffffffffffffffffffffff169060200190929190505050610489565b005b61013e610668565b6040518082815260200191505060405180910390f35b61015c61066e565b60405180821515815260200191505060405180910390f35b61017c6109a3565b005b610186610b29565b604051808273ffffffffffffffffffffffffffffffffffffffff16815260200191505060405180910390f35b6101de600480360360208110156101c857600080fd5b8101908080359060200190929190505050610b52565b005b6101e8610c5b565b604051808273ffffffffffffffffffffffffffffffffffffffff16815260200191505060405180910390f35b61021c610c81565b6040518082815260200191505060405180910390f35b61023a610c86565b604051808273ffffffffffffffffffffffffffffffffffffffff16815260200191505060405180910390f35b6102a86004803603602081101561027c57600080fd5b81019080803573ffffffffffffffffffffffffffffffffffffffff169060200190929190505050610cac565b005b6102b2610eb7565b73ffffffffffffffffffffffffffffffffffffffff1660008054906101000a900473ffffffffffffffffffffffffffffffffffffffff1673ffffffffffffffffffffffffffffffffffffffff1614610372576040517f08c379a00000000000000000000000000000000000000000000000000000000081526004018080602001828103825260208152602001807f4f776e61626c653a2063616c6c6572206973206e6f7420746865206f776e657281525060200191505060405180910390fd5b600073ffffffffffffffffffffffffffffffffffffffff168173ffffffffffffffffffffffffffffffffffffffff1614156103f8576040517f08c379a00000000000000000000000000000000000000000000000000000000081526004018080602001828103825260488152602001806111706048913960600191505060405180910390fd5b80600260006101000a81548173ffffffffffffffffffffffffffffffffffffffff021916908373ffffffffffffffffffffffffffffffffffffffff1602179055507fa0fe5cb0e8843811ca9f6123983dcdfd45a33b61892b9b8f380ed444078e299a81604051808273ffffffffffffffffffffffffffffffffffffffff16815260200191505060405180910390a150565b610491610eb7565b73ffffffffffffffffffffffffffffffffffffffff1660008054906101000a900473ffffffffffffffffffffffffffffffffffffffff1673ffffffffffffffffffffffffffffffffffffffff1614610551576040517f08c379a00000000000000000000000000000000000000000000000000000000081526004018080602001828103825260208152602001807f4f776e61626c653a2063616c6c6572206973206e6f7420746865206f776e657281525060200191505060405180910390fd5b600073ffffffffffffffffffffffffffffffffffffffff168173ffffffffffffffffffffffffffffffffffffffff1614156105d7576040517f08c379a000000000000000000000000000000000000000000000000000000000815260040180806020018281038252604b815260200180611125604b913960600191505060405180910390fd5b80600160006101000a81548173ffffffffffffffffffffffffffffffffffffffff021916908373ffffffffffffffffffffffffffffffffffffffff1602179055507f28ed93355b7564d68a9fe18932a519e70a2f4baeac4f4e5a4cedc861a815af3581604051808273ffffffffffffffffffffffffffffffffffffffff16815260200191505060405180910390a150565b60035481565b600080600160009054906101000a900473ffffffffffffffffffffffffffffffffffffffff1673ffffffffffffffffffffffffffffffffffffffff166318160ddd6040518163ffffffff1660e01b815260040160206040518083038186803b1580156106d957600080fd5b505afa1580156106ed573d6000803e3d6000fd5b505050506040513d602081101561070357600080fd5b810190808051906020019092919050505090506000600160009054906101000a900473ffffffffffffffffffffffffffffffffffffffff1673ffffffffffffffffffffffffffffffffffffffff1663313ce5676040518163ffffffff1660e01b815260040160206040518083038186803b15801561078057600080fd5b505afa158015610794573d6000803e3d6000fd5b505050506040513d60208110156107aa57600080fd5b810190808051906020019092919050505060ff1690506000600260009054906101000a900473ffffffffffffffffffffffffffffffffffffffff1673ffffffffffffffffffffffffffffffffffffffff1663b69ef8a86040518163ffffffff1660e01b815260040160206040518083038186803b15801561082a57600080fd5b505afa15801561083e573d6000803e3d6000fd5b505050506040513d602081101561085457600080fd5b810190808051906020019092919050505090506000600260009054906101000a900473ffffffffffffffffffffffffffffffffffffffff1673ffffffffffffffffffffffffffffffffffffffff1663313ce5676040518163ffffffff1660e01b815260040160206040518083038186803b1580156108d157600080fd5b505afa1580156108e5573d6000803e3d6000fd5b505050506040513d60208110156108fb57600080fd5b81019080805190602001909291905050509050808311156109355761092e818403600a0a83610ebf90919063ffffffff16565b9150610959565b8281111561095857610955838203600a0a85610ebf90919063ffffffff16565b93505b5b606461099860035461098a8761097c6002600a0a88610ebf90919063ffffffff16565b610f4590919063ffffffff16565b610f8f90919063ffffffff16565b101594505050505090565b6109ab610eb7565b73ffffffffffffffffffffffffffffffffffffffff1660008054906101000a900473ffffffffffffffffffffffffffffffffffffffff1673ffffffffffffffffffffffffffffffffffffffff1614610a6b576040517f08c379a00000000000000000000000000000000000000000000000000000000081526004018080602001828103825260208152602001807f4f776e61626c653a2063616c6c6572206973206e6f7420746865206f776e657281525060200191505060405180910390fd5b600073ffffffffffffffffffffffffffffffffffffffff1660008054906101000a900473ffffffffffffffffffffffffffffffffffffffff1673ffffffffffffffffffffffffffffffffffffffff167f8be0079c531659141344cd1fd0a4f28419497f9722a3daafe3b4186f6b6457e060405160405180910390a360008060006101000a81548173ffffffffffffffffffffffffffffffffffffffff021916908373ffffffffffffffffffffffffffffffffffffffff160217905550565b60008060009054906101000a900473ffffffffffffffffffffffffffffffffffffffff16905090565b610b5a610eb7565b73ffffffffffffffffffffffffffffffffffffffff1660008054906101000a900473ffffffffffffffffffffffffffffffffffffffff1673ffffffffffffffffffffffffffffffffffffffff1614610c1a576040517f08c379a00000000000000000000000000000000000000000000000000000000081526004018080602001828103825260208152602001807f4f776e61626c653a2063616c6c6572206973206e6f7420746865206f776e657281525060200191505060405180910390fd5b806003819055507f8548f27b2cee98b5285b8fc73ccccc0ac8097cb9bd0d6f9e7f0b032f9bcc6702816040518082815260200191505060405180910390a150565b600160009054906101000a900473ffffffffffffffffffffffffffffffffffffffff1681565b600281565b600260009054906101000a900473ffffffffffffffffffffffffffffffffffffffff1681565b610cb4610eb7565b73ffffffffffffffffffffffffffffffffffffffff1660008054906101000a900473ffffffffffffffffffffffffffffffffffffffff1673ffffffffffffffffffffffffffffffffffffffff1614610d74576040517f08c379a00000000000000000000000000000000000000000000000000000000081526004018080602001828103825260208152602001807f4f776e61626c653a2063616c6c6572206973206e6f7420746865206f776e657281525060200191505060405180910390fd5b600073ffffffffffffffffffffffffffffffffffffffff168173ffffffffffffffffffffffffffffffffffffffff161415610dfa576040517f08c379a00000000000000000000000000000000000000000000000000000000081526004018080602001828103825260268152602001806110de6026913960400191505060405180910390fd5b8073ffffffffffffffffffffffffffffffffffffffff1660008054906101000a900473ffffffffffffffffffffffffffffffffffffffff1673ffffffffffffffffffffffffffffffffffffffff167f8be0079c531659141344cd1fd0a4f28419497f9722a3daafe3b4186f6b6457e060405160405180910390a3806000806101000a81548173ffffffffffffffffffffffffffffffffffffffff021916908373ffffffffffffffffffffffffffffffffffffffff16021790555050565b600033905090565b600080831415610ed25760009050610f3f565b6000828402905082848281610ee357fe5b0414610f3a576040517f08c379a00000000000000000000000000000000000000000000000000000000081526004018080602001828103825260218152602001806111046021913960400191505060405180910390fd5b809150505b92915050565b6000610f8783836040518060400160405280601a81526020017f536166654d6174683a206469766973696f6e206279207a65726f000000000000815250611017565b905092915050565b60008082840190508381101561100d576040517f08c379a000000000000000000000000000000000000000000000000000000000815260040180806020018281038252601b8152602001807f536166654d6174683a206164646974696f6e206f766572666c6f77000000000081525060200191505060405180910390fd5b8091505092915050565b600080831182906110c3576040517f08c379a00000000000000000000000000000000000000000000000000000000081526004018080602001828103825283818151815260200191508051906020019080838360005b8381101561108857808201518184015260208101905061106d565b50505050905090810190601f1680156110b55780820380516001836020036101000a031916815260200191505b509250505060405180910390fd5b5060008385816110cf57fe5b04905080915050939250505056fe4f776e61626c653a206e6577206f776e657220697320746865207a65726f2061646472657373536166654d6174683a206d756c7469706c69636174696f6e206f766572666c6f77436f6c6c61746572616c42616c616e636556616c696461746f723a3a6368616e6765537461626c65546f6b656e3a20696e76616c696420737461626c6520746f6b656e2061646472657373436f6c6c61746572616c42616c616e636556616c696461746f723a3a6368616e6765436f6c6c61746572616c3a20696e76616c696420636f6c6c61746572616c2061646472657373a2646970667358221220ce9e97b18a0ad238e872af85b485f11a129c6724e70b83579c8e1eb6780337b064736f6c634300060c0033",
  "devdoc": {
    "kind": "dev",
    "methods": {
      "changeCollateral(address)": {
        "params": {
          "_collateral": "New collateral address."
        }
      },
      "changePermissibleImbalance(uint256)": {
        "params": {
          "_permissibleImbalance": "New permissible imbalance value."
        }
      },
      "changeStableToken(address)": {
        "params": {
          "_stableToken": "New stable token address."
        }
      },
      "constructor": {
        "params": {
          "_collateral": "Address of collateral.",
          "_permissibleImbalance": "Permissible imbalance of stable token total supply and collateral balance.",
          "_stableToken": "Address of stable token."
        }
      },
      "owner()": {
        "details": "Returns the address of the current owner."
      },
      "renounceOwnership()": {
        "details": "Leaves the contract without owner. It will not be possible to call `onlyOwner` functions anymore. Can only be called by the current owner. NOTE: Renouncing ownership will leave the contract without an owner, thereby removing any functionality that is only available to the owner."
      },
      "transferOwnership(address)": {
        "details": "Transfers ownership of the contract to a new account (`newOwner`). Can only be called by the current owner."
      },
      "validate()": {
        "returns": {
          "_0": "Is state valid."
        }
      }
    },
    "version": 1
  },
  "userdoc": {
    "events": {
      "CollateralUpdated(address)": {
        "notice": "An event thats emitted when collateral address updated."
      },
      "PermissibleImbalanceUpdated(uint256)": {
        "notice": "An event thats emitted when permissible imbalance updated."
      },
      "StableTokenUpdated(address)": {
        "notice": "An event thats emitted when stable token address updated."
      }
    },
    "kind": "user",
    "methods": {
      "PERMISSIBLE_DECIMALS()": {
        "notice": "Accuracy of permissible imbalance."
      },
      "collateral()": {
        "notice": "Address of collateral."
      },
      "permissibleImbalance()": {
        "notice": "Permissible imbalance of stable token total supply and collateral balance."
      },
      "stableToken()": {
        "notice": "Address of stable token."
      },
      "validate()": {
        "notice": "Validate protocol state."
      }
    },
    "version": 1
  },
  "storageLayout": {
    "storage": [
      {
        "astId": 30,
        "contract": "contracts/alert/CollateralBalanceValidator.sol:CollateralBalanceValidator",
        "label": "_owner",
        "offset": 0,
        "slot": "0",
        "type": "t_address"
      },
      {
        "astId": 10511,
        "contract": "contracts/alert/CollateralBalanceValidator.sol:CollateralBalanceValidator",
        "label": "stableToken",
        "offset": 0,
        "slot": "1",
        "type": "t_contract(ERC20)1086"
      },
      {
        "astId": 10514,
        "contract": "contracts/alert/CollateralBalanceValidator.sol:CollateralBalanceValidator",
        "label": "collateral",
        "offset": 0,
        "slot": "2",
        "type": "t_contract(IDepositaryBalanceView)14000"
      },
      {
        "astId": 10517,
        "contract": "contracts/alert/CollateralBalanceValidator.sol:CollateralBalanceValidator",
        "label": "permissibleImbalance",
        "offset": 0,
        "slot": "3",
        "type": "t_uint256"
      }
    ],
    "types": {
      "t_address": {
        "encoding": "inplace",
        "label": "address",
        "numberOfBytes": "20"
      },
      "t_contract(ERC20)1086": {
        "encoding": "inplace",
        "label": "contract ERC20",
        "numberOfBytes": "20"
      },
      "t_contract(IDepositaryBalanceView)14000": {
        "encoding": "inplace",
        "label": "contract IDepositaryBalanceView",
        "numberOfBytes": "20"
      },
      "t_uint256": {
        "encoding": "inplace",
        "label": "uint256",
        "numberOfBytes": "32"
      }
    }
  }
}