{
  "address": "0x6f904547bCA5dAFF547A8CBBAB97c45C5D427BB4",
  "abi": [
    {
      "inputs": [
        {
          "internalType": "address",
          "name": "_market",
          "type": "address"
        },
        {
          "internalType": "address",
          "name": "_recipient",
          "type": "address"
        }
      ],
      "stateMutability": "nonpayable",
      "type": "constructor"
    },
    {
      "anonymous": false,
      "inputs": [
        {
          "indexed": true,
          "internalType": "address",
          "name": "customer",
          "type": "address"
        },
        {
          "indexed": false,
          "internalType": "address",
          "name": "currency",
          "type": "address"
        },
        {
          "indexed": false,
          "internalType": "uint256",
          "name": "sell",
          "type": "uint256"
        },
        {
          "indexed": false,
          "internalType": "uint256",
          "name": "buy",
          "type": "uint256"
        },
        {
          "indexed": false,
          "internalType": "uint256",
          "name": "reward",
          "type": "uint256"
        }
      ],
      "name": "Buy",
      "type": "event"
    },
    {
      "inputs": [
        {
          "internalType": "contract ERC20",
          "name": "currency",
          "type": "address"
        },
        {
          "internalType": "uint256",
          "name": "amount",
          "type": "uint256"
        },
        {
          "internalType": "uint256",
          "name": "productMin",
          "type": "uint256"
        }
      ],
      "name": "buy",
      "outputs": [
        {
          "internalType": "bool",
          "name": "",
          "type": "bool"
        }
      ],
      "stateMutability": "nonpayable",
      "type": "function"
    },
    {
      "inputs": [],
      "name": "market",
      "outputs": [
        {
          "internalType": "contract Market",
          "name": "",
          "type": "address"
        }
      ],
      "stateMutability": "view",
      "type": "function"
    },
    {
      "inputs": [],
      "name": "recipient",
      "outputs": [
        {
          "internalType": "address",
          "name": "",
          "type": "address"
        }
      ],
      "stateMutability": "view",
      "type": "function"
    }
  ],
  "transactionHash": "0xdfc348d294522bcacd7b1335b24a6de0bfad1988d63f49319be29f0a06ec54d9",
  "args": [
    "0xa0062aa4EEf1532E736C5651496705B3d9e40Fae",
    "0x9403932015576D13Fb26B135ed7a35d5d95C18d4"
  ],
  "numDeployments": 1,
  "solcInputHash": "0cf4cc9fdb3e6a35148e94b9ef4590e5",
  "bytecode": "0x608060405234801561001057600080fd5b5060405161100f38038061100f8339818101604052604081101561003357600080fd5b810190808051906020019092919080519060200190929190505050816000806101000a81548173ffffffffffffffffffffffffffffffffffffffff021916908373ffffffffffffffffffffffffffffffffffffffff16021790555080600160006101000a81548173ffffffffffffffffffffffffffffffffffffffff021916908373ffffffffffffffffffffffffffffffffffffffff1602179055505050610f2f806100e06000396000f3fe608060405234801561001057600080fd5b50600436106100415760003560e01c806366d003ac1461004657806380f556051461007a578063a59ac6dd146100ae575b600080fd5b61004e61011c565b604051808273ffffffffffffffffffffffffffffffffffffffff16815260200191505060405180910390f35b610082610142565b604051808273ffffffffffffffffffffffffffffffffffffffff16815260200191505060405180910390f35b610104600480360360608110156100c457600080fd5b81019080803573ffffffffffffffffffffffffffffffffffffffff1690602001909291908035906020019092919080359060200190929190505050610166565b60405180821515815260200191505060405180910390f35b600160009054906101000a900473ffffffffffffffffffffffffffffffffffffffff1681565b60008054906101000a900473ffffffffffffffffffffffffffffffffffffffff1681565b600061019c610173610849565b30858773ffffffffffffffffffffffffffffffffffffffff16610851909392919063ffffffff16565b60008473ffffffffffffffffffffffffffffffffffffffff166370a08231306040518263ffffffff1660e01b8152600401808273ffffffffffffffffffffffffffffffffffffffff16815260200191505060206040518083038186803b15801561020557600080fd5b505afa158015610219573d6000803e3d6000fd5b505050506040513d602081101561022f57600080fd5b8101908080519060200190929190505050905060008573ffffffffffffffffffffffffffffffffffffffff1663dd62ed3e3060008054906101000a900473ffffffffffffffffffffffffffffffffffffffff166040518363ffffffff1660e01b8152600401808373ffffffffffffffffffffffffffffffffffffffff1681526020018273ffffffffffffffffffffffffffffffffffffffff1681526020019250505060206040518083038186803b1580156102e957600080fd5b505afa1580156102fd573d6000803e3d6000fd5b505050506040513d602081101561031357600080fd5b8101908080519060200190929190505050146103765761037560008054906101000a900473ffffffffffffffffffffffffffffffffffffffff1660008773ffffffffffffffffffffffffffffffffffffffff166109129092919063ffffffff16565b5b6103c160008054906101000a900473ffffffffffffffffffffffffffffffffffffffff16828773ffffffffffffffffffffffffffffffffffffffff166109129092919063ffffffff16565b60008054906101000a900473ffffffffffffffffffffffffffffffffffffffff1673ffffffffffffffffffffffffffffffffffffffff1663a59ac6dd8683866040518463ffffffff1660e01b8152600401808473ffffffffffffffffffffffffffffffffffffffff1681526020018381526020018281526020019350505050602060405180830381600087803b15801561045a57600080fd5b505af115801561046e573d6000803e3d6000fd5b505050506040513d602081101561048457600080fd5b81019080805190602001909291905050505060008060009054906101000a900473ffffffffffffffffffffffffffffffffffffffff1673ffffffffffffffffffffffffffffffffffffffff166325b4f65f6040518163ffffffff1660e01b815260040160206040518083038186803b1580156104ff57600080fd5b505afa158015610513573d6000803e3d6000fd5b505050506040513d602081101561052957600080fd5b8101908080519060200190929190505050905060008173ffffffffffffffffffffffffffffffffffffffff166370a08231306040518263ffffffff1660e01b8152600401808273ffffffffffffffffffffffffffffffffffffffff16815260200191505060206040518083038186803b1580156105a557600080fd5b505afa1580156105b9573d6000803e3d6000fd5b505050506040513d60208110156105cf57600080fd5b8101908080519060200190929190505050905061062f600160009054906101000a900473ffffffffffffffffffffffffffffffffffffffff16828473ffffffffffffffffffffffffffffffffffffffff16610ad79092919063ffffffff16565b60008060009054906101000a900473ffffffffffffffffffffffffffffffffffffffff1673ffffffffffffffffffffffffffffffffffffffff1663f7c618c16040518163ffffffff1660e01b815260040160206040518083038186803b15801561069857600080fd5b505afa1580156106ac573d6000803e3d6000fd5b505050506040513d60208110156106c257600080fd5b8101908080519060200190929190505050905060008173ffffffffffffffffffffffffffffffffffffffff166370a08231306040518263ffffffff1660e01b8152600401808273ffffffffffffffffffffffffffffffffffffffff16815260200191505060206040518083038186803b15801561073e57600080fd5b505afa158015610752573d6000803e3d6000fd5b505050506040513d602081101561076857600080fd5b8101908080519060200190929190505050905060008111156107b7576107b661078f610849565b828473ffffffffffffffffffffffffffffffffffffffff16610ad79092919063ffffffff16565b5b6107bf610849565b73ffffffffffffffffffffffffffffffffffffffff167ef93dbdb72854b6b6fb35433086556f2635fc83c37080c667496fecfa650fb48a878685604051808573ffffffffffffffffffffffffffffffffffffffff16815260200184815260200183815260200182815260200194505050505060405180910390a26001955050505050509392505050565b600033905090565b61090c846323b872dd60e01b858585604051602401808473ffffffffffffffffffffffffffffffffffffffff1681526020018373ffffffffffffffffffffffffffffffffffffffff1681526020018281526020019350505050604051602081830303815290604052907bffffffffffffffffffffffffffffffffffffffffffffffffffffffff19166020820180517bffffffffffffffffffffffffffffffffffffffffffffffffffffffff8381831617835250505050610b79565b50505050565b60008114806109e0575060008373ffffffffffffffffffffffffffffffffffffffff1663dd62ed3e30856040518363ffffffff1660e01b8152600401808373ffffffffffffffffffffffffffffffffffffffff1681526020018273ffffffffffffffffffffffffffffffffffffffff1681526020019250505060206040518083038186803b1580156109a357600080fd5b505afa1580156109b7573d6000803e3d6000fd5b505050506040513d60208110156109cd57600080fd5b8101908080519060200190929190505050145b610a35576040517f08c379a0000000000000000000000000000000000000000000000000000000008152600401808060200182810382526036815260200180610ec46036913960400191505060405180910390fd5b610ad28363095ea7b360e01b8484604051602401808373ffffffffffffffffffffffffffffffffffffffff16815260200182815260200192505050604051602081830303815290604052907bffffffffffffffffffffffffffffffffffffffffffffffffffffffff19166020820180517bffffffffffffffffffffffffffffffffffffffffffffffffffffffff8381831617835250505050610b79565b505050565b610b748363a9059cbb60e01b8484604051602401808373ffffffffffffffffffffffffffffffffffffffff16815260200182815260200192505050604051602081830303815290604052907bffffffffffffffffffffffffffffffffffffffffffffffffffffffff19166020820180517bffffffffffffffffffffffffffffffffffffffffffffffffffffffff8381831617835250505050610b79565b505050565b6060610bdb826040518060400160405280602081526020017f5361666545524332303a206c6f772d6c6576656c2063616c6c206661696c65648152508573ffffffffffffffffffffffffffffffffffffffff16610c689092919063ffffffff16565b9050600081511115610c6357808060200190516020811015610bfc57600080fd5b8101908080519060200190929190505050610c62576040517f08c379a000000000000000000000000000000000000000000000000000000000815260040180806020018281038252602a815260200180610e9a602a913960400191505060405180910390fd5b5b505050565b6060610c778484600085610c80565b90509392505050565b6060610c8b85610e86565b610cfd576040517f08c379a000000000000000000000000000000000000000000000000000000000815260040180806020018281038252601d8152602001807f416464726573733a2063616c6c20746f206e6f6e2d636f6e747261637400000081525060200191505060405180910390fd5b600060608673ffffffffffffffffffffffffffffffffffffffff1685876040518082805190602001908083835b60208310610d4d5780518252602082019150602081019050602083039250610d2a565b6001836020036101000a03801982511681845116808217855250505050505090500191505060006040518083038185875af1925050503d8060008114610daf576040519150601f19603f3d011682016040523d82523d6000602084013e610db4565b606091505b50915091508115610dc9578092505050610e7e565b600081511115610ddc5780518082602001fd5b836040517f08c379a00000000000000000000000000000000000000000000000000000000081526004018080602001828103825283818151815260200191508051906020019080838360005b83811015610e43578082015181840152602081019050610e28565b50505050905090810190601f168015610e705780820380516001836020036101000a031916815260200191505b509250505060405180910390fd5b949350505050565b600080823b90506000811191505091905056fe5361666545524332303a204552433230206f7065726174696f6e20646964206e6f7420737563636565645361666545524332303a20617070726f76652066726f6d206e6f6e2d7a65726f20746f206e6f6e2d7a65726f20616c6c6f77616e6365a2646970667358221220901e617924640ac65df444d72daf0cc0f301f39df842c7c22a9bace4a30345c264736f6c634300060c0033",
  "devdoc": {
    "kind": "dev",
    "methods": {},
    "version": 1
  },
  "userdoc": {
    "events": {
      "Buy(address,address,uint256,uint256,uint256)": {
        "notice": "An event thats emitted when an account buyed token."
      }
    },
    "kind": "user",
    "methods": {
      "market()": {
        "notice": "Address of market contract."
      },
      "recipient()": {
        "notice": "Address of recipient all buy tokens."
      }
    },
    "version": 1
  },
  "storageLayout": {
    "storage": [
      {
        "astId": 17996,
        "contract": "contracts/waves/EastGateway.sol:EastGateway",
        "label": "market",
        "offset": 0,
        "slot": "0",
        "type": "t_contract(Market)6851"
      },
      {
        "astId": 17999,
        "contract": "contracts/waves/EastGateway.sol:EastGateway",
        "label": "recipient",
        "offset": 0,
        "slot": "1",
        "type": "t_address"
      }
    ],
    "types": {
      "t_address": {
        "encoding": "inplace",
        "label": "address",
        "numberOfBytes": "20"
      },
      "t_contract(Market)6851": {
        "encoding": "inplace",
        "label": "contract Market",
        "numberOfBytes": "20"
      }
    }
  }
}