{
  "address": "0xeA74205457067DFf3320DB097A1CeCbc58DeF3cd",
  "abi": [
    {
      "inputs": [
        {
          "internalType": "address",
          "name": "_stableToken",
          "type": "address"
        },
        {
          "internalType": "address",
          "name": "_treasury",
          "type": "address"
        }
      ],
      "stateMutability": "nonpayable",
      "type": "constructor"
    },
    {
      "anonymous": false,
      "inputs": [
        {
          "indexed": false,
          "internalType": "address",
          "name": "depositary",
          "type": "address"
        }
      ],
      "name": "DepositaryAdded",
      "type": "event"
    },
    {
      "anonymous": false,
      "inputs": [
        {
          "indexed": false,
          "internalType": "address",
          "name": "depositary",
          "type": "address"
        }
      ],
      "name": "DepositaryRemoved",
      "type": "event"
    },
    {
      "anonymous": false,
      "inputs": [
        {
          "indexed": true,
          "internalType": "address",
          "name": "previousOwner",
          "type": "address"
        },
        {
          "indexed": true,
          "internalType": "address",
          "name": "newOwner",
          "type": "address"
        }
      ],
      "name": "OwnershipTransferred",
      "type": "event"
    },
    {
      "anonymous": false,
      "inputs": [
        {
          "indexed": false,
          "internalType": "address",
          "name": "account",
          "type": "address"
        }
      ],
      "name": "Paused",
      "type": "event"
    },
    {
      "anonymous": false,
      "inputs": [
        {
          "indexed": false,
          "internalType": "address",
          "name": "newPauser",
          "type": "address"
        }
      ],
      "name": "PauserChanged",
      "type": "event"
    },
    {
      "anonymous": false,
      "inputs": [],
      "name": "Rebalance",
      "type": "event"
    },
    {
      "anonymous": false,
      "inputs": [
        {
          "indexed": false,
          "internalType": "address",
          "name": "newTreasury",
          "type": "address"
        }
      ],
      "name": "TransferTreasury",
      "type": "event"
    },
    {
      "anonymous": false,
      "inputs": [
        {
          "indexed": false,
          "internalType": "address",
          "name": "account",
          "type": "address"
        }
      ],
      "name": "Unpaused",
      "type": "event"
    },
    {
      "inputs": [
        {
          "internalType": "address",
          "name": "depositary",
          "type": "address"
        }
      ],
      "name": "addDepositary",
      "outputs": [],
      "stateMutability": "nonpayable",
      "type": "function"
    },
    {
      "inputs": [],
      "name": "allowedDepositaries",
      "outputs": [
        {
          "internalType": "address[]",
          "name": "",
          "type": "address[]"
        }
      ],
      "stateMutability": "view",
      "type": "function"
    },
    {
      "inputs": [],
      "name": "balance",
      "outputs": [
        {
          "internalType": "uint256",
          "name": "",
          "type": "uint256"
        }
      ],
      "stateMutability": "view",
      "type": "function"
    },
    {
      "inputs": [
        {
          "internalType": "address",
          "name": "newPauser",
          "type": "address"
        }
      ],
      "name": "changePauser",
      "outputs": [],
      "stateMutability": "nonpayable",
      "type": "function"
    },
    {
      "inputs": [
        {
          "internalType": "address",
          "name": "_owner",
          "type": "address"
        }
      ],
      "name": "changeStableTokenOwner",
      "outputs": [],
      "stateMutability": "nonpayable",
      "type": "function"
    },
    {
      "inputs": [
        {
          "internalType": "address",
          "name": "_treasury",
          "type": "address"
        }
      ],
      "name": "changeTreasury",
      "outputs": [],
      "stateMutability": "nonpayable",
      "type": "function"
    },
    {
      "inputs": [],
      "name": "decimals",
      "outputs": [
        {
          "internalType": "uint256",
          "name": "",
          "type": "uint256"
        }
      ],
      "stateMutability": "view",
      "type": "function"
    },
    {
      "inputs": [
        {
          "internalType": "uint256",
          "name": "",
          "type": "uint256"
        }
      ],
      "name": "depositaries",
      "outputs": [
        {
          "internalType": "contract IDepositaryBalanceView",
          "name": "",
          "type": "address"
        }
      ],
      "stateMutability": "view",
      "type": "function"
    },
    {
      "inputs": [
        {
          "internalType": "address",
          "name": "depositary",
          "type": "address"
        }
      ],
      "name": "hasDepositary",
      "outputs": [
        {
          "internalType": "bool",
          "name": "",
          "type": "bool"
        }
      ],
      "stateMutability": "view",
      "type": "function"
    },
    {
      "inputs": [],
      "name": "maxSize",
      "outputs": [
        {
          "internalType": "uint256",
          "name": "",
          "type": "uint256"
        }
      ],
      "stateMutability": "view",
      "type": "function"
    },
    {
      "inputs": [],
      "name": "owner",
      "outputs": [
        {
          "internalType": "address",
          "name": "",
          "type": "address"
        }
      ],
      "stateMutability": "view",
      "type": "function"
    },
    {
      "inputs": [],
      "name": "pause",
      "outputs": [],
      "stateMutability": "nonpayable",
      "type": "function"
    },
    {
      "inputs": [],
      "name": "paused",
      "outputs": [
        {
          "internalType": "bool",
          "name": "",
          "type": "bool"
        }
      ],
      "stateMutability": "view",
      "type": "function"
    },
    {
      "inputs": [],
      "name": "pauser",
      "outputs": [
        {
          "internalType": "address",
          "name": "",
          "type": "address"
        }
      ],
      "stateMutability": "view",
      "type": "function"
    },
    {
      "inputs": [],
      "name": "rebalance",
      "outputs": [],
      "stateMutability": "nonpayable",
      "type": "function"
    },
    {
      "inputs": [
        {
          "internalType": "address",
          "name": "depositary",
          "type": "address"
        }
      ],
      "name": "removeDepositary",
      "outputs": [],
      "stateMutability": "nonpayable",
      "type": "function"
    },
    {
      "inputs": [],
      "name": "renounceOwnership",
      "outputs": [],
      "stateMutability": "nonpayable",
      "type": "function"
    },
    {
      "inputs": [],
      "name": "size",
      "outputs": [
        {
          "internalType": "uint256",
          "name": "",
          "type": "uint256"
        }
      ],
      "stateMutability": "view",
      "type": "function"
    },
    {
      "inputs": [],
      "name": "stableToken",
      "outputs": [
        {
          "internalType": "contract StableToken",
          "name": "",
          "type": "address"
        }
      ],
      "stateMutability": "view",
      "type": "function"
    },
    {
      "inputs": [
        {
          "internalType": "address",
          "name": "newOwner",
          "type": "address"
        }
      ],
      "name": "transferOwnership",
      "outputs": [],
      "stateMutability": "nonpayable",
      "type": "function"
    },
    {
      "inputs": [],
      "name": "treasury",
      "outputs": [
        {
          "internalType": "address",
          "name": "",
          "type": "address"
        }
      ],
      "stateMutability": "view",
      "type": "function"
    },
    {
      "inputs": [],
      "name": "unpause",
      "outputs": [],
      "stateMutability": "nonpayable",
      "type": "function"
    }
  ],
  "transactionHash": "0xb9f8c9503b5219ae7816668c4ffac220dea55625bc1b46c4558118f74113f3c7",
  "args": [
    "0x9577DB923744915FfEceD892064245badfaC9189",
    "0xa280a529A2F8208B0e48B5cF645751B420819342"
  ],
  "numDeployments": 1,
  "solcInputHash": "0cf4cc9fdb3e6a35148e94b9ef4590e5",
  "bytecode": "0x60806040523480156200001157600080fd5b506040516200272238038062002722833981810160405260408110156200003757600080fd5b8101908080519060200190929190805190602001909291905050508173ffffffffffffffffffffffffffffffffffffffff1663313ce5676040518163ffffffff1660e01b815260040160206040518083038186803b1580156200009957600080fd5b505afa158015620000ae573d6000803e3d6000fd5b505050506040513d6020811015620000c557600080fd5b810190808051906020019092919050505060ff1660326000620000ed6200028f60201b60201c565b9050806000806101000a81548173ffffffffffffffffffffffffffffffffffffffff021916908373ffffffffffffffffffffffffffffffffffffffff1602179055508073ffffffffffffffffffffffffffffffffffffffff16600073ffffffffffffffffffffffffffffffffffffffff167f8be0079c531659141344cd1fd0a4f28419497f9722a3daafe3b4186f6b6457e060405160405180910390a35060008060146101000a81548160ff021916908315150217905550620001b56200029760201b60201c565b600160006101000a81548173ffffffffffffffffffffffffffffffffffffffff021916908373ffffffffffffffffffffffffffffffffffffffff1602179055508160038190555080600281905550505081600660006101000a81548173ffffffffffffffffffffffffffffffffffffffff021916908373ffffffffffffffffffffffffffffffffffffffff16021790555080600760006101000a81548173ffffffffffffffffffffffffffffffffffffffff021916908373ffffffffffffffffffffffffffffffffffffffff1602179055505050620002c0565b600033905090565b60008060009054906101000a900473ffffffffffffffffffffffffffffffffffffffff16905090565b61245280620002d06000396000f3fe608060405234801561001057600080fd5b50600436106101425760003560e01c80637d7c2a1c116100b85780639fd0506d1161007c5780639fd0506d1461042e578063a6a0c5cf14610462578063a9d75b2b146104a6578063b14f2a39146104da578063b69ef8a81461051e578063f2fde38b1461053c57610142565b80637d7c2a1c1461036e5780638456cb59146103785780638da5cb5b14610382578063949d225d146103b657806399f3c7ba146103d457610142565b8063313ce5671161010a578063313ce567146102905780633bf9bdd2146102ae5780633f4ba83a146103065780635c975abb1461031057806361d027b314610330578063715018a61461036457610142565b80631c293256146101475780631f1f8dc51461018b5780632565b159146101ea57806329f352bc146102085780632cd271e71461024c575b600080fd5b6101896004803603602081101561015d57600080fd5b81019080803573ffffffffffffffffffffffffffffffffffffffff169060200190929190505050610580565b005b61019361083f565b6040518080602001828103825283818151815260200191508051906020019060200280838360005b838110156101d65780820151818401526020810190506101bb565b505050509050019250505060405180910390f35b6101f2610937565b6040518082815260200191505060405180910390f35b61024a6004803603602081101561021e57600080fd5b81019080803573ffffffffffffffffffffffffffffffffffffffff16906020019092919050505061093d565b005b61028e6004803603602081101561026257600080fd5b81019080803573ffffffffffffffffffffffffffffffffffffffff169060200190929190505050610aab565b005b610298610c26565b6040518082815260200191505060405180910390f35b6102da600480360360208110156102c457600080fd5b8101908080359060200190929190505050610c2c565b604051808273ffffffffffffffffffffffffffffffffffffffff16815260200191505060405180910390f35b61030e610c68565b005b610318610d63565b60405180821515815260200191505060405180910390f35b610338610d79565b604051808273ffffffffffffffffffffffffffffffffffffffff16815260200191505060405180910390f35b61036c610d9f565b005b610376610f25565b005b6103806113c8565b005b61038a6114c3565b604051808273ffffffffffffffffffffffffffffffffffffffff16815260200191505060405180910390f35b6103be6114ec565b6040518082815260200191505060405180910390f35b610416600480360360208110156103ea57600080fd5b81019080803573ffffffffffffffffffffffffffffffffffffffff1690602001909291905050506114f9565b60405180821515815260200191505060405180910390f35b610436611545565b604051808273ffffffffffffffffffffffffffffffffffffffff16815260200191505060405180910390f35b6104a46004803603602081101561047857600080fd5b81019080803573ffffffffffffffffffffffffffffffffffffffff16906020019092919050505061156b565b005b6104ae6118c8565b604051808273ffffffffffffffffffffffffffffffffffffffff16815260200191505060405180910390f35b61051c600480360360208110156104f057600080fd5b81019080803573ffffffffffffffffffffffffffffffffffffffff1690602001909291905050506118ee565b005b610526611a69565b6040518082815260200191505060405180910390f35b61057e6004803603602081101561055257600080fd5b81019080803573ffffffffffffffffffffffffffffffffffffffff169060200190929190505050611c51565b005b610588611e5c565b73ffffffffffffffffffffffffffffffffffffffff1660008054906101000a900473ffffffffffffffffffffffffffffffffffffffff1673ffffffffffffffffffffffffffffffffffffffff1614610648576040517f08c379a00000000000000000000000000000000000000000000000000000000081526004018080602001828103825260208152602001807f4f776e61626c653a2063616c6c6572206973206e6f7420746865206f776e657281525060200191505060405180910390fd5b6000600560008373ffffffffffffffffffffffffffffffffffffffff1673ffffffffffffffffffffffffffffffffffffffff16815260200190815260200160002054146106e0576040517f08c379a000000000000000000000000000000000000000000000000000000000815260040180806020018281038252604681526020018061236b6046913960600191505060405180910390fd5b6002546106eb6114ec565b10610741576040517f08c379a000000000000000000000000000000000000000000000000000000000815260040180806020018281038252604381526020018061227c6043913960600191505060405180910390fd5b6004819080600181540180825580915050600190039060005260206000200160009091909190916101000a81548173ffffffffffffffffffffffffffffffffffffffff021916908373ffffffffffffffffffffffffffffffffffffffff1602179055506107ac6114ec565b600560008373ffffffffffffffffffffffffffffffffffffffff1673ffffffffffffffffffffffffffffffffffffffff168152602001908152602001600020819055507fd5908a53c795822de25346de021d20a1b229dcf1369f53b18741fe157588e20d81604051808273ffffffffffffffffffffffffffffffffffffffff16815260200191505060405180910390a150565b60608061084a6114ec565b67ffffffffffffffff8111801561086057600080fd5b5060405190808252806020026020018201604052801561088f5781602001602082028036833780820191505090505b50905060005b61089d6114ec565b81101561092f57600481815481106108b157fe5b9060005260206000200160009054906101000a900473ffffffffffffffffffffffffffffffffffffffff168282815181106108e857fe5b602002602001019073ffffffffffffffffffffffffffffffffffffffff16908173ffffffffffffffffffffffffffffffffffffffff16815250508080600101915050610895565b508091505090565b60025481565b610945611e5c565b73ffffffffffffffffffffffffffffffffffffffff1660008054906101000a900473ffffffffffffffffffffffffffffffffffffffff1673ffffffffffffffffffffffffffffffffffffffff1614610a05576040517f08c379a00000000000000000000000000000000000000000000000000000000081526004018080602001828103825260208152602001807f4f776e61626c653a2063616c6c6572206973206e6f7420746865206f776e657281525060200191505060405180910390fd5b600660009054906101000a900473ffffffffffffffffffffffffffffffffffffffff1673ffffffffffffffffffffffffffffffffffffffff1663f2fde38b826040518263ffffffff1660e01b8152600401808273ffffffffffffffffffffffffffffffffffffffff168152602001915050600060405180830381600087803b158015610a9057600080fd5b505af1158015610aa4573d6000803e3d6000fd5b5050505050565b610ab3611e5c565b73ffffffffffffffffffffffffffffffffffffffff1660008054906101000a900473ffffffffffffffffffffffffffffffffffffffff1673ffffffffffffffffffffffffffffffffffffffff1614610b73576040517f08c379a00000000000000000000000000000000000000000000000000000000081526004018080602001828103825260208152602001807f4f776e61626c653a2063616c6c6572206973206e6f7420746865206f776e657281525060200191505060405180910390fd5b80600160006101000a81548173ffffffffffffffffffffffffffffffffffffffff021916908373ffffffffffffffffffffffffffffffffffffffff1602179055507fb80482a293ca2e013eda8683c9bd7fc8347cfdaeea5ede58cba46df502c2a604600160009054906101000a900473ffffffffffffffffffffffffffffffffffffffff16604051808273ffffffffffffffffffffffffffffffffffffffff16815260200191505060405180910390a150565b60035481565b60048181548110610c3957fe5b906000526020600020016000915054906101000a900473ffffffffffffffffffffffffffffffffffffffff1681565b610c70611e5c565b73ffffffffffffffffffffffffffffffffffffffff16600160009054906101000a900473ffffffffffffffffffffffffffffffffffffffff1673ffffffffffffffffffffffffffffffffffffffff161480610d045750610cce611e5c565b73ffffffffffffffffffffffffffffffffffffffff16610cec6114c3565b73ffffffffffffffffffffffffffffffffffffffff16145b610d59576040517f08c379a00000000000000000000000000000000000000000000000000000000081526004018080602001828103825260458152602001806123266045913960600191505060405180910390fd5b610d61611e64565b565b60008060149054906101000a900460ff16905090565b600760009054906101000a900473ffffffffffffffffffffffffffffffffffffffff1681565b610da7611e5c565b73ffffffffffffffffffffffffffffffffffffffff1660008054906101000a900473ffffffffffffffffffffffffffffffffffffffff1673ffffffffffffffffffffffffffffffffffffffff1614610e67576040517f08c379a00000000000000000000000000000000000000000000000000000000081526004018080602001828103825260208152602001807f4f776e61626c653a2063616c6c6572206973206e6f7420746865206f776e657281525060200191505060405180910390fd5b600073ffffffffffffffffffffffffffffffffffffffff1660008054906101000a900473ffffffffffffffffffffffffffffffffffffffff1673ffffffffffffffffffffffffffffffffffffffff167f8be0079c531659141344cd1fd0a4f28419497f9722a3daafe3b4186f6b6457e060405160405180910390a360008060006101000a81548173ffffffffffffffffffffffffffffffffffffffff021916908373ffffffffffffffffffffffffffffffffffffffff160217905550565b600060149054906101000a900460ff1615610fa8576040517f08c379a00000000000000000000000000000000000000000000000000000000081526004018080602001828103825260108152602001807f5061757361626c653a207061757365640000000000000000000000000000000081525060200191505060405180910390fd5b60003073ffffffffffffffffffffffffffffffffffffffff1663b69ef8a86040518163ffffffff1660e01b815260040160206040518083038186803b158015610ff057600080fd5b505afa158015611004573d6000803e3d6000fd5b505050506040513d602081101561101a57600080fd5b810190808051906020019092919050505090506000600660009054906101000a900473ffffffffffffffffffffffffffffffffffffffff1673ffffffffffffffffffffffffffffffffffffffff166318160ddd6040518163ffffffff1660e01b815260040160206040518083038186803b15801561109757600080fd5b505afa1580156110ab573d6000803e3d6000fd5b505050506040513d60208110156110c157600080fd5b81019080805190602001909291905050509050818111156112af576000600660009054906101000a900473ffffffffffffffffffffffffffffffffffffffff1673ffffffffffffffffffffffffffffffffffffffff166370a08231306040518263ffffffff1660e01b8152600401808273ffffffffffffffffffffffffffffffffffffffff16815260200191505060206040518083038186803b15801561116757600080fd5b505afa15801561117b573d6000803e3d6000fd5b505050506040513d602081101561119157600080fd5b8101908080519060200190929190505050905060008111156112a957600660009054906101000a900473ffffffffffffffffffffffffffffffffffffffff1673ffffffffffffffffffffffffffffffffffffffff16639dc29fac306112116112028787611f5690919063ffffffff16565b85611fa090919063ffffffff16565b6040518363ffffffff1660e01b8152600401808373ffffffffffffffffffffffffffffffffffffffff16815260200182815260200192505050600060405180830381600087803b15801561126457600080fd5b505af1158015611278573d6000803e3d6000fd5b505050507ff57243a1fddfdc9fa2c7de26cc3503b1b94cfd4368d2b82d0970bfbb2fbce3a460405160405180910390a15b506113c4565b818110156113c357600660009054906101000a900473ffffffffffffffffffffffffffffffffffffffff1673ffffffffffffffffffffffffffffffffffffffff166340c10f19600760009054906101000a900473ffffffffffffffffffffffffffffffffffffffff1661132b8486611f5690919063ffffffff16565b6040518363ffffffff1660e01b8152600401808373ffffffffffffffffffffffffffffffffffffffff16815260200182815260200192505050600060405180830381600087803b15801561137e57600080fd5b505af1158015611392573d6000803e3d6000fd5b505050507ff57243a1fddfdc9fa2c7de26cc3503b1b94cfd4368d2b82d0970bfbb2fbce3a460405160405180910390a15b5b5050565b6113d0611e5c565b73ffffffffffffffffffffffffffffffffffffffff16600160009054906101000a900473ffffffffffffffffffffffffffffffffffffffff1673ffffffffffffffffffffffffffffffffffffffff161480611464575061142e611e5c565b73ffffffffffffffffffffffffffffffffffffffff1661144c6114c3565b73ffffffffffffffffffffffffffffffffffffffff16145b6114b9576040517f08c379a00000000000000000000000000000000000000000000000000000000081526004018080602001828103825260418152602001806122e56041913960600191505060405180910390fd5b6114c1611fb9565b565b60008060009054906101000a900473ffffffffffffffffffffffffffffffffffffffff16905090565b6000600480549050905090565b600080600560008473ffffffffffffffffffffffffffffffffffffffff1673ffffffffffffffffffffffffffffffffffffffff1681526020019081526020016000205414159050919050565b600160009054906101000a900473ffffffffffffffffffffffffffffffffffffffff1681565b611573611e5c565b73ffffffffffffffffffffffffffffffffffffffff1660008054906101000a900473ffffffffffffffffffffffffffffffffffffffff1673ffffffffffffffffffffffffffffffffffffffff1614611633576040517f08c379a00000000000000000000000000000000000000000000000000000000081526004018080602001828103825260208152602001807f4f776e61626c653a2063616c6c6572206973206e6f7420746865206f776e657281525060200191505060405180910390fd5b6000600560008373ffffffffffffffffffffffffffffffffffffffff1673ffffffffffffffffffffffffffffffffffffffff16815260200190815260200160002054905060008114156116d1576040517f08c379a000000000000000000000000000000000000000000000000000000000815260040180806020018281038252604b8152602001806123d2604b913960600191505060405180910390fd5b60006116e7600183611f5690919063ffffffff16565b9050600061170660016116f86114ec565b611f5690919063ffffffff16565b905060006004828154811061171757fe5b9060005260206000200160009054906101000a900473ffffffffffffffffffffffffffffffffffffffff169050806004848154811061175257fe5b9060005260206000200160006101000a81548173ffffffffffffffffffffffffffffffffffffffff021916908373ffffffffffffffffffffffffffffffffffffffff1602179055506117ae6001846120ad90919063ffffffff16565b600560008373ffffffffffffffffffffffffffffffffffffffff1673ffffffffffffffffffffffffffffffffffffffff1681526020019081526020016000208190555060048054806117fc57fe5b6001900381819060005260206000200160006101000a81549073ffffffffffffffffffffffffffffffffffffffff02191690559055600560008673ffffffffffffffffffffffffffffffffffffffff1673ffffffffffffffffffffffffffffffffffffffff168152602001908152602001600020600090557f045aab5b06d458a33b73cc4e8fe9deb81806e9e71ebe632715a9a446ba93a25485604051808273ffffffffffffffffffffffffffffffffffffffff16815260200191505060405180910390a15050505050565b600660009054906101000a900473ffffffffffffffffffffffffffffffffffffffff1681565b6118f6611e5c565b73ffffffffffffffffffffffffffffffffffffffff1660008054906101000a900473ffffffffffffffffffffffffffffffffffffffff1673ffffffffffffffffffffffffffffffffffffffff16146119b6576040517f08c379a00000000000000000000000000000000000000000000000000000000081526004018080602001828103825260208152602001807f4f776e61626c653a2063616c6c6572206973206e6f7420746865206f776e657281525060200191505060405180910390fd5b80600760006101000a81548173ffffffffffffffffffffffffffffffffffffffff021916908373ffffffffffffffffffffffffffffffffffffffff1602179055507f8c1f0fc9d21bc6b2caefad17646ff4be88105c7f3517bf08c7a751936e513f84600760009054906101000a900473ffffffffffffffffffffffffffffffffffffffff16604051808273ffffffffffffffffffffffffffffffffffffffff16815260200191505060405180910390a150565b60008060005b611a776114ec565b811015611c4957600060048281548110611a8d57fe5b9060005260206000200160009054906101000a900473ffffffffffffffffffffffffffffffffffffffff1673ffffffffffffffffffffffffffffffffffffffff1663b69ef8a86040518163ffffffff1660e01b815260040160206040518083038186803b158015611afd57600080fd5b505afa158015611b11573d6000803e3d6000fd5b505050506040513d6020811015611b2757600080fd5b81019080805190602001909291905050509050600060048381548110611b4957fe5b9060005260206000200160009054906101000a900473ffffffffffffffffffffffffffffffffffffffff1673ffffffffffffffffffffffffffffffffffffffff1663313ce5676040518163ffffffff1660e01b815260040160206040518083038186803b158015611bb957600080fd5b505afa158015611bcd573d6000803e3d6000fd5b505050506040513d6020811015611be357600080fd5b810190808051906020019092919050505090506000611c0d82600354611f5690919063ffffffff16565b9050611c37611c2882600a0a8561213590919063ffffffff16565b866120ad90919063ffffffff16565b94505050508080600101915050611a6f565b508091505090565b611c59611e5c565b73ffffffffffffffffffffffffffffffffffffffff1660008054906101000a900473ffffffffffffffffffffffffffffffffffffffff1673ffffffffffffffffffffffffffffffffffffffff1614611d19576040517f08c379a00000000000000000000000000000000000000000000000000000000081526004018080602001828103825260208152602001807f4f776e61626c653a2063616c6c6572206973206e6f7420746865206f776e657281525060200191505060405180910390fd5b600073ffffffffffffffffffffffffffffffffffffffff168173ffffffffffffffffffffffffffffffffffffffff161415611d9f576040517f08c379a00000000000000000000000000000000000000000000000000000000081526004018080602001828103825260268152602001806122bf6026913960400191505060405180910390fd5b8073ffffffffffffffffffffffffffffffffffffffff1660008054906101000a900473ffffffffffffffffffffffffffffffffffffffff1673ffffffffffffffffffffffffffffffffffffffff167f8be0079c531659141344cd1fd0a4f28419497f9722a3daafe3b4186f6b6457e060405160405180910390a3806000806101000a81548173ffffffffffffffffffffffffffffffffffffffff021916908373ffffffffffffffffffffffffffffffffffffffff16021790555050565b600033905090565b600060149054906101000a900460ff16611ee6576040517f08c379a00000000000000000000000000000000000000000000000000000000081526004018080602001828103825260148152602001807f5061757361626c653a206e6f742070617573656400000000000000000000000081525060200191505060405180910390fd5b60008060146101000a81548160ff0219169083151502179055507f5db9ee0a495bf2e6ff9c91a7834c1ba4fdd244a5e8aa4e537bd38aeae4b073aa611f29611e5c565b604051808273ffffffffffffffffffffffffffffffffffffffff16815260200191505060405180910390a1565b6000611f9883836040518060400160405280601e81526020017f536166654d6174683a207375627472616374696f6e206f766572666c6f7700008152506121bb565b905092915050565b6000818310611faf5781611fb1565b825b905092915050565b600060149054906101000a900460ff161561203c576040517f08c379a00000000000000000000000000000000000000000000000000000000081526004018080602001828103825260108152602001807f5061757361626c653a207061757365640000000000000000000000000000000081525060200191505060405180910390fd5b6001600060146101000a81548160ff0219169083151502179055507f62e78cea01bee320cd4e420270b5ea74000d11b0c9f74754ebdbfc544b05a258612080611e5c565b604051808273ffffffffffffffffffffffffffffffffffffffff16815260200191505060405180910390a1565b60008082840190508381101561212b576040517f08c379a000000000000000000000000000000000000000000000000000000000815260040180806020018281038252601b8152602001807f536166654d6174683a206164646974696f6e206f766572666c6f77000000000081525060200191505060405180910390fd5b8091505092915050565b60008083141561214857600090506121b5565b600082840290508284828161215957fe5b04146121b0576040517f08c379a00000000000000000000000000000000000000000000000000000000081526004018080602001828103825260218152602001806123b16021913960400191505060405180910390fd5b809150505b92915050565b6000838311158290612268576040517f08c379a00000000000000000000000000000000000000000000000000000000081526004018080602001828103825283818151815260200191508051906020019080838360005b8381101561222d578082015181840152602081019050612212565b50505050905090810190601f16801561225a5780820380516001836020036101000a031916815260200191505b509250505060405180910390fd5b506000838503905080915050939250505056fe41677265676174654465706f73697461727942616c616e6365566965773a3a6164644465706f7369746172793a20746f6f206d616e79206465706f73697461726965734f776e61626c653a206e6577206f776e657220697320746865207a65726f20616464726573734f776e61626c655061757361626c653a3a70617573653a206f6e6c792070617573657220616e64206f776e6572206d75737420706175736520636f6e74726163744f776e61626c655061757361626c653a3a756e70617573653a206f6e6c792070617573657220616e64206f776e6572206d75737420756e706175736520636f6e747261637441677265676174654465706f73697461727942616c616e6365566965773a3a6164644465706f7369746172793a206465706f73697461727920616c7265616479206164646564536166654d6174683a206d756c7469706c69636174696f6e206f766572666c6f7741677265676174654465706f73697461727942616c616e6365566965773a3a72656d6f76654465706f7369746172793a206465706f73697461727920616c72656164792072656d6f766564a264697066735822122081da056599cabe5b914edf776e796fbd6b4222fcebe2d0fdc3e8c81c2855e80764736f6c634300060c0033",
  "devdoc": {
    "kind": "dev",
    "methods": {
      "addDepositary(address)": {
        "params": {
          "depositary": "Added depositary address."
        }
      },
      "allowedDepositaries()": {
        "returns": {
          "_0": "Allowed depositaries list."
        }
      },
      "balance()": {
        "returns": {
          "_0": "Balance of depositary."
        }
      },
      "changePauser(address)": {
        "params": {
          "newPauser": "Address of new pauser account."
        }
      },
      "changeStableTokenOwner(address)": {
        "params": {
          "_owner": "New owner address."
        }
      },
      "changeTreasury(address)": {
        "params": {
          "_treasury": "New address Treasury contract."
        }
      },
      "constructor": {
        "params": {
          "_stableToken": "Stable token contract address.",
          "_treasury": "Treasury contract address."
        }
      },
      "hasDepositary(address)": {
        "params": {
          "depositary": "Target depositary address."
        },
        "returns": {
          "_0": "True if target depositary is allowed."
        }
      },
      "owner()": {
        "details": "Returns the address of the current owner."
      },
      "paused()": {
        "details": "Returns true if the contract is paused, and false otherwise."
      },
      "removeDepositary(address)": {
        "params": {
          "depositary": "Removed depositary address."
        }
      },
      "renounceOwnership()": {
        "details": "Leaves the contract without owner. It will not be possible to call `onlyOwner` functions anymore. Can only be called by the current owner. NOTE: Renouncing ownership will leave the contract without an owner, thereby removing any functionality that is only available to the owner."
      },
      "size()": {
        "returns": {
          "_0": "Depositaries count of agregate."
        }
      },
      "transferOwnership(address)": {
        "details": "Transfers ownership of the contract to a new account (`newOwner`). Can only be called by the current owner."
      }
    },
    "version": 1
  },
  "userdoc": {
    "events": {
      "DepositaryAdded(address)": {
        "notice": "An event thats emitted when an new depositary added to agregate."
      },
      "DepositaryRemoved(address)": {
        "notice": "An event thats emitted when an depositary removed from agregate."
      },
      "PauserChanged(address)": {
        "notice": "An event thats emitted when an pauser address changed."
      },
      "Rebalance()": {
        "notice": "An event thats emitted when an stable token total supply rebalanced."
      },
      "TransferTreasury(address)": {
        "notice": "An event thats emitted when an Treasury contract transfered."
      }
    },
    "kind": "user",
    "methods": {
      "addDepositary(address)": {
        "notice": "Add depositary address to agregate."
      },
      "balance()": {
        "notice": "Get balance of depositary."
      },
      "changePauser(address)": {
        "notice": "Change pauser account."
      },
      "changeStableTokenOwner(address)": {
        "notice": "Change owner of Stable token contract."
      },
      "changeTreasury(address)": {
        "notice": "Transfer Treasury contract to new address."
      },
      "decimals()": {
        "notice": "Decimals balance."
      },
      "depositaries(uint256)": {
        "notice": "Depositaries in agregate."
      },
      "maxSize()": {
        "notice": "The number of depositaries in agregate."
      },
      "pause()": {
        "notice": "Triggers stopped state."
      },
      "pauser()": {
        "notice": "Address that can pause a contract."
      },
      "rebalance()": {
        "notice": "Rebalance stable token total supply by depositary balance. Mint stable token if depositary balance greater token total supply and burn otherwise."
      },
      "removeDepositary(address)": {
        "notice": "Removed depositary address from agregate."
      },
      "stableToken()": {
        "notice": "Stable token contract address."
      },
      "treasury()": {
        "notice": "Treasury contract address."
      },
      "unpause()": {
        "notice": "Returns to normal state."
      }
    },
    "version": 1
  },
  "storageLayout": {
    "storage": [
      {
        "astId": 30,
        "contract": "contracts/Issuer.sol:Issuer",
        "label": "_owner",
        "offset": 0,
        "slot": "0",
        "type": "t_address"
      },
      {
        "astId": 1985,
        "contract": "contracts/Issuer.sol:Issuer",
        "label": "_paused",
        "offset": 20,
        "slot": "0",
        "type": "t_bool"
      },
      {
        "astId": 17902,
        "contract": "contracts/Issuer.sol:Issuer",
        "label": "pauser",
        "offset": 0,
        "slot": "1",
        "type": "t_address"
      },
      {
        "astId": 11720,
        "contract": "contracts/Issuer.sol:Issuer",
        "label": "maxSize",
        "offset": 0,
        "slot": "2",
        "type": "t_uint256"
      },
      {
        "astId": 11724,
        "contract": "contracts/Issuer.sol:Issuer",
        "label": "decimals",
        "offset": 0,
        "slot": "3",
        "type": "t_uint256"
      },
      {
        "astId": 11728,
        "contract": "contracts/Issuer.sol:Issuer",
        "label": "depositaries",
        "offset": 0,
        "slot": "4",
        "type": "t_array(t_contract(IDepositaryBalanceView)14000)dyn_storage"
      },
      {
        "astId": 11733,
        "contract": "contracts/Issuer.sol:Issuer",
        "label": "depositariesIndex",
        "offset": 0,
        "slot": "5",
        "type": "t_mapping(t_address,t_uint256)"
      },
      {
        "astId": 6179,
        "contract": "contracts/Issuer.sol:Issuer",
        "label": "stableToken",
        "offset": 0,
        "slot": "6",
        "type": "t_contract(StableToken)7734"
      },
      {
        "astId": 6182,
        "contract": "contracts/Issuer.sol:Issuer",
        "label": "treasury",
        "offset": 0,
        "slot": "7",
        "type": "t_address"
      }
    ],
    "types": {
      "t_address": {
        "encoding": "inplace",
        "label": "address",
        "numberOfBytes": "20"
      },
      "t_array(t_contract(IDepositaryBalanceView)14000)dyn_storage": {
        "base": "t_contract(IDepositaryBalanceView)14000",
        "encoding": "dynamic_array",
        "label": "contract IDepositaryBalanceView[]",
        "numberOfBytes": "32"
      },
      "t_bool": {
        "encoding": "inplace",
        "label": "bool",
        "numberOfBytes": "1"
      },
      "t_contract(IDepositaryBalanceView)14000": {
        "encoding": "inplace",
        "label": "contract IDepositaryBalanceView",
        "numberOfBytes": "20"
      },
      "t_contract(StableToken)7734": {
        "encoding": "inplace",
        "label": "contract StableToken",
        "numberOfBytes": "20"
      },
      "t_mapping(t_address,t_uint256)": {
        "encoding": "mapping",
        "key": "t_address",
        "label": "mapping(address => uint256)",
        "numberOfBytes": "32",
        "value": "t_uint256"
      },
      "t_uint256": {
        "encoding": "inplace",
        "label": "uint256",
        "numberOfBytes": "32"
      }
    }
  }
}