{
  "address": "0x21F9d8B109f60b6Be4542153ec35B31E5451b4f2",
  "abi": [
    {
      "inputs": [
        {
          "internalType": "address",
          "name": "_cumulativeToken",
          "type": "address"
        },
        {
          "internalType": "address",
          "name": "_productToken",
          "type": "address"
        },
        {
          "internalType": "address",
          "name": "_rewardToken",
          "type": "address"
        },
        {
          "internalType": "address",
          "name": "_uniswapRouter",
          "type": "address"
        }
      ],
      "stateMutability": "nonpayable",
      "type": "constructor"
    },
    {
      "anonymous": false,
      "inputs": [
        {
          "indexed": true,
          "internalType": "address",
          "name": "customer",
          "type": "address"
        },
        {
          "indexed": true,
          "internalType": "address",
          "name": "currency",
          "type": "address"
        },
        {
          "indexed": false,
          "internalType": "uint256",
          "name": "payment",
          "type": "uint256"
        },
        {
          "indexed": false,
          "internalType": "uint256",
          "name": "buy",
          "type": "uint256"
        },
        {
          "indexed": false,
          "internalType": "uint256",
          "name": "reward",
          "type": "uint256"
        }
      ],
      "name": "Buy",
      "type": "event"
    },
    {
      "anonymous": false,
      "inputs": [
        {
          "indexed": true,
          "internalType": "address",
          "name": "newCumulativeToken",
          "type": "address"
        }
      ],
      "name": "CumulativeChanged",
      "type": "event"
    },
    {
      "anonymous": false,
      "inputs": [
        {
          "indexed": true,
          "internalType": "address",
          "name": "previousOwner",
          "type": "address"
        },
        {
          "indexed": true,
          "internalType": "address",
          "name": "newOwner",
          "type": "address"
        }
      ],
      "name": "OwnershipTransferred",
      "type": "event"
    },
    {
      "anonymous": false,
      "inputs": [
        {
          "indexed": false,
          "internalType": "address",
          "name": "account",
          "type": "address"
        }
      ],
      "name": "Paused",
      "type": "event"
    },
    {
      "anonymous": false,
      "inputs": [
        {
          "indexed": false,
          "internalType": "address",
          "name": "newPauser",
          "type": "address"
        }
      ],
      "name": "PauserChanged",
      "type": "event"
    },
    {
      "anonymous": false,
      "inputs": [
        {
          "indexed": true,
          "internalType": "address",
          "name": "newUniswapRouter",
          "type": "address"
        }
      ],
      "name": "UniswapRouterChanged",
      "type": "event"
    },
    {
      "anonymous": false,
      "inputs": [
        {
          "indexed": false,
          "internalType": "address",
          "name": "account",
          "type": "address"
        }
      ],
      "name": "Unpaused",
      "type": "event"
    },
    {
      "inputs": [
        {
          "internalType": "address",
          "name": "currency",
          "type": "address"
        },
        {
          "internalType": "uint256",
          "name": "payment",
          "type": "uint256"
        },
        {
          "internalType": "uint256",
          "name": "productMin",
          "type": "uint256"
        }
      ],
      "name": "buy",
      "outputs": [
        {
          "internalType": "bool",
          "name": "",
          "type": "bool"
        }
      ],
      "stateMutability": "nonpayable",
      "type": "function"
    },
    {
      "inputs": [
        {
          "internalType": "address",
          "name": "newCumulativeToken",
          "type": "address"
        },
        {
          "internalType": "address",
          "name": "recipient",
          "type": "address"
        }
      ],
      "name": "changeCumulativeToken",
      "outputs": [],
      "stateMutability": "nonpayable",
      "type": "function"
    },
    {
      "inputs": [
        {
          "internalType": "address",
          "name": "newPauser",
          "type": "address"
        }
      ],
      "name": "changePauser",
      "outputs": [],
      "stateMutability": "nonpayable",
      "type": "function"
    },
    {
      "inputs": [
        {
          "internalType": "address",
          "name": "_uniswapRouter",
          "type": "address"
        }
      ],
      "name": "changeUniswapRouter",
      "outputs": [],
      "stateMutability": "nonpayable",
      "type": "function"
    },
    {
      "inputs": [],
      "name": "cumulativeToken",
      "outputs": [
        {
          "internalType": "contract ERC20",
          "name": "",
          "type": "address"
        }
      ],
      "stateMutability": "view",
      "type": "function"
    },
    {
      "inputs": [],
      "name": "owner",
      "outputs": [
        {
          "internalType": "address",
          "name": "",
          "type": "address"
        }
      ],
      "stateMutability": "view",
      "type": "function"
    },
    {
      "inputs": [],
      "name": "pause",
      "outputs": [],
      "stateMutability": "nonpayable",
      "type": "function"
    },
    {
      "inputs": [],
      "name": "paused",
      "outputs": [
        {
          "internalType": "bool",
          "name": "",
          "type": "bool"
        }
      ],
      "stateMutability": "view",
      "type": "function"
    },
    {
      "inputs": [],
      "name": "pauser",
      "outputs": [
        {
          "internalType": "address",
          "name": "",
          "type": "address"
        }
      ],
      "stateMutability": "view",
      "type": "function"
    },
    {
      "inputs": [
        {
          "internalType": "address",
          "name": "currency",
          "type": "address"
        },
        {
          "internalType": "uint256",
          "name": "payment",
          "type": "uint256"
        }
      ],
      "name": "price",
      "outputs": [
        {
          "internalType": "uint256",
          "name": "product",
          "type": "uint256"
        },
        {
          "internalType": "uint256",
          "name": "reward",
          "type": "uint256"
        }
      ],
      "stateMutability": "view",
      "type": "function"
    },
    {
      "inputs": [],
      "name": "productToken",
      "outputs": [
        {
          "internalType": "contract ERC20",
          "name": "",
          "type": "address"
        }
      ],
      "stateMutability": "view",
      "type": "function"
    },
    {
      "inputs": [],
      "name": "renounceOwnership",
      "outputs": [],
      "stateMutability": "nonpayable",
      "type": "function"
    },
    {
      "inputs": [],
      "name": "rewardToken",
      "outputs": [
        {
          "internalType": "contract ERC20",
          "name": "",
          "type": "address"
        }
      ],
      "stateMutability": "view",
      "type": "function"
    },
    {
      "inputs": [
        {
          "internalType": "address",
          "name": "from",
          "type": "address"
        },
        {
          "internalType": "address",
          "name": "recipient",
          "type": "address"
        },
        {
          "internalType": "uint256",
          "name": "amount",
          "type": "uint256"
        }
      ],
      "name": "transfer",
      "outputs": [],
      "stateMutability": "nonpayable",
      "type": "function"
    },
    {
      "inputs": [
        {
          "internalType": "address",
          "name": "newOwner",
          "type": "address"
        }
      ],
      "name": "transferOwnership",
      "outputs": [],
      "stateMutability": "nonpayable",
      "type": "function"
    },
    {
      "inputs": [],
      "name": "uniswapRouter",
      "outputs": [
        {
          "internalType": "contract IUniswapV2Router02",
          "name": "",
          "type": "address"
        }
      ],
      "stateMutability": "view",
      "type": "function"
    },
    {
      "inputs": [],
      "name": "unpause",
      "outputs": [],
      "stateMutability": "nonpayable",
      "type": "function"
    }
  ],
  "transactionHash": "0x05c4f6f7d69c47ef5000b51186a5b5b950efd1bb418336491163ff85873d941f",
  "args": [
    "0x0D9C8723B343A8368BebE0B5E89273fF8D712e3C",
    "0xA22ad01E517E6AA32dEa90ffCcA8703166EC0dfa",
    "0xFEFF7f0d15023B2561439dC34610D17284926fc9",
    "0x7a250d5630B4cF539739dF2C5dAcb4c659F2488D"
  ],
  "solcInputHash": "0cf4cc9fdb3e6a35148e94b9ef4590e5",
  "bytecode": "0x60c06040523480156200001157600080fd5b5060405162003798380380620037988339818101604052810190620000379190620003b0565b6000620000496200036860201b60201c565b9050806000806101000a81548173ffffffffffffffffffffffffffffffffffffffff021916908373ffffffffffffffffffffffffffffffffffffffff1602179055508073ffffffffffffffffffffffffffffffffffffffff16600073ffffffffffffffffffffffffffffffffffffffff167f8be0079c531659141344cd1fd0a4f28419497f9722a3daafe3b4186f6b6457e060405160405180910390a35060008060146101000a81548160ff021916908315150217905550620001116200037060201b60201c565b600160006101000a81548173ffffffffffffffffffffffffffffffffffffffff021916908373ffffffffffffffffffffffffffffffffffffffff1602179055508273ffffffffffffffffffffffffffffffffffffffff168473ffffffffffffffffffffffffffffffffffffffff1614158015620001ba57508173ffffffffffffffffffffffffffffffffffffffff168473ffffffffffffffffffffffffffffffffffffffff1614155b620001fc576040517f08c379a0000000000000000000000000000000000000000000000000000000008152600401620001f3906200050e565b60405180910390fd5b8173ffffffffffffffffffffffffffffffffffffffff168373ffffffffffffffffffffffffffffffffffffffff1614156200026e576040517f08c379a00000000000000000000000000000000000000000000000000000000081526004016200026590620004ec565b60405180910390fd5b83600260006101000a81548173ffffffffffffffffffffffffffffffffffffffff021916908373ffffffffffffffffffffffffffffffffffffffff1602179055508273ffffffffffffffffffffffffffffffffffffffff1660808173ffffffffffffffffffffffffffffffffffffffff1660601b815250508173ffffffffffffffffffffffffffffffffffffffff1660a08173ffffffffffffffffffffffffffffffffffffffff1660601b8152505080600360006101000a81548173ffffffffffffffffffffffffffffffffffffffff021916908373ffffffffffffffffffffffffffffffffffffffff160217905550505050506200058f565b600033905090565b60008060009054906101000a900473ffffffffffffffffffffffffffffffffffffffff16905090565b600081519050620003aa8162000575565b92915050565b60008060008060808587031215620003c757600080fd5b6000620003d78782880162000399565b9450506020620003ea8782880162000399565b9350506040620003fd8782880162000399565b9250506060620004108782880162000399565b91505092959194509250565b60006200042b60328362000530565b91507f4d61726b65743a3a636f6e7374727563746f723a20696e76616c69642070726f60008301527f6475637420746f6b656e206164647265737300000000000000000000000000006020830152604082019050919050565b60006200049360358362000530565b91507f4d61726b65743a3a636f6e7374727563746f723a20696e76616c69642063756d60008301527f756c617469766520746f6b656e206164647265737300000000000000000000006020830152604082019050919050565b6000602082019050818103600083015262000507816200041c565b9050919050565b60006020820190508181036000830152620005298162000484565b9050919050565b600082825260208201905092915050565b60006200054e8262000555565b9050919050565b600073ffffffffffffffffffffffffffffffffffffffff82169050919050565b620005808162000541565b81146200058c57600080fd5b50565b60805160601c60a05160601c6131bc620005dc6000398061053152806110d552806117cd5280611dd95250806102ef52806104da52806105c15280610ced5280611bcd52506131bc6000f3fe608060405234801561001057600080fd5b506004361061010b5760003560e01c80638456cb59116100a2578063ad9b802411610071578063ad9b80241461024a578063beabacc81461027b578063c337083714610297578063f2fde38b146102b3578063f7c618c1146102cf5761010b565b80638456cb59146101d45780638da5cb5b146101de5780639fd0506d146101fc578063a59ac6dd1461021a5761010b565b806357cbe1be116100de57806357cbe1be146101705780635c975abb1461018e578063715018a6146101ac578063735de9f7146101b65761010b565b806325b4f65f146101105780632cd271e71461012e5780633a3c2da71461014a5780633f4ba83a14610166575b600080fd5b6101186102ed565b6040516101259190612c71565b60405180910390f35b6101486004803603810190610143919061235a565b610311565b005b610164600480360381019061015f9190612383565b610443565b005b61016e6108a3565b005b610178610988565b6040516101859190612c71565b60405180910390f35b6101966109ae565b6040516101a39190612c56565b60405180910390f35b6101b46109c4565b005b6101be610b17565b6040516101cb9190612c8c565b60405180910390f35b6101dc610b3d565b005b6101e6610c22565b6040516101f39190612b97565b60405180910390f35b610204610c4b565b6040516102119190612b97565b60405180910390f35b610234600480360381019061022f919061244a565b610c71565b6040516102419190612c56565b60405180910390f35b610264600480360381019061025f919061240e565b611194565b604051610272929190612e99565b60405180910390f35b610295600480360381019061029091906123bf565b6113b8565b005b6102b160048036038101906102ac919061235a565b6114ed565b005b6102cd60048036038101906102c8919061235a565b611609565b005b6102d76117cb565b6040516102e49190612c71565b60405180910390f35b7f000000000000000000000000000000000000000000000000000000000000000081565b6103196117ef565b73ffffffffffffffffffffffffffffffffffffffff1660008054906101000a900473ffffffffffffffffffffffffffffffffffffffff1673ffffffffffffffffffffffffffffffffffffffff16146103a6576040517f08c379a000000000000000000000000000000000000000000000000000000000815260040161039d90612d89565b60405180910390fd5b80600160006101000a81548173ffffffffffffffffffffffffffffffffffffffff021916908373ffffffffffffffffffffffffffffffffffffffff1602179055507fb80482a293ca2e013eda8683c9bd7fc8347cfdaeea5ede58cba46df502c2a604600160009054906101000a900473ffffffffffffffffffffffffffffffffffffffff166040516104389190612b97565b60405180910390a150565b61044b6117ef565b73ffffffffffffffffffffffffffffffffffffffff1660008054906101000a900473ffffffffffffffffffffffffffffffffffffffff1673ffffffffffffffffffffffffffffffffffffffff16146104d8576040517f08c379a00000000000000000000000000000000000000000000000000000000081526004016104cf90612d89565b60405180910390fd5b7f000000000000000000000000000000000000000000000000000000000000000073ffffffffffffffffffffffffffffffffffffffff168273ffffffffffffffffffffffffffffffffffffffff161415801561058057507f000000000000000000000000000000000000000000000000000000000000000073ffffffffffffffffffffffffffffffffffffffff168273ffffffffffffffffffffffffffffffffffffffff1614155b6105bf576040517f08c379a00000000000000000000000000000000000000000000000000000000081526004016105b690612e29565b60405180910390fd5b7f000000000000000000000000000000000000000000000000000000000000000073ffffffffffffffffffffffffffffffffffffffff1663313ce5676040518163ffffffff1660e01b815260040160206040518083038186803b15801561062557600080fd5b505afa158015610639573d6000803e3d6000fd5b505050506040513d601f19601f8201168201806040525081019061065d919061252c565b60ff16600260009054906101000a900473ffffffffffffffffffffffffffffffffffffffff1673ffffffffffffffffffffffffffffffffffffffff1663313ce5676040518163ffffffff1660e01b815260040160206040518083038186803b1580156106c857600080fd5b505afa1580156106dc573d6000803e3d6000fd5b505050506040513d601f19601f82011682018060405250810190610700919061252c565b60ff161115610744576040517f08c379a000000000000000000000000000000000000000000000000000000000815260040161073b90612da9565b60405180910390fd5b61081b600260009054906101000a900473ffffffffffffffffffffffffffffffffffffffff1682600260009054906101000a900473ffffffffffffffffffffffffffffffffffffffff1673ffffffffffffffffffffffffffffffffffffffff166370a08231306040518263ffffffff1660e01b81526004016107c69190612b97565b60206040518083038186803b1580156107de57600080fd5b505afa1580156107f2573d6000803e3d6000fd5b505050506040513d601f19601f820116820180604052508101906108169190612503565b6113b8565b81600260006101000a81548173ffffffffffffffffffffffffffffffffffffffff021916908373ffffffffffffffffffffffffffffffffffffffff1602179055508173ffffffffffffffffffffffffffffffffffffffff167f211984bb289184fd6dff2b81a63abf6245c2ad65b2509acf4cdff1fcc0a8734c60405160405180910390a25050565b6108ab6117ef565b73ffffffffffffffffffffffffffffffffffffffff16600160009054906101000a900473ffffffffffffffffffffffffffffffffffffffff1673ffffffffffffffffffffffffffffffffffffffff16148061093f57506109096117ef565b73ffffffffffffffffffffffffffffffffffffffff16610927610c22565b73ffffffffffffffffffffffffffffffffffffffff16145b61097e576040517f08c379a000000000000000000000000000000000000000000000000000000000815260040161097590612d29565b60405180910390fd5b6109866117f7565b565b600260009054906101000a900473ffffffffffffffffffffffffffffffffffffffff1681565b60008060149054906101000a900460ff16905090565b6109cc6117ef565b73ffffffffffffffffffffffffffffffffffffffff1660008054906101000a900473ffffffffffffffffffffffffffffffffffffffff1673ffffffffffffffffffffffffffffffffffffffff1614610a59576040517f08c379a0000000000000000000000000000000000000000000000000000000008152600401610a5090612d89565b60405180910390fd5b600073ffffffffffffffffffffffffffffffffffffffff1660008054906101000a900473ffffffffffffffffffffffffffffffffffffffff1673ffffffffffffffffffffffffffffffffffffffff167f8be0079c531659141344cd1fd0a4f28419497f9722a3daafe3b4186f6b6457e060405160405180910390a360008060006101000a81548173ffffffffffffffffffffffffffffffffffffffff021916908373ffffffffffffffffffffffffffffffffffffffff160217905550565b600360009054906101000a900473ffffffffffffffffffffffffffffffffffffffff1681565b610b456117ef565b73ffffffffffffffffffffffffffffffffffffffff16600160009054906101000a900473ffffffffffffffffffffffffffffffffffffffff1673ffffffffffffffffffffffffffffffffffffffff161480610bd95750610ba36117ef565b73ffffffffffffffffffffffffffffffffffffffff16610bc1610c22565b73ffffffffffffffffffffffffffffffffffffffff16145b610c18576040517f08c379a0000000000000000000000000000000000000000000000000000000008152600401610c0f90612d09565b60405180910390fd5b610c206118a0565b565b60008060009054906101000a900473ffffffffffffffffffffffffffffffffffffffff16905090565b600160009054906101000a900473ffffffffffffffffffffffffffffffffffffffff1681565b60008060149054906101000a900460ff1615610cc2576040517f08c379a0000000000000000000000000000000000000000000000000000000008152600401610cb990612d49565b60405180910390fd5b6000600260009054906101000a900473ffffffffffffffffffffffffffffffffffffffff16905060007f000000000000000000000000000000000000000000000000000000000000000090506000600360009054906101000a900473ffffffffffffffffffffffffffffffffffffffff1690506000610d3f6117ef565b90506000879050610d7382308a8c73ffffffffffffffffffffffffffffffffffffffff1661194b909392919063ffffffff16565b8473ffffffffffffffffffffffffffffffffffffffff168973ffffffffffffffffffffffffffffffffffffffff161461108a576060600267ffffffffffffffff81118015610dc057600080fd5b50604051908082528060200260200182016040528015610def5781602001602082028036833780820191505090505b5090508981600081518110610e0057fe5b602002602001019073ffffffffffffffffffffffffffffffffffffffff16908173ffffffffffffffffffffffffffffffffffffffff16815250508581600181518110610e4857fe5b602002602001019073ffffffffffffffffffffffffffffffffffffffff16908173ffffffffffffffffffffffffffffffffffffffff16815250506000610fac610f9a8873ffffffffffffffffffffffffffffffffffffffff1663313ce5676040518163ffffffff1660e01b815260040160206040518083038186803b158015610ed057600080fd5b505afa158015610ee4573d6000803e3d6000fd5b505050506040513d601f19601f82011682018060405250810190610f08919061252c565b60ff168873ffffffffffffffffffffffffffffffffffffffff1663313ce5676040518163ffffffff1660e01b815260040160206040518083038186803b158015610f5157600080fd5b505afa158015610f65573d6000803e3d6000fd5b505050506040513d601f19601f82011682018060405250810190610f89919061252c565b60ff166119d490919063ffffffff16565b600a0a8a611a1e90919063ffffffff16565b9050610fd9858b8d73ffffffffffffffffffffffffffffffffffffffff16611a689092919063ffffffff16565b8473ffffffffffffffffffffffffffffffffffffffff166338ed17398b838530426040518663ffffffff1660e01b815260040161101a959493929190612ec2565b600060405180830381600087803b15801561103457600080fd5b505af1158015611048573d6000803e3d6000fd5b505050506040513d6000823e3d601f19601f820116820180604052508101906110719190612499565b60018151811061107d57fe5b6020026020010151925050505b60008061109683611bc6565b915091506110c584838873ffffffffffffffffffffffffffffffffffffffff16611ea79092919063ffffffff16565b600081111561111a5761111984827f000000000000000000000000000000000000000000000000000000000000000073ffffffffffffffffffffffffffffffffffffffff16611ea79092919063ffffffff16565b5b8a73ffffffffffffffffffffffffffffffffffffffff168473ffffffffffffffffffffffffffffffffffffffff167ef93dbdb72854b6b6fb35433086556f2635fc83c37080c667496fecfa650fb48c858560405161117a93929190612f1c565b60405180910390a360019750505050505050509392505050565b6000806000600260009054906101000a900473ffffffffffffffffffffffffffffffffffffffff16905060008490508173ffffffffffffffffffffffffffffffffffffffff168673ffffffffffffffffffffffffffffffffffffffff16146113a2576060600267ffffffffffffffff8111801561121057600080fd5b5060405190808252806020026020018201604052801561123f5781602001602082028036833780820191505090505b509050868160008151811061125057fe5b602002602001019073ffffffffffffffffffffffffffffffffffffffff16908173ffffffffffffffffffffffffffffffffffffffff1681525050828160018151811061129857fe5b602002602001019073ffffffffffffffffffffffffffffffffffffffff16908173ffffffffffffffffffffffffffffffffffffffff16815250506060600360009054906101000a900473ffffffffffffffffffffffffffffffffffffffff1673ffffffffffffffffffffffffffffffffffffffff1663d06ca61f88846040518363ffffffff1660e01b8152600401611331929190612e69565b60006040518083038186803b15801561134957600080fd5b505afa15801561135d573d6000803e3d6000fd5b505050506040513d6000823e3d601f19601f820116820180604052508101906113869190612499565b90508060018151811061139557fe5b6020026020010151925050505b6113ab81611bc6565b9350935050509250929050565b6113c06117ef565b73ffffffffffffffffffffffffffffffffffffffff1660008054906101000a900473ffffffffffffffffffffffffffffffffffffffff1673ffffffffffffffffffffffffffffffffffffffff161461144d576040517f08c379a000000000000000000000000000000000000000000000000000000000815260040161144490612d89565b60405180910390fd5b600073ffffffffffffffffffffffffffffffffffffffff168273ffffffffffffffffffffffffffffffffffffffff1614156114bd576040517f08c379a00000000000000000000000000000000000000000000000000000000081526004016114b490612de9565b60405180910390fd5b6114e882828573ffffffffffffffffffffffffffffffffffffffff16611ea79092919063ffffffff16565b505050565b6114f56117ef565b73ffffffffffffffffffffffffffffffffffffffff1660008054906101000a900473ffffffffffffffffffffffffffffffffffffffff1673ffffffffffffffffffffffffffffffffffffffff1614611582576040517f08c379a000000000000000000000000000000000000000000000000000000000815260040161157990612d89565b60405180910390fd5b80600360006101000a81548173ffffffffffffffffffffffffffffffffffffffff021916908373ffffffffffffffffffffffffffffffffffffffff1602179055508073ffffffffffffffffffffffffffffffffffffffff167f0a3776494a324cdd72863deb1475d9eb705db96d66e7e199f3ebe4948343a43860405160405180910390a250565b6116116117ef565b73ffffffffffffffffffffffffffffffffffffffff1660008054906101000a900473ffffffffffffffffffffffffffffffffffffffff1673ffffffffffffffffffffffffffffffffffffffff161461169e576040517f08c379a000000000000000000000000000000000000000000000000000000000815260040161169590612d89565b60405180910390fd5b600073ffffffffffffffffffffffffffffffffffffffff168173ffffffffffffffffffffffffffffffffffffffff16141561170e576040517f08c379a000000000000000000000000000000000000000000000000000000000815260040161170590612ce9565b60405180910390fd5b8073ffffffffffffffffffffffffffffffffffffffff1660008054906101000a900473ffffffffffffffffffffffffffffffffffffffff1673ffffffffffffffffffffffffffffffffffffffff167f8be0079c531659141344cd1fd0a4f28419497f9722a3daafe3b4186f6b6457e060405160405180910390a3806000806101000a81548173ffffffffffffffffffffffffffffffffffffffff021916908373ffffffffffffffffffffffffffffffffffffffff16021790555050565b7f000000000000000000000000000000000000000000000000000000000000000081565b600033905090565b600060149054906101000a900460ff16611846576040517f08c379a000000000000000000000000000000000000000000000000000000000815260040161183d90612cc9565b60405180910390fd5b60008060146101000a81548160ff0219169083151502179055507f5db9ee0a495bf2e6ff9c91a7834c1ba4fdd244a5e8aa4e537bd38aeae4b073aa6118896117ef565b6040516118969190612bb2565b60405180910390a1565b600060149054906101000a900460ff16156118f0576040517f08c379a00000000000000000000000000000000000000000000000000000000081526004016118e790612d49565b60405180910390fd5b6001600060146101000a81548160ff0219169083151502179055507f62e78cea01bee320cd4e420270b5ea74000d11b0c9f74754ebdbfc544b05a2586119346117ef565b6040516119419190612bb2565b60405180910390a1565b6119ce846323b872dd60e01b85858560405160240161196c93929190612bf6565b604051602081830303815290604052907bffffffffffffffffffffffffffffffffffffffffffffffffffffffff19166020820180517bffffffffffffffffffffffffffffffffffffffffffffffffffffffff8381831617835250505050611f2d565b50505050565b6000611a1683836040518060400160405280601e81526020017f536166654d6174683a207375627472616374696f6e206f766572666c6f770000815250611ff4565b905092915050565b6000611a6083836040518060400160405280601a81526020017f536166654d6174683a206469766973696f6e206279207a65726f00000000000081525061204f565b905092915050565b6000811480611b01575060008373ffffffffffffffffffffffffffffffffffffffff1663dd62ed3e30856040518363ffffffff1660e01b8152600401611aaf929190612bcd565b60206040518083038186803b158015611ac757600080fd5b505afa158015611adb573d6000803e3d6000fd5b505050506040513d601f19601f82011682018060405250810190611aff9190612503565b145b611b40576040517f08c379a0000000000000000000000000000000000000000000000000000000008152600401611b3790612e49565b60405180910390fd5b611bc18363095ea7b360e01b8484604051602401611b5f929190612c2d565b604051602081830303815290604052907bffffffffffffffffffffffffffffffffffffffffffffffffffffffff19166020820180517bffffffffffffffffffffffffffffffffffffffffffffffffffffffff8381831617835250505050611f2d565b505050565b60008060007f00000000000000000000000000000000000000000000000000000000000000009050611d38611d26600260009054906101000a900473ffffffffffffffffffffffffffffffffffffffff1673ffffffffffffffffffffffffffffffffffffffff1663313ce5676040518163ffffffff1660e01b815260040160206040518083038186803b158015611c5c57600080fd5b505afa158015611c70573d6000803e3d6000fd5b505050506040513d601f19601f82011682018060405250810190611c94919061252c565b60ff168373ffffffffffffffffffffffffffffffffffffffff1663313ce5676040518163ffffffff1660e01b815260040160206040518083038186803b158015611cdd57600080fd5b505afa158015611cf1573d6000803e3d6000fd5b505050506040513d601f19601f82011682018060405250810190611d15919061252c565b60ff166119d490919063ffffffff16565b600a0a856120b090919063ffffffff16565b925060008173ffffffffffffffffffffffffffffffffffffffff166370a08231306040518263ffffffff1660e01b8152600401611d759190612b97565b60206040518083038186803b158015611d8d57600080fd5b505afa158015611da1573d6000803e3d6000fd5b505050506040513d601f19601f82011682018060405250810190611dc59190612503565b90506000811115611ea057611e9d81611e8f7f000000000000000000000000000000000000000000000000000000000000000073ffffffffffffffffffffffffffffffffffffffff166370a08231306040518263ffffffff1660e01b8152600401611e309190612b97565b60206040518083038186803b158015611e4857600080fd5b505afa158015611e5c573d6000803e3d6000fd5b505050506040513d601f19601f82011682018060405250810190611e809190612503565b876120b090919063ffffffff16565b611a1e90919063ffffffff16565b92505b5050915091565b611f288363a9059cbb60e01b8484604051602401611ec6929190612c2d565b604051602081830303815290604052907bffffffffffffffffffffffffffffffffffffffffffffffffffffffff19166020820180517bffffffffffffffffffffffffffffffffffffffffffffffffffffffff8381831617835250505050611f2d565b505050565b6060611f8f826040518060400160405280602081526020017f5361666545524332303a206c6f772d6c6576656c2063616c6c206661696c65648152508573ffffffffffffffffffffffffffffffffffffffff166121209092919063ffffffff16565b9050600081511115611fef5780806020019051810190611faf91906124da565b611fee576040517f08c379a0000000000000000000000000000000000000000000000000000000008152600401611fe590612e09565b60405180910390fd5b5b505050565b600083831115829061203c576040517f08c379a00000000000000000000000000000000000000000000000000000000081526004016120339190612ca7565b60405180910390fd5b5060008385039050809150509392505050565b60008083118290612096576040517f08c379a000000000000000000000000000000000000000000000000000000000815260040161208d9190612ca7565b60405180910390fd5b5060008385816120a257fe5b049050809150509392505050565b6000808314156120c3576000905061211a565b60008284029050828482816120d457fe5b0414612115576040517f08c379a000000000000000000000000000000000000000000000000000000000815260040161210c90612d69565b60405180910390fd5b809150505b92915050565b606061212f8484600085612138565b90509392505050565b60606121438561225b565b612182576040517f08c379a000000000000000000000000000000000000000000000000000000000815260040161217990612dc9565b60405180910390fd5b600060608673ffffffffffffffffffffffffffffffffffffffff1685876040516121ac9190612b80565b60006040518083038185875af1925050503d80600081146121e9576040519150601f19603f3d011682016040523d82523d6000602084013e6121ee565b606091505b50915091508115612203578092505050612253565b6000815111156122165780518082602001fd5b836040517f08c379a000000000000000000000000000000000000000000000000000000000815260040161224a9190612ca7565b60405180910390fd5b949350505050565b600080823b905060008111915050919050565b60008135905061227d8161312a565b92915050565b600082601f83011261229457600080fd5b81516122a76122a282612f80565b612f53565b915081818352602084019350602081019050838560208402820111156122cc57600080fd5b60005b838110156122fc57816122e28882612330565b8452602084019350602083019250506001810190506122cf565b5050505092915050565b60008151905061231581613141565b92915050565b60008135905061232a81613158565b92915050565b60008151905061233f81613158565b92915050565b6000815190506123548161316f565b92915050565b60006020828403121561236c57600080fd5b600061237a8482850161226e565b91505092915050565b6000806040838503121561239657600080fd5b60006123a48582860161226e565b92505060206123b58582860161226e565b9150509250929050565b6000806000606084860312156123d457600080fd5b60006123e28682870161226e565b93505060206123f38682870161226e565b92505060406124048682870161231b565b9150509250925092565b6000806040838503121561242157600080fd5b600061242f8582860161226e565b92505060206124408582860161231b565b9150509250929050565b60008060006060848603121561245f57600080fd5b600061246d8682870161226e565b935050602061247e8682870161231b565b925050604061248f8682870161231b565b9150509250925092565b6000602082840312156124ab57600080fd5b600082015167ffffffffffffffff8111156124c557600080fd5b6124d184828501612283565b91505092915050565b6000602082840312156124ec57600080fd5b60006124fa84828501612306565b91505092915050565b60006020828403121561251557600080fd5b600061252384828501612330565b91505092915050565b60006020828403121561253e57600080fd5b600061254c84828501612345565b91505092915050565b6000612561838361257c565b60208301905092915050565b61257681613068565b82525050565b61258581613013565b82525050565b61259481613013565b82525050565b60006125a582612fb8565b6125af8185612fe6565b93506125ba83612fa8565b8060005b838110156125eb5781516125d28882612555565b97506125dd83612fd9565b9250506001810190506125be565b5085935050505092915050565b61260181613025565b82525050565b600061261282612fc3565b61261c8185612ff7565b935061262c8185602086016130e6565b80840191505092915050565b6126418161307a565b82525050565b6126508161309e565b82525050565b600061266182612fce565b61266b8185613002565b935061267b8185602086016130e6565b61268481613119565b840191505092915050565b600061269c601483613002565b91507f5061757361626c653a206e6f74207061757365640000000000000000000000006000830152602082019050919050565b60006126dc602683613002565b91507f4f776e61626c653a206e6577206f776e657220697320746865207a65726f206160008301527f64647265737300000000000000000000000000000000000000000000000000006020830152604082019050919050565b6000612742604183613002565b91507f4f776e61626c655061757361626c653a3a70617573653a206f6e6c792070617560008301527f73657220616e64206f776e6572206d75737420706175736520636f6e7472616360208301527f74000000000000000000000000000000000000000000000000000000000000006040830152606082019050919050565b60006127ce604583613002565b91507f4f776e61626c655061757361626c653a3a756e70617573653a206f6e6c79207060008301527f617573657220616e64206f776e6572206d75737420756e706175736520636f6e60208301527f74726163740000000000000000000000000000000000000000000000000000006040830152606082019050919050565b600061285a601083613002565b91507f5061757361626c653a20706175736564000000000000000000000000000000006000830152602082019050919050565b600061289a602183613002565b91507f536166654d6174683a206d756c7469706c69636174696f6e206f766572666c6f60008301527f77000000000000000000000000000000000000000000000000000000000000006020830152604082019050919050565b6000612900602083613002565b91507f4f776e61626c653a2063616c6c6572206973206e6f7420746865206f776e65726000830152602082019050919050565b6000612940604083613002565b91507f4d61726b65743a3a6368616e676543756d756c6174697665546f6b656e3a206960008301527f6e76616c69642063756d756c617469766520746f6b656e20646563696d616c736020830152604082019050919050565b60006129a6601d83613002565b91507f416464726573733a2063616c6c20746f206e6f6e2d636f6e74726163740000006000830152602082019050919050565b60006129e6603583613002565b91507f4d61726b65743a3a7472616e736665723a2063616e6e6f74207472616e73666560008301527f7220746f20746865207a65726f206164647265737300000000000000000000006020830152604082019050919050565b6000612a4c602a83613002565b91507f5361666545524332303a204552433230206f7065726174696f6e20646964206e60008301527f6f742073756363656564000000000000000000000000000000000000000000006020830152604082019050919050565b6000612ab2603f83613002565b91507f4d61726b65743a3a6368616e676543756d756c6174697665546f6b656e3a206960008301527f6e76616c69642063756d756c617469766520746f6b656e2061646472657373006020830152604082019050919050565b6000612b18603683613002565b91507f5361666545524332303a20617070726f76652066726f6d206e6f6e2d7a65726f60008301527f20746f206e6f6e2d7a65726f20616c6c6f77616e6365000000000000000000006020830152604082019050919050565b612b7a81613051565b82525050565b6000612b8c8284612607565b915081905092915050565b6000602082019050612bac600083018461258b565b92915050565b6000602082019050612bc7600083018461256d565b92915050565b6000604082019050612be2600083018561258b565b612bef602083018461258b565b9392505050565b6000606082019050612c0b600083018661258b565b612c18602083018561258b565b612c256040830184612b71565b949350505050565b6000604082019050612c42600083018561258b565b612c4f6020830184612b71565b9392505050565b6000602082019050612c6b60008301846125f8565b92915050565b6000602082019050612c866000830184612638565b92915050565b6000602082019050612ca16000830184612647565b92915050565b60006020820190508181036000830152612cc18184612656565b905092915050565b60006020820190508181036000830152612ce28161268f565b9050919050565b60006020820190508181036000830152612d02816126cf565b9050919050565b60006020820190508181036000830152612d2281612735565b9050919050565b60006020820190508181036000830152612d42816127c1565b9050919050565b60006020820190508181036000830152612d628161284d565b9050919050565b60006020820190508181036000830152612d828161288d565b9050919050565b60006020820190508181036000830152612da2816128f3565b9050919050565b60006020820190508181036000830152612dc281612933565b9050919050565b60006020820190508181036000830152612de281612999565b9050919050565b60006020820190508181036000830152612e02816129d9565b9050919050565b60006020820190508181036000830152612e2281612a3f565b9050919050565b60006020820190508181036000830152612e4281612aa5565b9050919050565b60006020820190508181036000830152612e6281612b0b565b9050919050565b6000604082019050612e7e6000830185612b71565b8181036020830152612e90818461259a565b90509392505050565b6000604082019050612eae6000830185612b71565b612ebb6020830184612b71565b9392505050565b600060a082019050612ed76000830188612b71565b612ee46020830187612b71565b8181036040830152612ef6818661259a565b9050612f05606083018561258b565b612f126080830184612b71565b9695505050505050565b6000606082019050612f316000830186612b71565b612f3e6020830185612b71565b612f4b6040830184612b71565b949350505050565b6000604051905081810181811067ffffffffffffffff82111715612f7657600080fd5b8060405250919050565b600067ffffffffffffffff821115612f9757600080fd5b602082029050602081019050919050565b6000819050602082019050919050565b600081519050919050565b600081519050919050565b600081519050919050565b6000602082019050919050565b600082825260208201905092915050565b600081905092915050565b600082825260208201905092915050565b600061301e82613031565b9050919050565b60008115159050919050565b600073ffffffffffffffffffffffffffffffffffffffff82169050919050565b6000819050919050565b600060ff82169050919050565b6000613073826130c2565b9050919050565b60006130858261308c565b9050919050565b600061309782613031565b9050919050565b60006130a9826130b0565b9050919050565b60006130bb82613031565b9050919050565b60006130cd826130d4565b9050919050565b60006130df82613031565b9050919050565b60005b838110156131045780820151818401526020810190506130e9565b83811115613113576000848401525b50505050565b6000601f19601f8301169050919050565b61313381613013565b811461313e57600080fd5b50565b61314a81613025565b811461315557600080fd5b50565b61316181613051565b811461316c57600080fd5b50565b6131788161305b565b811461318357600080fd5b5056fea2646970667358221220648df257afadd432573ae183b867551692bcdd4b661d7d4ed02ce3288037e84864736f6c634300060c0033",
  "devdoc": {
    "kind": "dev",
    "methods": {
      "buy(address,uint256,uint256)": {
        "params": {
          "currency": "Currency token.",
          "payment": "Amount of payment.",
          "productMin": "Minimum amount of output product token."
        },
        "returns": {
          "_0": "True if success."
        }
      },
      "changeCumulativeToken(address,address)": {
        "params": {
          "newCumulativeToken": "Address new cumulative token.",
          "recipient": "Address of recipient for withdraw current cumulative balance."
        }
      },
      "changePauser(address)": {
        "params": {
          "newPauser": "Address of new pauser account."
        }
      },
      "changeUniswapRouter(address)": {
        "params": {
          "_uniswapRouter": "Address new uniswap router contract."
        }
      },
      "constructor": {
        "params": {
          "_cumulativeToken": "Address of cumulative token.",
          "_productToken": "Address of product token.",
          "_rewardToken": "Address of reward token.",
          "_uniswapRouter": "Address of Uniswap router contract."
        }
      },
      "owner()": {
        "details": "Returns the address of the current owner."
      },
      "paused()": {
        "details": "Returns true if the contract is paused, and false otherwise."
      },
      "price(address,uint256)": {
        "params": {
          "currency": "Currency token.",
          "payment": "Amount of payment."
        },
        "returns": {
          "product": "Amount of product token.",
          "reward": "Amount of reward token."
        }
      },
      "renounceOwnership()": {
        "details": "Leaves the contract without owner. It will not be possible to call `onlyOwner` functions anymore. Can only be called by the current owner. NOTE: Renouncing ownership will leave the contract without an owner, thereby removing any functionality that is only available to the owner."
      },
      "transfer(address,address,uint256)": {
        "details": "Transfer token to recipient.",
        "params": {
          "amount": "Amount of transfered token.",
          "from": "Address of transfered token contract.",
          "recipient": "Address of recipient."
        }
      },
      "transferOwnership(address)": {
        "details": "Transfers ownership of the contract to a new account (`newOwner`). Can only be called by the current owner."
      }
    },
    "stateVariables": {
      "uniswapRouter": {
        "details": "Address of UniswapV2Router."
      }
    },
    "version": 1
  },
  "userdoc": {
    "events": {
      "Buy(address,address,uint256,uint256,uint256)": {
        "notice": "An event thats emitted when an account buyed token."
      },
      "CumulativeChanged(address)": {
        "notice": "An event thats emitted when an cumulative token changed."
      },
      "PauserChanged(address)": {
        "notice": "An event thats emitted when an pauser address changed."
      },
      "UniswapRouterChanged(address)": {
        "notice": "An event thats emitted when an uniswap router contract address changed."
      }
    },
    "kind": "user",
    "methods": {
      "buy(address,uint256,uint256)": {
        "notice": "Buy token with ERC20."
      },
      "changeCumulativeToken(address,address)": {
        "notice": "Changed cumulative token address."
      },
      "changePauser(address)": {
        "notice": "Change pauser account."
      },
      "changeUniswapRouter(address)": {
        "notice": "Changed uniswap router contract address."
      },
      "cumulativeToken()": {
        "notice": "Address of cumulative token."
      },
      "pause()": {
        "notice": "Triggers stopped state."
      },
      "pauser()": {
        "notice": "Address that can pause a contract."
      },
      "price(address,uint256)": {
        "notice": "Get token price."
      },
      "productToken()": {
        "notice": "Address of product token contract."
      },
      "rewardToken()": {
        "notice": "Address of reward token contract."
      },
      "unpause()": {
        "notice": "Returns to normal state."
      }
    },
    "version": 1
  },
  "storageLayout": {
    "storage": [
      {
        "astId": 30,
        "contract": "contracts/Market.sol:Market",
        "label": "_owner",
        "offset": 0,
        "slot": "0",
        "type": "t_address"
      },
      {
        "astId": 1985,
        "contract": "contracts/Market.sol:Market",
        "label": "_paused",
        "offset": 20,
        "slot": "0",
        "type": "t_bool"
      },
      {
        "astId": 17902,
        "contract": "contracts/Market.sol:Market",
        "label": "pauser",
        "offset": 0,
        "slot": "1",
        "type": "t_address"
      },
      {
        "astId": 6345,
        "contract": "contracts/Market.sol:Market",
        "label": "cumulativeToken",
        "offset": 0,
        "slot": "2",
        "type": "t_contract(ERC20)1086"
      },
      {
        "astId": 6354,
        "contract": "contracts/Market.sol:Market",
        "label": "uniswapRouter",
        "offset": 0,
        "slot": "3",
        "type": "t_contract(IUniswapV2Router02)17747"
      }
    ],
    "types": {
      "t_address": {
        "encoding": "inplace",
        "label": "address",
        "numberOfBytes": "20"
      },
      "t_bool": {
        "encoding": "inplace",
        "label": "bool",
        "numberOfBytes": "1"
      },
      "t_contract(ERC20)1086": {
        "encoding": "inplace",
        "label": "contract ERC20",
        "numberOfBytes": "20"
      },
      "t_contract(IUniswapV2Router02)17747": {
        "encoding": "inplace",
        "label": "contract IUniswapV2Router02",
        "numberOfBytes": "20"
      }
    }
  }
}