{
  "address": "0xE7a4335519184FC3A4AC345dC3988E404bdcD121",
  "abi": [
    {
      "inputs": [
        {
          "internalType": "address",
          "name": "_rewardsDistribution",
          "type": "address"
        },
        {
          "internalType": "uint256",
          "name": "_rewardsDuration",
          "type": "uint256"
        },
        {
          "internalType": "address",
          "name": "_rewardsToken",
          "type": "address"
        },
        {
          "internalType": "address",
          "name": "_stakingToken",
          "type": "address"
        },
        {
          "internalType": "uint256",
          "name": "_lockPeriod",
          "type": "uint256"
        },
        {
          "internalType": "uint256",
          "name": "_unlockPeriod",
          "type": "uint256"
        }
      ],
      "stateMutability": "nonpayable",
      "type": "constructor"
    },
    {
      "anonymous": false,
      "inputs": [
        {
          "indexed": true,
          "internalType": "address",
          "name": "previousOwner",
          "type": "address"
        },
        {
          "indexed": true,
          "internalType": "address",
          "name": "newOwner",
          "type": "address"
        }
      ],
      "name": "OwnershipTransferred",
      "type": "event"
    },
    {
      "anonymous": false,
      "inputs": [
        {
          "indexed": false,
          "internalType": "address",
          "name": "account",
          "type": "address"
        }
      ],
      "name": "Paused",
      "type": "event"
    },
    {
      "anonymous": false,
      "inputs": [
        {
          "indexed": false,
          "internalType": "address",
          "name": "newPauser",
          "type": "address"
        }
      ],
      "name": "PauserChanged",
      "type": "event"
    },
    {
      "anonymous": false,
      "inputs": [
        {
          "indexed": false,
          "internalType": "uint256",
          "name": "reward",
          "type": "uint256"
        }
      ],
      "name": "RewardAdded",
      "type": "event"
    },
    {
      "anonymous": false,
      "inputs": [
        {
          "indexed": true,
          "internalType": "address",
          "name": "user",
          "type": "address"
        },
        {
          "indexed": false,
          "internalType": "uint256",
          "name": "reward",
          "type": "uint256"
        }
      ],
      "name": "RewardPaid",
      "type": "event"
    },
    {
      "anonymous": false,
      "inputs": [
        {
          "indexed": false,
          "internalType": "address",
          "name": "newRewardsDistribution",
          "type": "address"
        }
      ],
      "name": "RewardsDistributionChanged",
      "type": "event"
    },
    {
      "anonymous": false,
      "inputs": [
        {
          "indexed": false,
          "internalType": "address",
          "name": "recipient",
          "type": "address"
        },
        {
          "indexed": false,
          "internalType": "uint256",
          "name": "amount",
          "type": "uint256"
        }
      ],
      "name": "RewardsTransfered",
      "type": "event"
    },
    {
      "anonymous": false,
      "inputs": [
        {
          "indexed": true,
          "internalType": "address",
          "name": "user",
          "type": "address"
        },
        {
          "indexed": false,
          "internalType": "uint256",
          "name": "amount",
          "type": "uint256"
        }
      ],
      "name": "Staked",
      "type": "event"
    },
    {
      "anonymous": false,
      "inputs": [
        {
          "indexed": false,
          "internalType": "address",
          "name": "account",
          "type": "address"
        }
      ],
      "name": "Unpaused",
      "type": "event"
    },
    {
      "anonymous": false,
      "inputs": [
        {
          "indexed": true,
          "internalType": "address",
          "name": "user",
          "type": "address"
        },
        {
          "indexed": false,
          "internalType": "uint256",
          "name": "amount",
          "type": "uint256"
        }
      ],
      "name": "Withdrawn",
      "type": "event"
    },
    {
      "inputs": [
        {
          "internalType": "address",
          "name": "account",
          "type": "address"
        }
      ],
      "name": "balanceOf",
      "outputs": [
        {
          "internalType": "uint256",
          "name": "",
          "type": "uint256"
        }
      ],
      "stateMutability": "view",
      "type": "function"
    },
    {
      "inputs": [
        {
          "internalType": "address",
          "name": "newPauser",
          "type": "address"
        }
      ],
      "name": "changePauser",
      "outputs": [],
      "stateMutability": "nonpayable",
      "type": "function"
    },
    {
      "inputs": [
        {
          "internalType": "address",
          "name": "_rewardDistribution",
          "type": "address"
        }
      ],
      "name": "changeRewardsDistribution",
      "outputs": [],
      "stateMutability": "nonpayable",
      "type": "function"
    },
    {
      "inputs": [
        {
          "internalType": "address",
          "name": "account",
          "type": "address"
        }
      ],
      "name": "earned",
      "outputs": [
        {
          "internalType": "uint256",
          "name": "",
          "type": "uint256"
        }
      ],
      "stateMutability": "view",
      "type": "function"
    },
    {
      "inputs": [],
      "name": "exit",
      "outputs": [],
      "stateMutability": "nonpayable",
      "type": "function"
    },
    {
      "inputs": [],
      "name": "getReward",
      "outputs": [],
      "stateMutability": "nonpayable",
      "type": "function"
    },
    {
      "inputs": [],
      "name": "getRewardForDuration",
      "outputs": [
        {
          "internalType": "uint256",
          "name": "",
          "type": "uint256"
        }
      ],
      "stateMutability": "view",
      "type": "function"
    },
    {
      "inputs": [],
      "name": "lastTimeRewardApplicable",
      "outputs": [
        {
          "internalType": "uint256",
          "name": "",
          "type": "uint256"
        }
      ],
      "stateMutability": "view",
      "type": "function"
    },
    {
      "inputs": [],
      "name": "lastUpdateBlock",
      "outputs": [
        {
          "internalType": "uint256",
          "name": "",
          "type": "uint256"
        }
      ],
      "stateMutability": "view",
      "type": "function"
    },
    {
      "inputs": [
        {
          "internalType": "address",
          "name": "account",
          "type": "address"
        }
      ],
      "name": "lockInfo",
      "outputs": [
        {
          "internalType": "bool",
          "name": "locked",
          "type": "bool"
        },
        {
          "internalType": "uint256",
          "name": "mod",
          "type": "uint256"
        },
        {
          "internalType": "uint256",
          "name": "nextUnlock",
          "type": "uint256"
        },
        {
          "internalType": "uint256",
          "name": "nextLock",
          "type": "uint256"
        },
        {
          "internalType": "uint256",
          "name": "stakeAt",
          "type": "uint256"
        }
      ],
      "stateMutability": "view",
      "type": "function"
    },
    {
      "inputs": [],
      "name": "lockPeriod",
      "outputs": [
        {
          "internalType": "uint256",
          "name": "",
          "type": "uint256"
        }
      ],
      "stateMutability": "view",
      "type": "function"
    },
    {
      "inputs": [
        {
          "internalType": "uint256",
          "name": "reward",
          "type": "uint256"
        }
      ],
      "name": "notifyRewardAmount",
      "outputs": [],
      "stateMutability": "nonpayable",
      "type": "function"
    },
    {
      "inputs": [],
      "name": "owner",
      "outputs": [
        {
          "internalType": "address",
          "name": "",
          "type": "address"
        }
      ],
      "stateMutability": "view",
      "type": "function"
    },
    {
      "inputs": [],
      "name": "pause",
      "outputs": [],
      "stateMutability": "nonpayable",
      "type": "function"
    },
    {
      "inputs": [],
      "name": "paused",
      "outputs": [
        {
          "internalType": "bool",
          "name": "",
          "type": "bool"
        }
      ],
      "stateMutability": "view",
      "type": "function"
    },
    {
      "inputs": [],
      "name": "pauser",
      "outputs": [
        {
          "internalType": "address",
          "name": "",
          "type": "address"
        }
      ],
      "stateMutability": "view",
      "type": "function"
    },
    {
      "inputs": [
        {
          "internalType": "address",
          "name": "account",
          "type": "address"
        }
      ],
      "name": "penalty",
      "outputs": [
        {
          "internalType": "uint256",
          "name": "",
          "type": "uint256"
        }
      ],
      "stateMutability": "view",
      "type": "function"
    },
    {
      "inputs": [],
      "name": "periodFinish",
      "outputs": [
        {
          "internalType": "uint256",
          "name": "",
          "type": "uint256"
        }
      ],
      "stateMutability": "view",
      "type": "function"
    },
    {
      "inputs": [],
      "name": "renounceOwnership",
      "outputs": [],
      "stateMutability": "nonpayable",
      "type": "function"
    },
    {
      "inputs": [],
      "name": "rewardPerToken",
      "outputs": [
        {
          "internalType": "uint256",
          "name": "",
          "type": "uint256"
        }
      ],
      "stateMutability": "view",
      "type": "function"
    },
    {
      "inputs": [],
      "name": "rewardPerTokenStored",
      "outputs": [
        {
          "internalType": "uint256",
          "name": "",
          "type": "uint256"
        }
      ],
      "stateMutability": "view",
      "type": "function"
    },
    {
      "inputs": [],
      "name": "rewardRate",
      "outputs": [
        {
          "internalType": "uint256",
          "name": "",
          "type": "uint256"
        }
      ],
      "stateMutability": "view",
      "type": "function"
    },
    {
      "inputs": [
        {
          "internalType": "address",
          "name": "",
          "type": "address"
        }
      ],
      "name": "rewards",
      "outputs": [
        {
          "internalType": "uint256",
          "name": "",
          "type": "uint256"
        }
      ],
      "stateMutability": "view",
      "type": "function"
    },
    {
      "inputs": [],
      "name": "rewardsDistribution",
      "outputs": [
        {
          "internalType": "address",
          "name": "",
          "type": "address"
        }
      ],
      "stateMutability": "view",
      "type": "function"
    },
    {
      "inputs": [],
      "name": "rewardsDuration",
      "outputs": [
        {
          "internalType": "uint256",
          "name": "",
          "type": "uint256"
        }
      ],
      "stateMutability": "view",
      "type": "function"
    },
    {
      "inputs": [],
      "name": "rewardsToken",
      "outputs": [
        {
          "internalType": "contract IERC20",
          "name": "",
          "type": "address"
        }
      ],
      "stateMutability": "view",
      "type": "function"
    },
    {
      "inputs": [
        {
          "internalType": "uint256",
          "name": "amount",
          "type": "uint256"
        }
      ],
      "name": "stake",
      "outputs": [],
      "stateMutability": "nonpayable",
      "type": "function"
    },
    {
      "inputs": [],
      "name": "stakingToken",
      "outputs": [
        {
          "internalType": "contract IERC20",
          "name": "",
          "type": "address"
        }
      ],
      "stateMutability": "view",
      "type": "function"
    },
    {
      "inputs": [],
      "name": "totalSupply",
      "outputs": [
        {
          "internalType": "uint256",
          "name": "",
          "type": "uint256"
        }
      ],
      "stateMutability": "view",
      "type": "function"
    },
    {
      "inputs": [
        {
          "internalType": "address",
          "name": "newOwner",
          "type": "address"
        }
      ],
      "name": "transferOwnership",
      "outputs": [],
      "stateMutability": "nonpayable",
      "type": "function"
    },
    {
      "inputs": [],
      "name": "unlockPeriod",
      "outputs": [
        {
          "internalType": "uint256",
          "name": "",
          "type": "uint256"
        }
      ],
      "stateMutability": "view",
      "type": "function"
    },
    {
      "inputs": [],
      "name": "unpause",
      "outputs": [],
      "stateMutability": "nonpayable",
      "type": "function"
    },
    {
      "inputs": [
        {
          "internalType": "address",
          "name": "",
          "type": "address"
        }
      ],
      "name": "userRewardPerTokenPaid",
      "outputs": [
        {
          "internalType": "uint256",
          "name": "",
          "type": "uint256"
        }
      ],
      "stateMutability": "view",
      "type": "function"
    }
  ],
  "transactionHash": "0x7c7c2aa486697de6cf0ca181a289d00c867cad2e412c93da04b2f3441f734d3f",
  "args": [
    "0x9403932015576D13Fb26B135ed7a35d5d95C18d4",
    518400,
    "0x07865c6E87B9F70255377e024ace6630C1Eaa37F",
    "0xB92D6a52c00F338DD481aeD71E15ADb936ffdd69",
    2062080,
    40320
  ],
  "numDeployments": 1,
  "solcInputHash": "0cf4cc9fdb3e6a35148e94b9ef4590e5",
  "bytecode": "0x60806040523480156200001157600080fd5b506040516200348d3803806200348d833981810160405260c08110156200003757600080fd5b8101908080519060200190929190805190602001909291908051906020019092919080519060200190929190805190602001909291908051906020019092919050505060006200008c6200028060201b60201c565b9050806000806101000a81548173ffffffffffffffffffffffffffffffffffffffff021916908373ffffffffffffffffffffffffffffffffffffffff1602179055508073ffffffffffffffffffffffffffffffffffffffff16600073ffffffffffffffffffffffffffffffffffffffff167f8be0079c531659141344cd1fd0a4f28419497f9722a3daafe3b4186f6b6457e060405160405180910390a35060008060146101000a81548160ff021916908315150217905550620001546200028860201b60201c565b600160006101000a81548173ffffffffffffffffffffffffffffffffffffffff021916908373ffffffffffffffffffffffffffffffffffffffff160217905550600160028190555085600360006101000a81548173ffffffffffffffffffffffffffffffffffffffff021916908373ffffffffffffffffffffffffffffffffffffffff1602179055508460088190555083600460006101000a81548173ffffffffffffffffffffffffffffffffffffffff021916908373ffffffffffffffffffffffffffffffffffffffff16021790555082600560006101000a81548173ffffffffffffffffffffffffffffffffffffffff021916908373ffffffffffffffffffffffffffffffffffffffff16021790555081600b8190555080600c81905550505050505050620002b1565b600033905090565b60008060009054906101000a900473ffffffffffffffffffffffffffffffffffffffff16905090565b6131cc80620002c16000396000f3fe608060405234801561001057600080fd5b50600436106101fa5760003560e01c8063715018a61161011a5780639fd0506d116100ad578063d1af0c7d1161007c578063d1af0c7d14610737578063df136d651461076b578063e9fad8ee14610789578063ebe2b12b14610793578063f2fde38b146107b1576101fa565b80639fd0506d14610699578063a218141b146106cd578063a694fc3a146106eb578063cd3daf9d14610719576101fa565b80638456cb59116100e95780638456cb59146105ab5780638b876347146105b55780638da5cb5b1461060d57806391b8e8a814610641576101fa565b8063715018a61461053157806372f702f31461053b5780637b0a47ee1461056f57806380faa57d1461058d576101fa565b80633d18b912116101925780635c975abb116101615780635c975abb146103ff578063602e291d1461041f5780636bd3b87c1461046357806370a08231146104d9576101fa565b80633d18b912146103995780633f4ba83a146103a35780633fc6df6e146103ad5780633fd8b02f146103e1576101fa565b806320d3a0b4116101ce57806320d3a0b4146102eb5780632cd271e714610309578063386a95251461034d5780633c6b16ab1461036b576101fa565b80628cc262146101ff5780630700037d1461025757806318160ddd146102af5780631c1f78eb146102cd575b600080fd5b6102416004803603602081101561021557600080fd5b81019080803573ffffffffffffffffffffffffffffffffffffffff1690602001909291905050506107f5565b6040518082815260200191505060405180910390f35b6102996004803603602081101561026d57600080fd5b81019080803573ffffffffffffffffffffffffffffffffffffffff169060200190929190505050610913565b6040518082815260200191505060405180910390f35b6102b761092b565b6040518082815260200191505060405180910390f35b6102d5610935565b6040518082815260200191505060405180910390f35b6102f3610953565b6040518082815260200191505060405180910390f35b61034b6004803603602081101561031f57600080fd5b81019080803573ffffffffffffffffffffffffffffffffffffffff169060200190929190505050610959565b005b610355610ad4565b6040518082815260200191505060405180910390f35b6103976004803603602081101561038157600080fd5b8101908080359060200190929190505050610ada565b005b6103a1610bd8565b005b6103ab611003565b005b6103b56110fe565b604051808273ffffffffffffffffffffffffffffffffffffffff16815260200191505060405180910390f35b6103e9611124565b6040518082815260200191505060405180910390f35b61040761112a565b60405180821515815260200191505060405180910390f35b6104616004803603602081101561043557600080fd5b81019080803573ffffffffffffffffffffffffffffffffffffffff169060200190929190505050611140565b005b6104a56004803603602081101561047957600080fd5b81019080803573ffffffffffffffffffffffffffffffffffffffff1690602001909291905050506112bb565b6040518086151581526020018581526020018481526020018381526020018281526020019550505050505060405180910390f35b61051b600480360360208110156104ef57600080fd5b81019080803573ffffffffffffffffffffffffffffffffffffffff169060200190929190505050611399565b6040518082815260200191505060405180910390f35b6105396113e2565b005b610543611568565b604051808273ffffffffffffffffffffffffffffffffffffffff16815260200191505060405180910390f35b61057761158e565b6040518082815260200191505060405180910390f35b610595611594565b6040518082815260200191505060405180910390f35b6105b36115a7565b005b6105f7600480360360208110156105cb57600080fd5b81019080803573ffffffffffffffffffffffffffffffffffffffff1690602001909291905050506116a2565b6040518082815260200191505060405180910390f35b6106156116ba565b604051808273ffffffffffffffffffffffffffffffffffffffff16815260200191505060405180910390f35b6106836004803603602081101561065757600080fd5b81019080803573ffffffffffffffffffffffffffffffffffffffff1690602001909291905050506116e3565b6040518082815260200191505060405180910390f35b6106a161172c565b604051808273ffffffffffffffffffffffffffffffffffffffff16815260200191505060405180910390f35b6106d5611752565b6040518082815260200191505060405180910390f35b6107176004803603602081101561070157600080fd5b8101908080359060200190929190505050611758565b005b610721611b5e565b6040518082815260200191505060405180910390f35b61073f611bec565b604051808273ffffffffffffffffffffffffffffffffffffffff16815260200191505060405180910390f35b610773611c12565b6040518082815260200191505060405180910390f35b610791611c18565b005b61079b611d16565b6040518082815260200191505060405180910390f35b6107f3600480360360208110156107c757600080fd5b81019080803573ffffffffffffffffffffffffffffffffffffffff169060200190929190505050611d1c565b005b600061090c600e60008473ffffffffffffffffffffffffffffffffffffffff1673ffffffffffffffffffffffffffffffffffffffff168152602001908152602001600020546108fe670de0b6b3a76400006108f06108a2600d60008973ffffffffffffffffffffffffffffffffffffffff1673ffffffffffffffffffffffffffffffffffffffff16815260200190815260200160002054610894611b5e565b611f2790919063ffffffff16565b601060008973ffffffffffffffffffffffffffffffffffffffff1673ffffffffffffffffffffffffffffffffffffffff16815260200190815260200160002054611f7190919063ffffffff16565b611ff790919063ffffffff16565b61204190919063ffffffff16565b9050919050565b600e6020528060005260406000206000915090505481565b6000600f54905090565b600061094e600854600754611f7190919063ffffffff16565b905090565b600c5481565b6109616120c9565b73ffffffffffffffffffffffffffffffffffffffff1660008054906101000a900473ffffffffffffffffffffffffffffffffffffffff1673ffffffffffffffffffffffffffffffffffffffff1614610a21576040517f08c379a00000000000000000000000000000000000000000000000000000000081526004018080602001828103825260208152602001807f4f776e61626c653a2063616c6c6572206973206e6f7420746865206f776e657281525060200191505060405180910390fd5b80600160006101000a81548173ffffffffffffffffffffffffffffffffffffffff021916908373ffffffffffffffffffffffffffffffffffffffff1602179055507fb80482a293ca2e013eda8683c9bd7fc8347cfdaeea5ede58cba46df502c2a604600160009054906101000a900473ffffffffffffffffffffffffffffffffffffffff16604051808273ffffffffffffffffffffffffffffffffffffffff16815260200191505060405180910390a150565b60085481565b6000610ae46120c9565b9050600360009054906101000a900473ffffffffffffffffffffffffffffffffffffffff1673ffffffffffffffffffffffffffffffffffffffff168173ffffffffffffffffffffffffffffffffffffffff161480610b745750610b456116ba565b73ffffffffffffffffffffffffffffffffffffffff168173ffffffffffffffffffffffffffffffffffffffff16145b610bc9576040517f08c379a0000000000000000000000000000000000000000000000000000000008152600401808060200182810382526059815260200180612fdf6059913960600191505060405180910390fd5b610bd48260016120d1565b5050565b600280541415610c50576040517f08c379a000000000000000000000000000000000000000000000000000000000815260040180806020018281038252601f8152602001807f5265656e7472616e637947756172643a207265656e7472616e742063616c6c0081525060200191505060405180910390fd5b60028081905550610c5f6120c9565b610c67611b5e565b600a81905550610c75611594565b600981905550600073ffffffffffffffffffffffffffffffffffffffff168173ffffffffffffffffffffffffffffffffffffffff1614610d4257610cb8816107f5565b600e60008373ffffffffffffffffffffffffffffffffffffffff1673ffffffffffffffffffffffffffffffffffffffff16815260200190815260200160002081905550600a54600d60008373ffffffffffffffffffffffffffffffffffffffff1673ffffffffffffffffffffffffffffffffffffffff168152602001908152602001600020819055505b6000610d4c6120c9565b90506000600e60008373ffffffffffffffffffffffffffffffffffffffff1673ffffffffffffffffffffffffffffffffffffffff1681526020019081526020016000205490506000610d9d836112bb565b5050505090508015610e71576000610dbf600284611ff790919063ffffffff16565b9050610e1381601260008773ffffffffffffffffffffffffffffffffffffffff1673ffffffffffffffffffffffffffffffffffffffff1681526020019081526020016000205461204190919063ffffffff16565b601260008673ffffffffffffffffffffffffffffffffffffffff1673ffffffffffffffffffffffffffffffffffffffff16815260200190815260200160002081905550610e698184611f2790919063ffffffff16565b925050610f0b565b610ec3601260008573ffffffffffffffffffffffffffffffffffffffff1673ffffffffffffffffffffffffffffffffffffffff168152602001908152602001600020548361204190919063ffffffff16565b91506000601260008573ffffffffffffffffffffffffffffffffffffffff1673ffffffffffffffffffffffffffffffffffffffff168152602001908152602001600020819055505b6000821115610ff5576000600e60008573ffffffffffffffffffffffffffffffffffffffff1673ffffffffffffffffffffffffffffffffffffffff16815260200190815260200160002081905550610fa68383600460009054906101000a900473ffffffffffffffffffffffffffffffffffffffff1673ffffffffffffffffffffffffffffffffffffffff166124729092919063ffffffff16565b8273ffffffffffffffffffffffffffffffffffffffff167fe2403640ba68fed3a2f88b7557551d1993f84b99bb10ff833f0cf8db0c5e0486836040518082815260200191505060405180910390a25b505050506001600281905550565b61100b6120c9565b73ffffffffffffffffffffffffffffffffffffffff16600160009054906101000a900473ffffffffffffffffffffffffffffffffffffffff1673ffffffffffffffffffffffffffffffffffffffff16148061109f57506110696120c9565b73ffffffffffffffffffffffffffffffffffffffff166110876116ba565b73ffffffffffffffffffffffffffffffffffffffff16145b6110f4576040517f08c379a000000000000000000000000000000000000000000000000000000000815260040180806020018281038252604581526020018061309f6045913960600191505060405180910390fd5b6110fc612514565b565b600360009054906101000a900473ffffffffffffffffffffffffffffffffffffffff1681565b600b5481565b60008060149054906101000a900460ff16905090565b6111486120c9565b73ffffffffffffffffffffffffffffffffffffffff1660008054906101000a900473ffffffffffffffffffffffffffffffffffffffff1673ffffffffffffffffffffffffffffffffffffffff1614611208576040517f08c379a00000000000000000000000000000000000000000000000000000000081526004018080602001828103825260208152602001807f4f776e61626c653a2063616c6c6572206973206e6f7420746865206f776e657281525060200191505060405180910390fd5b80600360006101000a81548173ffffffffffffffffffffffffffffffffffffffff021916908373ffffffffffffffffffffffffffffffffffffffff1602179055507f995929e3bdfa9f1b0b527c02b5b513a7c476ed92f554c52bf7b25e51cfee029f600360009054906101000a900473ffffffffffffffffffffffffffffffffffffffff16604051808273ffffffffffffffffffffffffffffffffffffffff16815260200191505060405180910390a150565b6000806000806000601160008773ffffffffffffffffffffffffffffffffffffffff1673ffffffffffffffffffffffffffffffffffffffff1681526020019081526020016000205490506000600b5490506000600c549050600082111561138e5761132f818361204190919063ffffffff16565b6113428443611f2790919063ffffffff16565b8161134957fe5b069550611371826113638843611f2790919063ffffffff16565b61204190919063ffffffff16565b9450611386818661204190919063ffffffff16565b935081861096505b505091939590929450565b6000601060008373ffffffffffffffffffffffffffffffffffffffff1673ffffffffffffffffffffffffffffffffffffffff168152602001908152602001600020549050919050565b6113ea6120c9565b73ffffffffffffffffffffffffffffffffffffffff1660008054906101000a900473ffffffffffffffffffffffffffffffffffffffff1673ffffffffffffffffffffffffffffffffffffffff16146114aa576040517f08c379a00000000000000000000000000000000000000000000000000000000081526004018080602001828103825260208152602001807f4f776e61626c653a2063616c6c6572206973206e6f7420746865206f776e657281525060200191505060405180910390fd5b600073ffffffffffffffffffffffffffffffffffffffff1660008054906101000a900473ffffffffffffffffffffffffffffffffffffffff1673ffffffffffffffffffffffffffffffffffffffff167f8be0079c531659141344cd1fd0a4f28419497f9722a3daafe3b4186f6b6457e060405160405180910390a360008060006101000a81548173ffffffffffffffffffffffffffffffffffffffff021916908373ffffffffffffffffffffffffffffffffffffffff160217905550565b600560009054906101000a900473ffffffffffffffffffffffffffffffffffffffff1681565b60075481565b60006115a243600654612606565b905090565b6115af6120c9565b73ffffffffffffffffffffffffffffffffffffffff16600160009054906101000a900473ffffffffffffffffffffffffffffffffffffffff1673ffffffffffffffffffffffffffffffffffffffff161480611643575061160d6120c9565b73ffffffffffffffffffffffffffffffffffffffff1661162b6116ba565b73ffffffffffffffffffffffffffffffffffffffff16145b611698576040517f08c379a000000000000000000000000000000000000000000000000000000000815260040180806020018281038252604181526020018061305e6041913960600191505060405180910390fd5b6116a061261f565b565b600d6020528060005260406000206000915090505481565b60008060009054906101000a900473ffffffffffffffffffffffffffffffffffffffff16905090565b6000601260008373ffffffffffffffffffffffffffffffffffffffff1673ffffffffffffffffffffffffffffffffffffffff168152602001908152602001600020549050919050565b600160009054906101000a900473ffffffffffffffffffffffffffffffffffffffff1681565b60095481565b600060149054906101000a900460ff16156117db576040517f08c379a00000000000000000000000000000000000000000000000000000000081526004018080602001828103825260108152602001807f5061757361626c653a207061757365640000000000000000000000000000000081525060200191505060405180910390fd5b600280541415611853576040517f08c379a000000000000000000000000000000000000000000000000000000000815260040180806020018281038252601f8152602001807f5265656e7472616e637947756172643a207265656e7472616e742063616c6c0081525060200191505060405180910390fd5b600280819055506118626120c9565b61186a611b5e565b600a81905550611878611594565b600981905550600073ffffffffffffffffffffffffffffffffffffffff168173ffffffffffffffffffffffffffffffffffffffff1614611945576118bb816107f5565b600e60008373ffffffffffffffffffffffffffffffffffffffff1673ffffffffffffffffffffffffffffffffffffffff16815260200190815260200160002081905550600a54600d60008373ffffffffffffffffffffffffffffffffffffffff1673ffffffffffffffffffffffffffffffffffffffff168152602001908152602001600020819055505b6000821161199e576040517f08c379a00000000000000000000000000000000000000000000000000000000081526004018080602001828103825260288152602001806130e46028913960400191505060405180910390fd5b6119b382600f5461204190919063ffffffff16565b600f81905550611a1282601060006119c96120c9565b73ffffffffffffffffffffffffffffffffffffffff1673ffffffffffffffffffffffffffffffffffffffff1681526020019081526020016000205461204190919063ffffffff16565b60106000611a1e6120c9565b73ffffffffffffffffffffffffffffffffffffffff1673ffffffffffffffffffffffffffffffffffffffff168152602001908152602001600020819055504360116000611a696120c9565b73ffffffffffffffffffffffffffffffffffffffff1673ffffffffffffffffffffffffffffffffffffffff16815260200190815260200160002081905550611afd611ab26120c9565b3084600560009054906101000a900473ffffffffffffffffffffffffffffffffffffffff1673ffffffffffffffffffffffffffffffffffffffff16612713909392919063ffffffff16565b611b056120c9565b73ffffffffffffffffffffffffffffffffffffffff167f9e71bc8eea02a63969f509818f2dafb9254532904319f9dbda79b67bd34a5f3d836040518082815260200191505060405180910390a250600160028190555050565b600080600f541415611b7457600a549050611be9565b611be6611bd5600f54611bc7670de0b6b3a7640000611bb9600754611bab600954611b9d611594565b611f2790919063ffffffff16565b611f7190919063ffffffff16565b611f7190919063ffffffff16565b611ff790919063ffffffff16565b600a5461204190919063ffffffff16565b90505b90565b600460009054906101000a900473ffffffffffffffffffffffffffffffffffffffff1681565b600a5481565b6000611c226120c9565b9050611c6c601060008373ffffffffffffffffffffffffffffffffffffffff1673ffffffffffffffffffffffffffffffffffffffff168152602001908152602001600020546127d4565b611c74610bd8565b6000601260008373ffffffffffffffffffffffffffffffffffffffff1673ffffffffffffffffffffffffffffffffffffffff1681526020019081526020016000205490506000811115611d12576000601260008473ffffffffffffffffffffffffffffffffffffffff1673ffffffffffffffffffffffffffffffffffffffff16815260200190815260200160002081905550611d118160006120d1565b5b5050565b60065481565b611d246120c9565b73ffffffffffffffffffffffffffffffffffffffff1660008054906101000a900473ffffffffffffffffffffffffffffffffffffffff1673ffffffffffffffffffffffffffffffffffffffff1614611de4576040517f08c379a00000000000000000000000000000000000000000000000000000000081526004018080602001828103825260208152602001807f4f776e61626c653a2063616c6c6572206973206e6f7420746865206f776e657281525060200191505060405180910390fd5b600073ffffffffffffffffffffffffffffffffffffffff168173ffffffffffffffffffffffffffffffffffffffff161415611e6a576040517f08c379a00000000000000000000000000000000000000000000000000000000081526004018080602001828103825260268152602001806130386026913960400191505060405180910390fd5b8073ffffffffffffffffffffffffffffffffffffffff1660008054906101000a900473ffffffffffffffffffffffffffffffffffffffff1673ffffffffffffffffffffffffffffffffffffffff167f8be0079c531659141344cd1fd0a4f28419497f9722a3daafe3b4186f6b6457e060405160405180910390a3806000806101000a81548173ffffffffffffffffffffffffffffffffffffffff021916908373ffffffffffffffffffffffffffffffffffffffff16021790555050565b6000611f6983836040518060400160405280601e81526020017f536166654d6174683a207375627472616374696f6e206f766572666c6f770000815250612b0a565b905092915050565b600080831415611f845760009050611ff1565b6000828402905082848281611f9557fe5b0414611fec576040517f08c379a000000000000000000000000000000000000000000000000000000000815260040180806020018281038252602181526020018061310c6021913960400191505060405180910390fd5b809150505b92915050565b600061203983836040518060400160405280601a81526020017f536166654d6174683a206469766973696f6e206279207a65726f000000000000815250612bca565b905092915050565b6000808284019050838110156120bf576040517f08c379a000000000000000000000000000000000000000000000000000000000815260040180806020018281038252601b8152602001807f536166654d6174683a206164646974696f6e206f766572666c6f77000000000081525060200191505060405180910390fd5b8091505092915050565b600033905090565b60006120db611b5e565b600a819055506120e9611594565b600981905550600073ffffffffffffffffffffffffffffffffffffffff168173ffffffffffffffffffffffffffffffffffffffff16146121b65761212c816107f5565b600e60008373ffffffffffffffffffffffffffffffffffffffff1673ffffffffffffffffffffffffffffffffffffffff16815260200190815260200160002081905550600a54600d60008373ffffffffffffffffffffffffffffffffffffffff1673ffffffffffffffffffffffffffffffffffffffff168152602001908152602001600020819055505b6000600460009054906101000a900473ffffffffffffffffffffffffffffffffffffffff1673ffffffffffffffffffffffffffffffffffffffff166370a08231306040518263ffffffff1660e01b8152600401808273ffffffffffffffffffffffffffffffffffffffff16815260200191505060206040518083038186803b15801561224157600080fd5b505afa158015612255573d6000803e3d6000fd5b505050506040513d602081101561226b57600080fd5b81019080805190602001909291905050509050600060085490506006544310612332576122a18186611ff790919063ffffffff16565b6007819055506122ba814361204190919063ffffffff16565b6006819055506122d38183611ff790919063ffffffff16565b600754111561232d576040517f08c379a000000000000000000000000000000000000000000000000000000000815260040180806020018281038252604081526020018061312d6040913960400191505060405180910390fd5b61242d565b600061234943600654611f2790919063ffffffff16565b9050600061236260075483611f7190919063ffffffff16565b90506000861561238d57839050612382844361204190919063ffffffff16565b600681905550612391565b8290505b6123b6816123a8848b61204190919063ffffffff16565b611ff790919063ffffffff16565b6007819055506123cf8186611ff790919063ffffffff16565b6007541115612429576040517f08c379a000000000000000000000000000000000000000000000000000000000815260040180806020018281038252604081526020018061312d6040913960400191505060405180910390fd5b5050505b436009819055507fde88a922e0d3b88b24e9623efeb464919c6bf9f66857a65e2bfcf2ce87a9433d856040518082815260200191505060405180910390a15050505050565b61250f8363a9059cbb60e01b8484604051602401808373ffffffffffffffffffffffffffffffffffffffff16815260200182815260200192505050604051602081830303815290604052907bffffffffffffffffffffffffffffffffffffffffffffffffffffffff19166020820180517bffffffffffffffffffffffffffffffffffffffffffffffffffffffff8381831617835250505050612c90565b505050565b600060149054906101000a900460ff16612596576040517f08c379a00000000000000000000000000000000000000000000000000000000081526004018080602001828103825260148152602001807f5061757361626c653a206e6f742070617573656400000000000000000000000081525060200191505060405180910390fd5b60008060146101000a81548160ff0219169083151502179055507f5db9ee0a495bf2e6ff9c91a7834c1ba4fdd244a5e8aa4e537bd38aeae4b073aa6125d96120c9565b604051808273ffffffffffffffffffffffffffffffffffffffff16815260200191505060405180910390a1565b60008183106126155781612617565b825b905092915050565b600060149054906101000a900460ff16156126a2576040517f08c379a00000000000000000000000000000000000000000000000000000000081526004018080602001828103825260108152602001807f5061757361626c653a207061757365640000000000000000000000000000000081525060200191505060405180910390fd5b6001600060146101000a81548160ff0219169083151502179055507f62e78cea01bee320cd4e420270b5ea74000d11b0c9f74754ebdbfc544b05a2586126e66120c9565b604051808273ffffffffffffffffffffffffffffffffffffffff16815260200191505060405180910390a1565b6127ce846323b872dd60e01b858585604051602401808473ffffffffffffffffffffffffffffffffffffffff1681526020018373ffffffffffffffffffffffffffffffffffffffff1681526020018281526020019350505050604051602081830303815290604052907bffffffffffffffffffffffffffffffffffffffffffffffffffffffff19166020820180517bffffffffffffffffffffffffffffffffffffffffffffffffffffffff8381831617835250505050612c90565b50505050565b60028054141561284c576040517f08c379a000000000000000000000000000000000000000000000000000000000815260040180806020018281038252601f8152602001807f5265656e7472616e637947756172643a207265656e7472616e742063616c6c0081525060200191505060405180910390fd5b6002808190555061285b6120c9565b612863611b5e565b600a81905550612871611594565b600981905550600073ffffffffffffffffffffffffffffffffffffffff168173ffffffffffffffffffffffffffffffffffffffff161461293e576128b4816107f5565b600e60008373ffffffffffffffffffffffffffffffffffffffff1673ffffffffffffffffffffffffffffffffffffffff16815260200190815260200160002081905550600a54600d60008373ffffffffffffffffffffffffffffffffffffffff1673ffffffffffffffffffffffffffffffffffffffff168152602001908152602001600020819055505b60008211612997576040517f08c379a000000000000000000000000000000000000000000000000000000000815260040180806020018281038252602e815260200180612fb1602e913960400191505060405180910390fd5b6129ac82600f54611f2790919063ffffffff16565b600f81905550612a0b82601060006129c26120c9565b73ffffffffffffffffffffffffffffffffffffffff1673ffffffffffffffffffffffffffffffffffffffff16815260200190815260200160002054611f2790919063ffffffff16565b60106000612a176120c9565b73ffffffffffffffffffffffffffffffffffffffff1673ffffffffffffffffffffffffffffffffffffffff16815260200190815260200160002081905550612aa9612a606120c9565b83600560009054906101000a900473ffffffffffffffffffffffffffffffffffffffff1673ffffffffffffffffffffffffffffffffffffffff166124729092919063ffffffff16565b612ab16120c9565b73ffffffffffffffffffffffffffffffffffffffff167f7084f5476618d8e60b11ef0d7d3f06914655adb8793e28ff7f018d4c76d505d5836040518082815260200191505060405180910390a250600160028190555050565b6000838311158290612bb7576040517f08c379a00000000000000000000000000000000000000000000000000000000081526004018080602001828103825283818151815260200191508051906020019080838360005b83811015612b7c578082015181840152602081019050612b61565b50505050905090810190601f168015612ba95780820380516001836020036101000a031916815260200191505b509250505060405180910390fd5b5060008385039050809150509392505050565b60008083118290612c76576040517f08c379a00000000000000000000000000000000000000000000000000000000081526004018080602001828103825283818151815260200191508051906020019080838360005b83811015612c3b578082015181840152602081019050612c20565b50505050905090810190601f168015612c685780820380516001836020036101000a031916815260200191505b509250505060405180910390fd5b506000838581612c8257fe5b049050809150509392505050565b6060612cf2826040518060400160405280602081526020017f5361666545524332303a206c6f772d6c6576656c2063616c6c206661696c65648152508573ffffffffffffffffffffffffffffffffffffffff16612d7f9092919063ffffffff16565b9050600081511115612d7a57808060200190516020811015612d1357600080fd5b8101908080519060200190929190505050612d79576040517f08c379a000000000000000000000000000000000000000000000000000000000815260040180806020018281038252602a81526020018061316d602a913960400191505060405180910390fd5b5b505050565b6060612d8e8484600085612d97565b90509392505050565b6060612da285612f9d565b612e14576040517f08c379a000000000000000000000000000000000000000000000000000000000815260040180806020018281038252601d8152602001807f416464726573733a2063616c6c20746f206e6f6e2d636f6e747261637400000081525060200191505060405180910390fd5b600060608673ffffffffffffffffffffffffffffffffffffffff1685876040518082805190602001908083835b60208310612e645780518252602082019150602081019050602083039250612e41565b6001836020036101000a03801982511681845116808217855250505050505090500191505060006040518083038185875af1925050503d8060008114612ec6576040519150601f19603f3d011682016040523d82523d6000602084013e612ecb565b606091505b50915091508115612ee0578092505050612f95565b600081511115612ef35780518082602001fd5b836040517f08c379a00000000000000000000000000000000000000000000000000000000081526004018080602001828103825283818151815260200191508051906020019080838360005b83811015612f5a578082015181840152602081019050612f3f565b50505050905090810190601f168015612f875780820380516001836020036101000a031916815260200191505b509250505060405180910390fd5b949350505050565b600080823b90506000811191505091905056fe50726f6669744469737472696275746f723a3a77697468647261773a2043616e6e6f74207769746864726177203050726f6669744469737472696275746f723a3a6e6f74696679526577617264416d6f756e743a2063616c6c6572206973206e6f742052657761726473446973747269627574696f6e206f72204f776e657220616464726573734f776e61626c653a206e6577206f776e657220697320746865207a65726f20616464726573734f776e61626c655061757361626c653a3a70617573653a206f6e6c792070617573657220616e64206f776e6572206d75737420706175736520636f6e74726163744f776e61626c655061757361626c653a3a756e70617573653a206f6e6c792070617573657220616e64206f776e6572206d75737420756e706175736520636f6e747261637450726f6669744469737472696275746f723a3a7374616b653a2063616e6e6f74207374616b652030536166654d6174683a206d756c7469706c69636174696f6e206f766572666c6f7750726f6669744469737472696275746f723a3a5f6e6f74696679526577617264416d6f756e743a2070726f76696465642072657761726420746f6f20686967685361666545524332303a204552433230206f7065726174696f6e20646964206e6f742073756363656564a264697066735822122082327904dcb82c56f96a2a241d01ecf3acd44729315aa67cf1330be5de9ad42064736f6c634300060c0033",
  "devdoc": {
    "kind": "dev",
    "methods": {
      "balanceOf(address)": {
        "params": {
          "account": "Target account."
        },
        "returns": {
          "_0": "Staking token amount."
        }
      },
      "changePauser(address)": {
        "params": {
          "newPauser": "Address of new pauser account."
        }
      },
      "changeRewardsDistribution(address)": {
        "params": {
          "_rewardDistribution": "New rewards distribution address."
        }
      },
      "constructor": {
        "params": {
          "_lockPeriod": "Stake lock period.",
          "_rewardsDistribution": "Rewards distribution address.",
          "_rewardsDuration": "Duration of distribution.",
          "_rewardsToken": "Address of reward token.",
          "_stakingToken": "Address of staking token.",
          "_unlockPeriod": "Stake unlock period."
        }
      },
      "earned(address)": {
        "params": {
          "account": "Target account."
        },
        "returns": {
          "_0": "Earned rewards."
        }
      },
      "getRewardForDuration()": {
        "returns": {
          "_0": "Rewards amount for duration."
        }
      },
      "lastTimeRewardApplicable()": {
        "returns": {
          "_0": "Block number of last reward."
        }
      },
      "notifyRewardAmount(uint256)": {
        "params": {
          "reward": "Distributed rewards amount."
        }
      },
      "owner()": {
        "details": "Returns the address of the current owner."
      },
      "paused()": {
        "details": "Returns true if the contract is paused, and false otherwise."
      },
      "penalty(address)": {
        "params": {
          "account": "Target account."
        },
        "returns": {
          "_0": "Penalty rewards."
        }
      },
      "renounceOwnership()": {
        "details": "Leaves the contract without owner. It will not be possible to call `onlyOwner` functions anymore. Can only be called by the current owner. NOTE: Renouncing ownership will leave the contract without an owner, thereby removing any functionality that is only available to the owner."
      },
      "rewardPerToken()": {
        "returns": {
          "_0": "Reward per token."
        }
      },
      "stake(uint256)": {
        "params": {
          "amount": "Amount staking token."
        }
      },
      "totalSupply()": {
        "returns": {
          "_0": "Total staking token amount."
        }
      },
      "transferOwnership(address)": {
        "details": "Transfers ownership of the contract to a new account (`newOwner`). Can only be called by the current owner."
      }
    },
    "stateVariables": {
      "_balances": {
        "details": "Staking balances."
      },
      "_penaltyAmount": {
        "details": "Amount of penalty reward."
      },
      "_stakeAt": {
        "details": "Block number of stake lock."
      },
      "_totalSupply": {
        "details": "Total staking token amount."
      }
    },
    "version": 1
  },
  "userdoc": {
    "events": {
      "PauserChanged(address)": {
        "notice": "An event thats emitted when an pauser address changed."
      },
      "RewardAdded(uint256)": {
        "notice": "An event thats emitted when an reward token addet to contract."
      },
      "RewardPaid(address,uint256)": {
        "notice": "An event thats emitted when an reward token withdrawal from contract."
      },
      "RewardsDistributionChanged(address)": {
        "notice": "An event thats emitted when an rewards distribution address changed."
      },
      "RewardsTransfered(address,uint256)": {
        "notice": "An event thats emitted when an rewards tokens transfered to recipient."
      },
      "Staked(address,uint256)": {
        "notice": "An event thats emitted when an staking token added to contract."
      },
      "Withdrawn(address,uint256)": {
        "notice": "An event thats emitted when an staking token withdrawal from contract."
      }
    },
    "kind": "user",
    "methods": {
      "changePauser(address)": {
        "notice": "Change pauser account."
      },
      "changeRewardsDistribution(address)": {
        "notice": "Change rewards distribution address."
      },
      "exit()": {
        "notice": "Withdraw reward and staking token."
      },
      "getReward()": {
        "notice": "Withdraw reward token."
      },
      "lastUpdateBlock()": {
        "notice": "Block number of last update."
      },
      "lockPeriod()": {
        "notice": "Stake lock period."
      },
      "notifyRewardAmount(uint256)": {
        "notice": "Start distribution."
      },
      "pause()": {
        "notice": "Triggers stopped state."
      },
      "pauser()": {
        "notice": "Address that can pause a contract."
      },
      "periodFinish()": {
        "notice": "Block number of rewards distibution period finish."
      },
      "rewardPerTokenStored()": {
        "notice": "Static reward distribution amount per block."
      },
      "rewardRate()": {
        "notice": "Reward distribution amount per block."
      },
      "rewards(address)": {
        "notice": "Earned rewards."
      },
      "rewardsDistribution()": {
        "notice": "Address of rewards distributor."
      },
      "rewardsDuration()": {
        "notice": "Blocks count in current distribution period."
      },
      "rewardsToken()": {
        "notice": "Rewards token address."
      },
      "stake(uint256)": {
        "notice": "Stake token."
      },
      "stakingToken()": {
        "notice": "Staking token address."
      },
      "unlockPeriod()": {
        "notice": "Stake unlock period."
      },
      "unpause()": {
        "notice": "Returns to normal state."
      },
      "userRewardPerTokenPaid(address)": {
        "notice": "Rewards paid."
      }
    },
    "version": 1
  },
  "storageLayout": {
    "storage": [
      {
        "astId": 30,
        "contract": "contracts/ProfitDistributor.sol:ProfitDistributor",
        "label": "_owner",
        "offset": 0,
        "slot": "0",
        "type": "t_address"
      },
      {
        "astId": 1985,
        "contract": "contracts/ProfitDistributor.sol:ProfitDistributor",
        "label": "_paused",
        "offset": 20,
        "slot": "0",
        "type": "t_bool"
      },
      {
        "astId": 17902,
        "contract": "contracts/ProfitDistributor.sol:ProfitDistributor",
        "label": "pauser",
        "offset": 0,
        "slot": "1",
        "type": "t_address"
      },
      {
        "astId": 2068,
        "contract": "contracts/ProfitDistributor.sol:ProfitDistributor",
        "label": "_status",
        "offset": 0,
        "slot": "2",
        "type": "t_uint256"
      },
      {
        "astId": 6871,
        "contract": "contracts/ProfitDistributor.sol:ProfitDistributor",
        "label": "rewardsDistribution",
        "offset": 0,
        "slot": "3",
        "type": "t_address"
      },
      {
        "astId": 6874,
        "contract": "contracts/ProfitDistributor.sol:ProfitDistributor",
        "label": "rewardsToken",
        "offset": 0,
        "slot": "4",
        "type": "t_contract(IERC20)1164"
      },
      {
        "astId": 6877,
        "contract": "contracts/ProfitDistributor.sol:ProfitDistributor",
        "label": "stakingToken",
        "offset": 0,
        "slot": "5",
        "type": "t_contract(IERC20)1164"
      },
      {
        "astId": 6880,
        "contract": "contracts/ProfitDistributor.sol:ProfitDistributor",
        "label": "periodFinish",
        "offset": 0,
        "slot": "6",
        "type": "t_uint256"
      },
      {
        "astId": 6883,
        "contract": "contracts/ProfitDistributor.sol:ProfitDistributor",
        "label": "rewardRate",
        "offset": 0,
        "slot": "7",
        "type": "t_uint256"
      },
      {
        "astId": 6886,
        "contract": "contracts/ProfitDistributor.sol:ProfitDistributor",
        "label": "rewardsDuration",
        "offset": 0,
        "slot": "8",
        "type": "t_uint256"
      },
      {
        "astId": 6889,
        "contract": "contracts/ProfitDistributor.sol:ProfitDistributor",
        "label": "lastUpdateBlock",
        "offset": 0,
        "slot": "9",
        "type": "t_uint256"
      },
      {
        "astId": 6892,
        "contract": "contracts/ProfitDistributor.sol:ProfitDistributor",
        "label": "rewardPerTokenStored",
        "offset": 0,
        "slot": "10",
        "type": "t_uint256"
      },
      {
        "astId": 6895,
        "contract": "contracts/ProfitDistributor.sol:ProfitDistributor",
        "label": "lockPeriod",
        "offset": 0,
        "slot": "11",
        "type": "t_uint256"
      },
      {
        "astId": 6898,
        "contract": "contracts/ProfitDistributor.sol:ProfitDistributor",
        "label": "unlockPeriod",
        "offset": 0,
        "slot": "12",
        "type": "t_uint256"
      },
      {
        "astId": 6903,
        "contract": "contracts/ProfitDistributor.sol:ProfitDistributor",
        "label": "userRewardPerTokenPaid",
        "offset": 0,
        "slot": "13",
        "type": "t_mapping(t_address,t_uint256)"
      },
      {
        "astId": 6908,
        "contract": "contracts/ProfitDistributor.sol:ProfitDistributor",
        "label": "rewards",
        "offset": 0,
        "slot": "14",
        "type": "t_mapping(t_address,t_uint256)"
      },
      {
        "astId": 6911,
        "contract": "contracts/ProfitDistributor.sol:ProfitDistributor",
        "label": "_totalSupply",
        "offset": 0,
        "slot": "15",
        "type": "t_uint256"
      },
      {
        "astId": 6916,
        "contract": "contracts/ProfitDistributor.sol:ProfitDistributor",
        "label": "_balances",
        "offset": 0,
        "slot": "16",
        "type": "t_mapping(t_address,t_uint256)"
      },
      {
        "astId": 6921,
        "contract": "contracts/ProfitDistributor.sol:ProfitDistributor",
        "label": "_stakeAt",
        "offset": 0,
        "slot": "17",
        "type": "t_mapping(t_address,t_uint256)"
      },
      {
        "astId": 6926,
        "contract": "contracts/ProfitDistributor.sol:ProfitDistributor",
        "label": "_penaltyAmount",
        "offset": 0,
        "slot": "18",
        "type": "t_mapping(t_address,t_uint256)"
      }
    ],
    "types": {
      "t_address": {
        "encoding": "inplace",
        "label": "address",
        "numberOfBytes": "20"
      },
      "t_bool": {
        "encoding": "inplace",
        "label": "bool",
        "numberOfBytes": "1"
      },
      "t_contract(IERC20)1164": {
        "encoding": "inplace",
        "label": "contract IERC20",
        "numberOfBytes": "20"
      },
      "t_mapping(t_address,t_uint256)": {
        "encoding": "mapping",
        "key": "t_address",
        "label": "mapping(address => uint256)",
        "numberOfBytes": "32",
        "value": "t_uint256"
      },
      "t_uint256": {
        "encoding": "inplace",
        "label": "uint256",
        "numberOfBytes": "32"
      }
    }
  }
}