{
  "address": "0xB2a059Ea868f7f2Ab95ed0A3B16Ef6418A0C1b6c",
  "abi": [
    {
      "inputs": [
        {
          "internalType": "address",
          "name": "_issuer",
          "type": "address"
        },
        {
          "internalType": "address",
          "name": "_product",
          "type": "address"
        }
      ],
      "stateMutability": "nonpayable",
      "type": "constructor"
    },
    {
      "anonymous": false,
      "inputs": [
        {
          "indexed": true,
          "internalType": "address",
          "name": "customer",
          "type": "address"
        },
        {
          "indexed": false,
          "internalType": "uint256",
          "name": "amount",
          "type": "uint256"
        },
        {
          "indexed": false,
          "internalType": "uint256",
          "name": "buy",
          "type": "uint256"
        }
      ],
      "name": "Buyback",
      "type": "event"
    },
    {
      "anonymous": false,
      "inputs": [
        {
          "indexed": false,
          "internalType": "address",
          "name": "newIssuer",
          "type": "address"
        }
      ],
      "name": "IssuerChanged",
      "type": "event"
    },
    {
      "anonymous": false,
      "inputs": [
        {
          "indexed": true,
          "internalType": "address",
          "name": "previousOwner",
          "type": "address"
        },
        {
          "indexed": true,
          "internalType": "address",
          "name": "newOwner",
          "type": "address"
        }
      ],
      "name": "OwnershipTransferred",
      "type": "event"
    },
    {
      "anonymous": false,
      "inputs": [
        {
          "indexed": false,
          "internalType": "address",
          "name": "account",
          "type": "address"
        }
      ],
      "name": "Paused",
      "type": "event"
    },
    {
      "anonymous": false,
      "inputs": [
        {
          "indexed": false,
          "internalType": "address",
          "name": "newPauser",
          "type": "address"
        }
      ],
      "name": "PauserChanged",
      "type": "event"
    },
    {
      "anonymous": false,
      "inputs": [
        {
          "indexed": false,
          "internalType": "address",
          "name": "account",
          "type": "address"
        }
      ],
      "name": "Unpaused",
      "type": "event"
    },
    {
      "inputs": [],
      "name": "balance",
      "outputs": [
        {
          "internalType": "uint256",
          "name": "",
          "type": "uint256"
        }
      ],
      "stateMutability": "view",
      "type": "function"
    },
    {
      "inputs": [
        {
          "internalType": "uint256",
          "name": "amount",
          "type": "uint256"
        }
      ],
      "name": "buy",
      "outputs": [],
      "stateMutability": "nonpayable",
      "type": "function"
    },
    {
      "inputs": [
        {
          "internalType": "address",
          "name": "_issuer",
          "type": "address"
        }
      ],
      "name": "changeIssuer",
      "outputs": [],
      "stateMutability": "nonpayable",
      "type": "function"
    },
    {
      "inputs": [
        {
          "internalType": "address",
          "name": "newPauser",
          "type": "address"
        }
      ],
      "name": "changePauser",
      "outputs": [],
      "stateMutability": "nonpayable",
      "type": "function"
    },
    {
      "inputs": [],
      "name": "decimals",
      "outputs": [
        {
          "internalType": "uint256",
          "name": "",
          "type": "uint256"
        }
      ],
      "stateMutability": "view",
      "type": "function"
    },
    {
      "inputs": [],
      "name": "issuer",
      "outputs": [
        {
          "internalType": "contract Issuer",
          "name": "",
          "type": "address"
        }
      ],
      "stateMutability": "view",
      "type": "function"
    },
    {
      "inputs": [],
      "name": "owner",
      "outputs": [
        {
          "internalType": "address",
          "name": "",
          "type": "address"
        }
      ],
      "stateMutability": "view",
      "type": "function"
    },
    {
      "inputs": [],
      "name": "pause",
      "outputs": [],
      "stateMutability": "nonpayable",
      "type": "function"
    },
    {
      "inputs": [],
      "name": "paused",
      "outputs": [
        {
          "internalType": "bool",
          "name": "",
          "type": "bool"
        }
      ],
      "stateMutability": "view",
      "type": "function"
    },
    {
      "inputs": [],
      "name": "pauser",
      "outputs": [
        {
          "internalType": "address",
          "name": "",
          "type": "address"
        }
      ],
      "stateMutability": "view",
      "type": "function"
    },
    {
      "inputs": [],
      "name": "product",
      "outputs": [
        {
          "internalType": "contract ERC20",
          "name": "",
          "type": "address"
        }
      ],
      "stateMutability": "view",
      "type": "function"
    },
    {
      "inputs": [],
      "name": "renounceOwnership",
      "outputs": [],
      "stateMutability": "nonpayable",
      "type": "function"
    },
    {
      "inputs": [
        {
          "internalType": "address",
          "name": "newOwner",
          "type": "address"
        }
      ],
      "name": "transferOwnership",
      "outputs": [],
      "stateMutability": "nonpayable",
      "type": "function"
    },
    {
      "inputs": [
        {
          "internalType": "address",
          "name": "recipient",
          "type": "address"
        },
        {
          "internalType": "uint256",
          "name": "amount",
          "type": "uint256"
        }
      ],
      "name": "transferProductToken",
      "outputs": [],
      "stateMutability": "nonpayable",
      "type": "function"
    },
    {
      "inputs": [
        {
          "internalType": "address",
          "name": "recipient",
          "type": "address"
        },
        {
          "internalType": "uint256",
          "name": "amount",
          "type": "uint256"
        }
      ],
      "name": "transferStableToken",
      "outputs": [],
      "stateMutability": "nonpayable",
      "type": "function"
    },
    {
      "inputs": [],
      "name": "unpause",
      "outputs": [],
      "stateMutability": "nonpayable",
      "type": "function"
    }
  ],
  "transactionHash": "0xd86fcf5add9816889e0c80295c5ea29c38ae3c8b91bcac1507e9874169578a05",
  "args": [
    "0xF0d1913A790efae8b7A6F7325C0c422d70347db4",
    "0x07865c6E87B9F70255377e024ace6630C1Eaa37F"
  ],
  "solcInputHash": "0cf4cc9fdb3e6a35148e94b9ef4590e5",
  "bytecode": "0x60a06040523480156200001157600080fd5b506040516200285538038062002855833981810160405260408110156200003757600080fd5b810190808051906020019092919080519060200190929190505050600062000064620002ce60201b60201c565b9050806000806101000a81548173ffffffffffffffffffffffffffffffffffffffff021916908373ffffffffffffffffffffffffffffffffffffffff1602179055508073ffffffffffffffffffffffffffffffffffffffff16600073ffffffffffffffffffffffffffffffffffffffff167f8be0079c531659141344cd1fd0a4f28419497f9722a3daafe3b4186f6b6457e060405160405180910390a35060008060146101000a81548160ff0219169083151502179055506200012c620002d660201b60201c565b600160006101000a81548173ffffffffffffffffffffffffffffffffffffffff021916908373ffffffffffffffffffffffffffffffffffffffff16021790555060128173ffffffffffffffffffffffffffffffffffffffff1663313ce5676040518163ffffffff1660e01b815260040160206040518083038186803b158015620001b557600080fd5b505afa158015620001ca573d6000803e3d6000fd5b505050506040513d6020811015620001e157600080fd5b810190808051906020019092919050505060ff1611156200024e576040517f08c379a000000000000000000000000000000000000000000000000000000000815260040180806020018281038252604c81526020018062002809604c913960600191505060405180910390fd5b81600260006101000a81548173ffffffffffffffffffffffffffffffffffffffff021916908373ffffffffffffffffffffffffffffffffffffffff1602179055508073ffffffffffffffffffffffffffffffffffffffff1660808173ffffffffffffffffffffffffffffffffffffffff1660601b815250505050620002ff565b600033905090565b60008060009054906101000a900473ffffffffffffffffffffffffffffffffffffffff16905090565b60805160601c6124ce6200033b60003980610cc95280610d935280610e5f5280610f0e528061102f5280611230528061188f52506124ce6000f3fe608060405234801561001057600080fd5b50600436106101005760003560e01c80638456cb5911610097578063bf9ce95211610066578063bf9ce952146102f1578063d96a094a14610325578063f2fde38b14610353578063f6a399e21461039757610100565b80638456cb59146102615780638da5cb5b1461026b5780639fd0506d1461029f578063b69ef8a8146102d357610100565b80635c975abb116100d35780635c975abb146101a557806365893ec0146101c5578063715018a6146102135780637e8931591461021d57610100565b80631d143848146101055780632cd271e714610139578063313ce5671461017d5780633f4ba83a1461019b575b600080fd5b61010d6103e5565b604051808273ffffffffffffffffffffffffffffffffffffffff16815260200191505060405180910390f35b61017b6004803603602081101561014f57600080fd5b81019080803573ffffffffffffffffffffffffffffffffffffffff16906020019092919050505061040b565b005b610185610586565b6040518082815260200191505060405180910390f35b6101a361058b565b005b6101ad610686565b60405180821515815260200191505060405180910390f35b610211600480360360408110156101db57600080fd5b81019080803573ffffffffffffffffffffffffffffffffffffffff1690602001909291908035906020019092919050505061069c565b005b61021b610815565b005b61025f6004803603602081101561023357600080fd5b81019080803573ffffffffffffffffffffffffffffffffffffffff16906020019092919050505061099b565b005b610269610b7a565b005b610273610c75565b604051808273ffffffffffffffffffffffffffffffffffffffff16815260200191505060405180910390f35b6102a7610c9e565b604051808273ffffffffffffffffffffffffffffffffffffffff16815260200191505060405180910390f35b6102db610cc4565b6040518082815260200191505060405180910390f35b6102f9610e5d565b604051808273ffffffffffffffffffffffffffffffffffffffff16815260200191505060405180910390f35b6103516004803603602081101561033b57600080fd5b8101908080359060200190929190505050610e81565b005b6103956004803603602081101561036957600080fd5b81019080803573ffffffffffffffffffffffffffffffffffffffff1690602001909291905050506115b7565b005b6103e3600480360360408110156103ad57600080fd5b81019080803573ffffffffffffffffffffffffffffffffffffffff169060200190929190803590602001909291905050506117c2565b005b600260009054906101000a900473ffffffffffffffffffffffffffffffffffffffff1681565b6104136118b9565b73ffffffffffffffffffffffffffffffffffffffff1660008054906101000a900473ffffffffffffffffffffffffffffffffffffffff1673ffffffffffffffffffffffffffffffffffffffff16146104d3576040517f08c379a00000000000000000000000000000000000000000000000000000000081526004018080602001828103825260208152602001807f4f776e61626c653a2063616c6c6572206973206e6f7420746865206f776e657281525060200191505060405180910390fd5b80600160006101000a81548173ffffffffffffffffffffffffffffffffffffffff021916908373ffffffffffffffffffffffffffffffffffffffff1602179055507fb80482a293ca2e013eda8683c9bd7fc8347cfdaeea5ede58cba46df502c2a604600160009054906101000a900473ffffffffffffffffffffffffffffffffffffffff16604051808273ffffffffffffffffffffffffffffffffffffffff16815260200191505060405180910390a150565b601281565b6105936118b9565b73ffffffffffffffffffffffffffffffffffffffff16600160009054906101000a900473ffffffffffffffffffffffffffffffffffffffff1673ffffffffffffffffffffffffffffffffffffffff16148061062757506105f16118b9565b73ffffffffffffffffffffffffffffffffffffffff1661060f610c75565b73ffffffffffffffffffffffffffffffffffffffff16145b61067c576040517f08c379a00000000000000000000000000000000000000000000000000000000081526004018080602001828103825260458152602001806123436045913960600191505060405180910390fd5b6106846118c1565b565b60008060149054906101000a900460ff16905090565b6106a46118b9565b73ffffffffffffffffffffffffffffffffffffffff1660008054906101000a900473ffffffffffffffffffffffffffffffffffffffff1673ffffffffffffffffffffffffffffffffffffffff1614610764576040517f08c379a00000000000000000000000000000000000000000000000000000000081526004018080602001828103825260208152602001807f4f776e61626c653a2063616c6c6572206973206e6f7420746865206f776e657281525060200191505060405180910390fd5b610811600260009054906101000a900473ffffffffffffffffffffffffffffffffffffffff1673ffffffffffffffffffffffffffffffffffffffff1663a9d75b2b6040518163ffffffff1660e01b815260040160206040518083038186803b1580156107cf57600080fd5b505afa1580156107e3573d6000803e3d6000fd5b505050506040513d60208110156107f957600080fd5b810190808051906020019092919050505083836119b3565b5050565b61081d6118b9565b73ffffffffffffffffffffffffffffffffffffffff1660008054906101000a900473ffffffffffffffffffffffffffffffffffffffff1673ffffffffffffffffffffffffffffffffffffffff16146108dd576040517f08c379a00000000000000000000000000000000000000000000000000000000081526004018080602001828103825260208152602001807f4f776e61626c653a2063616c6c6572206973206e6f7420746865206f776e657281525060200191505060405180910390fd5b600073ffffffffffffffffffffffffffffffffffffffff1660008054906101000a900473ffffffffffffffffffffffffffffffffffffffff1673ffffffffffffffffffffffffffffffffffffffff167f8be0079c531659141344cd1fd0a4f28419497f9722a3daafe3b4186f6b6457e060405160405180910390a360008060006101000a81548173ffffffffffffffffffffffffffffffffffffffff021916908373ffffffffffffffffffffffffffffffffffffffff160217905550565b6109a36118b9565b73ffffffffffffffffffffffffffffffffffffffff1660008054906101000a900473ffffffffffffffffffffffffffffffffffffffff1673ffffffffffffffffffffffffffffffffffffffff1614610a63576040517f08c379a00000000000000000000000000000000000000000000000000000000081526004018080602001828103825260208152602001807f4f776e61626c653a2063616c6c6572206973206e6f7420746865206f776e657281525060200191505060405180910390fd5b600073ffffffffffffffffffffffffffffffffffffffff168173ffffffffffffffffffffffffffffffffffffffff161415610ae9576040517f08c379a000000000000000000000000000000000000000000000000000000000815260040180806020018281038252604281526020018061229a6042913960600191505060405180910390fd5b80600260006101000a81548173ffffffffffffffffffffffffffffffffffffffff021916908373ffffffffffffffffffffffffffffffffffffffff1602179055507fcad349a575b7a312fc947b899cb436e2fde2cde8be518bf412258b1d7836a54e81604051808273ffffffffffffffffffffffffffffffffffffffff16815260200191505060405180910390a150565b610b826118b9565b73ffffffffffffffffffffffffffffffffffffffff16600160009054906101000a900473ffffffffffffffffffffffffffffffffffffffff1673ffffffffffffffffffffffffffffffffffffffff161480610c165750610be06118b9565b73ffffffffffffffffffffffffffffffffffffffff16610bfe610c75565b73ffffffffffffffffffffffffffffffffffffffff16145b610c6b576040517f08c379a00000000000000000000000000000000000000000000000000000000081526004018080602001828103825260418152602001806123026041913960600191505060405180910390fd5b610c73611a69565b565b60008060009054906101000a900473ffffffffffffffffffffffffffffffffffffffff16905090565b600160009054906101000a900473ffffffffffffffffffffffffffffffffffffffff1681565b6000807f000000000000000000000000000000000000000000000000000000000000000073ffffffffffffffffffffffffffffffffffffffff166370a08231306040518263ffffffff1660e01b8152600401808273ffffffffffffffffffffffffffffffffffffffff16815260200191505060206040518083038186803b158015610d4e57600080fd5b505afa158015610d62573d6000803e3d6000fd5b505050506040513d6020811015610d7857600080fd5b81019080805190602001909291905050509050610e57610e457f000000000000000000000000000000000000000000000000000000000000000073ffffffffffffffffffffffffffffffffffffffff1663313ce5676040518163ffffffff1660e01b815260040160206040518083038186803b158015610df757600080fd5b505afa158015610e0b573d6000803e3d6000fd5b505050506040513d6020811015610e2157600080fd5b810190808051906020019092919050505060ff166012611b5d90919063ffffffff16565b600a0a82611ba790919063ffffffff16565b91505090565b7f000000000000000000000000000000000000000000000000000000000000000081565b600060149054906101000a900460ff1615610f04576040517f08c379a00000000000000000000000000000000000000000000000000000000081526004018080602001828103825260108152602001807f5061757361626c653a207061757365640000000000000000000000000000000081525060200191505060405180910390fd5b6000610fd2610fc07f000000000000000000000000000000000000000000000000000000000000000073ffffffffffffffffffffffffffffffffffffffff1663313ce5676040518163ffffffff1660e01b815260040160206040518083038186803b158015610f7257600080fd5b505afa158015610f86573d6000803e3d6000fd5b505050506040513d6020811015610f9c57600080fd5b810190808051906020019092919050505060ff166012611b5d90919063ffffffff16565b600a0a83611c2d90919063ffffffff16565b90506000811161102d576040517f08c379a00000000000000000000000000000000000000000000000000000000081526004018080602001828103825260398152602001806124366039913960400191505060405180910390fd5b7f000000000000000000000000000000000000000000000000000000000000000073ffffffffffffffffffffffffffffffffffffffff166370a08231306040518263ffffffff1660e01b8152600401808273ffffffffffffffffffffffffffffffffffffffff16815260200191505060206040518083038186803b1580156110b457600080fd5b505afa1580156110c8573d6000803e3d6000fd5b505050506040513d60208110156110de57600080fd5b8101908080519060200190929190505050811115611147576040517f08c379a00000000000000000000000000000000000000000000000000000000081526004018080602001828103825260418152602001806123886041913960600191505060405180910390fd5b6000600260009054906101000a900473ffffffffffffffffffffffffffffffffffffffff1673ffffffffffffffffffffffffffffffffffffffff1663a9d75b2b6040518163ffffffff1660e01b815260040160206040518083038186803b1580156111b157600080fd5b505afa1580156111c5573d6000803e3d6000fd5b505050506040513d60208110156111db57600080fd5b810190808051906020019092919050505090506112226111f96118b9565b30858473ffffffffffffffffffffffffffffffffffffffff16611c77909392919063ffffffff16565b61127461122d6118b9565b837f000000000000000000000000000000000000000000000000000000000000000073ffffffffffffffffffffffffffffffffffffffff16611d389092919063ffffffff16565b60008173ffffffffffffffffffffffffffffffffffffffff166318160ddd6040518163ffffffff1660e01b815260040160206040518083038186803b1580156112bc57600080fd5b505afa1580156112d0573d6000803e3d6000fd5b505050506040513d60208110156112e657600080fd5b810190808051906020019092919050505090506000600260009054906101000a900473ffffffffffffffffffffffffffffffffffffffff1673ffffffffffffffffffffffffffffffffffffffff1663b69ef8a86040518163ffffffff1660e01b815260040160206040518083038186803b15801561136357600080fd5b505afa158015611377573d6000803e3d6000fd5b505050506040513d602081101561138d57600080fd5b81019080805190602001909291905050509050808211156115535760006113bd8284611b5d90919063ffffffff16565b905060006114758573ffffffffffffffffffffffffffffffffffffffff166370a08231306040518263ffffffff1660e01b8152600401808273ffffffffffffffffffffffffffffffffffffffff16815260200191505060206040518083038186803b15801561142b57600080fd5b505afa15801561143f573d6000803e3d6000fd5b505050506040513d602081101561145557600080fd5b810190808051906020019092919050505083611dda90919063ffffffff16565b90506000811115611550576114cd600260009054906101000a900473ffffffffffffffffffffffffffffffffffffffff16828773ffffffffffffffffffffffffffffffffffffffff16611d389092919063ffffffff16565b600260009054906101000a900473ffffffffffffffffffffffffffffffffffffffff1673ffffffffffffffffffffffffffffffffffffffff16637d7c2a1c6040518163ffffffff1660e01b8152600401600060405180830381600087803b15801561153757600080fd5b505af115801561154b573d6000803e3d6000fd5b505050505b50505b61155b6118b9565b73ffffffffffffffffffffffffffffffffffffffff167f2dcc2439519c7d06fca9f8ae01e07f4f3c6ca21b5cdf8eff42cb75cf34d223c98686604051808381526020018281526020019250505060405180910390a25050505050565b6115bf6118b9565b73ffffffffffffffffffffffffffffffffffffffff1660008054906101000a900473ffffffffffffffffffffffffffffffffffffffff1673ffffffffffffffffffffffffffffffffffffffff161461167f576040517f08c379a00000000000000000000000000000000000000000000000000000000081526004018080602001828103825260208152602001807f4f776e61626c653a2063616c6c6572206973206e6f7420746865206f776e657281525060200191505060405180910390fd5b600073ffffffffffffffffffffffffffffffffffffffff168173ffffffffffffffffffffffffffffffffffffffff161415611705576040517f08c379a00000000000000000000000000000000000000000000000000000000081526004018080602001828103825260268152602001806122dc6026913960400191505060405180910390fd5b8073ffffffffffffffffffffffffffffffffffffffff1660008054906101000a900473ffffffffffffffffffffffffffffffffffffffff1673ffffffffffffffffffffffffffffffffffffffff167f8be0079c531659141344cd1fd0a4f28419497f9722a3daafe3b4186f6b6457e060405160405180910390a3806000806101000a81548173ffffffffffffffffffffffffffffffffffffffff021916908373ffffffffffffffffffffffffffffffffffffffff16021790555050565b6117ca6118b9565b73ffffffffffffffffffffffffffffffffffffffff1660008054906101000a900473ffffffffffffffffffffffffffffffffffffffff1673ffffffffffffffffffffffffffffffffffffffff161461188a576040517f08c379a00000000000000000000000000000000000000000000000000000000081526004018080602001828103825260208152602001807f4f776e61626c653a2063616c6c6572206973206e6f7420746865206f776e657281525060200191505060405180910390fd5b6118b57f000000000000000000000000000000000000000000000000000000000000000083836119b3565b5050565b600033905090565b600060149054906101000a900460ff16611943576040517f08c379a00000000000000000000000000000000000000000000000000000000081526004018080602001828103825260148152602001807f5061757361626c653a206e6f742070617573656400000000000000000000000081525060200191505060405180910390fd5b60008060146101000a81548160ff0219169083151502179055507f5db9ee0a495bf2e6ff9c91a7834c1ba4fdd244a5e8aa4e537bd38aeae4b073aa6119866118b9565b604051808273ffffffffffffffffffffffffffffffffffffffff16815260200191505060405180910390a1565b600073ffffffffffffffffffffffffffffffffffffffff168273ffffffffffffffffffffffffffffffffffffffff161415611a39576040517f08c379a000000000000000000000000000000000000000000000000000000000815260040180806020018281038252604c8152602001806123c9604c913960600191505060405180910390fd5b611a6482828573ffffffffffffffffffffffffffffffffffffffff16611d389092919063ffffffff16565b505050565b600060149054906101000a900460ff1615611aec576040517f08c379a00000000000000000000000000000000000000000000000000000000081526004018080602001828103825260108152602001807f5061757361626c653a207061757365640000000000000000000000000000000081525060200191505060405180910390fd5b6001600060146101000a81548160ff0219169083151502179055507f62e78cea01bee320cd4e420270b5ea74000d11b0c9f74754ebdbfc544b05a258611b306118b9565b604051808273ffffffffffffffffffffffffffffffffffffffff16815260200191505060405180910390a1565b6000611b9f83836040518060400160405280601e81526020017f536166654d6174683a207375627472616374696f6e206f766572666c6f770000815250611df3565b905092915050565b600080831415611bba5760009050611c27565b6000828402905082848281611bcb57fe5b0414611c22576040517f08c379a00000000000000000000000000000000000000000000000000000000081526004018080602001828103825260218152602001806124156021913960400191505060405180910390fd5b809150505b92915050565b6000611c6f83836040518060400160405280601a81526020017f536166654d6174683a206469766973696f6e206279207a65726f000000000000815250611eb3565b905092915050565b611d32846323b872dd60e01b858585604051602401808473ffffffffffffffffffffffffffffffffffffffff1681526020018373ffffffffffffffffffffffffffffffffffffffff1681526020018281526020019350505050604051602081830303815290604052907bffffffffffffffffffffffffffffffffffffffffffffffffffffffff19166020820180517bffffffffffffffffffffffffffffffffffffffffffffffffffffffff8381831617835250505050611f79565b50505050565b611dd58363a9059cbb60e01b8484604051602401808373ffffffffffffffffffffffffffffffffffffffff16815260200182815260200192505050604051602081830303815290604052907bffffffffffffffffffffffffffffffffffffffffffffffffffffffff19166020820180517bffffffffffffffffffffffffffffffffffffffffffffffffffffffff8381831617835250505050611f79565b505050565b6000818310611de95781611deb565b825b905092915050565b6000838311158290611ea0576040517f08c379a00000000000000000000000000000000000000000000000000000000081526004018080602001828103825283818151815260200191508051906020019080838360005b83811015611e65578082015181840152602081019050611e4a565b50505050905090810190601f168015611e925780820380516001836020036101000a031916815260200191505b509250505060405180910390fd5b5060008385039050809150509392505050565b60008083118290611f5f576040517f08c379a00000000000000000000000000000000000000000000000000000000081526004018080602001828103825283818151815260200191508051906020019080838360005b83811015611f24578082015181840152602081019050611f09565b50505050905090810190601f168015611f515780820380516001836020036101000a031916815260200191505b509250505060405180910390fd5b506000838581611f6b57fe5b049050809150509392505050565b6060611fdb826040518060400160405280602081526020017f5361666545524332303a206c6f772d6c6576656c2063616c6c206661696c65648152508573ffffffffffffffffffffffffffffffffffffffff166120689092919063ffffffff16565b905060008151111561206357808060200190516020811015611ffc57600080fd5b8101908080519060200190929190505050612062576040517f08c379a000000000000000000000000000000000000000000000000000000000815260040180806020018281038252602a81526020018061246f602a913960400191505060405180910390fd5b5b505050565b60606120778484600085612080565b90509392505050565b606061208b85612286565b6120fd576040517f08c379a000000000000000000000000000000000000000000000000000000000815260040180806020018281038252601d8152602001807f416464726573733a2063616c6c20746f206e6f6e2d636f6e747261637400000081525060200191505060405180910390fd5b600060608673ffffffffffffffffffffffffffffffffffffffff1685876040518082805190602001908083835b6020831061214d578051825260208201915060208101905060208303925061212a565b6001836020036101000a03801982511681845116808217855250505050505090500191505060006040518083038185875af1925050503d80600081146121af576040519150601f19603f3d011682016040523d82523d6000602084013e6121b4565b606091505b509150915081156121c957809250505061227e565b6000815111156121dc5780518082602001fd5b836040517f08c379a00000000000000000000000000000000000000000000000000000000081526004018080602001828103825283818151815260200191508051906020019080838360005b83811015612243578082015181840152602081019050612228565b50505050905090810190601f1680156122705780820380516001836020036101000a031916815260200191505b509250505060405180910390fd5b949350505050565b600080823b90506000811191505091905056fe4275796261636b4465706f73697461727942616c616e6365566965773a3a6368616e67654973737565723a20696e76616c69642069737375657220616464726573734f776e61626c653a206e6577206f776e657220697320746865207a65726f20616464726573734f776e61626c655061757361626c653a3a70617573653a206f6e6c792070617573657220616e64206f776e6572206d75737420706175736520636f6e74726163744f776e61626c655061757361626c653a3a756e70617573653a206f6e6c792070617573657220616e64206f776e6572206d75737420756e706175736520636f6e74726163744275796261636b4465706f73697461727942616c616e6365566965773a3a6275793a2070726f6475637420616d6f756e7420657863656564732062616c616e63654275796261636b4465706f73697461727942616c616e6365566965773a3a5f7472616e736665723a2063616e6e6f74207472616e7366657220746f20746865207a65726f2061646472657373536166654d6174683a206d756c7469706c69636174696f6e206f766572666c6f774275796261636b4465706f73697461727942616c616e6365566965773a3a6275793a20696e76616c69642070726f6475637420616d6f756e745361666545524332303a204552433230206f7065726174696f6e20646964206e6f742073756363656564a26469706673582212203247dff5c14827ce8f6c8ada57bb349f0e50dbbbfa42b5485d9328dbd4696bc564736f6c634300060c00334275796261636b4465706f73697461727942616c616e6365566965773a3a636f6e7374727563746f723a20696e76616c696420646563696d616c73206f662070726f6475637420746f6b656e",
  "devdoc": {
    "kind": "dev",
    "methods": {
      "balance()": {
        "returns": {
          "_0": "Balance of depositary."
        }
      },
      "buy(uint256)": {
        "params": {
          "amount": "Amount of payment token."
        }
      },
      "changeIssuer(address)": {
        "params": {
          "_issuer": "New issuer contract address."
        }
      },
      "changePauser(address)": {
        "params": {
          "newPauser": "Address of new pauser account."
        }
      },
      "constructor": {
        "params": {
          "_issuer": "Issuer contract address.",
          "_product": "Product token address."
        }
      },
      "owner()": {
        "details": "Returns the address of the current owner."
      },
      "paused()": {
        "details": "Returns true if the contract is paused, and false otherwise."
      },
      "renounceOwnership()": {
        "details": "Leaves the contract without owner. It will not be possible to call `onlyOwner` functions anymore. Can only be called by the current owner. NOTE: Renouncing ownership will leave the contract without an owner, thereby removing any functionality that is only available to the owner."
      },
      "transferOwnership(address)": {
        "details": "Transfers ownership of the contract to a new account (`newOwner`). Can only be called by the current owner."
      },
      "transferProductToken(address,uint256)": {
        "params": {
          "amount": "Amount of transferred token.",
          "recipient": "Address of recipient."
        }
      },
      "transferStableToken(address,uint256)": {
        "params": {
          "amount": "Amount of transferred token.",
          "recipient": "Address of recipient."
        }
      }
    },
    "version": 1
  },
  "userdoc": {
    "events": {
      "Buyback(address,uint256,uint256)": {
        "notice": "An event that is emitted when an account buyback stable token."
      },
      "IssuerChanged(address)": {
        "notice": "An event that is emitted when an issuer contract address changed."
      },
      "PauserChanged(address)": {
        "notice": "An event thats emitted when an pauser address changed."
      }
    },
    "kind": "user",
    "methods": {
      "balance()": {
        "notice": "Get balance of depositary."
      },
      "buy(uint256)": {
        "notice": "Buyback stable token."
      },
      "changeIssuer(address)": {
        "notice": "Change issuer contract address."
      },
      "changePauser(address)": {
        "notice": "Change pauser account."
      },
      "decimals()": {
        "notice": "Balance decimals."
      },
      "issuer()": {
        "notice": "Address of issuer contract."
      },
      "pause()": {
        "notice": "Triggers stopped state."
      },
      "pauser()": {
        "notice": "Address that can pause a contract."
      },
      "product()": {
        "notice": "Address of product token."
      },
      "transferProductToken(address,uint256)": {
        "notice": "Transfer product token."
      },
      "transferStableToken(address,uint256)": {
        "notice": "Transfer stable token."
      },
      "unpause()": {
        "notice": "Returns to normal state."
      }
    },
    "version": 1
  },
  "storageLayout": {
    "storage": [
      {
        "astId": 30,
        "contract": "contracts/depositary/BuybackDepositaryBalanceView.sol:BuybackDepositaryBalanceView",
        "label": "_owner",
        "offset": 0,
        "slot": "0",
        "type": "t_address"
      },
      {
        "astId": 1985,
        "contract": "contracts/depositary/BuybackDepositaryBalanceView.sol:BuybackDepositaryBalanceView",
        "label": "_paused",
        "offset": 20,
        "slot": "0",
        "type": "t_bool"
      },
      {
        "astId": 17902,
        "contract": "contracts/depositary/BuybackDepositaryBalanceView.sol:BuybackDepositaryBalanceView",
        "label": "pauser",
        "offset": 0,
        "slot": "1",
        "type": "t_address"
      },
      {
        "astId": 12045,
        "contract": "contracts/depositary/BuybackDepositaryBalanceView.sol:BuybackDepositaryBalanceView",
        "label": "issuer",
        "offset": 0,
        "slot": "2",
        "type": "t_contract(Issuer)6326"
      }
    ],
    "types": {
      "t_address": {
        "encoding": "inplace",
        "label": "address",
        "numberOfBytes": "20"
      },
      "t_bool": {
        "encoding": "inplace",
        "label": "bool",
        "numberOfBytes": "1"
      },
      "t_contract(Issuer)6326": {
        "encoding": "inplace",
        "label": "contract Issuer",
        "numberOfBytes": "20"
      }
    }
  }
}