{
  "address": "0xB92D6a52c00F338DD481aeD71E15ADb936ffdd69",
  "abi": [
    {
      "inputs": [
        {
          "internalType": "address",
          "name": "_governanceToken",
          "type": "address"
        },
        {
          "internalType": "address",
          "name": "_voteDelegatorPrototype",
          "type": "address"
        }
      ],
      "stateMutability": "nonpayable",
      "type": "constructor"
    },
    {
      "anonymous": false,
      "inputs": [
        {
          "indexed": true,
          "internalType": "address",
          "name": "owner",
          "type": "address"
        },
        {
          "indexed": true,
          "internalType": "address",
          "name": "spender",
          "type": "address"
        },
        {
          "indexed": false,
          "internalType": "uint256",
          "name": "value",
          "type": "uint256"
        }
      ],
      "name": "Approval",
      "type": "event"
    },
    {
      "anonymous": false,
      "inputs": [
        {
          "indexed": true,
          "internalType": "address",
          "name": "account",
          "type": "address"
        },
        {
          "indexed": false,
          "internalType": "uint256",
          "name": "amount",
          "type": "uint256"
        }
      ],
      "name": "Deposit",
      "type": "event"
    },
    {
      "anonymous": false,
      "inputs": [
        {
          "indexed": true,
          "internalType": "address",
          "name": "previousOwner",
          "type": "address"
        },
        {
          "indexed": true,
          "internalType": "address",
          "name": "newOwner",
          "type": "address"
        }
      ],
      "name": "OwnershipTransferred",
      "type": "event"
    },
    {
      "anonymous": false,
      "inputs": [
        {
          "indexed": true,
          "internalType": "address",
          "name": "from",
          "type": "address"
        },
        {
          "indexed": true,
          "internalType": "address",
          "name": "to",
          "type": "address"
        },
        {
          "indexed": false,
          "internalType": "uint256",
          "name": "value",
          "type": "uint256"
        }
      ],
      "name": "Transfer",
      "type": "event"
    },
    {
      "anonymous": false,
      "inputs": [
        {
          "indexed": true,
          "internalType": "address",
          "name": "account",
          "type": "address"
        }
      ],
      "name": "TransferAllowed",
      "type": "event"
    },
    {
      "anonymous": false,
      "inputs": [
        {
          "indexed": true,
          "internalType": "address",
          "name": "account",
          "type": "address"
        }
      ],
      "name": "TransferDenied",
      "type": "event"
    },
    {
      "anonymous": false,
      "inputs": [
        {
          "indexed": true,
          "internalType": "address",
          "name": "account",
          "type": "address"
        },
        {
          "indexed": false,
          "internalType": "address",
          "name": "voteDelegator",
          "type": "address"
        }
      ],
      "name": "VoteDelegatorCreated",
      "type": "event"
    },
    {
      "anonymous": false,
      "inputs": [
        {
          "indexed": true,
          "internalType": "address",
          "name": "account",
          "type": "address"
        }
      ],
      "name": "VoteDelegatorDestroyed",
      "type": "event"
    },
    {
      "anonymous": false,
      "inputs": [
        {
          "indexed": true,
          "internalType": "address",
          "name": "account",
          "type": "address"
        },
        {
          "indexed": false,
          "internalType": "uint256",
          "name": "amount",
          "type": "uint256"
        }
      ],
      "name": "Withdraw",
      "type": "event"
    },
    {
      "inputs": [
        {
          "internalType": "address",
          "name": "account",
          "type": "address"
        }
      ],
      "name": "allowTransfer",
      "outputs": [],
      "stateMutability": "nonpayable",
      "type": "function"
    },
    {
      "inputs": [
        {
          "internalType": "address",
          "name": "owner",
          "type": "address"
        },
        {
          "internalType": "address",
          "name": "spender",
          "type": "address"
        }
      ],
      "name": "allowance",
      "outputs": [
        {
          "internalType": "uint256",
          "name": "",
          "type": "uint256"
        }
      ],
      "stateMutability": "view",
      "type": "function"
    },
    {
      "inputs": [
        {
          "internalType": "address",
          "name": "spender",
          "type": "address"
        },
        {
          "internalType": "uint256",
          "name": "amount",
          "type": "uint256"
        }
      ],
      "name": "approve",
      "outputs": [
        {
          "internalType": "bool",
          "name": "",
          "type": "bool"
        }
      ],
      "stateMutability": "nonpayable",
      "type": "function"
    },
    {
      "inputs": [
        {
          "internalType": "address",
          "name": "account",
          "type": "address"
        }
      ],
      "name": "balanceOf",
      "outputs": [
        {
          "internalType": "uint256",
          "name": "",
          "type": "uint256"
        }
      ],
      "stateMutability": "view",
      "type": "function"
    },
    {
      "inputs": [],
      "name": "createVoteDelegator",
      "outputs": [
        {
          "internalType": "address",
          "name": "",
          "type": "address"
        }
      ],
      "stateMutability": "nonpayable",
      "type": "function"
    },
    {
      "inputs": [],
      "name": "decimals",
      "outputs": [
        {
          "internalType": "uint8",
          "name": "",
          "type": "uint8"
        }
      ],
      "stateMutability": "view",
      "type": "function"
    },
    {
      "inputs": [
        {
          "internalType": "address",
          "name": "spender",
          "type": "address"
        },
        {
          "internalType": "uint256",
          "name": "subtractedValue",
          "type": "uint256"
        }
      ],
      "name": "decreaseAllowance",
      "outputs": [
        {
          "internalType": "bool",
          "name": "",
          "type": "bool"
        }
      ],
      "stateMutability": "nonpayable",
      "type": "function"
    },
    {
      "inputs": [
        {
          "internalType": "address",
          "name": "account",
          "type": "address"
        }
      ],
      "name": "denyTransfer",
      "outputs": [],
      "stateMutability": "nonpayable",
      "type": "function"
    },
    {
      "inputs": [
        {
          "internalType": "uint256",
          "name": "amount",
          "type": "uint256"
        }
      ],
      "name": "deposit",
      "outputs": [],
      "stateMutability": "nonpayable",
      "type": "function"
    },
    {
      "inputs": [
        {
          "internalType": "address",
          "name": "account",
          "type": "address"
        },
        {
          "internalType": "uint256",
          "name": "amount",
          "type": "uint256"
        }
      ],
      "name": "depositFromDelegator",
      "outputs": [],
      "stateMutability": "nonpayable",
      "type": "function"
    },
    {
      "inputs": [],
      "name": "governanceToken",
      "outputs": [
        {
          "internalType": "address",
          "name": "",
          "type": "address"
        }
      ],
      "stateMutability": "view",
      "type": "function"
    },
    {
      "inputs": [
        {
          "internalType": "address",
          "name": "spender",
          "type": "address"
        },
        {
          "internalType": "uint256",
          "name": "addedValue",
          "type": "uint256"
        }
      ],
      "name": "increaseAllowance",
      "outputs": [
        {
          "internalType": "bool",
          "name": "",
          "type": "bool"
        }
      ],
      "stateMutability": "nonpayable",
      "type": "function"
    },
    {
      "inputs": [],
      "name": "name",
      "outputs": [
        {
          "internalType": "string",
          "name": "",
          "type": "string"
        }
      ],
      "stateMutability": "view",
      "type": "function"
    },
    {
      "inputs": [],
      "name": "owner",
      "outputs": [
        {
          "internalType": "address",
          "name": "",
          "type": "address"
        }
      ],
      "stateMutability": "view",
      "type": "function"
    },
    {
      "inputs": [],
      "name": "renounceOwnership",
      "outputs": [],
      "stateMutability": "nonpayable",
      "type": "function"
    },
    {
      "inputs": [],
      "name": "symbol",
      "outputs": [
        {
          "internalType": "string",
          "name": "",
          "type": "string"
        }
      ],
      "stateMutability": "view",
      "type": "function"
    },
    {
      "inputs": [],
      "name": "totalSupply",
      "outputs": [
        {
          "internalType": "uint256",
          "name": "",
          "type": "uint256"
        }
      ],
      "stateMutability": "view",
      "type": "function"
    },
    {
      "inputs": [
        {
          "internalType": "address",
          "name": "recipient",
          "type": "address"
        },
        {
          "internalType": "uint256",
          "name": "amount",
          "type": "uint256"
        }
      ],
      "name": "transfer",
      "outputs": [
        {
          "internalType": "bool",
          "name": "",
          "type": "bool"
        }
      ],
      "stateMutability": "nonpayable",
      "type": "function"
    },
    {
      "inputs": [
        {
          "internalType": "address",
          "name": "sender",
          "type": "address"
        },
        {
          "internalType": "address",
          "name": "recipient",
          "type": "address"
        },
        {
          "internalType": "uint256",
          "name": "amount",
          "type": "uint256"
        }
      ],
      "name": "transferFrom",
      "outputs": [
        {
          "internalType": "bool",
          "name": "",
          "type": "bool"
        }
      ],
      "stateMutability": "nonpayable",
      "type": "function"
    },
    {
      "inputs": [
        {
          "internalType": "address",
          "name": "newOwner",
          "type": "address"
        }
      ],
      "name": "transferOwnership",
      "outputs": [],
      "stateMutability": "nonpayable",
      "type": "function"
    },
    {
      "inputs": [
        {
          "internalType": "address",
          "name": "account",
          "type": "address"
        }
      ],
      "name": "voteDelegatorOf",
      "outputs": [
        {
          "internalType": "address",
          "name": "",
          "type": "address"
        }
      ],
      "stateMutability": "view",
      "type": "function"
    },
    {
      "inputs": [],
      "name": "voteDelegatorPrototype",
      "outputs": [
        {
          "internalType": "address",
          "name": "",
          "type": "address"
        }
      ],
      "stateMutability": "view",
      "type": "function"
    },
    {
      "inputs": [
        {
          "internalType": "uint256",
          "name": "amount",
          "type": "uint256"
        }
      ],
      "name": "withdraw",
      "outputs": [],
      "stateMutability": "nonpayable",
      "type": "function"
    },
    {
      "inputs": [
        {
          "internalType": "address",
          "name": "account",
          "type": "address"
        },
        {
          "internalType": "uint256",
          "name": "amount",
          "type": "uint256"
        }
      ],
      "name": "withdrawFromDelegator",
      "outputs": [],
      "stateMutability": "nonpayable",
      "type": "function"
    }
  ],
  "transactionHash": "0x2a24ca7fa35c5b290d790ab16891f34bdff629610211d355d00c9daec3433f1d",
  "args": [
    "0x1fD7A73c57b0AA195933d95cDcD93d872f76edb4",
    "0xfEE70AfD89649f115253A34ac6b0E53184e0c04a"
  ],
  "numDeployments": 1,
  "solcInputHash": "0cf4cc9fdb3e6a35148e94b9ef4590e5",
  "bytecode": "0x60a06040523480156200001157600080fd5b5060405162003873380380620038738339818101604052810190620000379190620002e8565b6040518060400160405280601c81526020017f426f6e644170706574697420476f7665726e616e6365207969656c64000000008152506040518060400160405280600481526020017f79424147000000000000000000000000000000000000000000000000000000008152506000620000b56200022360201b60201c565b9050806000806101000a81548173ffffffffffffffffffffffffffffffffffffffff021916908373ffffffffffffffffffffffffffffffffffffffff1602179055508073ffffffffffffffffffffffffffffffffffffffff16600073ffffffffffffffffffffffffffffffffffffffff167f8be0079c531659141344cd1fd0a4f28419497f9722a3daafe3b4186f6b6457e060405160405180910390a35081600490805190602001906200016b9291906200022b565b508060059080519060200190620001849291906200022b565b506012600660006101000a81548160ff021916908360ff16021790555050508173ffffffffffffffffffffffffffffffffffffffff1660808173ffffffffffffffffffffffffffffffffffffffff1660601b8152505080600660016101000a81548173ffffffffffffffffffffffffffffffffffffffff021916908373ffffffffffffffffffffffffffffffffffffffff160217905550505062000377565b600033905090565b828054600181600116156101000203166002900490600052602060002090601f016020900481019282601f106200026e57805160ff19168380011785556200029f565b828001600101855582156200029f579182015b828111156200029e57825182559160200191906001019062000281565b5b509050620002ae9190620002b2565b5090565b5b80821115620002cd576000816000905550600101620002b3565b5090565b600081519050620002e2816200035d565b92915050565b60008060408385031215620002fc57600080fd5b60006200030c85828601620002d1565b92505060206200031f85828601620002d1565b9150509250929050565b600062000336826200033d565b9050919050565b600073ffffffffffffffffffffffffffffffffffffffff82169050919050565b620003688162000329565b81146200037457600080fd5b50565b60805160601c6134cf620003a4600039806108315280610f0a52806111bf528061175f52506134cf6000f3fe608060405234801561001057600080fd5b50600436106101585760003560e01c806395d89b41116100c3578063c3b37ced1161007c578063c3b37ced146103c9578063dd62ed3e146103f9578063ece22aea14610429578063f2fde38b14610445578063f5c4201f14610461578063f96dae0a1461047d57610158565b806395d89b41146102f5578063a457c2d714610313578063a9059cbb14610343578063b3490bfc14610373578063b6b55f251461038f578063b969b133146103ab57610158565b8063313ce56711610115578063313ce56714610231578063395093511461024f5780634e7789f81461027f57806370a082311461029d578063715018a6146102cd5780638da5cb5b146102d757610158565b806306fdde031461015d578063084968111461017b578063095ea7b31461019757806318160ddd146101c757806323b872dd146101e55780632e1a7d4d14610215575b600080fd5b61016561049b565b6040516101729190612ffc565b60405180910390f35b61019560048036038101906101909190612597565b61053d565b005b6101b160048036038101906101ac9190612597565b610659565b6040516101be9190612fe1565b60405180910390f35b6101cf610677565b6040516101dc91906132be565b60405180910390f35b6101ff60048036038101906101fa9190612548565b610681565b60405161020c9190612fe1565b60405180910390f35b61022f600480360381019061022a91906125fc565b61075a565b005b6102396108c7565b60405161024691906132d9565b60405180910390f35b61026960048036038101906102649190612597565b6108de565b6040516102769190612fe1565b60405180910390f35b610287610991565b6040516102949190612f66565b60405180910390f35b6102b760048036038101906102b291906124e3565b6109b7565b6040516102c491906132be565b60405180910390f35b6102d5610a00565b005b6102df610b53565b6040516102ec9190612f66565b60405180910390f35b6102fd610b7c565b60405161030a9190612ffc565b60405180910390f35b61032d60048036038101906103289190612597565b610c1e565b60405161033a9190612fe1565b60405180910390f35b61035d60048036038101906103589190612597565b610ceb565b60405161036a9190612fe1565b60405180910390f35b61038d600480360381019061038891906124e3565b610d09565b005b6103a960048036038101906103a491906125fc565b610e3c565b005b6103b3610fab565b6040516103c09190612f66565b60405180910390f35b6103e360048036038101906103de91906124e3565b61125c565b6040516103f09190612f66565b60405180910390f35b610413600480360381019061040e919061250c565b6112c5565b60405161042091906132be565b60405180910390f35b610443600480360381019061043e9190612597565b61134c565b005b61045f600480360381019061045a91906124e3565b611468565b005b61047b600480360381019061047691906124e3565b61162a565b005b61048561175d565b6040516104929190612f66565b60405180910390f35b606060048054600181600116156101000203166002900480601f0160208091040260200160405190810160405280929190818152602001828054600181600116156101000203166002900480156105335780601f1061050857610100808354040283529160200191610533565b820191906000526020600020905b81548152906001019060200180831161051657829003601f168201915b5050505050905090565b60008111610580576040517f08c379a00000000000000000000000000000000000000000000000000000000081526004016105779061311e565b60405180910390fd5b6105898261125c565b73ffffffffffffffffffffffffffffffffffffffff166105a7611781565b73ffffffffffffffffffffffffffffffffffffffff16146105fd576040517f08c379a00000000000000000000000000000000000000000000000000000000081526004016105f4906131de565b60405180910390fd5b6106078282611789565b8173ffffffffffffffffffffffffffffffffffffffff167fe1fffcc4923d04b559f4d29a8bfc6cda04eb5b0d3c460751c2402c5c5cc9109c8260405161064d91906132be565b60405180910390a25050565b600061066d610666611781565b848461191f565b6001905092915050565b6000600354905090565b600061068e848484611aea565b61074f8461069a611781565b61074a8560405180606001604052806028815260200161344d60289139600260008b73ffffffffffffffffffffffffffffffffffffffff1673ffffffffffffffffffffffffffffffffffffffff1681526020019081526020016000206000610700611781565b73ffffffffffffffffffffffffffffffffffffffff1673ffffffffffffffffffffffffffffffffffffffff16815260200190815260200160002054611d839092919063ffffffff16565b61191f565b600190509392505050565b6000811161079d576040517f08c379a00000000000000000000000000000000000000000000000000000000081526004016107949061313e565b60405180910390fd5b60006107a7611781565b9050600073ffffffffffffffffffffffffffffffffffffffff166107ca8261125c565b73ffffffffffffffffffffffffffffffffffffffff1614610820576040517f08c379a0000000000000000000000000000000000000000000000000000000008152600401610817906130fe565b60405180910390fd5b61082a8183611dde565b61087581837f000000000000000000000000000000000000000000000000000000000000000073ffffffffffffffffffffffffffffffffffffffff16611f8e9092919063ffffffff16565b8073ffffffffffffffffffffffffffffffffffffffff167f884edad9ce6fa2440d8a54cc123490eb96d2768479d49ff9c7366125a9424364836040516108bb91906132be565b60405180910390a25050565b6000600660009054906101000a900460ff16905090565b60006109876108eb611781565b8461098285600260006108fc611781565b73ffffffffffffffffffffffffffffffffffffffff1673ffffffffffffffffffffffffffffffffffffffff16815260200190815260200160002060008973ffffffffffffffffffffffffffffffffffffffff1673ffffffffffffffffffffffffffffffffffffffff1681526020019081526020016000205461201490919063ffffffff16565b61191f565b6001905092915050565b600660019054906101000a900473ffffffffffffffffffffffffffffffffffffffff1681565b6000600160008373ffffffffffffffffffffffffffffffffffffffff1673ffffffffffffffffffffffffffffffffffffffff168152602001908152602001600020549050919050565b610a08611781565b73ffffffffffffffffffffffffffffffffffffffff1660008054906101000a900473ffffffffffffffffffffffffffffffffffffffff1673ffffffffffffffffffffffffffffffffffffffff1614610a95576040517f08c379a0000000000000000000000000000000000000000000000000000000008152600401610a8c9061315e565b60405180910390fd5b600073ffffffffffffffffffffffffffffffffffffffff1660008054906101000a900473ffffffffffffffffffffffffffffffffffffffff1673ffffffffffffffffffffffffffffffffffffffff167f8be0079c531659141344cd1fd0a4f28419497f9722a3daafe3b4186f6b6457e060405160405180910390a360008060006101000a81548173ffffffffffffffffffffffffffffffffffffffff021916908373ffffffffffffffffffffffffffffffffffffffff160217905550565b60008060009054906101000a900473ffffffffffffffffffffffffffffffffffffffff16905090565b606060058054600181600116156101000203166002900480601f016020809104026020016040519081016040528092919081815260200182805460018160011615610100020316600290048015610c145780601f10610be957610100808354040283529160200191610c14565b820191906000526020600020905b815481529060010190602001808311610bf757829003601f168201915b5050505050905090565b6000610ce1610c2b611781565b84610cdc856040518060600160405280602581526020016134756025913960026000610c55611781565b73ffffffffffffffffffffffffffffffffffffffff1673ffffffffffffffffffffffffffffffffffffffff16815260200190815260200160002060008a73ffffffffffffffffffffffffffffffffffffffff1673ffffffffffffffffffffffffffffffffffffffff16815260200190815260200160002054611d839092919063ffffffff16565b61191f565b6001905092915050565b6000610cff610cf8611781565b8484611aea565b6001905092915050565b610d11611781565b73ffffffffffffffffffffffffffffffffffffffff1660008054906101000a900473ffffffffffffffffffffffffffffffffffffffff1673ffffffffffffffffffffffffffffffffffffffff1614610d9e576040517f08c379a0000000000000000000000000000000000000000000000000000000008152600401610d959061315e565b60405180910390fd5b6001600860008373ffffffffffffffffffffffffffffffffffffffff1673ffffffffffffffffffffffffffffffffffffffff16815260200190815260200160002060006101000a81548160ff0219169083151502179055508073ffffffffffffffffffffffffffffffffffffffff167f603bfa8062dd31629426de2356498dcc751d795edf28a21fe8018e80dadf43a660405160405180910390a250565b60008111610e7f576040517f08c379a0000000000000000000000000000000000000000000000000000000008152600401610e769061323e565b60405180910390fd5b6000610e89611781565b9050600073ffffffffffffffffffffffffffffffffffffffff16610eac8261125c565b73ffffffffffffffffffffffffffffffffffffffff1614610f02576040517f08c379a0000000000000000000000000000000000000000000000000000000008152600401610ef9906130de565b60405180910390fd5b610f4f8130847f000000000000000000000000000000000000000000000000000000000000000073ffffffffffffffffffffffffffffffffffffffff16612069909392919063ffffffff16565b610f598183611789565b8073ffffffffffffffffffffffffffffffffffffffff167fe1fffcc4923d04b559f4d29a8bfc6cda04eb5b0d3c460751c2402c5c5cc9109c83604051610f9f91906132be565b60405180910390a25050565b600080610fb6611781565b90506000610fc38261125c565b9050600073ffffffffffffffffffffffffffffffffffffffff168173ffffffffffffffffffffffffffffffffffffffff1614611034576040517f08c379a000000000000000000000000000000000000000000000000000000000815260040161102b9061309e565b60405180910390fd5b6000600660019054906101000a900473ffffffffffffffffffffffffffffffffffffffff1660601b90506040517f3d602d80600a3d3981f3363d3d373d3d3d363d7300000000000000000000000081528160148201527f5af43d82803e903d91602b57fd5bf3000000000000000000000000000000000060288201526037816000f092505081600760008573ffffffffffffffffffffffffffffffffffffffff1673ffffffffffffffffffffffffffffffffffffffff16815260200190815260200160002060006101000a81548173ffffffffffffffffffffffffffffffffffffffff021916908373ffffffffffffffffffffffffffffffffffffffff1602179055508173ffffffffffffffffffffffffffffffffffffffff1663c4d66de8846040518263ffffffff1660e01b81526004016111709190612f66565b600060405180830381600087803b15801561118a57600080fd5b505af115801561119e573d6000803e3d6000fd5b5050505060006111ad846109b7565b905060008111156112045761120383827f000000000000000000000000000000000000000000000000000000000000000073ffffffffffffffffffffffffffffffffffffffff16611f8e9092919063ffffffff16565b5b8373ffffffffffffffffffffffffffffffffffffffff167fbccb0938bf9a575bef0dea7816ffa1fba073bc3ffded5cc065991c4580de02c78460405161124a9190612f66565b60405180910390a28294505050505090565b6000600760008373ffffffffffffffffffffffffffffffffffffffff1673ffffffffffffffffffffffffffffffffffffffff16815260200190815260200160002060009054906101000a900473ffffffffffffffffffffffffffffffffffffffff169050919050565b6000600260008473ffffffffffffffffffffffffffffffffffffffff1673ffffffffffffffffffffffffffffffffffffffff16815260200190815260200160002060008373ffffffffffffffffffffffffffffffffffffffff1673ffffffffffffffffffffffffffffffffffffffff16815260200190815260200160002054905092915050565b6000811161138f576040517f08c379a0000000000000000000000000000000000000000000000000000000008152600401611386906130be565b60405180910390fd5b6113988261125c565b73ffffffffffffffffffffffffffffffffffffffff166113b6611781565b73ffffffffffffffffffffffffffffffffffffffff161461140c576040517f08c379a00000000000000000000000000000000000000000000000000000000081526004016114039061317e565b60405180910390fd5b6114168282611dde565b8173ffffffffffffffffffffffffffffffffffffffff167f884edad9ce6fa2440d8a54cc123490eb96d2768479d49ff9c7366125a94243648260405161145c91906132be565b60405180910390a25050565b611470611781565b73ffffffffffffffffffffffffffffffffffffffff1660008054906101000a900473ffffffffffffffffffffffffffffffffffffffff1673ffffffffffffffffffffffffffffffffffffffff16146114fd576040517f08c379a00000000000000000000000000000000000000000000000000000000081526004016114f49061315e565b60405180910390fd5b600073ffffffffffffffffffffffffffffffffffffffff168173ffffffffffffffffffffffffffffffffffffffff16141561156d576040517f08c379a00000000000000000000000000000000000000000000000000000000081526004016115649061303e565b60405180910390fd5b8073ffffffffffffffffffffffffffffffffffffffff1660008054906101000a900473ffffffffffffffffffffffffffffffffffffffff1673ffffffffffffffffffffffffffffffffffffffff167f8be0079c531659141344cd1fd0a4f28419497f9722a3daafe3b4186f6b6457e060405160405180910390a3806000806101000a81548173ffffffffffffffffffffffffffffffffffffffff021916908373ffffffffffffffffffffffffffffffffffffffff16021790555050565b611632611781565b73ffffffffffffffffffffffffffffffffffffffff1660008054906101000a900473ffffffffffffffffffffffffffffffffffffffff1673ffffffffffffffffffffffffffffffffffffffff16146116bf576040517f08c379a00000000000000000000000000000000000000000000000000000000081526004016116b69061315e565b60405180910390fd5b6000600860008373ffffffffffffffffffffffffffffffffffffffff1673ffffffffffffffffffffffffffffffffffffffff16815260200190815260200160002060006101000a81548160ff0219169083151502179055508073ffffffffffffffffffffffffffffffffffffffff167fce0ffe5592d75dae536304552d1d373759ad17a6716e56a5750ca5e0a4e65fd960405160405180910390a250565b7f000000000000000000000000000000000000000000000000000000000000000081565b600033905090565b600073ffffffffffffffffffffffffffffffffffffffff168273ffffffffffffffffffffffffffffffffffffffff1614156117f9576040517f08c379a00000000000000000000000000000000000000000000000000000000081526004016117f09061329e565b60405180910390fd5b611805600083836120f2565b61181a8160035461201490919063ffffffff16565b60038190555061187281600160008573ffffffffffffffffffffffffffffffffffffffff1673ffffffffffffffffffffffffffffffffffffffff1681526020019081526020016000205461201490919063ffffffff16565b600160008473ffffffffffffffffffffffffffffffffffffffff1673ffffffffffffffffffffffffffffffffffffffff168152602001908152602001600020819055508173ffffffffffffffffffffffffffffffffffffffff16600073ffffffffffffffffffffffffffffffffffffffff167fddf252ad1be2c89b69c2b068fc378daa952ba7f163c4a11628f55a4df523b3ef8360405161191391906132be565b60405180910390a35050565b600073ffffffffffffffffffffffffffffffffffffffff168373ffffffffffffffffffffffffffffffffffffffff16141561198f576040517f08c379a0000000000000000000000000000000000000000000000000000000008152600401611986906131fe565b60405180910390fd5b600073ffffffffffffffffffffffffffffffffffffffff168273ffffffffffffffffffffffffffffffffffffffff1614156119ff576040517f08c379a00000000000000000000000000000000000000000000000000000000081526004016119f69061305e565b60405180910390fd5b80600260008573ffffffffffffffffffffffffffffffffffffffff1673ffffffffffffffffffffffffffffffffffffffff16815260200190815260200160002060008473ffffffffffffffffffffffffffffffffffffffff1673ffffffffffffffffffffffffffffffffffffffff168152602001908152602001600020819055508173ffffffffffffffffffffffffffffffffffffffff168373ffffffffffffffffffffffffffffffffffffffff167f8c5be1e5ebec7d5bd14f71427d1e84f3dd0314c0f7b2291e5b200ac8c7c3b92583604051611add91906132be565b60405180910390a3505050565b600073ffffffffffffffffffffffffffffffffffffffff168373ffffffffffffffffffffffffffffffffffffffff161415611b5a576040517f08c379a0000000000000000000000000000000000000000000000000000000008152600401611b51906131be565b60405180910390fd5b600073ffffffffffffffffffffffffffffffffffffffff168273ffffffffffffffffffffffffffffffffffffffff161415611bca576040517f08c379a0000000000000000000000000000000000000000000000000000000008152600401611bc19061301e565b60405180910390fd5b611bd58383836120f2565b611c418160405180606001604052806026815260200161342760269139600160008773ffffffffffffffffffffffffffffffffffffffff1673ffffffffffffffffffffffffffffffffffffffff16815260200190815260200160002054611d839092919063ffffffff16565b600160008573ffffffffffffffffffffffffffffffffffffffff1673ffffffffffffffffffffffffffffffffffffffff16815260200190815260200160002081905550611cd681600160008573ffffffffffffffffffffffffffffffffffffffff1673ffffffffffffffffffffffffffffffffffffffff1681526020019081526020016000205461201490919063ffffffff16565b600160008473ffffffffffffffffffffffffffffffffffffffff1673ffffffffffffffffffffffffffffffffffffffff168152602001908152602001600020819055508173ffffffffffffffffffffffffffffffffffffffff168373ffffffffffffffffffffffffffffffffffffffff167fddf252ad1be2c89b69c2b068fc378daa952ba7f163c4a11628f55a4df523b3ef83604051611d7691906132be565b60405180910390a3505050565b6000838311158290611dcb576040517f08c379a0000000000000000000000000000000000000000000000000000000008152600401611dc29190612ffc565b60405180910390fd5b5060008385039050809150509392505050565b600073ffffffffffffffffffffffffffffffffffffffff168273ffffffffffffffffffffffffffffffffffffffff161415611e4e576040517f08c379a0000000000000000000000000000000000000000000000000000000008152600401611e459061319e565b60405180910390fd5b611e5a826000836120f2565b611ec68160405180606001604052806022815260200161340560229139600160008673ffffffffffffffffffffffffffffffffffffffff1673ffffffffffffffffffffffffffffffffffffffff16815260200190815260200160002054611d839092919063ffffffff16565b600160008473ffffffffffffffffffffffffffffffffffffffff1673ffffffffffffffffffffffffffffffffffffffff16815260200190815260200160002081905550611f1e8160035461224590919063ffffffff16565b600381905550600073ffffffffffffffffffffffffffffffffffffffff168273ffffffffffffffffffffffffffffffffffffffff167fddf252ad1be2c89b69c2b068fc378daa952ba7f163c4a11628f55a4df523b3ef83604051611f8291906132be565b60405180910390a35050565b61200f8363a9059cbb60e01b8484604051602401611fad929190612fb8565b604051602081830303815290604052907bffffffffffffffffffffffffffffffffffffffffffffffffffffffff19166020820180517bffffffffffffffffffffffffffffffffffffffffffffffffffffffff838183161783525050505061228f565b505050565b60008082840190508381101561205f576040517f08c379a00000000000000000000000000000000000000000000000000000000081526004016120569061307e565b60405180910390fd5b8091505092915050565b6120ec846323b872dd60e01b85858560405160240161208a93929190612f81565b604051602081830303815290604052907bffffffffffffffffffffffffffffffffffffffffffffffffffffffff19166020820180517bffffffffffffffffffffffffffffffffffffffffffffffffffffffff838183161783525050505061228f565b50505050565b600860008473ffffffffffffffffffffffffffffffffffffffff1673ffffffffffffffffffffffffffffffffffffffff16815260200190815260200160002060009054906101000a900460ff16806121935750600860008373ffffffffffffffffffffffffffffffffffffffff1673ffffffffffffffffffffffffffffffffffffffff16815260200190815260200160002060009054906101000a900460ff165b806121ca5750600073ffffffffffffffffffffffffffffffffffffffff168373ffffffffffffffffffffffffffffffffffffffff16145b806122015750600073ffffffffffffffffffffffffffffffffffffffff168273ffffffffffffffffffffffffffffffffffffffff16145b612240576040517f08c379a00000000000000000000000000000000000000000000000000000000081526004016122379061327e565b60405180910390fd5b505050565b600061228783836040518060400160405280601e81526020017f536166654d6174683a207375627472616374696f6e206f766572666c6f770000815250611d83565b905092915050565b60606122f1826040518060400160405280602081526020017f5361666545524332303a206c6f772d6c6576656c2063616c6c206661696c65648152508573ffffffffffffffffffffffffffffffffffffffff166123569092919063ffffffff16565b9050600081511115612351578080602001905181019061231191906125d3565b612350576040517f08c379a00000000000000000000000000000000000000000000000000000000081526004016123479061325e565b60405180910390fd5b5b505050565b6060612365848460008561236e565b90509392505050565b606061237985612491565b6123b8576040517f08c379a00000000000000000000000000000000000000000000000000000000081526004016123af9061321e565b60405180910390fd5b600060608673ffffffffffffffffffffffffffffffffffffffff1685876040516123e29190612f4f565b60006040518083038185875af1925050503d806000811461241f576040519150601f19603f3d011682016040523d82523d6000602084013e612424565b606091505b50915091508115612439578092505050612489565b60008151111561244c5780518082602001fd5b836040517f08c379a00000000000000000000000000000000000000000000000000000000081526004016124809190612ffc565b60405180910390fd5b949350505050565b600080823b905060008111915050919050565b6000813590506124b3816133bf565b92915050565b6000815190506124c8816133d6565b92915050565b6000813590506124dd816133ed565b92915050565b6000602082840312156124f557600080fd5b6000612503848285016124a4565b91505092915050565b6000806040838503121561251f57600080fd5b600061252d858286016124a4565b925050602061253e858286016124a4565b9150509250929050565b60008060006060848603121561255d57600080fd5b600061256b868287016124a4565b935050602061257c868287016124a4565b925050604061258d868287016124ce565b9150509250925092565b600080604083850312156125aa57600080fd5b60006125b8858286016124a4565b92505060206125c9858286016124ce565b9150509250929050565b6000602082840312156125e557600080fd5b60006125f3848285016124b9565b91505092915050565b60006020828403121561260e57600080fd5b600061261c848285016124ce565b91505092915050565b61262e81613326565b82525050565b61263d81613338565b82525050565b600061264e826132f4565b612658818561330a565b935061266881856020860161337b565b80840191505092915050565b600061267f826132ff565b6126898185613315565b935061269981856020860161337b565b6126a2816133ae565b840191505092915050565b60006126ba602383613315565b91507f45524332303a207472616e7366657220746f20746865207a65726f206164647260008301527f65737300000000000000000000000000000000000000000000000000000000006020830152604082019050919050565b6000612720602683613315565b91507f4f776e61626c653a206e6577206f776e657220697320746865207a65726f206160008301527f64647265737300000000000000000000000000000000000000000000000000006020830152604082019050919050565b6000612786602283613315565b91507f45524332303a20617070726f766520746f20746865207a65726f20616464726560008301527f73730000000000000000000000000000000000000000000000000000000000006020830152604082019050919050565b60006127ec601b83613315565b91507f536166654d6174683a206164646974696f6e206f766572666c6f7700000000006000830152602082019050919050565b600061282c604183613315565b91507f5969656c64457363726f773a3a637265617465566f746544656c656761746f7260008301527f3a20766f7465732064656c656761746f7220616c72656164792063726561746560208301527f64000000000000000000000000000000000000000000000000000000000000006040830152606082019050919050565b60006128b8603b83613315565b91507f5969656c64457363726f773a3a776974686472617746726f6d44656c6567617460008301527f6f723a206e65676174697665206f72207a65726f20616d6f756e7400000000006020830152604082019050919050565b600061291e604283613315565b91507f5969656c64457363726f773a3a6465706f7369743a20766f74652064656c656760008301527f61746f72206f6e6c79206465706f73697420666f722074686973206163636f7560208301527f6e740000000000000000000000000000000000000000000000000000000000006040830152606082019050919050565b60006129aa604383613315565b91507f5969656c64457363726f773a3a77697468647261773a20766f74652064656c6560008301527f6761746f72206f6e6c79206465706f73697420666f722074686973206163636f60208301527f756e7400000000000000000000000000000000000000000000000000000000006040830152606082019050919050565b6000612a36603a83613315565b91507f5969656c64457363726f773a3a6465706f73697446726f6d44656c656761746f60008301527f723a206e65676174697665206f72207a65726f20616d6f756e740000000000006020830152604082019050919050565b6000612a9c602e83613315565b91507f5969656c64457363726f773a3a77697468647261773a206e656761746976652060008301527f6f72207a65726f20616d6f756e740000000000000000000000000000000000006020830152604082019050919050565b6000612b02602083613315565b91507f4f776e61626c653a2063616c6c6572206973206e6f7420746865206f776e65726000830152602082019050919050565b6000612b42604283613315565b91507f5969656c64457363726f773a3a776974686472617746726f6d44656c6567617460008301527f6f723a2063616c6c6572206973206e6f74206120766f74652064656c6567617460208301527f6f720000000000000000000000000000000000000000000000000000000000006040830152606082019050919050565b6000612bce602183613315565b91507f45524332303a206275726e2066726f6d20746865207a65726f2061646472657360008301527f73000000000000000000000000000000000000000000000000000000000000006020830152604082019050919050565b6000612c34602583613315565b91507f45524332303a207472616e736665722066726f6d20746865207a65726f20616460008301527f64726573730000000000000000000000000000000000000000000000000000006020830152604082019050919050565b6000612c9a604183613315565b91507f5969656c64457363726f773a3a6465706f73697446726f6d44656c656761746f60008301527f723a2063616c6c6572206973206e6f74206120766f74652064656c656761746f60208301527f72000000000000000000000000000000000000000000000000000000000000006040830152606082019050919050565b6000612d26602483613315565b91507f45524332303a20617070726f76652066726f6d20746865207a65726f2061646460008301527f72657373000000000000000000000000000000000000000000000000000000006020830152604082019050919050565b6000612d8c601d83613315565b91507f416464726573733a2063616c6c20746f206e6f6e2d636f6e74726163740000006000830152602082019050919050565b6000612dcc602d83613315565b91507f5969656c64457363726f773a3a6465706f7369743a206e65676174697665206f60008301527f72207a65726f20616d6f756e74000000000000000000000000000000000000006020830152604082019050919050565b6000612e32602a83613315565b91507f5361666545524332303a204552433230206f7065726174696f6e20646964206e60008301527f6f742073756363656564000000000000000000000000000000000000000000006020830152604082019050919050565b6000612e98602d83613315565b91507f5969656c64457363726f773a207472616e73666572206f6620746f6b656e732060008301527f69732070726f68696269746564000000000000000000000000000000000000006020830152604082019050919050565b6000612efe601f83613315565b91507f45524332303a206d696e7420746f20746865207a65726f2061646472657373006000830152602082019050919050565b612f3a81613364565b82525050565b612f498161336e565b82525050565b6000612f5b8284612643565b915081905092915050565b6000602082019050612f7b6000830184612625565b92915050565b6000606082019050612f966000830186612625565b612fa36020830185612625565b612fb06040830184612f31565b949350505050565b6000604082019050612fcd6000830185612625565b612fda6020830184612f31565b9392505050565b6000602082019050612ff66000830184612634565b92915050565b600060208201905081810360008301526130168184612674565b905092915050565b60006020820190508181036000830152613037816126ad565b9050919050565b6000602082019050818103600083015261305781612713565b9050919050565b6000602082019050818103600083015261307781612779565b9050919050565b60006020820190508181036000830152613097816127df565b9050919050565b600060208201905081810360008301526130b78161281f565b9050919050565b600060208201905081810360008301526130d7816128ab565b9050919050565b600060208201905081810360008301526130f781612911565b9050919050565b600060208201905081810360008301526131178161299d565b9050919050565b6000602082019050818103600083015261313781612a29565b9050919050565b6000602082019050818103600083015261315781612a8f565b9050919050565b6000602082019050818103600083015261317781612af5565b9050919050565b6000602082019050818103600083015261319781612b35565b9050919050565b600060208201905081810360008301526131b781612bc1565b9050919050565b600060208201905081810360008301526131d781612c27565b9050919050565b600060208201905081810360008301526131f781612c8d565b9050919050565b6000602082019050818103600083015261321781612d19565b9050919050565b6000602082019050818103600083015261323781612d7f565b9050919050565b6000602082019050818103600083015261325781612dbf565b9050919050565b6000602082019050818103600083015261327781612e25565b9050919050565b6000602082019050818103600083015261329781612e8b565b9050919050565b600060208201905081810360008301526132b781612ef1565b9050919050565b60006020820190506132d36000830184612f31565b92915050565b60006020820190506132ee6000830184612f40565b92915050565b600081519050919050565b600081519050919050565b600081905092915050565b600082825260208201905092915050565b600061333182613344565b9050919050565b60008115159050919050565b600073ffffffffffffffffffffffffffffffffffffffff82169050919050565b6000819050919050565b600060ff82169050919050565b60005b8381101561339957808201518184015260208101905061337e565b838111156133a8576000848401525b50505050565b6000601f19601f8301169050919050565b6133c881613326565b81146133d357600080fd5b50565b6133df81613338565b81146133ea57600080fd5b50565b6133f681613364565b811461340157600080fd5b5056fe45524332303a206275726e20616d6f756e7420657863656564732062616c616e636545524332303a207472616e7366657220616d6f756e7420657863656564732062616c616e636545524332303a207472616e7366657220616d6f756e74206578636565647320616c6c6f77616e636545524332303a2064656372656173656420616c6c6f77616e63652062656c6f77207a65726fa2646970667358221220f362abc2dc47351b14d004d135d8ac695160dac2655c286d8348db1b8197f52364736f6c634300060c0033",
  "devdoc": {
    "kind": "dev",
    "methods": {
      "allowTransfer(address)": {
        "params": {
          "account": "Target account."
        }
      },
      "allowance(address,address)": {
        "details": "See {IERC20-allowance}."
      },
      "approve(address,uint256)": {
        "details": "See {IERC20-approve}. Requirements: - `spender` cannot be the zero address."
      },
      "balanceOf(address)": {
        "details": "See {IERC20-balanceOf}."
      },
      "constructor": {
        "params": {
          "_governanceToken": "Governance token contract address."
        }
      },
      "createVoteDelegator()": {
        "returns": {
          "_0": "Address of vote delegator."
        }
      },
      "decimals()": {
        "details": "Returns the number of decimals used to get its user representation. For example, if `decimals` equals `2`, a balance of `505` tokens should be displayed to a user as `5,05` (`505 / 10 ** 2`). Tokens usually opt for a value of 18, imitating the relationship between Ether and Wei. This is the value {ERC20} uses, unless {_setupDecimals} is called. NOTE: This information is only used for _display_ purposes: it in no way affects any of the arithmetic of the contract, including {IERC20-balanceOf} and {IERC20-transfer}."
      },
      "decreaseAllowance(address,uint256)": {
        "details": "Atomically decreases the allowance granted to `spender` by the caller. This is an alternative to {approve} that can be used as a mitigation for problems described in {IERC20-approve}. Emits an {Approval} event indicating the updated allowance. Requirements: - `spender` cannot be the zero address. - `spender` must have allowance for the caller of at least `subtractedValue`."
      },
      "denyTransfer(address)": {
        "params": {
          "account": "Target account."
        }
      },
      "deposit(uint256)": {
        "params": {
          "amount": "Deposit amount."
        }
      },
      "depositFromDelegator(address,uint256)": {
        "params": {
          "account": "Target account.",
          "amount": "Deposit amount."
        }
      },
      "increaseAllowance(address,uint256)": {
        "details": "Atomically increases the allowance granted to `spender` by the caller. This is an alternative to {approve} that can be used as a mitigation for problems described in {IERC20-approve}. Emits an {Approval} event indicating the updated allowance. Requirements: - `spender` cannot be the zero address."
      },
      "name()": {
        "details": "Returns the name of the token."
      },
      "owner()": {
        "details": "Returns the address of the current owner."
      },
      "renounceOwnership()": {
        "details": "Leaves the contract without owner. It will not be possible to call `onlyOwner` functions anymore. Can only be called by the current owner. NOTE: Renouncing ownership will leave the contract without an owner, thereby removing any functionality that is only available to the owner."
      },
      "symbol()": {
        "details": "Returns the symbol of the token, usually a shorter version of the name."
      },
      "totalSupply()": {
        "details": "See {IERC20-totalSupply}."
      },
      "transfer(address,uint256)": {
        "details": "See {IERC20-transfer}. Requirements: - `recipient` cannot be the zero address. - the caller must have a balance of at least `amount`."
      },
      "transferFrom(address,address,uint256)": {
        "details": "See {IERC20-transferFrom}. Emits an {Approval} event indicating the updated allowance. This is not required by the EIP. See the note at the beginning of {ERC20}; Requirements: - `sender` and `recipient` cannot be the zero address. - `sender` must have a balance of at least `amount`. - the caller must have allowance for ``sender``'s tokens of at least `amount`."
      },
      "transferOwnership(address)": {
        "details": "Transfers ownership of the contract to a new account (`newOwner`). Can only be called by the current owner."
      },
      "voteDelegatorOf(address)": {
        "params": {
          "account": "Target account."
        },
        "returns": {
          "_0": "Address of vote delegator (zero if not delegate)."
        }
      },
      "withdraw(uint256)": {
        "params": {
          "amount": "Withdraw amount."
        }
      },
      "withdrawFromDelegator(address,uint256)": {
        "params": {
          "account": "Target account.",
          "amount": "Withdraw amount."
        }
      }
    },
    "stateVariables": {
      "_allowedTransferAddresses": {
        "details": "Addresses that are allowed to transfer tokens."
      },
      "_voteDelegators": {
        "details": "Created vote delegators by account."
      }
    },
    "version": 1
  },
  "userdoc": {
    "kind": "user",
    "methods": {
      "allowTransfer(address)": {
        "notice": "Allow transfer tokens for account."
      },
      "createVoteDelegator()": {
        "notice": "Create vote delegator contract for sender account."
      },
      "denyTransfer(address)": {
        "notice": "Deny transfer tokens for account."
      },
      "deposit(uint256)": {
        "notice": "Deposit governance token."
      },
      "depositFromDelegator(address,uint256)": {
        "notice": "Deposit governance token from vote delegator only."
      },
      "governanceToken()": {
        "notice": "Governance token contract."
      },
      "withdraw(uint256)": {
        "notice": "Withdraw governance token."
      },
      "withdrawFromDelegator(address,uint256)": {
        "notice": "Withdraw governance token from vote delegator only."
      }
    },
    "version": 1
  },
  "storageLayout": {
    "storage": [
      {
        "astId": 30,
        "contract": "contracts/YieldEscrow.sol:YieldEscrow",
        "label": "_owner",
        "offset": 0,
        "slot": "0",
        "type": "t_address"
      },
      {
        "astId": 600,
        "contract": "contracts/YieldEscrow.sol:YieldEscrow",
        "label": "_balances",
        "offset": 0,
        "slot": "1",
        "type": "t_mapping(t_address,t_uint256)"
      },
      {
        "astId": 606,
        "contract": "contracts/YieldEscrow.sol:YieldEscrow",
        "label": "_allowances",
        "offset": 0,
        "slot": "2",
        "type": "t_mapping(t_address,t_mapping(t_address,t_uint256))"
      },
      {
        "astId": 608,
        "contract": "contracts/YieldEscrow.sol:YieldEscrow",
        "label": "_totalSupply",
        "offset": 0,
        "slot": "3",
        "type": "t_uint256"
      },
      {
        "astId": 610,
        "contract": "contracts/YieldEscrow.sol:YieldEscrow",
        "label": "_name",
        "offset": 0,
        "slot": "4",
        "type": "t_string_storage"
      },
      {
        "astId": 612,
        "contract": "contracts/YieldEscrow.sol:YieldEscrow",
        "label": "_symbol",
        "offset": 0,
        "slot": "5",
        "type": "t_string_storage"
      },
      {
        "astId": 614,
        "contract": "contracts/YieldEscrow.sol:YieldEscrow",
        "label": "_decimals",
        "offset": 0,
        "slot": "6",
        "type": "t_uint8"
      },
      {
        "astId": 10092,
        "contract": "contracts/YieldEscrow.sol:YieldEscrow",
        "label": "voteDelegatorPrototype",
        "offset": 1,
        "slot": "6",
        "type": "t_address"
      },
      {
        "astId": 10097,
        "contract": "contracts/YieldEscrow.sol:YieldEscrow",
        "label": "_voteDelegators",
        "offset": 0,
        "slot": "7",
        "type": "t_mapping(t_address,t_address)"
      },
      {
        "astId": 10102,
        "contract": "contracts/YieldEscrow.sol:YieldEscrow",
        "label": "_allowedTransferAddresses",
        "offset": 0,
        "slot": "8",
        "type": "t_mapping(t_address,t_bool)"
      }
    ],
    "types": {
      "t_address": {
        "encoding": "inplace",
        "label": "address",
        "numberOfBytes": "20"
      },
      "t_bool": {
        "encoding": "inplace",
        "label": "bool",
        "numberOfBytes": "1"
      },
      "t_mapping(t_address,t_address)": {
        "encoding": "mapping",
        "key": "t_address",
        "label": "mapping(address => address)",
        "numberOfBytes": "32",
        "value": "t_address"
      },
      "t_mapping(t_address,t_bool)": {
        "encoding": "mapping",
        "key": "t_address",
        "label": "mapping(address => bool)",
        "numberOfBytes": "32",
        "value": "t_bool"
      },
      "t_mapping(t_address,t_mapping(t_address,t_uint256))": {
        "encoding": "mapping",
        "key": "t_address",
        "label": "mapping(address => mapping(address => uint256))",
        "numberOfBytes": "32",
        "value": "t_mapping(t_address,t_uint256)"
      },
      "t_mapping(t_address,t_uint256)": {
        "encoding": "mapping",
        "key": "t_address",
        "label": "mapping(address => uint256)",
        "numberOfBytes": "32",
        "value": "t_uint256"
      },
      "t_string_storage": {
        "encoding": "bytes",
        "label": "string",
        "numberOfBytes": "32"
      },
      "t_uint256": {
        "encoding": "inplace",
        "label": "uint256",
        "numberOfBytes": "32"
      },
      "t_uint8": {
        "encoding": "inplace",
        "label": "uint8",
        "numberOfBytes": "1"
      }
    }
  }
}