{
  "_format": "hh-sol-artifact-1",
  "contractName": "BondDepositaryBalanceView",
  "sourceName": "contracts/oracle/BondDepositaryBalanceView.sol",
  "abi": [
    {
      "inputs": [
        {
          "internalType": "address",
          "name": "_depositary",
          "type": "address"
        },
        {
          "internalType": "address",
          "name": "_securityOracle",
          "type": "address"
        }
      ],
      "stateMutability": "nonpayable",
      "type": "constructor"
    },
    {
      "inputs": [],
      "name": "balance",
      "outputs": [
        {
          "internalType": "uint256",
          "name": "",
          "type": "uint256"
        }
      ],
      "stateMutability": "view",
      "type": "function"
    },
    {
      "inputs": [],
      "name": "decimals",
      "outputs": [
        {
          "internalType": "uint256",
          "name": "",
          "type": "uint256"
        }
      ],
      "stateMutability": "view",
      "type": "function"
    },
    {
      "inputs": [],
      "name": "depositary",
      "outputs": [
        {
          "internalType": "contract IDepositaryOracle",
          "name": "",
          "type": "address"
        }
      ],
      "stateMutability": "view",
      "type": "function"
    },
    {
      "inputs": [],
      "name": "securityOracle",
      "outputs": [
        {
          "internalType": "contract ISecurityOracle",
          "name": "",
          "type": "address"
        }
      ],
      "stateMutability": "view",
      "type": "function"
    }
  ],
  "bytecode": "0x6080604052600660025534801561001557600080fd5b50604051610b90380380610b90833981810160405261003791908101906100d4565b816000806101000a81548173ffffffffffffffffffffffffffffffffffffffff021916908373ffffffffffffffffffffffffffffffffffffffff16021790555080600160006101000a81548173ffffffffffffffffffffffffffffffffffffffff021916908373ffffffffffffffffffffffffffffffffffffffff1602179055505050610159565b6000815190506100ce81610142565b92915050565b600080604083850312156100e757600080fd5b60006100f5858286016100bf565b9250506020610106858286016100bf565b9150509250929050565b600061011b82610122565b9050919050565b600073ffffffffffffffffffffffffffffffffffffffff82169050919050565b61014b81610110565b811461015657600080fd5b50565b610a28806101686000396000f3fe608060405234801561001057600080fd5b506004361061004c5760003560e01c80630e06037814610051578063313ce5671461006f578063b69ef8a81461008d578063de899f1e146100ab575b600080fd5b6100596100c9565b6040516100669190610796565b60405180910390f35b6100776100ee565b6040516100849190610841565b60405180910390f35b6100956100f4565b6040516100a29190610841565b60405180910390f35b6100b3610305565b6040516100c091906107b1565b60405180910390f35b6000809054906101000a900473ffffffffffffffffffffffffffffffffffffffff1681565b60025481565b60008060606000809054906101000a900473ffffffffffffffffffffffffffffffffffffffff1673ffffffffffffffffffffffffffffffffffffffff166310c4e8b06040518163ffffffff1660e01b815260040160006040518083038186803b15801561016057600080fd5b505afa158015610174573d6000803e3d6000fd5b505050506040513d6000823e3d601f19601f8201168201806040525061019d919081019061059f565b905060008090505b81518110156102fc576101b66103f0565b8282815181106101c257fe5b602002602001015190506000816020015114156101df57506102ef565b6060600160009054906101000a900473ffffffffffffffffffffffffffffffffffffffff1673ffffffffffffffffffffffffffffffffffffffff16633e10510b83600001516040518263ffffffff1660e01b815260040161024091906107cc565b60006040518083038186803b15801561025857600080fd5b505afa15801561026c573d6000803e3d6000fd5b505050506040513d6000823e3d601f19601f8201168201806040525061029591908101906105e0565b90506000815114156102a85750506102ef565b6000818060200190516102be9190810190610621565b90506102e96102da82856020015161032b90919063ffffffff16565b8761039b90919063ffffffff16565b95505050505b80806001019150506101a5565b50819250505090565b600160009054906101000a900473ffffffffffffffffffffffffffffffffffffffff1681565b60008083141561033e5760009050610395565b600082840290508284828161034f57fe5b0414610390576040517f08c379a000000000000000000000000000000000000000000000000000000000815260040161038790610821565b60405180910390fd5b809150505b92915050565b6000808284019050838110156103e6576040517f08c379a00000000000000000000000000000000000000000000000000000000081526004016103dd90610801565b60405180910390fd5b8091505092915050565b604051806040016040528060608152602001600081525090565b600082601f83011261041b57600080fd5b815161042e61042982610889565b61085c565b9150818183526020840193506020810190508360005b83811015610474578151860161045a8882610526565b845260208401935060208301925050600181019050610444565b5050505092915050565b600082601f83011261048f57600080fd5b81516104a261049d826108b1565b61085c565b915080825260208301602083018583830111156104be57600080fd5b6104c9838284610997565b50505092915050565b600082601f8301126104e357600080fd5b81516104f66104f1826108dd565b61085c565b9150808252602083016020830185838301111561051257600080fd5b61051d838284610997565b50505092915050565b60006040828403121561053857600080fd5b610542604061085c565b9050600082015167ffffffffffffffff81111561055e57600080fd5b61056a848285016104d2565b600083015250602061057e8482850161058a565b60208301525092915050565b600081519050610599816109db565b92915050565b6000602082840312156105b157600080fd5b600082015167ffffffffffffffff8111156105cb57600080fd5b6105d78482850161040a565b91505092915050565b6000602082840312156105f257600080fd5b600082015167ffffffffffffffff81111561060c57600080fd5b6106188482850161047e565b91505092915050565b60006020828403121561063357600080fd5b60006106418482850161058a565b91505092915050565b6106538161094f565b82525050565b61066281610973565b82525050565b600061067382610909565b61067d8185610914565b935061068d818560208601610997565b610696816109ca565b840191505092915050565b60006106ae600c83610914565b91507f6e6f6d696e616c56616c756500000000000000000000000000000000000000006000830152602082019050919050565b60006106ee601b83610914565b91507f536166654d6174683a206164646974696f6e206f766572666c6f7700000000006000830152602082019050919050565b600061072e602183610914565b91507f536166654d6174683a206d756c7469706c69636174696f6e206f766572666c6f60008301527f77000000000000000000000000000000000000000000000000000000000000006020830152604082019050919050565b61079081610945565b82525050565b60006020820190506107ab600083018461064a565b92915050565b60006020820190506107c66000830184610659565b92915050565b600060408201905081810360008301526107e68184610668565b905081810360208301526107f9816106a1565b905092915050565b6000602082019050818103600083015261081a816106e1565b9050919050565b6000602082019050818103600083015261083a81610721565b9050919050565b60006020820190506108566000830184610787565b92915050565b6000604051905081810181811067ffffffffffffffff8211171561087f57600080fd5b8060405250919050565b600067ffffffffffffffff8211156108a057600080fd5b602082029050602081019050919050565b600067ffffffffffffffff8211156108c857600080fd5b601f19601f8301169050602081019050919050565b600067ffffffffffffffff8211156108f457600080fd5b601f19601f8301169050602081019050919050565b600081519050919050565b600082825260208201905092915050565b600073ffffffffffffffffffffffffffffffffffffffff82169050919050565b6000819050919050565b600061095a82610961565b9050919050565b600061096c82610925565b9050919050565b600061097e82610985565b9050919050565b600061099082610925565b9050919050565b60005b838110156109b557808201518184015260208101905061099a565b838111156109c4576000848401525b50505050565b6000601f19601f8301169050919050565b6109e481610945565b81146109ef57600080fd5b5056fea264697066735822122060de2776666a6377972fb21a2357d21faff9b1796ecc0ff801736d216620b10864736f6c63430006020033",
  "linkReferences": {},
  "deployedLinkReferences": {}
}